{
	"data": {
		"bytecode": {
			"linkReferences": {},
			"object": "608060405234801561000f575f80fd5b506103ab8061001d5f395ff3fe608060405234801561000f575f80fd5b5060043610610034575f3560e01c8063483d868d14610038578063e6bcbc6514610068575b5f80fd5b610052600480360381019061004d919061028d565b610098565b60405161005f91906102d3565b60405180910390f35b610082600480360381019061007d919061028d565b6101ae565b60405161008f91906102fb565b60405180910390f35b5f70010000000000000000000000000000000082106100c857608082901c91506080816100c59190610341565b90505b6801000000000000000082106100ef57604082901c91506040816100ec9190610341565b90505b640100000000821061011257602082901c915060208161010f9190610341565b90505b62010000821061013357601082901c91506010816101309190610341565b90505b610100821061015357600882901c91506008816101509190610341565b90505b6010821061017257600482901c915060048161016f9190610341565b90505b6004821061019157600282901c915060028161018e9190610341565b90505b600282106101a9576001816101a69190610341565b90505b919050565b5f6fffffffffffffffffffffffffffffffff821160071b82811c925080821791505067ffffffffffffffff821160061b82811c925080821791505063ffffffff821160051b82811c925080821791505061ffff821160041b82811c925080821791505060ff821160031b82811c9250808217915050600f821160021b82811c92508082179150506003821160011b82811c925080821791505060018211808217915050919050565b5f80fd5b5f819050919050565b61026c8161025a565b8114610276575f80fd5b50565b5f8135905061028781610263565b92915050565b5f602082840312156102a2576102a1610256565b5b5f6102af84828501610279565b91505092915050565b5f60ff82169050919050565b6102cd816102b8565b82525050565b5f6020820190506102e65f8301846102c4565b92915050565b6102f58161025a565b82525050565b5f60208201905061030e5f8301846102ec565b92915050565b7f4e487b71000000000000000000000000000000000000000000000000000000005f52601160045260245ffd5b5f61034b826102b8565b9150610356836102b8565b9250828201905060ff81111561036f5761036e610314565b5b9291505056fea26469706673582212208d2d5ff7a4d00d460ccbf5020c46211e44cd442463d879f8f0901569570019eb64736f6c63430008180033",
			"opcodes": "PUSH1 0x80 PUSH1 0x40 MSTORE CALLVALUE DUP1 ISZERO PUSH2 0xF JUMPI PUSH0 DUP1 REVERT JUMPDEST POP PUSH2 0x3AB DUP1 PUSH2 0x1D PUSH0 CODECOPY PUSH0 RETURN INVALID PUSH1 0x80 PUSH1 0x40 MSTORE CALLVALUE DUP1 ISZERO PUSH2 0xF JUMPI PUSH0 DUP1 REVERT JUMPDEST POP PUSH1 0x4 CALLDATASIZE LT PUSH2 0x34 JUMPI PUSH0 CALLDATALOAD PUSH1 0xE0 SHR DUP1 PUSH4 0x483D868D EQ PUSH2 0x38 JUMPI DUP1 PUSH4 0xE6BCBC65 EQ PUSH2 0x68 JUMPI JUMPDEST PUSH0 DUP1 REVERT JUMPDEST PUSH2 0x52 PUSH1 0x4 DUP1 CALLDATASIZE SUB DUP2 ADD SWAP1 PUSH2 0x4D SWAP2 SWAP1 PUSH2 0x28D JUMP JUMPDEST PUSH2 0x98 JUMP JUMPDEST PUSH1 0x40 MLOAD PUSH2 0x5F SWAP2 SWAP1 PUSH2 0x2D3 JUMP JUMPDEST PUSH1 0x40 MLOAD DUP1 SWAP2 SUB SWAP1 RETURN JUMPDEST PUSH2 0x82 PUSH1 0x4 DUP1 CALLDATASIZE SUB DUP2 ADD SWAP1 PUSH2 0x7D SWAP2 SWAP1 PUSH2 0x28D JUMP JUMPDEST PUSH2 0x1AE JUMP JUMPDEST PUSH1 0x40 MLOAD PUSH2 0x8F SWAP2 SWAP1 PUSH2 0x2FB JUMP JUMPDEST PUSH1 0x40 MLOAD DUP1 SWAP2 SUB SWAP1 RETURN JUMPDEST PUSH0 PUSH17 0x100000000000000000000000000000000 DUP3 LT PUSH2 0xC8 JUMPI PUSH1 0x80 DUP3 SWAP1 SHR SWAP2 POP PUSH1 0x80 DUP2 PUSH2 0xC5 SWAP2 SWAP1 PUSH2 0x341 JUMP JUMPDEST SWAP1 POP JUMPDEST PUSH9 0x10000000000000000 DUP3 LT PUSH2 0xEF JUMPI PUSH1 0x40 DUP3 SWAP1 SHR SWAP2 POP PUSH1 0x40 DUP2 PUSH2 0xEC SWAP2 SWAP1 PUSH2 0x341 JUMP JUMPDEST SWAP1 POP JUMPDEST PUSH5 0x100000000 DUP3 LT PUSH2 0x112 JUMPI PUSH1 0x20 DUP3 SWAP1 SHR SWAP2 POP PUSH1 0x20 DUP2 PUSH2 0x10F SWAP2 SWAP1 PUSH2 0x341 JUMP JUMPDEST SWAP1 POP JUMPDEST PUSH3 0x10000 DUP3 LT PUSH2 0x133 JUMPI PUSH1 0x10 DUP3 SWAP1 SHR SWAP2 POP PUSH1 0x10 DUP2 PUSH2 0x130 SWAP2 SWAP1 PUSH2 0x341 JUMP JUMPDEST SWAP1 POP JUMPDEST PUSH2 0x100 DUP3 LT PUSH2 0x153 JUMPI PUSH1 0x8 DUP3 SWAP1 SHR SWAP2 POP PUSH1 0x8 DUP2 PUSH2 0x150 SWAP2 SWAP1 PUSH2 0x341 JUMP JUMPDEST SWAP1 POP JUMPDEST PUSH1 0x10 DUP3 LT PUSH2 0x172 JUMPI PUSH1 0x4 DUP3 SWAP1 SHR SWAP2 POP PUSH1 0x4 DUP2 PUSH2 0x16F SWAP2 SWAP1 PUSH2 0x341 JUMP JUMPDEST SWAP1 POP JUMPDEST PUSH1 0x4 DUP3 LT PUSH2 0x191 JUMPI PUSH1 0x2 DUP3 SWAP1 SHR SWAP2 POP PUSH1 0x2 DUP2 PUSH2 0x18E SWAP2 SWAP1 PUSH2 0x341 JUMP JUMPDEST SWAP1 POP JUMPDEST PUSH1 0x2 DUP3 LT PUSH2 0x1A9 JUMPI PUSH1 0x1 DUP2 PUSH2 0x1A6 SWAP2 SWAP1 PUSH2 0x341 JUMP JUMPDEST SWAP1 POP JUMPDEST SWAP2 SWAP1 POP JUMP JUMPDEST PUSH0 PUSH16 0xFFFFFFFFFFFFFFFFFFFFFFFFFFFFFFFF DUP3 GT PUSH1 0x7 SHL DUP3 DUP2 SHR SWAP3 POP DUP1 DUP3 OR SWAP2 POP POP PUSH8 0xFFFFFFFFFFFFFFFF DUP3 GT PUSH1 0x6 SHL DUP3 DUP2 SHR SWAP3 POP DUP1 DUP3 OR SWAP2 POP POP PUSH4 0xFFFFFFFF DUP3 GT PUSH1 0x5 SHL DUP3 DUP2 SHR SWAP3 POP DUP1 DUP3 OR SWAP2 POP POP PUSH2 0xFFFF DUP3 GT PUSH1 0x4 SHL DUP3 DUP2 SHR SWAP3 POP DUP1 DUP3 OR SWAP2 POP POP PUSH1 0xFF DUP3 GT PUSH1 0x3 SHL DUP3 DUP2 SHR SWAP3 POP DUP1 DUP3 OR SWAP2 POP POP PUSH1 0xF DUP3 GT PUSH1 0x2 SHL DUP3 DUP2 SHR SWAP3 POP DUP1 DUP3 OR SWAP2 POP POP PUSH1 0x3 DUP3 GT PUSH1 0x1 SHL DUP3 DUP2 SHR SWAP3 POP DUP1 DUP3 OR SWAP2 POP POP PUSH1 0x1 DUP3 GT DUP1 DUP3 OR SWAP2 POP POP SWAP2 SWAP1 POP JUMP JUMPDEST PUSH0 DUP1 REVERT JUMPDEST PUSH0 DUP2 SWAP1 POP SWAP2 SWAP1 POP JUMP JUMPDEST PUSH2 0x26C DUP2 PUSH2 0x25A JUMP JUMPDEST DUP2 EQ PUSH2 0x276 JUMPI PUSH0 DUP1 REVERT JUMPDEST POP JUMP JUMPDEST PUSH0 DUP2 CALLDATALOAD SWAP1 POP PUSH2 0x287 DUP2 PUSH2 0x263 JUMP JUMPDEST SWAP3 SWAP2 POP POP JUMP JUMPDEST PUSH0 PUSH1 0x20 DUP3 DUP5 SUB SLT ISZERO PUSH2 0x2A2 JUMPI PUSH2 0x2A1 PUSH2 0x256 JUMP JUMPDEST JUMPDEST PUSH0 PUSH2 0x2AF DUP5 DUP3 DUP6 ADD PUSH2 0x279 JUMP JUMPDEST SWAP2 POP POP SWAP3 SWAP2 POP POP JUMP JUMPDEST PUSH0 PUSH1 0xFF DUP3 AND SWAP1 POP SWAP2 SWAP1 POP JUMP JUMPDEST PUSH2 0x2CD DUP2 PUSH2 0x2B8 JUMP JUMPDEST DUP3 MSTORE POP POP JUMP JUMPDEST PUSH0 PUSH1 0x20 DUP3 ADD SWAP1 POP PUSH2 0x2E6 PUSH0 DUP4 ADD DUP5 PUSH2 0x2C4 JUMP JUMPDEST SWAP3 SWAP2 POP POP JUMP JUMPDEST PUSH2 0x2F5 DUP2 PUSH2 0x25A JUMP JUMPDEST DUP3 MSTORE POP POP JUMP JUMPDEST PUSH0 PUSH1 0x20 DUP3 ADD SWAP1 POP PUSH2 0x30E PUSH0 DUP4 ADD DUP5 PUSH2 0x2EC JUMP JUMPDEST SWAP3 SWAP2 POP POP JUMP JUMPDEST PUSH32 0x4E487B7100000000000000000000000000000000000000000000000000000000 PUSH0 MSTORE PUSH1 0x11 PUSH1 0x4 MSTORE PUSH1 0x24 PUSH0 REVERT JUMPDEST PUSH0 PUSH2 0x34B DUP3 PUSH2 0x2B8 JUMP JUMPDEST SWAP2 POP PUSH2 0x356 DUP4 PUSH2 0x2B8 JUMP JUMPDEST SWAP3 POP DUP3 DUP3 ADD SWAP1 POP PUSH1 0xFF DUP2 GT ISZERO PUSH2 0x36F JUMPI PUSH2 0x36E PUSH2 0x314 JUMP JUMPDEST JUMPDEST SWAP3 SWAP2 POP POP JUMP INVALID LOG2 PUSH5 0x6970667358 0x22 SLT KECCAK256 DUP14 0x2D PUSH0 0xF7 LOG4 0xD0 0xD CHAINID 0xC 0xCB CREATE2 MUL 0xC CHAINID 0x21 0x1E PREVRANDAO 0xCD PREVRANDAO 0x24 PUSH4 0xD879F8F0 SWAP1 ISZERO PUSH10 0x570019EB64736F6C6343 STOP ADDMOD XOR STOP CALLER "
		},
		"gasEstimates": {
			"creation": {
				"codeDepositCost": "187800",
				"executionCost": "230",
				"totalCost": "188030"
			},
			"external": {
				"findMostSignificantBit(uint256)": "infinite",
				"mostSignificantBit(uint256)": "infinite"
			}
		},
		"methodIdentifiers": {
			"findMostSignificantBit(uint256)": "483d868d",
			"mostSignificantBit(uint256)": "e6bcbc65"
		}
	},
	"abi": [
		{
			"inputs": [
				{
					"internalType": "uint256",
					"name": "x",
					"type": "uint256"
				}
			],
			"name": "findMostSignificantBit",
			"outputs": [
				{
					"internalType": "uint8",
					"name": "r",
					"type": "uint8"
				}
			],
			"stateMutability": "pure",
			"type": "function"
		},
		{
			"inputs": [
				{
					"internalType": "uint256",
					"name": "x",
					"type": "uint256"
				}
			],
			"name": "mostSignificantBit",
			"outputs": [
				{
					"internalType": "uint256",
					"name": "r",
					"type": "uint256"
				}
			],
			"stateMutability": "pure",
			"type": "function"
		}
	]
}