{
	"proxy/admin-common_user-changeAdmin1.sol": {
		"Proxy": {
			"abi": [
				{
					"inputs": [],
					"stateMutability": "nonpayable",
					"type": "constructor"
				},
				{
					"stateMutability": "payable",
					"type": "fallback"
				},
				{
					"inputs": [],
					"name": "ADMIN_SLOT",
					"outputs": [
						{
							"internalType": "bytes32",
							"name": "",
							"type": "bytes32"
						}
					],
					"stateMutability": "view",
					"type": "function"
				},
				{
					"inputs": [],
					"name": "IMPLEMENTATION_SLOT",
					"outputs": [
						{
							"internalType": "bytes32",
							"name": "",
							"type": "bytes32"
						}
					],
					"stateMutability": "view",
					"type": "function"
				},
				{
					"inputs": [],
					"name": "admin",
					"outputs": [
						{
							"internalType": "address",
							"name": "",
							"type": "address"
						}
					],
					"stateMutability": "view",
					"type": "function"
				},
				{
					"inputs": [],
					"name": "implementation",
					"outputs": [
						{
							"internalType": "address",
							"name": "",
							"type": "address"
						}
					],
					"stateMutability": "view",
					"type": "function"
				},
				{
					"inputs": [
						{
							"internalType": "address",
							"name": "_implementation",
							"type": "address"
						}
					],
					"name": "upgradeTo",
					"outputs": [],
					"stateMutability": "nonpayable",
					"type": "function"
				},
				{
					"stateMutability": "payable",
					"type": "receive"
				}
			],
			"devdoc": {
				"kind": "dev",
				"methods": {},
				"version": 1
			},
			"evm": {
				"assembly": "    /* \"proxy/admin-common_user-changeAdmin1.sol\":1246:4674  contract Proxy{... */\n  mstore(0x40, 0x80)\n    /* \"proxy/admin-common_user-changeAdmin1.sol\":1477:1531  constructor() {... */\n  callvalue\n  dup1\n  iszero\n  tag_1\n  jumpi\n  0x00\n  dup1\n  revert\ntag_1:\n  pop\n    /* \"proxy/admin-common_user-changeAdmin1.sol\":1502:1523  _setAdmin(msg.sender) */\n  tag_4\n    /* \"proxy/admin-common_user-changeAdmin1.sol\":1512:1522  msg.sender */\n  caller\n    /* \"proxy/admin-common_user-changeAdmin1.sol\":1502:1511  _setAdmin */\n  shl(0x20, tag_5)\n    /* \"proxy/admin-common_user-changeAdmin1.sol\":1502:1523  _setAdmin(msg.sender) */\n  0x20\n  shr\n  jump\t// in\ntag_4:\n    /* \"proxy/admin-common_user-changeAdmin1.sol\":1246:4674  contract Proxy{... */\n  jump(tag_6)\n    /* \"proxy/admin-common_user-changeAdmin1.sol\":3916:4092  function _setAdmin(address _admin) private {... */\ntag_5:\n    /* \"proxy/admin-common_user-changeAdmin1.sol\":3996:3997  0 */\n  0x00\n    /* \"proxy/admin-common_user-changeAdmin1.sol\":3978:3998  _admin != address(0) */\n  0xffffffffffffffffffffffffffffffffffffffff\n  and\n    /* \"proxy/admin-common_user-changeAdmin1.sol\":3978:3984  _admin */\n  dup2\n    /* \"proxy/admin-common_user-changeAdmin1.sol\":3978:3998  _admin != address(0) */\n  0xffffffffffffffffffffffffffffffffffffffff\n  and\n  sub\n    /* \"proxy/admin-common_user-changeAdmin1.sol\":3970:4020  require(_admin != address(0), \"admin = address 0\") */\n  tag_8\n  jumpi\n  mload(0x40)\n  0x08c379a000000000000000000000000000000000000000000000000000000000\n  dup2\n  mstore\n  0x04\n  add\n  tag_9\n  swap1\n  tag_10\n  jump\t// in\ntag_9:\n  mload(0x40)\n  dup1\n  swap2\n  sub\n  swap1\n  revert\ntag_8:\n    /* \"proxy/admin-common_user-changeAdmin1.sol\":4078:4084  _admin */\n  dup1\n    /* \"proxy/admin-common_user-changeAdmin1.sol\":4031:4069  StorageSlot.getAddressSlot(ADMIN_SLOT) */\n  tag_11\n    /* \"proxy/admin-common_user-changeAdmin1.sol\":1466:1467  1 */\n  0x01\n    /* \"proxy/admin-common_user-changeAdmin1.sol\":1430:1462  keccak256(\"eip1967.proxy.admin\") */\n  0xb53127684a568b3173ae13b9f8a6016e243e63b6e8ee1178d6a717850b5d6104\n    /* \"proxy/admin-common_user-changeAdmin1.sol\":1425:1463  uint(keccak256(\"eip1967.proxy.admin\")) */\n  0x00\n  shr\n    /* \"proxy/admin-common_user-changeAdmin1.sol\":1425:1467  uint(keccak256(\"eip1967.proxy.admin\")) - 1 */\n  tag_12\n  swap2\n  swap1\n  tag_13\n  jump\t// in\ntag_12:\n    /* \"proxy/admin-common_user-changeAdmin1.sol\":1417:1468  bytes32(uint(keccak256(\"eip1967.proxy.admin\")) - 1) */\n  0x00\n  shl\n    /* \"proxy/admin-common_user-changeAdmin1.sol\":4031:4057  StorageSlot.getAddressSlot */\n  shl(0x20, tag_14)\n    /* \"proxy/admin-common_user-changeAdmin1.sol\":4031:4069  StorageSlot.getAddressSlot(ADMIN_SLOT) */\n  0x20\n  shr\n  jump\t// in\ntag_11:\n    /* \"proxy/admin-common_user-changeAdmin1.sol\":4031:4075  StorageSlot.getAddressSlot(ADMIN_SLOT).value */\n  0x00\n  add\n  0x00\n    /* \"proxy/admin-common_user-changeAdmin1.sol\":4031:4084  StorageSlot.getAddressSlot(ADMIN_SLOT).value = _admin */\n  0x0100\n  exp\n  dup2\n  sload\n  dup2\n  0xffffffffffffffffffffffffffffffffffffffff\n  mul\n  not\n  and\n  swap1\n  dup4\n  0xffffffffffffffffffffffffffffffffffffffff\n  and\n  mul\n  or\n  swap1\n  sstore\n  pop\n    /* \"proxy/admin-common_user-changeAdmin1.sol\":3916:4092  function _setAdmin(address _admin) private {... */\n  pop\n  jump\t// out\n    /* \"proxy/admin-common_user-changeAdmin1.sol\":4763:4914  function getAddressSlot(bytes32 slot) internal pure  returns(AddressSlot storage r) {... */\ntag_14:\n    /* \"proxy/admin-common_user-changeAdmin1.sol\":4824:4845  AddressSlot storage r */\n  0x00\n    /* \"proxy/admin-common_user-changeAdmin1.sol\":4892:4896  slot */\n  dup2\n    /* \"proxy/admin-common_user-changeAdmin1.sol\":4882:4896  r.slot := slot */\n  swap1\n  pop\n    /* \"proxy/admin-common_user-changeAdmin1.sol\":4763:4914  function getAddressSlot(bytes32 slot) internal pure  returns(AddressSlot storage r) {... */\n  swap2\n  swap1\n  pop\n  jump\t// out\n    /* \"#utility.yul\":7:176   */\ntag_16:\n    /* \"#utility.yul\":91:102   */\n  0x00\n    /* \"#utility.yul\":125:131   */\n  dup3\n    /* \"#utility.yul\":120:123   */\n  dup3\n    /* \"#utility.yul\":113:132   */\n  mstore\n    /* \"#utility.yul\":165:169   */\n  0x20\n    /* \"#utility.yul\":160:163   */\n  dup3\n    /* \"#utility.yul\":156:170   */\n  add\n    /* \"#utility.yul\":141:170   */\n  swap1\n  pop\n    /* \"#utility.yul\":7:176   */\n  swap3\n  swap2\n  pop\n  pop\n  jump\t// out\n    /* \"#utility.yul\":182:349   */\ntag_17:\n    /* \"#utility.yul\":322:341   */\n  0x61646d696e203d20616464726573732030000000000000000000000000000000\n    /* \"#utility.yul\":318:319   */\n  0x00\n    /* \"#utility.yul\":310:316   */\n  dup3\n    /* \"#utility.yul\":306:320   */\n  add\n    /* \"#utility.yul\":299:342   */\n  mstore\n    /* \"#utility.yul\":182:349   */\n  pop\n  jump\t// out\n    /* \"#utility.yul\":355:721   */\ntag_18:\n    /* \"#utility.yul\":497:500   */\n  0x00\n    /* \"#utility.yul\":518:585   */\n  tag_25\n    /* \"#utility.yul\":582:584   */\n  0x11\n    /* \"#utility.yul\":577:580   */\n  dup4\n    /* \"#utility.yul\":518:585   */\n  tag_16\n  jump\t// in\ntag_25:\n    /* \"#utility.yul\":511:585   */\n  swap2\n  pop\n    /* \"#utility.yul\":594:687   */\n  tag_26\n    /* \"#utility.yul\":683:686   */\n  dup3\n    /* \"#utility.yul\":594:687   */\n  tag_17\n  jump\t// in\ntag_26:\n    /* \"#utility.yul\":712:714   */\n  0x20\n    /* \"#utility.yul\":707:710   */\n  dup3\n    /* \"#utility.yul\":703:715   */\n  add\n    /* \"#utility.yul\":696:715   */\n  swap1\n  pop\n    /* \"#utility.yul\":355:721   */\n  swap2\n  swap1\n  pop\n  jump\t// out\n    /* \"#utility.yul\":727:1146   */\ntag_10:\n    /* \"#utility.yul\":893:897   */\n  0x00\n    /* \"#utility.yul\":931:933   */\n  0x20\n    /* \"#utility.yul\":920:929   */\n  dup3\n    /* \"#utility.yul\":916:934   */\n  add\n    /* \"#utility.yul\":908:934   */\n  swap1\n  pop\n    /* \"#utility.yul\":980:989   */\n  dup2\n    /* \"#utility.yul\":974:978   */\n  dup2\n    /* \"#utility.yul\":970:990   */\n  sub\n    /* \"#utility.yul\":966:967   */\n  0x00\n    /* \"#utility.yul\":955:964   */\n  dup4\n    /* \"#utility.yul\":951:968   */\n  add\n    /* \"#utility.yul\":944:991   */\n  mstore\n    /* \"#utility.yul\":1008:1139   */\n  tag_28\n    /* \"#utility.yul\":1134:1138   */\n  dup2\n    /* \"#utility.yul\":1008:1139   */\n  tag_18\n  jump\t// in\ntag_28:\n    /* \"#utility.yul\":1000:1139   */\n  swap1\n  pop\n    /* \"#utility.yul\":727:1146   */\n  swap2\n  swap1\n  pop\n  jump\t// out\n    /* \"#utility.yul\":1152:1229   */\ntag_19:\n    /* \"#utility.yul\":1189:1196   */\n  0x00\n    /* \"#utility.yul\":1218:1223   */\n  dup2\n    /* \"#utility.yul\":1207:1223   */\n  swap1\n  pop\n    /* \"#utility.yul\":1152:1229   */\n  swap2\n  swap1\n  pop\n  jump\t// out\n    /* \"#utility.yul\":1235:1415   */\ntag_20:\n    /* \"#utility.yul\":1283:1360   */\n  0x4e487b7100000000000000000000000000000000000000000000000000000000\n    /* \"#utility.yul\":1280:1281   */\n  0x00\n    /* \"#utility.yul\":1273:1361   */\n  mstore\n    /* \"#utility.yul\":1380:1384   */\n  0x11\n    /* \"#utility.yul\":1377:1378   */\n  0x04\n    /* \"#utility.yul\":1370:1385   */\n  mstore\n    /* \"#utility.yul\":1404:1408   */\n  0x24\n    /* \"#utility.yul\":1401:1402   */\n  0x00\n    /* \"#utility.yul\":1394:1409   */\n  revert\n    /* \"#utility.yul\":1421:1615   */\ntag_13:\n    /* \"#utility.yul\":1461:1465   */\n  0x00\n    /* \"#utility.yul\":1481:1501   */\n  tag_32\n    /* \"#utility.yul\":1499:1500   */\n  dup3\n    /* \"#utility.yul\":1481:1501   */\n  tag_19\n  jump\t// in\ntag_32:\n    /* \"#utility.yul\":1476:1501   */\n  swap2\n  pop\n    /* \"#utility.yul\":1515:1535   */\n  tag_33\n    /* \"#utility.yul\":1533:1534   */\n  dup4\n    /* \"#utility.yul\":1515:1535   */\n  tag_19\n  jump\t// in\ntag_33:\n    /* \"#utility.yul\":1510:1535   */\n  swap3\n  pop\n    /* \"#utility.yul\":1559:1560   */\n  dup3\n    /* \"#utility.yul\":1556:1557   */\n  dup3\n    /* \"#utility.yul\":1552:1561   */\n  sub\n    /* \"#utility.yul\":1544:1561   */\n  swap1\n  pop\n    /* \"#utility.yul\":1583:1584   */\n  dup2\n    /* \"#utility.yul\":1577:1581   */\n  dup2\n    /* \"#utility.yul\":1574:1585   */\n  gt\n    /* \"#utility.yul\":1571:1608   */\n  iszero\n  tag_34\n  jumpi\n    /* \"#utility.yul\":1588:1606   */\n  tag_35\n  tag_20\n  jump\t// in\ntag_35:\n    /* \"#utility.yul\":1571:1608   */\ntag_34:\n    /* \"#utility.yul\":1421:1615   */\n  swap3\n  swap2\n  pop\n  pop\n  jump\t// out\n    /* \"proxy/admin-common_user-changeAdmin1.sol\":1246:4674  contract Proxy{... */\ntag_6:\n  dataSize(sub_0)\n  dup1\n  dataOffset(sub_0)\n  0x00\n  codecopy\n  0x00\n  return\nstop\n\nsub_0: assembly {\n        /* \"proxy/admin-common_user-changeAdmin1.sol\":1246:4674  contract Proxy{... */\n      mstore(0x40, 0x80)\n      jumpi(tag_1, lt(calldatasize, 0x04))\n      shr(0xe0, calldataload(0x00))\n      dup1\n      0x086fc0c7\n      eq\n      tag_3\n      jumpi\n      dup1\n      0x3659cfe6\n      eq\n      tag_4\n      jumpi\n      dup1\n      0x5c60da1b\n      eq\n      tag_5\n      jumpi\n      dup1\n      0x9c4b32be\n      eq\n      tag_6\n      jumpi\n      dup1\n      0xf851a440\n      eq\n      tag_7\n      jumpi\n      jump(tag_2)\n    tag_1:\n      jumpi(tag_2, calldatasize)\n        /* \"proxy/admin-common_user-changeAdmin1.sol\":3562:3593  _delegate(_getImplementation()) */\n      tag_10\n        /* \"proxy/admin-common_user-changeAdmin1.sol\":3572:3592  _getImplementation() */\n      tag_11\n        /* \"proxy/admin-common_user-changeAdmin1.sol\":3572:3590  _getImplementation */\n      tag_12\n        /* \"proxy/admin-common_user-changeAdmin1.sol\":3572:3592  _getImplementation() */\n      jump\t// in\n    tag_11:\n        /* \"proxy/admin-common_user-changeAdmin1.sol\":3562:3571  _delegate */\n      tag_13\n        /* \"proxy/admin-common_user-changeAdmin1.sol\":3562:3593  _delegate(_getImplementation()) */\n      jump\t// in\n    tag_10:\n        /* \"proxy/admin-common_user-changeAdmin1.sol\":1246:4674  contract Proxy{... */\n      stop\n    tag_2:\n        /* \"proxy/admin-common_user-changeAdmin1.sol\":3477:3508  _delegate(_getImplementation()) */\n      tag_16\n        /* \"proxy/admin-common_user-changeAdmin1.sol\":3487:3507  _getImplementation() */\n      tag_17\n        /* \"proxy/admin-common_user-changeAdmin1.sol\":3487:3505  _getImplementation */\n      tag_12\n        /* \"proxy/admin-common_user-changeAdmin1.sol\":3487:3507  _getImplementation() */\n      jump\t// in\n    tag_17:\n        /* \"proxy/admin-common_user-changeAdmin1.sol\":3477:3486  _delegate */\n      tag_13\n        /* \"proxy/admin-common_user-changeAdmin1.sol\":3477:3508  _delegate(_getImplementation()) */\n      jump\t// in\n    tag_16:\n        /* \"proxy/admin-common_user-changeAdmin1.sol\":1246:4674  contract Proxy{... */\n      stop\n        /* \"proxy/admin-common_user-changeAdmin1.sol\":1267:1373  bytes32 public constant IMPLEMENTATION_SLOT = bytes32(uint(keccak256(\"eip1967.proxy.implementation\")) - 1) */\n    tag_3:\n      callvalue\n      dup1\n      iszero\n      tag_18\n      jumpi\n      0x00\n      dup1\n      revert\n    tag_18:\n      pop\n      tag_19\n      tag_20\n      jump\t// in\n    tag_19:\n      mload(0x40)\n      tag_21\n      swap2\n      swap1\n      tag_22\n      jump\t// in\n    tag_21:\n      mload(0x40)\n      dup1\n      swap2\n      sub\n      swap1\n      return\n        /* \"proxy/admin-common_user-changeAdmin1.sol\":3609:3779  function upgradeTo(address _implementation) external {... */\n    tag_4:\n      callvalue\n      dup1\n      iszero\n      tag_23\n      jumpi\n      0x00\n      dup1\n      revert\n    tag_23:\n      pop\n      tag_24\n      0x04\n      dup1\n      calldatasize\n      sub\n      dup2\n      add\n      swap1\n      tag_25\n      swap2\n      swap1\n      tag_26\n      jump\t// in\n    tag_25:\n      tag_27\n      jump\t// in\n    tag_24:\n      stop\n        /* \"proxy/admin-common_user-changeAdmin1.sol\":4568:4671  function implementation() external view returns(address) {... */\n    tag_5:\n      callvalue\n      dup1\n      iszero\n      tag_28\n      jumpi\n      0x00\n      dup1\n      revert\n    tag_28:\n      pop\n      tag_29\n      tag_30\n      jump\t// in\n    tag_29:\n      mload(0x40)\n      tag_31\n      swap2\n      swap1\n      tag_32\n      jump\t// in\n    tag_31:\n      mload(0x40)\n      dup1\n      swap2\n      sub\n      swap1\n      return\n        /* \"proxy/admin-common_user-changeAdmin1.sol\":1380:1468  bytes32 public constant ADMIN_SLOT = bytes32(uint(keccak256(\"eip1967.proxy.admin\")) - 1) */\n    tag_6:\n      callvalue\n      dup1\n      iszero\n      tag_33\n      jumpi\n      0x00\n      dup1\n      revert\n    tag_33:\n      pop\n      tag_34\n      tag_35\n      jump\t// in\n    tag_34:\n      mload(0x40)\n      tag_36\n      swap2\n      swap1\n      tag_22\n      jump\t// in\n    tag_36:\n      mload(0x40)\n      dup1\n      swap2\n      sub\n      swap1\n      return\n        /* \"proxy/admin-common_user-changeAdmin1.sol\":4475:4560  function admin() external view returns(address) {... */\n    tag_7:\n      callvalue\n      dup1\n      iszero\n      tag_37\n      jumpi\n      0x00\n      dup1\n      revert\n    tag_37:\n      pop\n      tag_38\n      tag_39\n      jump\t// in\n    tag_38:\n      mload(0x40)\n      tag_40\n      swap2\n      swap1\n      tag_32\n      jump\t// in\n    tag_40:\n      mload(0x40)\n      dup1\n      swap2\n      sub\n      swap1\n      return\n        /* \"proxy/admin-common_user-changeAdmin1.sol\":4100:4239  function _getImplementation() private view returns(address) {... */\n    tag_12:\n        /* \"proxy/admin-common_user-changeAdmin1.sol\":4151:4158  address */\n      0x00\n        /* \"proxy/admin-common_user-changeAdmin1.sol\":4178:4225  StorageSlot.getAddressSlot(IMPLEMENTATION_SLOT) */\n      tag_42\n        /* \"proxy/admin-common_user-changeAdmin1.sol\":1371:1372  1 */\n      0x01\n        /* \"proxy/admin-common_user-changeAdmin1.sol\":1326:1367  keccak256(\"eip1967.proxy.implementation\") */\n      0x360894a13ba1a3210667c828492db98dca3e2076cc3735a920a3ca505d382bbd\n        /* \"proxy/admin-common_user-changeAdmin1.sol\":1321:1368  uint(keccak256(\"eip1967.proxy.implementation\")) */\n      0x00\n      shr\n        /* \"proxy/admin-common_user-changeAdmin1.sol\":1321:1372  uint(keccak256(\"eip1967.proxy.implementation\")) - 1 */\n      tag_43\n      swap2\n      swap1\n      tag_44\n      jump\t// in\n    tag_43:\n        /* \"proxy/admin-common_user-changeAdmin1.sol\":1313:1373  bytes32(uint(keccak256(\"eip1967.proxy.implementation\")) - 1) */\n      0x00\n      shl\n        /* \"proxy/admin-common_user-changeAdmin1.sol\":4178:4204  StorageSlot.getAddressSlot */\n      tag_45\n        /* \"proxy/admin-common_user-changeAdmin1.sol\":4178:4225  StorageSlot.getAddressSlot(IMPLEMENTATION_SLOT) */\n      jump\t// in\n    tag_42:\n        /* \"proxy/admin-common_user-changeAdmin1.sol\":4178:4231  StorageSlot.getAddressSlot(IMPLEMENTATION_SLOT).value */\n      0x00\n      add\n      0x00\n      swap1\n      sload\n      swap1\n      0x0100\n      exp\n      swap1\n      div\n      0xffffffffffffffffffffffffffffffffffffffff\n      and\n        /* \"proxy/admin-common_user-changeAdmin1.sol\":4171:4231  return StorageSlot.getAddressSlot(IMPLEMENTATION_SLOT).value */\n      swap1\n      pop\n        /* \"proxy/admin-common_user-changeAdmin1.sol\":4100:4239  function _getImplementation() private view returns(address) {... */\n      swap1\n      jump\t// out\n        /* \"proxy/admin-common_user-changeAdmin1.sol\":1719:3428  function _delegate(address _implementation) private {... */\n    tag_13:\n        /* \"proxy/admin-common_user-changeAdmin1.sol\":2205:2219  calldatasize() */\n      calldatasize\n        /* \"proxy/admin-common_user-changeAdmin1.sol\":2202:2203  0 */\n      0x00\n        /* \"proxy/admin-common_user-changeAdmin1.sol\":2199:2200  0 */\n      dup1\n        /* \"proxy/admin-common_user-changeAdmin1.sol\":2186:2220  calldatacopy(0, 0, calldatasize()) */\n      calldatacopy\n        /* \"proxy/admin-common_user-changeAdmin1.sol\":2742:2743  0 */\n      0x00\n        /* \"proxy/admin-common_user-changeAdmin1.sol\":2739:2740  0 */\n      dup1\n        /* \"proxy/admin-common_user-changeAdmin1.sol\":2723:2737  calldatasize() */\n      calldatasize\n        /* \"proxy/admin-common_user-changeAdmin1.sol\":2720:2721  0 */\n      0x00\n        /* \"proxy/admin-common_user-changeAdmin1.sol\":2703:2718  _implementation */\n      dup5\n        /* \"proxy/admin-common_user-changeAdmin1.sol\":2696:2701  gas() */\n      gas\n        /* \"proxy/admin-common_user-changeAdmin1.sol\":2683:2744  delegatecall(gas(), _implementation, 0, calldatasize(), 0, 0) */\n      delegatecall\n        /* \"proxy/admin-common_user-changeAdmin1.sol\":2982:2998  returndatasize() */\n      returndatasize\n        /* \"proxy/admin-common_user-changeAdmin1.sol\":2979:2980  0 */\n      0x00\n        /* \"proxy/admin-common_user-changeAdmin1.sol\":2976:2977  0 */\n      dup1\n        /* \"proxy/admin-common_user-changeAdmin1.sol\":2961:2999  returndatacopy(0, 0, returndatasize()) */\n      returndatacopy\n        /* \"proxy/admin-common_user-changeAdmin1.sol\":3022:3028  result */\n      dup1\n        /* \"proxy/admin-common_user-changeAdmin1.sol\":3096:3097  0 */\n      0x00\n        /* \"proxy/admin-common_user-changeAdmin1.sol\":3091:3254  case 0 {... */\n      dup2\n      eq\n      tag_48\n      jumpi\n        /* \"proxy/admin-common_user-changeAdmin1.sol\":3376:3392  returndatasize() */\n      returndatasize\n        /* \"proxy/admin-common_user-changeAdmin1.sol\":3373:3374  0 */\n      0x00\n        /* \"proxy/admin-common_user-changeAdmin1.sol\":3365:3393  return (0, returndatasize()) */\n      return\n        /* \"proxy/admin-common_user-changeAdmin1.sol\":3091:3254  case 0 {... */\n    tag_48:\n        /* \"proxy/admin-common_user-changeAdmin1.sol\":3222:3238  returndatasize() */\n      returndatasize\n        /* \"proxy/admin-common_user-changeAdmin1.sol\":3219:3220  0 */\n      0x00\n        /* \"proxy/admin-common_user-changeAdmin1.sol\":3212:3239  revert(0, returndatasize()) */\n      revert\n        /* \"proxy/admin-common_user-changeAdmin1.sol\":1267:1373  bytes32 public constant IMPLEMENTATION_SLOT = bytes32(uint(keccak256(\"eip1967.proxy.implementation\")) - 1) */\n    tag_20:\n        /* \"proxy/admin-common_user-changeAdmin1.sol\":1371:1372  1 */\n      0x01\n        /* \"proxy/admin-common_user-changeAdmin1.sol\":1326:1367  keccak256(\"eip1967.proxy.implementation\") */\n      0x360894a13ba1a3210667c828492db98dca3e2076cc3735a920a3ca505d382bbd\n        /* \"proxy/admin-common_user-changeAdmin1.sol\":1321:1368  uint(keccak256(\"eip1967.proxy.implementation\")) */\n      0x00\n      shr\n        /* \"proxy/admin-common_user-changeAdmin1.sol\":1321:1372  uint(keccak256(\"eip1967.proxy.implementation\")) - 1 */\n      tag_49\n      swap2\n      swap1\n      tag_44\n      jump\t// in\n    tag_49:\n        /* \"proxy/admin-common_user-changeAdmin1.sol\":1313:1373  bytes32(uint(keccak256(\"eip1967.proxy.implementation\")) - 1) */\n      0x00\n      shl\n        /* \"proxy/admin-common_user-changeAdmin1.sol\":1267:1373  bytes32 public constant IMPLEMENTATION_SLOT = bytes32(uint(keccak256(\"eip1967.proxy.implementation\")) - 1) */\n      dup2\n      jump\t// out\n        /* \"proxy/admin-common_user-changeAdmin1.sol\":3609:3779  function upgradeTo(address _implementation) external {... */\n    tag_27:\n        /* \"proxy/admin-common_user-changeAdmin1.sol\":3695:3706  _getAdmin() */\n      tag_51\n        /* \"proxy/admin-common_user-changeAdmin1.sol\":3695:3704  _getAdmin */\n      tag_52\n        /* \"proxy/admin-common_user-changeAdmin1.sol\":3695:3706  _getAdmin() */\n      jump\t// in\n    tag_51:\n        /* \"proxy/admin-common_user-changeAdmin1.sol\":3681:3706  msg.sender == _getAdmin() */\n      0xffffffffffffffffffffffffffffffffffffffff\n      and\n        /* \"proxy/admin-common_user-changeAdmin1.sol\":3681:3691  msg.sender */\n      caller\n        /* \"proxy/admin-common_user-changeAdmin1.sol\":3681:3706  msg.sender == _getAdmin() */\n      0xffffffffffffffffffffffffffffffffffffffff\n      and\n      eq\n        /* \"proxy/admin-common_user-changeAdmin1.sol\":3673:3725  require(msg.sender == _getAdmin(), \"not authorized\") */\n      tag_53\n      jumpi\n      mload(0x40)\n      0x08c379a000000000000000000000000000000000000000000000000000000000\n      dup2\n      mstore\n      0x04\n      add\n      tag_54\n      swap1\n      tag_55\n      jump\t// in\n    tag_54:\n      mload(0x40)\n      dup1\n      swap2\n      sub\n      swap1\n      revert\n    tag_53:\n        /* \"proxy/admin-common_user-changeAdmin1.sol\":3736:3771  _setImplementation(_implementation) */\n      tag_56\n        /* \"proxy/admin-common_user-changeAdmin1.sol\":3755:3770  _implementation */\n      dup2\n        /* \"proxy/admin-common_user-changeAdmin1.sol\":3736:3754  _setImplementation */\n      tag_57\n        /* \"proxy/admin-common_user-changeAdmin1.sol\":3736:3771  _setImplementation(_implementation) */\n      jump\t// in\n    tag_56:\n        /* \"proxy/admin-common_user-changeAdmin1.sol\":3609:3779  function upgradeTo(address _implementation) external {... */\n      pop\n      jump\t// out\n        /* \"proxy/admin-common_user-changeAdmin1.sol\":4568:4671  function implementation() external view returns(address) {... */\n    tag_30:\n        /* \"proxy/admin-common_user-changeAdmin1.sol\":4616:4623  address */\n      0x00\n        /* \"proxy/admin-common_user-changeAdmin1.sol\":4643:4663  _getImplementation() */\n      tag_59\n        /* \"proxy/admin-common_user-changeAdmin1.sol\":4643:4661  _getImplementation */\n      tag_12\n        /* \"proxy/admin-common_user-changeAdmin1.sol\":4643:4663  _getImplementation() */\n      jump\t// in\n    tag_59:\n        /* \"proxy/admin-common_user-changeAdmin1.sol\":4636:4663  return _getImplementation() */\n      swap1\n      pop\n        /* \"proxy/admin-common_user-changeAdmin1.sol\":4568:4671  function implementation() external view returns(address) {... */\n      swap1\n      jump\t// out\n        /* \"proxy/admin-common_user-changeAdmin1.sol\":1380:1468  bytes32 public constant ADMIN_SLOT = bytes32(uint(keccak256(\"eip1967.proxy.admin\")) - 1) */\n    tag_35:\n        /* \"proxy/admin-common_user-changeAdmin1.sol\":1466:1467  1 */\n      0x01\n        /* \"proxy/admin-common_user-changeAdmin1.sol\":1430:1462  keccak256(\"eip1967.proxy.admin\") */\n      0xb53127684a568b3173ae13b9f8a6016e243e63b6e8ee1178d6a717850b5d6104\n        /* \"proxy/admin-common_user-changeAdmin1.sol\":1425:1463  uint(keccak256(\"eip1967.proxy.admin\")) */\n      0x00\n      shr\n        /* \"proxy/admin-common_user-changeAdmin1.sol\":1425:1467  uint(keccak256(\"eip1967.proxy.admin\")) - 1 */\n      tag_60\n      swap2\n      swap1\n      tag_44\n      jump\t// in\n    tag_60:\n        /* \"proxy/admin-common_user-changeAdmin1.sol\":1417:1468  bytes32(uint(keccak256(\"eip1967.proxy.admin\")) - 1) */\n      0x00\n      shl\n        /* \"proxy/admin-common_user-changeAdmin1.sol\":1380:1468  bytes32 public constant ADMIN_SLOT = bytes32(uint(keccak256(\"eip1967.proxy.admin\")) - 1) */\n      dup2\n      jump\t// out\n        /* \"proxy/admin-common_user-changeAdmin1.sol\":4475:4560  function admin() external view returns(address) {... */\n    tag_39:\n        /* \"proxy/admin-common_user-changeAdmin1.sol\":4514:4521  address */\n      0x00\n        /* \"proxy/admin-common_user-changeAdmin1.sol\":4541:4552  _getAdmin() */\n      tag_62\n        /* \"proxy/admin-common_user-changeAdmin1.sol\":4541:4550  _getAdmin */\n      tag_52\n        /* \"proxy/admin-common_user-changeAdmin1.sol\":4541:4552  _getAdmin() */\n      jump\t// in\n    tag_62:\n        /* \"proxy/admin-common_user-changeAdmin1.sol\":4534:4552  return _getAdmin() */\n      swap1\n      pop\n        /* \"proxy/admin-common_user-changeAdmin1.sol\":4475:4560  function admin() external view returns(address) {... */\n      swap1\n      jump\t// out\n        /* \"proxy/admin-common_user-changeAdmin1.sol\":4763:4914  function getAddressSlot(bytes32 slot) internal pure  returns(AddressSlot storage r) {... */\n    tag_45:\n        /* \"proxy/admin-common_user-changeAdmin1.sol\":4824:4845  AddressSlot storage r */\n      0x00\n        /* \"proxy/admin-common_user-changeAdmin1.sol\":4892:4896  slot */\n      dup2\n        /* \"proxy/admin-common_user-changeAdmin1.sol\":4882:4896  r.slot := slot */\n      swap1\n      pop\n        /* \"proxy/admin-common_user-changeAdmin1.sol\":4763:4914  function getAddressSlot(bytes32 slot) internal pure  returns(AddressSlot storage r) {... */\n      swap2\n      swap1\n      pop\n      jump\t// out\n        /* \"proxy/admin-common_user-changeAdmin1.sol\":3787:3908  function _getAdmin() private view returns(address) {... */\n    tag_52:\n        /* \"proxy/admin-common_user-changeAdmin1.sol\":3829:3836  address */\n      0x00\n        /* \"proxy/admin-common_user-changeAdmin1.sol\":3856:3894  StorageSlot.getAddressSlot(ADMIN_SLOT) */\n      tag_65\n        /* \"proxy/admin-common_user-changeAdmin1.sol\":1466:1467  1 */\n      0x01\n        /* \"proxy/admin-common_user-changeAdmin1.sol\":1430:1462  keccak256(\"eip1967.proxy.admin\") */\n      0xb53127684a568b3173ae13b9f8a6016e243e63b6e8ee1178d6a717850b5d6104\n        /* \"proxy/admin-common_user-changeAdmin1.sol\":1425:1463  uint(keccak256(\"eip1967.proxy.admin\")) */\n      0x00\n      shr\n        /* \"proxy/admin-common_user-changeAdmin1.sol\":1425:1467  uint(keccak256(\"eip1967.proxy.admin\")) - 1 */\n      tag_66\n      swap2\n      swap1\n      tag_44\n      jump\t// in\n    tag_66:\n        /* \"proxy/admin-common_user-changeAdmin1.sol\":1417:1468  bytes32(uint(keccak256(\"eip1967.proxy.admin\")) - 1) */\n      0x00\n      shl\n        /* \"proxy/admin-common_user-changeAdmin1.sol\":3856:3882  StorageSlot.getAddressSlot */\n      tag_45\n        /* \"proxy/admin-common_user-changeAdmin1.sol\":3856:3894  StorageSlot.getAddressSlot(ADMIN_SLOT) */\n      jump\t// in\n    tag_65:\n        /* \"proxy/admin-common_user-changeAdmin1.sol\":3856:3900  StorageSlot.getAddressSlot(ADMIN_SLOT).value */\n      0x00\n      add\n      0x00\n      swap1\n      sload\n      swap1\n      0x0100\n      exp\n      swap1\n      div\n      0xffffffffffffffffffffffffffffffffffffffff\n      and\n        /* \"proxy/admin-common_user-changeAdmin1.sol\":3849:3900  return StorageSlot.getAddressSlot(ADMIN_SLOT).value */\n      swap1\n      pop\n        /* \"proxy/admin-common_user-changeAdmin1.sol\":3787:3908  function _getAdmin() private view returns(address) {... */\n      swap1\n      jump\t// out\n        /* \"proxy/admin-common_user-changeAdmin1.sol\":4247:4467  function _setImplementation(address _implementation) private {... */\n    tag_57:\n        /* \"proxy/admin-common_user-changeAdmin1.sol\":4357:4358  0 */\n      0x00\n        /* \"proxy/admin-common_user-changeAdmin1.sol\":4327:4342  _implementation */\n      dup2\n        /* \"proxy/admin-common_user-changeAdmin1.sol\":4327:4354  _implementation.code.length */\n      0xffffffffffffffffffffffffffffffffffffffff\n      and\n      extcodesize\n        /* \"proxy/admin-common_user-changeAdmin1.sol\":4327:4358  _implementation.code.length > 0 */\n      gt\n        /* \"proxy/admin-common_user-changeAdmin1.sol\":4319:4377  require(_implementation.code.length > 0, \"not a contract\") */\n      tag_68\n      jumpi\n      mload(0x40)\n      0x08c379a000000000000000000000000000000000000000000000000000000000\n      dup2\n      mstore\n      0x04\n      add\n      tag_69\n      swap1\n      tag_70\n      jump\t// in\n    tag_69:\n      mload(0x40)\n      dup1\n      swap2\n      sub\n      swap1\n      revert\n    tag_68:\n        /* \"proxy/admin-common_user-changeAdmin1.sol\":4444:4459  _implementation */\n      dup1\n        /* \"proxy/admin-common_user-changeAdmin1.sol\":4388:4435  StorageSlot.getAddressSlot(IMPLEMENTATION_SLOT) */\n      tag_71\n        /* \"proxy/admin-common_user-changeAdmin1.sol\":1371:1372  1 */\n      0x01\n        /* \"proxy/admin-common_user-changeAdmin1.sol\":1326:1367  keccak256(\"eip1967.proxy.implementation\") */\n      0x360894a13ba1a3210667c828492db98dca3e2076cc3735a920a3ca505d382bbd\n        /* \"proxy/admin-common_user-changeAdmin1.sol\":1321:1368  uint(keccak256(\"eip1967.proxy.implementation\")) */\n      0x00\n      shr\n        /* \"proxy/admin-common_user-changeAdmin1.sol\":1321:1372  uint(keccak256(\"eip1967.proxy.implementation\")) - 1 */\n      tag_72\n      swap2\n      swap1\n      tag_44\n      jump\t// in\n    tag_72:\n        /* \"proxy/admin-common_user-changeAdmin1.sol\":1313:1373  bytes32(uint(keccak256(\"eip1967.proxy.implementation\")) - 1) */\n      0x00\n      shl\n        /* \"proxy/admin-common_user-changeAdmin1.sol\":4388:4414  StorageSlot.getAddressSlot */\n      tag_45\n        /* \"proxy/admin-common_user-changeAdmin1.sol\":4388:4435  StorageSlot.getAddressSlot(IMPLEMENTATION_SLOT) */\n      jump\t// in\n    tag_71:\n        /* \"proxy/admin-common_user-changeAdmin1.sol\":4388:4441  StorageSlot.getAddressSlot(IMPLEMENTATION_SLOT).value */\n      0x00\n      add\n      0x00\n        /* \"proxy/admin-common_user-changeAdmin1.sol\":4388:4459  StorageSlot.getAddressSlot(IMPLEMENTATION_SLOT).value = _implementation */\n      0x0100\n      exp\n      dup2\n      sload\n      dup2\n      0xffffffffffffffffffffffffffffffffffffffff\n      mul\n      not\n      and\n      swap1\n      dup4\n      0xffffffffffffffffffffffffffffffffffffffff\n      and\n      mul\n      or\n      swap1\n      sstore\n      pop\n        /* \"proxy/admin-common_user-changeAdmin1.sol\":4247:4467  function _setImplementation(address _implementation) private {... */\n      pop\n      jump\t// out\n        /* \"#utility.yul\":7:84   */\n    tag_73:\n        /* \"#utility.yul\":44:51   */\n      0x00\n        /* \"#utility.yul\":73:78   */\n      dup2\n        /* \"#utility.yul\":62:78   */\n      swap1\n      pop\n        /* \"#utility.yul\":7:84   */\n      swap2\n      swap1\n      pop\n      jump\t// out\n        /* \"#utility.yul\":90:208   */\n    tag_74:\n        /* \"#utility.yul\":177:201   */\n      tag_93\n        /* \"#utility.yul\":195:200   */\n      dup2\n        /* \"#utility.yul\":177:201   */\n      tag_73\n      jump\t// in\n    tag_93:\n        /* \"#utility.yul\":172:175   */\n      dup3\n        /* \"#utility.yul\":165:202   */\n      mstore\n        /* \"#utility.yul\":90:208   */\n      pop\n      pop\n      jump\t// out\n        /* \"#utility.yul\":214:436   */\n    tag_22:\n        /* \"#utility.yul\":307:311   */\n      0x00\n        /* \"#utility.yul\":345:347   */\n      0x20\n        /* \"#utility.yul\":334:343   */\n      dup3\n        /* \"#utility.yul\":330:348   */\n      add\n        /* \"#utility.yul\":322:348   */\n      swap1\n      pop\n        /* \"#utility.yul\":358:429   */\n      tag_95\n        /* \"#utility.yul\":426:427   */\n      0x00\n        /* \"#utility.yul\":415:424   */\n      dup4\n        /* \"#utility.yul\":411:428   */\n      add\n        /* \"#utility.yul\":402:408   */\n      dup5\n        /* \"#utility.yul\":358:429   */\n      tag_74\n      jump\t// in\n    tag_95:\n        /* \"#utility.yul\":214:436   */\n      swap3\n      swap2\n      pop\n      pop\n      jump\t// out\n        /* \"#utility.yul\":523:640   */\n    tag_76:\n        /* \"#utility.yul\":632:633   */\n      0x00\n        /* \"#utility.yul\":629:630   */\n      dup1\n        /* \"#utility.yul\":622:634   */\n      revert\n        /* \"#utility.yul\":769:895   */\n    tag_78:\n        /* \"#utility.yul\":806:813   */\n      0x00\n        /* \"#utility.yul\":846:888   */\n      0xffffffffffffffffffffffffffffffffffffffff\n        /* \"#utility.yul\":839:844   */\n      dup3\n        /* \"#utility.yul\":835:889   */\n      and\n        /* \"#utility.yul\":824:889   */\n      swap1\n      pop\n        /* \"#utility.yul\":769:895   */\n      swap2\n      swap1\n      pop\n      jump\t// out\n        /* \"#utility.yul\":901:997   */\n    tag_79:\n        /* \"#utility.yul\":938:945   */\n      0x00\n        /* \"#utility.yul\":967:991   */\n      tag_101\n        /* \"#utility.yul\":985:990   */\n      dup3\n        /* \"#utility.yul\":967:991   */\n      tag_78\n      jump\t// in\n    tag_101:\n        /* \"#utility.yul\":956:991   */\n      swap1\n      pop\n        /* \"#utility.yul\":901:997   */\n      swap2\n      swap1\n      pop\n      jump\t// out\n        /* \"#utility.yul\":1003:1125   */\n    tag_80:\n        /* \"#utility.yul\":1076:1100   */\n      tag_103\n        /* \"#utility.yul\":1094:1099   */\n      dup2\n        /* \"#utility.yul\":1076:1100   */\n      tag_79\n      jump\t// in\n    tag_103:\n        /* \"#utility.yul\":1069:1074   */\n      dup2\n        /* \"#utility.yul\":1066:1101   */\n      eq\n        /* \"#utility.yul\":1056:1119   */\n      tag_104\n      jumpi\n        /* \"#utility.yul\":1115:1116   */\n      0x00\n        /* \"#utility.yul\":1112:1113   */\n      dup1\n        /* \"#utility.yul\":1105:1117   */\n      revert\n        /* \"#utility.yul\":1056:1119   */\n    tag_104:\n        /* \"#utility.yul\":1003:1125   */\n      pop\n      jump\t// out\n        /* \"#utility.yul\":1131:1270   */\n    tag_81:\n        /* \"#utility.yul\":1177:1182   */\n      0x00\n        /* \"#utility.yul\":1215:1221   */\n      dup2\n        /* \"#utility.yul\":1202:1222   */\n      calldataload\n        /* \"#utility.yul\":1193:1222   */\n      swap1\n      pop\n        /* \"#utility.yul\":1231:1264   */\n      tag_106\n        /* \"#utility.yul\":1258:1263   */\n      dup2\n        /* \"#utility.yul\":1231:1264   */\n      tag_80\n      jump\t// in\n    tag_106:\n        /* \"#utility.yul\":1131:1270   */\n      swap3\n      swap2\n      pop\n      pop\n      jump\t// out\n        /* \"#utility.yul\":1276:1605   */\n    tag_26:\n        /* \"#utility.yul\":1335:1341   */\n      0x00\n        /* \"#utility.yul\":1384:1386   */\n      0x20\n        /* \"#utility.yul\":1372:1381   */\n      dup3\n        /* \"#utility.yul\":1363:1370   */\n      dup5\n        /* \"#utility.yul\":1359:1382   */\n      sub\n        /* \"#utility.yul\":1355:1387   */\n      slt\n        /* \"#utility.yul\":1352:1471   */\n      iszero\n      tag_108\n      jumpi\n        /* \"#utility.yul\":1390:1469   */\n      tag_109\n      tag_76\n      jump\t// in\n    tag_109:\n        /* \"#utility.yul\":1352:1471   */\n    tag_108:\n        /* \"#utility.yul\":1510:1511   */\n      0x00\n        /* \"#utility.yul\":1535:1588   */\n      tag_110\n        /* \"#utility.yul\":1580:1587   */\n      dup5\n        /* \"#utility.yul\":1571:1577   */\n      dup3\n        /* \"#utility.yul\":1560:1569   */\n      dup6\n        /* \"#utility.yul\":1556:1578   */\n      add\n        /* \"#utility.yul\":1535:1588   */\n      tag_81\n      jump\t// in\n    tag_110:\n        /* \"#utility.yul\":1525:1588   */\n      swap2\n      pop\n        /* \"#utility.yul\":1481:1598   */\n      pop\n        /* \"#utility.yul\":1276:1605   */\n      swap3\n      swap2\n      pop\n      pop\n      jump\t// out\n        /* \"#utility.yul\":1611:1729   */\n    tag_82:\n        /* \"#utility.yul\":1698:1722   */\n      tag_112\n        /* \"#utility.yul\":1716:1721   */\n      dup2\n        /* \"#utility.yul\":1698:1722   */\n      tag_79\n      jump\t// in\n    tag_112:\n        /* \"#utility.yul\":1693:1696   */\n      dup3\n        /* \"#utility.yul\":1686:1723   */\n      mstore\n        /* \"#utility.yul\":1611:1729   */\n      pop\n      pop\n      jump\t// out\n        /* \"#utility.yul\":1735:1957   */\n    tag_32:\n        /* \"#utility.yul\":1828:1832   */\n      0x00\n        /* \"#utility.yul\":1866:1868   */\n      0x20\n        /* \"#utility.yul\":1855:1864   */\n      dup3\n        /* \"#utility.yul\":1851:1869   */\n      add\n        /* \"#utility.yul\":1843:1869   */\n      swap1\n      pop\n        /* \"#utility.yul\":1879:1950   */\n      tag_114\n        /* \"#utility.yul\":1947:1948   */\n      0x00\n        /* \"#utility.yul\":1936:1945   */\n      dup4\n        /* \"#utility.yul\":1932:1949   */\n      add\n        /* \"#utility.yul\":1923:1929   */\n      dup5\n        /* \"#utility.yul\":1879:1950   */\n      tag_82\n      jump\t// in\n    tag_114:\n        /* \"#utility.yul\":1735:1957   */\n      swap3\n      swap2\n      pop\n      pop\n      jump\t// out\n        /* \"#utility.yul\":1963:2040   */\n    tag_83:\n        /* \"#utility.yul\":2000:2007   */\n      0x00\n        /* \"#utility.yul\":2029:2034   */\n      dup2\n        /* \"#utility.yul\":2018:2034   */\n      swap1\n      pop\n        /* \"#utility.yul\":1963:2040   */\n      swap2\n      swap1\n      pop\n      jump\t// out\n        /* \"#utility.yul\":2046:2226   */\n    tag_84:\n        /* \"#utility.yul\":2094:2171   */\n      0x4e487b7100000000000000000000000000000000000000000000000000000000\n        /* \"#utility.yul\":2091:2092   */\n      0x00\n        /* \"#utility.yul\":2084:2172   */\n      mstore\n        /* \"#utility.yul\":2191:2195   */\n      0x11\n        /* \"#utility.yul\":2188:2189   */\n      0x04\n        /* \"#utility.yul\":2181:2196   */\n      mstore\n        /* \"#utility.yul\":2215:2219   */\n      0x24\n        /* \"#utility.yul\":2212:2213   */\n      0x00\n        /* \"#utility.yul\":2205:2220   */\n      revert\n        /* \"#utility.yul\":2232:2426   */\n    tag_44:\n        /* \"#utility.yul\":2272:2276   */\n      0x00\n        /* \"#utility.yul\":2292:2312   */\n      tag_118\n        /* \"#utility.yul\":2310:2311   */\n      dup3\n        /* \"#utility.yul\":2292:2312   */\n      tag_83\n      jump\t// in\n    tag_118:\n        /* \"#utility.yul\":2287:2312   */\n      swap2\n      pop\n        /* \"#utility.yul\":2326:2346   */\n      tag_119\n        /* \"#utility.yul\":2344:2345   */\n      dup4\n        /* \"#utility.yul\":2326:2346   */\n      tag_83\n      jump\t// in\n    tag_119:\n        /* \"#utility.yul\":2321:2346   */\n      swap3\n      pop\n        /* \"#utility.yul\":2370:2371   */\n      dup3\n        /* \"#utility.yul\":2367:2368   */\n      dup3\n        /* \"#utility.yul\":2363:2372   */\n      sub\n        /* \"#utility.yul\":2355:2372   */\n      swap1\n      pop\n        /* \"#utility.yul\":2394:2395   */\n      dup2\n        /* \"#utility.yul\":2388:2392   */\n      dup2\n        /* \"#utility.yul\":2385:2396   */\n      gt\n        /* \"#utility.yul\":2382:2419   */\n      iszero\n      tag_120\n      jumpi\n        /* \"#utility.yul\":2399:2417   */\n      tag_121\n      tag_84\n      jump\t// in\n    tag_121:\n        /* \"#utility.yul\":2382:2419   */\n    tag_120:\n        /* \"#utility.yul\":2232:2426   */\n      swap3\n      swap2\n      pop\n      pop\n      jump\t// out\n        /* \"#utility.yul\":2432:2601   */\n    tag_85:\n        /* \"#utility.yul\":2516:2527   */\n      0x00\n        /* \"#utility.yul\":2550:2556   */\n      dup3\n        /* \"#utility.yul\":2545:2548   */\n      dup3\n        /* \"#utility.yul\":2538:2557   */\n      mstore\n        /* \"#utility.yul\":2590:2594   */\n      0x20\n        /* \"#utility.yul\":2585:2588   */\n      dup3\n        /* \"#utility.yul\":2581:2595   */\n      add\n        /* \"#utility.yul\":2566:2595   */\n      swap1\n      pop\n        /* \"#utility.yul\":2432:2601   */\n      swap3\n      swap2\n      pop\n      pop\n      jump\t// out\n        /* \"#utility.yul\":2607:2771   */\n    tag_86:\n        /* \"#utility.yul\":2747:2763   */\n      0x6e6f7420617574686f72697a6564000000000000000000000000000000000000\n        /* \"#utility.yul\":2743:2744   */\n      0x00\n        /* \"#utility.yul\":2735:2741   */\n      dup3\n        /* \"#utility.yul\":2731:2745   */\n      add\n        /* \"#utility.yul\":2724:2764   */\n      mstore\n        /* \"#utility.yul\":2607:2771   */\n      pop\n      jump\t// out\n        /* \"#utility.yul\":2777:3143   */\n    tag_87:\n        /* \"#utility.yul\":2919:2922   */\n      0x00\n        /* \"#utility.yul\":2940:3007   */\n      tag_125\n        /* \"#utility.yul\":3004:3006   */\n      0x0e\n        /* \"#utility.yul\":2999:3002   */\n      dup4\n        /* \"#utility.yul\":2940:3007   */\n      tag_85\n      jump\t// in\n    tag_125:\n        /* \"#utility.yul\":2933:3007   */\n      swap2\n      pop\n        /* \"#utility.yul\":3016:3109   */\n      tag_126\n        /* \"#utility.yul\":3105:3108   */\n      dup3\n        /* \"#utility.yul\":3016:3109   */\n      tag_86\n      jump\t// in\n    tag_126:\n        /* \"#utility.yul\":3134:3136   */\n      0x20\n        /* \"#utility.yul\":3129:3132   */\n      dup3\n        /* \"#utility.yul\":3125:3137   */\n      add\n        /* \"#utility.yul\":3118:3137   */\n      swap1\n      pop\n        /* \"#utility.yul\":2777:3143   */\n      swap2\n      swap1\n      pop\n      jump\t// out\n        /* \"#utility.yul\":3149:3568   */\n    tag_55:\n        /* \"#utility.yul\":3315:3319   */\n      0x00\n        /* \"#utility.yul\":3353:3355   */\n      0x20\n        /* \"#utility.yul\":3342:3351   */\n      dup3\n        /* \"#utility.yul\":3338:3356   */\n      add\n        /* \"#utility.yul\":3330:3356   */\n      swap1\n      pop\n        /* \"#utility.yul\":3402:3411   */\n      dup2\n        /* \"#utility.yul\":3396:3400   */\n      dup2\n        /* \"#utility.yul\":3392:3412   */\n      sub\n        /* \"#utility.yul\":3388:3389   */\n      0x00\n        /* \"#utility.yul\":3377:3386   */\n      dup4\n        /* \"#utility.yul\":3373:3390   */\n      add\n        /* \"#utility.yul\":3366:3413   */\n      mstore\n        /* \"#utility.yul\":3430:3561   */\n      tag_128\n        /* \"#utility.yul\":3556:3560   */\n      dup2\n        /* \"#utility.yul\":3430:3561   */\n      tag_87\n      jump\t// in\n    tag_128:\n        /* \"#utility.yul\":3422:3561   */\n      swap1\n      pop\n        /* \"#utility.yul\":3149:3568   */\n      swap2\n      swap1\n      pop\n      jump\t// out\n        /* \"#utility.yul\":3574:3738   */\n    tag_88:\n        /* \"#utility.yul\":3714:3730   */\n      0x6e6f74206120636f6e7472616374000000000000000000000000000000000000\n        /* \"#utility.yul\":3710:3711   */\n      0x00\n        /* \"#utility.yul\":3702:3708   */\n      dup3\n        /* \"#utility.yul\":3698:3712   */\n      add\n        /* \"#utility.yul\":3691:3731   */\n      mstore\n        /* \"#utility.yul\":3574:3738   */\n      pop\n      jump\t// out\n        /* \"#utility.yul\":3744:4110   */\n    tag_89:\n        /* \"#utility.yul\":3886:3889   */\n      0x00\n        /* \"#utility.yul\":3907:3974   */\n      tag_131\n        /* \"#utility.yul\":3971:3973   */\n      0x0e\n        /* \"#utility.yul\":3966:3969   */\n      dup4\n        /* \"#utility.yul\":3907:3974   */\n      tag_85\n      jump\t// in\n    tag_131:\n        /* \"#utility.yul\":3900:3974   */\n      swap2\n      pop\n        /* \"#utility.yul\":3983:4076   */\n      tag_132\n        /* \"#utility.yul\":4072:4075   */\n      dup3\n        /* \"#utility.yul\":3983:4076   */\n      tag_88\n      jump\t// in\n    tag_132:\n        /* \"#utility.yul\":4101:4103   */\n      0x20\n        /* \"#utility.yul\":4096:4099   */\n      dup3\n        /* \"#utility.yul\":4092:4104   */\n      add\n        /* \"#utility.yul\":4085:4104   */\n      swap1\n      pop\n        /* \"#utility.yul\":3744:4110   */\n      swap2\n      swap1\n      pop\n      jump\t// out\n        /* \"#utility.yul\":4116:4535   */\n    tag_70:\n        /* \"#utility.yul\":4282:4286   */\n      0x00\n        /* \"#utility.yul\":4320:4322   */\n      0x20\n        /* \"#utility.yul\":4309:4318   */\n      dup3\n        /* \"#utility.yul\":4305:4323   */\n      add\n        /* \"#utility.yul\":4297:4323   */\n      swap1\n      pop\n        /* \"#utility.yul\":4369:4378   */\n      dup2\n        /* \"#utility.yul\":4363:4367   */\n      dup2\n        /* \"#utility.yul\":4359:4379   */\n      sub\n        /* \"#utility.yul\":4355:4356   */\n      0x00\n        /* \"#utility.yul\":4344:4353   */\n      dup4\n        /* \"#utility.yul\":4340:4357   */\n      add\n        /* \"#utility.yul\":4333:4380   */\n      mstore\n        /* \"#utility.yul\":4397:4528   */\n      tag_134\n        /* \"#utility.yul\":4523:4527   */\n      dup2\n        /* \"#utility.yul\":4397:4528   */\n      tag_89\n      jump\t// in\n    tag_134:\n        /* \"#utility.yul\":4389:4528   */\n      swap1\n      pop\n        /* \"#utility.yul\":4116:4535   */\n      swap2\n      swap1\n      pop\n      jump\t// out\n\n    auxdata: 0xa2646970667358221220ecfd8f87532b5eb82e103ff04af4c8da0472d6ffe50086a7a7764c497833ff0864736f6c63430008180033\n}\n",
				"bytecode": {
					"linkReferences": {},
					"object": "608060405234801561000f575f80fd5b5061001f3361002460201b60201c565b6101fe565b5f73ffffffffffffffffffffffffffffffffffffffff168173ffffffffffffffffffffffffffffffffffffffff1603610092576040517f08c379a000000000000000000000000000000000000000000000000000000000815260040161008990610177565b60405180910390fd5b806100d260017fb53127684a568b3173ae13b9f8a6016e243e63b6e8ee1178d6a717850b5d61045f1c6100c591906101cb565b5f1b61011460201b60201c565b5f015f6101000a81548173ffffffffffffffffffffffffffffffffffffffff021916908373ffffffffffffffffffffffffffffffffffffffff16021790555050565b5f819050919050565b5f82825260208201905092915050565b7f61646d696e203d206164647265737320300000000000000000000000000000005f82015250565b5f61016160118361011d565b915061016c8261012d565b602082019050919050565b5f6020820190508181035f83015261018e81610155565b9050919050565b5f819050919050565b7f4e487b71000000000000000000000000000000000000000000000000000000005f52601160045260245ffd5b5f6101d582610195565b91506101e083610195565b92508282039050818111156101f8576101f761019e565b5b92915050565b61066b8061020b5f395ff3fe60806040526004361061004d575f3560e01c8063086fc0c7146100765780633659cfe6146100a05780635c60da1b146100c85780639c4b32be146100f2578063f851a4401461011c57610064565b366100645761006261005d610146565b6101a7565b005b61007461006f610146565b6101a7565b005b348015610081575f80fd5b5061008a6101c6565b6040516100979190610422565b60405180910390f35b3480156100ab575f80fd5b506100c660048036038101906100c19190610499565b6101fa565b005b3480156100d3575f80fd5b506100dc61027b565b6040516100e991906104d3565b60405180910390f35b3480156100fd575f80fd5b50610106610289565b6040516101139190610422565b60405180910390f35b348015610127575f80fd5b506101306102bd565b60405161013d91906104d3565b60405180910390f35b5f61018060017f360894a13ba1a3210667c828492db98dca3e2076cc3735a920a3ca505d382bbd5f1c6101799190610522565b5f1b6102cb565b5f015f9054906101000a900473ffffffffffffffffffffffffffffffffffffffff16905090565b365f80375f80365f845af43d5f803e805f81146101c2573d5ff35b3d5ffd5b60017f360894a13ba1a3210667c828492db98dca3e2076cc3735a920a3ca505d382bbd5f1c6101f59190610522565b5f1b81565b6102026102d4565b73ffffffffffffffffffffffffffffffffffffffff163373ffffffffffffffffffffffffffffffffffffffff161461026f576040517f08c379a0000000000000000000000000000000000000000000000000000000008152600401610266906105af565b60405180910390fd5b61027881610335565b50565b5f610284610146565b905090565b60017fb53127684a568b3173ae13b9f8a6016e243e63b6e8ee1178d6a717850b5d61045f1c6102b89190610522565b5f1b81565b5f6102c66102d4565b905090565b5f819050919050565b5f61030e60017fb53127684a568b3173ae13b9f8a6016e243e63b6e8ee1178d6a717850b5d61045f1c6103079190610522565b5f1b6102cb565b5f015f9054906101000a900473ffffffffffffffffffffffffffffffffffffffff16905090565b5f8173ffffffffffffffffffffffffffffffffffffffff163b1161038e576040517f08c379a000000000000000000000000000000000000000000000000000000000815260040161038590610617565b60405180910390fd5b806103c860017f360894a13ba1a3210667c828492db98dca3e2076cc3735a920a3ca505d382bbd5f1c6103c19190610522565b5f1b6102cb565b5f015f6101000a81548173ffffffffffffffffffffffffffffffffffffffff021916908373ffffffffffffffffffffffffffffffffffffffff16021790555050565b5f819050919050565b61041c8161040a565b82525050565b5f6020820190506104355f830184610413565b92915050565b5f80fd5b5f73ffffffffffffffffffffffffffffffffffffffff82169050919050565b5f6104688261043f565b9050919050565b6104788161045e565b8114610482575f80fd5b50565b5f813590506104938161046f565b92915050565b5f602082840312156104ae576104ad61043b565b5b5f6104bb84828501610485565b91505092915050565b6104cd8161045e565b82525050565b5f6020820190506104e65f8301846104c4565b92915050565b5f819050919050565b7f4e487b71000000000000000000000000000000000000000000000000000000005f52601160045260245ffd5b5f61052c826104ec565b9150610537836104ec565b925082820390508181111561054f5761054e6104f5565b5b92915050565b5f82825260208201905092915050565b7f6e6f7420617574686f72697a65640000000000000000000000000000000000005f82015250565b5f610599600e83610555565b91506105a482610565565b602082019050919050565b5f6020820190508181035f8301526105c68161058d565b9050919050565b7f6e6f74206120636f6e74726163740000000000000000000000000000000000005f82015250565b5f610601600e83610555565b915061060c826105cd565b602082019050919050565b5f6020820190508181035f83015261062e816105f5565b905091905056fea2646970667358221220ecfd8f87532b5eb82e103ff04af4c8da0472d6ffe50086a7a7764c497833ff0864736f6c63430008180033",
					"opcodes": "PUSH1 0x80 PUSH1 0x40 MSTORE CALLVALUE DUP1 ISZERO PUSH2 0xF JUMPI PUSH0 DUP1 REVERT JUMPDEST POP PUSH2 0x1F CALLER PUSH2 0x24 PUSH1 0x20 SHL PUSH1 0x20 SHR JUMP JUMPDEST PUSH2 0x1FE JUMP JUMPDEST PUSH0 PUSH20 0xFFFFFFFFFFFFFFFFFFFFFFFFFFFFFFFFFFFFFFFF AND DUP2 PUSH20 0xFFFFFFFFFFFFFFFFFFFFFFFFFFFFFFFFFFFFFFFF AND SUB PUSH2 0x92 JUMPI PUSH1 0x40 MLOAD PUSH32 0x8C379A000000000000000000000000000000000000000000000000000000000 DUP2 MSTORE PUSH1 0x4 ADD PUSH2 0x89 SWAP1 PUSH2 0x177 JUMP JUMPDEST PUSH1 0x40 MLOAD DUP1 SWAP2 SUB SWAP1 REVERT JUMPDEST DUP1 PUSH2 0xD2 PUSH1 0x1 PUSH32 0xB53127684A568B3173AE13B9F8A6016E243E63B6E8EE1178D6A717850B5D6104 PUSH0 SHR PUSH2 0xC5 SWAP2 SWAP1 PUSH2 0x1CB JUMP JUMPDEST PUSH0 SHL PUSH2 0x114 PUSH1 0x20 SHL PUSH1 0x20 SHR JUMP JUMPDEST PUSH0 ADD PUSH0 PUSH2 0x100 EXP DUP2 SLOAD DUP2 PUSH20 0xFFFFFFFFFFFFFFFFFFFFFFFFFFFFFFFFFFFFFFFF MUL NOT AND SWAP1 DUP4 PUSH20 0xFFFFFFFFFFFFFFFFFFFFFFFFFFFFFFFFFFFFFFFF AND MUL OR SWAP1 SSTORE POP POP JUMP JUMPDEST PUSH0 DUP2 SWAP1 POP SWAP2 SWAP1 POP JUMP JUMPDEST PUSH0 DUP3 DUP3 MSTORE PUSH1 0x20 DUP3 ADD SWAP1 POP SWAP3 SWAP2 POP POP JUMP JUMPDEST PUSH32 0x61646D696E203D20616464726573732030000000000000000000000000000000 PUSH0 DUP3 ADD MSTORE POP JUMP JUMPDEST PUSH0 PUSH2 0x161 PUSH1 0x11 DUP4 PUSH2 0x11D JUMP JUMPDEST SWAP2 POP PUSH2 0x16C DUP3 PUSH2 0x12D JUMP JUMPDEST PUSH1 0x20 DUP3 ADD SWAP1 POP SWAP2 SWAP1 POP JUMP JUMPDEST PUSH0 PUSH1 0x20 DUP3 ADD SWAP1 POP DUP2 DUP2 SUB PUSH0 DUP4 ADD MSTORE PUSH2 0x18E DUP2 PUSH2 0x155 JUMP JUMPDEST SWAP1 POP SWAP2 SWAP1 POP JUMP JUMPDEST PUSH0 DUP2 SWAP1 POP SWAP2 SWAP1 POP JUMP JUMPDEST PUSH32 0x4E487B7100000000000000000000000000000000000000000000000000000000 PUSH0 MSTORE PUSH1 0x11 PUSH1 0x4 MSTORE PUSH1 0x24 PUSH0 REVERT JUMPDEST PUSH0 PUSH2 0x1D5 DUP3 PUSH2 0x195 JUMP JUMPDEST SWAP2 POP PUSH2 0x1E0 DUP4 PUSH2 0x195 JUMP JUMPDEST SWAP3 POP DUP3 DUP3 SUB SWAP1 POP DUP2 DUP2 GT ISZERO PUSH2 0x1F8 JUMPI PUSH2 0x1F7 PUSH2 0x19E JUMP JUMPDEST JUMPDEST SWAP3 SWAP2 POP POP JUMP JUMPDEST PUSH2 0x66B DUP1 PUSH2 0x20B PUSH0 CODECOPY PUSH0 RETURN INVALID PUSH1 0x80 PUSH1 0x40 MSTORE PUSH1 0x4 CALLDATASIZE LT PUSH2 0x4D JUMPI PUSH0 CALLDATALOAD PUSH1 0xE0 SHR DUP1 PUSH4 0x86FC0C7 EQ PUSH2 0x76 JUMPI DUP1 PUSH4 0x3659CFE6 EQ PUSH2 0xA0 JUMPI DUP1 PUSH4 0x5C60DA1B EQ PUSH2 0xC8 JUMPI DUP1 PUSH4 0x9C4B32BE EQ PUSH2 0xF2 JUMPI DUP1 PUSH4 0xF851A440 EQ PUSH2 0x11C JUMPI PUSH2 0x64 JUMP JUMPDEST CALLDATASIZE PUSH2 0x64 JUMPI PUSH2 0x62 PUSH2 0x5D PUSH2 0x146 JUMP JUMPDEST PUSH2 0x1A7 JUMP JUMPDEST STOP JUMPDEST PUSH2 0x74 PUSH2 0x6F PUSH2 0x146 JUMP JUMPDEST PUSH2 0x1A7 JUMP JUMPDEST STOP JUMPDEST CALLVALUE DUP1 ISZERO PUSH2 0x81 JUMPI PUSH0 DUP1 REVERT JUMPDEST POP PUSH2 0x8A PUSH2 0x1C6 JUMP JUMPDEST PUSH1 0x40 MLOAD PUSH2 0x97 SWAP2 SWAP1 PUSH2 0x422 JUMP JUMPDEST PUSH1 0x40 MLOAD DUP1 SWAP2 SUB SWAP1 RETURN JUMPDEST CALLVALUE DUP1 ISZERO PUSH2 0xAB JUMPI PUSH0 DUP1 REVERT JUMPDEST POP PUSH2 0xC6 PUSH1 0x4 DUP1 CALLDATASIZE SUB DUP2 ADD SWAP1 PUSH2 0xC1 SWAP2 SWAP1 PUSH2 0x499 JUMP JUMPDEST PUSH2 0x1FA JUMP JUMPDEST STOP JUMPDEST CALLVALUE DUP1 ISZERO PUSH2 0xD3 JUMPI PUSH0 DUP1 REVERT JUMPDEST POP PUSH2 0xDC PUSH2 0x27B JUMP JUMPDEST PUSH1 0x40 MLOAD PUSH2 0xE9 SWAP2 SWAP1 PUSH2 0x4D3 JUMP JUMPDEST PUSH1 0x40 MLOAD DUP1 SWAP2 SUB SWAP1 RETURN JUMPDEST CALLVALUE DUP1 ISZERO PUSH2 0xFD JUMPI PUSH0 DUP1 REVERT JUMPDEST POP PUSH2 0x106 PUSH2 0x289 JUMP JUMPDEST PUSH1 0x40 MLOAD PUSH2 0x113 SWAP2 SWAP1 PUSH2 0x422 JUMP JUMPDEST PUSH1 0x40 MLOAD DUP1 SWAP2 SUB SWAP1 RETURN JUMPDEST CALLVALUE DUP1 ISZERO PUSH2 0x127 JUMPI PUSH0 DUP1 REVERT JUMPDEST POP PUSH2 0x130 PUSH2 0x2BD JUMP JUMPDEST PUSH1 0x40 MLOAD PUSH2 0x13D SWAP2 SWAP1 PUSH2 0x4D3 JUMP JUMPDEST PUSH1 0x40 MLOAD DUP1 SWAP2 SUB SWAP1 RETURN JUMPDEST PUSH0 PUSH2 0x180 PUSH1 0x1 PUSH32 0x360894A13BA1A3210667C828492DB98DCA3E2076CC3735A920A3CA505D382BBD PUSH0 SHR PUSH2 0x179 SWAP2 SWAP1 PUSH2 0x522 JUMP JUMPDEST PUSH0 SHL PUSH2 0x2CB JUMP JUMPDEST PUSH0 ADD PUSH0 SWAP1 SLOAD SWAP1 PUSH2 0x100 EXP SWAP1 DIV PUSH20 0xFFFFFFFFFFFFFFFFFFFFFFFFFFFFFFFFFFFFFFFF AND SWAP1 POP SWAP1 JUMP JUMPDEST CALLDATASIZE PUSH0 DUP1 CALLDATACOPY PUSH0 DUP1 CALLDATASIZE PUSH0 DUP5 GAS DELEGATECALL RETURNDATASIZE PUSH0 DUP1 RETURNDATACOPY DUP1 PUSH0 DUP2 EQ PUSH2 0x1C2 JUMPI RETURNDATASIZE PUSH0 RETURN JUMPDEST RETURNDATASIZE PUSH0 REVERT JUMPDEST PUSH1 0x1 PUSH32 0x360894A13BA1A3210667C828492DB98DCA3E2076CC3735A920A3CA505D382BBD PUSH0 SHR PUSH2 0x1F5 SWAP2 SWAP1 PUSH2 0x522 JUMP JUMPDEST PUSH0 SHL DUP2 JUMP JUMPDEST PUSH2 0x202 PUSH2 0x2D4 JUMP JUMPDEST PUSH20 0xFFFFFFFFFFFFFFFFFFFFFFFFFFFFFFFFFFFFFFFF AND CALLER PUSH20 0xFFFFFFFFFFFFFFFFFFFFFFFFFFFFFFFFFFFFFFFF AND EQ PUSH2 0x26F JUMPI PUSH1 0x40 MLOAD PUSH32 0x8C379A000000000000000000000000000000000000000000000000000000000 DUP2 MSTORE PUSH1 0x4 ADD PUSH2 0x266 SWAP1 PUSH2 0x5AF JUMP JUMPDEST PUSH1 0x40 MLOAD DUP1 SWAP2 SUB SWAP1 REVERT JUMPDEST PUSH2 0x278 DUP2 PUSH2 0x335 JUMP JUMPDEST POP JUMP JUMPDEST PUSH0 PUSH2 0x284 PUSH2 0x146 JUMP JUMPDEST SWAP1 POP SWAP1 JUMP JUMPDEST PUSH1 0x1 PUSH32 0xB53127684A568B3173AE13B9F8A6016E243E63B6E8EE1178D6A717850B5D6104 PUSH0 SHR PUSH2 0x2B8 SWAP2 SWAP1 PUSH2 0x522 JUMP JUMPDEST PUSH0 SHL DUP2 JUMP JUMPDEST PUSH0 PUSH2 0x2C6 PUSH2 0x2D4 JUMP JUMPDEST SWAP1 POP SWAP1 JUMP JUMPDEST PUSH0 DUP2 SWAP1 POP SWAP2 SWAP1 POP JUMP JUMPDEST PUSH0 PUSH2 0x30E PUSH1 0x1 PUSH32 0xB53127684A568B3173AE13B9F8A6016E243E63B6E8EE1178D6A717850B5D6104 PUSH0 SHR PUSH2 0x307 SWAP2 SWAP1 PUSH2 0x522 JUMP JUMPDEST PUSH0 SHL PUSH2 0x2CB JUMP JUMPDEST PUSH0 ADD PUSH0 SWAP1 SLOAD SWAP1 PUSH2 0x100 EXP SWAP1 DIV PUSH20 0xFFFFFFFFFFFFFFFFFFFFFFFFFFFFFFFFFFFFFFFF AND SWAP1 POP SWAP1 JUMP JUMPDEST PUSH0 DUP2 PUSH20 0xFFFFFFFFFFFFFFFFFFFFFFFFFFFFFFFFFFFFFFFF AND EXTCODESIZE GT PUSH2 0x38E JUMPI PUSH1 0x40 MLOAD PUSH32 0x8C379A000000000000000000000000000000000000000000000000000000000 DUP2 MSTORE PUSH1 0x4 ADD PUSH2 0x385 SWAP1 PUSH2 0x617 JUMP JUMPDEST PUSH1 0x40 MLOAD DUP1 SWAP2 SUB SWAP1 REVERT JUMPDEST DUP1 PUSH2 0x3C8 PUSH1 0x1 PUSH32 0x360894A13BA1A3210667C828492DB98DCA3E2076CC3735A920A3CA505D382BBD PUSH0 SHR PUSH2 0x3C1 SWAP2 SWAP1 PUSH2 0x522 JUMP JUMPDEST PUSH0 SHL PUSH2 0x2CB JUMP JUMPDEST PUSH0 ADD PUSH0 PUSH2 0x100 EXP DUP2 SLOAD DUP2 PUSH20 0xFFFFFFFFFFFFFFFFFFFFFFFFFFFFFFFFFFFFFFFF MUL NOT AND SWAP1 DUP4 PUSH20 0xFFFFFFFFFFFFFFFFFFFFFFFFFFFFFFFFFFFFFFFF AND MUL OR SWAP1 SSTORE POP POP JUMP JUMPDEST PUSH0 DUP2 SWAP1 POP SWAP2 SWAP1 POP JUMP JUMPDEST PUSH2 0x41C DUP2 PUSH2 0x40A JUMP JUMPDEST DUP3 MSTORE POP POP JUMP JUMPDEST PUSH0 PUSH1 0x20 DUP3 ADD SWAP1 POP PUSH2 0x435 PUSH0 DUP4 ADD DUP5 PUSH2 0x413 JUMP JUMPDEST SWAP3 SWAP2 POP POP JUMP JUMPDEST PUSH0 DUP1 REVERT JUMPDEST PUSH0 PUSH20 0xFFFFFFFFFFFFFFFFFFFFFFFFFFFFFFFFFFFFFFFF DUP3 AND SWAP1 POP SWAP2 SWAP1 POP JUMP JUMPDEST PUSH0 PUSH2 0x468 DUP3 PUSH2 0x43F JUMP JUMPDEST SWAP1 POP SWAP2 SWAP1 POP JUMP JUMPDEST PUSH2 0x478 DUP2 PUSH2 0x45E JUMP JUMPDEST DUP2 EQ PUSH2 0x482 JUMPI PUSH0 DUP1 REVERT JUMPDEST POP JUMP JUMPDEST PUSH0 DUP2 CALLDATALOAD SWAP1 POP PUSH2 0x493 DUP2 PUSH2 0x46F JUMP JUMPDEST SWAP3 SWAP2 POP POP JUMP JUMPDEST PUSH0 PUSH1 0x20 DUP3 DUP5 SUB SLT ISZERO PUSH2 0x4AE JUMPI PUSH2 0x4AD PUSH2 0x43B JUMP JUMPDEST JUMPDEST PUSH0 PUSH2 0x4BB DUP5 DUP3 DUP6 ADD PUSH2 0x485 JUMP JUMPDEST SWAP2 POP POP SWAP3 SWAP2 POP POP JUMP JUMPDEST PUSH2 0x4CD DUP2 PUSH2 0x45E JUMP JUMPDEST DUP3 MSTORE POP POP JUMP JUMPDEST PUSH0 PUSH1 0x20 DUP3 ADD SWAP1 POP PUSH2 0x4E6 PUSH0 DUP4 ADD DUP5 PUSH2 0x4C4 JUMP JUMPDEST SWAP3 SWAP2 POP POP JUMP JUMPDEST PUSH0 DUP2 SWAP1 POP SWAP2 SWAP1 POP JUMP JUMPDEST PUSH32 0x4E487B7100000000000000000000000000000000000000000000000000000000 PUSH0 MSTORE PUSH1 0x11 PUSH1 0x4 MSTORE PUSH1 0x24 PUSH0 REVERT JUMPDEST PUSH0 PUSH2 0x52C DUP3 PUSH2 0x4EC JUMP JUMPDEST SWAP2 POP PUSH2 0x537 DUP4 PUSH2 0x4EC JUMP JUMPDEST SWAP3 POP DUP3 DUP3 SUB SWAP1 POP DUP2 DUP2 GT ISZERO PUSH2 0x54F JUMPI PUSH2 0x54E PUSH2 0x4F5 JUMP JUMPDEST JUMPDEST SWAP3 SWAP2 POP POP JUMP JUMPDEST PUSH0 DUP3 DUP3 MSTORE PUSH1 0x20 DUP3 ADD SWAP1 POP SWAP3 SWAP2 POP POP JUMP JUMPDEST PUSH32 0x6E6F7420617574686F72697A6564000000000000000000000000000000000000 PUSH0 DUP3 ADD MSTORE POP JUMP JUMPDEST PUSH0 PUSH2 0x599 PUSH1 0xE DUP4 PUSH2 0x555 JUMP JUMPDEST SWAP2 POP PUSH2 0x5A4 DUP3 PUSH2 0x565 JUMP JUMPDEST PUSH1 0x20 DUP3 ADD SWAP1 POP SWAP2 SWAP1 POP JUMP JUMPDEST PUSH0 PUSH1 0x20 DUP3 ADD SWAP1 POP DUP2 DUP2 SUB PUSH0 DUP4 ADD MSTORE PUSH2 0x5C6 DUP2 PUSH2 0x58D JUMP JUMPDEST SWAP1 POP SWAP2 SWAP1 POP JUMP JUMPDEST PUSH32 0x6E6F74206120636F6E7472616374000000000000000000000000000000000000 PUSH0 DUP3 ADD MSTORE POP JUMP JUMPDEST PUSH0 PUSH2 0x601 PUSH1 0xE DUP4 PUSH2 0x555 JUMP JUMPDEST SWAP2 POP PUSH2 0x60C DUP3 PUSH2 0x5CD JUMP JUMPDEST PUSH1 0x20 DUP3 ADD SWAP1 POP SWAP2 SWAP1 POP JUMP JUMPDEST PUSH0 PUSH1 0x20 DUP3 ADD SWAP1 POP DUP2 DUP2 SUB PUSH0 DUP4 ADD MSTORE PUSH2 0x62E DUP2 PUSH2 0x5F5 JUMP JUMPDEST SWAP1 POP SWAP2 SWAP1 POP JUMP INVALID LOG2 PUSH5 0x6970667358 0x22 SLT KECCAK256 0xEC REVERT DUP16 DUP8 MSTORE8 0x2B MCOPY 0xB8 0x2E LT EXTCODEHASH CREATE BLOBBASEFEE DELEGATECALL 0xC8 0xDA DIV PUSH19 0xD6FFE50086A7A7764C497833FF0864736F6C63 NUMBER STOP ADDMOD XOR STOP CALLER "
				},
				"gasEstimates": {
					"creation": {
						"codeDepositCost": "328600",
						"executionCost": "infinite",
						"totalCost": "infinite"
					},
					"external": {
						"": "infinite",
						"ADMIN_SLOT()": "infinite",
						"IMPLEMENTATION_SLOT()": "infinite",
						"admin()": "infinite",
						"implementation()": "infinite",
						"upgradeTo(address)": "infinite"
					},
					"internal": {
						"_delegate(address)": "infinite",
						"_getAdmin()": "infinite",
						"_getImplementation()": "infinite",
						"_setAdmin(address)": "infinite",
						"_setImplementation(address)": "infinite"
					}
				},
				"methodIdentifiers": {
					"ADMIN_SLOT()": "9c4b32be",
					"IMPLEMENTATION_SLOT()": "086fc0c7",
					"admin()": "f851a440",
					"implementation()": "5c60da1b",
					"upgradeTo(address)": "3659cfe6"
				}
			},
			"storageLayout": {
				"storage": [],
				"types": null
			},
			"userdoc": {
				"kind": "user",
				"methods": {},
				"version": 1
			}
		}
	}
}