{
	"proxy/WrongWayToWriteAnUpgrade.sol": {
		"BuggyProxy": {
			"abi": [
				{
					"inputs": [],
					"stateMutability": "nonpayable",
					"type": "constructor"
				},
				{
					"stateMutability": "payable",
					"type": "fallback"
				},
				{
					"inputs": [],
					"name": "admin",
					"outputs": [
						{
							"internalType": "address",
							"name": "",
							"type": "address"
						}
					],
					"stateMutability": "view",
					"type": "function"
				},
				{
					"inputs": [],
					"name": "implementation",
					"outputs": [
						{
							"internalType": "address",
							"name": "",
							"type": "address"
						}
					],
					"stateMutability": "view",
					"type": "function"
				},
				{
					"inputs": [
						{
							"internalType": "address",
							"name": "_implementation",
							"type": "address"
						}
					],
					"name": "upgradeTo",
					"outputs": [],
					"stateMutability": "nonpayable",
					"type": "function"
				},
				{
					"stateMutability": "payable",
					"type": "receive"
				}
			],
			"devdoc": {
				"kind": "dev",
				"methods": {},
				"version": 1
			},
			"evm": {
				"assembly": "    /* \"proxy/WrongWayToWriteAnUpgrade.sol\":904:3310  contract BuggyProxy{... */\n  mstore(0x40, 0x80)\n    /* \"proxy/WrongWayToWriteAnUpgrade.sol\":1025:1076  constructor() {... */\n  callvalue\n  dup1\n  iszero\n  tag_1\n  jumpi\n  0x00\n  dup1\n  revert\ntag_1:\n  pop\n    /* \"proxy/WrongWayToWriteAnUpgrade.sol\":1058:1068  msg.sender */\n  caller\n    /* \"proxy/WrongWayToWriteAnUpgrade.sol\":1050:1055  admin */\n  0x01\n  0x00\n    /* \"proxy/WrongWayToWriteAnUpgrade.sol\":1050:1068  admin = msg.sender */\n  0x0100\n  exp\n  dup2\n  sload\n  dup2\n  0xffffffffffffffffffffffffffffffffffffffff\n  mul\n  not\n  and\n  swap1\n  dup4\n  0xffffffffffffffffffffffffffffffffffffffff\n  and\n  mul\n  or\n  swap1\n  sstore\n  pop\n    /* \"proxy/WrongWayToWriteAnUpgrade.sol\":904:3310  contract BuggyProxy{... */\n  dataSize(sub_0)\n  dup1\n  dataOffset(sub_0)\n  0x00\n  codecopy\n  0x00\n  return\nstop\n\nsub_0: assembly {\n        /* \"proxy/WrongWayToWriteAnUpgrade.sol\":904:3310  contract BuggyProxy{... */\n      mstore(0x40, 0x80)\n      jumpi(tag_1, lt(calldatasize, 0x04))\n      shr(0xe0, calldataload(0x00))\n      dup1\n      0x3659cfe6\n      eq\n      tag_3\n      jumpi\n      dup1\n      0x5c60da1b\n      eq\n      tag_4\n      jumpi\n      dup1\n      0xf851a440\n      eq\n      tag_5\n      jumpi\n      jump(tag_2)\n    tag_1:\n      jumpi(tag_2, calldatasize)\n        /* \"proxy/WrongWayToWriteAnUpgrade.sol\":3101:3126  _delegate(implementation) */\n      tag_8\n        /* \"proxy/WrongWayToWriteAnUpgrade.sol\":3111:3125  implementation */\n      0x00\n      dup1\n      sload\n      swap1\n      0x0100\n      exp\n      swap1\n      div\n      0xffffffffffffffffffffffffffffffffffffffff\n      and\n        /* \"proxy/WrongWayToWriteAnUpgrade.sol\":3101:3110  _delegate */\n      tag_9\n        /* \"proxy/WrongWayToWriteAnUpgrade.sol\":3101:3126  _delegate(implementation) */\n      jump\t// in\n    tag_8:\n        /* \"proxy/WrongWayToWriteAnUpgrade.sol\":904:3310  contract BuggyProxy{... */\n      stop\n    tag_2:\n        /* \"proxy/WrongWayToWriteAnUpgrade.sol\":3022:3047  _delegate(implementation) */\n      tag_12\n        /* \"proxy/WrongWayToWriteAnUpgrade.sol\":3032:3046  implementation */\n      0x00\n      dup1\n      sload\n      swap1\n      0x0100\n      exp\n      swap1\n      div\n      0xffffffffffffffffffffffffffffffffffffffff\n      and\n        /* \"proxy/WrongWayToWriteAnUpgrade.sol\":3022:3031  _delegate */\n      tag_9\n        /* \"proxy/WrongWayToWriteAnUpgrade.sol\":3022:3047  _delegate(implementation) */\n      jump\t// in\n    tag_12:\n        /* \"proxy/WrongWayToWriteAnUpgrade.sol\":904:3310  contract BuggyProxy{... */\n      stop\n        /* \"proxy/WrongWayToWriteAnUpgrade.sol\":3142:3303  function upgradeTo(address _implementation) external {... */\n    tag_3:\n      callvalue\n      dup1\n      iszero\n      tag_13\n      jumpi\n      0x00\n      dup1\n      revert\n    tag_13:\n      pop\n      tag_14\n      0x04\n      dup1\n      calldatasize\n      sub\n      dup2\n      add\n      swap1\n      tag_15\n      swap2\n      swap1\n      tag_16\n      jump\t// in\n    tag_15:\n      tag_17\n      jump\t// in\n    tag_14:\n      stop\n        /* \"proxy/WrongWayToWriteAnUpgrade.sol\":930:959  address public implementation */\n    tag_4:\n      callvalue\n      dup1\n      iszero\n      tag_18\n      jumpi\n      0x00\n      dup1\n      revert\n    tag_18:\n      pop\n      tag_19\n      tag_20\n      jump\t// in\n    tag_19:\n      mload(0x40)\n      tag_21\n      swap2\n      swap1\n      tag_22\n      jump\t// in\n    tag_21:\n      mload(0x40)\n      dup1\n      swap2\n      sub\n      swap1\n      return\n        /* \"proxy/WrongWayToWriteAnUpgrade.sol\":966:986  address public admin */\n    tag_5:\n      callvalue\n      dup1\n      iszero\n      tag_23\n      jumpi\n      0x00\n      dup1\n      revert\n    tag_23:\n      pop\n      tag_24\n      tag_25\n      jump\t// in\n    tag_24:\n      mload(0x40)\n      tag_26\n      swap2\n      swap1\n      tag_22\n      jump\t// in\n    tag_26:\n      mload(0x40)\n      dup1\n      swap2\n      sub\n      swap1\n      return\n        /* \"proxy/WrongWayToWriteAnUpgrade.sol\":1264:2973  function _delegate(address _implementation) private {... */\n    tag_9:\n        /* \"proxy/WrongWayToWriteAnUpgrade.sol\":1750:1764  calldatasize() */\n      calldatasize\n        /* \"proxy/WrongWayToWriteAnUpgrade.sol\":1747:1748  0 */\n      0x00\n        /* \"proxy/WrongWayToWriteAnUpgrade.sol\":1744:1745  0 */\n      dup1\n        /* \"proxy/WrongWayToWriteAnUpgrade.sol\":1731:1765  calldatacopy(0, 0, calldatasize()) */\n      calldatacopy\n        /* \"proxy/WrongWayToWriteAnUpgrade.sol\":2287:2288  0 */\n      0x00\n        /* \"proxy/WrongWayToWriteAnUpgrade.sol\":2284:2285  0 */\n      dup1\n        /* \"proxy/WrongWayToWriteAnUpgrade.sol\":2268:2282  calldatasize() */\n      calldatasize\n        /* \"proxy/WrongWayToWriteAnUpgrade.sol\":2265:2266  0 */\n      0x00\n        /* \"proxy/WrongWayToWriteAnUpgrade.sol\":2248:2263  _implementation */\n      dup5\n        /* \"proxy/WrongWayToWriteAnUpgrade.sol\":2241:2246  gas() */\n      gas\n        /* \"proxy/WrongWayToWriteAnUpgrade.sol\":2228:2289  delegatecall(gas(), _implementation, 0, calldatasize(), 0, 0) */\n      delegatecall\n        /* \"proxy/WrongWayToWriteAnUpgrade.sol\":2527:2543  returndatasize() */\n      returndatasize\n        /* \"proxy/WrongWayToWriteAnUpgrade.sol\":2524:2525  0 */\n      0x00\n        /* \"proxy/WrongWayToWriteAnUpgrade.sol\":2521:2522  0 */\n      dup1\n        /* \"proxy/WrongWayToWriteAnUpgrade.sol\":2506:2544  returndatacopy(0, 0, returndatasize()) */\n      returndatacopy\n        /* \"proxy/WrongWayToWriteAnUpgrade.sol\":2567:2573  result */\n      dup1\n        /* \"proxy/WrongWayToWriteAnUpgrade.sol\":2641:2642  0 */\n      0x00\n        /* \"proxy/WrongWayToWriteAnUpgrade.sol\":2636:2799  case 0 {... */\n      dup2\n      eq\n      tag_29\n      jumpi\n        /* \"proxy/WrongWayToWriteAnUpgrade.sol\":2921:2937  returndatasize() */\n      returndatasize\n        /* \"proxy/WrongWayToWriteAnUpgrade.sol\":2918:2919  0 */\n      0x00\n        /* \"proxy/WrongWayToWriteAnUpgrade.sol\":2910:2938  return (0, returndatasize()) */\n      return\n        /* \"proxy/WrongWayToWriteAnUpgrade.sol\":2636:2799  case 0 {... */\n    tag_29:\n        /* \"proxy/WrongWayToWriteAnUpgrade.sol\":2767:2783  returndatasize() */\n      returndatasize\n        /* \"proxy/WrongWayToWriteAnUpgrade.sol\":2764:2765  0 */\n      0x00\n        /* \"proxy/WrongWayToWriteAnUpgrade.sol\":2757:2784  revert(0, returndatasize()) */\n      revert\n        /* \"proxy/WrongWayToWriteAnUpgrade.sol\":3142:3303  function upgradeTo(address _implementation) external {... */\n    tag_17:\n        /* \"proxy/WrongWayToWriteAnUpgrade.sol\":3228:3233  admin */\n      0x01\n      0x00\n      swap1\n      sload\n      swap1\n      0x0100\n      exp\n      swap1\n      div\n      0xffffffffffffffffffffffffffffffffffffffff\n      and\n        /* \"proxy/WrongWayToWriteAnUpgrade.sol\":3214:3233  msg.sender == admin */\n      0xffffffffffffffffffffffffffffffffffffffff\n      and\n        /* \"proxy/WrongWayToWriteAnUpgrade.sol\":3214:3224  msg.sender */\n      caller\n        /* \"proxy/WrongWayToWriteAnUpgrade.sol\":3214:3233  msg.sender == admin */\n      0xffffffffffffffffffffffffffffffffffffffff\n      and\n      eq\n        /* \"proxy/WrongWayToWriteAnUpgrade.sol\":3206:3252  require(msg.sender == admin, \"not authorized\") */\n      tag_31\n      jumpi\n      mload(0x40)\n      0x08c379a000000000000000000000000000000000000000000000000000000000\n      dup2\n      mstore\n      0x04\n      add\n      tag_32\n      swap1\n      tag_33\n      jump\t// in\n    tag_32:\n      mload(0x40)\n      dup1\n      swap2\n      sub\n      swap1\n      revert\n    tag_31:\n        /* \"proxy/WrongWayToWriteAnUpgrade.sol\":3280:3295  _implementation */\n      dup1\n        /* \"proxy/WrongWayToWriteAnUpgrade.sol\":3263:3277  implementation */\n      0x00\n      dup1\n        /* \"proxy/WrongWayToWriteAnUpgrade.sol\":3263:3295  implementation = _implementation */\n      0x0100\n      exp\n      dup2\n      sload\n      dup2\n      0xffffffffffffffffffffffffffffffffffffffff\n      mul\n      not\n      and\n      swap1\n      dup4\n      0xffffffffffffffffffffffffffffffffffffffff\n      and\n      mul\n      or\n      swap1\n      sstore\n      pop\n        /* \"proxy/WrongWayToWriteAnUpgrade.sol\":3142:3303  function upgradeTo(address _implementation) external {... */\n      pop\n      jump\t// out\n        /* \"proxy/WrongWayToWriteAnUpgrade.sol\":930:959  address public implementation */\n    tag_20:\n      0x00\n      dup1\n      sload\n      swap1\n      0x0100\n      exp\n      swap1\n      div\n      0xffffffffffffffffffffffffffffffffffffffff\n      and\n      dup2\n      jump\t// out\n        /* \"proxy/WrongWayToWriteAnUpgrade.sol\":966:986  address public admin */\n    tag_25:\n      0x01\n      0x00\n      swap1\n      sload\n      swap1\n      0x0100\n      exp\n      swap1\n      div\n      0xffffffffffffffffffffffffffffffffffffffff\n      and\n      dup2\n      jump\t// out\n        /* \"#utility.yul\":88:205   */\n    tag_35:\n        /* \"#utility.yul\":197:198   */\n      0x00\n        /* \"#utility.yul\":194:195   */\n      dup1\n        /* \"#utility.yul\":187:199   */\n      revert\n        /* \"#utility.yul\":334:460   */\n    tag_37:\n        /* \"#utility.yul\":371:378   */\n      0x00\n        /* \"#utility.yul\":411:453   */\n      0xffffffffffffffffffffffffffffffffffffffff\n        /* \"#utility.yul\":404:409   */\n      dup3\n        /* \"#utility.yul\":400:454   */\n      and\n        /* \"#utility.yul\":389:454   */\n      swap1\n      pop\n        /* \"#utility.yul\":334:460   */\n      swap2\n      swap1\n      pop\n      jump\t// out\n        /* \"#utility.yul\":466:562   */\n    tag_38:\n        /* \"#utility.yul\":503:510   */\n      0x00\n        /* \"#utility.yul\":532:556   */\n      tag_51\n        /* \"#utility.yul\":550:555   */\n      dup3\n        /* \"#utility.yul\":532:556   */\n      tag_37\n      jump\t// in\n    tag_51:\n        /* \"#utility.yul\":521:556   */\n      swap1\n      pop\n        /* \"#utility.yul\":466:562   */\n      swap2\n      swap1\n      pop\n      jump\t// out\n        /* \"#utility.yul\":568:690   */\n    tag_39:\n        /* \"#utility.yul\":641:665   */\n      tag_53\n        /* \"#utility.yul\":659:664   */\n      dup2\n        /* \"#utility.yul\":641:665   */\n      tag_38\n      jump\t// in\n    tag_53:\n        /* \"#utility.yul\":634:639   */\n      dup2\n        /* \"#utility.yul\":631:666   */\n      eq\n        /* \"#utility.yul\":621:684   */\n      tag_54\n      jumpi\n        /* \"#utility.yul\":680:681   */\n      0x00\n        /* \"#utility.yul\":677:678   */\n      dup1\n        /* \"#utility.yul\":670:682   */\n      revert\n        /* \"#utility.yul\":621:684   */\n    tag_54:\n        /* \"#utility.yul\":568:690   */\n      pop\n      jump\t// out\n        /* \"#utility.yul\":696:835   */\n    tag_40:\n        /* \"#utility.yul\":742:747   */\n      0x00\n        /* \"#utility.yul\":780:786   */\n      dup2\n        /* \"#utility.yul\":767:787   */\n      calldataload\n        /* \"#utility.yul\":758:787   */\n      swap1\n      pop\n        /* \"#utility.yul\":796:829   */\n      tag_56\n        /* \"#utility.yul\":823:828   */\n      dup2\n        /* \"#utility.yul\":796:829   */\n      tag_39\n      jump\t// in\n    tag_56:\n        /* \"#utility.yul\":696:835   */\n      swap3\n      swap2\n      pop\n      pop\n      jump\t// out\n        /* \"#utility.yul\":841:1170   */\n    tag_16:\n        /* \"#utility.yul\":900:906   */\n      0x00\n        /* \"#utility.yul\":949:951   */\n      0x20\n        /* \"#utility.yul\":937:946   */\n      dup3\n        /* \"#utility.yul\":928:935   */\n      dup5\n        /* \"#utility.yul\":924:947   */\n      sub\n        /* \"#utility.yul\":920:952   */\n      slt\n        /* \"#utility.yul\":917:1036   */\n      iszero\n      tag_58\n      jumpi\n        /* \"#utility.yul\":955:1034   */\n      tag_59\n      tag_35\n      jump\t// in\n    tag_59:\n        /* \"#utility.yul\":917:1036   */\n    tag_58:\n        /* \"#utility.yul\":1075:1076   */\n      0x00\n        /* \"#utility.yul\":1100:1153   */\n      tag_60\n        /* \"#utility.yul\":1145:1152   */\n      dup5\n        /* \"#utility.yul\":1136:1142   */\n      dup3\n        /* \"#utility.yul\":1125:1134   */\n      dup6\n        /* \"#utility.yul\":1121:1143   */\n      add\n        /* \"#utility.yul\":1100:1153   */\n      tag_40\n      jump\t// in\n    tag_60:\n        /* \"#utility.yul\":1090:1153   */\n      swap2\n      pop\n        /* \"#utility.yul\":1046:1163   */\n      pop\n        /* \"#utility.yul\":841:1170   */\n      swap3\n      swap2\n      pop\n      pop\n      jump\t// out\n        /* \"#utility.yul\":1176:1294   */\n    tag_41:\n        /* \"#utility.yul\":1263:1287   */\n      tag_62\n        /* \"#utility.yul\":1281:1286   */\n      dup2\n        /* \"#utility.yul\":1263:1287   */\n      tag_38\n      jump\t// in\n    tag_62:\n        /* \"#utility.yul\":1258:1261   */\n      dup3\n        /* \"#utility.yul\":1251:1288   */\n      mstore\n        /* \"#utility.yul\":1176:1294   */\n      pop\n      pop\n      jump\t// out\n        /* \"#utility.yul\":1300:1522   */\n    tag_22:\n        /* \"#utility.yul\":1393:1397   */\n      0x00\n        /* \"#utility.yul\":1431:1433   */\n      0x20\n        /* \"#utility.yul\":1420:1429   */\n      dup3\n        /* \"#utility.yul\":1416:1434   */\n      add\n        /* \"#utility.yul\":1408:1434   */\n      swap1\n      pop\n        /* \"#utility.yul\":1444:1515   */\n      tag_64\n        /* \"#utility.yul\":1512:1513   */\n      0x00\n        /* \"#utility.yul\":1501:1510   */\n      dup4\n        /* \"#utility.yul\":1497:1514   */\n      add\n        /* \"#utility.yul\":1488:1494   */\n      dup5\n        /* \"#utility.yul\":1444:1515   */\n      tag_41\n      jump\t// in\n    tag_64:\n        /* \"#utility.yul\":1300:1522   */\n      swap3\n      swap2\n      pop\n      pop\n      jump\t// out\n        /* \"#utility.yul\":1528:1697   */\n    tag_42:\n        /* \"#utility.yul\":1612:1623   */\n      0x00\n        /* \"#utility.yul\":1646:1652   */\n      dup3\n        /* \"#utility.yul\":1641:1644   */\n      dup3\n        /* \"#utility.yul\":1634:1653   */\n      mstore\n        /* \"#utility.yul\":1686:1690   */\n      0x20\n        /* \"#utility.yul\":1681:1684   */\n      dup3\n        /* \"#utility.yul\":1677:1691   */\n      add\n        /* \"#utility.yul\":1662:1691   */\n      swap1\n      pop\n        /* \"#utility.yul\":1528:1697   */\n      swap3\n      swap2\n      pop\n      pop\n      jump\t// out\n        /* \"#utility.yul\":1703:1867   */\n    tag_43:\n        /* \"#utility.yul\":1843:1859   */\n      0x6e6f7420617574686f72697a6564000000000000000000000000000000000000\n        /* \"#utility.yul\":1839:1840   */\n      0x00\n        /* \"#utility.yul\":1831:1837   */\n      dup3\n        /* \"#utility.yul\":1827:1841   */\n      add\n        /* \"#utility.yul\":1820:1860   */\n      mstore\n        /* \"#utility.yul\":1703:1867   */\n      pop\n      jump\t// out\n        /* \"#utility.yul\":1873:2239   */\n    tag_44:\n        /* \"#utility.yul\":2015:2018   */\n      0x00\n        /* \"#utility.yul\":2036:2103   */\n      tag_68\n        /* \"#utility.yul\":2100:2102   */\n      0x0e\n        /* \"#utility.yul\":2095:2098   */\n      dup4\n        /* \"#utility.yul\":2036:2103   */\n      tag_42\n      jump\t// in\n    tag_68:\n        /* \"#utility.yul\":2029:2103   */\n      swap2\n      pop\n        /* \"#utility.yul\":2112:2205   */\n      tag_69\n        /* \"#utility.yul\":2201:2204   */\n      dup3\n        /* \"#utility.yul\":2112:2205   */\n      tag_43\n      jump\t// in\n    tag_69:\n        /* \"#utility.yul\":2230:2232   */\n      0x20\n        /* \"#utility.yul\":2225:2228   */\n      dup3\n        /* \"#utility.yul\":2221:2233   */\n      add\n        /* \"#utility.yul\":2214:2233   */\n      swap1\n      pop\n        /* \"#utility.yul\":1873:2239   */\n      swap2\n      swap1\n      pop\n      jump\t// out\n        /* \"#utility.yul\":2245:2664   */\n    tag_33:\n        /* \"#utility.yul\":2411:2415   */\n      0x00\n        /* \"#utility.yul\":2449:2451   */\n      0x20\n        /* \"#utility.yul\":2438:2447   */\n      dup3\n        /* \"#utility.yul\":2434:2452   */\n      add\n        /* \"#utility.yul\":2426:2452   */\n      swap1\n      pop\n        /* \"#utility.yul\":2498:2507   */\n      dup2\n        /* \"#utility.yul\":2492:2496   */\n      dup2\n        /* \"#utility.yul\":2488:2508   */\n      sub\n        /* \"#utility.yul\":2484:2485   */\n      0x00\n        /* \"#utility.yul\":2473:2482   */\n      dup4\n        /* \"#utility.yul\":2469:2486   */\n      add\n        /* \"#utility.yul\":2462:2509   */\n      mstore\n        /* \"#utility.yul\":2526:2657   */\n      tag_71\n        /* \"#utility.yul\":2652:2656   */\n      dup2\n        /* \"#utility.yul\":2526:2657   */\n      tag_44\n      jump\t// in\n    tag_71:\n        /* \"#utility.yul\":2518:2657   */\n      swap1\n      pop\n        /* \"#utility.yul\":2245:2664   */\n      swap2\n      swap1\n      pop\n      jump\t// out\n\n    auxdata: 0xa2646970667358221220d6dc196c85ed0f5a1583103ce3ab711cb554c169afdbd7cfc097b1d718fe85e364736f6c63430008180033\n}\n",
				"bytecode": {
					"linkReferences": {},
					"object": "608060405234801561000f575f80fd5b503360015f6101000a81548173ffffffffffffffffffffffffffffffffffffffff021916908373ffffffffffffffffffffffffffffffffffffffff1602179055506103a38061005d5f395ff3fe608060405260043610610037575f3560e01c80633659cfe6146100905780635c60da1b146100b8578063f851a440146100e257610066565b36610066576100645f8054906101000a900473ffffffffffffffffffffffffffffffffffffffff1661010c565b005b61008e5f8054906101000a900473ffffffffffffffffffffffffffffffffffffffff1661010c565b005b34801561009b575f80fd5b506100b660048036038101906100b191906102a2565b61012b565b005b3480156100c3575f80fd5b506100cc6101fc565b6040516100d991906102dc565b60405180910390f35b3480156100ed575f80fd5b506100f661021f565b60405161010391906102dc565b60405180910390f35b365f80375f80365f845af43d5f803e805f8114610127573d5ff35b3d5ffd5b60015f9054906101000a900473ffffffffffffffffffffffffffffffffffffffff1673ffffffffffffffffffffffffffffffffffffffff163373ffffffffffffffffffffffffffffffffffffffff16146101ba576040517f08c379a00000000000000000000000000000000000000000000000000000000081526004016101b19061034f565b60405180910390fd5b805f806101000a81548173ffffffffffffffffffffffffffffffffffffffff021916908373ffffffffffffffffffffffffffffffffffffffff16021790555050565b5f8054906101000a900473ffffffffffffffffffffffffffffffffffffffff1681565b60015f9054906101000a900473ffffffffffffffffffffffffffffffffffffffff1681565b5f80fd5b5f73ffffffffffffffffffffffffffffffffffffffff82169050919050565b5f61027182610248565b9050919050565b61028181610267565b811461028b575f80fd5b50565b5f8135905061029c81610278565b92915050565b5f602082840312156102b7576102b6610244565b5b5f6102c48482850161028e565b91505092915050565b6102d681610267565b82525050565b5f6020820190506102ef5f8301846102cd565b92915050565b5f82825260208201905092915050565b7f6e6f7420617574686f72697a65640000000000000000000000000000000000005f82015250565b5f610339600e836102f5565b915061034482610305565b602082019050919050565b5f6020820190508181035f8301526103668161032d565b905091905056fea2646970667358221220d6dc196c85ed0f5a1583103ce3ab711cb554c169afdbd7cfc097b1d718fe85e364736f6c63430008180033",
					"opcodes": "PUSH1 0x80 PUSH1 0x40 MSTORE CALLVALUE DUP1 ISZERO PUSH2 0xF JUMPI PUSH0 DUP1 REVERT JUMPDEST POP CALLER PUSH1 0x1 PUSH0 PUSH2 0x100 EXP DUP2 SLOAD DUP2 PUSH20 0xFFFFFFFFFFFFFFFFFFFFFFFFFFFFFFFFFFFFFFFF MUL NOT AND SWAP1 DUP4 PUSH20 0xFFFFFFFFFFFFFFFFFFFFFFFFFFFFFFFFFFFFFFFF AND MUL OR SWAP1 SSTORE POP PUSH2 0x3A3 DUP1 PUSH2 0x5D PUSH0 CODECOPY PUSH0 RETURN INVALID PUSH1 0x80 PUSH1 0x40 MSTORE PUSH1 0x4 CALLDATASIZE LT PUSH2 0x37 JUMPI PUSH0 CALLDATALOAD PUSH1 0xE0 SHR DUP1 PUSH4 0x3659CFE6 EQ PUSH2 0x90 JUMPI DUP1 PUSH4 0x5C60DA1B EQ PUSH2 0xB8 JUMPI DUP1 PUSH4 0xF851A440 EQ PUSH2 0xE2 JUMPI PUSH2 0x66 JUMP JUMPDEST CALLDATASIZE PUSH2 0x66 JUMPI PUSH2 0x64 PUSH0 DUP1 SLOAD SWAP1 PUSH2 0x100 EXP SWAP1 DIV PUSH20 0xFFFFFFFFFFFFFFFFFFFFFFFFFFFFFFFFFFFFFFFF AND PUSH2 0x10C JUMP JUMPDEST STOP JUMPDEST PUSH2 0x8E PUSH0 DUP1 SLOAD SWAP1 PUSH2 0x100 EXP SWAP1 DIV PUSH20 0xFFFFFFFFFFFFFFFFFFFFFFFFFFFFFFFFFFFFFFFF AND PUSH2 0x10C JUMP JUMPDEST STOP JUMPDEST CALLVALUE DUP1 ISZERO PUSH2 0x9B JUMPI PUSH0 DUP1 REVERT JUMPDEST POP PUSH2 0xB6 PUSH1 0x4 DUP1 CALLDATASIZE SUB DUP2 ADD SWAP1 PUSH2 0xB1 SWAP2 SWAP1 PUSH2 0x2A2 JUMP JUMPDEST PUSH2 0x12B JUMP JUMPDEST STOP JUMPDEST CALLVALUE DUP1 ISZERO PUSH2 0xC3 JUMPI PUSH0 DUP1 REVERT JUMPDEST POP PUSH2 0xCC PUSH2 0x1FC JUMP JUMPDEST PUSH1 0x40 MLOAD PUSH2 0xD9 SWAP2 SWAP1 PUSH2 0x2DC JUMP JUMPDEST PUSH1 0x40 MLOAD DUP1 SWAP2 SUB SWAP1 RETURN JUMPDEST CALLVALUE DUP1 ISZERO PUSH2 0xED JUMPI PUSH0 DUP1 REVERT JUMPDEST POP PUSH2 0xF6 PUSH2 0x21F JUMP JUMPDEST PUSH1 0x40 MLOAD PUSH2 0x103 SWAP2 SWAP1 PUSH2 0x2DC JUMP JUMPDEST PUSH1 0x40 MLOAD DUP1 SWAP2 SUB SWAP1 RETURN JUMPDEST CALLDATASIZE PUSH0 DUP1 CALLDATACOPY PUSH0 DUP1 CALLDATASIZE PUSH0 DUP5 GAS DELEGATECALL RETURNDATASIZE PUSH0 DUP1 RETURNDATACOPY DUP1 PUSH0 DUP2 EQ PUSH2 0x127 JUMPI RETURNDATASIZE PUSH0 RETURN JUMPDEST RETURNDATASIZE PUSH0 REVERT JUMPDEST PUSH1 0x1 PUSH0 SWAP1 SLOAD SWAP1 PUSH2 0x100 EXP SWAP1 DIV PUSH20 0xFFFFFFFFFFFFFFFFFFFFFFFFFFFFFFFFFFFFFFFF AND PUSH20 0xFFFFFFFFFFFFFFFFFFFFFFFFFFFFFFFFFFFFFFFF AND CALLER PUSH20 0xFFFFFFFFFFFFFFFFFFFFFFFFFFFFFFFFFFFFFFFF AND EQ PUSH2 0x1BA JUMPI PUSH1 0x40 MLOAD PUSH32 0x8C379A000000000000000000000000000000000000000000000000000000000 DUP2 MSTORE PUSH1 0x4 ADD PUSH2 0x1B1 SWAP1 PUSH2 0x34F JUMP JUMPDEST PUSH1 0x40 MLOAD DUP1 SWAP2 SUB SWAP1 REVERT JUMPDEST DUP1 PUSH0 DUP1 PUSH2 0x100 EXP DUP2 SLOAD DUP2 PUSH20 0xFFFFFFFFFFFFFFFFFFFFFFFFFFFFFFFFFFFFFFFF MUL NOT AND SWAP1 DUP4 PUSH20 0xFFFFFFFFFFFFFFFFFFFFFFFFFFFFFFFFFFFFFFFF AND MUL OR SWAP1 SSTORE POP POP JUMP JUMPDEST PUSH0 DUP1 SLOAD SWAP1 PUSH2 0x100 EXP SWAP1 DIV PUSH20 0xFFFFFFFFFFFFFFFFFFFFFFFFFFFFFFFFFFFFFFFF AND DUP2 JUMP JUMPDEST PUSH1 0x1 PUSH0 SWAP1 SLOAD SWAP1 PUSH2 0x100 EXP SWAP1 DIV PUSH20 0xFFFFFFFFFFFFFFFFFFFFFFFFFFFFFFFFFFFFFFFF AND DUP2 JUMP JUMPDEST PUSH0 DUP1 REVERT JUMPDEST PUSH0 PUSH20 0xFFFFFFFFFFFFFFFFFFFFFFFFFFFFFFFFFFFFFFFF DUP3 AND SWAP1 POP SWAP2 SWAP1 POP JUMP JUMPDEST PUSH0 PUSH2 0x271 DUP3 PUSH2 0x248 JUMP JUMPDEST SWAP1 POP SWAP2 SWAP1 POP JUMP JUMPDEST PUSH2 0x281 DUP2 PUSH2 0x267 JUMP JUMPDEST DUP2 EQ PUSH2 0x28B JUMPI PUSH0 DUP1 REVERT JUMPDEST POP JUMP JUMPDEST PUSH0 DUP2 CALLDATALOAD SWAP1 POP PUSH2 0x29C DUP2 PUSH2 0x278 JUMP JUMPDEST SWAP3 SWAP2 POP POP JUMP JUMPDEST PUSH0 PUSH1 0x20 DUP3 DUP5 SUB SLT ISZERO PUSH2 0x2B7 JUMPI PUSH2 0x2B6 PUSH2 0x244 JUMP JUMPDEST JUMPDEST PUSH0 PUSH2 0x2C4 DUP5 DUP3 DUP6 ADD PUSH2 0x28E JUMP JUMPDEST SWAP2 POP POP SWAP3 SWAP2 POP POP JUMP JUMPDEST PUSH2 0x2D6 DUP2 PUSH2 0x267 JUMP JUMPDEST DUP3 MSTORE POP POP JUMP JUMPDEST PUSH0 PUSH1 0x20 DUP3 ADD SWAP1 POP PUSH2 0x2EF PUSH0 DUP4 ADD DUP5 PUSH2 0x2CD JUMP JUMPDEST SWAP3 SWAP2 POP POP JUMP JUMPDEST PUSH0 DUP3 DUP3 MSTORE PUSH1 0x20 DUP3 ADD SWAP1 POP SWAP3 SWAP2 POP POP JUMP JUMPDEST PUSH32 0x6E6F7420617574686F72697A6564000000000000000000000000000000000000 PUSH0 DUP3 ADD MSTORE POP JUMP JUMPDEST PUSH0 PUSH2 0x339 PUSH1 0xE DUP4 PUSH2 0x2F5 JUMP JUMPDEST SWAP2 POP PUSH2 0x344 DUP3 PUSH2 0x305 JUMP JUMPDEST PUSH1 0x20 DUP3 ADD SWAP1 POP SWAP2 SWAP1 POP JUMP JUMPDEST PUSH0 PUSH1 0x20 DUP3 ADD SWAP1 POP DUP2 DUP2 SUB PUSH0 DUP4 ADD MSTORE PUSH2 0x366 DUP2 PUSH2 0x32D JUMP JUMPDEST SWAP1 POP SWAP2 SWAP1 POP JUMP INVALID LOG2 PUSH5 0x6970667358 0x22 SLT KECCAK256 0xD6 0xDC NOT PUSH13 0x85ED0F5A1583103CE3AB711CB5 SLOAD 0xC1 PUSH10 0xAFDBD7CFC097B1D718FE DUP6 0xE3 PUSH5 0x736F6C6343 STOP ADDMOD XOR STOP CALLER "
				},
				"gasEstimates": {
					"creation": {
						"codeDepositCost": "186200",
						"executionCost": "24495",
						"totalCost": "210695"
					},
					"external": {
						"": "infinite",
						"admin()": "2530",
						"implementation()": "2505",
						"upgradeTo(address)": "26862"
					},
					"internal": {
						"_delegate(address)": "infinite"
					}
				},
				"methodIdentifiers": {
					"admin()": "f851a440",
					"implementation()": "5c60da1b",
					"upgradeTo(address)": "3659cfe6"
				}
			},
			"storageLayout": {
				"storage": [
					{
						"astId": 41,
						"contract": "proxy/WrongWayToWriteAnUpgrade.sol:BuggyProxy",
						"label": "implementation",
						"offset": 0,
						"slot": "0",
						"type": "t_address"
					},
					{
						"astId": 43,
						"contract": "proxy/WrongWayToWriteAnUpgrade.sol:BuggyProxy",
						"label": "admin",
						"offset": 0,
						"slot": "1",
						"type": "t_address"
					}
				],
				"types": {
					"t_address": {
						"encoding": "inplace",
						"label": "address",
						"numberOfBytes": "20"
					}
				}
			},
			"userdoc": {
				"kind": "user",
				"methods": {},
				"version": 1
			}
		}
	}
}