{
	"proxy/WriteToAnySlot11.sol": {
		"Proxy": {
			"abi": [
				{
					"inputs": [],
					"stateMutability": "nonpayable",
					"type": "constructor"
				},
				{
					"stateMutability": "payable",
					"type": "fallback"
				},
				{
					"inputs": [],
					"name": "admin",
					"outputs": [
						{
							"internalType": "address",
							"name": "",
							"type": "address"
						}
					],
					"stateMutability": "nonpayable",
					"type": "function"
				},
				{
					"inputs": [],
					"name": "implementation",
					"outputs": [
						{
							"internalType": "address",
							"name": "",
							"type": "address"
						}
					],
					"stateMutability": "nonpayable",
					"type": "function"
				},
				{
					"inputs": [
						{
							"internalType": "address",
							"name": "_implementation",
							"type": "address"
						}
					],
					"name": "upgradeTo",
					"outputs": [],
					"stateMutability": "nonpayable",
					"type": "function"
				},
				{
					"stateMutability": "payable",
					"type": "receive"
				}
			],
			"devdoc": {
				"kind": "dev",
				"methods": {},
				"version": 1
			},
			"evm": {
				"assembly": "    /* \"proxy/WriteToAnySlot11.sol\":1437:5079  contract Proxy{... */\n  mstore(0x40, 0x80)\n    /* \"proxy/WriteToAnySlot11.sol\":1672:1726  constructor() {... */\n  callvalue\n  dup1\n  iszero\n  tag_1\n  jumpi\n  0x00\n  dup1\n  revert\ntag_1:\n  pop\n    /* \"proxy/WriteToAnySlot11.sol\":1697:1718  _setAdmin(msg.sender) */\n  tag_4\n    /* \"proxy/WriteToAnySlot11.sol\":1707:1717  msg.sender */\n  caller\n    /* \"proxy/WriteToAnySlot11.sol\":1697:1706  _setAdmin */\n  shl(0x20, tag_5)\n    /* \"proxy/WriteToAnySlot11.sol\":1697:1718  _setAdmin(msg.sender) */\n  0x20\n  shr\n  jump\t// in\ntag_4:\n    /* \"proxy/WriteToAnySlot11.sol\":1437:5079  contract Proxy{... */\n  jump(tag_6)\n    /* \"proxy/WriteToAnySlot11.sol\":4314:4490  function _setAdmin(address _admin) private {... */\ntag_5:\n    /* \"proxy/WriteToAnySlot11.sol\":4394:4395  0 */\n  0x00\n    /* \"proxy/WriteToAnySlot11.sol\":4376:4396  _admin != address(0) */\n  0xffffffffffffffffffffffffffffffffffffffff\n  and\n    /* \"proxy/WriteToAnySlot11.sol\":4376:4382  _admin */\n  dup2\n    /* \"proxy/WriteToAnySlot11.sol\":4376:4396  _admin != address(0) */\n  0xffffffffffffffffffffffffffffffffffffffff\n  and\n  sub\n    /* \"proxy/WriteToAnySlot11.sol\":4368:4418  require(_admin != address(0), \"admin = address 0\") */\n  tag_8\n  jumpi\n  mload(0x40)\n  0x08c379a000000000000000000000000000000000000000000000000000000000\n  dup2\n  mstore\n  0x04\n  add\n  tag_9\n  swap1\n  tag_10\n  jump\t// in\ntag_9:\n  mload(0x40)\n  dup1\n  swap2\n  sub\n  swap1\n  revert\ntag_8:\n    /* \"proxy/WriteToAnySlot11.sol\":4476:4482  _admin */\n  dup1\n    /* \"proxy/WriteToAnySlot11.sol\":4429:4467  StorageSlot.getAddressSlot(ADMIN_SLOT) */\n  tag_11\n    /* \"proxy/WriteToAnySlot11.sol\":1661:1662  1 */\n  0x01\n    /* \"proxy/WriteToAnySlot11.sol\":1625:1657  keccak256(\"eip1967.proxy.admin\") */\n  0xb53127684a568b3173ae13b9f8a6016e243e63b6e8ee1178d6a717850b5d6104\n    /* \"proxy/WriteToAnySlot11.sol\":1620:1658  uint(keccak256(\"eip1967.proxy.admin\")) */\n  0x00\n  shr\n    /* \"proxy/WriteToAnySlot11.sol\":1620:1662  uint(keccak256(\"eip1967.proxy.admin\")) - 1 */\n  tag_12\n  swap2\n  swap1\n  tag_13\n  jump\t// in\ntag_12:\n    /* \"proxy/WriteToAnySlot11.sol\":1612:1663  bytes32(uint(keccak256(\"eip1967.proxy.admin\")) - 1) */\n  0x00\n  shl\n    /* \"proxy/WriteToAnySlot11.sol\":4429:4455  StorageSlot.getAddressSlot */\n  shl(0x20, tag_14)\n    /* \"proxy/WriteToAnySlot11.sol\":4429:4467  StorageSlot.getAddressSlot(ADMIN_SLOT) */\n  0x20\n  shr\n  jump\t// in\ntag_11:\n    /* \"proxy/WriteToAnySlot11.sol\":4429:4473  StorageSlot.getAddressSlot(ADMIN_SLOT).value */\n  0x00\n  add\n  0x00\n    /* \"proxy/WriteToAnySlot11.sol\":4429:4482  StorageSlot.getAddressSlot(ADMIN_SLOT).value = _admin */\n  0x0100\n  exp\n  dup2\n  sload\n  dup2\n  0xffffffffffffffffffffffffffffffffffffffff\n  mul\n  not\n  and\n  swap1\n  dup4\n  0xffffffffffffffffffffffffffffffffffffffff\n  and\n  mul\n  or\n  swap1\n  sstore\n  pop\n    /* \"proxy/WriteToAnySlot11.sol\":4314:4490  function _setAdmin(address _admin) private {... */\n  pop\n  jump\t// out\n    /* \"proxy/WriteToAnySlot11.sol\":5168:5319  function getAddressSlot(bytes32 slot) internal pure  returns(AddressSlot storage r) {... */\ntag_14:\n    /* \"proxy/WriteToAnySlot11.sol\":5229:5250  AddressSlot storage r */\n  0x00\n    /* \"proxy/WriteToAnySlot11.sol\":5297:5301  slot */\n  dup2\n    /* \"proxy/WriteToAnySlot11.sol\":5287:5301  r.slot := slot */\n  swap1\n  pop\n    /* \"proxy/WriteToAnySlot11.sol\":5168:5319  function getAddressSlot(bytes32 slot) internal pure  returns(AddressSlot storage r) {... */\n  swap2\n  swap1\n  pop\n  jump\t// out\n    /* \"#utility.yul\":7:176   */\ntag_16:\n    /* \"#utility.yul\":91:102   */\n  0x00\n    /* \"#utility.yul\":125:131   */\n  dup3\n    /* \"#utility.yul\":120:123   */\n  dup3\n    /* \"#utility.yul\":113:132   */\n  mstore\n    /* \"#utility.yul\":165:169   */\n  0x20\n    /* \"#utility.yul\":160:163   */\n  dup3\n    /* \"#utility.yul\":156:170   */\n  add\n    /* \"#utility.yul\":141:170   */\n  swap1\n  pop\n    /* \"#utility.yul\":7:176   */\n  swap3\n  swap2\n  pop\n  pop\n  jump\t// out\n    /* \"#utility.yul\":182:349   */\ntag_17:\n    /* \"#utility.yul\":322:341   */\n  0x61646d696e203d20616464726573732030000000000000000000000000000000\n    /* \"#utility.yul\":318:319   */\n  0x00\n    /* \"#utility.yul\":310:316   */\n  dup3\n    /* \"#utility.yul\":306:320   */\n  add\n    /* \"#utility.yul\":299:342   */\n  mstore\n    /* \"#utility.yul\":182:349   */\n  pop\n  jump\t// out\n    /* \"#utility.yul\":355:721   */\ntag_18:\n    /* \"#utility.yul\":497:500   */\n  0x00\n    /* \"#utility.yul\":518:585   */\n  tag_25\n    /* \"#utility.yul\":582:584   */\n  0x11\n    /* \"#utility.yul\":577:580   */\n  dup4\n    /* \"#utility.yul\":518:585   */\n  tag_16\n  jump\t// in\ntag_25:\n    /* \"#utility.yul\":511:585   */\n  swap2\n  pop\n    /* \"#utility.yul\":594:687   */\n  tag_26\n    /* \"#utility.yul\":683:686   */\n  dup3\n    /* \"#utility.yul\":594:687   */\n  tag_17\n  jump\t// in\ntag_26:\n    /* \"#utility.yul\":712:714   */\n  0x20\n    /* \"#utility.yul\":707:710   */\n  dup3\n    /* \"#utility.yul\":703:715   */\n  add\n    /* \"#utility.yul\":696:715   */\n  swap1\n  pop\n    /* \"#utility.yul\":355:721   */\n  swap2\n  swap1\n  pop\n  jump\t// out\n    /* \"#utility.yul\":727:1146   */\ntag_10:\n    /* \"#utility.yul\":893:897   */\n  0x00\n    /* \"#utility.yul\":931:933   */\n  0x20\n    /* \"#utility.yul\":920:929   */\n  dup3\n    /* \"#utility.yul\":916:934   */\n  add\n    /* \"#utility.yul\":908:934   */\n  swap1\n  pop\n    /* \"#utility.yul\":980:989   */\n  dup2\n    /* \"#utility.yul\":974:978   */\n  dup2\n    /* \"#utility.yul\":970:990   */\n  sub\n    /* \"#utility.yul\":966:967   */\n  0x00\n    /* \"#utility.yul\":955:964   */\n  dup4\n    /* \"#utility.yul\":951:968   */\n  add\n    /* \"#utility.yul\":944:991   */\n  mstore\n    /* \"#utility.yul\":1008:1139   */\n  tag_28\n    /* \"#utility.yul\":1134:1138   */\n  dup2\n    /* \"#utility.yul\":1008:1139   */\n  tag_18\n  jump\t// in\ntag_28:\n    /* \"#utility.yul\":1000:1139   */\n  swap1\n  pop\n    /* \"#utility.yul\":727:1146   */\n  swap2\n  swap1\n  pop\n  jump\t// out\n    /* \"#utility.yul\":1152:1229   */\ntag_19:\n    /* \"#utility.yul\":1189:1196   */\n  0x00\n    /* \"#utility.yul\":1218:1223   */\n  dup2\n    /* \"#utility.yul\":1207:1223   */\n  swap1\n  pop\n    /* \"#utility.yul\":1152:1229   */\n  swap2\n  swap1\n  pop\n  jump\t// out\n    /* \"#utility.yul\":1235:1415   */\ntag_20:\n    /* \"#utility.yul\":1283:1360   */\n  0x4e487b7100000000000000000000000000000000000000000000000000000000\n    /* \"#utility.yul\":1280:1281   */\n  0x00\n    /* \"#utility.yul\":1273:1361   */\n  mstore\n    /* \"#utility.yul\":1380:1384   */\n  0x11\n    /* \"#utility.yul\":1377:1378   */\n  0x04\n    /* \"#utility.yul\":1370:1385   */\n  mstore\n    /* \"#utility.yul\":1404:1408   */\n  0x24\n    /* \"#utility.yul\":1401:1402   */\n  0x00\n    /* \"#utility.yul\":1394:1409   */\n  revert\n    /* \"#utility.yul\":1421:1615   */\ntag_13:\n    /* \"#utility.yul\":1461:1465   */\n  0x00\n    /* \"#utility.yul\":1481:1501   */\n  tag_32\n    /* \"#utility.yul\":1499:1500   */\n  dup3\n    /* \"#utility.yul\":1481:1501   */\n  tag_19\n  jump\t// in\ntag_32:\n    /* \"#utility.yul\":1476:1501   */\n  swap2\n  pop\n    /* \"#utility.yul\":1515:1535   */\n  tag_33\n    /* \"#utility.yul\":1533:1534   */\n  dup4\n    /* \"#utility.yul\":1515:1535   */\n  tag_19\n  jump\t// in\ntag_33:\n    /* \"#utility.yul\":1510:1535   */\n  swap3\n  pop\n    /* \"#utility.yul\":1559:1560   */\n  dup3\n    /* \"#utility.yul\":1556:1557   */\n  dup3\n    /* \"#utility.yul\":1552:1561   */\n  sub\n    /* \"#utility.yul\":1544:1561   */\n  swap1\n  pop\n    /* \"#utility.yul\":1583:1584   */\n  dup2\n    /* \"#utility.yul\":1577:1581   */\n  dup2\n    /* \"#utility.yul\":1574:1585   */\n  gt\n    /* \"#utility.yul\":1571:1608   */\n  iszero\n  tag_34\n  jumpi\n    /* \"#utility.yul\":1588:1606   */\n  tag_35\n  tag_20\n  jump\t// in\ntag_35:\n    /* \"#utility.yul\":1571:1608   */\ntag_34:\n    /* \"#utility.yul\":1421:1615   */\n  swap3\n  swap2\n  pop\n  pop\n  jump\t// out\n    /* \"proxy/WriteToAnySlot11.sol\":1437:5079  contract Proxy{... */\ntag_6:\n  dataSize(sub_0)\n  dup1\n  dataOffset(sub_0)\n  0x00\n  codecopy\n  0x00\n  return\nstop\n\nsub_0: assembly {\n        /* \"proxy/WriteToAnySlot11.sol\":1437:5079  contract Proxy{... */\n      mstore(0x40, 0x80)\n      jumpi(tag_1, lt(calldatasize, 0x04))\n      shr(0xe0, calldataload(0x00))\n      dup1\n      0x3659cfe6\n      eq\n      tag_3\n      jumpi\n      dup1\n      0x5c60da1b\n      eq\n      tag_4\n      jumpi\n      dup1\n      0xf851a440\n      eq\n      tag_5\n      jumpi\n      jump(tag_2)\n    tag_1:\n      jumpi(tag_2, calldatasize)\n        /* \"proxy/WriteToAnySlot11.sol\":3822:3833  _fallback() */\n      tag_8\n        /* \"proxy/WriteToAnySlot11.sol\":3822:3831  _fallback */\n      tag_9\n        /* \"proxy/WriteToAnySlot11.sol\":3822:3833  _fallback() */\n      jump\t// in\n    tag_8:\n        /* \"proxy/WriteToAnySlot11.sol\":1437:5079  contract Proxy{... */\n      stop\n    tag_2:\n        /* \"proxy/WriteToAnySlot11.sol\":3757:3768  _fallback() */\n      tag_12\n        /* \"proxy/WriteToAnySlot11.sol\":3757:3766  _fallback */\n      tag_9\n        /* \"proxy/WriteToAnySlot11.sol\":3757:3768  _fallback() */\n      jump\t// in\n    tag_12:\n        /* \"proxy/WriteToAnySlot11.sol\":1437:5079  contract Proxy{... */\n      stop\n        /* \"proxy/WriteToAnySlot11.sol\":3996:4177  function upgradeTo(address _implementation) external ifAdmin {... */\n    tag_3:\n      callvalue\n      dup1\n      iszero\n      tag_13\n      jumpi\n      0x00\n      dup1\n      revert\n    tag_13:\n      pop\n      tag_14\n      0x04\n      dup1\n      calldatasize\n      sub\n      dup2\n      add\n      swap1\n      tag_15\n      swap2\n      swap1\n      tag_16\n      jump\t// in\n    tag_15:\n      tag_17\n      jump\t// in\n    tag_14:\n      stop\n        /* \"proxy/WriteToAnySlot11.sol\":4970:5076  function implementation() external ifAdmin returns(address) {... */\n    tag_4:\n      callvalue\n      dup1\n      iszero\n      tag_18\n      jumpi\n      0x00\n      dup1\n      revert\n    tag_18:\n      pop\n      tag_19\n      tag_20\n      jump\t// in\n    tag_19:\n      mload(0x40)\n      tag_21\n      swap2\n      swap1\n      tag_22\n      jump\t// in\n    tag_21:\n      mload(0x40)\n      dup1\n      swap2\n      sub\n      swap1\n      return\n        /* \"proxy/WriteToAnySlot11.sol\":4873:4962  function admin() external ifAdmin  returns(address) {... */\n    tag_5:\n      callvalue\n      dup1\n      iszero\n      tag_23\n      jumpi\n      0x00\n      dup1\n      revert\n    tag_23:\n      pop\n      tag_24\n      tag_25\n      jump\t// in\n    tag_24:\n      mload(0x40)\n      tag_26\n      swap2\n      swap1\n      tag_22\n      jump\t// in\n    tag_26:\n      mload(0x40)\n      dup1\n      swap2\n      sub\n      swap1\n      return\n        /* \"proxy/WriteToAnySlot11.sol\":3631:3710  function _fallback() private {... */\n    tag_9:\n        /* \"proxy/WriteToAnySlot11.sol\":3671:3702  _delegate(_getImplementation()) */\n      tag_28\n        /* \"proxy/WriteToAnySlot11.sol\":3681:3701  _getImplementation() */\n      tag_29\n        /* \"proxy/WriteToAnySlot11.sol\":3681:3699  _getImplementation */\n      tag_30\n        /* \"proxy/WriteToAnySlot11.sol\":3681:3701  _getImplementation() */\n      jump\t// in\n    tag_29:\n        /* \"proxy/WriteToAnySlot11.sol\":3671:3680  _delegate */\n      tag_31\n        /* \"proxy/WriteToAnySlot11.sol\":3671:3702  _delegate(_getImplementation()) */\n      jump\t// in\n    tag_28:\n        /* \"proxy/WriteToAnySlot11.sol\":3631:3710  function _fallback() private {... */\n      jump\t// out\n        /* \"proxy/WriteToAnySlot11.sol\":3996:4177  function upgradeTo(address _implementation) external ifAdmin {... */\n    tag_17:\n        /* \"proxy/WriteToAnySlot11.sol\":3896:3907  _getAdmin() */\n      tag_33\n        /* \"proxy/WriteToAnySlot11.sol\":3896:3905  _getAdmin */\n      tag_34\n        /* \"proxy/WriteToAnySlot11.sol\":3896:3907  _getAdmin() */\n      jump\t// in\n    tag_33:\n        /* \"proxy/WriteToAnySlot11.sol\":3882:3907  msg.sender == _getAdmin() */\n      0xffffffffffffffffffffffffffffffffffffffff\n      and\n        /* \"proxy/WriteToAnySlot11.sol\":3882:3892  msg.sender */\n      caller\n        /* \"proxy/WriteToAnySlot11.sol\":3882:3907  msg.sender == _getAdmin() */\n      0xffffffffffffffffffffffffffffffffffffffff\n      and\n      sub\n        /* \"proxy/WriteToAnySlot11.sol\":3879:3981  if(msg.sender == _getAdmin()) {... */\n      tag_35\n      jumpi\n        /* \"proxy/WriteToAnySlot11.sol\":4134:4169  _setImplementation(_implementation) */\n      tag_37\n        /* \"proxy/WriteToAnySlot11.sol\":4153:4168  _implementation */\n      dup2\n        /* \"proxy/WriteToAnySlot11.sol\":4134:4152  _setImplementation */\n      tag_38\n        /* \"proxy/WriteToAnySlot11.sol\":4134:4169  _setImplementation(_implementation) */\n      jump\t// in\n    tag_37:\n        /* \"proxy/WriteToAnySlot11.sol\":3879:3981  if(msg.sender == _getAdmin()) {... */\n      jump(tag_39)\n    tag_35:\n        /* \"proxy/WriteToAnySlot11.sol\":3958:3969  _fallback() */\n      tag_40\n        /* \"proxy/WriteToAnySlot11.sol\":3958:3967  _fallback */\n      tag_9\n        /* \"proxy/WriteToAnySlot11.sol\":3958:3969  _fallback() */\n      jump\t// in\n    tag_40:\n        /* \"proxy/WriteToAnySlot11.sol\":3879:3981  if(msg.sender == _getAdmin()) {... */\n    tag_39:\n        /* \"proxy/WriteToAnySlot11.sol\":3996:4177  function upgradeTo(address _implementation) external ifAdmin {... */\n      pop\n      jump\t// out\n        /* \"proxy/WriteToAnySlot11.sol\":4970:5076  function implementation() external ifAdmin returns(address) {... */\n    tag_20:\n        /* \"proxy/WriteToAnySlot11.sol\":5021:5028  address */\n      0x00\n        /* \"proxy/WriteToAnySlot11.sol\":3896:3907  _getAdmin() */\n      tag_42\n        /* \"proxy/WriteToAnySlot11.sol\":3896:3905  _getAdmin */\n      tag_34\n        /* \"proxy/WriteToAnySlot11.sol\":3896:3907  _getAdmin() */\n      jump\t// in\n    tag_42:\n        /* \"proxy/WriteToAnySlot11.sol\":3882:3907  msg.sender == _getAdmin() */\n      0xffffffffffffffffffffffffffffffffffffffff\n      and\n        /* \"proxy/WriteToAnySlot11.sol\":3882:3892  msg.sender */\n      caller\n        /* \"proxy/WriteToAnySlot11.sol\":3882:3907  msg.sender == _getAdmin() */\n      0xffffffffffffffffffffffffffffffffffffffff\n      and\n      sub\n        /* \"proxy/WriteToAnySlot11.sol\":3879:3981  if(msg.sender == _getAdmin()) {... */\n      tag_43\n      jumpi\n        /* \"proxy/WriteToAnySlot11.sol\":5048:5068  _getImplementation() */\n      tag_45\n        /* \"proxy/WriteToAnySlot11.sol\":5048:5066  _getImplementation */\n      tag_30\n        /* \"proxy/WriteToAnySlot11.sol\":5048:5068  _getImplementation() */\n      jump\t// in\n    tag_45:\n        /* \"proxy/WriteToAnySlot11.sol\":5041:5068  return _getImplementation() */\n      swap1\n      pop\n        /* \"proxy/WriteToAnySlot11.sol\":3879:3981  if(msg.sender == _getAdmin()) {... */\n      jump(tag_46)\n    tag_43:\n        /* \"proxy/WriteToAnySlot11.sol\":3958:3969  _fallback() */\n      tag_47\n        /* \"proxy/WriteToAnySlot11.sol\":3958:3967  _fallback */\n      tag_9\n        /* \"proxy/WriteToAnySlot11.sol\":3958:3969  _fallback() */\n      jump\t// in\n    tag_47:\n        /* \"proxy/WriteToAnySlot11.sol\":3879:3981  if(msg.sender == _getAdmin()) {... */\n    tag_46:\n        /* \"proxy/WriteToAnySlot11.sol\":4970:5076  function implementation() external ifAdmin returns(address) {... */\n      swap1\n      jump\t// out\n        /* \"proxy/WriteToAnySlot11.sol\":4873:4962  function admin() external ifAdmin  returns(address) {... */\n    tag_25:\n        /* \"proxy/WriteToAnySlot11.sol\":4916:4923  address */\n      0x00\n        /* \"proxy/WriteToAnySlot11.sol\":3896:3907  _getAdmin() */\n      tag_49\n        /* \"proxy/WriteToAnySlot11.sol\":3896:3905  _getAdmin */\n      tag_34\n        /* \"proxy/WriteToAnySlot11.sol\":3896:3907  _getAdmin() */\n      jump\t// in\n    tag_49:\n        /* \"proxy/WriteToAnySlot11.sol\":3882:3907  msg.sender == _getAdmin() */\n      0xffffffffffffffffffffffffffffffffffffffff\n      and\n        /* \"proxy/WriteToAnySlot11.sol\":3882:3892  msg.sender */\n      caller\n        /* \"proxy/WriteToAnySlot11.sol\":3882:3907  msg.sender == _getAdmin() */\n      0xffffffffffffffffffffffffffffffffffffffff\n      and\n      sub\n        /* \"proxy/WriteToAnySlot11.sol\":3879:3981  if(msg.sender == _getAdmin()) {... */\n      tag_50\n      jumpi\n        /* \"proxy/WriteToAnySlot11.sol\":4943:4954  _getAdmin() */\n      tag_52\n        /* \"proxy/WriteToAnySlot11.sol\":4943:4952  _getAdmin */\n      tag_34\n        /* \"proxy/WriteToAnySlot11.sol\":4943:4954  _getAdmin() */\n      jump\t// in\n    tag_52:\n        /* \"proxy/WriteToAnySlot11.sol\":4936:4954  return _getAdmin() */\n      swap1\n      pop\n        /* \"proxy/WriteToAnySlot11.sol\":3879:3981  if(msg.sender == _getAdmin()) {... */\n      jump(tag_53)\n    tag_50:\n        /* \"proxy/WriteToAnySlot11.sol\":3958:3969  _fallback() */\n      tag_54\n        /* \"proxy/WriteToAnySlot11.sol\":3958:3967  _fallback */\n      tag_9\n        /* \"proxy/WriteToAnySlot11.sol\":3958:3969  _fallback() */\n      jump\t// in\n    tag_54:\n        /* \"proxy/WriteToAnySlot11.sol\":3879:3981  if(msg.sender == _getAdmin()) {... */\n    tag_53:\n        /* \"proxy/WriteToAnySlot11.sol\":4873:4962  function admin() external ifAdmin  returns(address) {... */\n      swap1\n      jump\t// out\n        /* \"proxy/WriteToAnySlot11.sol\":4498:4637  function _getImplementation() private view returns(address) {... */\n    tag_30:\n        /* \"proxy/WriteToAnySlot11.sol\":4549:4556  address */\n      0x00\n        /* \"proxy/WriteToAnySlot11.sol\":4576:4623  StorageSlot.getAddressSlot(IMPLEMENTATION_SLOT) */\n      tag_56\n        /* \"proxy/WriteToAnySlot11.sol\":1564:1565  1 */\n      0x01\n        /* \"proxy/WriteToAnySlot11.sol\":1519:1560  keccak256(\"eip1967.proxy.implementation\") */\n      0x360894a13ba1a3210667c828492db98dca3e2076cc3735a920a3ca505d382bbd\n        /* \"proxy/WriteToAnySlot11.sol\":1514:1561  uint(keccak256(\"eip1967.proxy.implementation\")) */\n      0x00\n      shr\n        /* \"proxy/WriteToAnySlot11.sol\":1514:1565  uint(keccak256(\"eip1967.proxy.implementation\")) - 1 */\n      tag_57\n      swap2\n      swap1\n      tag_58\n      jump\t// in\n    tag_57:\n        /* \"proxy/WriteToAnySlot11.sol\":1506:1566  bytes32(uint(keccak256(\"eip1967.proxy.implementation\")) - 1) */\n      0x00\n      shl\n        /* \"proxy/WriteToAnySlot11.sol\":4576:4602  StorageSlot.getAddressSlot */\n      tag_59\n        /* \"proxy/WriteToAnySlot11.sol\":4576:4623  StorageSlot.getAddressSlot(IMPLEMENTATION_SLOT) */\n      jump\t// in\n    tag_56:\n        /* \"proxy/WriteToAnySlot11.sol\":4576:4629  StorageSlot.getAddressSlot(IMPLEMENTATION_SLOT).value */\n      0x00\n      add\n      0x00\n      swap1\n      sload\n      swap1\n      0x0100\n      exp\n      swap1\n      div\n      0xffffffffffffffffffffffffffffffffffffffff\n      and\n        /* \"proxy/WriteToAnySlot11.sol\":4569:4629  return StorageSlot.getAddressSlot(IMPLEMENTATION_SLOT).value */\n      swap1\n      pop\n        /* \"proxy/WriteToAnySlot11.sol\":4498:4637  function _getImplementation() private view returns(address) {... */\n      swap1\n      jump\t// out\n        /* \"proxy/WriteToAnySlot11.sol\":1914:3623  function _delegate(address _implementation) private {... */\n    tag_31:\n        /* \"proxy/WriteToAnySlot11.sol\":2400:2414  calldatasize() */\n      calldatasize\n        /* \"proxy/WriteToAnySlot11.sol\":2397:2398  0 */\n      0x00\n        /* \"proxy/WriteToAnySlot11.sol\":2394:2395  0 */\n      dup1\n        /* \"proxy/WriteToAnySlot11.sol\":2381:2415  calldatacopy(0, 0, calldatasize()) */\n      calldatacopy\n        /* \"proxy/WriteToAnySlot11.sol\":2937:2938  0 */\n      0x00\n        /* \"proxy/WriteToAnySlot11.sol\":2934:2935  0 */\n      dup1\n        /* \"proxy/WriteToAnySlot11.sol\":2918:2932  calldatasize() */\n      calldatasize\n        /* \"proxy/WriteToAnySlot11.sol\":2915:2916  0 */\n      0x00\n        /* \"proxy/WriteToAnySlot11.sol\":2898:2913  _implementation */\n      dup5\n        /* \"proxy/WriteToAnySlot11.sol\":2891:2896  gas() */\n      gas\n        /* \"proxy/WriteToAnySlot11.sol\":2878:2939  delegatecall(gas(), _implementation, 0, calldatasize(), 0, 0) */\n      delegatecall\n        /* \"proxy/WriteToAnySlot11.sol\":3177:3193  returndatasize() */\n      returndatasize\n        /* \"proxy/WriteToAnySlot11.sol\":3174:3175  0 */\n      0x00\n        /* \"proxy/WriteToAnySlot11.sol\":3171:3172  0 */\n      dup1\n        /* \"proxy/WriteToAnySlot11.sol\":3156:3194  returndatacopy(0, 0, returndatasize()) */\n      returndatacopy\n        /* \"proxy/WriteToAnySlot11.sol\":3217:3223  result */\n      dup1\n        /* \"proxy/WriteToAnySlot11.sol\":3291:3292  0 */\n      0x00\n        /* \"proxy/WriteToAnySlot11.sol\":3286:3449  case 0 {... */\n      dup2\n      eq\n      tag_62\n      jumpi\n        /* \"proxy/WriteToAnySlot11.sol\":3571:3587  returndatasize() */\n      returndatasize\n        /* \"proxy/WriteToAnySlot11.sol\":3568:3569  0 */\n      0x00\n        /* \"proxy/WriteToAnySlot11.sol\":3560:3588  return (0, returndatasize()) */\n      return\n        /* \"proxy/WriteToAnySlot11.sol\":3286:3449  case 0 {... */\n    tag_62:\n        /* \"proxy/WriteToAnySlot11.sol\":3417:3433  returndatasize() */\n      returndatasize\n        /* \"proxy/WriteToAnySlot11.sol\":3414:3415  0 */\n      0x00\n        /* \"proxy/WriteToAnySlot11.sol\":3407:3434  revert(0, returndatasize()) */\n      revert\n        /* \"proxy/WriteToAnySlot11.sol\":4185:4306  function _getAdmin() private view returns(address) {... */\n    tag_34:\n        /* \"proxy/WriteToAnySlot11.sol\":4227:4234  address */\n      0x00\n        /* \"proxy/WriteToAnySlot11.sol\":4254:4292  StorageSlot.getAddressSlot(ADMIN_SLOT) */\n      tag_64\n        /* \"proxy/WriteToAnySlot11.sol\":1661:1662  1 */\n      0x01\n        /* \"proxy/WriteToAnySlot11.sol\":1625:1657  keccak256(\"eip1967.proxy.admin\") */\n      0xb53127684a568b3173ae13b9f8a6016e243e63b6e8ee1178d6a717850b5d6104\n        /* \"proxy/WriteToAnySlot11.sol\":1620:1658  uint(keccak256(\"eip1967.proxy.admin\")) */\n      0x00\n      shr\n        /* \"proxy/WriteToAnySlot11.sol\":1620:1662  uint(keccak256(\"eip1967.proxy.admin\")) - 1 */\n      tag_65\n      swap2\n      swap1\n      tag_58\n      jump\t// in\n    tag_65:\n        /* \"proxy/WriteToAnySlot11.sol\":1612:1663  bytes32(uint(keccak256(\"eip1967.proxy.admin\")) - 1) */\n      0x00\n      shl\n        /* \"proxy/WriteToAnySlot11.sol\":4254:4280  StorageSlot.getAddressSlot */\n      tag_59\n        /* \"proxy/WriteToAnySlot11.sol\":4254:4292  StorageSlot.getAddressSlot(ADMIN_SLOT) */\n      jump\t// in\n    tag_64:\n        /* \"proxy/WriteToAnySlot11.sol\":4254:4298  StorageSlot.getAddressSlot(ADMIN_SLOT).value */\n      0x00\n      add\n      0x00\n      swap1\n      sload\n      swap1\n      0x0100\n      exp\n      swap1\n      div\n      0xffffffffffffffffffffffffffffffffffffffff\n      and\n        /* \"proxy/WriteToAnySlot11.sol\":4247:4298  return StorageSlot.getAddressSlot(ADMIN_SLOT).value */\n      swap1\n      pop\n        /* \"proxy/WriteToAnySlot11.sol\":4185:4306  function _getAdmin() private view returns(address) {... */\n      swap1\n      jump\t// out\n        /* \"proxy/WriteToAnySlot11.sol\":4645:4865  function _setImplementation(address _implementation) private {... */\n    tag_38:\n        /* \"proxy/WriteToAnySlot11.sol\":4755:4756  0 */\n      0x00\n        /* \"proxy/WriteToAnySlot11.sol\":4725:4740  _implementation */\n      dup2\n        /* \"proxy/WriteToAnySlot11.sol\":4725:4752  _implementation.code.length */\n      0xffffffffffffffffffffffffffffffffffffffff\n      and\n      extcodesize\n        /* \"proxy/WriteToAnySlot11.sol\":4725:4756  _implementation.code.length > 0 */\n      gt\n        /* \"proxy/WriteToAnySlot11.sol\":4717:4775  require(_implementation.code.length > 0, \"not a contract\") */\n      tag_67\n      jumpi\n      mload(0x40)\n      0x08c379a000000000000000000000000000000000000000000000000000000000\n      dup2\n      mstore\n      0x04\n      add\n      tag_68\n      swap1\n      tag_69\n      jump\t// in\n    tag_68:\n      mload(0x40)\n      dup1\n      swap2\n      sub\n      swap1\n      revert\n    tag_67:\n        /* \"proxy/WriteToAnySlot11.sol\":4842:4857  _implementation */\n      dup1\n        /* \"proxy/WriteToAnySlot11.sol\":4786:4833  StorageSlot.getAddressSlot(IMPLEMENTATION_SLOT) */\n      tag_70\n        /* \"proxy/WriteToAnySlot11.sol\":1564:1565  1 */\n      0x01\n        /* \"proxy/WriteToAnySlot11.sol\":1519:1560  keccak256(\"eip1967.proxy.implementation\") */\n      0x360894a13ba1a3210667c828492db98dca3e2076cc3735a920a3ca505d382bbd\n        /* \"proxy/WriteToAnySlot11.sol\":1514:1561  uint(keccak256(\"eip1967.proxy.implementation\")) */\n      0x00\n      shr\n        /* \"proxy/WriteToAnySlot11.sol\":1514:1565  uint(keccak256(\"eip1967.proxy.implementation\")) - 1 */\n      tag_71\n      swap2\n      swap1\n      tag_58\n      jump\t// in\n    tag_71:\n        /* \"proxy/WriteToAnySlot11.sol\":1506:1566  bytes32(uint(keccak256(\"eip1967.proxy.implementation\")) - 1) */\n      0x00\n      shl\n        /* \"proxy/WriteToAnySlot11.sol\":4786:4812  StorageSlot.getAddressSlot */\n      tag_59\n        /* \"proxy/WriteToAnySlot11.sol\":4786:4833  StorageSlot.getAddressSlot(IMPLEMENTATION_SLOT) */\n      jump\t// in\n    tag_70:\n        /* \"proxy/WriteToAnySlot11.sol\":4786:4839  StorageSlot.getAddressSlot(IMPLEMENTATION_SLOT).value */\n      0x00\n      add\n      0x00\n        /* \"proxy/WriteToAnySlot11.sol\":4786:4857  StorageSlot.getAddressSlot(IMPLEMENTATION_SLOT).value = _implementation */\n      0x0100\n      exp\n      dup2\n      sload\n      dup2\n      0xffffffffffffffffffffffffffffffffffffffff\n      mul\n      not\n      and\n      swap1\n      dup4\n      0xffffffffffffffffffffffffffffffffffffffff\n      and\n      mul\n      or\n      swap1\n      sstore\n      pop\n        /* \"proxy/WriteToAnySlot11.sol\":4645:4865  function _setImplementation(address _implementation) private {... */\n      pop\n      jump\t// out\n        /* \"proxy/WriteToAnySlot11.sol\":5168:5319  function getAddressSlot(bytes32 slot) internal pure  returns(AddressSlot storage r) {... */\n    tag_59:\n        /* \"proxy/WriteToAnySlot11.sol\":5229:5250  AddressSlot storage r */\n      0x00\n        /* \"proxy/WriteToAnySlot11.sol\":5297:5301  slot */\n      dup2\n        /* \"proxy/WriteToAnySlot11.sol\":5287:5301  r.slot := slot */\n      swap1\n      pop\n        /* \"proxy/WriteToAnySlot11.sol\":5168:5319  function getAddressSlot(bytes32 slot) internal pure  returns(AddressSlot storage r) {... */\n      swap2\n      swap1\n      pop\n      jump\t// out\n        /* \"#utility.yul\":88:205   */\n    tag_74:\n        /* \"#utility.yul\":197:198   */\n      0x00\n        /* \"#utility.yul\":194:195   */\n      dup1\n        /* \"#utility.yul\":187:199   */\n      revert\n        /* \"#utility.yul\":334:460   */\n    tag_76:\n        /* \"#utility.yul\":371:378   */\n      0x00\n        /* \"#utility.yul\":411:453   */\n      0xffffffffffffffffffffffffffffffffffffffff\n        /* \"#utility.yul\":404:409   */\n      dup3\n        /* \"#utility.yul\":400:454   */\n      and\n        /* \"#utility.yul\":389:454   */\n      swap1\n      pop\n        /* \"#utility.yul\":334:460   */\n      swap2\n      swap1\n      pop\n      jump\t// out\n        /* \"#utility.yul\":466:562   */\n    tag_77:\n        /* \"#utility.yul\":503:510   */\n      0x00\n        /* \"#utility.yul\":532:556   */\n      tag_92\n        /* \"#utility.yul\":550:555   */\n      dup3\n        /* \"#utility.yul\":532:556   */\n      tag_76\n      jump\t// in\n    tag_92:\n        /* \"#utility.yul\":521:556   */\n      swap1\n      pop\n        /* \"#utility.yul\":466:562   */\n      swap2\n      swap1\n      pop\n      jump\t// out\n        /* \"#utility.yul\":568:690   */\n    tag_78:\n        /* \"#utility.yul\":641:665   */\n      tag_94\n        /* \"#utility.yul\":659:664   */\n      dup2\n        /* \"#utility.yul\":641:665   */\n      tag_77\n      jump\t// in\n    tag_94:\n        /* \"#utility.yul\":634:639   */\n      dup2\n        /* \"#utility.yul\":631:666   */\n      eq\n        /* \"#utility.yul\":621:684   */\n      tag_95\n      jumpi\n        /* \"#utility.yul\":680:681   */\n      0x00\n        /* \"#utility.yul\":677:678   */\n      dup1\n        /* \"#utility.yul\":670:682   */\n      revert\n        /* \"#utility.yul\":621:684   */\n    tag_95:\n        /* \"#utility.yul\":568:690   */\n      pop\n      jump\t// out\n        /* \"#utility.yul\":696:835   */\n    tag_79:\n        /* \"#utility.yul\":742:747   */\n      0x00\n        /* \"#utility.yul\":780:786   */\n      dup2\n        /* \"#utility.yul\":767:787   */\n      calldataload\n        /* \"#utility.yul\":758:787   */\n      swap1\n      pop\n        /* \"#utility.yul\":796:829   */\n      tag_97\n        /* \"#utility.yul\":823:828   */\n      dup2\n        /* \"#utility.yul\":796:829   */\n      tag_78\n      jump\t// in\n    tag_97:\n        /* \"#utility.yul\":696:835   */\n      swap3\n      swap2\n      pop\n      pop\n      jump\t// out\n        /* \"#utility.yul\":841:1170   */\n    tag_16:\n        /* \"#utility.yul\":900:906   */\n      0x00\n        /* \"#utility.yul\":949:951   */\n      0x20\n        /* \"#utility.yul\":937:946   */\n      dup3\n        /* \"#utility.yul\":928:935   */\n      dup5\n        /* \"#utility.yul\":924:947   */\n      sub\n        /* \"#utility.yul\":920:952   */\n      slt\n        /* \"#utility.yul\":917:1036   */\n      iszero\n      tag_99\n      jumpi\n        /* \"#utility.yul\":955:1034   */\n      tag_100\n      tag_74\n      jump\t// in\n    tag_100:\n        /* \"#utility.yul\":917:1036   */\n    tag_99:\n        /* \"#utility.yul\":1075:1076   */\n      0x00\n        /* \"#utility.yul\":1100:1153   */\n      tag_101\n        /* \"#utility.yul\":1145:1152   */\n      dup5\n        /* \"#utility.yul\":1136:1142   */\n      dup3\n        /* \"#utility.yul\":1125:1134   */\n      dup6\n        /* \"#utility.yul\":1121:1143   */\n      add\n        /* \"#utility.yul\":1100:1153   */\n      tag_79\n      jump\t// in\n    tag_101:\n        /* \"#utility.yul\":1090:1153   */\n      swap2\n      pop\n        /* \"#utility.yul\":1046:1163   */\n      pop\n        /* \"#utility.yul\":841:1170   */\n      swap3\n      swap2\n      pop\n      pop\n      jump\t// out\n        /* \"#utility.yul\":1176:1294   */\n    tag_80:\n        /* \"#utility.yul\":1263:1287   */\n      tag_103\n        /* \"#utility.yul\":1281:1286   */\n      dup2\n        /* \"#utility.yul\":1263:1287   */\n      tag_77\n      jump\t// in\n    tag_103:\n        /* \"#utility.yul\":1258:1261   */\n      dup3\n        /* \"#utility.yul\":1251:1288   */\n      mstore\n        /* \"#utility.yul\":1176:1294   */\n      pop\n      pop\n      jump\t// out\n        /* \"#utility.yul\":1300:1522   */\n    tag_22:\n        /* \"#utility.yul\":1393:1397   */\n      0x00\n        /* \"#utility.yul\":1431:1433   */\n      0x20\n        /* \"#utility.yul\":1420:1429   */\n      dup3\n        /* \"#utility.yul\":1416:1434   */\n      add\n        /* \"#utility.yul\":1408:1434   */\n      swap1\n      pop\n        /* \"#utility.yul\":1444:1515   */\n      tag_105\n        /* \"#utility.yul\":1512:1513   */\n      0x00\n        /* \"#utility.yul\":1501:1510   */\n      dup4\n        /* \"#utility.yul\":1497:1514   */\n      add\n        /* \"#utility.yul\":1488:1494   */\n      dup5\n        /* \"#utility.yul\":1444:1515   */\n      tag_80\n      jump\t// in\n    tag_105:\n        /* \"#utility.yul\":1300:1522   */\n      swap3\n      swap2\n      pop\n      pop\n      jump\t// out\n        /* \"#utility.yul\":1528:1605   */\n    tag_81:\n        /* \"#utility.yul\":1565:1572   */\n      0x00\n        /* \"#utility.yul\":1594:1599   */\n      dup2\n        /* \"#utility.yul\":1583:1599   */\n      swap1\n      pop\n        /* \"#utility.yul\":1528:1605   */\n      swap2\n      swap1\n      pop\n      jump\t// out\n        /* \"#utility.yul\":1611:1791   */\n    tag_82:\n        /* \"#utility.yul\":1659:1736   */\n      0x4e487b7100000000000000000000000000000000000000000000000000000000\n        /* \"#utility.yul\":1656:1657   */\n      0x00\n        /* \"#utility.yul\":1649:1737   */\n      mstore\n        /* \"#utility.yul\":1756:1760   */\n      0x11\n        /* \"#utility.yul\":1753:1754   */\n      0x04\n        /* \"#utility.yul\":1746:1761   */\n      mstore\n        /* \"#utility.yul\":1780:1784   */\n      0x24\n        /* \"#utility.yul\":1777:1778   */\n      0x00\n        /* \"#utility.yul\":1770:1785   */\n      revert\n        /* \"#utility.yul\":1797:1991   */\n    tag_58:\n        /* \"#utility.yul\":1837:1841   */\n      0x00\n        /* \"#utility.yul\":1857:1877   */\n      tag_109\n        /* \"#utility.yul\":1875:1876   */\n      dup3\n        /* \"#utility.yul\":1857:1877   */\n      tag_81\n      jump\t// in\n    tag_109:\n        /* \"#utility.yul\":1852:1877   */\n      swap2\n      pop\n        /* \"#utility.yul\":1891:1911   */\n      tag_110\n        /* \"#utility.yul\":1909:1910   */\n      dup4\n        /* \"#utility.yul\":1891:1911   */\n      tag_81\n      jump\t// in\n    tag_110:\n        /* \"#utility.yul\":1886:1911   */\n      swap3\n      pop\n        /* \"#utility.yul\":1935:1936   */\n      dup3\n        /* \"#utility.yul\":1932:1933   */\n      dup3\n        /* \"#utility.yul\":1928:1937   */\n      sub\n        /* \"#utility.yul\":1920:1937   */\n      swap1\n      pop\n        /* \"#utility.yul\":1959:1960   */\n      dup2\n        /* \"#utility.yul\":1953:1957   */\n      dup2\n        /* \"#utility.yul\":1950:1961   */\n      gt\n        /* \"#utility.yul\":1947:1984   */\n      iszero\n      tag_111\n      jumpi\n        /* \"#utility.yul\":1964:1982   */\n      tag_112\n      tag_82\n      jump\t// in\n    tag_112:\n        /* \"#utility.yul\":1947:1984   */\n    tag_111:\n        /* \"#utility.yul\":1797:1991   */\n      swap3\n      swap2\n      pop\n      pop\n      jump\t// out\n        /* \"#utility.yul\":1997:2166   */\n    tag_83:\n        /* \"#utility.yul\":2081:2092   */\n      0x00\n        /* \"#utility.yul\":2115:2121   */\n      dup3\n        /* \"#utility.yul\":2110:2113   */\n      dup3\n        /* \"#utility.yul\":2103:2122   */\n      mstore\n        /* \"#utility.yul\":2155:2159   */\n      0x20\n        /* \"#utility.yul\":2150:2153   */\n      dup3\n        /* \"#utility.yul\":2146:2160   */\n      add\n        /* \"#utility.yul\":2131:2160   */\n      swap1\n      pop\n        /* \"#utility.yul\":1997:2166   */\n      swap3\n      swap2\n      pop\n      pop\n      jump\t// out\n        /* \"#utility.yul\":2172:2336   */\n    tag_84:\n        /* \"#utility.yul\":2312:2328   */\n      0x6e6f74206120636f6e7472616374000000000000000000000000000000000000\n        /* \"#utility.yul\":2308:2309   */\n      0x00\n        /* \"#utility.yul\":2300:2306   */\n      dup3\n        /* \"#utility.yul\":2296:2310   */\n      add\n        /* \"#utility.yul\":2289:2329   */\n      mstore\n        /* \"#utility.yul\":2172:2336   */\n      pop\n      jump\t// out\n        /* \"#utility.yul\":2342:2708   */\n    tag_85:\n        /* \"#utility.yul\":2484:2487   */\n      0x00\n        /* \"#utility.yul\":2505:2572   */\n      tag_116\n        /* \"#utility.yul\":2569:2571   */\n      0x0e\n        /* \"#utility.yul\":2564:2567   */\n      dup4\n        /* \"#utility.yul\":2505:2572   */\n      tag_83\n      jump\t// in\n    tag_116:\n        /* \"#utility.yul\":2498:2572   */\n      swap2\n      pop\n        /* \"#utility.yul\":2581:2674   */\n      tag_117\n        /* \"#utility.yul\":2670:2673   */\n      dup3\n        /* \"#utility.yul\":2581:2674   */\n      tag_84\n      jump\t// in\n    tag_117:\n        /* \"#utility.yul\":2699:2701   */\n      0x20\n        /* \"#utility.yul\":2694:2697   */\n      dup3\n        /* \"#utility.yul\":2690:2702   */\n      add\n        /* \"#utility.yul\":2683:2702   */\n      swap1\n      pop\n        /* \"#utility.yul\":2342:2708   */\n      swap2\n      swap1\n      pop\n      jump\t// out\n        /* \"#utility.yul\":2714:3133   */\n    tag_69:\n        /* \"#utility.yul\":2880:2884   */\n      0x00\n        /* \"#utility.yul\":2918:2920   */\n      0x20\n        /* \"#utility.yul\":2907:2916   */\n      dup3\n        /* \"#utility.yul\":2903:2921   */\n      add\n        /* \"#utility.yul\":2895:2921   */\n      swap1\n      pop\n        /* \"#utility.yul\":2967:2976   */\n      dup2\n        /* \"#utility.yul\":2961:2965   */\n      dup2\n        /* \"#utility.yul\":2957:2977   */\n      sub\n        /* \"#utility.yul\":2953:2954   */\n      0x00\n        /* \"#utility.yul\":2942:2951   */\n      dup4\n        /* \"#utility.yul\":2938:2955   */\n      add\n        /* \"#utility.yul\":2931:2978   */\n      mstore\n        /* \"#utility.yul\":2995:3126   */\n      tag_119\n        /* \"#utility.yul\":3121:3125   */\n      dup2\n        /* \"#utility.yul\":2995:3126   */\n      tag_85\n      jump\t// in\n    tag_119:\n        /* \"#utility.yul\":2987:3126   */\n      swap1\n      pop\n        /* \"#utility.yul\":2714:3133   */\n      swap2\n      swap1\n      pop\n      jump\t// out\n\n    auxdata: 0xa264697066735822122067883c4b9792e676f1a4643e199bdf41772633db70bed34a8499b7b22882118964736f6c63430008180033\n}\n",
				"bytecode": {
					"linkReferences": {},
					"object": "608060405234801561000f575f80fd5b5061001f3361002460201b60201c565b6101fe565b5f73ffffffffffffffffffffffffffffffffffffffff168173ffffffffffffffffffffffffffffffffffffffff1603610092576040517f08c379a000000000000000000000000000000000000000000000000000000000815260040161008990610177565b60405180910390fd5b806100d260017fb53127684a568b3173ae13b9f8a6016e243e63b6e8ee1178d6a717850b5d61045f1c6100c591906101cb565b5f1b61011460201b60201c565b5f015f6101000a81548173ffffffffffffffffffffffffffffffffffffffff021916908373ffffffffffffffffffffffffffffffffffffffff16021790555050565b5f819050919050565b5f82825260208201905092915050565b7f61646d696e203d206164647265737320300000000000000000000000000000005f82015250565b5f61016160118361011d565b915061016c8261012d565b602082019050919050565b5f6020820190508181035f83015261018e81610155565b9050919050565b5f819050919050565b7f4e487b71000000000000000000000000000000000000000000000000000000005f52601160045260245ffd5b5f6101d582610195565b91506101e083610195565b92508282039050818111156101f8576101f761019e565b5b92915050565b6105658061020b5f395ff3fe608060405260043610610037575f3560e01c80633659cfe6146100505780635c60da1b14610078578063f851a440146100a257610046565b36610046576100446100cc565b005b61004e6100cc565b005b34801561005b575f80fd5b50610076600480360381019061007191906103fb565b6100de565b005b348015610083575f80fd5b5061008c610132565b6040516100999190610435565b60405180910390f35b3480156100ad575f80fd5b506100b6610188565b6040516100c39190610435565b60405180910390f35b6100dc6100d76101de565b61023f565b565b6100e661025e565b73ffffffffffffffffffffffffffffffffffffffff163373ffffffffffffffffffffffffffffffffffffffff160361012657610121816102bf565b61012f565b61012e6100cc565b5b50565b5f61013b61025e565b73ffffffffffffffffffffffffffffffffffffffff163373ffffffffffffffffffffffffffffffffffffffff160361017c576101756101de565b9050610185565b6101846100cc565b5b90565b5f61019161025e565b73ffffffffffffffffffffffffffffffffffffffff163373ffffffffffffffffffffffffffffffffffffffff16036101d2576101cb61025e565b90506101db565b6101da6100cc565b5b90565b5f61021860017f360894a13ba1a3210667c828492db98dca3e2076cc3735a920a3ca505d382bbd5f1c6102119190610484565b5f1b610394565b5f015f9054906101000a900473ffffffffffffffffffffffffffffffffffffffff16905090565b365f80375f80365f845af43d5f803e805f811461025a573d5ff35b3d5ffd5b5f61029860017fb53127684a568b3173ae13b9f8a6016e243e63b6e8ee1178d6a717850b5d61045f1c6102919190610484565b5f1b610394565b5f015f9054906101000a900473ffffffffffffffffffffffffffffffffffffffff16905090565b5f8173ffffffffffffffffffffffffffffffffffffffff163b11610318576040517f08c379a000000000000000000000000000000000000000000000000000000000815260040161030f90610511565b60405180910390fd5b8061035260017f360894a13ba1a3210667c828492db98dca3e2076cc3735a920a3ca505d382bbd5f1c61034b9190610484565b5f1b610394565b5f015f6101000a81548173ffffffffffffffffffffffffffffffffffffffff021916908373ffffffffffffffffffffffffffffffffffffffff16021790555050565b5f819050919050565b5f80fd5b5f73ffffffffffffffffffffffffffffffffffffffff82169050919050565b5f6103ca826103a1565b9050919050565b6103da816103c0565b81146103e4575f80fd5b50565b5f813590506103f5816103d1565b92915050565b5f602082840312156104105761040f61039d565b5b5f61041d848285016103e7565b91505092915050565b61042f816103c0565b82525050565b5f6020820190506104485f830184610426565b92915050565b5f819050919050565b7f4e487b71000000000000000000000000000000000000000000000000000000005f52601160045260245ffd5b5f61048e8261044e565b91506104998361044e565b92508282039050818111156104b1576104b0610457565b5b92915050565b5f82825260208201905092915050565b7f6e6f74206120636f6e74726163740000000000000000000000000000000000005f82015250565b5f6104fb600e836104b7565b9150610506826104c7565b602082019050919050565b5f6020820190508181035f830152610528816104ef565b905091905056fea264697066735822122067883c4b9792e676f1a4643e199bdf41772633db70bed34a8499b7b22882118964736f6c63430008180033",
					"opcodes": "PUSH1 0x80 PUSH1 0x40 MSTORE CALLVALUE DUP1 ISZERO PUSH2 0xF JUMPI PUSH0 DUP1 REVERT JUMPDEST POP PUSH2 0x1F CALLER PUSH2 0x24 PUSH1 0x20 SHL PUSH1 0x20 SHR JUMP JUMPDEST PUSH2 0x1FE JUMP JUMPDEST PUSH0 PUSH20 0xFFFFFFFFFFFFFFFFFFFFFFFFFFFFFFFFFFFFFFFF AND DUP2 PUSH20 0xFFFFFFFFFFFFFFFFFFFFFFFFFFFFFFFFFFFFFFFF AND SUB PUSH2 0x92 JUMPI PUSH1 0x40 MLOAD PUSH32 0x8C379A000000000000000000000000000000000000000000000000000000000 DUP2 MSTORE PUSH1 0x4 ADD PUSH2 0x89 SWAP1 PUSH2 0x177 JUMP JUMPDEST PUSH1 0x40 MLOAD DUP1 SWAP2 SUB SWAP1 REVERT JUMPDEST DUP1 PUSH2 0xD2 PUSH1 0x1 PUSH32 0xB53127684A568B3173AE13B9F8A6016E243E63B6E8EE1178D6A717850B5D6104 PUSH0 SHR PUSH2 0xC5 SWAP2 SWAP1 PUSH2 0x1CB JUMP JUMPDEST PUSH0 SHL PUSH2 0x114 PUSH1 0x20 SHL PUSH1 0x20 SHR JUMP JUMPDEST PUSH0 ADD PUSH0 PUSH2 0x100 EXP DUP2 SLOAD DUP2 PUSH20 0xFFFFFFFFFFFFFFFFFFFFFFFFFFFFFFFFFFFFFFFF MUL NOT AND SWAP1 DUP4 PUSH20 0xFFFFFFFFFFFFFFFFFFFFFFFFFFFFFFFFFFFFFFFF AND MUL OR SWAP1 SSTORE POP POP JUMP JUMPDEST PUSH0 DUP2 SWAP1 POP SWAP2 SWAP1 POP JUMP JUMPDEST PUSH0 DUP3 DUP3 MSTORE PUSH1 0x20 DUP3 ADD SWAP1 POP SWAP3 SWAP2 POP POP JUMP JUMPDEST PUSH32 0x61646D696E203D20616464726573732030000000000000000000000000000000 PUSH0 DUP3 ADD MSTORE POP JUMP JUMPDEST PUSH0 PUSH2 0x161 PUSH1 0x11 DUP4 PUSH2 0x11D JUMP JUMPDEST SWAP2 POP PUSH2 0x16C DUP3 PUSH2 0x12D JUMP JUMPDEST PUSH1 0x20 DUP3 ADD SWAP1 POP SWAP2 SWAP1 POP JUMP JUMPDEST PUSH0 PUSH1 0x20 DUP3 ADD SWAP1 POP DUP2 DUP2 SUB PUSH0 DUP4 ADD MSTORE PUSH2 0x18E DUP2 PUSH2 0x155 JUMP JUMPDEST SWAP1 POP SWAP2 SWAP1 POP JUMP JUMPDEST PUSH0 DUP2 SWAP1 POP SWAP2 SWAP1 POP JUMP JUMPDEST PUSH32 0x4E487B7100000000000000000000000000000000000000000000000000000000 PUSH0 MSTORE PUSH1 0x11 PUSH1 0x4 MSTORE PUSH1 0x24 PUSH0 REVERT JUMPDEST PUSH0 PUSH2 0x1D5 DUP3 PUSH2 0x195 JUMP JUMPDEST SWAP2 POP PUSH2 0x1E0 DUP4 PUSH2 0x195 JUMP JUMPDEST SWAP3 POP DUP3 DUP3 SUB SWAP1 POP DUP2 DUP2 GT ISZERO PUSH2 0x1F8 JUMPI PUSH2 0x1F7 PUSH2 0x19E JUMP JUMPDEST JUMPDEST SWAP3 SWAP2 POP POP JUMP JUMPDEST PUSH2 0x565 DUP1 PUSH2 0x20B PUSH0 CODECOPY PUSH0 RETURN INVALID PUSH1 0x80 PUSH1 0x40 MSTORE PUSH1 0x4 CALLDATASIZE LT PUSH2 0x37 JUMPI PUSH0 CALLDATALOAD PUSH1 0xE0 SHR DUP1 PUSH4 0x3659CFE6 EQ PUSH2 0x50 JUMPI DUP1 PUSH4 0x5C60DA1B EQ PUSH2 0x78 JUMPI DUP1 PUSH4 0xF851A440 EQ PUSH2 0xA2 JUMPI PUSH2 0x46 JUMP JUMPDEST CALLDATASIZE PUSH2 0x46 JUMPI PUSH2 0x44 PUSH2 0xCC JUMP JUMPDEST STOP JUMPDEST PUSH2 0x4E PUSH2 0xCC JUMP JUMPDEST STOP JUMPDEST CALLVALUE DUP1 ISZERO PUSH2 0x5B JUMPI PUSH0 DUP1 REVERT JUMPDEST POP PUSH2 0x76 PUSH1 0x4 DUP1 CALLDATASIZE SUB DUP2 ADD SWAP1 PUSH2 0x71 SWAP2 SWAP1 PUSH2 0x3FB JUMP JUMPDEST PUSH2 0xDE JUMP JUMPDEST STOP JUMPDEST CALLVALUE DUP1 ISZERO PUSH2 0x83 JUMPI PUSH0 DUP1 REVERT JUMPDEST POP PUSH2 0x8C PUSH2 0x132 JUMP JUMPDEST PUSH1 0x40 MLOAD PUSH2 0x99 SWAP2 SWAP1 PUSH2 0x435 JUMP JUMPDEST PUSH1 0x40 MLOAD DUP1 SWAP2 SUB SWAP1 RETURN JUMPDEST CALLVALUE DUP1 ISZERO PUSH2 0xAD JUMPI PUSH0 DUP1 REVERT JUMPDEST POP PUSH2 0xB6 PUSH2 0x188 JUMP JUMPDEST PUSH1 0x40 MLOAD PUSH2 0xC3 SWAP2 SWAP1 PUSH2 0x435 JUMP JUMPDEST PUSH1 0x40 MLOAD DUP1 SWAP2 SUB SWAP1 RETURN JUMPDEST PUSH2 0xDC PUSH2 0xD7 PUSH2 0x1DE JUMP JUMPDEST PUSH2 0x23F JUMP JUMPDEST JUMP JUMPDEST PUSH2 0xE6 PUSH2 0x25E JUMP JUMPDEST PUSH20 0xFFFFFFFFFFFFFFFFFFFFFFFFFFFFFFFFFFFFFFFF AND CALLER PUSH20 0xFFFFFFFFFFFFFFFFFFFFFFFFFFFFFFFFFFFFFFFF AND SUB PUSH2 0x126 JUMPI PUSH2 0x121 DUP2 PUSH2 0x2BF JUMP JUMPDEST PUSH2 0x12F JUMP JUMPDEST PUSH2 0x12E PUSH2 0xCC JUMP JUMPDEST JUMPDEST POP JUMP JUMPDEST PUSH0 PUSH2 0x13B PUSH2 0x25E JUMP JUMPDEST PUSH20 0xFFFFFFFFFFFFFFFFFFFFFFFFFFFFFFFFFFFFFFFF AND CALLER PUSH20 0xFFFFFFFFFFFFFFFFFFFFFFFFFFFFFFFFFFFFFFFF AND SUB PUSH2 0x17C JUMPI PUSH2 0x175 PUSH2 0x1DE JUMP JUMPDEST SWAP1 POP PUSH2 0x185 JUMP JUMPDEST PUSH2 0x184 PUSH2 0xCC JUMP JUMPDEST JUMPDEST SWAP1 JUMP JUMPDEST PUSH0 PUSH2 0x191 PUSH2 0x25E JUMP JUMPDEST PUSH20 0xFFFFFFFFFFFFFFFFFFFFFFFFFFFFFFFFFFFFFFFF AND CALLER PUSH20 0xFFFFFFFFFFFFFFFFFFFFFFFFFFFFFFFFFFFFFFFF AND SUB PUSH2 0x1D2 JUMPI PUSH2 0x1CB PUSH2 0x25E JUMP JUMPDEST SWAP1 POP PUSH2 0x1DB JUMP JUMPDEST PUSH2 0x1DA PUSH2 0xCC JUMP JUMPDEST JUMPDEST SWAP1 JUMP JUMPDEST PUSH0 PUSH2 0x218 PUSH1 0x1 PUSH32 0x360894A13BA1A3210667C828492DB98DCA3E2076CC3735A920A3CA505D382BBD PUSH0 SHR PUSH2 0x211 SWAP2 SWAP1 PUSH2 0x484 JUMP JUMPDEST PUSH0 SHL PUSH2 0x394 JUMP JUMPDEST PUSH0 ADD PUSH0 SWAP1 SLOAD SWAP1 PUSH2 0x100 EXP SWAP1 DIV PUSH20 0xFFFFFFFFFFFFFFFFFFFFFFFFFFFFFFFFFFFFFFFF AND SWAP1 POP SWAP1 JUMP JUMPDEST CALLDATASIZE PUSH0 DUP1 CALLDATACOPY PUSH0 DUP1 CALLDATASIZE PUSH0 DUP5 GAS DELEGATECALL RETURNDATASIZE PUSH0 DUP1 RETURNDATACOPY DUP1 PUSH0 DUP2 EQ PUSH2 0x25A JUMPI RETURNDATASIZE PUSH0 RETURN JUMPDEST RETURNDATASIZE PUSH0 REVERT JUMPDEST PUSH0 PUSH2 0x298 PUSH1 0x1 PUSH32 0xB53127684A568B3173AE13B9F8A6016E243E63B6E8EE1178D6A717850B5D6104 PUSH0 SHR PUSH2 0x291 SWAP2 SWAP1 PUSH2 0x484 JUMP JUMPDEST PUSH0 SHL PUSH2 0x394 JUMP JUMPDEST PUSH0 ADD PUSH0 SWAP1 SLOAD SWAP1 PUSH2 0x100 EXP SWAP1 DIV PUSH20 0xFFFFFFFFFFFFFFFFFFFFFFFFFFFFFFFFFFFFFFFF AND SWAP1 POP SWAP1 JUMP JUMPDEST PUSH0 DUP2 PUSH20 0xFFFFFFFFFFFFFFFFFFFFFFFFFFFFFFFFFFFFFFFF AND EXTCODESIZE GT PUSH2 0x318 JUMPI PUSH1 0x40 MLOAD PUSH32 0x8C379A000000000000000000000000000000000000000000000000000000000 DUP2 MSTORE PUSH1 0x4 ADD PUSH2 0x30F SWAP1 PUSH2 0x511 JUMP JUMPDEST PUSH1 0x40 MLOAD DUP1 SWAP2 SUB SWAP1 REVERT JUMPDEST DUP1 PUSH2 0x352 PUSH1 0x1 PUSH32 0x360894A13BA1A3210667C828492DB98DCA3E2076CC3735A920A3CA505D382BBD PUSH0 SHR PUSH2 0x34B SWAP2 SWAP1 PUSH2 0x484 JUMP JUMPDEST PUSH0 SHL PUSH2 0x394 JUMP JUMPDEST PUSH0 ADD PUSH0 PUSH2 0x100 EXP DUP2 SLOAD DUP2 PUSH20 0xFFFFFFFFFFFFFFFFFFFFFFFFFFFFFFFFFFFFFFFF MUL NOT AND SWAP1 DUP4 PUSH20 0xFFFFFFFFFFFFFFFFFFFFFFFFFFFFFFFFFFFFFFFF AND MUL OR SWAP1 SSTORE POP POP JUMP JUMPDEST PUSH0 DUP2 SWAP1 POP SWAP2 SWAP1 POP JUMP JUMPDEST PUSH0 DUP1 REVERT JUMPDEST PUSH0 PUSH20 0xFFFFFFFFFFFFFFFFFFFFFFFFFFFFFFFFFFFFFFFF DUP3 AND SWAP1 POP SWAP2 SWAP1 POP JUMP JUMPDEST PUSH0 PUSH2 0x3CA DUP3 PUSH2 0x3A1 JUMP JUMPDEST SWAP1 POP SWAP2 SWAP1 POP JUMP JUMPDEST PUSH2 0x3DA DUP2 PUSH2 0x3C0 JUMP JUMPDEST DUP2 EQ PUSH2 0x3E4 JUMPI PUSH0 DUP1 REVERT JUMPDEST POP JUMP JUMPDEST PUSH0 DUP2 CALLDATALOAD SWAP1 POP PUSH2 0x3F5 DUP2 PUSH2 0x3D1 JUMP JUMPDEST SWAP3 SWAP2 POP POP JUMP JUMPDEST PUSH0 PUSH1 0x20 DUP3 DUP5 SUB SLT ISZERO PUSH2 0x410 JUMPI PUSH2 0x40F PUSH2 0x39D JUMP JUMPDEST JUMPDEST PUSH0 PUSH2 0x41D DUP5 DUP3 DUP6 ADD PUSH2 0x3E7 JUMP JUMPDEST SWAP2 POP POP SWAP3 SWAP2 POP POP JUMP JUMPDEST PUSH2 0x42F DUP2 PUSH2 0x3C0 JUMP JUMPDEST DUP3 MSTORE POP POP JUMP JUMPDEST PUSH0 PUSH1 0x20 DUP3 ADD SWAP1 POP PUSH2 0x448 PUSH0 DUP4 ADD DUP5 PUSH2 0x426 JUMP JUMPDEST SWAP3 SWAP2 POP POP JUMP JUMPDEST PUSH0 DUP2 SWAP1 POP SWAP2 SWAP1 POP JUMP JUMPDEST PUSH32 0x4E487B7100000000000000000000000000000000000000000000000000000000 PUSH0 MSTORE PUSH1 0x11 PUSH1 0x4 MSTORE PUSH1 0x24 PUSH0 REVERT JUMPDEST PUSH0 PUSH2 0x48E DUP3 PUSH2 0x44E JUMP JUMPDEST SWAP2 POP PUSH2 0x499 DUP4 PUSH2 0x44E JUMP JUMPDEST SWAP3 POP DUP3 DUP3 SUB SWAP1 POP DUP2 DUP2 GT ISZERO PUSH2 0x4B1 JUMPI PUSH2 0x4B0 PUSH2 0x457 JUMP JUMPDEST JUMPDEST SWAP3 SWAP2 POP POP JUMP JUMPDEST PUSH0 DUP3 DUP3 MSTORE PUSH1 0x20 DUP3 ADD SWAP1 POP SWAP3 SWAP2 POP POP JUMP JUMPDEST PUSH32 0x6E6F74206120636F6E7472616374000000000000000000000000000000000000 PUSH0 DUP3 ADD MSTORE POP JUMP JUMPDEST PUSH0 PUSH2 0x4FB PUSH1 0xE DUP4 PUSH2 0x4B7 JUMP JUMPDEST SWAP2 POP PUSH2 0x506 DUP3 PUSH2 0x4C7 JUMP JUMPDEST PUSH1 0x20 DUP3 ADD SWAP1 POP SWAP2 SWAP1 POP JUMP JUMPDEST PUSH0 PUSH1 0x20 DUP3 ADD SWAP1 POP DUP2 DUP2 SUB PUSH0 DUP4 ADD MSTORE PUSH2 0x528 DUP2 PUSH2 0x4EF JUMP JUMPDEST SWAP1 POP SWAP2 SWAP1 POP JUMP INVALID LOG2 PUSH5 0x6970667358 0x22 SLT KECCAK256 PUSH8 0x883C4B9792E676F1 LOG4 PUSH5 0x3E199BDF41 PUSH24 0x2633DB70BED34A8499B7B22882118964736F6C6343000818 STOP CALLER "
				},
				"gasEstimates": {
					"creation": {
						"codeDepositCost": "276200",
						"executionCost": "infinite",
						"totalCost": "infinite"
					},
					"external": {
						"": "infinite",
						"admin()": "infinite",
						"implementation()": "infinite",
						"upgradeTo(address)": "infinite"
					},
					"internal": {
						"_delegate(address)": "infinite",
						"_fallback()": "infinite",
						"_getAdmin()": "infinite",
						"_getImplementation()": "infinite",
						"_setAdmin(address)": "infinite",
						"_setImplementation(address)": "infinite"
					}
				},
				"methodIdentifiers": {
					"admin()": "f851a440",
					"implementation()": "5c60da1b",
					"upgradeTo(address)": "3659cfe6"
				}
			},
			"storageLayout": {
				"storage": [],
				"types": null
			},
			"userdoc": {
				"kind": "user",
				"methods": {},
				"version": 1
			}
		}
	}
}