{
	"tests/MultiCall.sol": {
		"MultiCall": {
			"abi": [
				{
					"inputs": [
						{
							"internalType": "address[]",
							"name": "targets",
							"type": "address[]"
						},
						{
							"internalType": "bytes[]",
							"name": "data",
							"type": "bytes[]"
						}
					],
					"name": "multiCall",
					"outputs": [
						{
							"internalType": "bytes[]",
							"name": "",
							"type": "bytes[]"
						}
					],
					"stateMutability": "view",
					"type": "function"
				}
			],
			"devdoc": {
				"kind": "dev",
				"methods": {},
				"version": 1
			},
			"evm": {
				"assembly": "    /* \"tests/MultiCall.sol\":723:1259  contract MultiCall {... */\n  mstore(0x40, 0x80)\n  callvalue\n  dup1\n  iszero\n  tag_1\n  jumpi\n  0x00\n  dup1\n  revert\ntag_1:\n  pop\n  dataSize(sub_0)\n  dup1\n  dataOffset(sub_0)\n  0x00\n  codecopy\n  0x00\n  return\nstop\n\nsub_0: assembly {\n        /* \"tests/MultiCall.sol\":723:1259  contract MultiCall {... */\n      mstore(0x40, 0x80)\n      callvalue\n      dup1\n      iszero\n      tag_1\n      jumpi\n      0x00\n      dup1\n      revert\n    tag_1:\n      pop\n      jumpi(tag_2, lt(calldatasize, 0x04))\n      shr(0xe0, calldataload(0x00))\n      dup1\n      0xda5b4ffd\n      eq\n      tag_3\n      jumpi\n    tag_2:\n      0x00\n      dup1\n      revert\n        /* \"tests/MultiCall.sol\":749:1256  function multiCall(address[] calldata targets, bytes[] calldata data) external view returns(bytes[] memory) {... */\n    tag_3:\n      tag_4\n      0x04\n      dup1\n      calldatasize\n      sub\n      dup2\n      add\n      swap1\n      tag_5\n      swap2\n      swap1\n      tag_6\n      jump\t// in\n    tag_5:\n      tag_7\n      jump\t// in\n    tag_4:\n      mload(0x40)\n      tag_8\n      swap2\n      swap1\n      tag_9\n      jump\t// in\n    tag_8:\n      mload(0x40)\n      dup1\n      swap2\n      sub\n      swap1\n      return\n    tag_7:\n        /* \"tests/MultiCall.sol\":841:855  bytes[] memory */\n      0x60\n        /* \"tests/MultiCall.sol\":894:898  data */\n      dup3\n      dup3\n        /* \"tests/MultiCall.sol\":894:905  data.length */\n      swap1\n      pop\n        /* \"tests/MultiCall.sol\":876:883  targets */\n      dup6\n      dup6\n        /* \"tests/MultiCall.sol\":876:890  targets.length */\n      swap1\n      pop\n        /* \"tests/MultiCall.sol\":876:905  targets.length == data.length */\n      eq\n        /* \"tests/MultiCall.sol\":868:938  require(targets.length == data.length, \"target length != data length\") */\n      tag_11\n      jumpi\n      mload(0x40)\n      0x08c379a000000000000000000000000000000000000000000000000000000000\n      dup2\n      mstore\n      0x04\n      add\n      tag_12\n      swap1\n      tag_13\n      jump\t// in\n    tag_12:\n      mload(0x40)\n      dup1\n      swap2\n      sub\n      swap1\n      revert\n    tag_11:\n        /* \"tests/MultiCall.sol\":949:971  bytes[] memory results */\n      0x00\n        /* \"tests/MultiCall.sol\":986:990  data */\n      dup4\n      dup4\n        /* \"tests/MultiCall.sol\":986:997  data.length */\n      swap1\n      pop\n        /* \"tests/MultiCall.sol\":974:998  new bytes[](data.length) */\n      0xffffffffffffffff\n      dup2\n      gt\n      iszero\n      tag_14\n      jumpi\n      tag_15\n      tag_16\n      jump\t// in\n    tag_15:\n    tag_14:\n      mload(0x40)\n      swap1\n      dup1\n      dup3\n      mstore\n      dup1\n      0x20\n      mul\n      0x20\n      add\n      dup3\n      add\n      0x40\n      mstore\n      dup1\n      iszero\n      tag_17\n      jumpi\n      dup2\n      0x20\n      add\n    tag_18:\n      0x60\n      dup2\n      mstore\n      0x20\n      add\n      swap1\n      0x01\n      swap1\n      sub\n      swap1\n      dup2\n      tag_18\n      jumpi\n      swap1\n      pop\n    tag_17:\n      pop\n        /* \"tests/MultiCall.sol\":949:998  bytes[] memory results = new bytes[](data.length) */\n      swap1\n      pop\n        /* \"tests/MultiCall.sol\":1016:1022  uint i */\n      0x00\n        /* \"tests/MultiCall.sol\":1011:1222  for (uint i; i < targets.length; i++) {... */\n    tag_19:\n        /* \"tests/MultiCall.sol\":1028:1035  targets */\n      dup7\n      dup7\n        /* \"tests/MultiCall.sol\":1028:1042  targets.length */\n      swap1\n      pop\n        /* \"tests/MultiCall.sol\":1024:1025  i */\n      dup2\n        /* \"tests/MultiCall.sol\":1024:1042  i < targets.length */\n      lt\n        /* \"tests/MultiCall.sol\":1011:1222  for (uint i; i < targets.length; i++) {... */\n      iszero\n      tag_20\n      jumpi\n        /* \"tests/MultiCall.sol\":1065:1077  bool success */\n      0x00\n        /* \"tests/MultiCall.sol\":1079:1098  bytes memory result */\n      dup1\n        /* \"tests/MultiCall.sol\":1102:1109  targets */\n      dup9\n      dup9\n        /* \"tests/MultiCall.sol\":1110:1111  i */\n      dup5\n        /* \"tests/MultiCall.sol\":1102:1112  targets[i] */\n      dup2\n      dup2\n      lt\n      tag_22\n      jumpi\n      tag_23\n      tag_24\n      jump\t// in\n    tag_23:\n    tag_22:\n      swap1\n      pop\n      0x20\n      mul\n      add\n      0x20\n      dup2\n      add\n      swap1\n      tag_25\n      swap2\n      swap1\n      tag_26\n      jump\t// in\n    tag_25:\n        /* \"tests/MultiCall.sol\":1102:1123  targets[i].staticcall */\n      0xffffffffffffffffffffffffffffffffffffffff\n      and\n        /* \"tests/MultiCall.sol\":1124:1128  data */\n      dup8\n      dup8\n        /* \"tests/MultiCall.sol\":1129:1130  i */\n      dup6\n        /* \"tests/MultiCall.sol\":1124:1131  data[i] */\n      dup2\n      dup2\n      lt\n      tag_27\n      jumpi\n      tag_28\n      tag_24\n      jump\t// in\n    tag_28:\n    tag_27:\n      swap1\n      pop\n      0x20\n      mul\n      dup2\n      add\n      swap1\n      tag_29\n      swap2\n      swap1\n      tag_30\n      jump\t// in\n    tag_29:\n        /* \"tests/MultiCall.sol\":1102:1132  targets[i].staticcall(data[i]) */\n      mload(0x40)\n      tag_31\n      swap3\n      swap2\n      swap1\n      tag_32\n      jump\t// in\n    tag_31:\n      0x00\n      mload(0x40)\n      dup1\n      dup4\n      sub\n      dup2\n      dup6\n      gas\n      staticcall\n      swap2\n      pop\n      pop\n      returndatasize\n      dup1\n      0x00\n      dup2\n      eq\n      tag_35\n      jumpi\n      mload(0x40)\n      swap2\n      pop\n      and(add(returndatasize, 0x3f), not(0x1f))\n      dup3\n      add\n      0x40\n      mstore\n      returndatasize\n      dup3\n      mstore\n      returndatasize\n      0x00\n      0x20\n      dup5\n      add\n      returndatacopy\n      jump(tag_34)\n    tag_35:\n      0x60\n      swap2\n      pop\n    tag_34:\n      pop\n        /* \"tests/MultiCall.sol\":1064:1132  (bool success, bytes memory result) = targets[i].staticcall(data[i]) */\n      swap2\n      pop\n      swap2\n      pop\n        /* \"tests/MultiCall.sol\":1155:1162  success */\n      dup2\n        /* \"tests/MultiCall.sol\":1147:1176  require(success, \"tx failed\") */\n      tag_36\n      jumpi\n      mload(0x40)\n      0x08c379a000000000000000000000000000000000000000000000000000000000\n      dup2\n      mstore\n      0x04\n      add\n      tag_37\n      swap1\n      tag_38\n      jump\t// in\n    tag_37:\n      mload(0x40)\n      dup1\n      swap2\n      sub\n      swap1\n      revert\n    tag_36:\n        /* \"tests/MultiCall.sol\":1204:1210  result */\n      dup1\n        /* \"tests/MultiCall.sol\":1191:1198  results */\n      dup5\n        /* \"tests/MultiCall.sol\":1199:1200  i */\n      dup5\n        /* \"tests/MultiCall.sol\":1191:1201  results[i] */\n      dup2\n      mload\n      dup2\n      lt\n      tag_39\n      jumpi\n      tag_40\n      tag_24\n      jump\t// in\n    tag_40:\n    tag_39:\n      0x20\n      mul\n      0x20\n      add\n      add\n        /* \"tests/MultiCall.sol\":1191:1210  results[i] = result */\n      dup2\n      swap1\n      mstore\n      pop\n        /* \"tests/MultiCall.sol\":1049:1222  {... */\n      pop\n      pop\n        /* \"tests/MultiCall.sol\":1044:1047  i++ */\n      dup1\n      dup1\n      0x01\n      add\n      swap2\n      pop\n      pop\n        /* \"tests/MultiCall.sol\":1011:1222  for (uint i; i < targets.length; i++) {... */\n      jump(tag_19)\n    tag_20:\n      pop\n        /* \"tests/MultiCall.sol\":1241:1248  results */\n      dup1\n        /* \"tests/MultiCall.sol\":1234:1248  return results */\n      swap2\n      pop\n      pop\n        /* \"tests/MultiCall.sol\":749:1256  function multiCall(address[] calldata targets, bytes[] calldata data) external view returns(bytes[] memory) {... */\n      swap5\n      swap4\n      pop\n      pop\n      pop\n      pop\n      jump\t// out\n        /* \"#utility.yul\":88:205   */\n    tag_42:\n        /* \"#utility.yul\":197:198   */\n      0x00\n        /* \"#utility.yul\":194:195   */\n      dup1\n        /* \"#utility.yul\":187:199   */\n      revert\n        /* \"#utility.yul\":211:328   */\n    tag_43:\n        /* \"#utility.yul\":320:321   */\n      0x00\n        /* \"#utility.yul\":317:318   */\n      dup1\n        /* \"#utility.yul\":310:322   */\n      revert\n        /* \"#utility.yul\":334:451   */\n    tag_44:\n        /* \"#utility.yul\":443:444   */\n      0x00\n        /* \"#utility.yul\":440:441   */\n      dup1\n        /* \"#utility.yul\":433:445   */\n      revert\n        /* \"#utility.yul\":457:574   */\n    tag_45:\n        /* \"#utility.yul\":566:567   */\n      0x00\n        /* \"#utility.yul\":563:564   */\n      dup1\n        /* \"#utility.yul\":556:568   */\n      revert\n        /* \"#utility.yul\":580:697   */\n    tag_46:\n        /* \"#utility.yul\":689:690   */\n      0x00\n        /* \"#utility.yul\":686:687   */\n      dup1\n        /* \"#utility.yul\":679:691   */\n      revert\n        /* \"#utility.yul\":720:1288   */\n    tag_47:\n        /* \"#utility.yul\":793:801   */\n      0x00\n        /* \"#utility.yul\":803:809   */\n      dup1\n        /* \"#utility.yul\":853:856   */\n      dup4\n        /* \"#utility.yul\":846:850   */\n      0x1f\n        /* \"#utility.yul\":838:844   */\n      dup5\n        /* \"#utility.yul\":834:851   */\n      add\n        /* \"#utility.yul\":830:857   */\n      slt\n        /* \"#utility.yul\":820:942   */\n      tag_83\n      jumpi\n        /* \"#utility.yul\":861:940   */\n      tag_84\n      tag_44\n      jump\t// in\n    tag_84:\n        /* \"#utility.yul\":820:942   */\n    tag_83:\n        /* \"#utility.yul\":974:980   */\n      dup3\n        /* \"#utility.yul\":961:981   */\n      calldataload\n        /* \"#utility.yul\":951:981   */\n      swap1\n      pop\n        /* \"#utility.yul\":1004:1022   */\n      0xffffffffffffffff\n        /* \"#utility.yul\":996:1002   */\n      dup2\n        /* \"#utility.yul\":993:1023   */\n      gt\n        /* \"#utility.yul\":990:1107   */\n      iszero\n      tag_85\n      jumpi\n        /* \"#utility.yul\":1026:1105   */\n      tag_86\n      tag_45\n      jump\t// in\n    tag_86:\n        /* \"#utility.yul\":990:1107   */\n    tag_85:\n        /* \"#utility.yul\":1140:1144   */\n      0x20\n        /* \"#utility.yul\":1132:1138   */\n      dup4\n        /* \"#utility.yul\":1128:1145   */\n      add\n        /* \"#utility.yul\":1116:1145   */\n      swap2\n      pop\n        /* \"#utility.yul\":1194:1197   */\n      dup4\n        /* \"#utility.yul\":1186:1190   */\n      0x20\n        /* \"#utility.yul\":1178:1184   */\n      dup3\n        /* \"#utility.yul\":1174:1191   */\n      mul\n        /* \"#utility.yul\":1164:1172   */\n      dup4\n        /* \"#utility.yul\":1160:1192   */\n      add\n        /* \"#utility.yul\":1157:1198   */\n      gt\n        /* \"#utility.yul\":1154:1282   */\n      iszero\n      tag_87\n      jumpi\n        /* \"#utility.yul\":1201:1280   */\n      tag_88\n      tag_46\n      jump\t// in\n    tag_88:\n        /* \"#utility.yul\":1154:1282   */\n    tag_87:\n        /* \"#utility.yul\":720:1288   */\n      swap3\n      pop\n      swap3\n      swap1\n      pop\n      jump\t// out\n        /* \"#utility.yul\":1309:1888   */\n    tag_48:\n        /* \"#utility.yul\":1393:1401   */\n      0x00\n        /* \"#utility.yul\":1403:1409   */\n      dup1\n        /* \"#utility.yul\":1453:1456   */\n      dup4\n        /* \"#utility.yul\":1446:1450   */\n      0x1f\n        /* \"#utility.yul\":1438:1444   */\n      dup5\n        /* \"#utility.yul\":1434:1451   */\n      add\n        /* \"#utility.yul\":1430:1457   */\n      slt\n        /* \"#utility.yul\":1420:1542   */\n      tag_90\n      jumpi\n        /* \"#utility.yul\":1461:1540   */\n      tag_91\n      tag_44\n      jump\t// in\n    tag_91:\n        /* \"#utility.yul\":1420:1542   */\n    tag_90:\n        /* \"#utility.yul\":1574:1580   */\n      dup3\n        /* \"#utility.yul\":1561:1581   */\n      calldataload\n        /* \"#utility.yul\":1551:1581   */\n      swap1\n      pop\n        /* \"#utility.yul\":1604:1622   */\n      0xffffffffffffffff\n        /* \"#utility.yul\":1596:1602   */\n      dup2\n        /* \"#utility.yul\":1593:1623   */\n      gt\n        /* \"#utility.yul\":1590:1707   */\n      iszero\n      tag_92\n      jumpi\n        /* \"#utility.yul\":1626:1705   */\n      tag_93\n      tag_45\n      jump\t// in\n    tag_93:\n        /* \"#utility.yul\":1590:1707   */\n    tag_92:\n        /* \"#utility.yul\":1740:1744   */\n      0x20\n        /* \"#utility.yul\":1732:1738   */\n      dup4\n        /* \"#utility.yul\":1728:1745   */\n      add\n        /* \"#utility.yul\":1716:1745   */\n      swap2\n      pop\n        /* \"#utility.yul\":1794:1797   */\n      dup4\n        /* \"#utility.yul\":1786:1790   */\n      0x20\n        /* \"#utility.yul\":1778:1784   */\n      dup3\n        /* \"#utility.yul\":1774:1791   */\n      mul\n        /* \"#utility.yul\":1764:1772   */\n      dup4\n        /* \"#utility.yul\":1760:1792   */\n      add\n        /* \"#utility.yul\":1757:1798   */\n      gt\n        /* \"#utility.yul\":1754:1882   */\n      iszero\n      tag_94\n      jumpi\n        /* \"#utility.yul\":1801:1880   */\n      tag_95\n      tag_46\n      jump\t// in\n    tag_95:\n        /* \"#utility.yul\":1754:1882   */\n    tag_94:\n        /* \"#utility.yul\":1309:1888   */\n      swap3\n      pop\n      swap3\n      swap1\n      pop\n      jump\t// out\n        /* \"#utility.yul\":1894:2850   */\n    tag_6:\n        /* \"#utility.yul\":2027:2033   */\n      0x00\n        /* \"#utility.yul\":2035:2041   */\n      dup1\n        /* \"#utility.yul\":2043:2049   */\n      0x00\n        /* \"#utility.yul\":2051:2057   */\n      dup1\n        /* \"#utility.yul\":2100:2102   */\n      0x40\n        /* \"#utility.yul\":2088:2097   */\n      dup6\n        /* \"#utility.yul\":2079:2086   */\n      dup8\n        /* \"#utility.yul\":2075:2098   */\n      sub\n        /* \"#utility.yul\":2071:2103   */\n      slt\n        /* \"#utility.yul\":2068:2187   */\n      iszero\n      tag_97\n      jumpi\n        /* \"#utility.yul\":2106:2185   */\n      tag_98\n      tag_42\n      jump\t// in\n    tag_98:\n        /* \"#utility.yul\":2068:2187   */\n    tag_97:\n        /* \"#utility.yul\":2254:2255   */\n      0x00\n        /* \"#utility.yul\":2243:2252   */\n      dup6\n        /* \"#utility.yul\":2239:2256   */\n      add\n        /* \"#utility.yul\":2226:2257   */\n      calldataload\n        /* \"#utility.yul\":2284:2302   */\n      0xffffffffffffffff\n        /* \"#utility.yul\":2276:2282   */\n      dup2\n        /* \"#utility.yul\":2273:2303   */\n      gt\n        /* \"#utility.yul\":2270:2387   */\n      iszero\n      tag_99\n      jumpi\n        /* \"#utility.yul\":2306:2385   */\n      tag_100\n      tag_43\n      jump\t// in\n    tag_100:\n        /* \"#utility.yul\":2270:2387   */\n    tag_99:\n        /* \"#utility.yul\":2419:2499   */\n      tag_101\n        /* \"#utility.yul\":2491:2498   */\n      dup8\n        /* \"#utility.yul\":2482:2488   */\n      dup3\n        /* \"#utility.yul\":2471:2480   */\n      dup9\n        /* \"#utility.yul\":2467:2489   */\n      add\n        /* \"#utility.yul\":2419:2499   */\n      tag_47\n      jump\t// in\n    tag_101:\n        /* \"#utility.yul\":2401:2499   */\n      swap5\n      pop\n      swap5\n      pop\n        /* \"#utility.yul\":2197:2509   */\n      pop\n        /* \"#utility.yul\":2576:2578   */\n      0x20\n        /* \"#utility.yul\":2565:2574   */\n      dup6\n        /* \"#utility.yul\":2561:2579   */\n      add\n        /* \"#utility.yul\":2548:2580   */\n      calldataload\n        /* \"#utility.yul\":2607:2625   */\n      0xffffffffffffffff\n        /* \"#utility.yul\":2599:2605   */\n      dup2\n        /* \"#utility.yul\":2596:2626   */\n      gt\n        /* \"#utility.yul\":2593:2710   */\n      iszero\n      tag_102\n      jumpi\n        /* \"#utility.yul\":2629:2708   */\n      tag_103\n      tag_43\n      jump\t// in\n    tag_103:\n        /* \"#utility.yul\":2593:2710   */\n    tag_102:\n        /* \"#utility.yul\":2742:2833   */\n      tag_104\n        /* \"#utility.yul\":2825:2832   */\n      dup8\n        /* \"#utility.yul\":2816:2822   */\n      dup3\n        /* \"#utility.yul\":2805:2814   */\n      dup9\n        /* \"#utility.yul\":2801:2823   */\n      add\n        /* \"#utility.yul\":2742:2833   */\n      tag_48\n      jump\t// in\n    tag_104:\n        /* \"#utility.yul\":2724:2833   */\n      swap3\n      pop\n      swap3\n      pop\n        /* \"#utility.yul\":2519:2843   */\n      pop\n        /* \"#utility.yul\":1894:2850   */\n      swap3\n      swap6\n      swap2\n      swap5\n      pop\n      swap3\n      pop\n      jump\t// out\n        /* \"#utility.yul\":2856:2979   */\n    tag_49:\n        /* \"#utility.yul\":2932:2938   */\n      0x00\n        /* \"#utility.yul\":2966:2971   */\n      dup2\n        /* \"#utility.yul\":2960:2972   */\n      mload\n        /* \"#utility.yul\":2950:2972   */\n      swap1\n      pop\n        /* \"#utility.yul\":2856:2979   */\n      swap2\n      swap1\n      pop\n      jump\t// out\n        /* \"#utility.yul\":2985:3178   */\n    tag_50:\n        /* \"#utility.yul\":3093:3104   */\n      0x00\n        /* \"#utility.yul\":3127:3133   */\n      dup3\n        /* \"#utility.yul\":3122:3125   */\n      dup3\n        /* \"#utility.yul\":3115:3134   */\n      mstore\n        /* \"#utility.yul\":3167:3171   */\n      0x20\n        /* \"#utility.yul\":3162:3165   */\n      dup3\n        /* \"#utility.yul\":3158:3172   */\n      add\n        /* \"#utility.yul\":3143:3172   */\n      swap1\n      pop\n        /* \"#utility.yul\":2985:3178   */\n      swap3\n      swap2\n      pop\n      pop\n      jump\t// out\n        /* \"#utility.yul\":3184:3325   */\n    tag_51:\n        /* \"#utility.yul\":3260:3264   */\n      0x00\n        /* \"#utility.yul\":3283:3286   */\n      dup2\n        /* \"#utility.yul\":3275:3286   */\n      swap1\n      pop\n        /* \"#utility.yul\":3313:3317   */\n      0x20\n        /* \"#utility.yul\":3308:3311   */\n      dup3\n        /* \"#utility.yul\":3304:3318   */\n      add\n        /* \"#utility.yul\":3296:3318   */\n      swap1\n      pop\n        /* \"#utility.yul\":3184:3325   */\n      swap2\n      swap1\n      pop\n      jump\t// out\n        /* \"#utility.yul\":3331:3429   */\n    tag_52:\n        /* \"#utility.yul\":3382:3388   */\n      0x00\n        /* \"#utility.yul\":3416:3421   */\n      dup2\n        /* \"#utility.yul\":3410:3422   */\n      mload\n        /* \"#utility.yul\":3400:3422   */\n      swap1\n      pop\n        /* \"#utility.yul\":3331:3429   */\n      swap2\n      swap1\n      pop\n      jump\t// out\n        /* \"#utility.yul\":3435:3593   */\n    tag_53:\n        /* \"#utility.yul\":3508:3519   */\n      0x00\n        /* \"#utility.yul\":3542:3548   */\n      dup3\n        /* \"#utility.yul\":3537:3540   */\n      dup3\n        /* \"#utility.yul\":3530:3549   */\n      mstore\n        /* \"#utility.yul\":3582:3586   */\n      0x20\n        /* \"#utility.yul\":3577:3580   */\n      dup3\n        /* \"#utility.yul\":3573:3587   */\n      add\n        /* \"#utility.yul\":3558:3587   */\n      swap1\n      pop\n        /* \"#utility.yul\":3435:3593   */\n      swap3\n      swap2\n      pop\n      pop\n      jump\t// out\n        /* \"#utility.yul\":3599:3845   */\n    tag_54:\n        /* \"#utility.yul\":3680:3681   */\n      0x00\n        /* \"#utility.yul\":3690:3803   */\n    tag_111:\n        /* \"#utility.yul\":3704:3710   */\n      dup4\n        /* \"#utility.yul\":3701:3702   */\n      dup2\n        /* \"#utility.yul\":3698:3711   */\n      lt\n        /* \"#utility.yul\":3690:3803   */\n      iszero\n      tag_113\n      jumpi\n        /* \"#utility.yul\":3789:3790   */\n      dup1\n        /* \"#utility.yul\":3784:3787   */\n      dup3\n        /* \"#utility.yul\":3780:3791   */\n      add\n        /* \"#utility.yul\":3774:3792   */\n      mload\n        /* \"#utility.yul\":3770:3771   */\n      dup2\n        /* \"#utility.yul\":3765:3768   */\n      dup5\n        /* \"#utility.yul\":3761:3772   */\n      add\n        /* \"#utility.yul\":3754:3793   */\n      mstore\n        /* \"#utility.yul\":3726:3728   */\n      0x20\n        /* \"#utility.yul\":3723:3724   */\n      dup2\n        /* \"#utility.yul\":3719:3729   */\n      add\n        /* \"#utility.yul\":3714:3729   */\n      swap1\n      pop\n        /* \"#utility.yul\":3690:3803   */\n      jump(tag_111)\n    tag_113:\n        /* \"#utility.yul\":3837:3838   */\n      0x00\n        /* \"#utility.yul\":3828:3834   */\n      dup5\n        /* \"#utility.yul\":3823:3826   */\n      dup5\n        /* \"#utility.yul\":3819:3835   */\n      add\n        /* \"#utility.yul\":3812:3839   */\n      mstore\n        /* \"#utility.yul\":3661:3845   */\n      pop\n        /* \"#utility.yul\":3599:3845   */\n      pop\n      pop\n      pop\n      jump\t// out\n        /* \"#utility.yul\":3851:3953   */\n    tag_55:\n        /* \"#utility.yul\":3892:3898   */\n      0x00\n        /* \"#utility.yul\":3943:3945   */\n      0x1f\n        /* \"#utility.yul\":3939:3946   */\n      not\n        /* \"#utility.yul\":3934:3936   */\n      0x1f\n        /* \"#utility.yul\":3927:3932   */\n      dup4\n        /* \"#utility.yul\":3923:3937   */\n      add\n        /* \"#utility.yul\":3919:3947   */\n      and\n        /* \"#utility.yul\":3909:3947   */\n      swap1\n      pop\n        /* \"#utility.yul\":3851:3953   */\n      swap2\n      swap1\n      pop\n      jump\t// out\n        /* \"#utility.yul\":3959:4312   */\n    tag_56:\n        /* \"#utility.yul\":4035:4038   */\n      0x00\n        /* \"#utility.yul\":4063:4101   */\n      tag_116\n        /* \"#utility.yul\":4095:4100   */\n      dup3\n        /* \"#utility.yul\":4063:4101   */\n      tag_52\n      jump\t// in\n    tag_116:\n        /* \"#utility.yul\":4117:4177   */\n      tag_117\n        /* \"#utility.yul\":4170:4176   */\n      dup2\n        /* \"#utility.yul\":4165:4168   */\n      dup6\n        /* \"#utility.yul\":4117:4177   */\n      tag_53\n      jump\t// in\n    tag_117:\n        /* \"#utility.yul\":4110:4177   */\n      swap4\n      pop\n        /* \"#utility.yul\":4186:4251   */\n      tag_118\n        /* \"#utility.yul\":4244:4250   */\n      dup2\n        /* \"#utility.yul\":4239:4242   */\n      dup6\n        /* \"#utility.yul\":4232:4236   */\n      0x20\n        /* \"#utility.yul\":4225:4230   */\n      dup7\n        /* \"#utility.yul\":4221:4237   */\n      add\n        /* \"#utility.yul\":4186:4251   */\n      tag_54\n      jump\t// in\n    tag_118:\n        /* \"#utility.yul\":4276:4305   */\n      tag_119\n        /* \"#utility.yul\":4298:4304   */\n      dup2\n        /* \"#utility.yul\":4276:4305   */\n      tag_55\n      jump\t// in\n    tag_119:\n        /* \"#utility.yul\":4271:4274   */\n      dup5\n        /* \"#utility.yul\":4267:4306   */\n      add\n        /* \"#utility.yul\":4260:4306   */\n      swap2\n      pop\n        /* \"#utility.yul\":4039:4312   */\n      pop\n        /* \"#utility.yul\":3959:4312   */\n      swap3\n      swap2\n      pop\n      pop\n      jump\t// out\n        /* \"#utility.yul\":4318:4510   */\n    tag_57:\n        /* \"#utility.yul\":4405:4415   */\n      0x00\n        /* \"#utility.yul\":4440:4504   */\n      tag_121\n        /* \"#utility.yul\":4500:4503   */\n      dup4\n        /* \"#utility.yul\":4492:4498   */\n      dup4\n        /* \"#utility.yul\":4440:4504   */\n      tag_56\n      jump\t// in\n    tag_121:\n        /* \"#utility.yul\":4426:4504   */\n      swap1\n      pop\n        /* \"#utility.yul\":4318:4510   */\n      swap3\n      swap2\n      pop\n      pop\n      jump\t// out\n        /* \"#utility.yul\":4516:4638   */\n    tag_58:\n        /* \"#utility.yul\":4595:4599   */\n      0x00\n        /* \"#utility.yul\":4627:4631   */\n      0x20\n        /* \"#utility.yul\":4622:4625   */\n      dup3\n        /* \"#utility.yul\":4618:4632   */\n      add\n        /* \"#utility.yul\":4610:4632   */\n      swap1\n      pop\n        /* \"#utility.yul\":4516:4638   */\n      swap2\n      swap1\n      pop\n      jump\t// out\n        /* \"#utility.yul\":4670:5653   */\n    tag_59:\n        /* \"#utility.yul\":4807:4810   */\n      0x00\n        /* \"#utility.yul\":4836:4899   */\n      tag_124\n        /* \"#utility.yul\":4893:4898   */\n      dup3\n        /* \"#utility.yul\":4836:4899   */\n      tag_49\n      jump\t// in\n    tag_124:\n        /* \"#utility.yul\":4915:5010   */\n      tag_125\n        /* \"#utility.yul\":5003:5009   */\n      dup2\n        /* \"#utility.yul\":4998:5001   */\n      dup6\n        /* \"#utility.yul\":4915:5010   */\n      tag_50\n      jump\t// in\n    tag_125:\n        /* \"#utility.yul\":4908:5010   */\n      swap4\n      pop\n        /* \"#utility.yul\":5036:5039   */\n      dup4\n        /* \"#utility.yul\":5081:5085   */\n      0x20\n        /* \"#utility.yul\":5073:5079   */\n      dup3\n        /* \"#utility.yul\":5069:5086   */\n      mul\n        /* \"#utility.yul\":5064:5067   */\n      dup6\n        /* \"#utility.yul\":5060:5087   */\n      add\n        /* \"#utility.yul\":5111:5176   */\n      tag_126\n        /* \"#utility.yul\":5170:5175   */\n      dup6\n        /* \"#utility.yul\":5111:5176   */\n      tag_51\n      jump\t// in\n    tag_126:\n        /* \"#utility.yul\":5199:5206   */\n      dup1\n        /* \"#utility.yul\":5230:5231   */\n      0x00\n        /* \"#utility.yul\":5215:5608   */\n    tag_127:\n        /* \"#utility.yul\":5240:5246   */\n      dup6\n        /* \"#utility.yul\":5237:5238   */\n      dup2\n        /* \"#utility.yul\":5234:5247   */\n      lt\n        /* \"#utility.yul\":5215:5608   */\n      iszero\n      tag_129\n      jumpi\n        /* \"#utility.yul\":5311:5320   */\n      dup5\n        /* \"#utility.yul\":5305:5309   */\n      dup5\n        /* \"#utility.yul\":5301:5321   */\n      sub\n        /* \"#utility.yul\":5296:5299   */\n      dup10\n        /* \"#utility.yul\":5289:5322   */\n      mstore\n        /* \"#utility.yul\":5362:5368   */\n      dup2\n        /* \"#utility.yul\":5356:5369   */\n      mload\n        /* \"#utility.yul\":5390:5472   */\n      tag_130\n        /* \"#utility.yul\":5467:5471   */\n      dup6\n        /* \"#utility.yul\":5452:5465   */\n      dup3\n        /* \"#utility.yul\":5390:5472   */\n      tag_57\n      jump\t// in\n    tag_130:\n        /* \"#utility.yul\":5382:5472   */\n      swap5\n      pop\n        /* \"#utility.yul\":5495:5564   */\n      tag_131\n        /* \"#utility.yul\":5557:5563   */\n      dup4\n        /* \"#utility.yul\":5495:5564   */\n      tag_58\n      jump\t// in\n    tag_131:\n        /* \"#utility.yul\":5485:5564   */\n      swap3\n      pop\n        /* \"#utility.yul\":5593:5597   */\n      0x20\n        /* \"#utility.yul\":5588:5591   */\n      dup11\n        /* \"#utility.yul\":5584:5598   */\n      add\n        /* \"#utility.yul\":5577:5598   */\n      swap10\n      pop\n        /* \"#utility.yul\":5275:5608   */\n      pop\n        /* \"#utility.yul\":5262:5263   */\n      0x01\n        /* \"#utility.yul\":5259:5260   */\n      dup2\n        /* \"#utility.yul\":5255:5264   */\n      add\n        /* \"#utility.yul\":5250:5264   */\n      swap1\n      pop\n        /* \"#utility.yul\":5215:5608   */\n      jump(tag_127)\n    tag_129:\n        /* \"#utility.yul\":5219:5233   */\n      pop\n        /* \"#utility.yul\":5624:5628   */\n      dup3\n        /* \"#utility.yul\":5617:5628   */\n      swap8\n      pop\n        /* \"#utility.yul\":5644:5647   */\n      dup8\n        /* \"#utility.yul\":5637:5647   */\n      swap6\n      pop\n        /* \"#utility.yul\":4812:5653   */\n      pop\n      pop\n      pop\n      pop\n      pop\n        /* \"#utility.yul\":4670:5653   */\n      swap3\n      swap2\n      pop\n      pop\n      jump\t// out\n        /* \"#utility.yul\":5659:6068   */\n    tag_9:\n        /* \"#utility.yul\":5820:5824   */\n      0x00\n        /* \"#utility.yul\":5858:5860   */\n      0x20\n        /* \"#utility.yul\":5847:5856   */\n      dup3\n        /* \"#utility.yul\":5843:5861   */\n      add\n        /* \"#utility.yul\":5835:5861   */\n      swap1\n      pop\n        /* \"#utility.yul\":5907:5916   */\n      dup2\n        /* \"#utility.yul\":5901:5905   */\n      dup2\n        /* \"#utility.yul\":5897:5917   */\n      sub\n        /* \"#utility.yul\":5893:5894   */\n      0x00\n        /* \"#utility.yul\":5882:5891   */\n      dup4\n        /* \"#utility.yul\":5878:5895   */\n      add\n        /* \"#utility.yul\":5871:5918   */\n      mstore\n        /* \"#utility.yul\":5935:6061   */\n      tag_133\n        /* \"#utility.yul\":6056:6060   */\n      dup2\n        /* \"#utility.yul\":6047:6053   */\n      dup5\n        /* \"#utility.yul\":5935:6061   */\n      tag_59\n      jump\t// in\n    tag_133:\n        /* \"#utility.yul\":5927:6061   */\n      swap1\n      pop\n        /* \"#utility.yul\":5659:6068   */\n      swap3\n      swap2\n      pop\n      pop\n      jump\t// out\n        /* \"#utility.yul\":6074:6243   */\n    tag_60:\n        /* \"#utility.yul\":6158:6169   */\n      0x00\n        /* \"#utility.yul\":6192:6198   */\n      dup3\n        /* \"#utility.yul\":6187:6190   */\n      dup3\n        /* \"#utility.yul\":6180:6199   */\n      mstore\n        /* \"#utility.yul\":6232:6236   */\n      0x20\n        /* \"#utility.yul\":6227:6230   */\n      dup3\n        /* \"#utility.yul\":6223:6237   */\n      add\n        /* \"#utility.yul\":6208:6237   */\n      swap1\n      pop\n        /* \"#utility.yul\":6074:6243   */\n      swap3\n      swap2\n      pop\n      pop\n      jump\t// out\n        /* \"#utility.yul\":6249:6427   */\n    tag_61:\n        /* \"#utility.yul\":6389:6419   */\n      0x746172676574206c656e67746820213d2064617461206c656e67746800000000\n        /* \"#utility.yul\":6385:6386   */\n      0x00\n        /* \"#utility.yul\":6377:6383   */\n      dup3\n        /* \"#utility.yul\":6373:6387   */\n      add\n        /* \"#utility.yul\":6366:6420   */\n      mstore\n        /* \"#utility.yul\":6249:6427   */\n      pop\n      jump\t// out\n        /* \"#utility.yul\":6433:6799   */\n    tag_62:\n        /* \"#utility.yul\":6575:6578   */\n      0x00\n        /* \"#utility.yul\":6596:6663   */\n      tag_137\n        /* \"#utility.yul\":6660:6662   */\n      0x1c\n        /* \"#utility.yul\":6655:6658   */\n      dup4\n        /* \"#utility.yul\":6596:6663   */\n      tag_60\n      jump\t// in\n    tag_137:\n        /* \"#utility.yul\":6589:6663   */\n      swap2\n      pop\n        /* \"#utility.yul\":6672:6765   */\n      tag_138\n        /* \"#utility.yul\":6761:6764   */\n      dup3\n        /* \"#utility.yul\":6672:6765   */\n      tag_61\n      jump\t// in\n    tag_138:\n        /* \"#utility.yul\":6790:6792   */\n      0x20\n        /* \"#utility.yul\":6785:6788   */\n      dup3\n        /* \"#utility.yul\":6781:6793   */\n      add\n        /* \"#utility.yul\":6774:6793   */\n      swap1\n      pop\n        /* \"#utility.yul\":6433:6799   */\n      swap2\n      swap1\n      pop\n      jump\t// out\n        /* \"#utility.yul\":6805:7224   */\n    tag_13:\n        /* \"#utility.yul\":6971:6975   */\n      0x00\n        /* \"#utility.yul\":7009:7011   */\n      0x20\n        /* \"#utility.yul\":6998:7007   */\n      dup3\n        /* \"#utility.yul\":6994:7012   */\n      add\n        /* \"#utility.yul\":6986:7012   */\n      swap1\n      pop\n        /* \"#utility.yul\":7058:7067   */\n      dup2\n        /* \"#utility.yul\":7052:7056   */\n      dup2\n        /* \"#utility.yul\":7048:7068   */\n      sub\n        /* \"#utility.yul\":7044:7045   */\n      0x00\n        /* \"#utility.yul\":7033:7042   */\n      dup4\n        /* \"#utility.yul\":7029:7046   */\n      add\n        /* \"#utility.yul\":7022:7069   */\n      mstore\n        /* \"#utility.yul\":7086:7217   */\n      tag_140\n        /* \"#utility.yul\":7212:7216   */\n      dup2\n        /* \"#utility.yul\":7086:7217   */\n      tag_62\n      jump\t// in\n    tag_140:\n        /* \"#utility.yul\":7078:7217   */\n      swap1\n      pop\n        /* \"#utility.yul\":6805:7224   */\n      swap2\n      swap1\n      pop\n      jump\t// out\n        /* \"#utility.yul\":7230:7410   */\n    tag_16:\n        /* \"#utility.yul\":7278:7355   */\n      0x4e487b7100000000000000000000000000000000000000000000000000000000\n        /* \"#utility.yul\":7275:7276   */\n      0x00\n        /* \"#utility.yul\":7268:7356   */\n      mstore\n        /* \"#utility.yul\":7375:7379   */\n      0x41\n        /* \"#utility.yul\":7372:7373   */\n      0x04\n        /* \"#utility.yul\":7365:7380   */\n      mstore\n        /* \"#utility.yul\":7399:7403   */\n      0x24\n        /* \"#utility.yul\":7396:7397   */\n      0x00\n        /* \"#utility.yul\":7389:7404   */\n      revert\n        /* \"#utility.yul\":7416:7596   */\n    tag_24:\n        /* \"#utility.yul\":7464:7541   */\n      0x4e487b7100000000000000000000000000000000000000000000000000000000\n        /* \"#utility.yul\":7461:7462   */\n      0x00\n        /* \"#utility.yul\":7454:7542   */\n      mstore\n        /* \"#utility.yul\":7561:7565   */\n      0x32\n        /* \"#utility.yul\":7558:7559   */\n      0x04\n        /* \"#utility.yul\":7551:7566   */\n      mstore\n        /* \"#utility.yul\":7585:7589   */\n      0x24\n        /* \"#utility.yul\":7582:7583   */\n      0x00\n        /* \"#utility.yul\":7575:7590   */\n      revert\n        /* \"#utility.yul\":7602:7728   */\n    tag_63:\n        /* \"#utility.yul\":7639:7646   */\n      0x00\n        /* \"#utility.yul\":7679:7721   */\n      0xffffffffffffffffffffffffffffffffffffffff\n        /* \"#utility.yul\":7672:7677   */\n      dup3\n        /* \"#utility.yul\":7668:7722   */\n      and\n        /* \"#utility.yul\":7657:7722   */\n      swap1\n      pop\n        /* \"#utility.yul\":7602:7728   */\n      swap2\n      swap1\n      pop\n      jump\t// out\n        /* \"#utility.yul\":7734:7830   */\n    tag_64:\n        /* \"#utility.yul\":7771:7778   */\n      0x00\n        /* \"#utility.yul\":7800:7824   */\n      tag_145\n        /* \"#utility.yul\":7818:7823   */\n      dup3\n        /* \"#utility.yul\":7800:7824   */\n      tag_63\n      jump\t// in\n    tag_145:\n        /* \"#utility.yul\":7789:7824   */\n      swap1\n      pop\n        /* \"#utility.yul\":7734:7830   */\n      swap2\n      swap1\n      pop\n      jump\t// out\n        /* \"#utility.yul\":7836:7958   */\n    tag_65:\n        /* \"#utility.yul\":7909:7933   */\n      tag_147\n        /* \"#utility.yul\":7927:7932   */\n      dup2\n        /* \"#utility.yul\":7909:7933   */\n      tag_64\n      jump\t// in\n    tag_147:\n        /* \"#utility.yul\":7902:7907   */\n      dup2\n        /* \"#utility.yul\":7899:7934   */\n      eq\n        /* \"#utility.yul\":7889:7952   */\n      tag_148\n      jumpi\n        /* \"#utility.yul\":7948:7949   */\n      0x00\n        /* \"#utility.yul\":7945:7946   */\n      dup1\n        /* \"#utility.yul\":7938:7950   */\n      revert\n        /* \"#utility.yul\":7889:7952   */\n    tag_148:\n        /* \"#utility.yul\":7836:7958   */\n      pop\n      jump\t// out\n        /* \"#utility.yul\":7964:8103   */\n    tag_66:\n        /* \"#utility.yul\":8010:8015   */\n      0x00\n        /* \"#utility.yul\":8048:8054   */\n      dup2\n        /* \"#utility.yul\":8035:8055   */\n      calldataload\n        /* \"#utility.yul\":8026:8055   */\n      swap1\n      pop\n        /* \"#utility.yul\":8064:8097   */\n      tag_150\n        /* \"#utility.yul\":8091:8096   */\n      dup2\n        /* \"#utility.yul\":8064:8097   */\n      tag_65\n      jump\t// in\n    tag_150:\n        /* \"#utility.yul\":7964:8103   */\n      swap3\n      swap2\n      pop\n      pop\n      jump\t// out\n        /* \"#utility.yul\":8109:8438   */\n    tag_26:\n        /* \"#utility.yul\":8168:8174   */\n      0x00\n        /* \"#utility.yul\":8217:8219   */\n      0x20\n        /* \"#utility.yul\":8205:8214   */\n      dup3\n        /* \"#utility.yul\":8196:8203   */\n      dup5\n        /* \"#utility.yul\":8192:8215   */\n      sub\n        /* \"#utility.yul\":8188:8220   */\n      slt\n        /* \"#utility.yul\":8185:8304   */\n      iszero\n      tag_152\n      jumpi\n        /* \"#utility.yul\":8223:8302   */\n      tag_153\n      tag_42\n      jump\t// in\n    tag_153:\n        /* \"#utility.yul\":8185:8304   */\n    tag_152:\n        /* \"#utility.yul\":8343:8344   */\n      0x00\n        /* \"#utility.yul\":8368:8421   */\n      tag_154\n        /* \"#utility.yul\":8413:8420   */\n      dup5\n        /* \"#utility.yul\":8404:8410   */\n      dup3\n        /* \"#utility.yul\":8393:8402   */\n      dup6\n        /* \"#utility.yul\":8389:8411   */\n      add\n        /* \"#utility.yul\":8368:8421   */\n      tag_66\n      jump\t// in\n    tag_154:\n        /* \"#utility.yul\":8358:8421   */\n      swap2\n      pop\n        /* \"#utility.yul\":8314:8431   */\n      pop\n        /* \"#utility.yul\":8109:8438   */\n      swap3\n      swap2\n      pop\n      pop\n      jump\t// out\n        /* \"#utility.yul\":8444:8561   */\n    tag_67:\n        /* \"#utility.yul\":8553:8554   */\n      0x00\n        /* \"#utility.yul\":8550:8551   */\n      dup1\n        /* \"#utility.yul\":8543:8555   */\n      revert\n        /* \"#utility.yul\":8567:8684   */\n    tag_68:\n        /* \"#utility.yul\":8676:8677   */\n      0x00\n        /* \"#utility.yul\":8673:8674   */\n      dup1\n        /* \"#utility.yul\":8666:8678   */\n      revert\n        /* \"#utility.yul\":8690:8807   */\n    tag_69:\n        /* \"#utility.yul\":8799:8800   */\n      0x00\n        /* \"#utility.yul\":8796:8797   */\n      dup1\n        /* \"#utility.yul\":8789:8801   */\n      revert\n        /* \"#utility.yul\":8813:9537   */\n    tag_30:\n        /* \"#utility.yul\":8890:8894   */\n      0x00\n        /* \"#utility.yul\":8896:8902   */\n      dup1\n        /* \"#utility.yul\":8952:8963   */\n      dup4\n        /* \"#utility.yul\":8939:8964   */\n      calldataload\n        /* \"#utility.yul\":9052:9053   */\n      0x01\n        /* \"#utility.yul\":9046:9050   */\n      0x20\n        /* \"#utility.yul\":9042:9054   */\n      sub\n        /* \"#utility.yul\":9031:9039   */\n      dup5\n        /* \"#utility.yul\":9015:9029   */\n      calldatasize\n        /* \"#utility.yul\":9011:9040   */\n      sub\n        /* \"#utility.yul\":9007:9055   */\n      sub\n        /* \"#utility.yul\":8987:9005   */\n      dup2\n        /* \"#utility.yul\":8983:9056   */\n      slt\n        /* \"#utility.yul\":8973:9141   */\n      tag_159\n      jumpi\n        /* \"#utility.yul\":9060:9139   */\n      tag_160\n      tag_67\n      jump\t// in\n    tag_160:\n        /* \"#utility.yul\":8973:9141   */\n    tag_159:\n        /* \"#utility.yul\":9172:9190   */\n      dup1\n        /* \"#utility.yul\":9162:9170   */\n      dup5\n        /* \"#utility.yul\":9158:9191   */\n      add\n        /* \"#utility.yul\":9150:9191   */\n      swap3\n      pop\n        /* \"#utility.yul\":9224:9228   */\n      dup3\n        /* \"#utility.yul\":9211:9229   */\n      calldataload\n        /* \"#utility.yul\":9201:9229   */\n      swap2\n      pop\n        /* \"#utility.yul\":9252:9270   */\n      0xffffffffffffffff\n        /* \"#utility.yul\":9244:9250   */\n      dup3\n        /* \"#utility.yul\":9241:9271   */\n      gt\n        /* \"#utility.yul\":9238:9355   */\n      iszero\n      tag_161\n      jumpi\n        /* \"#utility.yul\":9274:9353   */\n      tag_162\n      tag_68\n      jump\t// in\n    tag_162:\n        /* \"#utility.yul\":9238:9355   */\n    tag_161:\n        /* \"#utility.yul\":9382:9384   */\n      0x20\n        /* \"#utility.yul\":9376:9380   */\n      dup4\n        /* \"#utility.yul\":9372:9385   */\n      add\n        /* \"#utility.yul\":9364:9385   */\n      swap3\n      pop\n        /* \"#utility.yul\":9439:9443   */\n      0x01\n        /* \"#utility.yul\":9431:9437   */\n      dup3\n        /* \"#utility.yul\":9427:9444   */\n      mul\n        /* \"#utility.yul\":9411:9425   */\n      calldatasize\n        /* \"#utility.yul\":9407:9445   */\n      sub\n        /* \"#utility.yul\":9401:9405   */\n      dup4\n        /* \"#utility.yul\":9397:9446   */\n      sgt\n        /* \"#utility.yul\":9394:9530   */\n      iszero\n      tag_163\n      jumpi\n        /* \"#utility.yul\":9449:9528   */\n      tag_164\n      tag_69\n      jump\t// in\n    tag_164:\n        /* \"#utility.yul\":9394:9530   */\n    tag_163:\n        /* \"#utility.yul\":8903:9537   */\n      pop\n        /* \"#utility.yul\":8813:9537   */\n      swap3\n      pop\n      swap3\n      swap1\n      pop\n      jump\t// out\n        /* \"#utility.yul\":9543:9690   */\n    tag_70:\n        /* \"#utility.yul\":9644:9655   */\n      0x00\n        /* \"#utility.yul\":9681:9684   */\n      dup2\n        /* \"#utility.yul\":9666:9684   */\n      swap1\n      pop\n        /* \"#utility.yul\":9543:9690   */\n      swap3\n      swap2\n      pop\n      pop\n      jump\t// out\n        /* \"#utility.yul\":9696:9842   */\n    tag_71:\n        /* \"#utility.yul\":9793:9799   */\n      dup3\n        /* \"#utility.yul\":9788:9791   */\n      dup2\n        /* \"#utility.yul\":9783:9786   */\n      dup4\n        /* \"#utility.yul\":9770:9800   */\n      calldatacopy\n        /* \"#utility.yul\":9834:9835   */\n      0x00\n        /* \"#utility.yul\":9825:9831   */\n      dup4\n        /* \"#utility.yul\":9820:9823   */\n      dup4\n        /* \"#utility.yul\":9816:9832   */\n      add\n        /* \"#utility.yul\":9809:9836   */\n      mstore\n        /* \"#utility.yul\":9696:9842   */\n      pop\n      pop\n      pop\n      jump\t// out\n        /* \"#utility.yul\":9870:10197   */\n    tag_72:\n        /* \"#utility.yul\":9984:9987   */\n      0x00\n        /* \"#utility.yul\":10005:10093   */\n      tag_168\n        /* \"#utility.yul\":10086:10092   */\n      dup4\n        /* \"#utility.yul\":10081:10084   */\n      dup6\n        /* \"#utility.yul\":10005:10093   */\n      tag_70\n      jump\t// in\n    tag_168:\n        /* \"#utility.yul\":9998:10093   */\n      swap4\n      pop\n        /* \"#utility.yul\":10103:10159   */\n      tag_169\n        /* \"#utility.yul\":10152:10158   */\n      dup4\n        /* \"#utility.yul\":10147:10150   */\n      dup6\n        /* \"#utility.yul\":10140:10145   */\n      dup5\n        /* \"#utility.yul\":10103:10159   */\n      tag_71\n      jump\t// in\n    tag_169:\n        /* \"#utility.yul\":10184:10190   */\n      dup3\n        /* \"#utility.yul\":10179:10182   */\n      dup5\n        /* \"#utility.yul\":10175:10191   */\n      add\n        /* \"#utility.yul\":10168:10191   */\n      swap1\n      pop\n        /* \"#utility.yul\":9870:10197   */\n      swap4\n      swap3\n      pop\n      pop\n      pop\n      jump\t// out\n        /* \"#utility.yul\":10203:10494   */\n    tag_32:\n        /* \"#utility.yul\":10343:10346   */\n      0x00\n        /* \"#utility.yul\":10365:10468   */\n      tag_171\n        /* \"#utility.yul\":10464:10467   */\n      dup3\n        /* \"#utility.yul\":10455:10461   */\n      dup5\n        /* \"#utility.yul\":10447:10453   */\n      dup7\n        /* \"#utility.yul\":10365:10468   */\n      tag_72\n      jump\t// in\n    tag_171:\n        /* \"#utility.yul\":10358:10468   */\n      swap2\n      pop\n        /* \"#utility.yul\":10485:10488   */\n      dup2\n        /* \"#utility.yul\":10478:10488   */\n      swap1\n      pop\n        /* \"#utility.yul\":10203:10494   */\n      swap4\n      swap3\n      pop\n      pop\n      pop\n      jump\t// out\n        /* \"#utility.yul\":10500:10659   */\n    tag_73:\n        /* \"#utility.yul\":10640:10651   */\n      0x7478206661696c65640000000000000000000000000000000000000000000000\n        /* \"#utility.yul\":10636:10637   */\n      0x00\n        /* \"#utility.yul\":10628:10634   */\n      dup3\n        /* \"#utility.yul\":10624:10638   */\n      add\n        /* \"#utility.yul\":10617:10652   */\n      mstore\n        /* \"#utility.yul\":10500:10659   */\n      pop\n      jump\t// out\n        /* \"#utility.yul\":10665:11030   */\n    tag_74:\n        /* \"#utility.yul\":10807:10810   */\n      0x00\n        /* \"#utility.yul\":10828:10894   */\n      tag_174\n        /* \"#utility.yul\":10892:10893   */\n      0x09\n        /* \"#utility.yul\":10887:10890   */\n      dup4\n        /* \"#utility.yul\":10828:10894   */\n      tag_60\n      jump\t// in\n    tag_174:\n        /* \"#utility.yul\":10821:10894   */\n      swap2\n      pop\n        /* \"#utility.yul\":10903:10996   */\n      tag_175\n        /* \"#utility.yul\":10992:10995   */\n      dup3\n        /* \"#utility.yul\":10903:10996   */\n      tag_73\n      jump\t// in\n    tag_175:\n        /* \"#utility.yul\":11021:11023   */\n      0x20\n        /* \"#utility.yul\":11016:11019   */\n      dup3\n        /* \"#utility.yul\":11012:11024   */\n      add\n        /* \"#utility.yul\":11005:11024   */\n      swap1\n      pop\n        /* \"#utility.yul\":10665:11030   */\n      swap2\n      swap1\n      pop\n      jump\t// out\n        /* \"#utility.yul\":11036:11455   */\n    tag_38:\n        /* \"#utility.yul\":11202:11206   */\n      0x00\n        /* \"#utility.yul\":11240:11242   */\n      0x20\n        /* \"#utility.yul\":11229:11238   */\n      dup3\n        /* \"#utility.yul\":11225:11243   */\n      add\n        /* \"#utility.yul\":11217:11243   */\n      swap1\n      pop\n        /* \"#utility.yul\":11289:11298   */\n      dup2\n        /* \"#utility.yul\":11283:11287   */\n      dup2\n        /* \"#utility.yul\":11279:11299   */\n      sub\n        /* \"#utility.yul\":11275:11276   */\n      0x00\n        /* \"#utility.yul\":11264:11273   */\n      dup4\n        /* \"#utility.yul\":11260:11277   */\n      add\n        /* \"#utility.yul\":11253:11300   */\n      mstore\n        /* \"#utility.yul\":11317:11448   */\n      tag_177\n        /* \"#utility.yul\":11443:11447   */\n      dup2\n        /* \"#utility.yul\":11317:11448   */\n      tag_74\n      jump\t// in\n    tag_177:\n        /* \"#utility.yul\":11309:11448   */\n      swap1\n      pop\n        /* \"#utility.yul\":11036:11455   */\n      swap2\n      swap1\n      pop\n      jump\t// out\n\n    auxdata: 0xa2646970667358221220ccde298c231f5a3902931c7d6a6f34bfe386c79d6c95723d52ade42e731e0f9f64736f6c63430008170033\n}\n",
				"bytecode": {
					"linkReferences": {},
					"object": "608060405234801561000f575f80fd5b506107908061001d5f395ff3fe608060405234801561000f575f80fd5b5060043610610029575f3560e01c8063da5b4ffd1461002d575b5f80fd5b610047600480360381019061004291906102f6565b61005d565b60405161005491906104b9565b60405180910390f35b60608282905085859050146100a7576040517f08c379a000000000000000000000000000000000000000000000000000000000815260040161009e90610533565b60405180910390fd5b5f8383905067ffffffffffffffff8111156100c5576100c4610551565b5b6040519080825280602002602001820160405280156100f857816020015b60608152602001906001900390816100e35790505b5090505f5b8686905081101561022b575f8088888481811061011d5761011c61057e565b5b90506020020160208101906101329190610605565b73ffffffffffffffffffffffffffffffffffffffff1687878581811061015b5761015a61057e565b5b905060200281019061016d919061063c565b60405161017b9291906106da565b5f60405180830381855afa9150503d805f81146101b3576040519150601f19603f3d011682016040523d82523d5f602084013e6101b8565b606091505b5091509150816101fd576040517f08c379a00000000000000000000000000000000000000000000000000000000081526004016101f49061073c565b60405180910390fd5b808484815181106102115761021061057e565b5b6020026020010181905250505080806001019150506100fd565b5080915050949350505050565b5f80fd5b5f80fd5b5f80fd5b5f80fd5b5f80fd5b5f8083601f84011261026157610260610240565b5b8235905067ffffffffffffffff81111561027e5761027d610244565b5b60208301915083602082028301111561029a57610299610248565b5b9250929050565b5f8083601f8401126102b6576102b5610240565b5b8235905067ffffffffffffffff8111156102d3576102d2610244565b5b6020830191508360208202830111156102ef576102ee610248565b5b9250929050565b5f805f806040858703121561030e5761030d610238565b5b5f85013567ffffffffffffffff81111561032b5761032a61023c565b5b6103378782880161024c565b9450945050602085013567ffffffffffffffff81111561035a5761035961023c565b5b610366878288016102a1565b925092505092959194509250565b5f81519050919050565b5f82825260208201905092915050565b5f819050602082019050919050565b5f81519050919050565b5f82825260208201905092915050565b5f5b838110156103d45780820151818401526020810190506103b9565b5f8484015250505050565b5f601f19601f8301169050919050565b5f6103f98261039d565b61040381856103a7565b93506104138185602086016103b7565b61041c816103df565b840191505092915050565b5f61043283836103ef565b905092915050565b5f602082019050919050565b5f61045082610374565b61045a818561037e565b93508360208202850161046c8561038e565b805f5b858110156104a757848403895281516104888582610427565b94506104938361043a565b925060208a0199505060018101905061046f565b50829750879550505050505092915050565b5f6020820190508181035f8301526104d18184610446565b905092915050565b5f82825260208201905092915050565b7f746172676574206c656e67746820213d2064617461206c656e677468000000005f82015250565b5f61051d601c836104d9565b9150610528826104e9565b602082019050919050565b5f6020820190508181035f83015261054a81610511565b9050919050565b7f4e487b71000000000000000000000000000000000000000000000000000000005f52604160045260245ffd5b7f4e487b71000000000000000000000000000000000000000000000000000000005f52603260045260245ffd5b5f73ffffffffffffffffffffffffffffffffffffffff82169050919050565b5f6105d4826105ab565b9050919050565b6105e4816105ca565b81146105ee575f80fd5b50565b5f813590506105ff816105db565b92915050565b5f6020828403121561061a57610619610238565b5b5f610627848285016105f1565b91505092915050565b5f80fd5b5f80fd5b5f80fd5b5f808335600160200384360303811261065857610657610630565b5b80840192508235915067ffffffffffffffff82111561067a57610679610634565b5b60208301925060018202360383131561069657610695610638565b5b509250929050565b5f81905092915050565b828183375f83830152505050565b5f6106c1838561069e565b93506106ce8385846106a8565b82840190509392505050565b5f6106e68284866106b6565b91508190509392505050565b7f7478206661696c656400000000000000000000000000000000000000000000005f82015250565b5f6107266009836104d9565b9150610731826106f2565b602082019050919050565b5f6020820190508181035f8301526107538161071a565b905091905056fea2646970667358221220ccde298c231f5a3902931c7d6a6f34bfe386c79d6c95723d52ade42e731e0f9f64736f6c63430008170033",
					"opcodes": "PUSH1 0x80 PUSH1 0x40 MSTORE CALLVALUE DUP1 ISZERO PUSH2 0xF JUMPI PUSH0 DUP1 REVERT JUMPDEST POP PUSH2 0x790 DUP1 PUSH2 0x1D PUSH0 CODECOPY PUSH0 RETURN INVALID PUSH1 0x80 PUSH1 0x40 MSTORE CALLVALUE DUP1 ISZERO PUSH2 0xF JUMPI PUSH0 DUP1 REVERT JUMPDEST POP PUSH1 0x4 CALLDATASIZE LT PUSH2 0x29 JUMPI PUSH0 CALLDATALOAD PUSH1 0xE0 SHR DUP1 PUSH4 0xDA5B4FFD EQ PUSH2 0x2D JUMPI JUMPDEST PUSH0 DUP1 REVERT JUMPDEST PUSH2 0x47 PUSH1 0x4 DUP1 CALLDATASIZE SUB DUP2 ADD SWAP1 PUSH2 0x42 SWAP2 SWAP1 PUSH2 0x2F6 JUMP JUMPDEST PUSH2 0x5D JUMP JUMPDEST PUSH1 0x40 MLOAD PUSH2 0x54 SWAP2 SWAP1 PUSH2 0x4B9 JUMP JUMPDEST PUSH1 0x40 MLOAD DUP1 SWAP2 SUB SWAP1 RETURN JUMPDEST PUSH1 0x60 DUP3 DUP3 SWAP1 POP DUP6 DUP6 SWAP1 POP EQ PUSH2 0xA7 JUMPI PUSH1 0x40 MLOAD PUSH32 0x8C379A000000000000000000000000000000000000000000000000000000000 DUP2 MSTORE PUSH1 0x4 ADD PUSH2 0x9E SWAP1 PUSH2 0x533 JUMP JUMPDEST PUSH1 0x40 MLOAD DUP1 SWAP2 SUB SWAP1 REVERT JUMPDEST PUSH0 DUP4 DUP4 SWAP1 POP PUSH8 0xFFFFFFFFFFFFFFFF DUP2 GT ISZERO PUSH2 0xC5 JUMPI PUSH2 0xC4 PUSH2 0x551 JUMP JUMPDEST JUMPDEST PUSH1 0x40 MLOAD SWAP1 DUP1 DUP3 MSTORE DUP1 PUSH1 0x20 MUL PUSH1 0x20 ADD DUP3 ADD PUSH1 0x40 MSTORE DUP1 ISZERO PUSH2 0xF8 JUMPI DUP2 PUSH1 0x20 ADD JUMPDEST PUSH1 0x60 DUP2 MSTORE PUSH1 0x20 ADD SWAP1 PUSH1 0x1 SWAP1 SUB SWAP1 DUP2 PUSH2 0xE3 JUMPI SWAP1 POP JUMPDEST POP SWAP1 POP PUSH0 JUMPDEST DUP7 DUP7 SWAP1 POP DUP2 LT ISZERO PUSH2 0x22B JUMPI PUSH0 DUP1 DUP9 DUP9 DUP5 DUP2 DUP2 LT PUSH2 0x11D JUMPI PUSH2 0x11C PUSH2 0x57E JUMP JUMPDEST JUMPDEST SWAP1 POP PUSH1 0x20 MUL ADD PUSH1 0x20 DUP2 ADD SWAP1 PUSH2 0x132 SWAP2 SWAP1 PUSH2 0x605 JUMP JUMPDEST PUSH20 0xFFFFFFFFFFFFFFFFFFFFFFFFFFFFFFFFFFFFFFFF AND DUP8 DUP8 DUP6 DUP2 DUP2 LT PUSH2 0x15B JUMPI PUSH2 0x15A PUSH2 0x57E JUMP JUMPDEST JUMPDEST SWAP1 POP PUSH1 0x20 MUL DUP2 ADD SWAP1 PUSH2 0x16D SWAP2 SWAP1 PUSH2 0x63C JUMP JUMPDEST PUSH1 0x40 MLOAD PUSH2 0x17B SWAP3 SWAP2 SWAP1 PUSH2 0x6DA JUMP JUMPDEST PUSH0 PUSH1 0x40 MLOAD DUP1 DUP4 SUB DUP2 DUP6 GAS STATICCALL SWAP2 POP POP RETURNDATASIZE DUP1 PUSH0 DUP2 EQ PUSH2 0x1B3 JUMPI PUSH1 0x40 MLOAD SWAP2 POP PUSH1 0x1F NOT PUSH1 0x3F RETURNDATASIZE ADD AND DUP3 ADD PUSH1 0x40 MSTORE RETURNDATASIZE DUP3 MSTORE RETURNDATASIZE PUSH0 PUSH1 0x20 DUP5 ADD RETURNDATACOPY PUSH2 0x1B8 JUMP JUMPDEST PUSH1 0x60 SWAP2 POP JUMPDEST POP SWAP2 POP SWAP2 POP DUP2 PUSH2 0x1FD JUMPI PUSH1 0x40 MLOAD PUSH32 0x8C379A000000000000000000000000000000000000000000000000000000000 DUP2 MSTORE PUSH1 0x4 ADD PUSH2 0x1F4 SWAP1 PUSH2 0x73C JUMP JUMPDEST PUSH1 0x40 MLOAD DUP1 SWAP2 SUB SWAP1 REVERT JUMPDEST DUP1 DUP5 DUP5 DUP2 MLOAD DUP2 LT PUSH2 0x211 JUMPI PUSH2 0x210 PUSH2 0x57E JUMP JUMPDEST JUMPDEST PUSH1 0x20 MUL PUSH1 0x20 ADD ADD DUP2 SWAP1 MSTORE POP POP POP DUP1 DUP1 PUSH1 0x1 ADD SWAP2 POP POP PUSH2 0xFD JUMP JUMPDEST POP DUP1 SWAP2 POP POP SWAP5 SWAP4 POP POP POP POP JUMP JUMPDEST PUSH0 DUP1 REVERT JUMPDEST PUSH0 DUP1 REVERT JUMPDEST PUSH0 DUP1 REVERT JUMPDEST PUSH0 DUP1 REVERT JUMPDEST PUSH0 DUP1 REVERT JUMPDEST PUSH0 DUP1 DUP4 PUSH1 0x1F DUP5 ADD SLT PUSH2 0x261 JUMPI PUSH2 0x260 PUSH2 0x240 JUMP JUMPDEST JUMPDEST DUP3 CALLDATALOAD SWAP1 POP PUSH8 0xFFFFFFFFFFFFFFFF DUP2 GT ISZERO PUSH2 0x27E JUMPI PUSH2 0x27D PUSH2 0x244 JUMP JUMPDEST JUMPDEST PUSH1 0x20 DUP4 ADD SWAP2 POP DUP4 PUSH1 0x20 DUP3 MUL DUP4 ADD GT ISZERO PUSH2 0x29A JUMPI PUSH2 0x299 PUSH2 0x248 JUMP JUMPDEST JUMPDEST SWAP3 POP SWAP3 SWAP1 POP JUMP JUMPDEST PUSH0 DUP1 DUP4 PUSH1 0x1F DUP5 ADD SLT PUSH2 0x2B6 JUMPI PUSH2 0x2B5 PUSH2 0x240 JUMP JUMPDEST JUMPDEST DUP3 CALLDATALOAD SWAP1 POP PUSH8 0xFFFFFFFFFFFFFFFF DUP2 GT ISZERO PUSH2 0x2D3 JUMPI PUSH2 0x2D2 PUSH2 0x244 JUMP JUMPDEST JUMPDEST PUSH1 0x20 DUP4 ADD SWAP2 POP DUP4 PUSH1 0x20 DUP3 MUL DUP4 ADD GT ISZERO PUSH2 0x2EF JUMPI PUSH2 0x2EE PUSH2 0x248 JUMP JUMPDEST JUMPDEST SWAP3 POP SWAP3 SWAP1 POP JUMP JUMPDEST PUSH0 DUP1 PUSH0 DUP1 PUSH1 0x40 DUP6 DUP8 SUB SLT ISZERO PUSH2 0x30E JUMPI PUSH2 0x30D PUSH2 0x238 JUMP JUMPDEST JUMPDEST PUSH0 DUP6 ADD CALLDATALOAD PUSH8 0xFFFFFFFFFFFFFFFF DUP2 GT ISZERO PUSH2 0x32B JUMPI PUSH2 0x32A PUSH2 0x23C JUMP JUMPDEST JUMPDEST PUSH2 0x337 DUP8 DUP3 DUP9 ADD PUSH2 0x24C JUMP JUMPDEST SWAP5 POP SWAP5 POP POP PUSH1 0x20 DUP6 ADD CALLDATALOAD PUSH8 0xFFFFFFFFFFFFFFFF DUP2 GT ISZERO PUSH2 0x35A JUMPI PUSH2 0x359 PUSH2 0x23C JUMP JUMPDEST JUMPDEST PUSH2 0x366 DUP8 DUP3 DUP9 ADD PUSH2 0x2A1 JUMP JUMPDEST SWAP3 POP SWAP3 POP POP SWAP3 SWAP6 SWAP2 SWAP5 POP SWAP3 POP JUMP JUMPDEST PUSH0 DUP2 MLOAD SWAP1 POP SWAP2 SWAP1 POP JUMP JUMPDEST PUSH0 DUP3 DUP3 MSTORE PUSH1 0x20 DUP3 ADD SWAP1 POP SWAP3 SWAP2 POP POP JUMP JUMPDEST PUSH0 DUP2 SWAP1 POP PUSH1 0x20 DUP3 ADD SWAP1 POP SWAP2 SWAP1 POP JUMP JUMPDEST PUSH0 DUP2 MLOAD SWAP1 POP SWAP2 SWAP1 POP JUMP JUMPDEST PUSH0 DUP3 DUP3 MSTORE PUSH1 0x20 DUP3 ADD SWAP1 POP SWAP3 SWAP2 POP POP JUMP JUMPDEST PUSH0 JUMPDEST DUP4 DUP2 LT ISZERO PUSH2 0x3D4 JUMPI DUP1 DUP3 ADD MLOAD DUP2 DUP5 ADD MSTORE PUSH1 0x20 DUP2 ADD SWAP1 POP PUSH2 0x3B9 JUMP JUMPDEST PUSH0 DUP5 DUP5 ADD MSTORE POP POP POP POP JUMP JUMPDEST PUSH0 PUSH1 0x1F NOT PUSH1 0x1F DUP4 ADD AND SWAP1 POP SWAP2 SWAP1 POP JUMP JUMPDEST PUSH0 PUSH2 0x3F9 DUP3 PUSH2 0x39D JUMP JUMPDEST PUSH2 0x403 DUP2 DUP6 PUSH2 0x3A7 JUMP JUMPDEST SWAP4 POP PUSH2 0x413 DUP2 DUP6 PUSH1 0x20 DUP7 ADD PUSH2 0x3B7 JUMP JUMPDEST PUSH2 0x41C DUP2 PUSH2 0x3DF JUMP JUMPDEST DUP5 ADD SWAP2 POP POP SWAP3 SWAP2 POP POP JUMP JUMPDEST PUSH0 PUSH2 0x432 DUP4 DUP4 PUSH2 0x3EF JUMP JUMPDEST SWAP1 POP SWAP3 SWAP2 POP POP JUMP JUMPDEST PUSH0 PUSH1 0x20 DUP3 ADD SWAP1 POP SWAP2 SWAP1 POP JUMP JUMPDEST PUSH0 PUSH2 0x450 DUP3 PUSH2 0x374 JUMP JUMPDEST PUSH2 0x45A DUP2 DUP6 PUSH2 0x37E JUMP JUMPDEST SWAP4 POP DUP4 PUSH1 0x20 DUP3 MUL DUP6 ADD PUSH2 0x46C DUP6 PUSH2 0x38E JUMP JUMPDEST DUP1 PUSH0 JUMPDEST DUP6 DUP2 LT ISZERO PUSH2 0x4A7 JUMPI DUP5 DUP5 SUB DUP10 MSTORE DUP2 MLOAD PUSH2 0x488 DUP6 DUP3 PUSH2 0x427 JUMP JUMPDEST SWAP5 POP PUSH2 0x493 DUP4 PUSH2 0x43A JUMP JUMPDEST SWAP3 POP PUSH1 0x20 DUP11 ADD SWAP10 POP POP PUSH1 0x1 DUP2 ADD SWAP1 POP PUSH2 0x46F JUMP JUMPDEST POP DUP3 SWAP8 POP DUP8 SWAP6 POP POP POP POP POP POP SWAP3 SWAP2 POP POP JUMP JUMPDEST PUSH0 PUSH1 0x20 DUP3 ADD SWAP1 POP DUP2 DUP2 SUB PUSH0 DUP4 ADD MSTORE PUSH2 0x4D1 DUP2 DUP5 PUSH2 0x446 JUMP JUMPDEST SWAP1 POP SWAP3 SWAP2 POP POP JUMP JUMPDEST PUSH0 DUP3 DUP3 MSTORE PUSH1 0x20 DUP3 ADD SWAP1 POP SWAP3 SWAP2 POP POP JUMP JUMPDEST PUSH32 0x746172676574206C656E67746820213D2064617461206C656E67746800000000 PUSH0 DUP3 ADD MSTORE POP JUMP JUMPDEST PUSH0 PUSH2 0x51D PUSH1 0x1C DUP4 PUSH2 0x4D9 JUMP JUMPDEST SWAP2 POP PUSH2 0x528 DUP3 PUSH2 0x4E9 JUMP JUMPDEST PUSH1 0x20 DUP3 ADD SWAP1 POP SWAP2 SWAP1 POP JUMP JUMPDEST PUSH0 PUSH1 0x20 DUP3 ADD SWAP1 POP DUP2 DUP2 SUB PUSH0 DUP4 ADD MSTORE PUSH2 0x54A DUP2 PUSH2 0x511 JUMP JUMPDEST SWAP1 POP SWAP2 SWAP1 POP JUMP JUMPDEST PUSH32 0x4E487B7100000000000000000000000000000000000000000000000000000000 PUSH0 MSTORE PUSH1 0x41 PUSH1 0x4 MSTORE PUSH1 0x24 PUSH0 REVERT JUMPDEST PUSH32 0x4E487B7100000000000000000000000000000000000000000000000000000000 PUSH0 MSTORE PUSH1 0x32 PUSH1 0x4 MSTORE PUSH1 0x24 PUSH0 REVERT JUMPDEST PUSH0 PUSH20 0xFFFFFFFFFFFFFFFFFFFFFFFFFFFFFFFFFFFFFFFF DUP3 AND SWAP1 POP SWAP2 SWAP1 POP JUMP JUMPDEST PUSH0 PUSH2 0x5D4 DUP3 PUSH2 0x5AB JUMP JUMPDEST SWAP1 POP SWAP2 SWAP1 POP JUMP JUMPDEST PUSH2 0x5E4 DUP2 PUSH2 0x5CA JUMP JUMPDEST DUP2 EQ PUSH2 0x5EE JUMPI PUSH0 DUP1 REVERT JUMPDEST POP JUMP JUMPDEST PUSH0 DUP2 CALLDATALOAD SWAP1 POP PUSH2 0x5FF DUP2 PUSH2 0x5DB JUMP JUMPDEST SWAP3 SWAP2 POP POP JUMP JUMPDEST PUSH0 PUSH1 0x20 DUP3 DUP5 SUB SLT ISZERO PUSH2 0x61A JUMPI PUSH2 0x619 PUSH2 0x238 JUMP JUMPDEST JUMPDEST PUSH0 PUSH2 0x627 DUP5 DUP3 DUP6 ADD PUSH2 0x5F1 JUMP JUMPDEST SWAP2 POP POP SWAP3 SWAP2 POP POP JUMP JUMPDEST PUSH0 DUP1 REVERT JUMPDEST PUSH0 DUP1 REVERT JUMPDEST PUSH0 DUP1 REVERT JUMPDEST PUSH0 DUP1 DUP4 CALLDATALOAD PUSH1 0x1 PUSH1 0x20 SUB DUP5 CALLDATASIZE SUB SUB DUP2 SLT PUSH2 0x658 JUMPI PUSH2 0x657 PUSH2 0x630 JUMP JUMPDEST JUMPDEST DUP1 DUP5 ADD SWAP3 POP DUP3 CALLDATALOAD SWAP2 POP PUSH8 0xFFFFFFFFFFFFFFFF DUP3 GT ISZERO PUSH2 0x67A JUMPI PUSH2 0x679 PUSH2 0x634 JUMP JUMPDEST JUMPDEST PUSH1 0x20 DUP4 ADD SWAP3 POP PUSH1 0x1 DUP3 MUL CALLDATASIZE SUB DUP4 SGT ISZERO PUSH2 0x696 JUMPI PUSH2 0x695 PUSH2 0x638 JUMP JUMPDEST JUMPDEST POP SWAP3 POP SWAP3 SWAP1 POP JUMP JUMPDEST PUSH0 DUP2 SWAP1 POP SWAP3 SWAP2 POP POP JUMP JUMPDEST DUP3 DUP2 DUP4 CALLDATACOPY PUSH0 DUP4 DUP4 ADD MSTORE POP POP POP JUMP JUMPDEST PUSH0 PUSH2 0x6C1 DUP4 DUP6 PUSH2 0x69E JUMP JUMPDEST SWAP4 POP PUSH2 0x6CE DUP4 DUP6 DUP5 PUSH2 0x6A8 JUMP JUMPDEST DUP3 DUP5 ADD SWAP1 POP SWAP4 SWAP3 POP POP POP JUMP JUMPDEST PUSH0 PUSH2 0x6E6 DUP3 DUP5 DUP7 PUSH2 0x6B6 JUMP JUMPDEST SWAP2 POP DUP2 SWAP1 POP SWAP4 SWAP3 POP POP POP JUMP JUMPDEST PUSH32 0x7478206661696C65640000000000000000000000000000000000000000000000 PUSH0 DUP3 ADD MSTORE POP JUMP JUMPDEST PUSH0 PUSH2 0x726 PUSH1 0x9 DUP4 PUSH2 0x4D9 JUMP JUMPDEST SWAP2 POP PUSH2 0x731 DUP3 PUSH2 0x6F2 JUMP JUMPDEST PUSH1 0x20 DUP3 ADD SWAP1 POP SWAP2 SWAP1 POP JUMP JUMPDEST PUSH0 PUSH1 0x20 DUP3 ADD SWAP1 POP DUP2 DUP2 SUB PUSH0 DUP4 ADD MSTORE PUSH2 0x753 DUP2 PUSH2 0x71A JUMP JUMPDEST SWAP1 POP SWAP2 SWAP1 POP JUMP INVALID LOG2 PUSH5 0x6970667358 0x22 SLT KECCAK256 0xCC 0xDE 0x29 DUP13 0x23 0x1F GAS CODECOPY MUL SWAP4 SHR PUSH30 0x6A6F34BFE386C79D6C95723D52ADE42E731E0F9F64736F6C634300081700 CALLER "
				},
				"gasEstimates": {
					"creation": {
						"codeDepositCost": "387200",
						"executionCost": "422",
						"totalCost": "387622"
					},
					"external": {
						"multiCall(address[],bytes[])": "infinite"
					}
				},
				"methodIdentifiers": {
					"multiCall(address[],bytes[])": "da5b4ffd"
				}
			},
			"storageLayout": {
				"storage": [],
				"types": null
			},
			"userdoc": {
				"kind": "user",
				"methods": {},
				"version": 1
			}
		}
	}
}