{
	"tests/InputAndOutputFallback.sol": {
		"TestFallback": {
			"abi": [
				{
					"anonymous": false,
					"inputs": [
						{
							"indexed": false,
							"internalType": "bytes",
							"name": "res",
							"type": "bytes"
						}
					],
					"name": "Log",
					"type": "event"
				},
				{
					"inputs": [],
					"name": "getTestData",
					"outputs": [
						{
							"internalType": "bytes",
							"name": "",
							"type": "bytes"
						}
					],
					"stateMutability": "pure",
					"type": "function"
				},
				{
					"inputs": [
						{
							"internalType": "address",
							"name": "_fallback",
							"type": "address"
						},
						{
							"internalType": "bytes",
							"name": "data",
							"type": "bytes"
						}
					],
					"name": "test",
					"outputs": [],
					"stateMutability": "nonpayable",
					"type": "function"
				}
			],
			"devdoc": {
				"kind": "dev",
				"methods": {},
				"version": 1
			},
			"evm": {
				"assembly": "    /* \"tests/InputAndOutputFallback.sol\":628:1006  contract TestFallback {... */\n  mstore(0x40, 0x80)\n  callvalue\n  dup1\n  iszero\n  tag_1\n  jumpi\n  0x00\n  dup1\n  revert\ntag_1:\n  pop\n  dataSize(sub_0)\n  dup1\n  dataOffset(sub_0)\n  0x00\n  codecopy\n  0x00\n  return\nstop\n\nsub_0: assembly {\n        /* \"tests/InputAndOutputFallback.sol\":628:1006  contract TestFallback {... */\n      mstore(0x40, 0x80)\n      callvalue\n      dup1\n      iszero\n      tag_1\n      jumpi\n      0x00\n      dup1\n      revert\n    tag_1:\n      pop\n      jumpi(tag_2, lt(calldatasize, 0x04))\n      shr(0xe0, calldataload(0x00))\n      dup1\n      0x6610f5ca\n      eq\n      tag_3\n      jumpi\n      dup1\n      0x93e01418\n      eq\n      tag_4\n      jumpi\n    tag_2:\n      0x00\n      dup1\n      revert\n        /* \"tests/InputAndOutputFallback.sol\":887:1003  function getTestData() external pure returns(bytes memory) {... */\n    tag_3:\n      tag_5\n      tag_6\n      jump\t// in\n    tag_5:\n      mload(0x40)\n      tag_7\n      swap2\n      swap1\n      tag_8\n      jump\t// in\n    tag_7:\n      mload(0x40)\n      dup1\n      swap2\n      sub\n      swap1\n      return\n        /* \"tests/InputAndOutputFallback.sol\":686:879  function test(address _fallback, bytes calldata data) external {... */\n    tag_4:\n      tag_9\n      0x04\n      dup1\n      calldatasize\n      sub\n      dup2\n      add\n      swap1\n      tag_10\n      swap2\n      swap1\n      tag_11\n      jump\t// in\n    tag_10:\n      tag_12\n      jump\t// in\n    tag_9:\n      stop\n        /* \"tests/InputAndOutputFallback.sol\":887:1003  function getTestData() external pure returns(bytes memory) {... */\n    tag_6:\n        /* \"tests/InputAndOutputFallback.sol\":932:944  bytes memory */\n      0x60\n        /* \"tests/InputAndOutputFallback.sol\":964:995  abi.encodeCall(Counter.inc, ()) */\n      add(0x24, mload(0x40))\n      mload(0x40)\n      0x20\n      dup2\n      dup4\n      sub\n      sub\n      dup2\n      mstore\n      swap1\n      0x40\n      mstore\n      shl(0xe0, 0x371303c0)\n      0x20\n      dup3\n      add\n      dup1\n      mload\n      0xffffffffffffffffffffffffffffffffffffffffffffffffffffffff\n      dup4\n      dup2\n      dup4\n      and\n      or\n      dup4\n      mstore\n      pop\n      pop\n      pop\n      pop\n        /* \"tests/InputAndOutputFallback.sol\":957:995  return abi.encodeCall(Counter.inc, ()) */\n      swap1\n      pop\n        /* \"tests/InputAndOutputFallback.sol\":887:1003  function getTestData() external pure returns(bytes memory) {... */\n      swap1\n      jump\t// out\n        /* \"tests/InputAndOutputFallback.sol\":686:879  function test(address _fallback, bytes calldata data) external {... */\n    tag_12:\n        /* \"tests/InputAndOutputFallback.sol\":761:768  bool ok */\n      0x00\n        /* \"tests/InputAndOutputFallback.sol\":770:786  bytes memory res */\n      dup1\n        /* \"tests/InputAndOutputFallback.sol\":790:799  _fallback */\n      dup5\n        /* \"tests/InputAndOutputFallback.sol\":790:804  _fallback.call */\n      0xffffffffffffffffffffffffffffffffffffffff\n      and\n        /* \"tests/InputAndOutputFallback.sol\":805:809  data */\n      dup5\n      dup5\n        /* \"tests/InputAndOutputFallback.sol\":790:810  _fallback.call(data) */\n      mload(0x40)\n      tag_15\n      swap3\n      swap2\n      swap1\n      tag_16\n      jump\t// in\n    tag_15:\n      0x00\n      mload(0x40)\n      dup1\n      dup4\n      sub\n      dup2\n      0x00\n      dup7\n      gas\n      call\n      swap2\n      pop\n      pop\n      returndatasize\n      dup1\n      0x00\n      dup2\n      eq\n      tag_19\n      jumpi\n      mload(0x40)\n      swap2\n      pop\n      and(add(returndatasize, 0x3f), not(0x1f))\n      dup3\n      add\n      0x40\n      mstore\n      returndatasize\n      dup3\n      mstore\n      returndatasize\n      0x00\n      0x20\n      dup5\n      add\n      returndatacopy\n      jump(tag_18)\n    tag_19:\n      0x60\n      swap2\n      pop\n    tag_18:\n      pop\n        /* \"tests/InputAndOutputFallback.sol\":760:810  (bool ok, bytes memory res) = _fallback.call(data) */\n      swap2\n      pop\n      swap2\n      pop\n        /* \"tests/InputAndOutputFallback.sol\":829:831  ok */\n      dup2\n        /* \"tests/InputAndOutputFallback.sol\":821:847  require(ok, \"call failed\") */\n      tag_20\n      jumpi\n      mload(0x40)\n      0x08c379a000000000000000000000000000000000000000000000000000000000\n      dup2\n      mstore\n      0x04\n      add\n      tag_21\n      swap1\n      tag_22\n      jump\t// in\n    tag_21:\n      mload(0x40)\n      dup1\n      swap2\n      sub\n      swap1\n      revert\n    tag_20:\n        /* \"tests/InputAndOutputFallback.sol\":863:871  Log(res) */\n      0xafabcf2dd47e06a477a89e49c03f8ebe8e0a7e94f775b25bbb24227c9d0110b2\n        /* \"tests/InputAndOutputFallback.sol\":867:870  res */\n      dup2\n        /* \"tests/InputAndOutputFallback.sol\":863:871  Log(res) */\n      mload(0x40)\n      tag_23\n      swap2\n      swap1\n      tag_8\n      jump\t// in\n    tag_23:\n      mload(0x40)\n      dup1\n      swap2\n      sub\n      swap1\n      log1\n        /* \"tests/InputAndOutputFallback.sol\":749:879  {... */\n      pop\n      pop\n        /* \"tests/InputAndOutputFallback.sol\":686:879  function test(address _fallback, bytes calldata data) external {... */\n      pop\n      pop\n      pop\n      jump\t// out\n        /* \"#utility.yul\":7:105   */\n    tag_24:\n        /* \"#utility.yul\":58:64   */\n      0x00\n        /* \"#utility.yul\":92:97   */\n      dup2\n        /* \"#utility.yul\":86:98   */\n      mload\n        /* \"#utility.yul\":76:98   */\n      swap1\n      pop\n        /* \"#utility.yul\":7:105   */\n      swap2\n      swap1\n      pop\n      jump\t// out\n        /* \"#utility.yul\":111:279   */\n    tag_25:\n        /* \"#utility.yul\":194:205   */\n      0x00\n        /* \"#utility.yul\":228:234   */\n      dup3\n        /* \"#utility.yul\":223:226   */\n      dup3\n        /* \"#utility.yul\":216:235   */\n      mstore\n        /* \"#utility.yul\":268:272   */\n      0x20\n        /* \"#utility.yul\":263:266   */\n      dup3\n        /* \"#utility.yul\":259:273   */\n      add\n        /* \"#utility.yul\":244:273   */\n      swap1\n      pop\n        /* \"#utility.yul\":111:279   */\n      swap3\n      swap2\n      pop\n      pop\n      jump\t// out\n        /* \"#utility.yul\":285:531   */\n    tag_26:\n        /* \"#utility.yul\":366:367   */\n      0x00\n        /* \"#utility.yul\":376:489   */\n    tag_50:\n        /* \"#utility.yul\":390:396   */\n      dup4\n        /* \"#utility.yul\":387:388   */\n      dup2\n        /* \"#utility.yul\":384:397   */\n      lt\n        /* \"#utility.yul\":376:489   */\n      iszero\n      tag_52\n      jumpi\n        /* \"#utility.yul\":475:476   */\n      dup1\n        /* \"#utility.yul\":470:473   */\n      dup3\n        /* \"#utility.yul\":466:477   */\n      add\n        /* \"#utility.yul\":460:478   */\n      mload\n        /* \"#utility.yul\":456:457   */\n      dup2\n        /* \"#utility.yul\":451:454   */\n      dup5\n        /* \"#utility.yul\":447:458   */\n      add\n        /* \"#utility.yul\":440:479   */\n      mstore\n        /* \"#utility.yul\":412:414   */\n      0x20\n        /* \"#utility.yul\":409:410   */\n      dup2\n        /* \"#utility.yul\":405:415   */\n      add\n        /* \"#utility.yul\":400:415   */\n      swap1\n      pop\n        /* \"#utility.yul\":376:489   */\n      jump(tag_50)\n    tag_52:\n        /* \"#utility.yul\":523:524   */\n      0x00\n        /* \"#utility.yul\":514:520   */\n      dup5\n        /* \"#utility.yul\":509:512   */\n      dup5\n        /* \"#utility.yul\":505:521   */\n      add\n        /* \"#utility.yul\":498:525   */\n      mstore\n        /* \"#utility.yul\":347:531   */\n      pop\n        /* \"#utility.yul\":285:531   */\n      pop\n      pop\n      pop\n      jump\t// out\n        /* \"#utility.yul\":537:639   */\n    tag_27:\n        /* \"#utility.yul\":578:584   */\n      0x00\n        /* \"#utility.yul\":629:631   */\n      0x1f\n        /* \"#utility.yul\":625:632   */\n      not\n        /* \"#utility.yul\":620:622   */\n      0x1f\n        /* \"#utility.yul\":613:618   */\n      dup4\n        /* \"#utility.yul\":609:623   */\n      add\n        /* \"#utility.yul\":605:633   */\n      and\n        /* \"#utility.yul\":595:633   */\n      swap1\n      pop\n        /* \"#utility.yul\":537:639   */\n      swap2\n      swap1\n      pop\n      jump\t// out\n        /* \"#utility.yul\":645:1018   */\n    tag_28:\n        /* \"#utility.yul\":731:734   */\n      0x00\n        /* \"#utility.yul\":759:797   */\n      tag_55\n        /* \"#utility.yul\":791:796   */\n      dup3\n        /* \"#utility.yul\":759:797   */\n      tag_24\n      jump\t// in\n    tag_55:\n        /* \"#utility.yul\":813:883   */\n      tag_56\n        /* \"#utility.yul\":876:882   */\n      dup2\n        /* \"#utility.yul\":871:874   */\n      dup6\n        /* \"#utility.yul\":813:883   */\n      tag_25\n      jump\t// in\n    tag_56:\n        /* \"#utility.yul\":806:883   */\n      swap4\n      pop\n        /* \"#utility.yul\":892:957   */\n      tag_57\n        /* \"#utility.yul\":950:956   */\n      dup2\n        /* \"#utility.yul\":945:948   */\n      dup6\n        /* \"#utility.yul\":938:942   */\n      0x20\n        /* \"#utility.yul\":931:936   */\n      dup7\n        /* \"#utility.yul\":927:943   */\n      add\n        /* \"#utility.yul\":892:957   */\n      tag_26\n      jump\t// in\n    tag_57:\n        /* \"#utility.yul\":982:1011   */\n      tag_58\n        /* \"#utility.yul\":1004:1010   */\n      dup2\n        /* \"#utility.yul\":982:1011   */\n      tag_27\n      jump\t// in\n    tag_58:\n        /* \"#utility.yul\":977:980   */\n      dup5\n        /* \"#utility.yul\":973:1012   */\n      add\n        /* \"#utility.yul\":966:1012   */\n      swap2\n      pop\n        /* \"#utility.yul\":735:1018   */\n      pop\n        /* \"#utility.yul\":645:1018   */\n      swap3\n      swap2\n      pop\n      pop\n      jump\t// out\n        /* \"#utility.yul\":1024:1333   */\n    tag_8:\n        /* \"#utility.yul\":1135:1139   */\n      0x00\n        /* \"#utility.yul\":1173:1175   */\n      0x20\n        /* \"#utility.yul\":1162:1171   */\n      dup3\n        /* \"#utility.yul\":1158:1176   */\n      add\n        /* \"#utility.yul\":1150:1176   */\n      swap1\n      pop\n        /* \"#utility.yul\":1222:1231   */\n      dup2\n        /* \"#utility.yul\":1216:1220   */\n      dup2\n        /* \"#utility.yul\":1212:1232   */\n      sub\n        /* \"#utility.yul\":1208:1209   */\n      0x00\n        /* \"#utility.yul\":1197:1206   */\n      dup4\n        /* \"#utility.yul\":1193:1210   */\n      add\n        /* \"#utility.yul\":1186:1233   */\n      mstore\n        /* \"#utility.yul\":1250:1326   */\n      tag_60\n        /* \"#utility.yul\":1321:1325   */\n      dup2\n        /* \"#utility.yul\":1312:1318   */\n      dup5\n        /* \"#utility.yul\":1250:1326   */\n      tag_28\n      jump\t// in\n    tag_60:\n        /* \"#utility.yul\":1242:1326   */\n      swap1\n      pop\n        /* \"#utility.yul\":1024:1333   */\n      swap3\n      swap2\n      pop\n      pop\n      jump\t// out\n        /* \"#utility.yul\":1420:1537   */\n    tag_30:\n        /* \"#utility.yul\":1529:1530   */\n      0x00\n        /* \"#utility.yul\":1526:1527   */\n      dup1\n        /* \"#utility.yul\":1519:1531   */\n      revert\n        /* \"#utility.yul\":1543:1660   */\n    tag_31:\n        /* \"#utility.yul\":1652:1653   */\n      0x00\n        /* \"#utility.yul\":1649:1650   */\n      dup1\n        /* \"#utility.yul\":1642:1654   */\n      revert\n        /* \"#utility.yul\":1666:1792   */\n    tag_32:\n        /* \"#utility.yul\":1703:1710   */\n      0x00\n        /* \"#utility.yul\":1743:1785   */\n      0xffffffffffffffffffffffffffffffffffffffff\n        /* \"#utility.yul\":1736:1741   */\n      dup3\n        /* \"#utility.yul\":1732:1786   */\n      and\n        /* \"#utility.yul\":1721:1786   */\n      swap1\n      pop\n        /* \"#utility.yul\":1666:1792   */\n      swap2\n      swap1\n      pop\n      jump\t// out\n        /* \"#utility.yul\":1798:1894   */\n    tag_33:\n        /* \"#utility.yul\":1835:1842   */\n      0x00\n        /* \"#utility.yul\":1864:1888   */\n      tag_66\n        /* \"#utility.yul\":1882:1887   */\n      dup3\n        /* \"#utility.yul\":1864:1888   */\n      tag_32\n      jump\t// in\n    tag_66:\n        /* \"#utility.yul\":1853:1888   */\n      swap1\n      pop\n        /* \"#utility.yul\":1798:1894   */\n      swap2\n      swap1\n      pop\n      jump\t// out\n        /* \"#utility.yul\":1900:2022   */\n    tag_34:\n        /* \"#utility.yul\":1973:1997   */\n      tag_68\n        /* \"#utility.yul\":1991:1996   */\n      dup2\n        /* \"#utility.yul\":1973:1997   */\n      tag_33\n      jump\t// in\n    tag_68:\n        /* \"#utility.yul\":1966:1971   */\n      dup2\n        /* \"#utility.yul\":1963:1998   */\n      eq\n        /* \"#utility.yul\":1953:2016   */\n      tag_69\n      jumpi\n        /* \"#utility.yul\":2012:2013   */\n      0x00\n        /* \"#utility.yul\":2009:2010   */\n      dup1\n        /* \"#utility.yul\":2002:2014   */\n      revert\n        /* \"#utility.yul\":1953:2016   */\n    tag_69:\n        /* \"#utility.yul\":1900:2022   */\n      pop\n      jump\t// out\n        /* \"#utility.yul\":2028:2167   */\n    tag_35:\n        /* \"#utility.yul\":2074:2079   */\n      0x00\n        /* \"#utility.yul\":2112:2118   */\n      dup2\n        /* \"#utility.yul\":2099:2119   */\n      calldataload\n        /* \"#utility.yul\":2090:2119   */\n      swap1\n      pop\n        /* \"#utility.yul\":2128:2161   */\n      tag_71\n        /* \"#utility.yul\":2155:2160   */\n      dup2\n        /* \"#utility.yul\":2128:2161   */\n      tag_34\n      jump\t// in\n    tag_71:\n        /* \"#utility.yul\":2028:2167   */\n      swap3\n      swap2\n      pop\n      pop\n      jump\t// out\n        /* \"#utility.yul\":2173:2290   */\n    tag_36:\n        /* \"#utility.yul\":2282:2283   */\n      0x00\n        /* \"#utility.yul\":2279:2280   */\n      dup1\n        /* \"#utility.yul\":2272:2284   */\n      revert\n        /* \"#utility.yul\":2296:2413   */\n    tag_37:\n        /* \"#utility.yul\":2405:2406   */\n      0x00\n        /* \"#utility.yul\":2402:2403   */\n      dup1\n        /* \"#utility.yul\":2395:2407   */\n      revert\n        /* \"#utility.yul\":2419:2536   */\n    tag_38:\n        /* \"#utility.yul\":2528:2529   */\n      0x00\n        /* \"#utility.yul\":2525:2526   */\n      dup1\n        /* \"#utility.yul\":2518:2530   */\n      revert\n        /* \"#utility.yul\":2555:3107   */\n    tag_39:\n        /* \"#utility.yul\":2612:2620   */\n      0x00\n        /* \"#utility.yul\":2622:2628   */\n      dup1\n        /* \"#utility.yul\":2672:2675   */\n      dup4\n        /* \"#utility.yul\":2665:2669   */\n      0x1f\n        /* \"#utility.yul\":2657:2663   */\n      dup5\n        /* \"#utility.yul\":2653:2670   */\n      add\n        /* \"#utility.yul\":2649:2676   */\n      slt\n        /* \"#utility.yul\":2639:2761   */\n      tag_76\n      jumpi\n        /* \"#utility.yul\":2680:2759   */\n      tag_77\n      tag_36\n      jump\t// in\n    tag_77:\n        /* \"#utility.yul\":2639:2761   */\n    tag_76:\n        /* \"#utility.yul\":2793:2799   */\n      dup3\n        /* \"#utility.yul\":2780:2800   */\n      calldataload\n        /* \"#utility.yul\":2770:2800   */\n      swap1\n      pop\n        /* \"#utility.yul\":2823:2841   */\n      0xffffffffffffffff\n        /* \"#utility.yul\":2815:2821   */\n      dup2\n        /* \"#utility.yul\":2812:2842   */\n      gt\n        /* \"#utility.yul\":2809:2926   */\n      iszero\n      tag_78\n      jumpi\n        /* \"#utility.yul\":2845:2924   */\n      tag_79\n      tag_37\n      jump\t// in\n    tag_79:\n        /* \"#utility.yul\":2809:2926   */\n    tag_78:\n        /* \"#utility.yul\":2959:2963   */\n      0x20\n        /* \"#utility.yul\":2951:2957   */\n      dup4\n        /* \"#utility.yul\":2947:2964   */\n      add\n        /* \"#utility.yul\":2935:2964   */\n      swap2\n      pop\n        /* \"#utility.yul\":3013:3016   */\n      dup4\n        /* \"#utility.yul\":3005:3009   */\n      0x01\n        /* \"#utility.yul\":2997:3003   */\n      dup3\n        /* \"#utility.yul\":2993:3010   */\n      mul\n        /* \"#utility.yul\":2983:2991   */\n      dup4\n        /* \"#utility.yul\":2979:3011   */\n      add\n        /* \"#utility.yul\":2976:3017   */\n      gt\n        /* \"#utility.yul\":2973:3101   */\n      iszero\n      tag_80\n      jumpi\n        /* \"#utility.yul\":3020:3099   */\n      tag_81\n      tag_38\n      jump\t// in\n    tag_81:\n        /* \"#utility.yul\":2973:3101   */\n    tag_80:\n        /* \"#utility.yul\":2555:3107   */\n      swap3\n      pop\n      swap3\n      swap1\n      pop\n      jump\t// out\n        /* \"#utility.yul\":3113:3785   */\n    tag_11:\n        /* \"#utility.yul\":3192:3198   */\n      0x00\n        /* \"#utility.yul\":3200:3206   */\n      dup1\n        /* \"#utility.yul\":3208:3214   */\n      0x00\n        /* \"#utility.yul\":3257:3259   */\n      0x40\n        /* \"#utility.yul\":3245:3254   */\n      dup5\n        /* \"#utility.yul\":3236:3243   */\n      dup7\n        /* \"#utility.yul\":3232:3255   */\n      sub\n        /* \"#utility.yul\":3228:3260   */\n      slt\n        /* \"#utility.yul\":3225:3344   */\n      iszero\n      tag_83\n      jumpi\n        /* \"#utility.yul\":3263:3342   */\n      tag_84\n      tag_30\n      jump\t// in\n    tag_84:\n        /* \"#utility.yul\":3225:3344   */\n    tag_83:\n        /* \"#utility.yul\":3383:3384   */\n      0x00\n        /* \"#utility.yul\":3408:3461   */\n      tag_85\n        /* \"#utility.yul\":3453:3460   */\n      dup7\n        /* \"#utility.yul\":3444:3450   */\n      dup3\n        /* \"#utility.yul\":3433:3442   */\n      dup8\n        /* \"#utility.yul\":3429:3451   */\n      add\n        /* \"#utility.yul\":3408:3461   */\n      tag_35\n      jump\t// in\n    tag_85:\n        /* \"#utility.yul\":3398:3461   */\n      swap4\n      pop\n        /* \"#utility.yul\":3354:3471   */\n      pop\n        /* \"#utility.yul\":3538:3540   */\n      0x20\n        /* \"#utility.yul\":3527:3536   */\n      dup5\n        /* \"#utility.yul\":3523:3541   */\n      add\n        /* \"#utility.yul\":3510:3542   */\n      calldataload\n        /* \"#utility.yul\":3569:3587   */\n      0xffffffffffffffff\n        /* \"#utility.yul\":3561:3567   */\n      dup2\n        /* \"#utility.yul\":3558:3588   */\n      gt\n        /* \"#utility.yul\":3555:3672   */\n      iszero\n      tag_86\n      jumpi\n        /* \"#utility.yul\":3591:3670   */\n      tag_87\n      tag_31\n      jump\t// in\n    tag_87:\n        /* \"#utility.yul\":3555:3672   */\n    tag_86:\n        /* \"#utility.yul\":3704:3768   */\n      tag_88\n        /* \"#utility.yul\":3760:3767   */\n      dup7\n        /* \"#utility.yul\":3751:3757   */\n      dup3\n        /* \"#utility.yul\":3740:3749   */\n      dup8\n        /* \"#utility.yul\":3736:3758   */\n      add\n        /* \"#utility.yul\":3704:3768   */\n      tag_39\n      jump\t// in\n    tag_88:\n        /* \"#utility.yul\":3686:3768   */\n      swap3\n      pop\n      swap3\n      pop\n        /* \"#utility.yul\":3481:3778   */\n      pop\n        /* \"#utility.yul\":3113:3785   */\n      swap3\n      pop\n      swap3\n      pop\n      swap3\n      jump\t// out\n        /* \"#utility.yul\":3791:3938   */\n    tag_40:\n        /* \"#utility.yul\":3892:3903   */\n      0x00\n        /* \"#utility.yul\":3929:3932   */\n      dup2\n        /* \"#utility.yul\":3914:3932   */\n      swap1\n      pop\n        /* \"#utility.yul\":3791:3938   */\n      swap3\n      swap2\n      pop\n      pop\n      jump\t// out\n        /* \"#utility.yul\":3944:4090   */\n    tag_41:\n        /* \"#utility.yul\":4041:4047   */\n      dup3\n        /* \"#utility.yul\":4036:4039   */\n      dup2\n        /* \"#utility.yul\":4031:4034   */\n      dup4\n        /* \"#utility.yul\":4018:4048   */\n      calldatacopy\n        /* \"#utility.yul\":4082:4083   */\n      0x00\n        /* \"#utility.yul\":4073:4079   */\n      dup4\n        /* \"#utility.yul\":4068:4071   */\n      dup4\n        /* \"#utility.yul\":4064:4080   */\n      add\n        /* \"#utility.yul\":4057:4084   */\n      mstore\n        /* \"#utility.yul\":3944:4090   */\n      pop\n      pop\n      pop\n      jump\t// out\n        /* \"#utility.yul\":4118:4445   */\n    tag_42:\n        /* \"#utility.yul\":4232:4235   */\n      0x00\n        /* \"#utility.yul\":4253:4341   */\n      tag_92\n        /* \"#utility.yul\":4334:4340   */\n      dup4\n        /* \"#utility.yul\":4329:4332   */\n      dup6\n        /* \"#utility.yul\":4253:4341   */\n      tag_40\n      jump\t// in\n    tag_92:\n        /* \"#utility.yul\":4246:4341   */\n      swap4\n      pop\n        /* \"#utility.yul\":4351:4407   */\n      tag_93\n        /* \"#utility.yul\":4400:4406   */\n      dup4\n        /* \"#utility.yul\":4395:4398   */\n      dup6\n        /* \"#utility.yul\":4388:4393   */\n      dup5\n        /* \"#utility.yul\":4351:4407   */\n      tag_41\n      jump\t// in\n    tag_93:\n        /* \"#utility.yul\":4432:4438   */\n      dup3\n        /* \"#utility.yul\":4427:4430   */\n      dup5\n        /* \"#utility.yul\":4423:4439   */\n      add\n        /* \"#utility.yul\":4416:4439   */\n      swap1\n      pop\n        /* \"#utility.yul\":4118:4445   */\n      swap4\n      swap3\n      pop\n      pop\n      pop\n      jump\t// out\n        /* \"#utility.yul\":4451:4742   */\n    tag_16:\n        /* \"#utility.yul\":4591:4594   */\n      0x00\n        /* \"#utility.yul\":4613:4716   */\n      tag_95\n        /* \"#utility.yul\":4712:4715   */\n      dup3\n        /* \"#utility.yul\":4703:4709   */\n      dup5\n        /* \"#utility.yul\":4695:4701   */\n      dup7\n        /* \"#utility.yul\":4613:4716   */\n      tag_42\n      jump\t// in\n    tag_95:\n        /* \"#utility.yul\":4606:4716   */\n      swap2\n      pop\n        /* \"#utility.yul\":4733:4736   */\n      dup2\n        /* \"#utility.yul\":4726:4736   */\n      swap1\n      pop\n        /* \"#utility.yul\":4451:4742   */\n      swap4\n      swap3\n      pop\n      pop\n      pop\n      jump\t// out\n        /* \"#utility.yul\":4748:4917   */\n    tag_43:\n        /* \"#utility.yul\":4832:4843   */\n      0x00\n        /* \"#utility.yul\":4866:4872   */\n      dup3\n        /* \"#utility.yul\":4861:4864   */\n      dup3\n        /* \"#utility.yul\":4854:4873   */\n      mstore\n        /* \"#utility.yul\":4906:4910   */\n      0x20\n        /* \"#utility.yul\":4901:4904   */\n      dup3\n        /* \"#utility.yul\":4897:4911   */\n      add\n        /* \"#utility.yul\":4882:4911   */\n      swap1\n      pop\n        /* \"#utility.yul\":4748:4917   */\n      swap3\n      swap2\n      pop\n      pop\n      jump\t// out\n        /* \"#utility.yul\":4923:5084   */\n    tag_44:\n        /* \"#utility.yul\":5063:5076   */\n      0x63616c6c206661696c6564000000000000000000000000000000000000000000\n        /* \"#utility.yul\":5059:5060   */\n      0x00\n        /* \"#utility.yul\":5051:5057   */\n      dup3\n        /* \"#utility.yul\":5047:5061   */\n      add\n        /* \"#utility.yul\":5040:5077   */\n      mstore\n        /* \"#utility.yul\":4923:5084   */\n      pop\n      jump\t// out\n        /* \"#utility.yul\":5090:5456   */\n    tag_45:\n        /* \"#utility.yul\":5232:5235   */\n      0x00\n        /* \"#utility.yul\":5253:5320   */\n      tag_99\n        /* \"#utility.yul\":5317:5319   */\n      0x0b\n        /* \"#utility.yul\":5312:5315   */\n      dup4\n        /* \"#utility.yul\":5253:5320   */\n      tag_43\n      jump\t// in\n    tag_99:\n        /* \"#utility.yul\":5246:5320   */\n      swap2\n      pop\n        /* \"#utility.yul\":5329:5422   */\n      tag_100\n        /* \"#utility.yul\":5418:5421   */\n      dup3\n        /* \"#utility.yul\":5329:5422   */\n      tag_44\n      jump\t// in\n    tag_100:\n        /* \"#utility.yul\":5447:5449   */\n      0x20\n        /* \"#utility.yul\":5442:5445   */\n      dup3\n        /* \"#utility.yul\":5438:5450   */\n      add\n        /* \"#utility.yul\":5431:5450   */\n      swap1\n      pop\n        /* \"#utility.yul\":5090:5456   */\n      swap2\n      swap1\n      pop\n      jump\t// out\n        /* \"#utility.yul\":5462:5881   */\n    tag_22:\n        /* \"#utility.yul\":5628:5632   */\n      0x00\n        /* \"#utility.yul\":5666:5668   */\n      0x20\n        /* \"#utility.yul\":5655:5664   */\n      dup3\n        /* \"#utility.yul\":5651:5669   */\n      add\n        /* \"#utility.yul\":5643:5669   */\n      swap1\n      pop\n        /* \"#utility.yul\":5715:5724   */\n      dup2\n        /* \"#utility.yul\":5709:5713   */\n      dup2\n        /* \"#utility.yul\":5705:5725   */\n      sub\n        /* \"#utility.yul\":5701:5702   */\n      0x00\n        /* \"#utility.yul\":5690:5699   */\n      dup4\n        /* \"#utility.yul\":5686:5703   */\n      add\n        /* \"#utility.yul\":5679:5726   */\n      mstore\n        /* \"#utility.yul\":5743:5874   */\n      tag_102\n        /* \"#utility.yul\":5869:5873   */\n      dup2\n        /* \"#utility.yul\":5743:5874   */\n      tag_45\n      jump\t// in\n    tag_102:\n        /* \"#utility.yul\":5735:5874   */\n      swap1\n      pop\n        /* \"#utility.yul\":5462:5881   */\n      swap2\n      swap1\n      pop\n      jump\t// out\n\n    auxdata: 0xa26469706673582212204d5c2571023a2713741547fe8d8c954221826b5ec6c9612485a41714d61a6a7e64736f6c63430008180033\n}\n",
				"bytecode": {
					"linkReferences": {},
					"object": "608060405234801561000f575f80fd5b5061047a8061001d5f395ff3fe608060405234801561000f575f80fd5b5060043610610034575f3560e01c80636610f5ca1461003857806393e0141814610056575b5f80fd5b610040610072565b60405161004d9190610238565b60405180910390f35b610070600480360381019061006b919061031b565b6100c4565b005b606060405160240160405160208183030381529060405263371303c060e01b6020820180517bffffffffffffffffffffffffffffffffffffffffffffffffffffffff8381831617835250505050905090565b5f808473ffffffffffffffffffffffffffffffffffffffff1684846040516100ed9291906103b4565b5f604051808303815f865af19150503d805f8114610126576040519150601f19603f3d011682016040523d82523d5f602084013e61012b565b606091505b509150915081610170576040517f08c379a000000000000000000000000000000000000000000000000000000000815260040161016790610426565b60405180910390fd5b7fafabcf2dd47e06a477a89e49c03f8ebe8e0a7e94f775b25bbb24227c9d0110b28160405161019f9190610238565b60405180910390a15050505050565b5f81519050919050565b5f82825260208201905092915050565b5f5b838110156101e55780820151818401526020810190506101ca565b5f8484015250505050565b5f601f19601f8301169050919050565b5f61020a826101ae565b61021481856101b8565b93506102248185602086016101c8565b61022d816101f0565b840191505092915050565b5f6020820190508181035f8301526102508184610200565b905092915050565b5f80fd5b5f80fd5b5f73ffffffffffffffffffffffffffffffffffffffff82169050919050565b5f61028982610260565b9050919050565b6102998161027f565b81146102a3575f80fd5b50565b5f813590506102b481610290565b92915050565b5f80fd5b5f80fd5b5f80fd5b5f8083601f8401126102db576102da6102ba565b5b8235905067ffffffffffffffff8111156102f8576102f76102be565b5b602083019150836001820283011115610314576103136102c2565b5b9250929050565b5f805f6040848603121561033257610331610258565b5b5f61033f868287016102a6565b935050602084013567ffffffffffffffff8111156103605761035f61025c565b5b61036c868287016102c6565b92509250509250925092565b5f81905092915050565b828183375f83830152505050565b5f61039b8385610378565b93506103a8838584610382565b82840190509392505050565b5f6103c0828486610390565b91508190509392505050565b5f82825260208201905092915050565b7f63616c6c206661696c65640000000000000000000000000000000000000000005f82015250565b5f610410600b836103cc565b915061041b826103dc565b602082019050919050565b5f6020820190508181035f83015261043d81610404565b905091905056fea26469706673582212204d5c2571023a2713741547fe8d8c954221826b5ec6c9612485a41714d61a6a7e64736f6c63430008180033",
					"opcodes": "PUSH1 0x80 PUSH1 0x40 MSTORE CALLVALUE DUP1 ISZERO PUSH2 0xF JUMPI PUSH0 DUP1 REVERT JUMPDEST POP PUSH2 0x47A DUP1 PUSH2 0x1D PUSH0 CODECOPY PUSH0 RETURN INVALID PUSH1 0x80 PUSH1 0x40 MSTORE CALLVALUE DUP1 ISZERO PUSH2 0xF JUMPI PUSH0 DUP1 REVERT JUMPDEST POP PUSH1 0x4 CALLDATASIZE LT PUSH2 0x34 JUMPI PUSH0 CALLDATALOAD PUSH1 0xE0 SHR DUP1 PUSH4 0x6610F5CA EQ PUSH2 0x38 JUMPI DUP1 PUSH4 0x93E01418 EQ PUSH2 0x56 JUMPI JUMPDEST PUSH0 DUP1 REVERT JUMPDEST PUSH2 0x40 PUSH2 0x72 JUMP JUMPDEST PUSH1 0x40 MLOAD PUSH2 0x4D SWAP2 SWAP1 PUSH2 0x238 JUMP JUMPDEST PUSH1 0x40 MLOAD DUP1 SWAP2 SUB SWAP1 RETURN JUMPDEST PUSH2 0x70 PUSH1 0x4 DUP1 CALLDATASIZE SUB DUP2 ADD SWAP1 PUSH2 0x6B SWAP2 SWAP1 PUSH2 0x31B JUMP JUMPDEST PUSH2 0xC4 JUMP JUMPDEST STOP JUMPDEST PUSH1 0x60 PUSH1 0x40 MLOAD PUSH1 0x24 ADD PUSH1 0x40 MLOAD PUSH1 0x20 DUP2 DUP4 SUB SUB DUP2 MSTORE SWAP1 PUSH1 0x40 MSTORE PUSH4 0x371303C0 PUSH1 0xE0 SHL PUSH1 0x20 DUP3 ADD DUP1 MLOAD PUSH28 0xFFFFFFFFFFFFFFFFFFFFFFFFFFFFFFFFFFFFFFFFFFFFFFFFFFFFFFFF DUP4 DUP2 DUP4 AND OR DUP4 MSTORE POP POP POP POP SWAP1 POP SWAP1 JUMP JUMPDEST PUSH0 DUP1 DUP5 PUSH20 0xFFFFFFFFFFFFFFFFFFFFFFFFFFFFFFFFFFFFFFFF AND DUP5 DUP5 PUSH1 0x40 MLOAD PUSH2 0xED SWAP3 SWAP2 SWAP1 PUSH2 0x3B4 JUMP JUMPDEST PUSH0 PUSH1 0x40 MLOAD DUP1 DUP4 SUB DUP2 PUSH0 DUP7 GAS CALL SWAP2 POP POP RETURNDATASIZE DUP1 PUSH0 DUP2 EQ PUSH2 0x126 JUMPI PUSH1 0x40 MLOAD SWAP2 POP PUSH1 0x1F NOT PUSH1 0x3F RETURNDATASIZE ADD AND DUP3 ADD PUSH1 0x40 MSTORE RETURNDATASIZE DUP3 MSTORE RETURNDATASIZE PUSH0 PUSH1 0x20 DUP5 ADD RETURNDATACOPY PUSH2 0x12B JUMP JUMPDEST PUSH1 0x60 SWAP2 POP JUMPDEST POP SWAP2 POP SWAP2 POP DUP2 PUSH2 0x170 JUMPI PUSH1 0x40 MLOAD PUSH32 0x8C379A000000000000000000000000000000000000000000000000000000000 DUP2 MSTORE PUSH1 0x4 ADD PUSH2 0x167 SWAP1 PUSH2 0x426 JUMP JUMPDEST PUSH1 0x40 MLOAD DUP1 SWAP2 SUB SWAP1 REVERT JUMPDEST PUSH32 0xAFABCF2DD47E06A477A89E49C03F8EBE8E0A7E94F775B25BBB24227C9D0110B2 DUP2 PUSH1 0x40 MLOAD PUSH2 0x19F SWAP2 SWAP1 PUSH2 0x238 JUMP JUMPDEST PUSH1 0x40 MLOAD DUP1 SWAP2 SUB SWAP1 LOG1 POP POP POP POP POP JUMP JUMPDEST PUSH0 DUP2 MLOAD SWAP1 POP SWAP2 SWAP1 POP JUMP JUMPDEST PUSH0 DUP3 DUP3 MSTORE PUSH1 0x20 DUP3 ADD SWAP1 POP SWAP3 SWAP2 POP POP JUMP JUMPDEST PUSH0 JUMPDEST DUP4 DUP2 LT ISZERO PUSH2 0x1E5 JUMPI DUP1 DUP3 ADD MLOAD DUP2 DUP5 ADD MSTORE PUSH1 0x20 DUP2 ADD SWAP1 POP PUSH2 0x1CA JUMP JUMPDEST PUSH0 DUP5 DUP5 ADD MSTORE POP POP POP POP JUMP JUMPDEST PUSH0 PUSH1 0x1F NOT PUSH1 0x1F DUP4 ADD AND SWAP1 POP SWAP2 SWAP1 POP JUMP JUMPDEST PUSH0 PUSH2 0x20A DUP3 PUSH2 0x1AE JUMP JUMPDEST PUSH2 0x214 DUP2 DUP6 PUSH2 0x1B8 JUMP JUMPDEST SWAP4 POP PUSH2 0x224 DUP2 DUP6 PUSH1 0x20 DUP7 ADD PUSH2 0x1C8 JUMP JUMPDEST PUSH2 0x22D DUP2 PUSH2 0x1F0 JUMP JUMPDEST DUP5 ADD SWAP2 POP POP SWAP3 SWAP2 POP POP JUMP JUMPDEST PUSH0 PUSH1 0x20 DUP3 ADD SWAP1 POP DUP2 DUP2 SUB PUSH0 DUP4 ADD MSTORE PUSH2 0x250 DUP2 DUP5 PUSH2 0x200 JUMP JUMPDEST SWAP1 POP SWAP3 SWAP2 POP POP JUMP JUMPDEST PUSH0 DUP1 REVERT JUMPDEST PUSH0 DUP1 REVERT JUMPDEST PUSH0 PUSH20 0xFFFFFFFFFFFFFFFFFFFFFFFFFFFFFFFFFFFFFFFF DUP3 AND SWAP1 POP SWAP2 SWAP1 POP JUMP JUMPDEST PUSH0 PUSH2 0x289 DUP3 PUSH2 0x260 JUMP JUMPDEST SWAP1 POP SWAP2 SWAP1 POP JUMP JUMPDEST PUSH2 0x299 DUP2 PUSH2 0x27F JUMP JUMPDEST DUP2 EQ PUSH2 0x2A3 JUMPI PUSH0 DUP1 REVERT JUMPDEST POP JUMP JUMPDEST PUSH0 DUP2 CALLDATALOAD SWAP1 POP PUSH2 0x2B4 DUP2 PUSH2 0x290 JUMP JUMPDEST SWAP3 SWAP2 POP POP JUMP JUMPDEST PUSH0 DUP1 REVERT JUMPDEST PUSH0 DUP1 REVERT JUMPDEST PUSH0 DUP1 REVERT JUMPDEST PUSH0 DUP1 DUP4 PUSH1 0x1F DUP5 ADD SLT PUSH2 0x2DB JUMPI PUSH2 0x2DA PUSH2 0x2BA JUMP JUMPDEST JUMPDEST DUP3 CALLDATALOAD SWAP1 POP PUSH8 0xFFFFFFFFFFFFFFFF DUP2 GT ISZERO PUSH2 0x2F8 JUMPI PUSH2 0x2F7 PUSH2 0x2BE JUMP JUMPDEST JUMPDEST PUSH1 0x20 DUP4 ADD SWAP2 POP DUP4 PUSH1 0x1 DUP3 MUL DUP4 ADD GT ISZERO PUSH2 0x314 JUMPI PUSH2 0x313 PUSH2 0x2C2 JUMP JUMPDEST JUMPDEST SWAP3 POP SWAP3 SWAP1 POP JUMP JUMPDEST PUSH0 DUP1 PUSH0 PUSH1 0x40 DUP5 DUP7 SUB SLT ISZERO PUSH2 0x332 JUMPI PUSH2 0x331 PUSH2 0x258 JUMP JUMPDEST JUMPDEST PUSH0 PUSH2 0x33F DUP7 DUP3 DUP8 ADD PUSH2 0x2A6 JUMP JUMPDEST SWAP4 POP POP PUSH1 0x20 DUP5 ADD CALLDATALOAD PUSH8 0xFFFFFFFFFFFFFFFF DUP2 GT ISZERO PUSH2 0x360 JUMPI PUSH2 0x35F PUSH2 0x25C JUMP JUMPDEST JUMPDEST PUSH2 0x36C DUP7 DUP3 DUP8 ADD PUSH2 0x2C6 JUMP JUMPDEST SWAP3 POP SWAP3 POP POP SWAP3 POP SWAP3 POP SWAP3 JUMP JUMPDEST PUSH0 DUP2 SWAP1 POP SWAP3 SWAP2 POP POP JUMP JUMPDEST DUP3 DUP2 DUP4 CALLDATACOPY PUSH0 DUP4 DUP4 ADD MSTORE POP POP POP JUMP JUMPDEST PUSH0 PUSH2 0x39B DUP4 DUP6 PUSH2 0x378 JUMP JUMPDEST SWAP4 POP PUSH2 0x3A8 DUP4 DUP6 DUP5 PUSH2 0x382 JUMP JUMPDEST DUP3 DUP5 ADD SWAP1 POP SWAP4 SWAP3 POP POP POP JUMP JUMPDEST PUSH0 PUSH2 0x3C0 DUP3 DUP5 DUP7 PUSH2 0x390 JUMP JUMPDEST SWAP2 POP DUP2 SWAP1 POP SWAP4 SWAP3 POP POP POP JUMP JUMPDEST PUSH0 DUP3 DUP3 MSTORE PUSH1 0x20 DUP3 ADD SWAP1 POP SWAP3 SWAP2 POP POP JUMP JUMPDEST PUSH32 0x63616C6C206661696C6564000000000000000000000000000000000000000000 PUSH0 DUP3 ADD MSTORE POP JUMP JUMPDEST PUSH0 PUSH2 0x410 PUSH1 0xB DUP4 PUSH2 0x3CC JUMP JUMPDEST SWAP2 POP PUSH2 0x41B DUP3 PUSH2 0x3DC JUMP JUMPDEST PUSH1 0x20 DUP3 ADD SWAP1 POP SWAP2 SWAP1 POP JUMP JUMPDEST PUSH0 PUSH1 0x20 DUP3 ADD SWAP1 POP DUP2 DUP2 SUB PUSH0 DUP4 ADD MSTORE PUSH2 0x43D DUP2 PUSH2 0x404 JUMP JUMPDEST SWAP1 POP SWAP2 SWAP1 POP JUMP INVALID LOG2 PUSH5 0x6970667358 0x22 SLT KECCAK256 0x4D TLOAD 0x25 PUSH18 0x23A2713741547FE8D8C954221826B5EC6C9 PUSH2 0x2485 LOG4 OR EQ 0xD6 BYTE PUSH11 0x7E64736F6C634300081800 CALLER "
				},
				"gasEstimates": {
					"creation": {
						"codeDepositCost": "229200",
						"executionCost": "267",
						"totalCost": "229467"
					},
					"external": {
						"getTestData()": "infinite",
						"test(address,bytes)": "infinite"
					}
				},
				"methodIdentifiers": {
					"getTestData()": "6610f5ca",
					"test(address,bytes)": "93e01418"
				}
			},
			"storageLayout": {
				"storage": [],
				"types": null
			},
			"userdoc": {
				"kind": "user",
				"methods": {},
				"version": 1
			}
		}
	}
}