{
	"tests/DelegatecallTest.sol": {
		"A": {
			"abi": [
				{
					"inputs": [],
					"name": "ffff",
					"outputs": [
						{
							"internalType": "string",
							"name": "",
							"type": "string"
						}
					],
					"stateMutability": "view",
					"type": "function"
				},
				{
					"inputs": [],
					"name": "num",
					"outputs": [
						{
							"internalType": "uint256",
							"name": "",
							"type": "uint256"
						}
					],
					"stateMutability": "view",
					"type": "function"
				},
				{
					"inputs": [],
					"name": "sender",
					"outputs": [
						{
							"internalType": "address",
							"name": "",
							"type": "address"
						}
					],
					"stateMutability": "view",
					"type": "function"
				},
				{
					"inputs": [
						{
							"internalType": "address",
							"name": "_contract",
							"type": "address"
						},
						{
							"internalType": "uint256",
							"name": "_num",
							"type": "uint256"
						}
					],
					"name": "setVars",
					"outputs": [],
					"stateMutability": "payable",
					"type": "function"
				},
				{
					"inputs": [],
					"name": "value",
					"outputs": [
						{
							"internalType": "uint256",
							"name": "",
							"type": "uint256"
						}
					],
					"stateMutability": "view",
					"type": "function"
				}
			],
			"devdoc": {
				"kind": "dev",
				"methods": {},
				"version": 1
			},
			"evm": {
				"assembly": "    /* \"tests/DelegatecallTest.sol\":384:947  contract A {\r... */\n  mstore(0x40, 0x80)\n  callvalue\n  dup1\n  iszero\n  tag_1\n  jumpi\n  0x00\n  dup1\n  revert\ntag_1:\n  pop\n  dataSize(sub_0)\n  dup1\n  dataOffset(sub_0)\n  0x00\n  codecopy\n  0x00\n  return\nstop\n\nsub_0: assembly {\n        /* \"tests/DelegatecallTest.sol\":384:947  contract A {\r... */\n      mstore(0x40, 0x80)\n      jumpi(tag_1, lt(calldatasize, 0x04))\n      shr(0xe0, calldataload(0x00))\n      dup1\n      0x3fa4f245\n      eq\n      tag_2\n      jumpi\n      dup1\n      0x4e70b1dc\n      eq\n      tag_3\n      jumpi\n      dup1\n      0x67e404ce\n      eq\n      tag_4\n      jumpi\n      dup1\n      0xd1e0f308\n      eq\n      tag_5\n      jumpi\n      dup1\n      0xd220e077\n      eq\n      tag_6\n      jumpi\n    tag_1:\n      0x00\n      dup1\n      revert\n        /* \"tests/DelegatecallTest.sol\":455:475  uint256 public value */\n    tag_2:\n      callvalue\n      dup1\n      iszero\n      tag_7\n      jumpi\n      0x00\n      dup1\n      revert\n    tag_7:\n      pop\n      tag_8\n      tag_9\n      jump\t// in\n    tag_8:\n      mload(0x40)\n      tag_10\n      swap2\n      swap1\n      tag_11\n      jump\t// in\n    tag_10:\n      mload(0x40)\n      dup1\n      swap2\n      sub\n      swap1\n      return\n        /* \"tests/DelegatecallTest.sol\":402:420  uint256 public num */\n    tag_3:\n      callvalue\n      dup1\n      iszero\n      tag_12\n      jumpi\n      0x00\n      dup1\n      revert\n    tag_12:\n      pop\n      tag_13\n      tag_14\n      jump\t// in\n    tag_13:\n      mload(0x40)\n      tag_15\n      swap2\n      swap1\n      tag_11\n      jump\t// in\n    tag_15:\n      mload(0x40)\n      dup1\n      swap2\n      sub\n      swap1\n      return\n        /* \"tests/DelegatecallTest.sol\":427:448  address public sender */\n    tag_4:\n      callvalue\n      dup1\n      iszero\n      tag_16\n      jumpi\n      0x00\n      dup1\n      revert\n    tag_16:\n      pop\n      tag_17\n      tag_18\n      jump\t// in\n    tag_17:\n      mload(0x40)\n      tag_19\n      swap2\n      swap1\n      tag_20\n      jump\t// in\n    tag_19:\n      mload(0x40)\n      dup1\n      swap2\n      sub\n      swap1\n      return\n        /* \"tests/DelegatecallTest.sol\":511:944  function setVars(address _contract, uint256 _num) public payable {\r... */\n    tag_5:\n      tag_21\n      0x04\n      dup1\n      calldatasize\n      sub\n      dup2\n      add\n      swap1\n      tag_22\n      swap2\n      swap1\n      tag_23\n      jump\t// in\n    tag_22:\n      tag_24\n      jump\t// in\n    tag_21:\n      stop\n        /* \"tests/DelegatecallTest.sol\":482:500  string public ffff */\n    tag_6:\n      callvalue\n      dup1\n      iszero\n      tag_25\n      jumpi\n      0x00\n      dup1\n      revert\n    tag_25:\n      pop\n      tag_26\n      tag_27\n      jump\t// in\n    tag_26:\n      mload(0x40)\n      tag_28\n      swap2\n      swap1\n      tag_29\n      jump\t// in\n    tag_28:\n      mload(0x40)\n      dup1\n      swap2\n      sub\n      swap1\n      return\n        /* \"tests/DelegatecallTest.sol\":455:475  uint256 public value */\n    tag_9:\n      sload(0x02)\n      dup2\n      jump\t// out\n        /* \"tests/DelegatecallTest.sol\":402:420  uint256 public num */\n    tag_14:\n      sload(0x00)\n      dup2\n      jump\t// out\n        /* \"tests/DelegatecallTest.sol\":427:448  address public sender */\n    tag_18:\n      0x01\n      0x00\n      swap1\n      sload\n      swap1\n      0x0100\n      exp\n      swap1\n      div\n      0xffffffffffffffffffffffffffffffffffffffff\n      and\n      dup2\n      jump\t// out\n        /* \"tests/DelegatecallTest.sol\":511:944  function setVars(address _contract, uint256 _num) public payable {\r... */\n    tag_24:\n        /* \"tests/DelegatecallTest.sol\":755:767  bool success */\n      0x00\n        /* \"tests/DelegatecallTest.sol\":769:786  bytes memory data */\n      dup1\n        /* \"tests/DelegatecallTest.sol\":790:799  _contract */\n      dup4\n        /* \"tests/DelegatecallTest.sol\":790:812  _contract.delegatecall */\n      0xffffffffffffffffffffffffffffffffffffffff\n      and\n        /* \"tests/DelegatecallTest.sol\":850:868  B.setVars.selector */\n      shl(0xe0, 0x6466414b)\n        /* \"tests/DelegatecallTest.sol\":870:874  _num */\n      dup5\n        /* \"tests/DelegatecallTest.sol\":827:875  abi.encodeWithSelector(B.setVars.selector, _num) */\n      add(0x24, mload(0x40))\n      tag_31\n      swap2\n      swap1\n      tag_11\n      jump\t// in\n    tag_31:\n      mload(0x40)\n      0x20\n      dup2\n      dup4\n      sub\n      sub\n      dup2\n      mstore\n      swap1\n      0x40\n      mstore\n      swap1\n      not(0xffffffffffffffffffffffffffffffffffffffffffffffffffffffff)\n      and\n      0x20\n      dup3\n      add\n      dup1\n      mload\n      0xffffffffffffffffffffffffffffffffffffffffffffffffffffffff\n      dup4\n      dup2\n      dup4\n      and\n      or\n      dup4\n      mstore\n      pop\n      pop\n      pop\n      pop\n        /* \"tests/DelegatecallTest.sol\":790:886  _contract.delegatecall(\r... */\n      mload(0x40)\n      tag_32\n      swap2\n      swap1\n      tag_33\n      jump\t// in\n    tag_32:\n      0x00\n      mload(0x40)\n      dup1\n      dup4\n      sub\n      dup2\n      dup6\n      gas\n      delegatecall\n      swap2\n      pop\n      pop\n      returndatasize\n      dup1\n      0x00\n      dup2\n      eq\n      tag_36\n      jumpi\n      mload(0x40)\n      swap2\n      pop\n      and(add(returndatasize, 0x3f), not(0x1f))\n      dup3\n      add\n      0x40\n      mstore\n      returndatasize\n      dup3\n      mstore\n      returndatasize\n      0x00\n      0x20\n      dup5\n      add\n      returndatacopy\n      jump(tag_35)\n    tag_36:\n      0x60\n      swap2\n      pop\n    tag_35:\n      pop\n        /* \"tests/DelegatecallTest.sol\":754:886  (bool success, bytes memory data) = _contract.delegatecall(\r... */\n      swap2\n      pop\n      swap2\n      pop\n        /* \"tests/DelegatecallTest.sol\":905:912  success */\n      dup2\n        /* \"tests/DelegatecallTest.sol\":897:936  require(success, \"delegatecall failed\") */\n      tag_37\n      jumpi\n      mload(0x40)\n      0x08c379a000000000000000000000000000000000000000000000000000000000\n      dup2\n      mstore\n      0x04\n      add\n      tag_38\n      swap1\n      tag_39\n      jump\t// in\n    tag_38:\n      mload(0x40)\n      dup1\n      swap2\n      sub\n      swap1\n      revert\n    tag_37:\n        /* \"tests/DelegatecallTest.sol\":576:944  {\r... */\n      pop\n      pop\n        /* \"tests/DelegatecallTest.sol\":511:944  function setVars(address _contract, uint256 _num) public payable {\r... */\n      pop\n      pop\n      jump\t// out\n        /* \"tests/DelegatecallTest.sol\":482:500  string public ffff */\n    tag_27:\n      0x03\n      dup1\n      sload\n      tag_40\n      swap1\n      tag_41\n      jump\t// in\n    tag_40:\n      dup1\n      0x1f\n      add\n      0x20\n      dup1\n      swap2\n      div\n      mul\n      0x20\n      add\n      mload(0x40)\n      swap1\n      dup2\n      add\n      0x40\n      mstore\n      dup1\n      swap3\n      swap2\n      swap1\n      dup2\n      dup2\n      mstore\n      0x20\n      add\n      dup3\n      dup1\n      sload\n      tag_42\n      swap1\n      tag_41\n      jump\t// in\n    tag_42:\n      dup1\n      iszero\n      tag_43\n      jumpi\n      dup1\n      0x1f\n      lt\n      tag_44\n      jumpi\n      0x0100\n      dup1\n      dup4\n      sload\n      div\n      mul\n      dup4\n      mstore\n      swap2\n      0x20\n      add\n      swap2\n      jump(tag_43)\n    tag_44:\n      dup3\n      add\n      swap2\n      swap1\n      0x00\n      mstore\n      keccak256(0x00, 0x20)\n      swap1\n    tag_45:\n      dup2\n      sload\n      dup2\n      mstore\n      swap1\n      0x01\n      add\n      swap1\n      0x20\n      add\n      dup1\n      dup4\n      gt\n      tag_45\n      jumpi\n      dup3\n      swap1\n      sub\n      0x1f\n      and\n      dup3\n      add\n      swap2\n    tag_43:\n      pop\n      pop\n      pop\n      pop\n      pop\n      dup2\n      jump\t// out\n        /* \"#utility.yul\":7:146   */\n    tag_47:\n        /* \"#utility.yul\":53:58   */\n      0x00\n        /* \"#utility.yul\":91:97   */\n      dup2\n        /* \"#utility.yul\":78:98   */\n      calldataload\n        /* \"#utility.yul\":69:98   */\n      swap1\n      pop\n        /* \"#utility.yul\":107:140   */\n      tag_49\n        /* \"#utility.yul\":134:139   */\n      dup2\n        /* \"#utility.yul\":107:140   */\n      tag_50\n      jump\t// in\n    tag_49:\n        /* \"#utility.yul\":7:146   */\n      swap3\n      swap2\n      pop\n      pop\n      jump\t// out\n        /* \"#utility.yul\":152:291   */\n    tag_51:\n        /* \"#utility.yul\":198:203   */\n      0x00\n        /* \"#utility.yul\":236:242   */\n      dup2\n        /* \"#utility.yul\":223:243   */\n      calldataload\n        /* \"#utility.yul\":214:243   */\n      swap1\n      pop\n        /* \"#utility.yul\":252:285   */\n      tag_53\n        /* \"#utility.yul\":279:284   */\n      dup2\n        /* \"#utility.yul\":252:285   */\n      tag_54\n      jump\t// in\n    tag_53:\n        /* \"#utility.yul\":152:291   */\n      swap3\n      swap2\n      pop\n      pop\n      jump\t// out\n        /* \"#utility.yul\":297:771   */\n    tag_23:\n        /* \"#utility.yul\":365:371   */\n      0x00\n        /* \"#utility.yul\":373:379   */\n      dup1\n        /* \"#utility.yul\":422:424   */\n      0x40\n        /* \"#utility.yul\":410:419   */\n      dup4\n        /* \"#utility.yul\":401:408   */\n      dup6\n        /* \"#utility.yul\":397:420   */\n      sub\n        /* \"#utility.yul\":393:425   */\n      slt\n        /* \"#utility.yul\":390:509   */\n      iszero\n      tag_56\n      jumpi\n        /* \"#utility.yul\":428:507   */\n      tag_57\n      tag_58\n      jump\t// in\n    tag_57:\n        /* \"#utility.yul\":390:509   */\n    tag_56:\n        /* \"#utility.yul\":548:549   */\n      0x00\n        /* \"#utility.yul\":573:626   */\n      tag_59\n        /* \"#utility.yul\":618:625   */\n      dup6\n        /* \"#utility.yul\":609:615   */\n      dup3\n        /* \"#utility.yul\":598:607   */\n      dup7\n        /* \"#utility.yul\":594:616   */\n      add\n        /* \"#utility.yul\":573:626   */\n      tag_47\n      jump\t// in\n    tag_59:\n        /* \"#utility.yul\":563:626   */\n      swap3\n      pop\n        /* \"#utility.yul\":519:636   */\n      pop\n        /* \"#utility.yul\":675:677   */\n      0x20\n        /* \"#utility.yul\":701:754   */\n      tag_60\n        /* \"#utility.yul\":746:753   */\n      dup6\n        /* \"#utility.yul\":737:743   */\n      dup3\n        /* \"#utility.yul\":726:735   */\n      dup7\n        /* \"#utility.yul\":722:744   */\n      add\n        /* \"#utility.yul\":701:754   */\n      tag_51\n      jump\t// in\n    tag_60:\n        /* \"#utility.yul\":691:754   */\n      swap2\n      pop\n        /* \"#utility.yul\":646:764   */\n      pop\n        /* \"#utility.yul\":297:771   */\n      swap3\n      pop\n      swap3\n      swap1\n      pop\n      jump\t// out\n        /* \"#utility.yul\":777:895   */\n    tag_61:\n        /* \"#utility.yul\":864:888   */\n      tag_63\n        /* \"#utility.yul\":882:887   */\n      dup2\n        /* \"#utility.yul\":864:888   */\n      tag_64\n      jump\t// in\n    tag_63:\n        /* \"#utility.yul\":859:862   */\n      dup3\n        /* \"#utility.yul\":852:889   */\n      mstore\n        /* \"#utility.yul\":777:895   */\n      pop\n      pop\n      jump\t// out\n        /* \"#utility.yul\":901:1274   */\n    tag_65:\n        /* \"#utility.yul\":1005:1008   */\n      0x00\n        /* \"#utility.yul\":1033:1071   */\n      tag_67\n        /* \"#utility.yul\":1065:1070   */\n      dup3\n        /* \"#utility.yul\":1033:1071   */\n      tag_68\n      jump\t// in\n    tag_67:\n        /* \"#utility.yul\":1087:1175   */\n      tag_69\n        /* \"#utility.yul\":1168:1174   */\n      dup2\n        /* \"#utility.yul\":1163:1166   */\n      dup6\n        /* \"#utility.yul\":1087:1175   */\n      tag_70\n      jump\t// in\n    tag_69:\n        /* \"#utility.yul\":1080:1175   */\n      swap4\n      pop\n        /* \"#utility.yul\":1184:1236   */\n      tag_71\n        /* \"#utility.yul\":1229:1235   */\n      dup2\n        /* \"#utility.yul\":1224:1227   */\n      dup6\n        /* \"#utility.yul\":1217:1221   */\n      0x20\n        /* \"#utility.yul\":1210:1215   */\n      dup7\n        /* \"#utility.yul\":1206:1222   */\n      add\n        /* \"#utility.yul\":1184:1236   */\n      tag_72\n      jump\t// in\n    tag_71:\n        /* \"#utility.yul\":1261:1267   */\n      dup1\n        /* \"#utility.yul\":1256:1259   */\n      dup5\n        /* \"#utility.yul\":1252:1268   */\n      add\n        /* \"#utility.yul\":1245:1268   */\n      swap2\n      pop\n        /* \"#utility.yul\":1009:1274   */\n      pop\n        /* \"#utility.yul\":901:1274   */\n      swap3\n      swap2\n      pop\n      pop\n      jump\t// out\n        /* \"#utility.yul\":1280:1644   */\n    tag_73:\n        /* \"#utility.yul\":1368:1371   */\n      0x00\n        /* \"#utility.yul\":1396:1435   */\n      tag_75\n        /* \"#utility.yul\":1429:1434   */\n      dup3\n        /* \"#utility.yul\":1396:1435   */\n      tag_76\n      jump\t// in\n    tag_75:\n        /* \"#utility.yul\":1451:1522   */\n      tag_77\n        /* \"#utility.yul\":1515:1521   */\n      dup2\n        /* \"#utility.yul\":1510:1513   */\n      dup6\n        /* \"#utility.yul\":1451:1522   */\n      tag_78\n      jump\t// in\n    tag_77:\n        /* \"#utility.yul\":1444:1522   */\n      swap4\n      pop\n        /* \"#utility.yul\":1531:1583   */\n      tag_79\n        /* \"#utility.yul\":1576:1582   */\n      dup2\n        /* \"#utility.yul\":1571:1574   */\n      dup6\n        /* \"#utility.yul\":1564:1568   */\n      0x20\n        /* \"#utility.yul\":1557:1562   */\n      dup7\n        /* \"#utility.yul\":1553:1569   */\n      add\n        /* \"#utility.yul\":1531:1583   */\n      tag_72\n      jump\t// in\n    tag_79:\n        /* \"#utility.yul\":1608:1637   */\n      tag_80\n        /* \"#utility.yul\":1630:1636   */\n      dup2\n        /* \"#utility.yul\":1608:1637   */\n      tag_81\n      jump\t// in\n    tag_80:\n        /* \"#utility.yul\":1603:1606   */\n      dup5\n        /* \"#utility.yul\":1599:1638   */\n      add\n        /* \"#utility.yul\":1592:1638   */\n      swap2\n      pop\n        /* \"#utility.yul\":1372:1644   */\n      pop\n        /* \"#utility.yul\":1280:1644   */\n      swap3\n      swap2\n      pop\n      pop\n      jump\t// out\n        /* \"#utility.yul\":1650:2016   */\n    tag_82:\n        /* \"#utility.yul\":1792:1795   */\n      0x00\n        /* \"#utility.yul\":1813:1880   */\n      tag_84\n        /* \"#utility.yul\":1877:1879   */\n      0x13\n        /* \"#utility.yul\":1872:1875   */\n      dup4\n        /* \"#utility.yul\":1813:1880   */\n      tag_78\n      jump\t// in\n    tag_84:\n        /* \"#utility.yul\":1806:1880   */\n      swap2\n      pop\n        /* \"#utility.yul\":1889:1982   */\n      tag_85\n        /* \"#utility.yul\":1978:1981   */\n      dup3\n        /* \"#utility.yul\":1889:1982   */\n      tag_86\n      jump\t// in\n    tag_85:\n        /* \"#utility.yul\":2007:2009   */\n      0x20\n        /* \"#utility.yul\":2002:2005   */\n      dup3\n        /* \"#utility.yul\":1998:2010   */\n      add\n        /* \"#utility.yul\":1991:2010   */\n      swap1\n      pop\n        /* \"#utility.yul\":1650:2016   */\n      swap2\n      swap1\n      pop\n      jump\t// out\n        /* \"#utility.yul\":2022:2140   */\n    tag_87:\n        /* \"#utility.yul\":2109:2133   */\n      tag_89\n        /* \"#utility.yul\":2127:2132   */\n      dup2\n        /* \"#utility.yul\":2109:2133   */\n      tag_90\n      jump\t// in\n    tag_89:\n        /* \"#utility.yul\":2104:2107   */\n      dup3\n        /* \"#utility.yul\":2097:2134   */\n      mstore\n        /* \"#utility.yul\":2022:2140   */\n      pop\n      pop\n      jump\t// out\n        /* \"#utility.yul\":2146:2417   */\n    tag_33:\n        /* \"#utility.yul\":2276:2279   */\n      0x00\n        /* \"#utility.yul\":2298:2391   */\n      tag_92\n        /* \"#utility.yul\":2387:2390   */\n      dup3\n        /* \"#utility.yul\":2378:2384   */\n      dup5\n        /* \"#utility.yul\":2298:2391   */\n      tag_65\n      jump\t// in\n    tag_92:\n        /* \"#utility.yul\":2291:2391   */\n      swap2\n      pop\n        /* \"#utility.yul\":2408:2411   */\n      dup2\n        /* \"#utility.yul\":2401:2411   */\n      swap1\n      pop\n        /* \"#utility.yul\":2146:2417   */\n      swap3\n      swap2\n      pop\n      pop\n      jump\t// out\n        /* \"#utility.yul\":2423:2645   */\n    tag_20:\n        /* \"#utility.yul\":2516:2520   */\n      0x00\n        /* \"#utility.yul\":2554:2556   */\n      0x20\n        /* \"#utility.yul\":2543:2552   */\n      dup3\n        /* \"#utility.yul\":2539:2557   */\n      add\n        /* \"#utility.yul\":2531:2557   */\n      swap1\n      pop\n        /* \"#utility.yul\":2567:2638   */\n      tag_94\n        /* \"#utility.yul\":2635:2636   */\n      0x00\n        /* \"#utility.yul\":2624:2633   */\n      dup4\n        /* \"#utility.yul\":2620:2637   */\n      add\n        /* \"#utility.yul\":2611:2617   */\n      dup5\n        /* \"#utility.yul\":2567:2638   */\n      tag_61\n      jump\t// in\n    tag_94:\n        /* \"#utility.yul\":2423:2645   */\n      swap3\n      swap2\n      pop\n      pop\n      jump\t// out\n        /* \"#utility.yul\":2651:2964   */\n    tag_29:\n        /* \"#utility.yul\":2764:2768   */\n      0x00\n        /* \"#utility.yul\":2802:2804   */\n      0x20\n        /* \"#utility.yul\":2791:2800   */\n      dup3\n        /* \"#utility.yul\":2787:2805   */\n      add\n        /* \"#utility.yul\":2779:2805   */\n      swap1\n      pop\n        /* \"#utility.yul\":2851:2860   */\n      dup2\n        /* \"#utility.yul\":2845:2849   */\n      dup2\n        /* \"#utility.yul\":2841:2861   */\n      sub\n        /* \"#utility.yul\":2837:2838   */\n      0x00\n        /* \"#utility.yul\":2826:2835   */\n      dup4\n        /* \"#utility.yul\":2822:2839   */\n      add\n        /* \"#utility.yul\":2815:2862   */\n      mstore\n        /* \"#utility.yul\":2879:2957   */\n      tag_96\n        /* \"#utility.yul\":2952:2956   */\n      dup2\n        /* \"#utility.yul\":2943:2949   */\n      dup5\n        /* \"#utility.yul\":2879:2957   */\n      tag_73\n      jump\t// in\n    tag_96:\n        /* \"#utility.yul\":2871:2957   */\n      swap1\n      pop\n        /* \"#utility.yul\":2651:2964   */\n      swap3\n      swap2\n      pop\n      pop\n      jump\t// out\n        /* \"#utility.yul\":2970:3389   */\n    tag_39:\n        /* \"#utility.yul\":3136:3140   */\n      0x00\n        /* \"#utility.yul\":3174:3176   */\n      0x20\n        /* \"#utility.yul\":3163:3172   */\n      dup3\n        /* \"#utility.yul\":3159:3177   */\n      add\n        /* \"#utility.yul\":3151:3177   */\n      swap1\n      pop\n        /* \"#utility.yul\":3223:3232   */\n      dup2\n        /* \"#utility.yul\":3217:3221   */\n      dup2\n        /* \"#utility.yul\":3213:3233   */\n      sub\n        /* \"#utility.yul\":3209:3210   */\n      0x00\n        /* \"#utility.yul\":3198:3207   */\n      dup4\n        /* \"#utility.yul\":3194:3211   */\n      add\n        /* \"#utility.yul\":3187:3234   */\n      mstore\n        /* \"#utility.yul\":3251:3382   */\n      tag_98\n        /* \"#utility.yul\":3377:3381   */\n      dup2\n        /* \"#utility.yul\":3251:3382   */\n      tag_82\n      jump\t// in\n    tag_98:\n        /* \"#utility.yul\":3243:3382   */\n      swap1\n      pop\n        /* \"#utility.yul\":2970:3389   */\n      swap2\n      swap1\n      pop\n      jump\t// out\n        /* \"#utility.yul\":3395:3617   */\n    tag_11:\n        /* \"#utility.yul\":3488:3492   */\n      0x00\n        /* \"#utility.yul\":3526:3528   */\n      0x20\n        /* \"#utility.yul\":3515:3524   */\n      dup3\n        /* \"#utility.yul\":3511:3529   */\n      add\n        /* \"#utility.yul\":3503:3529   */\n      swap1\n      pop\n        /* \"#utility.yul\":3539:3610   */\n      tag_100\n        /* \"#utility.yul\":3607:3608   */\n      0x00\n        /* \"#utility.yul\":3596:3605   */\n      dup4\n        /* \"#utility.yul\":3592:3609   */\n      add\n        /* \"#utility.yul\":3583:3589   */\n      dup5\n        /* \"#utility.yul\":3539:3610   */\n      tag_87\n      jump\t// in\n    tag_100:\n        /* \"#utility.yul\":3395:3617   */\n      swap3\n      swap2\n      pop\n      pop\n      jump\t// out\n        /* \"#utility.yul\":3704:3802   */\n    tag_68:\n        /* \"#utility.yul\":3755:3761   */\n      0x00\n        /* \"#utility.yul\":3789:3794   */\n      dup2\n        /* \"#utility.yul\":3783:3795   */\n      mload\n        /* \"#utility.yul\":3773:3795   */\n      swap1\n      pop\n        /* \"#utility.yul\":3704:3802   */\n      swap2\n      swap1\n      pop\n      jump\t// out\n        /* \"#utility.yul\":3808:3907   */\n    tag_76:\n        /* \"#utility.yul\":3860:3866   */\n      0x00\n        /* \"#utility.yul\":3894:3899   */\n      dup2\n        /* \"#utility.yul\":3888:3900   */\n      mload\n        /* \"#utility.yul\":3878:3900   */\n      swap1\n      pop\n        /* \"#utility.yul\":3808:3907   */\n      swap2\n      swap1\n      pop\n      jump\t// out\n        /* \"#utility.yul\":3913:4060   */\n    tag_70:\n        /* \"#utility.yul\":4014:4025   */\n      0x00\n        /* \"#utility.yul\":4051:4054   */\n      dup2\n        /* \"#utility.yul\":4036:4054   */\n      swap1\n      pop\n        /* \"#utility.yul\":3913:4060   */\n      swap3\n      swap2\n      pop\n      pop\n      jump\t// out\n        /* \"#utility.yul\":4066:4235   */\n    tag_78:\n        /* \"#utility.yul\":4150:4161   */\n      0x00\n        /* \"#utility.yul\":4184:4190   */\n      dup3\n        /* \"#utility.yul\":4179:4182   */\n      dup3\n        /* \"#utility.yul\":4172:4191   */\n      mstore\n        /* \"#utility.yul\":4224:4228   */\n      0x20\n        /* \"#utility.yul\":4219:4222   */\n      dup3\n        /* \"#utility.yul\":4215:4229   */\n      add\n        /* \"#utility.yul\":4200:4229   */\n      swap1\n      pop\n        /* \"#utility.yul\":4066:4235   */\n      swap3\n      swap2\n      pop\n      pop\n      jump\t// out\n        /* \"#utility.yul\":4241:4337   */\n    tag_64:\n        /* \"#utility.yul\":4278:4285   */\n      0x00\n        /* \"#utility.yul\":4307:4331   */\n      tag_108\n        /* \"#utility.yul\":4325:4330   */\n      dup3\n        /* \"#utility.yul\":4307:4331   */\n      tag_109\n      jump\t// in\n    tag_108:\n        /* \"#utility.yul\":4296:4331   */\n      swap1\n      pop\n        /* \"#utility.yul\":4241:4337   */\n      swap2\n      swap1\n      pop\n      jump\t// out\n        /* \"#utility.yul\":4343:4469   */\n    tag_109:\n        /* \"#utility.yul\":4380:4387   */\n      0x00\n        /* \"#utility.yul\":4420:4462   */\n      0xffffffffffffffffffffffffffffffffffffffff\n        /* \"#utility.yul\":4413:4418   */\n      dup3\n        /* \"#utility.yul\":4409:4463   */\n      and\n        /* \"#utility.yul\":4398:4463   */\n      swap1\n      pop\n        /* \"#utility.yul\":4343:4469   */\n      swap2\n      swap1\n      pop\n      jump\t// out\n        /* \"#utility.yul\":4475:4552   */\n    tag_90:\n        /* \"#utility.yul\":4512:4519   */\n      0x00\n        /* \"#utility.yul\":4541:4546   */\n      dup2\n        /* \"#utility.yul\":4530:4546   */\n      swap1\n      pop\n        /* \"#utility.yul\":4475:4552   */\n      swap2\n      swap1\n      pop\n      jump\t// out\n        /* \"#utility.yul\":4558:4865   */\n    tag_72:\n        /* \"#utility.yul\":4626:4627   */\n      0x00\n        /* \"#utility.yul\":4636:4749   */\n    tag_113:\n        /* \"#utility.yul\":4650:4656   */\n      dup4\n        /* \"#utility.yul\":4647:4648   */\n      dup2\n        /* \"#utility.yul\":4644:4657   */\n      lt\n        /* \"#utility.yul\":4636:4749   */\n      iszero\n      tag_115\n      jumpi\n        /* \"#utility.yul\":4735:4736   */\n      dup1\n        /* \"#utility.yul\":4730:4733   */\n      dup3\n        /* \"#utility.yul\":4726:4737   */\n      add\n        /* \"#utility.yul\":4720:4738   */\n      mload\n        /* \"#utility.yul\":4716:4717   */\n      dup2\n        /* \"#utility.yul\":4711:4714   */\n      dup5\n        /* \"#utility.yul\":4707:4718   */\n      add\n        /* \"#utility.yul\":4700:4739   */\n      mstore\n        /* \"#utility.yul\":4672:4674   */\n      0x20\n        /* \"#utility.yul\":4669:4670   */\n      dup2\n        /* \"#utility.yul\":4665:4675   */\n      add\n        /* \"#utility.yul\":4660:4675   */\n      swap1\n      pop\n        /* \"#utility.yul\":4636:4749   */\n      jump(tag_113)\n    tag_115:\n        /* \"#utility.yul\":4767:4773   */\n      dup4\n        /* \"#utility.yul\":4764:4765   */\n      dup2\n        /* \"#utility.yul\":4761:4774   */\n      gt\n        /* \"#utility.yul\":4758:4859   */\n      iszero\n      tag_116\n      jumpi\n        /* \"#utility.yul\":4847:4848   */\n      0x00\n        /* \"#utility.yul\":4838:4844   */\n      dup5\n        /* \"#utility.yul\":4833:4836   */\n      dup5\n        /* \"#utility.yul\":4829:4845   */\n      add\n        /* \"#utility.yul\":4822:4849   */\n      mstore\n        /* \"#utility.yul\":4758:4859   */\n    tag_116:\n        /* \"#utility.yul\":4607:4865   */\n      pop\n        /* \"#utility.yul\":4558:4865   */\n      pop\n      pop\n      pop\n      jump\t// out\n        /* \"#utility.yul\":4871:5191   */\n    tag_41:\n        /* \"#utility.yul\":4915:4921   */\n      0x00\n        /* \"#utility.yul\":4952:4953   */\n      0x02\n        /* \"#utility.yul\":4946:4950   */\n      dup3\n        /* \"#utility.yul\":4942:4954   */\n      div\n        /* \"#utility.yul\":4932:4954   */\n      swap1\n      pop\n        /* \"#utility.yul\":4999:5000   */\n      0x01\n        /* \"#utility.yul\":4993:4997   */\n      dup3\n        /* \"#utility.yul\":4989:5001   */\n      and\n        /* \"#utility.yul\":5020:5038   */\n      dup1\n        /* \"#utility.yul\":5010:5091   */\n      tag_118\n      jumpi\n        /* \"#utility.yul\":5076:5080   */\n      0x7f\n        /* \"#utility.yul\":5068:5074   */\n      dup3\n        /* \"#utility.yul\":5064:5081   */\n      and\n        /* \"#utility.yul\":5054:5081   */\n      swap2\n      pop\n        /* \"#utility.yul\":5010:5091   */\n    tag_118:\n        /* \"#utility.yul\":5138:5140   */\n      0x20\n        /* \"#utility.yul\":5130:5136   */\n      dup3\n        /* \"#utility.yul\":5127:5141   */\n      lt\n        /* \"#utility.yul\":5107:5125   */\n      dup2\n        /* \"#utility.yul\":5104:5142   */\n      eq\n        /* \"#utility.yul\":5101:5185   */\n      iszero\n      tag_119\n      jumpi\n        /* \"#utility.yul\":5157:5175   */\n      tag_120\n      tag_121\n      jump\t// in\n    tag_120:\n        /* \"#utility.yul\":5101:5185   */\n    tag_119:\n        /* \"#utility.yul\":4922:5191   */\n      pop\n        /* \"#utility.yul\":4871:5191   */\n      swap2\n      swap1\n      pop\n      jump\t// out\n        /* \"#utility.yul\":5197:5377   */\n    tag_121:\n        /* \"#utility.yul\":5245:5322   */\n      0x4e487b7100000000000000000000000000000000000000000000000000000000\n        /* \"#utility.yul\":5242:5243   */\n      0x00\n        /* \"#utility.yul\":5235:5323   */\n      mstore\n        /* \"#utility.yul\":5342:5346   */\n      0x22\n        /* \"#utility.yul\":5339:5340   */\n      0x04\n        /* \"#utility.yul\":5332:5347   */\n      mstore\n        /* \"#utility.yul\":5366:5370   */\n      0x24\n        /* \"#utility.yul\":5363:5364   */\n      0x00\n        /* \"#utility.yul\":5356:5371   */\n      revert\n        /* \"#utility.yul\":5506:5623   */\n    tag_58:\n        /* \"#utility.yul\":5615:5616   */\n      0x00\n        /* \"#utility.yul\":5612:5613   */\n      dup1\n        /* \"#utility.yul\":5605:5617   */\n      revert\n        /* \"#utility.yul\":5629:5731   */\n    tag_81:\n        /* \"#utility.yul\":5670:5676   */\n      0x00\n        /* \"#utility.yul\":5721:5723   */\n      0x1f\n        /* \"#utility.yul\":5717:5724   */\n      not\n        /* \"#utility.yul\":5712:5714   */\n      0x1f\n        /* \"#utility.yul\":5705:5710   */\n      dup4\n        /* \"#utility.yul\":5701:5715   */\n      add\n        /* \"#utility.yul\":5697:5725   */\n      and\n        /* \"#utility.yul\":5687:5725   */\n      swap1\n      pop\n        /* \"#utility.yul\":5629:5731   */\n      swap2\n      swap1\n      pop\n      jump\t// out\n        /* \"#utility.yul\":5737:5906   */\n    tag_86:\n        /* \"#utility.yul\":5877:5898   */\n      0x64656c656761746563616c6c206661696c656400000000000000000000000000\n        /* \"#utility.yul\":5873:5874   */\n      0x00\n        /* \"#utility.yul\":5865:5871   */\n      dup3\n        /* \"#utility.yul\":5861:5875   */\n      add\n        /* \"#utility.yul\":5854:5899   */\n      mstore\n        /* \"#utility.yul\":5737:5906   */\n      pop\n      jump\t// out\n        /* \"#utility.yul\":5912:6034   */\n    tag_50:\n        /* \"#utility.yul\":5985:6009   */\n      tag_129\n        /* \"#utility.yul\":6003:6008   */\n      dup2\n        /* \"#utility.yul\":5985:6009   */\n      tag_64\n      jump\t// in\n    tag_129:\n        /* \"#utility.yul\":5978:5983   */\n      dup2\n        /* \"#utility.yul\":5975:6010   */\n      eq\n        /* \"#utility.yul\":5965:6028   */\n      tag_130\n      jumpi\n        /* \"#utility.yul\":6024:6025   */\n      0x00\n        /* \"#utility.yul\":6021:6022   */\n      dup1\n        /* \"#utility.yul\":6014:6026   */\n      revert\n        /* \"#utility.yul\":5965:6028   */\n    tag_130:\n        /* \"#utility.yul\":5912:6034   */\n      pop\n      jump\t// out\n        /* \"#utility.yul\":6040:6162   */\n    tag_54:\n        /* \"#utility.yul\":6113:6137   */\n      tag_132\n        /* \"#utility.yul\":6131:6136   */\n      dup2\n        /* \"#utility.yul\":6113:6137   */\n      tag_90\n      jump\t// in\n    tag_132:\n        /* \"#utility.yul\":6106:6111   */\n      dup2\n        /* \"#utility.yul\":6103:6138   */\n      eq\n        /* \"#utility.yul\":6093:6156   */\n      tag_133\n      jumpi\n        /* \"#utility.yul\":6152:6153   */\n      0x00\n        /* \"#utility.yul\":6149:6150   */\n      dup1\n        /* \"#utility.yul\":6142:6154   */\n      revert\n        /* \"#utility.yul\":6093:6156   */\n    tag_133:\n        /* \"#utility.yul\":6040:6162   */\n      pop\n      jump\t// out\n\n    auxdata: 0xa2646970667358221220d3f09e8e0207bb872de92e189e662498ac5ac45f6254edfdf83cf7d960fb999f64736f6c63430008070033\n}\n",
				"bytecode": {
					"linkReferences": {},
					"object": "608060405234801561001057600080fd5b50610648806100206000396000f3fe60806040526004361061004a5760003560e01c80633fa4f2451461004f5780634e70b1dc1461007a57806367e404ce146100a5578063d1e0f308146100d0578063d220e077146100ec575b600080fd5b34801561005b57600080fd5b50610064610117565b6040516100719190610488565b60405180910390f35b34801561008657600080fd5b5061008f61011d565b60405161009c9190610488565b60405180910390f35b3480156100b157600080fd5b506100ba610123565b6040516100c7919061042b565b60405180910390f35b6100ea60048036038101906100e59190610329565b610149565b005b3480156100f857600080fd5b50610101610271565b60405161010e9190610446565b60405180910390f35b60025481565b60005481565b600160009054906101000a900473ffffffffffffffffffffffffffffffffffffffff1681565b6000808373ffffffffffffffffffffffffffffffffffffffff16636466414b60e01b8460405160240161017c9190610488565b604051602081830303815290604052907bffffffffffffffffffffffffffffffffffffffffffffffffffffffff19166020820180517bffffffffffffffffffffffffffffffffffffffffffffffffffffffff83818316178352505050506040516101e69190610414565b600060405180830381855af49150503d8060008114610221576040519150601f19603f3d011682016040523d82523d6000602084013e610226565b606091505b50915091508161026b576040517f08c379a000000000000000000000000000000000000000000000000000000000815260040161026290610468565b60405180910390fd5b50505050565b6003805461027e90610544565b80601f01602080910402602001604051908101604052809291908181526020018280546102aa90610544565b80156102f75780601f106102cc576101008083540402835291602001916102f7565b820191906000526020600020905b8154815290600101906020018083116102da57829003601f168201915b505050505081565b60008135905061030e816105e4565b92915050565b600081359050610323816105fb565b92915050565b600080604083850312156103405761033f6105a5565b5b600061034e858286016102ff565b925050602061035f85828601610314565b9150509250929050565b610372816104d5565b82525050565b6000610383826104a3565b61038d81856104b9565b935061039d818560208601610511565b80840191505092915050565b60006103b4826104ae565b6103be81856104c4565b93506103ce818560208601610511565b6103d7816105aa565b840191505092915050565b60006103ef6013836104c4565b91506103fa826105bb565b602082019050919050565b61040e81610507565b82525050565b60006104208284610378565b915081905092915050565b60006020820190506104406000830184610369565b92915050565b6000602082019050818103600083015261046081846103a9565b905092915050565b60006020820190508181036000830152610481816103e2565b9050919050565b600060208201905061049d6000830184610405565b92915050565b600081519050919050565b600081519050919050565b600081905092915050565b600082825260208201905092915050565b60006104e0826104e7565b9050919050565b600073ffffffffffffffffffffffffffffffffffffffff82169050919050565b6000819050919050565b60005b8381101561052f578082015181840152602081019050610514565b8381111561053e576000848401525b50505050565b6000600282049050600182168061055c57607f821691505b602082108114156105705761056f610576565b5b50919050565b7f4e487b7100000000000000000000000000000000000000000000000000000000600052602260045260246000fd5b600080fd5b6000601f19601f8301169050919050565b7f64656c656761746563616c6c206661696c656400000000000000000000000000600082015250565b6105ed816104d5565b81146105f857600080fd5b50565b61060481610507565b811461060f57600080fd5b5056fea2646970667358221220d3f09e8e0207bb872de92e189e662498ac5ac45f6254edfdf83cf7d960fb999f64736f6c63430008070033",
					"opcodes": "PUSH1 0x80 PUSH1 0x40 MSTORE CALLVALUE DUP1 ISZERO PUSH2 0x10 JUMPI PUSH1 0x0 DUP1 REVERT JUMPDEST POP PUSH2 0x648 DUP1 PUSH2 0x20 PUSH1 0x0 CODECOPY PUSH1 0x0 RETURN INVALID PUSH1 0x80 PUSH1 0x40 MSTORE PUSH1 0x4 CALLDATASIZE LT PUSH2 0x4A JUMPI PUSH1 0x0 CALLDATALOAD PUSH1 0xE0 SHR DUP1 PUSH4 0x3FA4F245 EQ PUSH2 0x4F JUMPI DUP1 PUSH4 0x4E70B1DC EQ PUSH2 0x7A JUMPI DUP1 PUSH4 0x67E404CE EQ PUSH2 0xA5 JUMPI DUP1 PUSH4 0xD1E0F308 EQ PUSH2 0xD0 JUMPI DUP1 PUSH4 0xD220E077 EQ PUSH2 0xEC JUMPI JUMPDEST PUSH1 0x0 DUP1 REVERT JUMPDEST CALLVALUE DUP1 ISZERO PUSH2 0x5B JUMPI PUSH1 0x0 DUP1 REVERT JUMPDEST POP PUSH2 0x64 PUSH2 0x117 JUMP JUMPDEST PUSH1 0x40 MLOAD PUSH2 0x71 SWAP2 SWAP1 PUSH2 0x488 JUMP JUMPDEST PUSH1 0x40 MLOAD DUP1 SWAP2 SUB SWAP1 RETURN JUMPDEST CALLVALUE DUP1 ISZERO PUSH2 0x86 JUMPI PUSH1 0x0 DUP1 REVERT JUMPDEST POP PUSH2 0x8F PUSH2 0x11D JUMP JUMPDEST PUSH1 0x40 MLOAD PUSH2 0x9C SWAP2 SWAP1 PUSH2 0x488 JUMP JUMPDEST PUSH1 0x40 MLOAD DUP1 SWAP2 SUB SWAP1 RETURN JUMPDEST CALLVALUE DUP1 ISZERO PUSH2 0xB1 JUMPI PUSH1 0x0 DUP1 REVERT JUMPDEST POP PUSH2 0xBA PUSH2 0x123 JUMP JUMPDEST PUSH1 0x40 MLOAD PUSH2 0xC7 SWAP2 SWAP1 PUSH2 0x42B JUMP JUMPDEST PUSH1 0x40 MLOAD DUP1 SWAP2 SUB SWAP1 RETURN JUMPDEST PUSH2 0xEA PUSH1 0x4 DUP1 CALLDATASIZE SUB DUP2 ADD SWAP1 PUSH2 0xE5 SWAP2 SWAP1 PUSH2 0x329 JUMP JUMPDEST PUSH2 0x149 JUMP JUMPDEST STOP JUMPDEST CALLVALUE DUP1 ISZERO PUSH2 0xF8 JUMPI PUSH1 0x0 DUP1 REVERT JUMPDEST POP PUSH2 0x101 PUSH2 0x271 JUMP JUMPDEST PUSH1 0x40 MLOAD PUSH2 0x10E SWAP2 SWAP1 PUSH2 0x446 JUMP JUMPDEST PUSH1 0x40 MLOAD DUP1 SWAP2 SUB SWAP1 RETURN JUMPDEST PUSH1 0x2 SLOAD DUP2 JUMP JUMPDEST PUSH1 0x0 SLOAD DUP2 JUMP JUMPDEST PUSH1 0x1 PUSH1 0x0 SWAP1 SLOAD SWAP1 PUSH2 0x100 EXP SWAP1 DIV PUSH20 0xFFFFFFFFFFFFFFFFFFFFFFFFFFFFFFFFFFFFFFFF AND DUP2 JUMP JUMPDEST PUSH1 0x0 DUP1 DUP4 PUSH20 0xFFFFFFFFFFFFFFFFFFFFFFFFFFFFFFFFFFFFFFFF AND PUSH4 0x6466414B PUSH1 0xE0 SHL DUP5 PUSH1 0x40 MLOAD PUSH1 0x24 ADD PUSH2 0x17C SWAP2 SWAP1 PUSH2 0x488 JUMP JUMPDEST PUSH1 0x40 MLOAD PUSH1 0x20 DUP2 DUP4 SUB SUB DUP2 MSTORE SWAP1 PUSH1 0x40 MSTORE SWAP1 PUSH28 0xFFFFFFFFFFFFFFFFFFFFFFFFFFFFFFFFFFFFFFFFFFFFFFFFFFFFFFFF NOT AND PUSH1 0x20 DUP3 ADD DUP1 MLOAD PUSH28 0xFFFFFFFFFFFFFFFFFFFFFFFFFFFFFFFFFFFFFFFFFFFFFFFFFFFFFFFF DUP4 DUP2 DUP4 AND OR DUP4 MSTORE POP POP POP POP PUSH1 0x40 MLOAD PUSH2 0x1E6 SWAP2 SWAP1 PUSH2 0x414 JUMP JUMPDEST PUSH1 0x0 PUSH1 0x40 MLOAD DUP1 DUP4 SUB DUP2 DUP6 GAS DELEGATECALL SWAP2 POP POP RETURNDATASIZE DUP1 PUSH1 0x0 DUP2 EQ PUSH2 0x221 JUMPI PUSH1 0x40 MLOAD SWAP2 POP PUSH1 0x1F NOT PUSH1 0x3F RETURNDATASIZE ADD AND DUP3 ADD PUSH1 0x40 MSTORE RETURNDATASIZE DUP3 MSTORE RETURNDATASIZE PUSH1 0x0 PUSH1 0x20 DUP5 ADD RETURNDATACOPY PUSH2 0x226 JUMP JUMPDEST PUSH1 0x60 SWAP2 POP JUMPDEST POP SWAP2 POP SWAP2 POP DUP2 PUSH2 0x26B JUMPI PUSH1 0x40 MLOAD PUSH32 0x8C379A000000000000000000000000000000000000000000000000000000000 DUP2 MSTORE PUSH1 0x4 ADD PUSH2 0x262 SWAP1 PUSH2 0x468 JUMP JUMPDEST PUSH1 0x40 MLOAD DUP1 SWAP2 SUB SWAP1 REVERT JUMPDEST POP POP POP POP JUMP JUMPDEST PUSH1 0x3 DUP1 SLOAD PUSH2 0x27E SWAP1 PUSH2 0x544 JUMP JUMPDEST DUP1 PUSH1 0x1F ADD PUSH1 0x20 DUP1 SWAP2 DIV MUL PUSH1 0x20 ADD PUSH1 0x40 MLOAD SWAP1 DUP2 ADD PUSH1 0x40 MSTORE DUP1 SWAP3 SWAP2 SWAP1 DUP2 DUP2 MSTORE PUSH1 0x20 ADD DUP3 DUP1 SLOAD PUSH2 0x2AA SWAP1 PUSH2 0x544 JUMP JUMPDEST DUP1 ISZERO PUSH2 0x2F7 JUMPI DUP1 PUSH1 0x1F LT PUSH2 0x2CC JUMPI PUSH2 0x100 DUP1 DUP4 SLOAD DIV MUL DUP4 MSTORE SWAP2 PUSH1 0x20 ADD SWAP2 PUSH2 0x2F7 JUMP JUMPDEST DUP3 ADD SWAP2 SWAP1 PUSH1 0x0 MSTORE PUSH1 0x20 PUSH1 0x0 KECCAK256 SWAP1 JUMPDEST DUP2 SLOAD DUP2 MSTORE SWAP1 PUSH1 0x1 ADD SWAP1 PUSH1 0x20 ADD DUP1 DUP4 GT PUSH2 0x2DA JUMPI DUP3 SWAP1 SUB PUSH1 0x1F AND DUP3 ADD SWAP2 JUMPDEST POP POP POP POP POP DUP2 JUMP JUMPDEST PUSH1 0x0 DUP2 CALLDATALOAD SWAP1 POP PUSH2 0x30E DUP2 PUSH2 0x5E4 JUMP JUMPDEST SWAP3 SWAP2 POP POP JUMP JUMPDEST PUSH1 0x0 DUP2 CALLDATALOAD SWAP1 POP PUSH2 0x323 DUP2 PUSH2 0x5FB JUMP JUMPDEST SWAP3 SWAP2 POP POP JUMP JUMPDEST PUSH1 0x0 DUP1 PUSH1 0x40 DUP4 DUP6 SUB SLT ISZERO PUSH2 0x340 JUMPI PUSH2 0x33F PUSH2 0x5A5 JUMP JUMPDEST JUMPDEST PUSH1 0x0 PUSH2 0x34E DUP6 DUP3 DUP7 ADD PUSH2 0x2FF JUMP JUMPDEST SWAP3 POP POP PUSH1 0x20 PUSH2 0x35F DUP6 DUP3 DUP7 ADD PUSH2 0x314 JUMP JUMPDEST SWAP2 POP POP SWAP3 POP SWAP3 SWAP1 POP JUMP JUMPDEST PUSH2 0x372 DUP2 PUSH2 0x4D5 JUMP JUMPDEST DUP3 MSTORE POP POP JUMP JUMPDEST PUSH1 0x0 PUSH2 0x383 DUP3 PUSH2 0x4A3 JUMP JUMPDEST PUSH2 0x38D DUP2 DUP6 PUSH2 0x4B9 JUMP JUMPDEST SWAP4 POP PUSH2 0x39D DUP2 DUP6 PUSH1 0x20 DUP7 ADD PUSH2 0x511 JUMP JUMPDEST DUP1 DUP5 ADD SWAP2 POP POP SWAP3 SWAP2 POP POP JUMP JUMPDEST PUSH1 0x0 PUSH2 0x3B4 DUP3 PUSH2 0x4AE JUMP JUMPDEST PUSH2 0x3BE DUP2 DUP6 PUSH2 0x4C4 JUMP JUMPDEST SWAP4 POP PUSH2 0x3CE DUP2 DUP6 PUSH1 0x20 DUP7 ADD PUSH2 0x511 JUMP JUMPDEST PUSH2 0x3D7 DUP2 PUSH2 0x5AA JUMP JUMPDEST DUP5 ADD SWAP2 POP POP SWAP3 SWAP2 POP POP JUMP JUMPDEST PUSH1 0x0 PUSH2 0x3EF PUSH1 0x13 DUP4 PUSH2 0x4C4 JUMP JUMPDEST SWAP2 POP PUSH2 0x3FA DUP3 PUSH2 0x5BB JUMP JUMPDEST PUSH1 0x20 DUP3 ADD SWAP1 POP SWAP2 SWAP1 POP JUMP JUMPDEST PUSH2 0x40E DUP2 PUSH2 0x507 JUMP JUMPDEST DUP3 MSTORE POP POP JUMP JUMPDEST PUSH1 0x0 PUSH2 0x420 DUP3 DUP5 PUSH2 0x378 JUMP JUMPDEST SWAP2 POP DUP2 SWAP1 POP SWAP3 SWAP2 POP POP JUMP JUMPDEST PUSH1 0x0 PUSH1 0x20 DUP3 ADD SWAP1 POP PUSH2 0x440 PUSH1 0x0 DUP4 ADD DUP5 PUSH2 0x369 JUMP JUMPDEST SWAP3 SWAP2 POP POP JUMP JUMPDEST PUSH1 0x0 PUSH1 0x20 DUP3 ADD SWAP1 POP DUP2 DUP2 SUB PUSH1 0x0 DUP4 ADD MSTORE PUSH2 0x460 DUP2 DUP5 PUSH2 0x3A9 JUMP JUMPDEST SWAP1 POP SWAP3 SWAP2 POP POP JUMP JUMPDEST PUSH1 0x0 PUSH1 0x20 DUP3 ADD SWAP1 POP DUP2 DUP2 SUB PUSH1 0x0 DUP4 ADD MSTORE PUSH2 0x481 DUP2 PUSH2 0x3E2 JUMP JUMPDEST SWAP1 POP SWAP2 SWAP1 POP JUMP JUMPDEST PUSH1 0x0 PUSH1 0x20 DUP3 ADD SWAP1 POP PUSH2 0x49D PUSH1 0x0 DUP4 ADD DUP5 PUSH2 0x405 JUMP JUMPDEST SWAP3 SWAP2 POP POP JUMP JUMPDEST PUSH1 0x0 DUP2 MLOAD SWAP1 POP SWAP2 SWAP1 POP JUMP JUMPDEST PUSH1 0x0 DUP2 MLOAD SWAP1 POP SWAP2 SWAP1 POP JUMP JUMPDEST PUSH1 0x0 DUP2 SWAP1 POP SWAP3 SWAP2 POP POP JUMP JUMPDEST PUSH1 0x0 DUP3 DUP3 MSTORE PUSH1 0x20 DUP3 ADD SWAP1 POP SWAP3 SWAP2 POP POP JUMP JUMPDEST PUSH1 0x0 PUSH2 0x4E0 DUP3 PUSH2 0x4E7 JUMP JUMPDEST SWAP1 POP SWAP2 SWAP1 POP JUMP JUMPDEST PUSH1 0x0 PUSH20 0xFFFFFFFFFFFFFFFFFFFFFFFFFFFFFFFFFFFFFFFF DUP3 AND SWAP1 POP SWAP2 SWAP1 POP JUMP JUMPDEST PUSH1 0x0 DUP2 SWAP1 POP SWAP2 SWAP1 POP JUMP JUMPDEST PUSH1 0x0 JUMPDEST DUP4 DUP2 LT ISZERO PUSH2 0x52F JUMPI DUP1 DUP3 ADD MLOAD DUP2 DUP5 ADD MSTORE PUSH1 0x20 DUP2 ADD SWAP1 POP PUSH2 0x514 JUMP JUMPDEST DUP4 DUP2 GT ISZERO PUSH2 0x53E JUMPI PUSH1 0x0 DUP5 DUP5 ADD MSTORE JUMPDEST POP POP POP POP JUMP JUMPDEST PUSH1 0x0 PUSH1 0x2 DUP3 DIV SWAP1 POP PUSH1 0x1 DUP3 AND DUP1 PUSH2 0x55C JUMPI PUSH1 0x7F DUP3 AND SWAP2 POP JUMPDEST PUSH1 0x20 DUP3 LT DUP2 EQ ISZERO PUSH2 0x570 JUMPI PUSH2 0x56F PUSH2 0x576 JUMP JUMPDEST JUMPDEST POP SWAP2 SWAP1 POP JUMP JUMPDEST PUSH32 0x4E487B7100000000000000000000000000000000000000000000000000000000 PUSH1 0x0 MSTORE PUSH1 0x22 PUSH1 0x4 MSTORE PUSH1 0x24 PUSH1 0x0 REVERT JUMPDEST PUSH1 0x0 DUP1 REVERT JUMPDEST PUSH1 0x0 PUSH1 0x1F NOT PUSH1 0x1F DUP4 ADD AND SWAP1 POP SWAP2 SWAP1 POP JUMP JUMPDEST PUSH32 0x64656C656761746563616C6C206661696C656400000000000000000000000000 PUSH1 0x0 DUP3 ADD MSTORE POP JUMP JUMPDEST PUSH2 0x5ED DUP2 PUSH2 0x4D5 JUMP JUMPDEST DUP2 EQ PUSH2 0x5F8 JUMPI PUSH1 0x0 DUP1 REVERT JUMPDEST POP JUMP JUMPDEST PUSH2 0x604 DUP2 PUSH2 0x507 JUMP JUMPDEST DUP2 EQ PUSH2 0x60F JUMPI PUSH1 0x0 DUP1 REVERT JUMPDEST POP JUMP INVALID LOG2 PUSH5 0x6970667358 0x22 SLT KECCAK256 0xD3 CREATE SWAP15 DUP15 MUL SMOD 0xBB DUP8 0x2D 0xE9 0x2E XOR SWAP15 PUSH7 0x2498AC5AC45F62 SLOAD 0xED REVERT 0xF8 EXTCODECOPY 0xF7 0xD9 PUSH1 0xFB SWAP10 SWAP16 PUSH5 0x736F6C6343 STOP ADDMOD SMOD STOP CALLER "
				},
				"gasEstimates": {
					"creation": {
						"codeDepositCost": "321600",
						"executionCost": "362",
						"totalCost": "321962"
					},
					"external": {
						"ffff()": "infinite",
						"num()": "2429",
						"sender()": "2536",
						"setVars(address,uint256)": "infinite",
						"value()": "2407"
					}
				},
				"methodIdentifiers": {
					"ffff()": "d220e077",
					"num()": "4e70b1dc",
					"sender()": "67e404ce",
					"setVars(address,uint256)": "d1e0f308",
					"value()": "3fa4f245"
				}
			},
			"storageLayout": {
				"storage": [
					{
						"astId": 34,
						"contract": "tests/DelegatecallTest.sol:A",
						"label": "num",
						"offset": 0,
						"slot": "0",
						"type": "t_uint256"
					},
					{
						"astId": 36,
						"contract": "tests/DelegatecallTest.sol:A",
						"label": "sender",
						"offset": 0,
						"slot": "1",
						"type": "t_address"
					},
					{
						"astId": 38,
						"contract": "tests/DelegatecallTest.sol:A",
						"label": "value",
						"offset": 0,
						"slot": "2",
						"type": "t_uint256"
					},
					{
						"astId": 40,
						"contract": "tests/DelegatecallTest.sol:A",
						"label": "ffff",
						"offset": 0,
						"slot": "3",
						"type": "t_string_storage"
					}
				],
				"types": {
					"t_address": {
						"encoding": "inplace",
						"label": "address",
						"numberOfBytes": "20"
					},
					"t_string_storage": {
						"encoding": "bytes",
						"label": "string",
						"numberOfBytes": "32"
					},
					"t_uint256": {
						"encoding": "inplace",
						"label": "uint256",
						"numberOfBytes": "32"
					}
				}
			},
			"userdoc": {
				"kind": "user",
				"methods": {},
				"version": 1
			}
		}
	}
}