{
	"tests/DiscreteStakingRewards.sol": {
		"DiscreteStakingRewards": {
			"abi": [
				{
					"inputs": [
						{
							"internalType": "address",
							"name": "_stakingToken",
							"type": "address"
						},
						{
							"internalType": "address",
							"name": "_rewardToken",
							"type": "address"
						}
					],
					"stateMutability": "nonpayable",
					"type": "constructor"
				},
				{
					"inputs": [
						{
							"internalType": "address",
							"name": "",
							"type": "address"
						}
					],
					"name": "balancesOf",
					"outputs": [
						{
							"internalType": "uint256",
							"name": "",
							"type": "uint256"
						}
					],
					"stateMutability": "view",
					"type": "function"
				},
				{
					"inputs": [
						{
							"internalType": "address",
							"name": "account",
							"type": "address"
						}
					],
					"name": "calculateRewardEarned",
					"outputs": [
						{
							"internalType": "uint256",
							"name": "",
							"type": "uint256"
						}
					],
					"stateMutability": "view",
					"type": "function"
				},
				{
					"inputs": [],
					"name": "claim",
					"outputs": [
						{
							"internalType": "uint256",
							"name": "",
							"type": "uint256"
						}
					],
					"stateMutability": "nonpayable",
					"type": "function"
				},
				{
					"inputs": [],
					"name": "rewardToken",
					"outputs": [
						{
							"internalType": "contract IERC20",
							"name": "",
							"type": "address"
						}
					],
					"stateMutability": "view",
					"type": "function"
				},
				{
					"inputs": [
						{
							"internalType": "uint256",
							"name": "amount",
							"type": "uint256"
						}
					],
					"name": "stake",
					"outputs": [],
					"stateMutability": "nonpayable",
					"type": "function"
				},
				{
					"inputs": [],
					"name": "stakingToken",
					"outputs": [
						{
							"internalType": "contract IERC20",
							"name": "",
							"type": "address"
						}
					],
					"stateMutability": "view",
					"type": "function"
				},
				{
					"inputs": [],
					"name": "totalSupply",
					"outputs": [
						{
							"internalType": "uint256",
							"name": "",
							"type": "uint256"
						}
					],
					"stateMutability": "view",
					"type": "function"
				},
				{
					"inputs": [
						{
							"internalType": "uint256",
							"name": "amount",
							"type": "uint256"
						}
					],
					"name": "unstake",
					"outputs": [],
					"stateMutability": "nonpayable",
					"type": "function"
				},
				{
					"inputs": [
						{
							"internalType": "uint256",
							"name": "reward",
							"type": "uint256"
						}
					],
					"name": "updateRewardIndex",
					"outputs": [],
					"stateMutability": "nonpayable",
					"type": "function"
				}
			],
			"devdoc": {
				"kind": "dev",
				"methods": {},
				"version": 1
			},
			"evm": {
				"assembly": "    /* \"tests/DiscreteStakingRewards.sol\":575:2613  contract DiscreteStakingRewards {... */\n  mstore(0x40, 0xc0)\n    /* \"tests/DiscreteStakingRewards.sol\":964:1124  constructor(address _stakingToken, address _rewardToken) {... */\n  callvalue\n  dup1\n  iszero\n  tag_1\n  jumpi\n  0x00\n  dup1\n  revert\ntag_1:\n  pop\n  mload(0x40)\n  sub(codesize, bytecodeSize)\n  dup1\n  bytecodeSize\n  dup4\n  codecopy\n  dup2\n  dup2\n  add\n  0x40\n  mstore\n  dup2\n  add\n  swap1\n  tag_2\n  swap2\n  swap1\n  tag_3\n  jump\t// in\ntag_2:\n    /* \"tests/DiscreteStakingRewards.sol\":1054:1067  _stakingToken */\n  dup2\n    /* \"tests/DiscreteStakingRewards.sol\":1032:1069  stakingToken = IERC20(_stakingToken ) */\n  0xffffffffffffffffffffffffffffffffffffffff\n  and\n  0x80\n  dup2\n  0xffffffffffffffffffffffffffffffffffffffff\n  and\n  dup2\n  mstore\n  pop\n  pop\n    /* \"tests/DiscreteStakingRewards.sol\":1102:1114  _rewardToken */\n  dup1\n    /* \"tests/DiscreteStakingRewards.sol\":1080:1116  stakingToken = IERC20(_rewardToken ) */\n  0xffffffffffffffffffffffffffffffffffffffff\n  and\n  0x80\n  dup2\n  0xffffffffffffffffffffffffffffffffffffffff\n  and\n  dup2\n  mstore\n  pop\n  pop\n    /* \"tests/DiscreteStakingRewards.sol\":964:1124  constructor(address _stakingToken, address _rewardToken) {... */\n  pop\n  pop\n    /* \"tests/DiscreteStakingRewards.sol\":575:2613  contract DiscreteStakingRewards {... */\n  jump(tag_6)\n    /* \"#utility.yul\":88:205   */\ntag_8:\n    /* \"#utility.yul\":197:198   */\n  0x00\n    /* \"#utility.yul\":194:195   */\n  dup1\n    /* \"#utility.yul\":187:199   */\n  revert\n    /* \"#utility.yul\":334:460   */\ntag_10:\n    /* \"#utility.yul\":371:378   */\n  0x00\n    /* \"#utility.yul\":411:453   */\n  0xffffffffffffffffffffffffffffffffffffffff\n    /* \"#utility.yul\":404:409   */\n  dup3\n    /* \"#utility.yul\":400:454   */\n  and\n    /* \"#utility.yul\":389:454   */\n  swap1\n  pop\n    /* \"#utility.yul\":334:460   */\n  swap2\n  swap1\n  pop\n  jump\t// out\n    /* \"#utility.yul\":466:562   */\ntag_11:\n    /* \"#utility.yul\":503:510   */\n  0x00\n    /* \"#utility.yul\":532:556   */\n  tag_20\n    /* \"#utility.yul\":550:555   */\n  dup3\n    /* \"#utility.yul\":532:556   */\n  tag_10\n  jump\t// in\ntag_20:\n    /* \"#utility.yul\":521:556   */\n  swap1\n  pop\n    /* \"#utility.yul\":466:562   */\n  swap2\n  swap1\n  pop\n  jump\t// out\n    /* \"#utility.yul\":568:690   */\ntag_12:\n    /* \"#utility.yul\":641:665   */\n  tag_22\n    /* \"#utility.yul\":659:664   */\n  dup2\n    /* \"#utility.yul\":641:665   */\n  tag_11\n  jump\t// in\ntag_22:\n    /* \"#utility.yul\":634:639   */\n  dup2\n    /* \"#utility.yul\":631:666   */\n  eq\n    /* \"#utility.yul\":621:684   */\n  tag_23\n  jumpi\n    /* \"#utility.yul\":680:681   */\n  0x00\n    /* \"#utility.yul\":677:678   */\n  dup1\n    /* \"#utility.yul\":670:682   */\n  revert\n    /* \"#utility.yul\":621:684   */\ntag_23:\n    /* \"#utility.yul\":568:690   */\n  pop\n  jump\t// out\n    /* \"#utility.yul\":696:839   */\ntag_13:\n    /* \"#utility.yul\":753:758   */\n  0x00\n    /* \"#utility.yul\":784:790   */\n  dup2\n    /* \"#utility.yul\":778:791   */\n  mload\n    /* \"#utility.yul\":769:791   */\n  swap1\n  pop\n    /* \"#utility.yul\":800:833   */\n  tag_25\n    /* \"#utility.yul\":827:832   */\n  dup2\n    /* \"#utility.yul\":800:833   */\n  tag_12\n  jump\t// in\ntag_25:\n    /* \"#utility.yul\":696:839   */\n  swap3\n  swap2\n  pop\n  pop\n  jump\t// out\n    /* \"#utility.yul\":845:1352   */\ntag_3:\n    /* \"#utility.yul\":924:930   */\n  0x00\n    /* \"#utility.yul\":932:938   */\n  dup1\n    /* \"#utility.yul\":981:983   */\n  0x40\n    /* \"#utility.yul\":969:978   */\n  dup4\n    /* \"#utility.yul\":960:967   */\n  dup6\n    /* \"#utility.yul\":956:979   */\n  sub\n    /* \"#utility.yul\":952:984   */\n  slt\n    /* \"#utility.yul\":949:1068   */\n  iszero\n  tag_27\n  jumpi\n    /* \"#utility.yul\":987:1066   */\n  tag_28\n  tag_8\n  jump\t// in\ntag_28:\n    /* \"#utility.yul\":949:1068   */\ntag_27:\n    /* \"#utility.yul\":1107:1108   */\n  0x00\n    /* \"#utility.yul\":1132:1196   */\n  tag_29\n    /* \"#utility.yul\":1188:1195   */\n  dup6\n    /* \"#utility.yul\":1179:1185   */\n  dup3\n    /* \"#utility.yul\":1168:1177   */\n  dup7\n    /* \"#utility.yul\":1164:1186   */\n  add\n    /* \"#utility.yul\":1132:1196   */\n  tag_13\n  jump\t// in\ntag_29:\n    /* \"#utility.yul\":1122:1196   */\n  swap3\n  pop\n    /* \"#utility.yul\":1078:1206   */\n  pop\n    /* \"#utility.yul\":1245:1247   */\n  0x20\n    /* \"#utility.yul\":1271:1335   */\n  tag_30\n    /* \"#utility.yul\":1327:1334   */\n  dup6\n    /* \"#utility.yul\":1318:1324   */\n  dup3\n    /* \"#utility.yul\":1307:1316   */\n  dup7\n    /* \"#utility.yul\":1303:1325   */\n  add\n    /* \"#utility.yul\":1271:1335   */\n  tag_13\n  jump\t// in\ntag_30:\n    /* \"#utility.yul\":1261:1335   */\n  swap2\n  pop\n    /* \"#utility.yul\":1216:1345   */\n  pop\n    /* \"#utility.yul\":845:1352   */\n  swap3\n  pop\n  swap3\n  swap1\n  pop\n  jump\t// out\n    /* \"tests/DiscreteStakingRewards.sol\":575:2613  contract DiscreteStakingRewards {... */\ntag_6:\n  mload(0x80)\n  mload(0xa0)\n  codecopy(0x00, dataOffset(sub_0), dataSize(sub_0))\n  0x00\n  assignImmutable(\"0x59d26ca75eb04b47ab1bca5d789d02e4d0cf9ff8cb49c9041caeeeab4eccafbf\")\n  0x00\n  assignImmutable(\"0x6590fa52fa76f967656340b874bc9ca09733c2fddea9886210ebcbbceee04b35\")\n  return(0x00, dataSize(sub_0))\nstop\n\nsub_0: assembly {\n        /* \"tests/DiscreteStakingRewards.sol\":575:2613  contract DiscreteStakingRewards {... */\n      mstore(0x40, 0x80)\n      callvalue\n      dup1\n      iszero\n      tag_1\n      jumpi\n      0x00\n      dup1\n      revert\n    tag_1:\n      pop\n      jumpi(tag_2, lt(calldatasize, 0x04))\n      shr(0xe0, calldataload(0x00))\n      dup1\n      0x5a230162\n      gt\n      tag_12\n      jumpi\n      dup1\n      0x5a230162\n      eq\n      tag_7\n      jumpi\n      dup1\n      0x6392a51f\n      eq\n      tag_8\n      jumpi\n      dup1\n      0x72f702f3\n      eq\n      tag_9\n      jumpi\n      dup1\n      0xa694fc3a\n      eq\n      tag_10\n      jumpi\n      dup1\n      0xf7c618c1\n      eq\n      tag_11\n      jumpi\n      jump(tag_2)\n    tag_12:\n      dup1\n      0x0dcc4b44\n      eq\n      tag_3\n      jumpi\n      dup1\n      0x18160ddd\n      eq\n      tag_4\n      jumpi\n      dup1\n      0x2e17de78\n      eq\n      tag_5\n      jumpi\n      dup1\n      0x4e71d92d\n      eq\n      tag_6\n      jumpi\n    tag_2:\n      0x00\n      dup1\n      revert\n        /* \"tests/DiscreteStakingRewards.sol\":1132:1320  function updateRewardIndex(uint reward) external {... */\n    tag_3:\n      tag_13\n      0x04\n      dup1\n      calldatasize\n      sub\n      dup2\n      add\n      swap1\n      tag_14\n      swap2\n      swap1\n      tag_15\n      jump\t// in\n    tag_14:\n      tag_16\n      jump\t// in\n    tag_13:\n      stop\n        /* \"tests/DiscreteStakingRewards.sol\":751:774  uint public totalSupply */\n    tag_4:\n      tag_17\n      tag_18\n      jump\t// in\n    tag_17:\n      mload(0x40)\n      tag_19\n      swap2\n      swap1\n      tag_20\n      jump\t// in\n    tag_19:\n      mload(0x40)\n      dup1\n      swap2\n      sub\n      swap1\n      return\n        /* \"tests/DiscreteStakingRewards.sol\":2099:2312  function unstake(uint amount) external {... */\n    tag_5:\n      tag_21\n      0x04\n      dup1\n      calldatasize\n      sub\n      dup2\n      add\n      swap1\n      tag_22\n      swap2\n      swap1\n      tag_15\n      jump\t// in\n    tag_22:\n      tag_23\n      jump\t// in\n    tag_21:\n      stop\n        /* \"tests/DiscreteStakingRewards.sol\":2320:2604  function claim() external returns(uint) {... */\n    tag_6:\n      tag_24\n      tag_25\n      jump\t// in\n    tag_24:\n      mload(0x40)\n      tag_26\n      swap2\n      swap1\n      tag_20\n      jump\t// in\n    tag_26:\n      mload(0x40)\n      dup1\n      swap2\n      sub\n      swap1\n      return\n        /* \"tests/DiscreteStakingRewards.sol\":1539:1685  function calculateRewardEarned(address account) external view returns(uint){... */\n    tag_7:\n      tag_27\n      0x04\n      dup1\n      calldatasize\n      sub\n      dup2\n      add\n      swap1\n      tag_28\n      swap2\n      swap1\n      tag_29\n      jump\t// in\n    tag_28:\n      tag_30\n      jump\t// in\n    tag_27:\n      mload(0x40)\n      tag_31\n      swap2\n      swap1\n      tag_20\n      jump\t// in\n    tag_31:\n      mload(0x40)\n      dup1\n      swap2\n      sub\n      swap1\n      return\n        /* \"tests/DiscreteStakingRewards.sol\":701:744  mapping (address => uint) public balancesOf */\n    tag_8:\n      tag_32\n      0x04\n      dup1\n      calldatasize\n      sub\n      dup2\n      add\n      swap1\n      tag_33\n      swap2\n      swap1\n      tag_29\n      jump\t// in\n    tag_33:\n      tag_34\n      jump\t// in\n    tag_32:\n      mload(0x40)\n      tag_35\n      swap2\n      swap1\n      tag_20\n      jump\t// in\n    tag_35:\n      mload(0x40)\n      dup1\n      swap2\n      sub\n      swap1\n      return\n        /* \"tests/DiscreteStakingRewards.sol\":614:650  IERC20 public immutable stakingToken */\n    tag_9:\n      tag_36\n      tag_37\n      jump\t// in\n    tag_36:\n      mload(0x40)\n      tag_38\n      swap2\n      swap1\n      tag_39\n      jump\t// in\n    tag_38:\n      mload(0x40)\n      dup1\n      swap2\n      sub\n      swap1\n      return\n        /* \"tests/DiscreteStakingRewards.sol\":1861:2091  function stake(uint amount) external {... */\n    tag_10:\n      tag_40\n      0x04\n      dup1\n      calldatasize\n      sub\n      dup2\n      add\n      swap1\n      tag_41\n      swap2\n      swap1\n      tag_15\n      jump\t// in\n    tag_41:\n      tag_42\n      jump\t// in\n    tag_40:\n      stop\n        /* \"tests/DiscreteStakingRewards.sol\":657:692  IERC20 public immutable rewardToken */\n    tag_11:\n      tag_43\n      tag_44\n      jump\t// in\n    tag_43:\n      mload(0x40)\n      tag_45\n      swap2\n      swap1\n      tag_39\n      jump\t// in\n    tag_45:\n      mload(0x40)\n      dup1\n      swap2\n      sub\n      swap1\n      return\n        /* \"tests/DiscreteStakingRewards.sol\":1132:1320  function updateRewardIndex(uint reward) external {... */\n    tag_16:\n        /* \"tests/DiscreteStakingRewards.sol\":1192:1203  rewardToken */\n      immutable(\"0x59d26ca75eb04b47ab1bca5d789d02e4d0cf9ff8cb49c9041caeeeab4eccafbf\")\n        /* \"tests/DiscreteStakingRewards.sol\":1192:1216  rewardToken.transferFrom */\n      0xffffffffffffffffffffffffffffffffffffffff\n      and\n      0x23b872dd\n        /* \"tests/DiscreteStakingRewards.sol\":1217:1227  msg.sender */\n      caller\n        /* \"tests/DiscreteStakingRewards.sol\":1237:1241  this */\n      address\n        /* \"tests/DiscreteStakingRewards.sol\":1244:1250  reward */\n      dup5\n        /* \"tests/DiscreteStakingRewards.sol\":1192:1251  rewardToken.transferFrom(msg.sender, address(this), reward) */\n      mload(0x40)\n      dup5\n      0xffffffff\n      and\n      0xe0\n      shl\n      dup2\n      mstore\n      0x04\n      add\n      tag_47\n      swap4\n      swap3\n      swap2\n      swap1\n      tag_48\n      jump\t// in\n    tag_47:\n      0x20\n      mload(0x40)\n      dup1\n      dup4\n      sub\n      dup2\n      0x00\n      dup8\n      gas\n      call\n      iszero\n      dup1\n      iszero\n      tag_50\n      jumpi\n      returndatasize\n      0x00\n      dup1\n      returndatacopy\n      revert(0x00, returndatasize)\n    tag_50:\n      pop\n      pop\n      pop\n      pop\n      mload(0x40)\n      returndatasize\n      not(0x1f)\n      0x1f\n      dup3\n      add\n      and\n      dup3\n      add\n      dup1\n      0x40\n      mstore\n      pop\n      dup2\n      add\n      swap1\n      tag_51\n      swap2\n      swap1\n      tag_52\n      jump\t// in\n    tag_51:\n      pop\n        /* \"tests/DiscreteStakingRewards.sol\":1301:1312  totalSupply */\n      sload(0x01)\n        /* \"tests/DiscreteStakingRewards.sol\":818:822  1e18 */\n      0x0de0b6b3a7640000\n        /* \"tests/DiscreteStakingRewards.sol\":1278:1284  reward */\n      dup3\n        /* \"tests/DiscreteStakingRewards.sol\":1278:1297  reward * MULTIPLIER */\n      tag_53\n      swap2\n      swap1\n      tag_54\n      jump\t// in\n    tag_53:\n        /* \"tests/DiscreteStakingRewards.sol\":1277:1312  (reward * MULTIPLIER) / totalSupply */\n      tag_55\n      swap2\n      swap1\n      tag_56\n      jump\t// in\n    tag_55:\n        /* \"tests/DiscreteStakingRewards.sol\":1262:1273  rewardIndex */\n      0x02\n      0x00\n        /* \"tests/DiscreteStakingRewards.sol\":1262:1312  rewardIndex += (reward * MULTIPLIER) / totalSupply */\n      dup3\n      dup3\n      sload\n      tag_57\n      swap2\n      swap1\n      tag_58\n      jump\t// in\n    tag_57:\n      swap3\n      pop\n      pop\n      dup2\n      swap1\n      sstore\n      pop\n        /* \"tests/DiscreteStakingRewards.sol\":1132:1320  function updateRewardIndex(uint reward) external {... */\n      pop\n      jump\t// out\n        /* \"tests/DiscreteStakingRewards.sol\":751:774  uint public totalSupply */\n    tag_18:\n      sload(0x01)\n      dup2\n      jump\t// out\n        /* \"tests/DiscreteStakingRewards.sol\":2099:2312  function unstake(uint amount) external {... */\n    tag_23:\n        /* \"tests/DiscreteStakingRewards.sol\":2149:2175  _updateRewards(msg.sender) */\n      tag_60\n        /* \"tests/DiscreteStakingRewards.sol\":2164:2174  msg.sender */\n      caller\n        /* \"tests/DiscreteStakingRewards.sol\":2149:2163  _updateRewards */\n      tag_61\n        /* \"tests/DiscreteStakingRewards.sol\":2149:2175  _updateRewards(msg.sender) */\n      jump\t// in\n    tag_60:\n        /* \"tests/DiscreteStakingRewards.sol\":2212:2218  amount */\n      dup1\n        /* \"tests/DiscreteStakingRewards.sol\":2186:2196  balancesOf */\n      0x00\n        /* \"tests/DiscreteStakingRewards.sol\":2186:2208  balancesOf[msg.sender] */\n      dup1\n        /* \"tests/DiscreteStakingRewards.sol\":2197:2207  msg.sender */\n      caller\n        /* \"tests/DiscreteStakingRewards.sol\":2186:2208  balancesOf[msg.sender] */\n      0xffffffffffffffffffffffffffffffffffffffff\n      and\n      0xffffffffffffffffffffffffffffffffffffffff\n      and\n      dup2\n      mstore\n      0x20\n      add\n      swap1\n      dup2\n      mstore\n      0x20\n      add\n      0x00\n      keccak256\n      0x00\n        /* \"tests/DiscreteStakingRewards.sol\":2186:2218  balancesOf[msg.sender] -= amount */\n      dup3\n      dup3\n      sload\n      tag_62\n      swap2\n      swap1\n      tag_63\n      jump\t// in\n    tag_62:\n      swap3\n      pop\n      pop\n      dup2\n      swap1\n      sstore\n      pop\n        /* \"tests/DiscreteStakingRewards.sol\":2244:2250  amount */\n      dup1\n        /* \"tests/DiscreteStakingRewards.sol\":2229:2240  totalSupply */\n      0x01\n      0x00\n        /* \"tests/DiscreteStakingRewards.sol\":2229:2250  totalSupply -= amount */\n      dup3\n      dup3\n      sload\n      tag_64\n      swap2\n      swap1\n      tag_63\n      jump\t// in\n    tag_64:\n      swap3\n      pop\n      pop\n      dup2\n      swap1\n      sstore\n      pop\n        /* \"tests/DiscreteStakingRewards.sol\":2263:2275  stakingToken */\n      immutable(\"0x6590fa52fa76f967656340b874bc9ca09733c2fddea9886210ebcbbceee04b35\")\n        /* \"tests/DiscreteStakingRewards.sol\":2263:2284  stakingToken.transfer */\n      0xffffffffffffffffffffffffffffffffffffffff\n      and\n      0xa9059cbb\n        /* \"tests/DiscreteStakingRewards.sol\":2285:2295  msg.sender */\n      caller\n        /* \"tests/DiscreteStakingRewards.sol\":2297:2303  amount */\n      dup4\n        /* \"tests/DiscreteStakingRewards.sol\":2263:2304  stakingToken.transfer(msg.sender, amount) */\n      mload(0x40)\n      dup4\n      0xffffffff\n      and\n      0xe0\n      shl\n      dup2\n      mstore\n      0x04\n      add\n      tag_65\n      swap3\n      swap2\n      swap1\n      tag_66\n      jump\t// in\n    tag_65:\n      0x20\n      mload(0x40)\n      dup1\n      dup4\n      sub\n      dup2\n      0x00\n      dup8\n      gas\n      call\n      iszero\n      dup1\n      iszero\n      tag_68\n      jumpi\n      returndatasize\n      0x00\n      dup1\n      returndatacopy\n      revert(0x00, returndatasize)\n    tag_68:\n      pop\n      pop\n      pop\n      pop\n      mload(0x40)\n      returndatasize\n      not(0x1f)\n      0x1f\n      dup3\n      add\n      and\n      dup3\n      add\n      dup1\n      0x40\n      mstore\n      pop\n      dup2\n      add\n      swap1\n      tag_69\n      swap2\n      swap1\n      tag_52\n      jump\t// in\n    tag_69:\n      pop\n        /* \"tests/DiscreteStakingRewards.sol\":2099:2312  function unstake(uint amount) external {... */\n      pop\n      jump\t// out\n        /* \"tests/DiscreteStakingRewards.sol\":2320:2604  function claim() external returns(uint) {... */\n    tag_25:\n        /* \"tests/DiscreteStakingRewards.sol\":2354:2358  uint */\n      0x00\n        /* \"tests/DiscreteStakingRewards.sol\":2371:2397  _updateRewards(msg.sender) */\n      tag_71\n        /* \"tests/DiscreteStakingRewards.sol\":2386:2396  msg.sender */\n      caller\n        /* \"tests/DiscreteStakingRewards.sol\":2371:2385  _updateRewards */\n      tag_61\n        /* \"tests/DiscreteStakingRewards.sol\":2371:2397  _updateRewards(msg.sender) */\n      jump\t// in\n    tag_71:\n        /* \"tests/DiscreteStakingRewards.sol\":2410:2421  uint reward */\n      0x00\n        /* \"tests/DiscreteStakingRewards.sol\":2424:2430  earned */\n      0x04\n        /* \"tests/DiscreteStakingRewards.sol\":2424:2442  earned[msg.sender] */\n      0x00\n        /* \"tests/DiscreteStakingRewards.sol\":2431:2441  msg.sender */\n      caller\n        /* \"tests/DiscreteStakingRewards.sol\":2424:2442  earned[msg.sender] */\n      0xffffffffffffffffffffffffffffffffffffffff\n      and\n      0xffffffffffffffffffffffffffffffffffffffff\n      and\n      dup2\n      mstore\n      0x20\n      add\n      swap1\n      dup2\n      mstore\n      0x20\n      add\n      0x00\n      keccak256\n      sload\n        /* \"tests/DiscreteStakingRewards.sol\":2410:2442  uint reward = earned[msg.sender] */\n      swap1\n      pop\n        /* \"tests/DiscreteStakingRewards.sol\":2467:2468  0 */\n      0x00\n        /* \"tests/DiscreteStakingRewards.sol\":2458:2464  reward */\n      dup2\n        /* \"tests/DiscreteStakingRewards.sol\":2458:2468  reward > 0 */\n      gt\n        /* \"tests/DiscreteStakingRewards.sol\":2455:2573  if(reward > 0){... */\n      iszero\n      tag_72\n      jumpi\n        /* \"tests/DiscreteStakingRewards.sol\":2505:2506  0 */\n      0x00\n        /* \"tests/DiscreteStakingRewards.sol\":2484:2490  earned */\n      0x04\n        /* \"tests/DiscreteStakingRewards.sol\":2484:2502  earned[msg.sender] */\n      0x00\n        /* \"tests/DiscreteStakingRewards.sol\":2491:2501  msg.sender */\n      caller\n        /* \"tests/DiscreteStakingRewards.sol\":2484:2502  earned[msg.sender] */\n      0xffffffffffffffffffffffffffffffffffffffff\n      and\n      0xffffffffffffffffffffffffffffffffffffffff\n      and\n      dup2\n      mstore\n      0x20\n      add\n      swap1\n      dup2\n      mstore\n      0x20\n      add\n      0x00\n      keccak256\n        /* \"tests/DiscreteStakingRewards.sol\":2484:2506  earned[msg.sender] = 0 */\n      dup2\n      swap1\n      sstore\n      pop\n        /* \"tests/DiscreteStakingRewards.sol\":2521:2532  rewardToken */\n      immutable(\"0x59d26ca75eb04b47ab1bca5d789d02e4d0cf9ff8cb49c9041caeeeab4eccafbf\")\n        /* \"tests/DiscreteStakingRewards.sol\":2521:2541  rewardToken.transfer */\n      0xffffffffffffffffffffffffffffffffffffffff\n      and\n      0xa9059cbb\n        /* \"tests/DiscreteStakingRewards.sol\":2542:2552  msg.sender */\n      caller\n        /* \"tests/DiscreteStakingRewards.sol\":2554:2560  reward */\n      dup4\n        /* \"tests/DiscreteStakingRewards.sol\":2521:2561  rewardToken.transfer(msg.sender, reward) */\n      mload(0x40)\n      dup4\n      0xffffffff\n      and\n      0xe0\n      shl\n      dup2\n      mstore\n      0x04\n      add\n      tag_73\n      swap3\n      swap2\n      swap1\n      tag_66\n      jump\t// in\n    tag_73:\n      0x20\n      mload(0x40)\n      dup1\n      dup4\n      sub\n      dup2\n      0x00\n      dup8\n      gas\n      call\n      iszero\n      dup1\n      iszero\n      tag_75\n      jumpi\n      returndatasize\n      0x00\n      dup1\n      returndatacopy\n      revert(0x00, returndatasize)\n    tag_75:\n      pop\n      pop\n      pop\n      pop\n      mload(0x40)\n      returndatasize\n      not(0x1f)\n      0x1f\n      dup3\n      add\n      and\n      dup3\n      add\n      dup1\n      0x40\n      mstore\n      pop\n      dup2\n      add\n      swap1\n      tag_76\n      swap2\n      swap1\n      tag_52\n      jump\t// in\n    tag_76:\n      pop\n        /* \"tests/DiscreteStakingRewards.sol\":2455:2573  if(reward > 0){... */\n    tag_72:\n        /* \"tests/DiscreteStakingRewards.sol\":2590:2596  reward */\n      dup1\n        /* \"tests/DiscreteStakingRewards.sol\":2583:2596  return reward */\n      swap2\n      pop\n      pop\n        /* \"tests/DiscreteStakingRewards.sol\":2320:2604  function claim() external returns(uint) {... */\n      swap1\n      jump\t// out\n        /* \"tests/DiscreteStakingRewards.sol\":1539:1685  function calculateRewardEarned(address account) external view returns(uint){... */\n    tag_30:\n        /* \"tests/DiscreteStakingRewards.sol\":1609:1613  uint */\n      0x00\n        /* \"tests/DiscreteStakingRewards.sol\":1651:1677  _calculateRewards(account) */\n      tag_78\n        /* \"tests/DiscreteStakingRewards.sol\":1669:1676  account */\n      dup3\n        /* \"tests/DiscreteStakingRewards.sol\":1651:1668  _calculateRewards */\n      tag_79\n        /* \"tests/DiscreteStakingRewards.sol\":1651:1677  _calculateRewards(account) */\n      jump\t// in\n    tag_78:\n        /* \"tests/DiscreteStakingRewards.sol\":1633:1639  earned */\n      0x04\n        /* \"tests/DiscreteStakingRewards.sol\":1633:1648  earned[account] */\n      0x00\n        /* \"tests/DiscreteStakingRewards.sol\":1640:1647  account */\n      dup5\n        /* \"tests/DiscreteStakingRewards.sol\":1633:1648  earned[account] */\n      0xffffffffffffffffffffffffffffffffffffffff\n      and\n      0xffffffffffffffffffffffffffffffffffffffff\n      and\n      dup2\n      mstore\n      0x20\n      add\n      swap1\n      dup2\n      mstore\n      0x20\n      add\n      0x00\n      keccak256\n      sload\n        /* \"tests/DiscreteStakingRewards.sol\":1633:1677  earned[account] + _calculateRewards(account) */\n      tag_80\n      swap2\n      swap1\n      tag_58\n      jump\t// in\n    tag_80:\n        /* \"tests/DiscreteStakingRewards.sol\":1625:1677  return  earned[account] + _calculateRewards(account) */\n      swap1\n      pop\n        /* \"tests/DiscreteStakingRewards.sol\":1539:1685  function calculateRewardEarned(address account) external view returns(uint){... */\n      swap2\n      swap1\n      pop\n      jump\t// out\n        /* \"tests/DiscreteStakingRewards.sol\":701:744  mapping (address => uint) public balancesOf */\n    tag_34:\n      mstore(0x20, 0x00)\n      dup1\n      0x00\n      mstore\n      keccak256(0x00, 0x40)\n      0x00\n      swap2\n      pop\n      swap1\n      pop\n      sload\n      dup2\n      jump\t// out\n        /* \"tests/DiscreteStakingRewards.sol\":614:650  IERC20 public immutable stakingToken */\n    tag_37:\n      immutable(\"0x6590fa52fa76f967656340b874bc9ca09733c2fddea9886210ebcbbceee04b35\")\n      dup2\n      jump\t// out\n        /* \"tests/DiscreteStakingRewards.sol\":1861:2091  function stake(uint amount) external {... */\n    tag_42:\n        /* \"tests/DiscreteStakingRewards.sol\":1909:1935  _updateRewards(msg.sender) */\n      tag_82\n        /* \"tests/DiscreteStakingRewards.sol\":1924:1934  msg.sender */\n      caller\n        /* \"tests/DiscreteStakingRewards.sol\":1909:1923  _updateRewards */\n      tag_61\n        /* \"tests/DiscreteStakingRewards.sol\":1909:1935  _updateRewards(msg.sender) */\n      jump\t// in\n    tag_82:\n        /* \"tests/DiscreteStakingRewards.sol\":1972:1978  amount */\n      dup1\n        /* \"tests/DiscreteStakingRewards.sol\":1946:1956  balancesOf */\n      0x00\n        /* \"tests/DiscreteStakingRewards.sol\":1946:1968  balancesOf[msg.sender] */\n      dup1\n        /* \"tests/DiscreteStakingRewards.sol\":1957:1967  msg.sender */\n      caller\n        /* \"tests/DiscreteStakingRewards.sol\":1946:1968  balancesOf[msg.sender] */\n      0xffffffffffffffffffffffffffffffffffffffff\n      and\n      0xffffffffffffffffffffffffffffffffffffffff\n      and\n      dup2\n      mstore\n      0x20\n      add\n      swap1\n      dup2\n      mstore\n      0x20\n      add\n      0x00\n      keccak256\n      0x00\n        /* \"tests/DiscreteStakingRewards.sol\":1946:1978  balancesOf[msg.sender] += amount */\n      dup3\n      dup3\n      sload\n      tag_83\n      swap2\n      swap1\n      tag_58\n      jump\t// in\n    tag_83:\n      swap3\n      pop\n      pop\n      dup2\n      swap1\n      sstore\n      pop\n        /* \"tests/DiscreteStakingRewards.sol\":2004:2010  amount */\n      dup1\n        /* \"tests/DiscreteStakingRewards.sol\":1989:2000  totalSupply */\n      0x01\n      0x00\n        /* \"tests/DiscreteStakingRewards.sol\":1989:2010  totalSupply += amount */\n      dup3\n      dup3\n      sload\n      tag_84\n      swap2\n      swap1\n      tag_58\n      jump\t// in\n    tag_84:\n      swap3\n      pop\n      pop\n      dup2\n      swap1\n      sstore\n      pop\n        /* \"tests/DiscreteStakingRewards.sol\":2023:2035  stakingToken */\n      immutable(\"0x6590fa52fa76f967656340b874bc9ca09733c2fddea9886210ebcbbceee04b35\")\n        /* \"tests/DiscreteStakingRewards.sol\":2023:2048  stakingToken.transferFrom */\n      0xffffffffffffffffffffffffffffffffffffffff\n      and\n      0x23b872dd\n        /* \"tests/DiscreteStakingRewards.sol\":2049:2059  msg.sender */\n      caller\n        /* \"tests/DiscreteStakingRewards.sol\":2069:2073  this */\n      address\n        /* \"tests/DiscreteStakingRewards.sol\":2076:2082  amount */\n      dup5\n        /* \"tests/DiscreteStakingRewards.sol\":2023:2083  stakingToken.transferFrom(msg.sender, address(this), amount) */\n      mload(0x40)\n      dup5\n      0xffffffff\n      and\n      0xe0\n      shl\n      dup2\n      mstore\n      0x04\n      add\n      tag_85\n      swap4\n      swap3\n      swap2\n      swap1\n      tag_48\n      jump\t// in\n    tag_85:\n      0x20\n      mload(0x40)\n      dup1\n      dup4\n      sub\n      dup2\n      0x00\n      dup8\n      gas\n      call\n      iszero\n      dup1\n      iszero\n      tag_87\n      jumpi\n      returndatasize\n      0x00\n      dup1\n      returndatacopy\n      revert(0x00, returndatasize)\n    tag_87:\n      pop\n      pop\n      pop\n      pop\n      mload(0x40)\n      returndatasize\n      not(0x1f)\n      0x1f\n      dup3\n      add\n      and\n      dup3\n      add\n      dup1\n      0x40\n      mstore\n      pop\n      dup2\n      add\n      swap1\n      tag_88\n      swap2\n      swap1\n      tag_52\n      jump\t// in\n    tag_88:\n      pop\n        /* \"tests/DiscreteStakingRewards.sol\":1861:2091  function stake(uint amount) external {... */\n      pop\n      jump\t// out\n        /* \"tests/DiscreteStakingRewards.sol\":657:692  IERC20 public immutable rewardToken */\n    tag_44:\n      immutable(\"0x59d26ca75eb04b47ab1bca5d789d02e4d0cf9ff8cb49c9041caeeeab4eccafbf\")\n      dup2\n      jump\t// out\n        /* \"tests/DiscreteStakingRewards.sol\":1693:1853  function _updateRewards(address account) private {... */\n    tag_61:\n        /* \"tests/DiscreteStakingRewards.sol\":1772:1798  _calculateRewards(account) */\n      tag_90\n        /* \"tests/DiscreteStakingRewards.sol\":1790:1797  account */\n      dup2\n        /* \"tests/DiscreteStakingRewards.sol\":1772:1789  _calculateRewards */\n      tag_79\n        /* \"tests/DiscreteStakingRewards.sol\":1772:1798  _calculateRewards(account) */\n      jump\t// in\n    tag_90:\n        /* \"tests/DiscreteStakingRewards.sol\":1753:1759  earned */\n      0x04\n        /* \"tests/DiscreteStakingRewards.sol\":1753:1768  earned[account] */\n      0x00\n        /* \"tests/DiscreteStakingRewards.sol\":1760:1767  account */\n      dup4\n        /* \"tests/DiscreteStakingRewards.sol\":1753:1768  earned[account] */\n      0xffffffffffffffffffffffffffffffffffffffff\n      and\n      0xffffffffffffffffffffffffffffffffffffffff\n      and\n      dup2\n      mstore\n      0x20\n      add\n      swap1\n      dup2\n      mstore\n      0x20\n      add\n      0x00\n      keccak256\n      0x00\n        /* \"tests/DiscreteStakingRewards.sol\":1753:1798  earned[account] += _calculateRewards(account) */\n      dup3\n      dup3\n      sload\n      tag_91\n      swap2\n      swap1\n      tag_58\n      jump\t// in\n    tag_91:\n      swap3\n      pop\n      pop\n      dup2\n      swap1\n      sstore\n      pop\n        /* \"tests/DiscreteStakingRewards.sol\":1834:1845  rewardIndex */\n      sload(0x02)\n        /* \"tests/DiscreteStakingRewards.sol\":1809:1822  rewardIndexOf */\n      0x03\n        /* \"tests/DiscreteStakingRewards.sol\":1809:1831  rewardIndexOf[account] */\n      0x00\n        /* \"tests/DiscreteStakingRewards.sol\":1823:1830  account */\n      dup4\n        /* \"tests/DiscreteStakingRewards.sol\":1809:1831  rewardIndexOf[account] */\n      0xffffffffffffffffffffffffffffffffffffffff\n      and\n      0xffffffffffffffffffffffffffffffffffffffff\n      and\n      dup2\n      mstore\n      0x20\n      add\n      swap1\n      dup2\n      mstore\n      0x20\n      add\n      0x00\n      keccak256\n        /* \"tests/DiscreteStakingRewards.sol\":1809:1845  rewardIndexOf[account] = rewardIndex */\n      dup2\n      swap1\n      sstore\n      pop\n        /* \"tests/DiscreteStakingRewards.sol\":1693:1853  function _updateRewards(address account) private {... */\n      pop\n      jump\t// out\n        /* \"tests/DiscreteStakingRewards.sol\":1328:1531  function _calculateRewards(address account) private view returns(uint) {... */\n    tag_79:\n        /* \"tests/DiscreteStakingRewards.sol\":1393:1397  uint */\n      0x00\n        /* \"tests/DiscreteStakingRewards.sol\":1410:1421  uint shares */\n      dup1\n        /* \"tests/DiscreteStakingRewards.sol\":1424:1434  balancesOf */\n      0x00\n        /* \"tests/DiscreteStakingRewards.sol\":1424:1443  balancesOf[account] */\n      dup1\n        /* \"tests/DiscreteStakingRewards.sol\":1435:1442  account */\n      dup5\n        /* \"tests/DiscreteStakingRewards.sol\":1424:1443  balancesOf[account] */\n      0xffffffffffffffffffffffffffffffffffffffff\n      and\n      0xffffffffffffffffffffffffffffffffffffffff\n      and\n      dup2\n      mstore\n      0x20\n      add\n      swap1\n      dup2\n      mstore\n      0x20\n      add\n      0x00\n      keccak256\n      sload\n        /* \"tests/DiscreteStakingRewards.sol\":1410:1443  uint shares = balancesOf[account] */\n      swap1\n      pop\n        /* \"tests/DiscreteStakingRewards.sol\":818:822  1e18 */\n      0x0de0b6b3a7640000\n        /* \"tests/DiscreteStakingRewards.sol\":1486:1499  rewardIndexOf */\n      0x03\n        /* \"tests/DiscreteStakingRewards.sol\":1486:1508  rewardIndexOf[account] */\n      0x00\n        /* \"tests/DiscreteStakingRewards.sol\":1500:1507  account */\n      dup6\n        /* \"tests/DiscreteStakingRewards.sol\":1486:1508  rewardIndexOf[account] */\n      0xffffffffffffffffffffffffffffffffffffffff\n      and\n      0xffffffffffffffffffffffffffffffffffffffff\n      and\n      dup2\n      mstore\n      0x20\n      add\n      swap1\n      dup2\n      mstore\n      0x20\n      add\n      0x00\n      keccak256\n      sload\n        /* \"tests/DiscreteStakingRewards.sol\":1472:1483  rewardIndex */\n      sload(0x02)\n        /* \"tests/DiscreteStakingRewards.sol\":1472:1508  rewardIndex - rewardIndexOf[account] */\n      tag_93\n      swap2\n      swap1\n      tag_63\n      jump\t// in\n    tag_93:\n        /* \"tests/DiscreteStakingRewards.sol\":1462:1468  shares */\n      dup3\n        /* \"tests/DiscreteStakingRewards.sol\":1462:1509  shares * (rewardIndex - rewardIndexOf[account]) */\n      tag_94\n      swap2\n      swap1\n      tag_54\n      jump\t// in\n    tag_94:\n        /* \"tests/DiscreteStakingRewards.sol\":1461:1523  (shares * (rewardIndex - rewardIndexOf[account])) / MULTIPLIER */\n      tag_95\n      swap2\n      swap1\n      tag_56\n      jump\t// in\n    tag_95:\n        /* \"tests/DiscreteStakingRewards.sol\":1454:1523  return (shares * (rewardIndex - rewardIndexOf[account])) / MULTIPLIER */\n      swap2\n      pop\n      pop\n        /* \"tests/DiscreteStakingRewards.sol\":1328:1531  function _calculateRewards(address account) private view returns(uint) {... */\n      swap2\n      swap1\n      pop\n      jump\t// out\n        /* \"#utility.yul\":88:205   */\n    tag_97:\n        /* \"#utility.yul\":197:198   */\n      0x00\n        /* \"#utility.yul\":194:195   */\n      dup1\n        /* \"#utility.yul\":187:199   */\n      revert\n        /* \"#utility.yul\":334:411   */\n    tag_99:\n        /* \"#utility.yul\":371:378   */\n      0x00\n        /* \"#utility.yul\":400:405   */\n      dup2\n        /* \"#utility.yul\":389:405   */\n      swap1\n      pop\n        /* \"#utility.yul\":334:411   */\n      swap2\n      swap1\n      pop\n      jump\t// out\n        /* \"#utility.yul\":417:539   */\n    tag_100:\n        /* \"#utility.yul\":490:514   */\n      tag_124\n        /* \"#utility.yul\":508:513   */\n      dup2\n        /* \"#utility.yul\":490:514   */\n      tag_99\n      jump\t// in\n    tag_124:\n        /* \"#utility.yul\":483:488   */\n      dup2\n        /* \"#utility.yul\":480:515   */\n      eq\n        /* \"#utility.yul\":470:533   */\n      tag_125\n      jumpi\n        /* \"#utility.yul\":529:530   */\n      0x00\n        /* \"#utility.yul\":526:527   */\n      dup1\n        /* \"#utility.yul\":519:531   */\n      revert\n        /* \"#utility.yul\":470:533   */\n    tag_125:\n        /* \"#utility.yul\":417:539   */\n      pop\n      jump\t// out\n        /* \"#utility.yul\":545:684   */\n    tag_101:\n        /* \"#utility.yul\":591:596   */\n      0x00\n        /* \"#utility.yul\":629:635   */\n      dup2\n        /* \"#utility.yul\":616:636   */\n      calldataload\n        /* \"#utility.yul\":607:636   */\n      swap1\n      pop\n        /* \"#utility.yul\":645:678   */\n      tag_127\n        /* \"#utility.yul\":672:677   */\n      dup2\n        /* \"#utility.yul\":645:678   */\n      tag_100\n      jump\t// in\n    tag_127:\n        /* \"#utility.yul\":545:684   */\n      swap3\n      swap2\n      pop\n      pop\n      jump\t// out\n        /* \"#utility.yul\":690:1019   */\n    tag_15:\n        /* \"#utility.yul\":749:755   */\n      0x00\n        /* \"#utility.yul\":798:800   */\n      0x20\n        /* \"#utility.yul\":786:795   */\n      dup3\n        /* \"#utility.yul\":777:784   */\n      dup5\n        /* \"#utility.yul\":773:796   */\n      sub\n        /* \"#utility.yul\":769:801   */\n      slt\n        /* \"#utility.yul\":766:885   */\n      iszero\n      tag_129\n      jumpi\n        /* \"#utility.yul\":804:883   */\n      tag_130\n      tag_97\n      jump\t// in\n    tag_130:\n        /* \"#utility.yul\":766:885   */\n    tag_129:\n        /* \"#utility.yul\":924:925   */\n      0x00\n        /* \"#utility.yul\":949:1002   */\n      tag_131\n        /* \"#utility.yul\":994:1001   */\n      dup5\n        /* \"#utility.yul\":985:991   */\n      dup3\n        /* \"#utility.yul\":974:983   */\n      dup6\n        /* \"#utility.yul\":970:992   */\n      add\n        /* \"#utility.yul\":949:1002   */\n      tag_101\n      jump\t// in\n    tag_131:\n        /* \"#utility.yul\":939:1002   */\n      swap2\n      pop\n        /* \"#utility.yul\":895:1012   */\n      pop\n        /* \"#utility.yul\":690:1019   */\n      swap3\n      swap2\n      pop\n      pop\n      jump\t// out\n        /* \"#utility.yul\":1025:1143   */\n    tag_102:\n        /* \"#utility.yul\":1112:1136   */\n      tag_133\n        /* \"#utility.yul\":1130:1135   */\n      dup2\n        /* \"#utility.yul\":1112:1136   */\n      tag_99\n      jump\t// in\n    tag_133:\n        /* \"#utility.yul\":1107:1110   */\n      dup3\n        /* \"#utility.yul\":1100:1137   */\n      mstore\n        /* \"#utility.yul\":1025:1143   */\n      pop\n      pop\n      jump\t// out\n        /* \"#utility.yul\":1149:1371   */\n    tag_20:\n        /* \"#utility.yul\":1242:1246   */\n      0x00\n        /* \"#utility.yul\":1280:1282   */\n      0x20\n        /* \"#utility.yul\":1269:1278   */\n      dup3\n        /* \"#utility.yul\":1265:1283   */\n      add\n        /* \"#utility.yul\":1257:1283   */\n      swap1\n      pop\n        /* \"#utility.yul\":1293:1364   */\n      tag_135\n        /* \"#utility.yul\":1361:1362   */\n      0x00\n        /* \"#utility.yul\":1350:1359   */\n      dup4\n        /* \"#utility.yul\":1346:1363   */\n      add\n        /* \"#utility.yul\":1337:1343   */\n      dup5\n        /* \"#utility.yul\":1293:1364   */\n      tag_102\n      jump\t// in\n    tag_135:\n        /* \"#utility.yul\":1149:1371   */\n      swap3\n      swap2\n      pop\n      pop\n      jump\t// out\n        /* \"#utility.yul\":1377:1503   */\n    tag_103:\n        /* \"#utility.yul\":1414:1421   */\n      0x00\n        /* \"#utility.yul\":1454:1496   */\n      0xffffffffffffffffffffffffffffffffffffffff\n        /* \"#utility.yul\":1447:1452   */\n      dup3\n        /* \"#utility.yul\":1443:1497   */\n      and\n        /* \"#utility.yul\":1432:1497   */\n      swap1\n      pop\n        /* \"#utility.yul\":1377:1503   */\n      swap2\n      swap1\n      pop\n      jump\t// out\n        /* \"#utility.yul\":1509:1605   */\n    tag_104:\n        /* \"#utility.yul\":1546:1553   */\n      0x00\n        /* \"#utility.yul\":1575:1599   */\n      tag_138\n        /* \"#utility.yul\":1593:1598   */\n      dup3\n        /* \"#utility.yul\":1575:1599   */\n      tag_103\n      jump\t// in\n    tag_138:\n        /* \"#utility.yul\":1564:1599   */\n      swap1\n      pop\n        /* \"#utility.yul\":1509:1605   */\n      swap2\n      swap1\n      pop\n      jump\t// out\n        /* \"#utility.yul\":1611:1733   */\n    tag_105:\n        /* \"#utility.yul\":1684:1708   */\n      tag_140\n        /* \"#utility.yul\":1702:1707   */\n      dup2\n        /* \"#utility.yul\":1684:1708   */\n      tag_104\n      jump\t// in\n    tag_140:\n        /* \"#utility.yul\":1677:1682   */\n      dup2\n        /* \"#utility.yul\":1674:1709   */\n      eq\n        /* \"#utility.yul\":1664:1727   */\n      tag_141\n      jumpi\n        /* \"#utility.yul\":1723:1724   */\n      0x00\n        /* \"#utility.yul\":1720:1721   */\n      dup1\n        /* \"#utility.yul\":1713:1725   */\n      revert\n        /* \"#utility.yul\":1664:1727   */\n    tag_141:\n        /* \"#utility.yul\":1611:1733   */\n      pop\n      jump\t// out\n        /* \"#utility.yul\":1739:1878   */\n    tag_106:\n        /* \"#utility.yul\":1785:1790   */\n      0x00\n        /* \"#utility.yul\":1823:1829   */\n      dup2\n        /* \"#utility.yul\":1810:1830   */\n      calldataload\n        /* \"#utility.yul\":1801:1830   */\n      swap1\n      pop\n        /* \"#utility.yul\":1839:1872   */\n      tag_143\n        /* \"#utility.yul\":1866:1871   */\n      dup2\n        /* \"#utility.yul\":1839:1872   */\n      tag_105\n      jump\t// in\n    tag_143:\n        /* \"#utility.yul\":1739:1878   */\n      swap3\n      swap2\n      pop\n      pop\n      jump\t// out\n        /* \"#utility.yul\":1884:2213   */\n    tag_29:\n        /* \"#utility.yul\":1943:1949   */\n      0x00\n        /* \"#utility.yul\":1992:1994   */\n      0x20\n        /* \"#utility.yul\":1980:1989   */\n      dup3\n        /* \"#utility.yul\":1971:1978   */\n      dup5\n        /* \"#utility.yul\":1967:1990   */\n      sub\n        /* \"#utility.yul\":1963:1995   */\n      slt\n        /* \"#utility.yul\":1960:2079   */\n      iszero\n      tag_145\n      jumpi\n        /* \"#utility.yul\":1998:2077   */\n      tag_146\n      tag_97\n      jump\t// in\n    tag_146:\n        /* \"#utility.yul\":1960:2079   */\n    tag_145:\n        /* \"#utility.yul\":2118:2119   */\n      0x00\n        /* \"#utility.yul\":2143:2196   */\n      tag_147\n        /* \"#utility.yul\":2188:2195   */\n      dup5\n        /* \"#utility.yul\":2179:2185   */\n      dup3\n        /* \"#utility.yul\":2168:2177   */\n      dup6\n        /* \"#utility.yul\":2164:2186   */\n      add\n        /* \"#utility.yul\":2143:2196   */\n      tag_106\n      jump\t// in\n    tag_147:\n        /* \"#utility.yul\":2133:2196   */\n      swap2\n      pop\n        /* \"#utility.yul\":2089:2206   */\n      pop\n        /* \"#utility.yul\":1884:2213   */\n      swap3\n      swap2\n      pop\n      pop\n      jump\t// out\n        /* \"#utility.yul\":2219:2279   */\n    tag_107:\n        /* \"#utility.yul\":2247:2250   */\n      0x00\n        /* \"#utility.yul\":2268:2273   */\n      dup2\n        /* \"#utility.yul\":2261:2273   */\n      swap1\n      pop\n        /* \"#utility.yul\":2219:2279   */\n      swap2\n      swap1\n      pop\n      jump\t// out\n        /* \"#utility.yul\":2285:2427   */\n    tag_108:\n        /* \"#utility.yul\":2335:2344   */\n      0x00\n        /* \"#utility.yul\":2368:2421   */\n      tag_150\n        /* \"#utility.yul\":2386:2420   */\n      tag_151\n        /* \"#utility.yul\":2395:2419   */\n      tag_152\n        /* \"#utility.yul\":2413:2418   */\n      dup5\n        /* \"#utility.yul\":2395:2419   */\n      tag_103\n      jump\t// in\n    tag_152:\n        /* \"#utility.yul\":2386:2420   */\n      tag_107\n      jump\t// in\n    tag_151:\n        /* \"#utility.yul\":2368:2421   */\n      tag_103\n      jump\t// in\n    tag_150:\n        /* \"#utility.yul\":2355:2421   */\n      swap1\n      pop\n        /* \"#utility.yul\":2285:2427   */\n      swap2\n      swap1\n      pop\n      jump\t// out\n        /* \"#utility.yul\":2433:2559   */\n    tag_109:\n        /* \"#utility.yul\":2483:2492   */\n      0x00\n        /* \"#utility.yul\":2516:2553   */\n      tag_154\n        /* \"#utility.yul\":2547:2552   */\n      dup3\n        /* \"#utility.yul\":2516:2553   */\n      tag_108\n      jump\t// in\n    tag_154:\n        /* \"#utility.yul\":2503:2553   */\n      swap1\n      pop\n        /* \"#utility.yul\":2433:2559   */\n      swap2\n      swap1\n      pop\n      jump\t// out\n        /* \"#utility.yul\":2565:2704   */\n    tag_110:\n        /* \"#utility.yul\":2628:2637   */\n      0x00\n        /* \"#utility.yul\":2661:2698   */\n      tag_156\n        /* \"#utility.yul\":2692:2697   */\n      dup3\n        /* \"#utility.yul\":2661:2698   */\n      tag_109\n      jump\t// in\n    tag_156:\n        /* \"#utility.yul\":2648:2698   */\n      swap1\n      pop\n        /* \"#utility.yul\":2565:2704   */\n      swap2\n      swap1\n      pop\n      jump\t// out\n        /* \"#utility.yul\":2710:2867   */\n    tag_111:\n        /* \"#utility.yul\":2810:2860   */\n      tag_158\n        /* \"#utility.yul\":2854:2859   */\n      dup2\n        /* \"#utility.yul\":2810:2860   */\n      tag_110\n      jump\t// in\n    tag_158:\n        /* \"#utility.yul\":2805:2808   */\n      dup3\n        /* \"#utility.yul\":2798:2861   */\n      mstore\n        /* \"#utility.yul\":2710:2867   */\n      pop\n      pop\n      jump\t// out\n        /* \"#utility.yul\":2873:3121   */\n    tag_39:\n        /* \"#utility.yul\":2979:2983   */\n      0x00\n        /* \"#utility.yul\":3017:3019   */\n      0x20\n        /* \"#utility.yul\":3006:3015   */\n      dup3\n        /* \"#utility.yul\":3002:3020   */\n      add\n        /* \"#utility.yul\":2994:3020   */\n      swap1\n      pop\n        /* \"#utility.yul\":3030:3114   */\n      tag_160\n        /* \"#utility.yul\":3111:3112   */\n      0x00\n        /* \"#utility.yul\":3100:3109   */\n      dup4\n        /* \"#utility.yul\":3096:3113   */\n      add\n        /* \"#utility.yul\":3087:3093   */\n      dup5\n        /* \"#utility.yul\":3030:3114   */\n      tag_111\n      jump\t// in\n    tag_160:\n        /* \"#utility.yul\":2873:3121   */\n      swap3\n      swap2\n      pop\n      pop\n      jump\t// out\n        /* \"#utility.yul\":3127:3245   */\n    tag_112:\n        /* \"#utility.yul\":3214:3238   */\n      tag_162\n        /* \"#utility.yul\":3232:3237   */\n      dup2\n        /* \"#utility.yul\":3214:3238   */\n      tag_104\n      jump\t// in\n    tag_162:\n        /* \"#utility.yul\":3209:3212   */\n      dup3\n        /* \"#utility.yul\":3202:3239   */\n      mstore\n        /* \"#utility.yul\":3127:3245   */\n      pop\n      pop\n      jump\t// out\n        /* \"#utility.yul\":3251:3693   */\n    tag_48:\n        /* \"#utility.yul\":3400:3404   */\n      0x00\n        /* \"#utility.yul\":3438:3440   */\n      0x60\n        /* \"#utility.yul\":3427:3436   */\n      dup3\n        /* \"#utility.yul\":3423:3441   */\n      add\n        /* \"#utility.yul\":3415:3441   */\n      swap1\n      pop\n        /* \"#utility.yul\":3451:3522   */\n      tag_164\n        /* \"#utility.yul\":3519:3520   */\n      0x00\n        /* \"#utility.yul\":3508:3517   */\n      dup4\n        /* \"#utility.yul\":3504:3521   */\n      add\n        /* \"#utility.yul\":3495:3501   */\n      dup7\n        /* \"#utility.yul\":3451:3522   */\n      tag_112\n      jump\t// in\n    tag_164:\n        /* \"#utility.yul\":3532:3604   */\n      tag_165\n        /* \"#utility.yul\":3600:3602   */\n      0x20\n        /* \"#utility.yul\":3589:3598   */\n      dup4\n        /* \"#utility.yul\":3585:3603   */\n      add\n        /* \"#utility.yul\":3576:3582   */\n      dup6\n        /* \"#utility.yul\":3532:3604   */\n      tag_112\n      jump\t// in\n    tag_165:\n        /* \"#utility.yul\":3614:3686   */\n      tag_166\n        /* \"#utility.yul\":3682:3684   */\n      0x40\n        /* \"#utility.yul\":3671:3680   */\n      dup4\n        /* \"#utility.yul\":3667:3685   */\n      add\n        /* \"#utility.yul\":3658:3664   */\n      dup5\n        /* \"#utility.yul\":3614:3686   */\n      tag_102\n      jump\t// in\n    tag_166:\n        /* \"#utility.yul\":3251:3693   */\n      swap5\n      swap4\n      pop\n      pop\n      pop\n      pop\n      jump\t// out\n        /* \"#utility.yul\":3699:3789   */\n    tag_113:\n        /* \"#utility.yul\":3733:3740   */\n      0x00\n        /* \"#utility.yul\":3776:3781   */\n      dup2\n        /* \"#utility.yul\":3769:3782   */\n      iszero\n        /* \"#utility.yul\":3762:3783   */\n      iszero\n        /* \"#utility.yul\":3751:3783   */\n      swap1\n      pop\n        /* \"#utility.yul\":3699:3789   */\n      swap2\n      swap1\n      pop\n      jump\t// out\n        /* \"#utility.yul\":3795:3911   */\n    tag_114:\n        /* \"#utility.yul\":3865:3886   */\n      tag_169\n        /* \"#utility.yul\":3880:3885   */\n      dup2\n        /* \"#utility.yul\":3865:3886   */\n      tag_113\n      jump\t// in\n    tag_169:\n        /* \"#utility.yul\":3858:3863   */\n      dup2\n        /* \"#utility.yul\":3855:3887   */\n      eq\n        /* \"#utility.yul\":3845:3905   */\n      tag_170\n      jumpi\n        /* \"#utility.yul\":3901:3902   */\n      0x00\n        /* \"#utility.yul\":3898:3899   */\n      dup1\n        /* \"#utility.yul\":3891:3903   */\n      revert\n        /* \"#utility.yul\":3845:3905   */\n    tag_170:\n        /* \"#utility.yul\":3795:3911   */\n      pop\n      jump\t// out\n        /* \"#utility.yul\":3917:4054   */\n    tag_115:\n        /* \"#utility.yul\":3971:3976   */\n      0x00\n        /* \"#utility.yul\":4002:4008   */\n      dup2\n        /* \"#utility.yul\":3996:4009   */\n      mload\n        /* \"#utility.yul\":3987:4009   */\n      swap1\n      pop\n        /* \"#utility.yul\":4018:4048   */\n      tag_172\n        /* \"#utility.yul\":4042:4047   */\n      dup2\n        /* \"#utility.yul\":4018:4048   */\n      tag_114\n      jump\t// in\n    tag_172:\n        /* \"#utility.yul\":3917:4054   */\n      swap3\n      swap2\n      pop\n      pop\n      jump\t// out\n        /* \"#utility.yul\":4060:4405   */\n    tag_52:\n        /* \"#utility.yul\":4127:4133   */\n      0x00\n        /* \"#utility.yul\":4176:4178   */\n      0x20\n        /* \"#utility.yul\":4164:4173   */\n      dup3\n        /* \"#utility.yul\":4155:4162   */\n      dup5\n        /* \"#utility.yul\":4151:4174   */\n      sub\n        /* \"#utility.yul\":4147:4179   */\n      slt\n        /* \"#utility.yul\":4144:4263   */\n      iszero\n      tag_174\n      jumpi\n        /* \"#utility.yul\":4182:4261   */\n      tag_175\n      tag_97\n      jump\t// in\n    tag_175:\n        /* \"#utility.yul\":4144:4263   */\n    tag_174:\n        /* \"#utility.yul\":4302:4303   */\n      0x00\n        /* \"#utility.yul\":4327:4388   */\n      tag_176\n        /* \"#utility.yul\":4380:4387   */\n      dup5\n        /* \"#utility.yul\":4371:4377   */\n      dup3\n        /* \"#utility.yul\":4360:4369   */\n      dup6\n        /* \"#utility.yul\":4356:4378   */\n      add\n        /* \"#utility.yul\":4327:4388   */\n      tag_115\n      jump\t// in\n    tag_176:\n        /* \"#utility.yul\":4317:4388   */\n      swap2\n      pop\n        /* \"#utility.yul\":4273:4398   */\n      pop\n        /* \"#utility.yul\":4060:4405   */\n      swap3\n      swap2\n      pop\n      pop\n      jump\t// out\n        /* \"#utility.yul\":4411:4591   */\n    tag_116:\n        /* \"#utility.yul\":4459:4536   */\n      0x4e487b7100000000000000000000000000000000000000000000000000000000\n        /* \"#utility.yul\":4456:4457   */\n      0x00\n        /* \"#utility.yul\":4449:4537   */\n      mstore\n        /* \"#utility.yul\":4556:4560   */\n      0x11\n        /* \"#utility.yul\":4553:4554   */\n      0x04\n        /* \"#utility.yul\":4546:4561   */\n      mstore\n        /* \"#utility.yul\":4580:4584   */\n      0x24\n        /* \"#utility.yul\":4577:4578   */\n      0x00\n        /* \"#utility.yul\":4570:4585   */\n      revert\n        /* \"#utility.yul\":4597:5007   */\n    tag_54:\n        /* \"#utility.yul\":4637:4644   */\n      0x00\n        /* \"#utility.yul\":4660:4680   */\n      tag_179\n        /* \"#utility.yul\":4678:4679   */\n      dup3\n        /* \"#utility.yul\":4660:4680   */\n      tag_99\n      jump\t// in\n    tag_179:\n        /* \"#utility.yul\":4655:4680   */\n      swap2\n      pop\n        /* \"#utility.yul\":4694:4714   */\n      tag_180\n        /* \"#utility.yul\":4712:4713   */\n      dup4\n        /* \"#utility.yul\":4694:4714   */\n      tag_99\n      jump\t// in\n    tag_180:\n        /* \"#utility.yul\":4689:4714   */\n      swap3\n      pop\n        /* \"#utility.yul\":4749:4750   */\n      dup3\n        /* \"#utility.yul\":4746:4747   */\n      dup3\n        /* \"#utility.yul\":4742:4751   */\n      mul\n        /* \"#utility.yul\":4771:4801   */\n      tag_181\n        /* \"#utility.yul\":4789:4800   */\n      dup2\n        /* \"#utility.yul\":4771:4801   */\n      tag_99\n      jump\t// in\n    tag_181:\n        /* \"#utility.yul\":4760:4801   */\n      swap2\n      pop\n        /* \"#utility.yul\":4950:4951   */\n      dup3\n        /* \"#utility.yul\":4941:4948   */\n      dup3\n        /* \"#utility.yul\":4937:4952   */\n      div\n        /* \"#utility.yul\":4934:4935   */\n      dup5\n        /* \"#utility.yul\":4931:4953   */\n      eq\n        /* \"#utility.yul\":4911:4912   */\n      dup4\n        /* \"#utility.yul\":4904:4913   */\n      iszero\n        /* \"#utility.yul\":4884:4967   */\n      or\n        /* \"#utility.yul\":4861:5000   */\n      tag_182\n      jumpi\n        /* \"#utility.yul\":4980:4998   */\n      tag_183\n      tag_116\n      jump\t// in\n    tag_183:\n        /* \"#utility.yul\":4861:5000   */\n    tag_182:\n        /* \"#utility.yul\":4645:5007   */\n      pop\n        /* \"#utility.yul\":4597:5007   */\n      swap3\n      swap2\n      pop\n      pop\n      jump\t// out\n        /* \"#utility.yul\":5013:5193   */\n    tag_117:\n        /* \"#utility.yul\":5061:5138   */\n      0x4e487b7100000000000000000000000000000000000000000000000000000000\n        /* \"#utility.yul\":5058:5059   */\n      0x00\n        /* \"#utility.yul\":5051:5139   */\n      mstore\n        /* \"#utility.yul\":5158:5162   */\n      0x12\n        /* \"#utility.yul\":5155:5156   */\n      0x04\n        /* \"#utility.yul\":5148:5163   */\n      mstore\n        /* \"#utility.yul\":5182:5186   */\n      0x24\n        /* \"#utility.yul\":5179:5180   */\n      0x00\n        /* \"#utility.yul\":5172:5187   */\n      revert\n        /* \"#utility.yul\":5199:5384   */\n    tag_56:\n        /* \"#utility.yul\":5239:5240   */\n      0x00\n        /* \"#utility.yul\":5256:5276   */\n      tag_186\n        /* \"#utility.yul\":5274:5275   */\n      dup3\n        /* \"#utility.yul\":5256:5276   */\n      tag_99\n      jump\t// in\n    tag_186:\n        /* \"#utility.yul\":5251:5276   */\n      swap2\n      pop\n        /* \"#utility.yul\":5290:5310   */\n      tag_187\n        /* \"#utility.yul\":5308:5309   */\n      dup4\n        /* \"#utility.yul\":5290:5310   */\n      tag_99\n      jump\t// in\n    tag_187:\n        /* \"#utility.yul\":5285:5310   */\n      swap3\n      pop\n        /* \"#utility.yul\":5329:5330   */\n      dup3\n        /* \"#utility.yul\":5319:5354   */\n      tag_188\n      jumpi\n        /* \"#utility.yul\":5334:5352   */\n      tag_189\n      tag_117\n      jump\t// in\n    tag_189:\n        /* \"#utility.yul\":5319:5354   */\n    tag_188:\n        /* \"#utility.yul\":5376:5377   */\n      dup3\n        /* \"#utility.yul\":5373:5374   */\n      dup3\n        /* \"#utility.yul\":5369:5378   */\n      div\n        /* \"#utility.yul\":5364:5378   */\n      swap1\n      pop\n        /* \"#utility.yul\":5199:5384   */\n      swap3\n      swap2\n      pop\n      pop\n      jump\t// out\n        /* \"#utility.yul\":5390:5581   */\n    tag_58:\n        /* \"#utility.yul\":5430:5433   */\n      0x00\n        /* \"#utility.yul\":5449:5469   */\n      tag_191\n        /* \"#utility.yul\":5467:5468   */\n      dup3\n        /* \"#utility.yul\":5449:5469   */\n      tag_99\n      jump\t// in\n    tag_191:\n        /* \"#utility.yul\":5444:5469   */\n      swap2\n      pop\n        /* \"#utility.yul\":5483:5503   */\n      tag_192\n        /* \"#utility.yul\":5501:5502   */\n      dup4\n        /* \"#utility.yul\":5483:5503   */\n      tag_99\n      jump\t// in\n    tag_192:\n        /* \"#utility.yul\":5478:5503   */\n      swap3\n      pop\n        /* \"#utility.yul\":5526:5527   */\n      dup3\n        /* \"#utility.yul\":5523:5524   */\n      dup3\n        /* \"#utility.yul\":5519:5528   */\n      add\n        /* \"#utility.yul\":5512:5528   */\n      swap1\n      pop\n        /* \"#utility.yul\":5547:5550   */\n      dup1\n        /* \"#utility.yul\":5544:5545   */\n      dup3\n        /* \"#utility.yul\":5541:5551   */\n      gt\n        /* \"#utility.yul\":5538:5574   */\n      iszero\n      tag_193\n      jumpi\n        /* \"#utility.yul\":5554:5572   */\n      tag_194\n      tag_116\n      jump\t// in\n    tag_194:\n        /* \"#utility.yul\":5538:5574   */\n    tag_193:\n        /* \"#utility.yul\":5390:5581   */\n      swap3\n      swap2\n      pop\n      pop\n      jump\t// out\n        /* \"#utility.yul\":5587:5781   */\n    tag_63:\n        /* \"#utility.yul\":5627:5631   */\n      0x00\n        /* \"#utility.yul\":5647:5667   */\n      tag_196\n        /* \"#utility.yul\":5665:5666   */\n      dup3\n        /* \"#utility.yul\":5647:5667   */\n      tag_99\n      jump\t// in\n    tag_196:\n        /* \"#utility.yul\":5642:5667   */\n      swap2\n      pop\n        /* \"#utility.yul\":5681:5701   */\n      tag_197\n        /* \"#utility.yul\":5699:5700   */\n      dup4\n        /* \"#utility.yul\":5681:5701   */\n      tag_99\n      jump\t// in\n    tag_197:\n        /* \"#utility.yul\":5676:5701   */\n      swap3\n      pop\n        /* \"#utility.yul\":5725:5726   */\n      dup3\n        /* \"#utility.yul\":5722:5723   */\n      dup3\n        /* \"#utility.yul\":5718:5727   */\n      sub\n        /* \"#utility.yul\":5710:5727   */\n      swap1\n      pop\n        /* \"#utility.yul\":5749:5750   */\n      dup2\n        /* \"#utility.yul\":5743:5747   */\n      dup2\n        /* \"#utility.yul\":5740:5751   */\n      gt\n        /* \"#utility.yul\":5737:5774   */\n      iszero\n      tag_198\n      jumpi\n        /* \"#utility.yul\":5754:5772   */\n      tag_199\n      tag_116\n      jump\t// in\n    tag_199:\n        /* \"#utility.yul\":5737:5774   */\n    tag_198:\n        /* \"#utility.yul\":5587:5781   */\n      swap3\n      swap2\n      pop\n      pop\n      jump\t// out\n        /* \"#utility.yul\":5787:6119   */\n    tag_66:\n        /* \"#utility.yul\":5908:5912   */\n      0x00\n        /* \"#utility.yul\":5946:5948   */\n      0x40\n        /* \"#utility.yul\":5935:5944   */\n      dup3\n        /* \"#utility.yul\":5931:5949   */\n      add\n        /* \"#utility.yul\":5923:5949   */\n      swap1\n      pop\n        /* \"#utility.yul\":5959:6030   */\n      tag_201\n        /* \"#utility.yul\":6027:6028   */\n      0x00\n        /* \"#utility.yul\":6016:6025   */\n      dup4\n        /* \"#utility.yul\":6012:6029   */\n      add\n        /* \"#utility.yul\":6003:6009   */\n      dup6\n        /* \"#utility.yul\":5959:6030   */\n      tag_112\n      jump\t// in\n    tag_201:\n        /* \"#utility.yul\":6040:6112   */\n      tag_202\n        /* \"#utility.yul\":6108:6110   */\n      0x20\n        /* \"#utility.yul\":6097:6106   */\n      dup4\n        /* \"#utility.yul\":6093:6111   */\n      add\n        /* \"#utility.yul\":6084:6090   */\n      dup5\n        /* \"#utility.yul\":6040:6112   */\n      tag_102\n      jump\t// in\n    tag_202:\n        /* \"#utility.yul\":5787:6119   */\n      swap4\n      swap3\n      pop\n      pop\n      pop\n      jump\t// out\n\n    auxdata: 0xa2646970667358221220cba2cd591c94159def1df0b8e3ae63b0d05df9a0f1d93fa9b377266ef51f1b5164736f6c63430008170033\n}\n",
				"bytecode": {
					"linkReferences": {},
					"object": "60c060405234801561000f575f80fd5b50604051610d36380380610d36833981810160405281019061003191906100fe565b8173ffffffffffffffffffffffffffffffffffffffff1660808173ffffffffffffffffffffffffffffffffffffffff16815250508073ffffffffffffffffffffffffffffffffffffffff1660808173ffffffffffffffffffffffffffffffffffffffff1681525050505061013c565b5f80fd5b5f73ffffffffffffffffffffffffffffffffffffffff82169050919050565b5f6100cd826100a4565b9050919050565b6100dd816100c3565b81146100e7575f80fd5b50565b5f815190506100f8816100d4565b92915050565b5f8060408385031215610114576101136100a0565b5b5f610121858286016100ea565b9250506020610132858286016100ea565b9150509250929050565b60805160a051610bbd6101795f395f81816101c301528181610449015261069201525f81816103150152818161055a01526105f10152610bbd5ff3fe608060405234801561000f575f80fd5b5060043610610091575f3560e01c80635a230162116100645780635a230162146101095780636392a51f1461013957806372f702f314610169578063a694fc3a14610187578063f7c618c1146101a357610091565b80630dcc4b441461009557806318160ddd146100b15780632e17de78146100cf5780634e71d92d146100eb575b5f80fd5b6100af60048036038101906100aa919061083f565b6101c1565b005b6100b961029a565b6040516100c69190610879565b60405180910390f35b6100e960048036038101906100e4919061083f565b6102a0565b005b6100f36103b2565b6040516101009190610879565b60405180910390f35b610123600480360381019061011e91906108ec565b6104eb565b6040516101309190610879565b60405180910390f35b610153600480360381019061014e91906108ec565b610544565b6040516101609190610879565b60405180910390f35b610171610558565b60405161017e9190610972565b60405180910390f35b6101a1600480360381019061019c919061083f565b61057c565b005b6101ab610690565b6040516101b89190610972565b60405180910390f35b7f000000000000000000000000000000000000000000000000000000000000000073ffffffffffffffffffffffffffffffffffffffff166323b872dd3330846040518463ffffffff1660e01b815260040161021e9392919061099a565b6020604051808303815f875af115801561023a573d5f803e3d5ffd5b505050506040513d601f19601f8201168201806040525081019061025e9190610a04565b50600154670de0b6b3a7640000826102769190610a5c565b6102809190610aca565b60025f8282546102909190610afa565b9250508190555050565b60015481565b6102a9336106b4565b805f803373ffffffffffffffffffffffffffffffffffffffff1673ffffffffffffffffffffffffffffffffffffffff1681526020019081526020015f205f8282546102f49190610b2d565b925050819055508060015f82825461030c9190610b2d565b925050819055507f000000000000000000000000000000000000000000000000000000000000000073ffffffffffffffffffffffffffffffffffffffff1663a9059cbb33836040518363ffffffff1660e01b815260040161036e929190610b60565b6020604051808303815f875af115801561038a573d5f803e3d5ffd5b505050506040513d601f19601f820116820180604052508101906103ae9190610a04565b5050565b5f6103bc336106b4565b5f60045f3373ffffffffffffffffffffffffffffffffffffffff1673ffffffffffffffffffffffffffffffffffffffff1681526020019081526020015f205490505f8111156104e4575f60045f3373ffffffffffffffffffffffffffffffffffffffff1673ffffffffffffffffffffffffffffffffffffffff1681526020019081526020015f20819055507f000000000000000000000000000000000000000000000000000000000000000073ffffffffffffffffffffffffffffffffffffffff1663a9059cbb33836040518363ffffffff1660e01b81526004016104a2929190610b60565b6020604051808303815f875af11580156104be573d5f803e3d5ffd5b505050506040513d601f19601f820116820180604052508101906104e29190610a04565b505b8091505090565b5f6104f582610756565b60045f8473ffffffffffffffffffffffffffffffffffffffff1673ffffffffffffffffffffffffffffffffffffffff1681526020019081526020015f205461053d9190610afa565b9050919050565b5f602052805f5260405f205f915090505481565b7f000000000000000000000000000000000000000000000000000000000000000081565b610585336106b4565b805f803373ffffffffffffffffffffffffffffffffffffffff1673ffffffffffffffffffffffffffffffffffffffff1681526020019081526020015f205f8282546105d09190610afa565b925050819055508060015f8282546105e89190610afa565b925050819055507f000000000000000000000000000000000000000000000000000000000000000073ffffffffffffffffffffffffffffffffffffffff166323b872dd3330846040518463ffffffff1660e01b815260040161064c9392919061099a565b6020604051808303815f875af1158015610668573d5f803e3d5ffd5b505050506040513d601f19601f8201168201806040525081019061068c9190610a04565b5050565b7f000000000000000000000000000000000000000000000000000000000000000081565b6106bd81610756565b60045f8373ffffffffffffffffffffffffffffffffffffffff1673ffffffffffffffffffffffffffffffffffffffff1681526020019081526020015f205f8282546107089190610afa565b9250508190555060025460035f8373ffffffffffffffffffffffffffffffffffffffff1673ffffffffffffffffffffffffffffffffffffffff1681526020019081526020015f208190555050565b5f805f808473ffffffffffffffffffffffffffffffffffffffff1673ffffffffffffffffffffffffffffffffffffffff1681526020019081526020015f20549050670de0b6b3a764000060035f8573ffffffffffffffffffffffffffffffffffffffff1673ffffffffffffffffffffffffffffffffffffffff1681526020019081526020015f20546002546107eb9190610b2d565b826107f69190610a5c565b6108009190610aca565b915050919050565b5f80fd5b5f819050919050565b61081e8161080c565b8114610828575f80fd5b50565b5f8135905061083981610815565b92915050565b5f6020828403121561085457610853610808565b5b5f6108618482850161082b565b91505092915050565b6108738161080c565b82525050565b5f60208201905061088c5f83018461086a565b92915050565b5f73ffffffffffffffffffffffffffffffffffffffff82169050919050565b5f6108bb82610892565b9050919050565b6108cb816108b1565b81146108d5575f80fd5b50565b5f813590506108e6816108c2565b92915050565b5f6020828403121561090157610900610808565b5b5f61090e848285016108d8565b91505092915050565b5f819050919050565b5f61093a61093561093084610892565b610917565b610892565b9050919050565b5f61094b82610920565b9050919050565b5f61095c82610941565b9050919050565b61096c81610952565b82525050565b5f6020820190506109855f830184610963565b92915050565b610994816108b1565b82525050565b5f6060820190506109ad5f83018661098b565b6109ba602083018561098b565b6109c7604083018461086a565b949350505050565b5f8115159050919050565b6109e3816109cf565b81146109ed575f80fd5b50565b5f815190506109fe816109da565b92915050565b5f60208284031215610a1957610a18610808565b5b5f610a26848285016109f0565b91505092915050565b7f4e487b71000000000000000000000000000000000000000000000000000000005f52601160045260245ffd5b5f610a668261080c565b9150610a718361080c565b9250828202610a7f8161080c565b91508282048414831517610a9657610a95610a2f565b5b5092915050565b7f4e487b71000000000000000000000000000000000000000000000000000000005f52601260045260245ffd5b5f610ad48261080c565b9150610adf8361080c565b925082610aef57610aee610a9d565b5b828204905092915050565b5f610b048261080c565b9150610b0f8361080c565b9250828201905080821115610b2757610b26610a2f565b5b92915050565b5f610b378261080c565b9150610b428361080c565b9250828203905081811115610b5a57610b59610a2f565b5b92915050565b5f604082019050610b735f83018561098b565b610b80602083018461086a565b939250505056fea2646970667358221220cba2cd591c94159def1df0b8e3ae63b0d05df9a0f1d93fa9b377266ef51f1b5164736f6c63430008170033",
					"opcodes": "PUSH1 0xC0 PUSH1 0x40 MSTORE CALLVALUE DUP1 ISZERO PUSH2 0xF JUMPI PUSH0 DUP1 REVERT JUMPDEST POP PUSH1 0x40 MLOAD PUSH2 0xD36 CODESIZE SUB DUP1 PUSH2 0xD36 DUP4 CODECOPY DUP2 DUP2 ADD PUSH1 0x40 MSTORE DUP2 ADD SWAP1 PUSH2 0x31 SWAP2 SWAP1 PUSH2 0xFE JUMP JUMPDEST DUP2 PUSH20 0xFFFFFFFFFFFFFFFFFFFFFFFFFFFFFFFFFFFFFFFF AND PUSH1 0x80 DUP2 PUSH20 0xFFFFFFFFFFFFFFFFFFFFFFFFFFFFFFFFFFFFFFFF AND DUP2 MSTORE POP POP DUP1 PUSH20 0xFFFFFFFFFFFFFFFFFFFFFFFFFFFFFFFFFFFFFFFF AND PUSH1 0x80 DUP2 PUSH20 0xFFFFFFFFFFFFFFFFFFFFFFFFFFFFFFFFFFFFFFFF AND DUP2 MSTORE POP POP POP POP PUSH2 0x13C JUMP JUMPDEST PUSH0 DUP1 REVERT JUMPDEST PUSH0 PUSH20 0xFFFFFFFFFFFFFFFFFFFFFFFFFFFFFFFFFFFFFFFF DUP3 AND SWAP1 POP SWAP2 SWAP1 POP JUMP JUMPDEST PUSH0 PUSH2 0xCD DUP3 PUSH2 0xA4 JUMP JUMPDEST SWAP1 POP SWAP2 SWAP1 POP JUMP JUMPDEST PUSH2 0xDD DUP2 PUSH2 0xC3 JUMP JUMPDEST DUP2 EQ PUSH2 0xE7 JUMPI PUSH0 DUP1 REVERT JUMPDEST POP JUMP JUMPDEST PUSH0 DUP2 MLOAD SWAP1 POP PUSH2 0xF8 DUP2 PUSH2 0xD4 JUMP JUMPDEST SWAP3 SWAP2 POP POP JUMP JUMPDEST PUSH0 DUP1 PUSH1 0x40 DUP4 DUP6 SUB SLT ISZERO PUSH2 0x114 JUMPI PUSH2 0x113 PUSH2 0xA0 JUMP JUMPDEST JUMPDEST PUSH0 PUSH2 0x121 DUP6 DUP3 DUP7 ADD PUSH2 0xEA JUMP JUMPDEST SWAP3 POP POP PUSH1 0x20 PUSH2 0x132 DUP6 DUP3 DUP7 ADD PUSH2 0xEA JUMP JUMPDEST SWAP2 POP POP SWAP3 POP SWAP3 SWAP1 POP JUMP JUMPDEST PUSH1 0x80 MLOAD PUSH1 0xA0 MLOAD PUSH2 0xBBD PUSH2 0x179 PUSH0 CODECOPY PUSH0 DUP2 DUP2 PUSH2 0x1C3 ADD MSTORE DUP2 DUP2 PUSH2 0x449 ADD MSTORE PUSH2 0x692 ADD MSTORE PUSH0 DUP2 DUP2 PUSH2 0x315 ADD MSTORE DUP2 DUP2 PUSH2 0x55A ADD MSTORE PUSH2 0x5F1 ADD MSTORE PUSH2 0xBBD PUSH0 RETURN INVALID PUSH1 0x80 PUSH1 0x40 MSTORE CALLVALUE DUP1 ISZERO PUSH2 0xF JUMPI PUSH0 DUP1 REVERT JUMPDEST POP PUSH1 0x4 CALLDATASIZE LT PUSH2 0x91 JUMPI PUSH0 CALLDATALOAD PUSH1 0xE0 SHR DUP1 PUSH4 0x5A230162 GT PUSH2 0x64 JUMPI DUP1 PUSH4 0x5A230162 EQ PUSH2 0x109 JUMPI DUP1 PUSH4 0x6392A51F EQ PUSH2 0x139 JUMPI DUP1 PUSH4 0x72F702F3 EQ PUSH2 0x169 JUMPI DUP1 PUSH4 0xA694FC3A EQ PUSH2 0x187 JUMPI DUP1 PUSH4 0xF7C618C1 EQ PUSH2 0x1A3 JUMPI PUSH2 0x91 JUMP JUMPDEST DUP1 PUSH4 0xDCC4B44 EQ PUSH2 0x95 JUMPI DUP1 PUSH4 0x18160DDD EQ PUSH2 0xB1 JUMPI DUP1 PUSH4 0x2E17DE78 EQ PUSH2 0xCF JUMPI DUP1 PUSH4 0x4E71D92D EQ PUSH2 0xEB JUMPI JUMPDEST PUSH0 DUP1 REVERT JUMPDEST PUSH2 0xAF PUSH1 0x4 DUP1 CALLDATASIZE SUB DUP2 ADD SWAP1 PUSH2 0xAA SWAP2 SWAP1 PUSH2 0x83F JUMP JUMPDEST PUSH2 0x1C1 JUMP JUMPDEST STOP JUMPDEST PUSH2 0xB9 PUSH2 0x29A JUMP JUMPDEST PUSH1 0x40 MLOAD PUSH2 0xC6 SWAP2 SWAP1 PUSH2 0x879 JUMP JUMPDEST PUSH1 0x40 MLOAD DUP1 SWAP2 SUB SWAP1 RETURN JUMPDEST PUSH2 0xE9 PUSH1 0x4 DUP1 CALLDATASIZE SUB DUP2 ADD SWAP1 PUSH2 0xE4 SWAP2 SWAP1 PUSH2 0x83F JUMP JUMPDEST PUSH2 0x2A0 JUMP JUMPDEST STOP JUMPDEST PUSH2 0xF3 PUSH2 0x3B2 JUMP JUMPDEST PUSH1 0x40 MLOAD PUSH2 0x100 SWAP2 SWAP1 PUSH2 0x879 JUMP JUMPDEST PUSH1 0x40 MLOAD DUP1 SWAP2 SUB SWAP1 RETURN JUMPDEST PUSH2 0x123 PUSH1 0x4 DUP1 CALLDATASIZE SUB DUP2 ADD SWAP1 PUSH2 0x11E SWAP2 SWAP1 PUSH2 0x8EC JUMP JUMPDEST PUSH2 0x4EB JUMP JUMPDEST PUSH1 0x40 MLOAD PUSH2 0x130 SWAP2 SWAP1 PUSH2 0x879 JUMP JUMPDEST PUSH1 0x40 MLOAD DUP1 SWAP2 SUB SWAP1 RETURN JUMPDEST PUSH2 0x153 PUSH1 0x4 DUP1 CALLDATASIZE SUB DUP2 ADD SWAP1 PUSH2 0x14E SWAP2 SWAP1 PUSH2 0x8EC JUMP JUMPDEST PUSH2 0x544 JUMP JUMPDEST PUSH1 0x40 MLOAD PUSH2 0x160 SWAP2 SWAP1 PUSH2 0x879 JUMP JUMPDEST PUSH1 0x40 MLOAD DUP1 SWAP2 SUB SWAP1 RETURN JUMPDEST PUSH2 0x171 PUSH2 0x558 JUMP JUMPDEST PUSH1 0x40 MLOAD PUSH2 0x17E SWAP2 SWAP1 PUSH2 0x972 JUMP JUMPDEST PUSH1 0x40 MLOAD DUP1 SWAP2 SUB SWAP1 RETURN JUMPDEST PUSH2 0x1A1 PUSH1 0x4 DUP1 CALLDATASIZE SUB DUP2 ADD SWAP1 PUSH2 0x19C SWAP2 SWAP1 PUSH2 0x83F JUMP JUMPDEST PUSH2 0x57C JUMP JUMPDEST STOP JUMPDEST PUSH2 0x1AB PUSH2 0x690 JUMP JUMPDEST PUSH1 0x40 MLOAD PUSH2 0x1B8 SWAP2 SWAP1 PUSH2 0x972 JUMP JUMPDEST PUSH1 0x40 MLOAD DUP1 SWAP2 SUB SWAP1 RETURN JUMPDEST PUSH32 0x0 PUSH20 0xFFFFFFFFFFFFFFFFFFFFFFFFFFFFFFFFFFFFFFFF AND PUSH4 0x23B872DD CALLER ADDRESS DUP5 PUSH1 0x40 MLOAD DUP5 PUSH4 0xFFFFFFFF AND PUSH1 0xE0 SHL DUP2 MSTORE PUSH1 0x4 ADD PUSH2 0x21E SWAP4 SWAP3 SWAP2 SWAP1 PUSH2 0x99A JUMP JUMPDEST PUSH1 0x20 PUSH1 0x40 MLOAD DUP1 DUP4 SUB DUP2 PUSH0 DUP8 GAS CALL ISZERO DUP1 ISZERO PUSH2 0x23A JUMPI RETURNDATASIZE PUSH0 DUP1 RETURNDATACOPY RETURNDATASIZE PUSH0 REVERT JUMPDEST POP POP POP POP PUSH1 0x40 MLOAD RETURNDATASIZE PUSH1 0x1F NOT PUSH1 0x1F DUP3 ADD AND DUP3 ADD DUP1 PUSH1 0x40 MSTORE POP DUP2 ADD SWAP1 PUSH2 0x25E SWAP2 SWAP1 PUSH2 0xA04 JUMP JUMPDEST POP PUSH1 0x1 SLOAD PUSH8 0xDE0B6B3A7640000 DUP3 PUSH2 0x276 SWAP2 SWAP1 PUSH2 0xA5C JUMP JUMPDEST PUSH2 0x280 SWAP2 SWAP1 PUSH2 0xACA JUMP JUMPDEST PUSH1 0x2 PUSH0 DUP3 DUP3 SLOAD PUSH2 0x290 SWAP2 SWAP1 PUSH2 0xAFA JUMP JUMPDEST SWAP3 POP POP DUP2 SWAP1 SSTORE POP POP JUMP JUMPDEST PUSH1 0x1 SLOAD DUP2 JUMP JUMPDEST PUSH2 0x2A9 CALLER PUSH2 0x6B4 JUMP JUMPDEST DUP1 PUSH0 DUP1 CALLER PUSH20 0xFFFFFFFFFFFFFFFFFFFFFFFFFFFFFFFFFFFFFFFF AND PUSH20 0xFFFFFFFFFFFFFFFFFFFFFFFFFFFFFFFFFFFFFFFF AND DUP2 MSTORE PUSH1 0x20 ADD SWAP1 DUP2 MSTORE PUSH1 0x20 ADD PUSH0 KECCAK256 PUSH0 DUP3 DUP3 SLOAD PUSH2 0x2F4 SWAP2 SWAP1 PUSH2 0xB2D JUMP JUMPDEST SWAP3 POP POP DUP2 SWAP1 SSTORE POP DUP1 PUSH1 0x1 PUSH0 DUP3 DUP3 SLOAD PUSH2 0x30C SWAP2 SWAP1 PUSH2 0xB2D JUMP JUMPDEST SWAP3 POP POP DUP2 SWAP1 SSTORE POP PUSH32 0x0 PUSH20 0xFFFFFFFFFFFFFFFFFFFFFFFFFFFFFFFFFFFFFFFF AND PUSH4 0xA9059CBB CALLER DUP4 PUSH1 0x40 MLOAD DUP4 PUSH4 0xFFFFFFFF AND PUSH1 0xE0 SHL DUP2 MSTORE PUSH1 0x4 ADD PUSH2 0x36E SWAP3 SWAP2 SWAP1 PUSH2 0xB60 JUMP JUMPDEST PUSH1 0x20 PUSH1 0x40 MLOAD DUP1 DUP4 SUB DUP2 PUSH0 DUP8 GAS CALL ISZERO DUP1 ISZERO PUSH2 0x38A JUMPI RETURNDATASIZE PUSH0 DUP1 RETURNDATACOPY RETURNDATASIZE PUSH0 REVERT JUMPDEST POP POP POP POP PUSH1 0x40 MLOAD RETURNDATASIZE PUSH1 0x1F NOT PUSH1 0x1F DUP3 ADD AND DUP3 ADD DUP1 PUSH1 0x40 MSTORE POP DUP2 ADD SWAP1 PUSH2 0x3AE SWAP2 SWAP1 PUSH2 0xA04 JUMP JUMPDEST POP POP JUMP JUMPDEST PUSH0 PUSH2 0x3BC CALLER PUSH2 0x6B4 JUMP JUMPDEST PUSH0 PUSH1 0x4 PUSH0 CALLER PUSH20 0xFFFFFFFFFFFFFFFFFFFFFFFFFFFFFFFFFFFFFFFF AND PUSH20 0xFFFFFFFFFFFFFFFFFFFFFFFFFFFFFFFFFFFFFFFF AND DUP2 MSTORE PUSH1 0x20 ADD SWAP1 DUP2 MSTORE PUSH1 0x20 ADD PUSH0 KECCAK256 SLOAD SWAP1 POP PUSH0 DUP2 GT ISZERO PUSH2 0x4E4 JUMPI PUSH0 PUSH1 0x4 PUSH0 CALLER PUSH20 0xFFFFFFFFFFFFFFFFFFFFFFFFFFFFFFFFFFFFFFFF AND PUSH20 0xFFFFFFFFFFFFFFFFFFFFFFFFFFFFFFFFFFFFFFFF AND DUP2 MSTORE PUSH1 0x20 ADD SWAP1 DUP2 MSTORE PUSH1 0x20 ADD PUSH0 KECCAK256 DUP2 SWAP1 SSTORE POP PUSH32 0x0 PUSH20 0xFFFFFFFFFFFFFFFFFFFFFFFFFFFFFFFFFFFFFFFF AND PUSH4 0xA9059CBB CALLER DUP4 PUSH1 0x40 MLOAD DUP4 PUSH4 0xFFFFFFFF AND PUSH1 0xE0 SHL DUP2 MSTORE PUSH1 0x4 ADD PUSH2 0x4A2 SWAP3 SWAP2 SWAP1 PUSH2 0xB60 JUMP JUMPDEST PUSH1 0x20 PUSH1 0x40 MLOAD DUP1 DUP4 SUB DUP2 PUSH0 DUP8 GAS CALL ISZERO DUP1 ISZERO PUSH2 0x4BE JUMPI RETURNDATASIZE PUSH0 DUP1 RETURNDATACOPY RETURNDATASIZE PUSH0 REVERT JUMPDEST POP POP POP POP PUSH1 0x40 MLOAD RETURNDATASIZE PUSH1 0x1F NOT PUSH1 0x1F DUP3 ADD AND DUP3 ADD DUP1 PUSH1 0x40 MSTORE POP DUP2 ADD SWAP1 PUSH2 0x4E2 SWAP2 SWAP1 PUSH2 0xA04 JUMP JUMPDEST POP JUMPDEST DUP1 SWAP2 POP POP SWAP1 JUMP JUMPDEST PUSH0 PUSH2 0x4F5 DUP3 PUSH2 0x756 JUMP JUMPDEST PUSH1 0x4 PUSH0 DUP5 PUSH20 0xFFFFFFFFFFFFFFFFFFFFFFFFFFFFFFFFFFFFFFFF AND PUSH20 0xFFFFFFFFFFFFFFFFFFFFFFFFFFFFFFFFFFFFFFFF AND DUP2 MSTORE PUSH1 0x20 ADD SWAP1 DUP2 MSTORE PUSH1 0x20 ADD PUSH0 KECCAK256 SLOAD PUSH2 0x53D SWAP2 SWAP1 PUSH2 0xAFA JUMP JUMPDEST SWAP1 POP SWAP2 SWAP1 POP JUMP JUMPDEST PUSH0 PUSH1 0x20 MSTORE DUP1 PUSH0 MSTORE PUSH1 0x40 PUSH0 KECCAK256 PUSH0 SWAP2 POP SWAP1 POP SLOAD DUP2 JUMP JUMPDEST PUSH32 0x0 DUP2 JUMP JUMPDEST PUSH2 0x585 CALLER PUSH2 0x6B4 JUMP JUMPDEST DUP1 PUSH0 DUP1 CALLER PUSH20 0xFFFFFFFFFFFFFFFFFFFFFFFFFFFFFFFFFFFFFFFF AND PUSH20 0xFFFFFFFFFFFFFFFFFFFFFFFFFFFFFFFFFFFFFFFF AND DUP2 MSTORE PUSH1 0x20 ADD SWAP1 DUP2 MSTORE PUSH1 0x20 ADD PUSH0 KECCAK256 PUSH0 DUP3 DUP3 SLOAD PUSH2 0x5D0 SWAP2 SWAP1 PUSH2 0xAFA JUMP JUMPDEST SWAP3 POP POP DUP2 SWAP1 SSTORE POP DUP1 PUSH1 0x1 PUSH0 DUP3 DUP3 SLOAD PUSH2 0x5E8 SWAP2 SWAP1 PUSH2 0xAFA JUMP JUMPDEST SWAP3 POP POP DUP2 SWAP1 SSTORE POP PUSH32 0x0 PUSH20 0xFFFFFFFFFFFFFFFFFFFFFFFFFFFFFFFFFFFFFFFF AND PUSH4 0x23B872DD CALLER ADDRESS DUP5 PUSH1 0x40 MLOAD DUP5 PUSH4 0xFFFFFFFF AND PUSH1 0xE0 SHL DUP2 MSTORE PUSH1 0x4 ADD PUSH2 0x64C SWAP4 SWAP3 SWAP2 SWAP1 PUSH2 0x99A JUMP JUMPDEST PUSH1 0x20 PUSH1 0x40 MLOAD DUP1 DUP4 SUB DUP2 PUSH0 DUP8 GAS CALL ISZERO DUP1 ISZERO PUSH2 0x668 JUMPI RETURNDATASIZE PUSH0 DUP1 RETURNDATACOPY RETURNDATASIZE PUSH0 REVERT JUMPDEST POP POP POP POP PUSH1 0x40 MLOAD RETURNDATASIZE PUSH1 0x1F NOT PUSH1 0x1F DUP3 ADD AND DUP3 ADD DUP1 PUSH1 0x40 MSTORE POP DUP2 ADD SWAP1 PUSH2 0x68C SWAP2 SWAP1 PUSH2 0xA04 JUMP JUMPDEST POP POP JUMP JUMPDEST PUSH32 0x0 DUP2 JUMP JUMPDEST PUSH2 0x6BD DUP2 PUSH2 0x756 JUMP JUMPDEST PUSH1 0x4 PUSH0 DUP4 PUSH20 0xFFFFFFFFFFFFFFFFFFFFFFFFFFFFFFFFFFFFFFFF AND PUSH20 0xFFFFFFFFFFFFFFFFFFFFFFFFFFFFFFFFFFFFFFFF AND DUP2 MSTORE PUSH1 0x20 ADD SWAP1 DUP2 MSTORE PUSH1 0x20 ADD PUSH0 KECCAK256 PUSH0 DUP3 DUP3 SLOAD PUSH2 0x708 SWAP2 SWAP1 PUSH2 0xAFA JUMP JUMPDEST SWAP3 POP POP DUP2 SWAP1 SSTORE POP PUSH1 0x2 SLOAD PUSH1 0x3 PUSH0 DUP4 PUSH20 0xFFFFFFFFFFFFFFFFFFFFFFFFFFFFFFFFFFFFFFFF AND PUSH20 0xFFFFFFFFFFFFFFFFFFFFFFFFFFFFFFFFFFFFFFFF AND DUP2 MSTORE PUSH1 0x20 ADD SWAP1 DUP2 MSTORE PUSH1 0x20 ADD PUSH0 KECCAK256 DUP2 SWAP1 SSTORE POP POP JUMP JUMPDEST PUSH0 DUP1 PUSH0 DUP1 DUP5 PUSH20 0xFFFFFFFFFFFFFFFFFFFFFFFFFFFFFFFFFFFFFFFF AND PUSH20 0xFFFFFFFFFFFFFFFFFFFFFFFFFFFFFFFFFFFFFFFF AND DUP2 MSTORE PUSH1 0x20 ADD SWAP1 DUP2 MSTORE PUSH1 0x20 ADD PUSH0 KECCAK256 SLOAD SWAP1 POP PUSH8 0xDE0B6B3A7640000 PUSH1 0x3 PUSH0 DUP6 PUSH20 0xFFFFFFFFFFFFFFFFFFFFFFFFFFFFFFFFFFFFFFFF AND PUSH20 0xFFFFFFFFFFFFFFFFFFFFFFFFFFFFFFFFFFFFFFFF AND DUP2 MSTORE PUSH1 0x20 ADD SWAP1 DUP2 MSTORE PUSH1 0x20 ADD PUSH0 KECCAK256 SLOAD PUSH1 0x2 SLOAD PUSH2 0x7EB SWAP2 SWAP1 PUSH2 0xB2D JUMP JUMPDEST DUP3 PUSH2 0x7F6 SWAP2 SWAP1 PUSH2 0xA5C JUMP JUMPDEST PUSH2 0x800 SWAP2 SWAP1 PUSH2 0xACA JUMP JUMPDEST SWAP2 POP POP SWAP2 SWAP1 POP JUMP JUMPDEST PUSH0 DUP1 REVERT JUMPDEST PUSH0 DUP2 SWAP1 POP SWAP2 SWAP1 POP JUMP JUMPDEST PUSH2 0x81E DUP2 PUSH2 0x80C JUMP JUMPDEST DUP2 EQ PUSH2 0x828 JUMPI PUSH0 DUP1 REVERT JUMPDEST POP JUMP JUMPDEST PUSH0 DUP2 CALLDATALOAD SWAP1 POP PUSH2 0x839 DUP2 PUSH2 0x815 JUMP JUMPDEST SWAP3 SWAP2 POP POP JUMP JUMPDEST PUSH0 PUSH1 0x20 DUP3 DUP5 SUB SLT ISZERO PUSH2 0x854 JUMPI PUSH2 0x853 PUSH2 0x808 JUMP JUMPDEST JUMPDEST PUSH0 PUSH2 0x861 DUP5 DUP3 DUP6 ADD PUSH2 0x82B JUMP JUMPDEST SWAP2 POP POP SWAP3 SWAP2 POP POP JUMP JUMPDEST PUSH2 0x873 DUP2 PUSH2 0x80C JUMP JUMPDEST DUP3 MSTORE POP POP JUMP JUMPDEST PUSH0 PUSH1 0x20 DUP3 ADD SWAP1 POP PUSH2 0x88C PUSH0 DUP4 ADD DUP5 PUSH2 0x86A JUMP JUMPDEST SWAP3 SWAP2 POP POP JUMP JUMPDEST PUSH0 PUSH20 0xFFFFFFFFFFFFFFFFFFFFFFFFFFFFFFFFFFFFFFFF DUP3 AND SWAP1 POP SWAP2 SWAP1 POP JUMP JUMPDEST PUSH0 PUSH2 0x8BB DUP3 PUSH2 0x892 JUMP JUMPDEST SWAP1 POP SWAP2 SWAP1 POP JUMP JUMPDEST PUSH2 0x8CB DUP2 PUSH2 0x8B1 JUMP JUMPDEST DUP2 EQ PUSH2 0x8D5 JUMPI PUSH0 DUP1 REVERT JUMPDEST POP JUMP JUMPDEST PUSH0 DUP2 CALLDATALOAD SWAP1 POP PUSH2 0x8E6 DUP2 PUSH2 0x8C2 JUMP JUMPDEST SWAP3 SWAP2 POP POP JUMP JUMPDEST PUSH0 PUSH1 0x20 DUP3 DUP5 SUB SLT ISZERO PUSH2 0x901 JUMPI PUSH2 0x900 PUSH2 0x808 JUMP JUMPDEST JUMPDEST PUSH0 PUSH2 0x90E DUP5 DUP3 DUP6 ADD PUSH2 0x8D8 JUMP JUMPDEST SWAP2 POP POP SWAP3 SWAP2 POP POP JUMP JUMPDEST PUSH0 DUP2 SWAP1 POP SWAP2 SWAP1 POP JUMP JUMPDEST PUSH0 PUSH2 0x93A PUSH2 0x935 PUSH2 0x930 DUP5 PUSH2 0x892 JUMP JUMPDEST PUSH2 0x917 JUMP JUMPDEST PUSH2 0x892 JUMP JUMPDEST SWAP1 POP SWAP2 SWAP1 POP JUMP JUMPDEST PUSH0 PUSH2 0x94B DUP3 PUSH2 0x920 JUMP JUMPDEST SWAP1 POP SWAP2 SWAP1 POP JUMP JUMPDEST PUSH0 PUSH2 0x95C DUP3 PUSH2 0x941 JUMP JUMPDEST SWAP1 POP SWAP2 SWAP1 POP JUMP JUMPDEST PUSH2 0x96C DUP2 PUSH2 0x952 JUMP JUMPDEST DUP3 MSTORE POP POP JUMP JUMPDEST PUSH0 PUSH1 0x20 DUP3 ADD SWAP1 POP PUSH2 0x985 PUSH0 DUP4 ADD DUP5 PUSH2 0x963 JUMP JUMPDEST SWAP3 SWAP2 POP POP JUMP JUMPDEST PUSH2 0x994 DUP2 PUSH2 0x8B1 JUMP JUMPDEST DUP3 MSTORE POP POP JUMP JUMPDEST PUSH0 PUSH1 0x60 DUP3 ADD SWAP1 POP PUSH2 0x9AD PUSH0 DUP4 ADD DUP7 PUSH2 0x98B JUMP JUMPDEST PUSH2 0x9BA PUSH1 0x20 DUP4 ADD DUP6 PUSH2 0x98B JUMP JUMPDEST PUSH2 0x9C7 PUSH1 0x40 DUP4 ADD DUP5 PUSH2 0x86A JUMP JUMPDEST SWAP5 SWAP4 POP POP POP POP JUMP JUMPDEST PUSH0 DUP2 ISZERO ISZERO SWAP1 POP SWAP2 SWAP1 POP JUMP JUMPDEST PUSH2 0x9E3 DUP2 PUSH2 0x9CF JUMP JUMPDEST DUP2 EQ PUSH2 0x9ED JUMPI PUSH0 DUP1 REVERT JUMPDEST POP JUMP JUMPDEST PUSH0 DUP2 MLOAD SWAP1 POP PUSH2 0x9FE DUP2 PUSH2 0x9DA JUMP JUMPDEST SWAP3 SWAP2 POP POP JUMP JUMPDEST PUSH0 PUSH1 0x20 DUP3 DUP5 SUB SLT ISZERO PUSH2 0xA19 JUMPI PUSH2 0xA18 PUSH2 0x808 JUMP JUMPDEST JUMPDEST PUSH0 PUSH2 0xA26 DUP5 DUP3 DUP6 ADD PUSH2 0x9F0 JUMP JUMPDEST SWAP2 POP POP SWAP3 SWAP2 POP POP JUMP JUMPDEST PUSH32 0x4E487B7100000000000000000000000000000000000000000000000000000000 PUSH0 MSTORE PUSH1 0x11 PUSH1 0x4 MSTORE PUSH1 0x24 PUSH0 REVERT JUMPDEST PUSH0 PUSH2 0xA66 DUP3 PUSH2 0x80C JUMP JUMPDEST SWAP2 POP PUSH2 0xA71 DUP4 PUSH2 0x80C JUMP JUMPDEST SWAP3 POP DUP3 DUP3 MUL PUSH2 0xA7F DUP2 PUSH2 0x80C JUMP JUMPDEST SWAP2 POP DUP3 DUP3 DIV DUP5 EQ DUP4 ISZERO OR PUSH2 0xA96 JUMPI PUSH2 0xA95 PUSH2 0xA2F JUMP JUMPDEST JUMPDEST POP SWAP3 SWAP2 POP POP JUMP JUMPDEST PUSH32 0x4E487B7100000000000000000000000000000000000000000000000000000000 PUSH0 MSTORE PUSH1 0x12 PUSH1 0x4 MSTORE PUSH1 0x24 PUSH0 REVERT JUMPDEST PUSH0 PUSH2 0xAD4 DUP3 PUSH2 0x80C JUMP JUMPDEST SWAP2 POP PUSH2 0xADF DUP4 PUSH2 0x80C JUMP JUMPDEST SWAP3 POP DUP3 PUSH2 0xAEF JUMPI PUSH2 0xAEE PUSH2 0xA9D JUMP JUMPDEST JUMPDEST DUP3 DUP3 DIV SWAP1 POP SWAP3 SWAP2 POP POP JUMP JUMPDEST PUSH0 PUSH2 0xB04 DUP3 PUSH2 0x80C JUMP JUMPDEST SWAP2 POP PUSH2 0xB0F DUP4 PUSH2 0x80C JUMP JUMPDEST SWAP3 POP DUP3 DUP3 ADD SWAP1 POP DUP1 DUP3 GT ISZERO PUSH2 0xB27 JUMPI PUSH2 0xB26 PUSH2 0xA2F JUMP JUMPDEST JUMPDEST SWAP3 SWAP2 POP POP JUMP JUMPDEST PUSH0 PUSH2 0xB37 DUP3 PUSH2 0x80C JUMP JUMPDEST SWAP2 POP PUSH2 0xB42 DUP4 PUSH2 0x80C JUMP JUMPDEST SWAP3 POP DUP3 DUP3 SUB SWAP1 POP DUP2 DUP2 GT ISZERO PUSH2 0xB5A JUMPI PUSH2 0xB59 PUSH2 0xA2F JUMP JUMPDEST JUMPDEST SWAP3 SWAP2 POP POP JUMP JUMPDEST PUSH0 PUSH1 0x40 DUP3 ADD SWAP1 POP PUSH2 0xB73 PUSH0 DUP4 ADD DUP6 PUSH2 0x98B JUMP JUMPDEST PUSH2 0xB80 PUSH1 0x20 DUP4 ADD DUP5 PUSH2 0x86A JUMP JUMPDEST SWAP4 SWAP3 POP POP POP JUMP INVALID LOG2 PUSH5 0x6970667358 0x22 SLT KECCAK256 0xCB LOG2 0xCD MSIZE SHR SWAP5 ISZERO SWAP14 0xEF SAR CREATE 0xB8 0xE3 0xAE PUSH4 0xB0D05DF9 LOG0 CALL 0xD9 EXTCODEHASH 0xA9 0xB3 PUSH24 0x266EF51F1B5164736F6C6343000817003300000000000000 "
				},
				"gasEstimates": {
					"creation": {
						"codeDepositCost": "601000",
						"executionCost": "infinite",
						"totalCost": "infinite"
					},
					"external": {
						"balancesOf(address)": "2823",
						"calculateRewardEarned(address)": "infinite",
						"claim()": "infinite",
						"rewardToken()": "infinite",
						"stake(uint256)": "infinite",
						"stakingToken()": "infinite",
						"totalSupply()": "2448",
						"unstake(uint256)": "infinite",
						"updateRewardIndex(uint256)": "infinite"
					},
					"internal": {
						"_calculateRewards(address)": "infinite",
						"_updateRewards(address)": "infinite"
					}
				},
				"methodIdentifiers": {
					"balancesOf(address)": "6392a51f",
					"calculateRewardEarned(address)": "5a230162",
					"claim()": "4e71d92d",
					"rewardToken()": "f7c618c1",
					"stake(uint256)": "a694fc3a",
					"stakingToken()": "72f702f3",
					"totalSupply()": "18160ddd",
					"unstake(uint256)": "2e17de78",
					"updateRewardIndex(uint256)": "0dcc4b44"
				}
			},
			"storageLayout": {
				"storage": [
					{
						"astId": 62,
						"contract": "tests/DiscreteStakingRewards.sol:DiscreteStakingRewards",
						"label": "balancesOf",
						"offset": 0,
						"slot": "0",
						"type": "t_mapping(t_address,t_uint256)"
					},
					{
						"astId": 64,
						"contract": "tests/DiscreteStakingRewards.sol:DiscreteStakingRewards",
						"label": "totalSupply",
						"offset": 0,
						"slot": "1",
						"type": "t_uint256"
					},
					{
						"astId": 69,
						"contract": "tests/DiscreteStakingRewards.sol:DiscreteStakingRewards",
						"label": "rewardIndex",
						"offset": 0,
						"slot": "2",
						"type": "t_uint256"
					},
					{
						"astId": 73,
						"contract": "tests/DiscreteStakingRewards.sol:DiscreteStakingRewards",
						"label": "rewardIndexOf",
						"offset": 0,
						"slot": "3",
						"type": "t_mapping(t_address,t_uint256)"
					},
					{
						"astId": 77,
						"contract": "tests/DiscreteStakingRewards.sol:DiscreteStakingRewards",
						"label": "earned",
						"offset": 0,
						"slot": "4",
						"type": "t_mapping(t_address,t_uint256)"
					}
				],
				"types": {
					"t_address": {
						"encoding": "inplace",
						"label": "address",
						"numberOfBytes": "20"
					},
					"t_mapping(t_address,t_uint256)": {
						"encoding": "mapping",
						"key": "t_address",
						"label": "mapping(address => uint256)",
						"numberOfBytes": "32",
						"value": "t_uint256"
					},
					"t_uint256": {
						"encoding": "inplace",
						"label": "uint256",
						"numberOfBytes": "32"
					}
				}
			},
			"userdoc": {
				"kind": "user",
				"methods": {},
				"version": 1
			}
		}
	}
}