{
	"tests/ConstantSumAutomatedMarket.sol": {
		"CSAMM": {
			"abi": [
				{
					"inputs": [
						{
							"internalType": "address",
							"name": "_token0",
							"type": "address"
						},
						{
							"internalType": "address",
							"name": "_token1",
							"type": "address"
						}
					],
					"stateMutability": "nonpayable",
					"type": "constructor"
				},
				{
					"inputs": [
						{
							"internalType": "uint256",
							"name": "_amount0",
							"type": "uint256"
						},
						{
							"internalType": "uint256",
							"name": "_amount1",
							"type": "uint256"
						}
					],
					"name": "addLiquidity",
					"outputs": [
						{
							"internalType": "uint256",
							"name": "shares",
							"type": "uint256"
						}
					],
					"stateMutability": "nonpayable",
					"type": "function"
				},
				{
					"inputs": [
						{
							"internalType": "address",
							"name": "",
							"type": "address"
						}
					],
					"name": "balanceOf",
					"outputs": [
						{
							"internalType": "uint256",
							"name": "",
							"type": "uint256"
						}
					],
					"stateMutability": "view",
					"type": "function"
				},
				{
					"inputs": [
						{
							"internalType": "uint256",
							"name": "_shares",
							"type": "uint256"
						}
					],
					"name": "removeLiquidity",
					"outputs": [
						{
							"internalType": "uint256",
							"name": "d0",
							"type": "uint256"
						},
						{
							"internalType": "uint256",
							"name": "d1",
							"type": "uint256"
						}
					],
					"stateMutability": "nonpayable",
					"type": "function"
				},
				{
					"inputs": [],
					"name": "reserve0",
					"outputs": [
						{
							"internalType": "uint256",
							"name": "",
							"type": "uint256"
						}
					],
					"stateMutability": "view",
					"type": "function"
				},
				{
					"inputs": [],
					"name": "reserve1",
					"outputs": [
						{
							"internalType": "uint256",
							"name": "",
							"type": "uint256"
						}
					],
					"stateMutability": "view",
					"type": "function"
				},
				{
					"inputs": [
						{
							"internalType": "address",
							"name": "_tokenIn",
							"type": "address"
						},
						{
							"internalType": "uint256",
							"name": "_amountIn",
							"type": "uint256"
						}
					],
					"name": "swap",
					"outputs": [
						{
							"internalType": "uint256",
							"name": "amountOut",
							"type": "uint256"
						}
					],
					"stateMutability": "nonpayable",
					"type": "function"
				},
				{
					"inputs": [],
					"name": "token0",
					"outputs": [
						{
							"internalType": "contract IERC20",
							"name": "",
							"type": "address"
						}
					],
					"stateMutability": "view",
					"type": "function"
				},
				{
					"inputs": [],
					"name": "token1",
					"outputs": [
						{
							"internalType": "contract IERC20",
							"name": "",
							"type": "address"
						}
					],
					"stateMutability": "view",
					"type": "function"
				},
				{
					"inputs": [],
					"name": "totalSupply",
					"outputs": [
						{
							"internalType": "uint256",
							"name": "",
							"type": "uint256"
						}
					],
					"stateMutability": "view",
					"type": "function"
				}
			],
			"devdoc": {
				"kind": "dev",
				"methods": {},
				"version": 1
			},
			"evm": {
				"assembly": "    /* \"tests/ConstantSumAutomatedMarket.sol\":123:3535  contract CSAMM {... */\n  mstore(0x40, 0xc0)\n    /* \"tests/ConstantSumAutomatedMarket.sol\":358:482  constructor(address _token0, address _token1) {... */\n  callvalue\n  dup1\n  iszero\n  tag_1\n  jumpi\n  0x00\n  dup1\n  revert\ntag_1:\n  pop\n  mload(0x40)\n  sub(codesize, bytecodeSize)\n  dup1\n  bytecodeSize\n  dup4\n  codecopy\n  dup2\n  dup2\n  add\n  0x40\n  mstore\n  dup2\n  add\n  swap1\n  tag_2\n  swap2\n  swap1\n  tag_3\n  jump\t// in\ntag_2:\n    /* \"tests/ConstantSumAutomatedMarket.sol\":431:438  _token0 */\n  dup2\n    /* \"tests/ConstantSumAutomatedMarket.sol\":415:439  token0 = IERC20(_token0) */\n  0xffffffffffffffffffffffffffffffffffffffff\n  and\n  0x80\n  dup2\n  0xffffffffffffffffffffffffffffffffffffffff\n  and\n  dup2\n  mstore\n  pop\n  pop\n    /* \"tests/ConstantSumAutomatedMarket.sol\":466:473  _token1 */\n  dup1\n    /* \"tests/ConstantSumAutomatedMarket.sol\":450:474  token1 = IERC20(_token1) */\n  0xffffffffffffffffffffffffffffffffffffffff\n  and\n  0xa0\n  dup2\n  0xffffffffffffffffffffffffffffffffffffffff\n  and\n  dup2\n  mstore\n  pop\n  pop\n    /* \"tests/ConstantSumAutomatedMarket.sol\":358:482  constructor(address _token0, address _token1) {... */\n  pop\n  pop\n    /* \"tests/ConstantSumAutomatedMarket.sol\":123:3535  contract CSAMM {... */\n  jump(tag_6)\n    /* \"#utility.yul\":88:205   */\ntag_8:\n    /* \"#utility.yul\":197:198   */\n  0x00\n    /* \"#utility.yul\":194:195   */\n  dup1\n    /* \"#utility.yul\":187:199   */\n  revert\n    /* \"#utility.yul\":334:460   */\ntag_10:\n    /* \"#utility.yul\":371:378   */\n  0x00\n    /* \"#utility.yul\":411:453   */\n  0xffffffffffffffffffffffffffffffffffffffff\n    /* \"#utility.yul\":404:409   */\n  dup3\n    /* \"#utility.yul\":400:454   */\n  and\n    /* \"#utility.yul\":389:454   */\n  swap1\n  pop\n    /* \"#utility.yul\":334:460   */\n  swap2\n  swap1\n  pop\n  jump\t// out\n    /* \"#utility.yul\":466:562   */\ntag_11:\n    /* \"#utility.yul\":503:510   */\n  0x00\n    /* \"#utility.yul\":532:556   */\n  tag_20\n    /* \"#utility.yul\":550:555   */\n  dup3\n    /* \"#utility.yul\":532:556   */\n  tag_10\n  jump\t// in\ntag_20:\n    /* \"#utility.yul\":521:556   */\n  swap1\n  pop\n    /* \"#utility.yul\":466:562   */\n  swap2\n  swap1\n  pop\n  jump\t// out\n    /* \"#utility.yul\":568:690   */\ntag_12:\n    /* \"#utility.yul\":641:665   */\n  tag_22\n    /* \"#utility.yul\":659:664   */\n  dup2\n    /* \"#utility.yul\":641:665   */\n  tag_11\n  jump\t// in\ntag_22:\n    /* \"#utility.yul\":634:639   */\n  dup2\n    /* \"#utility.yul\":631:666   */\n  eq\n    /* \"#utility.yul\":621:684   */\n  tag_23\n  jumpi\n    /* \"#utility.yul\":680:681   */\n  0x00\n    /* \"#utility.yul\":677:678   */\n  dup1\n    /* \"#utility.yul\":670:682   */\n  revert\n    /* \"#utility.yul\":621:684   */\ntag_23:\n    /* \"#utility.yul\":568:690   */\n  pop\n  jump\t// out\n    /* \"#utility.yul\":696:839   */\ntag_13:\n    /* \"#utility.yul\":753:758   */\n  0x00\n    /* \"#utility.yul\":784:790   */\n  dup2\n    /* \"#utility.yul\":778:791   */\n  mload\n    /* \"#utility.yul\":769:791   */\n  swap1\n  pop\n    /* \"#utility.yul\":800:833   */\n  tag_25\n    /* \"#utility.yul\":827:832   */\n  dup2\n    /* \"#utility.yul\":800:833   */\n  tag_12\n  jump\t// in\ntag_25:\n    /* \"#utility.yul\":696:839   */\n  swap3\n  swap2\n  pop\n  pop\n  jump\t// out\n    /* \"#utility.yul\":845:1352   */\ntag_3:\n    /* \"#utility.yul\":924:930   */\n  0x00\n    /* \"#utility.yul\":932:938   */\n  dup1\n    /* \"#utility.yul\":981:983   */\n  0x40\n    /* \"#utility.yul\":969:978   */\n  dup4\n    /* \"#utility.yul\":960:967   */\n  dup6\n    /* \"#utility.yul\":956:979   */\n  sub\n    /* \"#utility.yul\":952:984   */\n  slt\n    /* \"#utility.yul\":949:1068   */\n  iszero\n  tag_27\n  jumpi\n    /* \"#utility.yul\":987:1066   */\n  tag_28\n  tag_8\n  jump\t// in\ntag_28:\n    /* \"#utility.yul\":949:1068   */\ntag_27:\n    /* \"#utility.yul\":1107:1108   */\n  0x00\n    /* \"#utility.yul\":1132:1196   */\n  tag_29\n    /* \"#utility.yul\":1188:1195   */\n  dup6\n    /* \"#utility.yul\":1179:1185   */\n  dup3\n    /* \"#utility.yul\":1168:1177   */\n  dup7\n    /* \"#utility.yul\":1164:1186   */\n  add\n    /* \"#utility.yul\":1132:1196   */\n  tag_13\n  jump\t// in\ntag_29:\n    /* \"#utility.yul\":1122:1196   */\n  swap3\n  pop\n    /* \"#utility.yul\":1078:1206   */\n  pop\n    /* \"#utility.yul\":1245:1247   */\n  0x20\n    /* \"#utility.yul\":1271:1335   */\n  tag_30\n    /* \"#utility.yul\":1327:1334   */\n  dup6\n    /* \"#utility.yul\":1318:1324   */\n  dup3\n    /* \"#utility.yul\":1307:1316   */\n  dup7\n    /* \"#utility.yul\":1303:1325   */\n  add\n    /* \"#utility.yul\":1271:1335   */\n  tag_13\n  jump\t// in\ntag_30:\n    /* \"#utility.yul\":1261:1335   */\n  swap2\n  pop\n    /* \"#utility.yul\":1216:1345   */\n  pop\n    /* \"#utility.yul\":845:1352   */\n  swap3\n  pop\n  swap3\n  swap1\n  pop\n  jump\t// out\n    /* \"tests/ConstantSumAutomatedMarket.sol\":123:3535  contract CSAMM {... */\ntag_6:\n  mload(0x80)\n  mload(0xa0)\n  codecopy(0x00, dataOffset(sub_0), dataSize(sub_0))\n  0x00\n  assignImmutable(\"0x04e57633024368235fc5219bfb9802814291d3a7b9a68d0aeb7bd3d297ac474e\")\n  0x00\n  assignImmutable(\"0x845e9c18ca148a712f01bf14c91c3e2fe352eabe86c44817e3f33b63f585a343\")\n  return(0x00, dataSize(sub_0))\nstop\n\nsub_0: assembly {\n        /* \"tests/ConstantSumAutomatedMarket.sol\":123:3535  contract CSAMM {... */\n      mstore(0x40, 0x80)\n      callvalue\n      dup1\n      iszero\n      tag_1\n      jumpi\n      0x00\n      dup1\n      revert\n    tag_1:\n      pop\n      jumpi(tag_2, lt(calldatasize, 0x04))\n      shr(0xe0, calldataload(0x00))\n      dup1\n      0x70a08231\n      gt\n      tag_12\n      jumpi\n      dup1\n      0x70a08231\n      eq\n      tag_7\n      jumpi\n      dup1\n      0x9c8f9f23\n      eq\n      tag_8\n      jumpi\n      dup1\n      0x9cd441da\n      eq\n      tag_9\n      jumpi\n      dup1\n      0xd004f0f7\n      eq\n      tag_10\n      jumpi\n      dup1\n      0xd21220a7\n      eq\n      tag_11\n      jumpi\n      jump(tag_2)\n    tag_12:\n      dup1\n      0x0dfe1681\n      eq\n      tag_3\n      jumpi\n      dup1\n      0x18160ddd\n      eq\n      tag_4\n      jumpi\n      dup1\n      0x443cb4bc\n      eq\n      tag_5\n      jumpi\n      dup1\n      0x5a76f25e\n      eq\n      tag_6\n      jumpi\n    tag_2:\n      0x00\n      dup1\n      revert\n        /* \"tests/ConstantSumAutomatedMarket.sol\":145:175  IERC20 public immutable token0 */\n    tag_3:\n      tag_13\n      tag_14\n      jump\t// in\n    tag_13:\n      mload(0x40)\n      tag_15\n      swap2\n      swap1\n      tag_16\n      jump\t// in\n    tag_15:\n      mload(0x40)\n      dup1\n      swap2\n      sub\n      swap1\n      return\n        /* \"tests/ConstantSumAutomatedMarket.sol\":277:300  uint public totalSupply */\n    tag_4:\n      tag_17\n      tag_18\n      jump\t// in\n    tag_17:\n      mload(0x40)\n      tag_19\n      swap2\n      swap1\n      tag_20\n      jump\t// in\n    tag_19:\n      mload(0x40)\n      dup1\n      swap2\n      sub\n      swap1\n      return\n        /* \"tests/ConstantSumAutomatedMarket.sol\":221:241  uint public reserve0 */\n    tag_5:\n      tag_21\n      tag_22\n      jump\t// in\n    tag_21:\n      mload(0x40)\n      tag_23\n      swap2\n      swap1\n      tag_20\n      jump\t// in\n    tag_23:\n      mload(0x40)\n      dup1\n      swap2\n      sub\n      swap1\n      return\n        /* \"tests/ConstantSumAutomatedMarket.sol\":248:268  uint public reserve1 */\n    tag_6:\n      tag_24\n      tag_25\n      jump\t// in\n    tag_24:\n      mload(0x40)\n      tag_26\n      swap2\n      swap1\n      tag_20\n      jump\t// in\n    tag_26:\n      mload(0x40)\n      dup1\n      swap2\n      sub\n      swap1\n      return\n        /* \"tests/ConstantSumAutomatedMarket.sol\":307:349  mapping (address => uint) public balanceOf */\n    tag_7:\n      tag_27\n      0x04\n      dup1\n      calldatasize\n      sub\n      dup2\n      add\n      swap1\n      tag_28\n      swap2\n      swap1\n      tag_29\n      jump\t// in\n    tag_28:\n      tag_30\n      jump\t// in\n    tag_27:\n      mload(0x40)\n      tag_31\n      swap2\n      swap1\n      tag_20\n      jump\t// in\n    tag_31:\n      mload(0x40)\n      dup1\n      swap2\n      sub\n      swap1\n      return\n        /* \"tests/ConstantSumAutomatedMarket.sol\":2881:3530  function removeLiquidity(uint _shares) external returns(uint d0, uint d1) {... */\n    tag_8:\n      tag_32\n      0x04\n      dup1\n      calldatasize\n      sub\n      dup2\n      add\n      swap1\n      tag_33\n      swap2\n      swap1\n      tag_34\n      jump\t// in\n    tag_33:\n      tag_35\n      jump\t// in\n    tag_32:\n      mload(0x40)\n      tag_36\n      swap3\n      swap2\n      swap1\n      tag_37\n      jump\t// in\n    tag_36:\n      mload(0x40)\n      dup1\n      swap2\n      sub\n      swap1\n      return\n        /* \"tests/ConstantSumAutomatedMarket.sol\":1915:2873  function addLiquidity(uint _amount0, uint _amount1) external returns(uint shares) {... */\n    tag_9:\n      tag_38\n      0x04\n      dup1\n      calldatasize\n      sub\n      dup2\n      add\n      swap1\n      tag_39\n      swap2\n      swap1\n      tag_40\n      jump\t// in\n    tag_39:\n      tag_41\n      jump\t// in\n    tag_38:\n      mload(0x40)\n      tag_42\n      swap2\n      swap1\n      tag_20\n      jump\t// in\n    tag_42:\n      mload(0x40)\n      dup1\n      swap2\n      sub\n      swap1\n      return\n        /* \"tests/ConstantSumAutomatedMarket.sol\":884:1909  function swap(address _tokenIn, uint _amountIn) external returns(uint amountOut) {... */\n    tag_10:\n      tag_43\n      0x04\n      dup1\n      calldatasize\n      sub\n      dup2\n      add\n      swap1\n      tag_44\n      swap2\n      swap1\n      tag_45\n      jump\t// in\n    tag_44:\n      tag_46\n      jump\t// in\n    tag_43:\n      mload(0x40)\n      tag_47\n      swap2\n      swap1\n      tag_20\n      jump\t// in\n    tag_47:\n      mload(0x40)\n      dup1\n      swap2\n      sub\n      swap1\n      return\n        /* \"tests/ConstantSumAutomatedMarket.sol\":182:212  IERC20 public immutable token1 */\n    tag_11:\n      tag_48\n      tag_49\n      jump\t// in\n    tag_48:\n      mload(0x40)\n      tag_50\n      swap2\n      swap1\n      tag_16\n      jump\t// in\n    tag_50:\n      mload(0x40)\n      dup1\n      swap2\n      sub\n      swap1\n      return\n        /* \"tests/ConstantSumAutomatedMarket.sol\":145:175  IERC20 public immutable token0 */\n    tag_14:\n      immutable(\"0x845e9c18ca148a712f01bf14c91c3e2fe352eabe86c44817e3f33b63f585a343\")\n      dup2\n      jump\t// out\n        /* \"tests/ConstantSumAutomatedMarket.sol\":277:300  uint public totalSupply */\n    tag_18:\n      sload(0x02)\n      dup2\n      jump\t// out\n        /* \"tests/ConstantSumAutomatedMarket.sol\":221:241  uint public reserve0 */\n    tag_22:\n      sload(0x00)\n      dup2\n      jump\t// out\n        /* \"tests/ConstantSumAutomatedMarket.sol\":248:268  uint public reserve1 */\n    tag_25:\n      sload(0x01)\n      dup2\n      jump\t// out\n        /* \"tests/ConstantSumAutomatedMarket.sol\":307:349  mapping (address => uint) public balanceOf */\n    tag_30:\n      mstore(0x20, 0x03)\n      dup1\n      0x00\n      mstore\n      keccak256(0x00, 0x40)\n      0x00\n      swap2\n      pop\n      swap1\n      pop\n      sload\n      dup2\n      jump\t// out\n        /* \"tests/ConstantSumAutomatedMarket.sol\":2881:3530  function removeLiquidity(uint _shares) external returns(uint d0, uint d1) {... */\n    tag_35:\n        /* \"tests/ConstantSumAutomatedMarket.sol\":2937:2944  uint d0 */\n      0x00\n        /* \"tests/ConstantSumAutomatedMarket.sol\":2946:2953  uint d1 */\n      dup1\n        /* \"tests/ConstantSumAutomatedMarket.sol\":3210:3221  totalSupply */\n      sload(0x02)\n        /* \"tests/ConstantSumAutomatedMarket.sol\":3199:3206  _shares */\n      dup4\n        /* \"tests/ConstantSumAutomatedMarket.sol\":3188:3196  reserve0 */\n      sload(0x00)\n        /* \"tests/ConstantSumAutomatedMarket.sol\":3188:3206  reserve0 * _shares */\n      tag_52\n      swap2\n      swap1\n      tag_53\n      jump\t// in\n    tag_52:\n        /* \"tests/ConstantSumAutomatedMarket.sol\":3187:3221  (reserve0 * _shares) / totalSupply */\n      tag_54\n      swap2\n      swap1\n      tag_55\n      jump\t// in\n    tag_54:\n        /* \"tests/ConstantSumAutomatedMarket.sol\":3182:3221  d0 = (reserve0 * _shares) / totalSupply */\n      swap2\n      pop\n        /* \"tests/ConstantSumAutomatedMarket.sol\":3260:3271  totalSupply */\n      sload(0x02)\n        /* \"tests/ConstantSumAutomatedMarket.sol\":3249:3256  _shares */\n      dup4\n        /* \"tests/ConstantSumAutomatedMarket.sol\":3238:3246  reserve1 */\n      sload(0x01)\n        /* \"tests/ConstantSumAutomatedMarket.sol\":3238:3256  reserve1 * _shares */\n      tag_56\n      swap2\n      swap1\n      tag_53\n      jump\t// in\n    tag_56:\n        /* \"tests/ConstantSumAutomatedMarket.sol\":3237:3271  (reserve1 * _shares) / totalSupply */\n      tag_57\n      swap2\n      swap1\n      tag_55\n      jump\t// in\n    tag_57:\n        /* \"tests/ConstantSumAutomatedMarket.sol\":3232:3271  d1 = (reserve1 * _shares) / totalSupply */\n      swap1\n      pop\n        /* \"tests/ConstantSumAutomatedMarket.sol\":3284:3310  _burn(msg.sender, _shares) */\n      tag_58\n        /* \"tests/ConstantSumAutomatedMarket.sol\":3290:3300  msg.sender */\n      caller\n        /* \"tests/ConstantSumAutomatedMarket.sol\":3302:3309  _shares */\n      dup5\n        /* \"tests/ConstantSumAutomatedMarket.sol\":3284:3289  _burn */\n      tag_59\n        /* \"tests/ConstantSumAutomatedMarket.sol\":3284:3310  _burn(msg.sender, _shares) */\n      jump\t// in\n    tag_58:\n        /* \"tests/ConstantSumAutomatedMarket.sol\":3323:3360  _update(reserve0 - d0, reserve1 - d1) */\n      tag_60\n        /* \"tests/ConstantSumAutomatedMarket.sol\":3342:3344  d0 */\n      dup3\n        /* \"tests/ConstantSumAutomatedMarket.sol\":3331:3339  reserve0 */\n      sload(0x00)\n        /* \"tests/ConstantSumAutomatedMarket.sol\":3331:3344  reserve0 - d0 */\n      tag_61\n      swap2\n      swap1\n      tag_62\n      jump\t// in\n    tag_61:\n        /* \"tests/ConstantSumAutomatedMarket.sol\":3357:3359  d1 */\n      dup3\n        /* \"tests/ConstantSumAutomatedMarket.sol\":3346:3354  reserve1 */\n      sload(0x01)\n        /* \"tests/ConstantSumAutomatedMarket.sol\":3346:3359  reserve1 - d1 */\n      tag_63\n      swap2\n      swap1\n      tag_62\n      jump\t// in\n    tag_63:\n        /* \"tests/ConstantSumAutomatedMarket.sol\":3323:3330  _update */\n      tag_64\n        /* \"tests/ConstantSumAutomatedMarket.sol\":3323:3360  _update(reserve0 - d0, reserve1 - d1) */\n      jump\t// in\n    tag_60:\n        /* \"tests/ConstantSumAutomatedMarket.sol\":3381:3382  0 */\n      0x00\n        /* \"tests/ConstantSumAutomatedMarket.sol\":3376:3378  d0 */\n      dup3\n        /* \"tests/ConstantSumAutomatedMarket.sol\":3376:3382  d0 > 0 */\n      gt\n        /* \"tests/ConstantSumAutomatedMarket.sol\":3373:3442  if(d0 > 0) {... */\n      iszero\n      tag_65\n      jumpi\n        /* \"tests/ConstantSumAutomatedMarket.sol\":3399:3405  token0 */\n      immutable(\"0x845e9c18ca148a712f01bf14c91c3e2fe352eabe86c44817e3f33b63f585a343\")\n        /* \"tests/ConstantSumAutomatedMarket.sol\":3399:3414  token0.transfer */\n      0xffffffffffffffffffffffffffffffffffffffff\n      and\n      0xa9059cbb\n        /* \"tests/ConstantSumAutomatedMarket.sol\":3415:3425  msg.sender */\n      caller\n        /* \"tests/ConstantSumAutomatedMarket.sol\":3427:3429  d0 */\n      dup5\n        /* \"tests/ConstantSumAutomatedMarket.sol\":3399:3430  token0.transfer(msg.sender, d0) */\n      mload(0x40)\n      dup4\n      0xffffffff\n      and\n      0xe0\n      shl\n      dup2\n      mstore\n      0x04\n      add\n      tag_66\n      swap3\n      swap2\n      swap1\n      tag_67\n      jump\t// in\n    tag_66:\n      0x20\n      mload(0x40)\n      dup1\n      dup4\n      sub\n      dup2\n      0x00\n      dup8\n      gas\n      call\n      iszero\n      dup1\n      iszero\n      tag_69\n      jumpi\n      returndatasize\n      0x00\n      dup1\n      returndatacopy\n      revert(0x00, returndatasize)\n    tag_69:\n      pop\n      pop\n      pop\n      pop\n      mload(0x40)\n      returndatasize\n      not(0x1f)\n      0x1f\n      dup3\n      add\n      and\n      dup3\n      add\n      dup1\n      0x40\n      mstore\n      pop\n      dup2\n      add\n      swap1\n      tag_70\n      swap2\n      swap1\n      tag_71\n      jump\t// in\n    tag_70:\n      pop\n        /* \"tests/ConstantSumAutomatedMarket.sol\":3373:3442  if(d0 > 0) {... */\n    tag_65:\n        /* \"tests/ConstantSumAutomatedMarket.sol\":3462:3463  0 */\n      0x00\n        /* \"tests/ConstantSumAutomatedMarket.sol\":3457:3459  d1 */\n      dup2\n        /* \"tests/ConstantSumAutomatedMarket.sol\":3457:3463  d1 > 0 */\n      gt\n        /* \"tests/ConstantSumAutomatedMarket.sol\":3454:3523  if(d1 > 0) {... */\n      iszero\n      tag_72\n      jumpi\n        /* \"tests/ConstantSumAutomatedMarket.sol\":3480:3486  token1 */\n      immutable(\"0x04e57633024368235fc5219bfb9802814291d3a7b9a68d0aeb7bd3d297ac474e\")\n        /* \"tests/ConstantSumAutomatedMarket.sol\":3480:3495  token1.transfer */\n      0xffffffffffffffffffffffffffffffffffffffff\n      and\n      0xa9059cbb\n        /* \"tests/ConstantSumAutomatedMarket.sol\":3496:3506  msg.sender */\n      caller\n        /* \"tests/ConstantSumAutomatedMarket.sol\":3508:3510  d1 */\n      dup4\n        /* \"tests/ConstantSumAutomatedMarket.sol\":3480:3511  token1.transfer(msg.sender, d1) */\n      mload(0x40)\n      dup4\n      0xffffffff\n      and\n      0xe0\n      shl\n      dup2\n      mstore\n      0x04\n      add\n      tag_73\n      swap3\n      swap2\n      swap1\n      tag_67\n      jump\t// in\n    tag_73:\n      0x20\n      mload(0x40)\n      dup1\n      dup4\n      sub\n      dup2\n      0x00\n      dup8\n      gas\n      call\n      iszero\n      dup1\n      iszero\n      tag_75\n      jumpi\n      returndatasize\n      0x00\n      dup1\n      returndatacopy\n      revert(0x00, returndatasize)\n    tag_75:\n      pop\n      pop\n      pop\n      pop\n      mload(0x40)\n      returndatasize\n      not(0x1f)\n      0x1f\n      dup3\n      add\n      and\n      dup3\n      add\n      dup1\n      0x40\n      mstore\n      pop\n      dup2\n      add\n      swap1\n      tag_76\n      swap2\n      swap1\n      tag_71\n      jump\t// in\n    tag_76:\n      pop\n        /* \"tests/ConstantSumAutomatedMarket.sol\":3454:3523  if(d1 > 0) {... */\n    tag_72:\n        /* \"tests/ConstantSumAutomatedMarket.sol\":2881:3530  function removeLiquidity(uint _shares) external returns(uint d0, uint d1) {... */\n      swap2\n      pop\n      swap2\n      jump\t// out\n        /* \"tests/ConstantSumAutomatedMarket.sol\":1915:2873  function addLiquidity(uint _amount0, uint _amount1) external returns(uint shares) {... */\n    tag_41:\n        /* \"tests/ConstantSumAutomatedMarket.sol\":1984:1995  uint shares */\n      0x00\n        /* \"tests/ConstantSumAutomatedMarket.sol\":2008:2014  token0 */\n      immutable(\"0x845e9c18ca148a712f01bf14c91c3e2fe352eabe86c44817e3f33b63f585a343\")\n        /* \"tests/ConstantSumAutomatedMarket.sol\":2008:2027  token0.transferFrom */\n      0xffffffffffffffffffffffffffffffffffffffff\n      and\n      0x23b872dd\n        /* \"tests/ConstantSumAutomatedMarket.sol\":2028:2038  msg.sender */\n      caller\n        /* \"tests/ConstantSumAutomatedMarket.sol\":2048:2052  this */\n      address\n        /* \"tests/ConstantSumAutomatedMarket.sol\":2055:2063  _amount0 */\n      dup7\n        /* \"tests/ConstantSumAutomatedMarket.sol\":2008:2064  token0.transferFrom(msg.sender, address(this), _amount0) */\n      mload(0x40)\n      dup5\n      0xffffffff\n      and\n      0xe0\n      shl\n      dup2\n      mstore\n      0x04\n      add\n      tag_78\n      swap4\n      swap3\n      swap2\n      swap1\n      tag_79\n      jump\t// in\n    tag_78:\n      0x20\n      mload(0x40)\n      dup1\n      dup4\n      sub\n      dup2\n      0x00\n      dup8\n      gas\n      call\n      iszero\n      dup1\n      iszero\n      tag_81\n      jumpi\n      returndatasize\n      0x00\n      dup1\n      returndatacopy\n      revert(0x00, returndatasize)\n    tag_81:\n      pop\n      pop\n      pop\n      pop\n      mload(0x40)\n      returndatasize\n      not(0x1f)\n      0x1f\n      dup3\n      add\n      and\n      dup3\n      add\n      dup1\n      0x40\n      mstore\n      pop\n      dup2\n      add\n      swap1\n      tag_82\n      swap2\n      swap1\n      tag_71\n      jump\t// in\n    tag_82:\n      pop\n        /* \"tests/ConstantSumAutomatedMarket.sol\":2075:2081  token1 */\n      immutable(\"0x04e57633024368235fc5219bfb9802814291d3a7b9a68d0aeb7bd3d297ac474e\")\n        /* \"tests/ConstantSumAutomatedMarket.sol\":2075:2094  token1.transferFrom */\n      0xffffffffffffffffffffffffffffffffffffffff\n      and\n      0x23b872dd\n        /* \"tests/ConstantSumAutomatedMarket.sol\":2095:2105  msg.sender */\n      caller\n        /* \"tests/ConstantSumAutomatedMarket.sol\":2115:2119  this */\n      address\n        /* \"tests/ConstantSumAutomatedMarket.sol\":2122:2130  _amount1 */\n      dup6\n        /* \"tests/ConstantSumAutomatedMarket.sol\":2075:2131  token1.transferFrom(msg.sender, address(this), _amount1) */\n      mload(0x40)\n      dup5\n      0xffffffff\n      and\n      0xe0\n      shl\n      dup2\n      mstore\n      0x04\n      add\n      tag_83\n      swap4\n      swap3\n      swap2\n      swap1\n      tag_79\n      jump\t// in\n    tag_83:\n      0x20\n      mload(0x40)\n      dup1\n      dup4\n      sub\n      dup2\n      0x00\n      dup8\n      gas\n      call\n      iszero\n      dup1\n      iszero\n      tag_85\n      jumpi\n      returndatasize\n      0x00\n      dup1\n      returndatacopy\n      revert(0x00, returndatasize)\n    tag_85:\n      pop\n      pop\n      pop\n      pop\n      mload(0x40)\n      returndatasize\n      not(0x1f)\n      0x1f\n      dup3\n      add\n      and\n      dup3\n      add\n      dup1\n      0x40\n      mstore\n      pop\n      dup2\n      add\n      swap1\n      tag_86\n      swap2\n      swap1\n      tag_71\n      jump\t// in\n    tag_86:\n      pop\n        /* \"tests/ConstantSumAutomatedMarket.sol\":2148:2157  uint bal0 */\n      0x00\n        /* \"tests/ConstantSumAutomatedMarket.sol\":2160:2166  token0 */\n      immutable(\"0x845e9c18ca148a712f01bf14c91c3e2fe352eabe86c44817e3f33b63f585a343\")\n        /* \"tests/ConstantSumAutomatedMarket.sol\":2160:2176  token0.balanceOf */\n      0xffffffffffffffffffffffffffffffffffffffff\n      and\n      0x70a08231\n        /* \"tests/ConstantSumAutomatedMarket.sol\":2185:2189  this */\n      address\n        /* \"tests/ConstantSumAutomatedMarket.sol\":2160:2191  token0.balanceOf(address(this)) */\n      mload(0x40)\n      dup3\n      0xffffffff\n      and\n      0xe0\n      shl\n      dup2\n      mstore\n      0x04\n      add\n      tag_87\n      swap2\n      swap1\n      tag_88\n      jump\t// in\n    tag_87:\n      0x20\n      mload(0x40)\n      dup1\n      dup4\n      sub\n      dup2\n      dup7\n      gas\n      staticcall\n      iszero\n      dup1\n      iszero\n      tag_90\n      jumpi\n      returndatasize\n      0x00\n      dup1\n      returndatacopy\n      revert(0x00, returndatasize)\n    tag_90:\n      pop\n      pop\n      pop\n      pop\n      mload(0x40)\n      returndatasize\n      not(0x1f)\n      0x1f\n      dup3\n      add\n      and\n      dup3\n      add\n      dup1\n      0x40\n      mstore\n      pop\n      dup2\n      add\n      swap1\n      tag_91\n      swap2\n      swap1\n      tag_92\n      jump\t// in\n    tag_91:\n        /* \"tests/ConstantSumAutomatedMarket.sol\":2148:2191  uint bal0 = token0.balanceOf(address(this)) */\n      swap1\n      pop\n        /* \"tests/ConstantSumAutomatedMarket.sol\":2202:2211  uint bal1 */\n      0x00\n        /* \"tests/ConstantSumAutomatedMarket.sol\":2214:2220  token1 */\n      immutable(\"0x04e57633024368235fc5219bfb9802814291d3a7b9a68d0aeb7bd3d297ac474e\")\n        /* \"tests/ConstantSumAutomatedMarket.sol\":2214:2230  token1.balanceOf */\n      0xffffffffffffffffffffffffffffffffffffffff\n      and\n      0x70a08231\n        /* \"tests/ConstantSumAutomatedMarket.sol\":2239:2243  this */\n      address\n        /* \"tests/ConstantSumAutomatedMarket.sol\":2214:2245  token1.balanceOf(address(this)) */\n      mload(0x40)\n      dup3\n      0xffffffff\n      and\n      0xe0\n      shl\n      dup2\n      mstore\n      0x04\n      add\n      tag_93\n      swap2\n      swap1\n      tag_88\n      jump\t// in\n    tag_93:\n      0x20\n      mload(0x40)\n      dup1\n      dup4\n      sub\n      dup2\n      dup7\n      gas\n      staticcall\n      iszero\n      dup1\n      iszero\n      tag_95\n      jumpi\n      returndatasize\n      0x00\n      dup1\n      returndatacopy\n      revert(0x00, returndatasize)\n    tag_95:\n      pop\n      pop\n      pop\n      pop\n      mload(0x40)\n      returndatasize\n      not(0x1f)\n      0x1f\n      dup3\n      add\n      and\n      dup3\n      add\n      dup1\n      0x40\n      mstore\n      pop\n      dup2\n      add\n      swap1\n      tag_96\n      swap2\n      swap1\n      tag_92\n      jump\t// in\n    tag_96:\n        /* \"tests/ConstantSumAutomatedMarket.sol\":2202:2245  uint bal1 = token1.balanceOf(address(this)) */\n      swap1\n      pop\n        /* \"tests/ConstantSumAutomatedMarket.sol\":2262:2269  uint d0 */\n      0x00\n        /* \"tests/ConstantSumAutomatedMarket.sol\":2279:2287  reserve0 */\n      dup1\n      sload\n        /* \"tests/ConstantSumAutomatedMarket.sol\":2272:2276  bal0 */\n      dup4\n        /* \"tests/ConstantSumAutomatedMarket.sol\":2272:2287  bal0 - reserve0 */\n      tag_97\n      swap2\n      swap1\n      tag_62\n      jump\t// in\n    tag_97:\n        /* \"tests/ConstantSumAutomatedMarket.sol\":2262:2287  uint d0 = bal0 - reserve0 */\n      swap1\n      pop\n        /* \"tests/ConstantSumAutomatedMarket.sol\":2298:2305  uint d1 */\n      0x00\n        /* \"tests/ConstantSumAutomatedMarket.sol\":2315:2323  reserve1 */\n      sload(0x01)\n        /* \"tests/ConstantSumAutomatedMarket.sol\":2308:2312  bal1 */\n      dup4\n        /* \"tests/ConstantSumAutomatedMarket.sol\":2308:2323  bal1 - reserve1 */\n      tag_98\n      swap2\n      swap1\n      tag_62\n      jump\t// in\n    tag_98:\n        /* \"tests/ConstantSumAutomatedMarket.sol\":2298:2323  uint d1 = bal1 - reserve1 */\n      swap1\n      pop\n        /* \"tests/ConstantSumAutomatedMarket.sol\":2614:2615  0 */\n      0x00\n        /* \"tests/ConstantSumAutomatedMarket.sol\":2599:2610  totalSupply */\n      sload(0x02)\n        /* \"tests/ConstantSumAutomatedMarket.sol\":2599:2615  totalSupply == 0 */\n      sub\n        /* \"tests/ConstantSumAutomatedMarket.sol\":2596:2751  if(totalSupply == 0) {... */\n      tag_99\n      jumpi\n        /* \"tests/ConstantSumAutomatedMarket.sol\":2646:2648  d1 */\n      dup1\n        /* \"tests/ConstantSumAutomatedMarket.sol\":2641:2643  d0 */\n      dup3\n        /* \"tests/ConstantSumAutomatedMarket.sol\":2641:2648  d0 + d1 */\n      tag_100\n      swap2\n      swap1\n      tag_101\n      jump\t// in\n    tag_100:\n        /* \"tests/ConstantSumAutomatedMarket.sol\":2632:2648  shares = d0 + d1 */\n      swap5\n      pop\n        /* \"tests/ConstantSumAutomatedMarket.sol\":2596:2751  if(totalSupply == 0) {... */\n      jump(tag_102)\n    tag_99:\n        /* \"tests/ConstantSumAutomatedMarket.sol\":2730:2738  reserve1 */\n      sload(0x01)\n        /* \"tests/ConstantSumAutomatedMarket.sol\":2719:2727  reserve0 */\n      sload(0x00)\n        /* \"tests/ConstantSumAutomatedMarket.sol\":2719:2738  reserve0 + reserve1 */\n      tag_103\n      swap2\n      swap1\n      tag_101\n      jump\t// in\n    tag_103:\n        /* \"tests/ConstantSumAutomatedMarket.sol\":2703:2714  totalSupply */\n      sload(0x02)\n        /* \"tests/ConstantSumAutomatedMarket.sol\":2697:2699  d1 */\n      dup3\n        /* \"tests/ConstantSumAutomatedMarket.sol\":2692:2694  d0 */\n      dup5\n        /* \"tests/ConstantSumAutomatedMarket.sol\":2692:2699  d0 + d1 */\n      tag_104\n      swap2\n      swap1\n      tag_101\n      jump\t// in\n    tag_104:\n        /* \"tests/ConstantSumAutomatedMarket.sol\":2691:2714  (d0 + d1) * totalSupply */\n      tag_105\n      swap2\n      swap1\n      tag_53\n      jump\t// in\n    tag_105:\n        /* \"tests/ConstantSumAutomatedMarket.sol\":2690:2739  ((d0 + d1) * totalSupply) / (reserve0 + reserve1) */\n      tag_106\n      swap2\n      swap1\n      tag_55\n      jump\t// in\n    tag_106:\n        /* \"tests/ConstantSumAutomatedMarket.sol\":2681:2739  shares = ((d0 + d1) * totalSupply) / (reserve0 + reserve1) */\n      swap5\n      pop\n        /* \"tests/ConstantSumAutomatedMarket.sol\":2596:2751  if(totalSupply == 0) {... */\n    tag_102:\n        /* \"tests/ConstantSumAutomatedMarket.sol\":2780:2781  0 */\n      0x00\n        /* \"tests/ConstantSumAutomatedMarket.sol\":2771:2777  shares */\n      dup6\n        /* \"tests/ConstantSumAutomatedMarket.sol\":2771:2781  shares > 0 */\n      gt\n        /* \"tests/ConstantSumAutomatedMarket.sol\":2763:2795  require(shares > 0, \"share = 0\") */\n      tag_107\n      jumpi\n      mload(0x40)\n      0x08c379a000000000000000000000000000000000000000000000000000000000\n      dup2\n      mstore\n      0x04\n      add\n      tag_108\n      swap1\n      tag_109\n      jump\t// in\n    tag_108:\n      mload(0x40)\n      dup1\n      swap2\n      sub\n      swap1\n      revert\n    tag_107:\n        /* \"tests/ConstantSumAutomatedMarket.sol\":2806:2831  _mint(msg.sender, shares) */\n      tag_110\n        /* \"tests/ConstantSumAutomatedMarket.sol\":2812:2822  msg.sender */\n      caller\n        /* \"tests/ConstantSumAutomatedMarket.sol\":2824:2830  shares */\n      dup7\n        /* \"tests/ConstantSumAutomatedMarket.sol\":2806:2811  _mint */\n      tag_111\n        /* \"tests/ConstantSumAutomatedMarket.sol\":2806:2831  _mint(msg.sender, shares) */\n      jump\t// in\n    tag_110:\n        /* \"tests/ConstantSumAutomatedMarket.sol\":2844:2863  _update(bal0, bal1) */\n      tag_112\n        /* \"tests/ConstantSumAutomatedMarket.sol\":2852:2856  bal0 */\n      dup5\n        /* \"tests/ConstantSumAutomatedMarket.sol\":2858:2862  bal1 */\n      dup5\n        /* \"tests/ConstantSumAutomatedMarket.sol\":2844:2851  _update */\n      tag_64\n        /* \"tests/ConstantSumAutomatedMarket.sol\":2844:2863  _update(bal0, bal1) */\n      jump\t// in\n    tag_112:\n        /* \"tests/ConstantSumAutomatedMarket.sol\":1997:2873  {... */\n      pop\n      pop\n      pop\n      pop\n        /* \"tests/ConstantSumAutomatedMarket.sol\":1915:2873  function addLiquidity(uint _amount0, uint _amount1) external returns(uint shares) {... */\n      swap3\n      swap2\n      pop\n      pop\n      jump\t// out\n        /* \"tests/ConstantSumAutomatedMarket.sol\":884:1909  function swap(address _tokenIn, uint _amountIn) external returns(uint amountOut) {... */\n    tag_46:\n        /* \"tests/ConstantSumAutomatedMarket.sol\":949:963  uint amountOut */\n      0x00\n        /* \"tests/ConstantSumAutomatedMarket.sol\":1018:1024  token0 */\n      immutable(\"0x845e9c18ca148a712f01bf14c91c3e2fe352eabe86c44817e3f33b63f585a343\")\n        /* \"tests/ConstantSumAutomatedMarket.sol\":998:1025  _tokenIn == address(token0) */\n      0xffffffffffffffffffffffffffffffffffffffff\n      and\n        /* \"tests/ConstantSumAutomatedMarket.sol\":998:1006  _tokenIn */\n      dup4\n        /* \"tests/ConstantSumAutomatedMarket.sol\":998:1025  _tokenIn == address(token0) */\n      0xffffffffffffffffffffffffffffffffffffffff\n      and\n      eq\n        /* \"tests/ConstantSumAutomatedMarket.sol\":998:1056  _tokenIn == address(token0) || _tokenIn == address(token1) */\n      dup1\n      tag_114\n      jumpi\n      pop\n        /* \"tests/ConstantSumAutomatedMarket.sol\":1049:1055  token1 */\n      immutable(\"0x04e57633024368235fc5219bfb9802814291d3a7b9a68d0aeb7bd3d297ac474e\")\n        /* \"tests/ConstantSumAutomatedMarket.sol\":1029:1056  _tokenIn == address(token1) */\n      0xffffffffffffffffffffffffffffffffffffffff\n      and\n        /* \"tests/ConstantSumAutomatedMarket.sol\":1029:1037  _tokenIn */\n      dup4\n        /* \"tests/ConstantSumAutomatedMarket.sol\":1029:1056  _tokenIn == address(token1) */\n      0xffffffffffffffffffffffffffffffffffffffff\n      and\n      eq\n        /* \"tests/ConstantSumAutomatedMarket.sol\":998:1056  _tokenIn == address(token0) || _tokenIn == address(token1) */\n    tag_114:\n        /* \"tests/ConstantSumAutomatedMarket.sol\":976:1097  require(... */\n      tag_115\n      jumpi\n      mload(0x40)\n      0x08c379a000000000000000000000000000000000000000000000000000000000\n      dup2\n      mstore\n      0x04\n      add\n      tag_116\n      swap1\n      tag_117\n      jump\t// in\n    tag_116:\n      mload(0x40)\n      dup1\n      swap2\n      sub\n      swap1\n      revert\n    tag_115:\n        /* \"tests/ConstantSumAutomatedMarket.sol\":1110:1123  bool isToken0 */\n      0x00\n        /* \"tests/ConstantSumAutomatedMarket.sol\":1146:1152  token0 */\n      immutable(\"0x845e9c18ca148a712f01bf14c91c3e2fe352eabe86c44817e3f33b63f585a343\")\n        /* \"tests/ConstantSumAutomatedMarket.sol\":1126:1153  _tokenIn == address(token0) */\n      0xffffffffffffffffffffffffffffffffffffffff\n      and\n        /* \"tests/ConstantSumAutomatedMarket.sol\":1126:1134  _tokenIn */\n      dup5\n        /* \"tests/ConstantSumAutomatedMarket.sol\":1126:1153  _tokenIn == address(token0) */\n      0xffffffffffffffffffffffffffffffffffffffff\n      and\n      eq\n        /* \"tests/ConstantSumAutomatedMarket.sol\":1110:1153  bool isToken0 = _tokenIn == address(token0) */\n      swap1\n      pop\n        /* \"tests/ConstantSumAutomatedMarket.sol\":1165:1179  IERC20 tokenIn */\n      0x00\n        /* \"tests/ConstantSumAutomatedMarket.sol\":1181:1196  IERC20 tokenOut */\n      dup1\n        /* \"tests/ConstantSumAutomatedMarket.sol\":1198:1208  uint resIn */\n      0x00\n        /* \"tests/ConstantSumAutomatedMarket.sol\":1210:1221  uint resOut */\n      dup1\n        /* \"tests/ConstantSumAutomatedMarket.sol\":1234:1242  isToken0 */\n      dup5\n        /* \"tests/ConstantSumAutomatedMarket.sol\":1234:1320  isToken0 ? (token0, token1, reserve0, reserve1) : (token1, token0, reserve1, reserve0) */\n      tag_118\n      jumpi\n        /* \"tests/ConstantSumAutomatedMarket.sol\":1285:1291  token1 */\n      immutable(\"0x04e57633024368235fc5219bfb9802814291d3a7b9a68d0aeb7bd3d297ac474e\")\n        /* \"tests/ConstantSumAutomatedMarket.sol\":1293:1299  token0 */\n      immutable(\"0x845e9c18ca148a712f01bf14c91c3e2fe352eabe86c44817e3f33b63f585a343\")\n        /* \"tests/ConstantSumAutomatedMarket.sol\":1301:1309  reserve1 */\n      sload(0x01)\n        /* \"tests/ConstantSumAutomatedMarket.sol\":1311:1319  reserve0 */\n      sload(0x00)\n        /* \"tests/ConstantSumAutomatedMarket.sol\":1234:1320  isToken0 ? (token0, token1, reserve0, reserve1) : (token1, token0, reserve1, reserve0) */\n      jump(tag_119)\n    tag_118:\n        /* \"tests/ConstantSumAutomatedMarket.sol\":1246:1252  token0 */\n      immutable(\"0x845e9c18ca148a712f01bf14c91c3e2fe352eabe86c44817e3f33b63f585a343\")\n        /* \"tests/ConstantSumAutomatedMarket.sol\":1254:1260  token1 */\n      immutable(\"0x04e57633024368235fc5219bfb9802814291d3a7b9a68d0aeb7bd3d297ac474e\")\n        /* \"tests/ConstantSumAutomatedMarket.sol\":1262:1270  reserve0 */\n      sload(0x00)\n        /* \"tests/ConstantSumAutomatedMarket.sol\":1272:1280  reserve1 */\n      sload(0x01)\n        /* \"tests/ConstantSumAutomatedMarket.sol\":1234:1320  isToken0 ? (token0, token1, reserve0, reserve1) : (token1, token0, reserve1, reserve0) */\n    tag_119:\n        /* \"tests/ConstantSumAutomatedMarket.sol\":1164:1320  (IERC20 tokenIn, IERC20 tokenOut, uint resIn, uint resOut) =... */\n      swap4\n      pop\n      swap4\n      pop\n      swap4\n      pop\n      swap4\n      pop\n        /* \"tests/ConstantSumAutomatedMarket.sol\":1367:1374  tokenIn */\n      dup4\n        /* \"tests/ConstantSumAutomatedMarket.sol\":1367:1387  tokenIn.transferFrom */\n      0xffffffffffffffffffffffffffffffffffffffff\n      and\n      0x23b872dd\n        /* \"tests/ConstantSumAutomatedMarket.sol\":1388:1398  msg.sender */\n      caller\n        /* \"tests/ConstantSumAutomatedMarket.sol\":1408:1412  this */\n      address\n        /* \"tests/ConstantSumAutomatedMarket.sol\":1415:1424  _amountIn */\n      dup11\n        /* \"tests/ConstantSumAutomatedMarket.sol\":1367:1425  tokenIn.transferFrom(msg.sender, address(this), _amountIn) */\n      mload(0x40)\n      dup5\n      0xffffffff\n      and\n      0xe0\n      shl\n      dup2\n      mstore\n      0x04\n      add\n      tag_120\n      swap4\n      swap3\n      swap2\n      swap1\n      tag_79\n      jump\t// in\n    tag_120:\n      0x20\n      mload(0x40)\n      dup1\n      dup4\n      sub\n      dup2\n      0x00\n      dup8\n      gas\n      call\n      iszero\n      dup1\n      iszero\n      tag_122\n      jumpi\n      returndatasize\n      0x00\n      dup1\n      returndatacopy\n      revert(0x00, returndatasize)\n    tag_122:\n      pop\n      pop\n      pop\n      pop\n      mload(0x40)\n      returndatasize\n      not(0x1f)\n      0x1f\n      dup3\n      add\n      and\n      dup3\n      add\n      dup1\n      0x40\n      mstore\n      pop\n      dup2\n      add\n      swap1\n      tag_123\n      swap2\n      swap1\n      tag_71\n      jump\t// in\n    tag_123:\n      pop\n        /* \"tests/ConstantSumAutomatedMarket.sol\":1436:1449  uint amountIn */\n      0x00\n        /* \"tests/ConstantSumAutomatedMarket.sol\":1487:1492  resIn */\n      dup3\n        /* \"tests/ConstantSumAutomatedMarket.sol\":1452:1459  tokenIn */\n      dup6\n        /* \"tests/ConstantSumAutomatedMarket.sol\":1452:1469  tokenIn.balanceOf */\n      0xffffffffffffffffffffffffffffffffffffffff\n      and\n      0x70a08231\n        /* \"tests/ConstantSumAutomatedMarket.sol\":1478:1482  this */\n      address\n        /* \"tests/ConstantSumAutomatedMarket.sol\":1452:1484  tokenIn.balanceOf(address(this)) */\n      mload(0x40)\n      dup3\n      0xffffffff\n      and\n      0xe0\n      shl\n      dup2\n      mstore\n      0x04\n      add\n      tag_124\n      swap2\n      swap1\n      tag_88\n      jump\t// in\n    tag_124:\n      0x20\n      mload(0x40)\n      dup1\n      dup4\n      sub\n      dup2\n      dup7\n      gas\n      staticcall\n      iszero\n      dup1\n      iszero\n      tag_126\n      jumpi\n      returndatasize\n      0x00\n      dup1\n      returndatacopy\n      revert(0x00, returndatasize)\n    tag_126:\n      pop\n      pop\n      pop\n      pop\n      mload(0x40)\n      returndatasize\n      not(0x1f)\n      0x1f\n      dup3\n      add\n      and\n      dup3\n      add\n      dup1\n      0x40\n      mstore\n      pop\n      dup2\n      add\n      swap1\n      tag_127\n      swap2\n      swap1\n      tag_92\n      jump\t// in\n    tag_127:\n        /* \"tests/ConstantSumAutomatedMarket.sol\":1452:1492  tokenIn.balanceOf(address(this)) - resIn */\n      tag_128\n      swap2\n      swap1\n      tag_62\n      jump\t// in\n    tag_128:\n        /* \"tests/ConstantSumAutomatedMarket.sol\":1436:1492  uint amountIn = tokenIn.balanceOf(address(this)) - resIn */\n      swap1\n      pop\n        /* \"tests/ConstantSumAutomatedMarket.sol\":1617:1621  1000 */\n      0x03e8\n        /* \"tests/ConstantSumAutomatedMarket.sol\":1610:1613  997 */\n      0x03e5\n        /* \"tests/ConstantSumAutomatedMarket.sol\":1599:1607  amountIn */\n      dup3\n        /* \"tests/ConstantSumAutomatedMarket.sol\":1599:1613  amountIn * 997 */\n      tag_129\n      swap2\n      swap1\n      tag_53\n      jump\t// in\n    tag_129:\n        /* \"tests/ConstantSumAutomatedMarket.sol\":1598:1621  (amountIn * 997) / 1000 */\n      tag_130\n      swap2\n      swap1\n      tag_55\n      jump\t// in\n    tag_130:\n        /* \"tests/ConstantSumAutomatedMarket.sol\":1586:1621  amountOut = (amountIn * 997) / 1000 */\n      swap7\n      pop\n        /* \"tests/ConstantSumAutomatedMarket.sol\":1674:1683  uint res0 */\n      0x00\n        /* \"tests/ConstantSumAutomatedMarket.sol\":1685:1694  uint res1 */\n      dup1\n        /* \"tests/ConstantSumAutomatedMarket.sol\":1698:1706  isToken0 */\n      dup8\n        /* \"tests/ConstantSumAutomatedMarket.sol\":1698:1789  isToken0 ? (resIn + _amountIn, resOut - amountOut) : (resIn -amountOut, resOut + _amountIn) */\n      tag_131\n      jumpi\n        /* \"tests/ConstantSumAutomatedMarket.sol\":1759:1768  amountOut */\n      dup9\n        /* \"tests/ConstantSumAutomatedMarket.sol\":1752:1757  resIn */\n      dup6\n        /* \"tests/ConstantSumAutomatedMarket.sol\":1752:1768  resIn -amountOut */\n      tag_132\n      swap2\n      swap1\n      tag_62\n      jump\t// in\n    tag_132:\n        /* \"tests/ConstantSumAutomatedMarket.sol\":1779:1788  _amountIn */\n      dup11\n        /* \"tests/ConstantSumAutomatedMarket.sol\":1770:1776  resOut */\n      dup6\n        /* \"tests/ConstantSumAutomatedMarket.sol\":1770:1788  resOut + _amountIn */\n      tag_133\n      swap2\n      swap1\n      tag_101\n      jump\t// in\n    tag_133:\n        /* \"tests/ConstantSumAutomatedMarket.sol\":1698:1789  isToken0 ? (resIn + _amountIn, resOut - amountOut) : (resIn -amountOut, resOut + _amountIn) */\n      jump(tag_134)\n    tag_131:\n        /* \"tests/ConstantSumAutomatedMarket.sol\":1718:1727  _amountIn */\n      dup10\n        /* \"tests/ConstantSumAutomatedMarket.sol\":1710:1715  resIn */\n      dup6\n        /* \"tests/ConstantSumAutomatedMarket.sol\":1710:1727  resIn + _amountIn */\n      tag_135\n      swap2\n      swap1\n      tag_101\n      jump\t// in\n    tag_135:\n        /* \"tests/ConstantSumAutomatedMarket.sol\":1738:1747  amountOut */\n      dup10\n        /* \"tests/ConstantSumAutomatedMarket.sol\":1729:1735  resOut */\n      dup6\n        /* \"tests/ConstantSumAutomatedMarket.sol\":1729:1747  resOut - amountOut */\n      tag_136\n      swap2\n      swap1\n      tag_62\n      jump\t// in\n    tag_136:\n        /* \"tests/ConstantSumAutomatedMarket.sol\":1698:1789  isToken0 ? (resIn + _amountIn, resOut - amountOut) : (resIn -amountOut, resOut + _amountIn) */\n    tag_134:\n        /* \"tests/ConstantSumAutomatedMarket.sol\":1673:1789  (uint res0, uint res1) = isToken0 ? (resIn + _amountIn, resOut - amountOut) : (resIn -amountOut, resOut + _amountIn) */\n      swap2\n      pop\n      swap2\n      pop\n        /* \"tests/ConstantSumAutomatedMarket.sol\":1800:1819  _update(res0, res1) */\n      tag_137\n        /* \"tests/ConstantSumAutomatedMarket.sol\":1808:1812  res0 */\n      dup3\n        /* \"tests/ConstantSumAutomatedMarket.sol\":1814:1818  res1 */\n      dup3\n        /* \"tests/ConstantSumAutomatedMarket.sol\":1800:1807  _update */\n      tag_64\n        /* \"tests/ConstantSumAutomatedMarket.sol\":1800:1819  _update(res0, res1) */\n      jump\t// in\n    tag_137:\n        /* \"tests/ConstantSumAutomatedMarket.sol\":1861:1869  tokenOut */\n      dup6\n        /* \"tests/ConstantSumAutomatedMarket.sol\":1861:1878  tokenOut.transfer */\n      0xffffffffffffffffffffffffffffffffffffffff\n      and\n      0xa9059cbb\n        /* \"tests/ConstantSumAutomatedMarket.sol\":1879:1889  msg.sender */\n      caller\n        /* \"tests/ConstantSumAutomatedMarket.sol\":1891:1900  amountOut */\n      dup12\n        /* \"tests/ConstantSumAutomatedMarket.sol\":1861:1901  tokenOut.transfer(msg.sender, amountOut) */\n      mload(0x40)\n      dup4\n      0xffffffff\n      and\n      0xe0\n      shl\n      dup2\n      mstore\n      0x04\n      add\n      tag_138\n      swap3\n      swap2\n      swap1\n      tag_67\n      jump\t// in\n    tag_138:\n      0x20\n      mload(0x40)\n      dup1\n      dup4\n      sub\n      dup2\n      0x00\n      dup8\n      gas\n      call\n      iszero\n      dup1\n      iszero\n      tag_140\n      jumpi\n      returndatasize\n      0x00\n      dup1\n      returndatacopy\n      revert(0x00, returndatasize)\n    tag_140:\n      pop\n      pop\n      pop\n      pop\n      mload(0x40)\n      returndatasize\n      not(0x1f)\n      0x1f\n      dup3\n      add\n      and\n      dup3\n      add\n      dup1\n      0x40\n      mstore\n      pop\n      dup2\n      add\n      swap1\n      tag_141\n      swap2\n      swap1\n      tag_71\n      jump\t// in\n    tag_141:\n      pop\n        /* \"tests/ConstantSumAutomatedMarket.sol\":965:1909  {... */\n      pop\n      pop\n      pop\n      pop\n      pop\n      pop\n      pop\n      pop\n        /* \"tests/ConstantSumAutomatedMarket.sol\":884:1909  function swap(address _tokenIn, uint _amountIn) external returns(uint amountOut) {... */\n      swap3\n      swap2\n      pop\n      pop\n      jump\t// out\n        /* \"tests/ConstantSumAutomatedMarket.sol\":182:212  IERC20 public immutable token1 */\n    tag_49:\n      immutable(\"0x04e57633024368235fc5219bfb9802814291d3a7b9a68d0aeb7bd3d297ac474e\")\n      dup2\n      jump\t// out\n        /* \"tests/ConstantSumAutomatedMarket.sol\":625:756  function _burn(address _from, uint _amount) private {... */\n    tag_59:\n        /* \"tests/ConstantSumAutomatedMarket.sol\":708:715  _amount */\n      dup1\n        /* \"tests/ConstantSumAutomatedMarket.sol\":688:697  balanceOf */\n      0x03\n        /* \"tests/ConstantSumAutomatedMarket.sol\":688:704  balanceOf[_from] */\n      0x00\n        /* \"tests/ConstantSumAutomatedMarket.sol\":698:703  _from */\n      dup5\n        /* \"tests/ConstantSumAutomatedMarket.sol\":688:704  balanceOf[_from] */\n      0xffffffffffffffffffffffffffffffffffffffff\n      and\n      0xffffffffffffffffffffffffffffffffffffffff\n      and\n      dup2\n      mstore\n      0x20\n      add\n      swap1\n      dup2\n      mstore\n      0x20\n      add\n      0x00\n      keccak256\n      0x00\n        /* \"tests/ConstantSumAutomatedMarket.sol\":688:715  balanceOf[_from] -= _amount */\n      dup3\n      dup3\n      sload\n      tag_143\n      swap2\n      swap1\n      tag_62\n      jump\t// in\n    tag_143:\n      swap3\n      pop\n      pop\n      dup2\n      swap1\n      sstore\n      pop\n        /* \"tests/ConstantSumAutomatedMarket.sol\":741:748  _amount */\n      dup1\n        /* \"tests/ConstantSumAutomatedMarket.sol\":726:737  totalSupply */\n      0x02\n      0x00\n        /* \"tests/ConstantSumAutomatedMarket.sol\":726:748  totalSupply -= _amount */\n      dup3\n      dup3\n      sload\n      tag_144\n      swap2\n      swap1\n      tag_62\n      jump\t// in\n    tag_144:\n      swap3\n      pop\n      pop\n      dup2\n      swap1\n      sstore\n      pop\n        /* \"tests/ConstantSumAutomatedMarket.sol\":625:756  function _burn(address _from, uint _amount) private {... */\n      pop\n      pop\n      jump\t// out\n        /* \"tests/ConstantSumAutomatedMarket.sol\":764:876  function _update(uint _res0, uint  _res1) private {... */\n    tag_64:\n        /* \"tests/ConstantSumAutomatedMarket.sol\":836:841  _res0 */\n      dup2\n        /* \"tests/ConstantSumAutomatedMarket.sol\":825:833  reserve0 */\n      0x00\n        /* \"tests/ConstantSumAutomatedMarket.sol\":825:841  reserve0 = _res0 */\n      dup2\n      swap1\n      sstore\n      pop\n        /* \"tests/ConstantSumAutomatedMarket.sol\":863:868  _res1 */\n      dup1\n        /* \"tests/ConstantSumAutomatedMarket.sol\":852:860  reserve1 */\n      0x01\n        /* \"tests/ConstantSumAutomatedMarket.sol\":852:868  reserve1 = _res1 */\n      dup2\n      swap1\n      sstore\n      pop\n        /* \"tests/ConstantSumAutomatedMarket.sol\":764:876  function _update(uint _res0, uint  _res1) private {... */\n      pop\n      pop\n      jump\t// out\n        /* \"tests/ConstantSumAutomatedMarket.sol\":490:617  function _mint(address _to, uint _amount) private {... */\n    tag_111:\n        /* \"tests/ConstantSumAutomatedMarket.sol\":569:576  _amount */\n      dup1\n        /* \"tests/ConstantSumAutomatedMarket.sol\":551:560  balanceOf */\n      0x03\n        /* \"tests/ConstantSumAutomatedMarket.sol\":551:565  balanceOf[_to] */\n      0x00\n        /* \"tests/ConstantSumAutomatedMarket.sol\":561:564  _to */\n      dup5\n        /* \"tests/ConstantSumAutomatedMarket.sol\":551:565  balanceOf[_to] */\n      0xffffffffffffffffffffffffffffffffffffffff\n      and\n      0xffffffffffffffffffffffffffffffffffffffff\n      and\n      dup2\n      mstore\n      0x20\n      add\n      swap1\n      dup2\n      mstore\n      0x20\n      add\n      0x00\n      keccak256\n      0x00\n        /* \"tests/ConstantSumAutomatedMarket.sol\":551:576  balanceOf[_to] += _amount */\n      dup3\n      dup3\n      sload\n      tag_147\n      swap2\n      swap1\n      tag_101\n      jump\t// in\n    tag_147:\n      swap3\n      pop\n      pop\n      dup2\n      swap1\n      sstore\n      pop\n        /* \"tests/ConstantSumAutomatedMarket.sol\":602:609  _amount */\n      dup1\n        /* \"tests/ConstantSumAutomatedMarket.sol\":587:598  totalSupply */\n      0x02\n      0x00\n        /* \"tests/ConstantSumAutomatedMarket.sol\":587:609  totalSupply += _amount */\n      dup3\n      dup3\n      sload\n      tag_148\n      swap2\n      swap1\n      tag_101\n      jump\t// in\n    tag_148:\n      swap3\n      pop\n      pop\n      dup2\n      swap1\n      sstore\n      pop\n        /* \"tests/ConstantSumAutomatedMarket.sol\":490:617  function _mint(address _to, uint _amount) private {... */\n      pop\n      pop\n      jump\t// out\n        /* \"#utility.yul\":7:133   */\n    tag_149:\n        /* \"#utility.yul\":44:51   */\n      0x00\n        /* \"#utility.yul\":84:126   */\n      0xffffffffffffffffffffffffffffffffffffffff\n        /* \"#utility.yul\":77:82   */\n      dup3\n        /* \"#utility.yul\":73:127   */\n      and\n        /* \"#utility.yul\":62:127   */\n      swap1\n      pop\n        /* \"#utility.yul\":7:133   */\n      swap2\n      swap1\n      pop\n      jump\t// out\n        /* \"#utility.yul\":139:199   */\n    tag_150:\n        /* \"#utility.yul\":167:170   */\n      0x00\n        /* \"#utility.yul\":188:193   */\n      dup2\n        /* \"#utility.yul\":181:193   */\n      swap1\n      pop\n        /* \"#utility.yul\":139:199   */\n      swap2\n      swap1\n      pop\n      jump\t// out\n        /* \"#utility.yul\":205:347   */\n    tag_151:\n        /* \"#utility.yul\":255:264   */\n      0x00\n        /* \"#utility.yul\":288:341   */\n      tag_181\n        /* \"#utility.yul\":306:340   */\n      tag_182\n        /* \"#utility.yul\":315:339   */\n      tag_183\n        /* \"#utility.yul\":333:338   */\n      dup5\n        /* \"#utility.yul\":315:339   */\n      tag_149\n      jump\t// in\n    tag_183:\n        /* \"#utility.yul\":306:340   */\n      tag_150\n      jump\t// in\n    tag_182:\n        /* \"#utility.yul\":288:341   */\n      tag_149\n      jump\t// in\n    tag_181:\n        /* \"#utility.yul\":275:341   */\n      swap1\n      pop\n        /* \"#utility.yul\":205:347   */\n      swap2\n      swap1\n      pop\n      jump\t// out\n        /* \"#utility.yul\":353:479   */\n    tag_152:\n        /* \"#utility.yul\":403:412   */\n      0x00\n        /* \"#utility.yul\":436:473   */\n      tag_185\n        /* \"#utility.yul\":467:472   */\n      dup3\n        /* \"#utility.yul\":436:473   */\n      tag_151\n      jump\t// in\n    tag_185:\n        /* \"#utility.yul\":423:473   */\n      swap1\n      pop\n        /* \"#utility.yul\":353:479   */\n      swap2\n      swap1\n      pop\n      jump\t// out\n        /* \"#utility.yul\":485:624   */\n    tag_153:\n        /* \"#utility.yul\":548:557   */\n      0x00\n        /* \"#utility.yul\":581:618   */\n      tag_187\n        /* \"#utility.yul\":612:617   */\n      dup3\n        /* \"#utility.yul\":581:618   */\n      tag_152\n      jump\t// in\n    tag_187:\n        /* \"#utility.yul\":568:618   */\n      swap1\n      pop\n        /* \"#utility.yul\":485:624   */\n      swap2\n      swap1\n      pop\n      jump\t// out\n        /* \"#utility.yul\":630:787   */\n    tag_154:\n        /* \"#utility.yul\":730:780   */\n      tag_189\n        /* \"#utility.yul\":774:779   */\n      dup2\n        /* \"#utility.yul\":730:780   */\n      tag_153\n      jump\t// in\n    tag_189:\n        /* \"#utility.yul\":725:728   */\n      dup3\n        /* \"#utility.yul\":718:781   */\n      mstore\n        /* \"#utility.yul\":630:787   */\n      pop\n      pop\n      jump\t// out\n        /* \"#utility.yul\":793:1041   */\n    tag_16:\n        /* \"#utility.yul\":899:903   */\n      0x00\n        /* \"#utility.yul\":937:939   */\n      0x20\n        /* \"#utility.yul\":926:935   */\n      dup3\n        /* \"#utility.yul\":922:940   */\n      add\n        /* \"#utility.yul\":914:940   */\n      swap1\n      pop\n        /* \"#utility.yul\":950:1034   */\n      tag_191\n        /* \"#utility.yul\":1031:1032   */\n      0x00\n        /* \"#utility.yul\":1020:1029   */\n      dup4\n        /* \"#utility.yul\":1016:1033   */\n      add\n        /* \"#utility.yul\":1007:1013   */\n      dup5\n        /* \"#utility.yul\":950:1034   */\n      tag_154\n      jump\t// in\n    tag_191:\n        /* \"#utility.yul\":793:1041   */\n      swap3\n      swap2\n      pop\n      pop\n      jump\t// out\n        /* \"#utility.yul\":1047:1124   */\n    tag_155:\n        /* \"#utility.yul\":1084:1091   */\n      0x00\n        /* \"#utility.yul\":1113:1118   */\n      dup2\n        /* \"#utility.yul\":1102:1118   */\n      swap1\n      pop\n        /* \"#utility.yul\":1047:1124   */\n      swap2\n      swap1\n      pop\n      jump\t// out\n        /* \"#utility.yul\":1130:1248   */\n    tag_156:\n        /* \"#utility.yul\":1217:1241   */\n      tag_194\n        /* \"#utility.yul\":1235:1240   */\n      dup2\n        /* \"#utility.yul\":1217:1241   */\n      tag_155\n      jump\t// in\n    tag_194:\n        /* \"#utility.yul\":1212:1215   */\n      dup3\n        /* \"#utility.yul\":1205:1242   */\n      mstore\n        /* \"#utility.yul\":1130:1248   */\n      pop\n      pop\n      jump\t// out\n        /* \"#utility.yul\":1254:1476   */\n    tag_20:\n        /* \"#utility.yul\":1347:1351   */\n      0x00\n        /* \"#utility.yul\":1385:1387   */\n      0x20\n        /* \"#utility.yul\":1374:1383   */\n      dup3\n        /* \"#utility.yul\":1370:1388   */\n      add\n        /* \"#utility.yul\":1362:1388   */\n      swap1\n      pop\n        /* \"#utility.yul\":1398:1469   */\n      tag_196\n        /* \"#utility.yul\":1466:1467   */\n      0x00\n        /* \"#utility.yul\":1455:1464   */\n      dup4\n        /* \"#utility.yul\":1451:1468   */\n      add\n        /* \"#utility.yul\":1442:1448   */\n      dup5\n        /* \"#utility.yul\":1398:1469   */\n      tag_156\n      jump\t// in\n    tag_196:\n        /* \"#utility.yul\":1254:1476   */\n      swap3\n      swap2\n      pop\n      pop\n      jump\t// out\n        /* \"#utility.yul\":1563:1680   */\n    tag_158:\n        /* \"#utility.yul\":1672:1673   */\n      0x00\n        /* \"#utility.yul\":1669:1670   */\n      dup1\n        /* \"#utility.yul\":1662:1674   */\n      revert\n        /* \"#utility.yul\":1809:1905   */\n    tag_160:\n        /* \"#utility.yul\":1846:1853   */\n      0x00\n        /* \"#utility.yul\":1875:1899   */\n      tag_201\n        /* \"#utility.yul\":1893:1898   */\n      dup3\n        /* \"#utility.yul\":1875:1899   */\n      tag_149\n      jump\t// in\n    tag_201:\n        /* \"#utility.yul\":1864:1899   */\n      swap1\n      pop\n        /* \"#utility.yul\":1809:1905   */\n      swap2\n      swap1\n      pop\n      jump\t// out\n        /* \"#utility.yul\":1911:2033   */\n    tag_161:\n        /* \"#utility.yul\":1984:2008   */\n      tag_203\n        /* \"#utility.yul\":2002:2007   */\n      dup2\n        /* \"#utility.yul\":1984:2008   */\n      tag_160\n      jump\t// in\n    tag_203:\n        /* \"#utility.yul\":1977:1982   */\n      dup2\n        /* \"#utility.yul\":1974:2009   */\n      eq\n        /* \"#utility.yul\":1964:2027   */\n      tag_204\n      jumpi\n        /* \"#utility.yul\":2023:2024   */\n      0x00\n        /* \"#utility.yul\":2020:2021   */\n      dup1\n        /* \"#utility.yul\":2013:2025   */\n      revert\n        /* \"#utility.yul\":1964:2027   */\n    tag_204:\n        /* \"#utility.yul\":1911:2033   */\n      pop\n      jump\t// out\n        /* \"#utility.yul\":2039:2178   */\n    tag_162:\n        /* \"#utility.yul\":2085:2090   */\n      0x00\n        /* \"#utility.yul\":2123:2129   */\n      dup2\n        /* \"#utility.yul\":2110:2130   */\n      calldataload\n        /* \"#utility.yul\":2101:2130   */\n      swap1\n      pop\n        /* \"#utility.yul\":2139:2172   */\n      tag_206\n        /* \"#utility.yul\":2166:2171   */\n      dup2\n        /* \"#utility.yul\":2139:2172   */\n      tag_161\n      jump\t// in\n    tag_206:\n        /* \"#utility.yul\":2039:2178   */\n      swap3\n      swap2\n      pop\n      pop\n      jump\t// out\n        /* \"#utility.yul\":2184:2513   */\n    tag_29:\n        /* \"#utility.yul\":2243:2249   */\n      0x00\n        /* \"#utility.yul\":2292:2294   */\n      0x20\n        /* \"#utility.yul\":2280:2289   */\n      dup3\n        /* \"#utility.yul\":2271:2278   */\n      dup5\n        /* \"#utility.yul\":2267:2290   */\n      sub\n        /* \"#utility.yul\":2263:2295   */\n      slt\n        /* \"#utility.yul\":2260:2379   */\n      iszero\n      tag_208\n      jumpi\n        /* \"#utility.yul\":2298:2377   */\n      tag_209\n      tag_158\n      jump\t// in\n    tag_209:\n        /* \"#utility.yul\":2260:2379   */\n    tag_208:\n        /* \"#utility.yul\":2418:2419   */\n      0x00\n        /* \"#utility.yul\":2443:2496   */\n      tag_210\n        /* \"#utility.yul\":2488:2495   */\n      dup5\n        /* \"#utility.yul\":2479:2485   */\n      dup3\n        /* \"#utility.yul\":2468:2477   */\n      dup6\n        /* \"#utility.yul\":2464:2486   */\n      add\n        /* \"#utility.yul\":2443:2496   */\n      tag_162\n      jump\t// in\n    tag_210:\n        /* \"#utility.yul\":2433:2496   */\n      swap2\n      pop\n        /* \"#utility.yul\":2389:2506   */\n      pop\n        /* \"#utility.yul\":2184:2513   */\n      swap3\n      swap2\n      pop\n      pop\n      jump\t// out\n        /* \"#utility.yul\":2519:2641   */\n    tag_163:\n        /* \"#utility.yul\":2592:2616   */\n      tag_212\n        /* \"#utility.yul\":2610:2615   */\n      dup2\n        /* \"#utility.yul\":2592:2616   */\n      tag_155\n      jump\t// in\n    tag_212:\n        /* \"#utility.yul\":2585:2590   */\n      dup2\n        /* \"#utility.yul\":2582:2617   */\n      eq\n        /* \"#utility.yul\":2572:2635   */\n      tag_213\n      jumpi\n        /* \"#utility.yul\":2631:2632   */\n      0x00\n        /* \"#utility.yul\":2628:2629   */\n      dup1\n        /* \"#utility.yul\":2621:2633   */\n      revert\n        /* \"#utility.yul\":2572:2635   */\n    tag_213:\n        /* \"#utility.yul\":2519:2641   */\n      pop\n      jump\t// out\n        /* \"#utility.yul\":2647:2786   */\n    tag_164:\n        /* \"#utility.yul\":2693:2698   */\n      0x00\n        /* \"#utility.yul\":2731:2737   */\n      dup2\n        /* \"#utility.yul\":2718:2738   */\n      calldataload\n        /* \"#utility.yul\":2709:2738   */\n      swap1\n      pop\n        /* \"#utility.yul\":2747:2780   */\n      tag_215\n        /* \"#utility.yul\":2774:2779   */\n      dup2\n        /* \"#utility.yul\":2747:2780   */\n      tag_163\n      jump\t// in\n    tag_215:\n        /* \"#utility.yul\":2647:2786   */\n      swap3\n      swap2\n      pop\n      pop\n      jump\t// out\n        /* \"#utility.yul\":2792:3121   */\n    tag_34:\n        /* \"#utility.yul\":2851:2857   */\n      0x00\n        /* \"#utility.yul\":2900:2902   */\n      0x20\n        /* \"#utility.yul\":2888:2897   */\n      dup3\n        /* \"#utility.yul\":2879:2886   */\n      dup5\n        /* \"#utility.yul\":2875:2898   */\n      sub\n        /* \"#utility.yul\":2871:2903   */\n      slt\n        /* \"#utility.yul\":2868:2987   */\n      iszero\n      tag_217\n      jumpi\n        /* \"#utility.yul\":2906:2985   */\n      tag_218\n      tag_158\n      jump\t// in\n    tag_218:\n        /* \"#utility.yul\":2868:2987   */\n    tag_217:\n        /* \"#utility.yul\":3026:3027   */\n      0x00\n        /* \"#utility.yul\":3051:3104   */\n      tag_219\n        /* \"#utility.yul\":3096:3103   */\n      dup5\n        /* \"#utility.yul\":3087:3093   */\n      dup3\n        /* \"#utility.yul\":3076:3085   */\n      dup6\n        /* \"#utility.yul\":3072:3094   */\n      add\n        /* \"#utility.yul\":3051:3104   */\n      tag_164\n      jump\t// in\n    tag_219:\n        /* \"#utility.yul\":3041:3104   */\n      swap2\n      pop\n        /* \"#utility.yul\":2997:3114   */\n      pop\n        /* \"#utility.yul\":2792:3121   */\n      swap3\n      swap2\n      pop\n      pop\n      jump\t// out\n        /* \"#utility.yul\":3127:3459   */\n    tag_37:\n        /* \"#utility.yul\":3248:3252   */\n      0x00\n        /* \"#utility.yul\":3286:3288   */\n      0x40\n        /* \"#utility.yul\":3275:3284   */\n      dup3\n        /* \"#utility.yul\":3271:3289   */\n      add\n        /* \"#utility.yul\":3263:3289   */\n      swap1\n      pop\n        /* \"#utility.yul\":3299:3370   */\n      tag_221\n        /* \"#utility.yul\":3367:3368   */\n      0x00\n        /* \"#utility.yul\":3356:3365   */\n      dup4\n        /* \"#utility.yul\":3352:3369   */\n      add\n        /* \"#utility.yul\":3343:3349   */\n      dup6\n        /* \"#utility.yul\":3299:3370   */\n      tag_156\n      jump\t// in\n    tag_221:\n        /* \"#utility.yul\":3380:3452   */\n      tag_222\n        /* \"#utility.yul\":3448:3450   */\n      0x20\n        /* \"#utility.yul\":3437:3446   */\n      dup4\n        /* \"#utility.yul\":3433:3451   */\n      add\n        /* \"#utility.yul\":3424:3430   */\n      dup5\n        /* \"#utility.yul\":3380:3452   */\n      tag_156\n      jump\t// in\n    tag_222:\n        /* \"#utility.yul\":3127:3459   */\n      swap4\n      swap3\n      pop\n      pop\n      pop\n      jump\t// out\n        /* \"#utility.yul\":3465:3939   */\n    tag_40:\n        /* \"#utility.yul\":3533:3539   */\n      0x00\n        /* \"#utility.yul\":3541:3547   */\n      dup1\n        /* \"#utility.yul\":3590:3592   */\n      0x40\n        /* \"#utility.yul\":3578:3587   */\n      dup4\n        /* \"#utility.yul\":3569:3576   */\n      dup6\n        /* \"#utility.yul\":3565:3588   */\n      sub\n        /* \"#utility.yul\":3561:3593   */\n      slt\n        /* \"#utility.yul\":3558:3677   */\n      iszero\n      tag_224\n      jumpi\n        /* \"#utility.yul\":3596:3675   */\n      tag_225\n      tag_158\n      jump\t// in\n    tag_225:\n        /* \"#utility.yul\":3558:3677   */\n    tag_224:\n        /* \"#utility.yul\":3716:3717   */\n      0x00\n        /* \"#utility.yul\":3741:3794   */\n      tag_226\n        /* \"#utility.yul\":3786:3793   */\n      dup6\n        /* \"#utility.yul\":3777:3783   */\n      dup3\n        /* \"#utility.yul\":3766:3775   */\n      dup7\n        /* \"#utility.yul\":3762:3784   */\n      add\n        /* \"#utility.yul\":3741:3794   */\n      tag_164\n      jump\t// in\n    tag_226:\n        /* \"#utility.yul\":3731:3794   */\n      swap3\n      pop\n        /* \"#utility.yul\":3687:3804   */\n      pop\n        /* \"#utility.yul\":3843:3845   */\n      0x20\n        /* \"#utility.yul\":3869:3922   */\n      tag_227\n        /* \"#utility.yul\":3914:3921   */\n      dup6\n        /* \"#utility.yul\":3905:3911   */\n      dup3\n        /* \"#utility.yul\":3894:3903   */\n      dup7\n        /* \"#utility.yul\":3890:3912   */\n      add\n        /* \"#utility.yul\":3869:3922   */\n      tag_164\n      jump\t// in\n    tag_227:\n        /* \"#utility.yul\":3859:3922   */\n      swap2\n      pop\n        /* \"#utility.yul\":3814:3932   */\n      pop\n        /* \"#utility.yul\":3465:3939   */\n      swap3\n      pop\n      swap3\n      swap1\n      pop\n      jump\t// out\n        /* \"#utility.yul\":3945:4419   */\n    tag_45:\n        /* \"#utility.yul\":4013:4019   */\n      0x00\n        /* \"#utility.yul\":4021:4027   */\n      dup1\n        /* \"#utility.yul\":4070:4072   */\n      0x40\n        /* \"#utility.yul\":4058:4067   */\n      dup4\n        /* \"#utility.yul\":4049:4056   */\n      dup6\n        /* \"#utility.yul\":4045:4068   */\n      sub\n        /* \"#utility.yul\":4041:4073   */\n      slt\n        /* \"#utility.yul\":4038:4157   */\n      iszero\n      tag_229\n      jumpi\n        /* \"#utility.yul\":4076:4155   */\n      tag_230\n      tag_158\n      jump\t// in\n    tag_230:\n        /* \"#utility.yul\":4038:4157   */\n    tag_229:\n        /* \"#utility.yul\":4196:4197   */\n      0x00\n        /* \"#utility.yul\":4221:4274   */\n      tag_231\n        /* \"#utility.yul\":4266:4273   */\n      dup6\n        /* \"#utility.yul\":4257:4263   */\n      dup3\n        /* \"#utility.yul\":4246:4255   */\n      dup7\n        /* \"#utility.yul\":4242:4264   */\n      add\n        /* \"#utility.yul\":4221:4274   */\n      tag_162\n      jump\t// in\n    tag_231:\n        /* \"#utility.yul\":4211:4274   */\n      swap3\n      pop\n        /* \"#utility.yul\":4167:4284   */\n      pop\n        /* \"#utility.yul\":4323:4325   */\n      0x20\n        /* \"#utility.yul\":4349:4402   */\n      tag_232\n        /* \"#utility.yul\":4394:4401   */\n      dup6\n        /* \"#utility.yul\":4385:4391   */\n      dup3\n        /* \"#utility.yul\":4374:4383   */\n      dup7\n        /* \"#utility.yul\":4370:4392   */\n      add\n        /* \"#utility.yul\":4349:4402   */\n      tag_164\n      jump\t// in\n    tag_232:\n        /* \"#utility.yul\":4339:4402   */\n      swap2\n      pop\n        /* \"#utility.yul\":4294:4412   */\n      pop\n        /* \"#utility.yul\":3945:4419   */\n      swap3\n      pop\n      swap3\n      swap1\n      pop\n      jump\t// out\n        /* \"#utility.yul\":4425:4605   */\n    tag_165:\n        /* \"#utility.yul\":4473:4550   */\n      0x4e487b7100000000000000000000000000000000000000000000000000000000\n        /* \"#utility.yul\":4470:4471   */\n      0x00\n        /* \"#utility.yul\":4463:4551   */\n      mstore\n        /* \"#utility.yul\":4570:4574   */\n      0x11\n        /* \"#utility.yul\":4567:4568   */\n      0x04\n        /* \"#utility.yul\":4560:4575   */\n      mstore\n        /* \"#utility.yul\":4594:4598   */\n      0x24\n        /* \"#utility.yul\":4591:4592   */\n      0x00\n        /* \"#utility.yul\":4584:4599   */\n      revert\n        /* \"#utility.yul\":4611:5021   */\n    tag_53:\n        /* \"#utility.yul\":4651:4658   */\n      0x00\n        /* \"#utility.yul\":4674:4694   */\n      tag_235\n        /* \"#utility.yul\":4692:4693   */\n      dup3\n        /* \"#utility.yul\":4674:4694   */\n      tag_155\n      jump\t// in\n    tag_235:\n        /* \"#utility.yul\":4669:4694   */\n      swap2\n      pop\n        /* \"#utility.yul\":4708:4728   */\n      tag_236\n        /* \"#utility.yul\":4726:4727   */\n      dup4\n        /* \"#utility.yul\":4708:4728   */\n      tag_155\n      jump\t// in\n    tag_236:\n        /* \"#utility.yul\":4703:4728   */\n      swap3\n      pop\n        /* \"#utility.yul\":4763:4764   */\n      dup3\n        /* \"#utility.yul\":4760:4761   */\n      dup3\n        /* \"#utility.yul\":4756:4765   */\n      mul\n        /* \"#utility.yul\":4785:4815   */\n      tag_237\n        /* \"#utility.yul\":4803:4814   */\n      dup2\n        /* \"#utility.yul\":4785:4815   */\n      tag_155\n      jump\t// in\n    tag_237:\n        /* \"#utility.yul\":4774:4815   */\n      swap2\n      pop\n        /* \"#utility.yul\":4964:4965   */\n      dup3\n        /* \"#utility.yul\":4955:4962   */\n      dup3\n        /* \"#utility.yul\":4951:4966   */\n      div\n        /* \"#utility.yul\":4948:4949   */\n      dup5\n        /* \"#utility.yul\":4945:4967   */\n      eq\n        /* \"#utility.yul\":4925:4926   */\n      dup4\n        /* \"#utility.yul\":4918:4927   */\n      iszero\n        /* \"#utility.yul\":4898:4981   */\n      or\n        /* \"#utility.yul\":4875:5014   */\n      tag_238\n      jumpi\n        /* \"#utility.yul\":4994:5012   */\n      tag_239\n      tag_165\n      jump\t// in\n    tag_239:\n        /* \"#utility.yul\":4875:5014   */\n    tag_238:\n        /* \"#utility.yul\":4659:5021   */\n      pop\n        /* \"#utility.yul\":4611:5021   */\n      swap3\n      swap2\n      pop\n      pop\n      jump\t// out\n        /* \"#utility.yul\":5027:5207   */\n    tag_166:\n        /* \"#utility.yul\":5075:5152   */\n      0x4e487b7100000000000000000000000000000000000000000000000000000000\n        /* \"#utility.yul\":5072:5073   */\n      0x00\n        /* \"#utility.yul\":5065:5153   */\n      mstore\n        /* \"#utility.yul\":5172:5176   */\n      0x12\n        /* \"#utility.yul\":5169:5170   */\n      0x04\n        /* \"#utility.yul\":5162:5177   */\n      mstore\n        /* \"#utility.yul\":5196:5200   */\n      0x24\n        /* \"#utility.yul\":5193:5194   */\n      0x00\n        /* \"#utility.yul\":5186:5201   */\n      revert\n        /* \"#utility.yul\":5213:5398   */\n    tag_55:\n        /* \"#utility.yul\":5253:5254   */\n      0x00\n        /* \"#utility.yul\":5270:5290   */\n      tag_242\n        /* \"#utility.yul\":5288:5289   */\n      dup3\n        /* \"#utility.yul\":5270:5290   */\n      tag_155\n      jump\t// in\n    tag_242:\n        /* \"#utility.yul\":5265:5290   */\n      swap2\n      pop\n        /* \"#utility.yul\":5304:5324   */\n      tag_243\n        /* \"#utility.yul\":5322:5323   */\n      dup4\n        /* \"#utility.yul\":5304:5324   */\n      tag_155\n      jump\t// in\n    tag_243:\n        /* \"#utility.yul\":5299:5324   */\n      swap3\n      pop\n        /* \"#utility.yul\":5343:5344   */\n      dup3\n        /* \"#utility.yul\":5333:5368   */\n      tag_244\n      jumpi\n        /* \"#utility.yul\":5348:5366   */\n      tag_245\n      tag_166\n      jump\t// in\n    tag_245:\n        /* \"#utility.yul\":5333:5368   */\n    tag_244:\n        /* \"#utility.yul\":5390:5391   */\n      dup3\n        /* \"#utility.yul\":5387:5388   */\n      dup3\n        /* \"#utility.yul\":5383:5392   */\n      div\n        /* \"#utility.yul\":5378:5392   */\n      swap1\n      pop\n        /* \"#utility.yul\":5213:5398   */\n      swap3\n      swap2\n      pop\n      pop\n      jump\t// out\n        /* \"#utility.yul\":5404:5598   */\n    tag_62:\n        /* \"#utility.yul\":5444:5448   */\n      0x00\n        /* \"#utility.yul\":5464:5484   */\n      tag_247\n        /* \"#utility.yul\":5482:5483   */\n      dup3\n        /* \"#utility.yul\":5464:5484   */\n      tag_155\n      jump\t// in\n    tag_247:\n        /* \"#utility.yul\":5459:5484   */\n      swap2\n      pop\n        /* \"#utility.yul\":5498:5518   */\n      tag_248\n        /* \"#utility.yul\":5516:5517   */\n      dup4\n        /* \"#utility.yul\":5498:5518   */\n      tag_155\n      jump\t// in\n    tag_248:\n        /* \"#utility.yul\":5493:5518   */\n      swap3\n      pop\n        /* \"#utility.yul\":5542:5543   */\n      dup3\n        /* \"#utility.yul\":5539:5540   */\n      dup3\n        /* \"#utility.yul\":5535:5544   */\n      sub\n        /* \"#utility.yul\":5527:5544   */\n      swap1\n      pop\n        /* \"#utility.yul\":5566:5567   */\n      dup2\n        /* \"#utility.yul\":5560:5564   */\n      dup2\n        /* \"#utility.yul\":5557:5568   */\n      gt\n        /* \"#utility.yul\":5554:5591   */\n      iszero\n      tag_249\n      jumpi\n        /* \"#utility.yul\":5571:5589   */\n      tag_250\n      tag_165\n      jump\t// in\n    tag_250:\n        /* \"#utility.yul\":5554:5591   */\n    tag_249:\n        /* \"#utility.yul\":5404:5598   */\n      swap3\n      swap2\n      pop\n      pop\n      jump\t// out\n        /* \"#utility.yul\":5604:5722   */\n    tag_167:\n        /* \"#utility.yul\":5691:5715   */\n      tag_252\n        /* \"#utility.yul\":5709:5714   */\n      dup2\n        /* \"#utility.yul\":5691:5715   */\n      tag_160\n      jump\t// in\n    tag_252:\n        /* \"#utility.yul\":5686:5689   */\n      dup3\n        /* \"#utility.yul\":5679:5716   */\n      mstore\n        /* \"#utility.yul\":5604:5722   */\n      pop\n      pop\n      jump\t// out\n        /* \"#utility.yul\":5728:6060   */\n    tag_67:\n        /* \"#utility.yul\":5849:5853   */\n      0x00\n        /* \"#utility.yul\":5887:5889   */\n      0x40\n        /* \"#utility.yul\":5876:5885   */\n      dup3\n        /* \"#utility.yul\":5872:5890   */\n      add\n        /* \"#utility.yul\":5864:5890   */\n      swap1\n      pop\n        /* \"#utility.yul\":5900:5971   */\n      tag_254\n        /* \"#utility.yul\":5968:5969   */\n      0x00\n        /* \"#utility.yul\":5957:5966   */\n      dup4\n        /* \"#utility.yul\":5953:5970   */\n      add\n        /* \"#utility.yul\":5944:5950   */\n      dup6\n        /* \"#utility.yul\":5900:5971   */\n      tag_167\n      jump\t// in\n    tag_254:\n        /* \"#utility.yul\":5981:6053   */\n      tag_255\n        /* \"#utility.yul\":6049:6051   */\n      0x20\n        /* \"#utility.yul\":6038:6047   */\n      dup4\n        /* \"#utility.yul\":6034:6052   */\n      add\n        /* \"#utility.yul\":6025:6031   */\n      dup5\n        /* \"#utility.yul\":5981:6053   */\n      tag_156\n      jump\t// in\n    tag_255:\n        /* \"#utility.yul\":5728:6060   */\n      swap4\n      swap3\n      pop\n      pop\n      pop\n      jump\t// out\n        /* \"#utility.yul\":6066:6156   */\n    tag_168:\n        /* \"#utility.yul\":6100:6107   */\n      0x00\n        /* \"#utility.yul\":6143:6148   */\n      dup2\n        /* \"#utility.yul\":6136:6149   */\n      iszero\n        /* \"#utility.yul\":6129:6150   */\n      iszero\n        /* \"#utility.yul\":6118:6150   */\n      swap1\n      pop\n        /* \"#utility.yul\":6066:6156   */\n      swap2\n      swap1\n      pop\n      jump\t// out\n        /* \"#utility.yul\":6162:6278   */\n    tag_169:\n        /* \"#utility.yul\":6232:6253   */\n      tag_258\n        /* \"#utility.yul\":6247:6252   */\n      dup2\n        /* \"#utility.yul\":6232:6253   */\n      tag_168\n      jump\t// in\n    tag_258:\n        /* \"#utility.yul\":6225:6230   */\n      dup2\n        /* \"#utility.yul\":6222:6254   */\n      eq\n        /* \"#utility.yul\":6212:6272   */\n      tag_259\n      jumpi\n        /* \"#utility.yul\":6268:6269   */\n      0x00\n        /* \"#utility.yul\":6265:6266   */\n      dup1\n        /* \"#utility.yul\":6258:6270   */\n      revert\n        /* \"#utility.yul\":6212:6272   */\n    tag_259:\n        /* \"#utility.yul\":6162:6278   */\n      pop\n      jump\t// out\n        /* \"#utility.yul\":6284:6421   */\n    tag_170:\n        /* \"#utility.yul\":6338:6343   */\n      0x00\n        /* \"#utility.yul\":6369:6375   */\n      dup2\n        /* \"#utility.yul\":6363:6376   */\n      mload\n        /* \"#utility.yul\":6354:6376   */\n      swap1\n      pop\n        /* \"#utility.yul\":6385:6415   */\n      tag_261\n        /* \"#utility.yul\":6409:6414   */\n      dup2\n        /* \"#utility.yul\":6385:6415   */\n      tag_169\n      jump\t// in\n    tag_261:\n        /* \"#utility.yul\":6284:6421   */\n      swap3\n      swap2\n      pop\n      pop\n      jump\t// out\n        /* \"#utility.yul\":6427:6772   */\n    tag_71:\n        /* \"#utility.yul\":6494:6500   */\n      0x00\n        /* \"#utility.yul\":6543:6545   */\n      0x20\n        /* \"#utility.yul\":6531:6540   */\n      dup3\n        /* \"#utility.yul\":6522:6529   */\n      dup5\n        /* \"#utility.yul\":6518:6541   */\n      sub\n        /* \"#utility.yul\":6514:6546   */\n      slt\n        /* \"#utility.yul\":6511:6630   */\n      iszero\n      tag_263\n      jumpi\n        /* \"#utility.yul\":6549:6628   */\n      tag_264\n      tag_158\n      jump\t// in\n    tag_264:\n        /* \"#utility.yul\":6511:6630   */\n    tag_263:\n        /* \"#utility.yul\":6669:6670   */\n      0x00\n        /* \"#utility.yul\":6694:6755   */\n      tag_265\n        /* \"#utility.yul\":6747:6754   */\n      dup5\n        /* \"#utility.yul\":6738:6744   */\n      dup3\n        /* \"#utility.yul\":6727:6736   */\n      dup6\n        /* \"#utility.yul\":6723:6745   */\n      add\n        /* \"#utility.yul\":6694:6755   */\n      tag_170\n      jump\t// in\n    tag_265:\n        /* \"#utility.yul\":6684:6755   */\n      swap2\n      pop\n        /* \"#utility.yul\":6640:6765   */\n      pop\n        /* \"#utility.yul\":6427:6772   */\n      swap3\n      swap2\n      pop\n      pop\n      jump\t// out\n        /* \"#utility.yul\":6778:7220   */\n    tag_79:\n        /* \"#utility.yul\":6927:6931   */\n      0x00\n        /* \"#utility.yul\":6965:6967   */\n      0x60\n        /* \"#utility.yul\":6954:6963   */\n      dup3\n        /* \"#utility.yul\":6950:6968   */\n      add\n        /* \"#utility.yul\":6942:6968   */\n      swap1\n      pop\n        /* \"#utility.yul\":6978:7049   */\n      tag_267\n        /* \"#utility.yul\":7046:7047   */\n      0x00\n        /* \"#utility.yul\":7035:7044   */\n      dup4\n        /* \"#utility.yul\":7031:7048   */\n      add\n        /* \"#utility.yul\":7022:7028   */\n      dup7\n        /* \"#utility.yul\":6978:7049   */\n      tag_167\n      jump\t// in\n    tag_267:\n        /* \"#utility.yul\":7059:7131   */\n      tag_268\n        /* \"#utility.yul\":7127:7129   */\n      0x20\n        /* \"#utility.yul\":7116:7125   */\n      dup4\n        /* \"#utility.yul\":7112:7130   */\n      add\n        /* \"#utility.yul\":7103:7109   */\n      dup6\n        /* \"#utility.yul\":7059:7131   */\n      tag_167\n      jump\t// in\n    tag_268:\n        /* \"#utility.yul\":7141:7213   */\n      tag_269\n        /* \"#utility.yul\":7209:7211   */\n      0x40\n        /* \"#utility.yul\":7198:7207   */\n      dup4\n        /* \"#utility.yul\":7194:7212   */\n      add\n        /* \"#utility.yul\":7185:7191   */\n      dup5\n        /* \"#utility.yul\":7141:7213   */\n      tag_156\n      jump\t// in\n    tag_269:\n        /* \"#utility.yul\":6778:7220   */\n      swap5\n      swap4\n      pop\n      pop\n      pop\n      pop\n      jump\t// out\n        /* \"#utility.yul\":7226:7448   */\n    tag_88:\n        /* \"#utility.yul\":7319:7323   */\n      0x00\n        /* \"#utility.yul\":7357:7359   */\n      0x20\n        /* \"#utility.yul\":7346:7355   */\n      dup3\n        /* \"#utility.yul\":7342:7360   */\n      add\n        /* \"#utility.yul\":7334:7360   */\n      swap1\n      pop\n        /* \"#utility.yul\":7370:7441   */\n      tag_271\n        /* \"#utility.yul\":7438:7439   */\n      0x00\n        /* \"#utility.yul\":7427:7436   */\n      dup4\n        /* \"#utility.yul\":7423:7440   */\n      add\n        /* \"#utility.yul\":7414:7420   */\n      dup5\n        /* \"#utility.yul\":7370:7441   */\n      tag_167\n      jump\t// in\n    tag_271:\n        /* \"#utility.yul\":7226:7448   */\n      swap3\n      swap2\n      pop\n      pop\n      jump\t// out\n        /* \"#utility.yul\":7454:7597   */\n    tag_171:\n        /* \"#utility.yul\":7511:7516   */\n      0x00\n        /* \"#utility.yul\":7542:7548   */\n      dup2\n        /* \"#utility.yul\":7536:7549   */\n      mload\n        /* \"#utility.yul\":7527:7549   */\n      swap1\n      pop\n        /* \"#utility.yul\":7558:7591   */\n      tag_273\n        /* \"#utility.yul\":7585:7590   */\n      dup2\n        /* \"#utility.yul\":7558:7591   */\n      tag_163\n      jump\t// in\n    tag_273:\n        /* \"#utility.yul\":7454:7597   */\n      swap3\n      swap2\n      pop\n      pop\n      jump\t// out\n        /* \"#utility.yul\":7603:7954   */\n    tag_92:\n        /* \"#utility.yul\":7673:7679   */\n      0x00\n        /* \"#utility.yul\":7722:7724   */\n      0x20\n        /* \"#utility.yul\":7710:7719   */\n      dup3\n        /* \"#utility.yul\":7701:7708   */\n      dup5\n        /* \"#utility.yul\":7697:7720   */\n      sub\n        /* \"#utility.yul\":7693:7725   */\n      slt\n        /* \"#utility.yul\":7690:7809   */\n      iszero\n      tag_275\n      jumpi\n        /* \"#utility.yul\":7728:7807   */\n      tag_276\n      tag_158\n      jump\t// in\n    tag_276:\n        /* \"#utility.yul\":7690:7809   */\n    tag_275:\n        /* \"#utility.yul\":7848:7849   */\n      0x00\n        /* \"#utility.yul\":7873:7937   */\n      tag_277\n        /* \"#utility.yul\":7929:7936   */\n      dup5\n        /* \"#utility.yul\":7920:7926   */\n      dup3\n        /* \"#utility.yul\":7909:7918   */\n      dup6\n        /* \"#utility.yul\":7905:7927   */\n      add\n        /* \"#utility.yul\":7873:7937   */\n      tag_171\n      jump\t// in\n    tag_277:\n        /* \"#utility.yul\":7863:7937   */\n      swap2\n      pop\n        /* \"#utility.yul\":7819:7947   */\n      pop\n        /* \"#utility.yul\":7603:7954   */\n      swap3\n      swap2\n      pop\n      pop\n      jump\t// out\n        /* \"#utility.yul\":7960:8151   */\n    tag_101:\n        /* \"#utility.yul\":8000:8003   */\n      0x00\n        /* \"#utility.yul\":8019:8039   */\n      tag_279\n        /* \"#utility.yul\":8037:8038   */\n      dup3\n        /* \"#utility.yul\":8019:8039   */\n      tag_155\n      jump\t// in\n    tag_279:\n        /* \"#utility.yul\":8014:8039   */\n      swap2\n      pop\n        /* \"#utility.yul\":8053:8073   */\n      tag_280\n        /* \"#utility.yul\":8071:8072   */\n      dup4\n        /* \"#utility.yul\":8053:8073   */\n      tag_155\n      jump\t// in\n    tag_280:\n        /* \"#utility.yul\":8048:8073   */\n      swap3\n      pop\n        /* \"#utility.yul\":8096:8097   */\n      dup3\n        /* \"#utility.yul\":8093:8094   */\n      dup3\n        /* \"#utility.yul\":8089:8098   */\n      add\n        /* \"#utility.yul\":8082:8098   */\n      swap1\n      pop\n        /* \"#utility.yul\":8117:8120   */\n      dup1\n        /* \"#utility.yul\":8114:8115   */\n      dup3\n        /* \"#utility.yul\":8111:8121   */\n      gt\n        /* \"#utility.yul\":8108:8144   */\n      iszero\n      tag_281\n      jumpi\n        /* \"#utility.yul\":8124:8142   */\n      tag_282\n      tag_165\n      jump\t// in\n    tag_282:\n        /* \"#utility.yul\":8108:8144   */\n    tag_281:\n        /* \"#utility.yul\":7960:8151   */\n      swap3\n      swap2\n      pop\n      pop\n      jump\t// out\n        /* \"#utility.yul\":8157:8326   */\n    tag_172:\n        /* \"#utility.yul\":8241:8252   */\n      0x00\n        /* \"#utility.yul\":8275:8281   */\n      dup3\n        /* \"#utility.yul\":8270:8273   */\n      dup3\n        /* \"#utility.yul\":8263:8282   */\n      mstore\n        /* \"#utility.yul\":8315:8319   */\n      0x20\n        /* \"#utility.yul\":8310:8313   */\n      dup3\n        /* \"#utility.yul\":8306:8320   */\n      add\n        /* \"#utility.yul\":8291:8320   */\n      swap1\n      pop\n        /* \"#utility.yul\":8157:8326   */\n      swap3\n      swap2\n      pop\n      pop\n      jump\t// out\n        /* \"#utility.yul\":8332:8491   */\n    tag_173:\n        /* \"#utility.yul\":8472:8483   */\n      0x7368617265203d20300000000000000000000000000000000000000000000000\n        /* \"#utility.yul\":8468:8469   */\n      0x00\n        /* \"#utility.yul\":8460:8466   */\n      dup3\n        /* \"#utility.yul\":8456:8470   */\n      add\n        /* \"#utility.yul\":8449:8484   */\n      mstore\n        /* \"#utility.yul\":8332:8491   */\n      pop\n      jump\t// out\n        /* \"#utility.yul\":8497:8862   */\n    tag_174:\n        /* \"#utility.yul\":8639:8642   */\n      0x00\n        /* \"#utility.yul\":8660:8726   */\n      tag_286\n        /* \"#utility.yul\":8724:8725   */\n      0x09\n        /* \"#utility.yul\":8719:8722   */\n      dup4\n        /* \"#utility.yul\":8660:8726   */\n      tag_172\n      jump\t// in\n    tag_286:\n        /* \"#utility.yul\":8653:8726   */\n      swap2\n      pop\n        /* \"#utility.yul\":8735:8828   */\n      tag_287\n        /* \"#utility.yul\":8824:8827   */\n      dup3\n        /* \"#utility.yul\":8735:8828   */\n      tag_173\n      jump\t// in\n    tag_287:\n        /* \"#utility.yul\":8853:8855   */\n      0x20\n        /* \"#utility.yul\":8848:8851   */\n      dup3\n        /* \"#utility.yul\":8844:8856   */\n      add\n        /* \"#utility.yul\":8837:8856   */\n      swap1\n      pop\n        /* \"#utility.yul\":8497:8862   */\n      swap2\n      swap1\n      pop\n      jump\t// out\n        /* \"#utility.yul\":8868:9287   */\n    tag_109:\n        /* \"#utility.yul\":9034:9038   */\n      0x00\n        /* \"#utility.yul\":9072:9074   */\n      0x20\n        /* \"#utility.yul\":9061:9070   */\n      dup3\n        /* \"#utility.yul\":9057:9075   */\n      add\n        /* \"#utility.yul\":9049:9075   */\n      swap1\n      pop\n        /* \"#utility.yul\":9121:9130   */\n      dup2\n        /* \"#utility.yul\":9115:9119   */\n      dup2\n        /* \"#utility.yul\":9111:9131   */\n      sub\n        /* \"#utility.yul\":9107:9108   */\n      0x00\n        /* \"#utility.yul\":9096:9105   */\n      dup4\n        /* \"#utility.yul\":9092:9109   */\n      add\n        /* \"#utility.yul\":9085:9132   */\n      mstore\n        /* \"#utility.yul\":9149:9280   */\n      tag_289\n        /* \"#utility.yul\":9275:9279   */\n      dup2\n        /* \"#utility.yul\":9149:9280   */\n      tag_174\n      jump\t// in\n    tag_289:\n        /* \"#utility.yul\":9141:9280   */\n      swap1\n      pop\n        /* \"#utility.yul\":8868:9287   */\n      swap2\n      swap1\n      pop\n      jump\t// out\n        /* \"#utility.yul\":9293:9456   */\n    tag_175:\n        /* \"#utility.yul\":9433:9448   */\n      0x696e76616c696420746f6b656e00000000000000000000000000000000000000\n        /* \"#utility.yul\":9429:9430   */\n      0x00\n        /* \"#utility.yul\":9421:9427   */\n      dup3\n        /* \"#utility.yul\":9417:9431   */\n      add\n        /* \"#utility.yul\":9410:9449   */\n      mstore\n        /* \"#utility.yul\":9293:9456   */\n      pop\n      jump\t// out\n        /* \"#utility.yul\":9462:9828   */\n    tag_176:\n        /* \"#utility.yul\":9604:9607   */\n      0x00\n        /* \"#utility.yul\":9625:9692   */\n      tag_292\n        /* \"#utility.yul\":9689:9691   */\n      0x0d\n        /* \"#utility.yul\":9684:9687   */\n      dup4\n        /* \"#utility.yul\":9625:9692   */\n      tag_172\n      jump\t// in\n    tag_292:\n        /* \"#utility.yul\":9618:9692   */\n      swap2\n      pop\n        /* \"#utility.yul\":9701:9794   */\n      tag_293\n        /* \"#utility.yul\":9790:9793   */\n      dup3\n        /* \"#utility.yul\":9701:9794   */\n      tag_175\n      jump\t// in\n    tag_293:\n        /* \"#utility.yul\":9819:9821   */\n      0x20\n        /* \"#utility.yul\":9814:9817   */\n      dup3\n        /* \"#utility.yul\":9810:9822   */\n      add\n        /* \"#utility.yul\":9803:9822   */\n      swap1\n      pop\n        /* \"#utility.yul\":9462:9828   */\n      swap2\n      swap1\n      pop\n      jump\t// out\n        /* \"#utility.yul\":9834:10253   */\n    tag_117:\n        /* \"#utility.yul\":10000:10004   */\n      0x00\n        /* \"#utility.yul\":10038:10040   */\n      0x20\n        /* \"#utility.yul\":10027:10036   */\n      dup3\n        /* \"#utility.yul\":10023:10041   */\n      add\n        /* \"#utility.yul\":10015:10041   */\n      swap1\n      pop\n        /* \"#utility.yul\":10087:10096   */\n      dup2\n        /* \"#utility.yul\":10081:10085   */\n      dup2\n        /* \"#utility.yul\":10077:10097   */\n      sub\n        /* \"#utility.yul\":10073:10074   */\n      0x00\n        /* \"#utility.yul\":10062:10071   */\n      dup4\n        /* \"#utility.yul\":10058:10075   */\n      add\n        /* \"#utility.yul\":10051:10098   */\n      mstore\n        /* \"#utility.yul\":10115:10246   */\n      tag_295\n        /* \"#utility.yul\":10241:10245   */\n      dup2\n        /* \"#utility.yul\":10115:10246   */\n      tag_176\n      jump\t// in\n    tag_295:\n        /* \"#utility.yul\":10107:10246   */\n      swap1\n      pop\n        /* \"#utility.yul\":9834:10253   */\n      swap2\n      swap1\n      pop\n      jump\t// out\n\n    auxdata: 0xa2646970667358221220b0ca7df376064506ec0830f7e04a14c43206c9a8026b221caaaf34176b7567b264736f6c63430008180033\n}\n",
				"bytecode": {
					"linkReferences": {},
					"object": "60c060405234801562000010575f80fd5b50604051620013743803806200137483398181016040528101906200003691906200010b565b8173ffffffffffffffffffffffffffffffffffffffff1660808173ffffffffffffffffffffffffffffffffffffffff16815250508073ffffffffffffffffffffffffffffffffffffffff1660a08173ffffffffffffffffffffffffffffffffffffffff1681525050505062000150565b5f80fd5b5f73ffffffffffffffffffffffffffffffffffffffff82169050919050565b5f620000d582620000aa565b9050919050565b620000e781620000c9565b8114620000f2575f80fd5b50565b5f815190506200010581620000dc565b92915050565b5f8060408385031215620001245762000123620000a6565b5b5f6200013385828601620000f5565b92505060206200014685828601620000f5565b9150509250929050565b60805160a0516111a7620001cd5f395f818161034d0152818161048e015281816105c80152818161078a01528181610874015281816108e10152610b0601525f81816101ee015281816102a8015281816103f00152818161052d015281816107350152818161081a0152818161089501526108c001526111a75ff3fe608060405234801561000f575f80fd5b5060043610610091575f3560e01c806370a082311161006457806370a082311461010d5780639c8f9f231461013d5780639cd441da1461016e578063d004f0f71461019e578063d21220a7146101ce57610091565b80630dfe16811461009557806318160ddd146100b3578063443cb4bc146100d15780635a76f25e146100ef575b5f80fd5b61009d6101ec565b6040516100aa9190610c91565b60405180910390f35b6100bb610210565b6040516100c89190610cc2565b60405180910390f35b6100d9610216565b6040516100e69190610cc2565b60405180910390f35b6100f761021b565b6040516101049190610cc2565b60405180910390f35b61012760048036038101906101229190610d1a565b610221565b6040516101349190610cc2565b60405180910390f35b61015760048036038101906101529190610d6f565b610236565b604051610165929190610d9a565b60405180910390f35b61018860048036038101906101839190610dc1565b6103ed565b6040516101959190610cc2565b60405180910390f35b6101b860048036038101906101b39190610dff565b610732565b6040516101c59190610cc2565b60405180910390f35b6101d6610b04565b6040516101e39190610c91565b60405180910390f35b7f000000000000000000000000000000000000000000000000000000000000000081565b60025481565b5f5481565b60015481565b6003602052805f5260405f205f915090505481565b5f80600254835f546102489190610e6a565b6102529190610ed8565b9150600254836001546102659190610e6a565b61026f9190610ed8565b905061027b3384610b28565b61029e825f5461028b9190610f08565b826001546102999190610f08565b610b97565b5f821115610343577f000000000000000000000000000000000000000000000000000000000000000073ffffffffffffffffffffffffffffffffffffffff1663a9059cbb33846040518363ffffffff1660e01b8152600401610301929190610f4a565b6020604051808303815f875af115801561031d573d5f803e3d5ffd5b505050506040513d601f19601f820116820180604052508101906103419190610fa6565b505b5f8111156103e8577f000000000000000000000000000000000000000000000000000000000000000073ffffffffffffffffffffffffffffffffffffffff1663a9059cbb33836040518363ffffffff1660e01b81526004016103a6929190610f4a565b6020604051808303815f875af11580156103c2573d5f803e3d5ffd5b505050506040513d601f19601f820116820180604052508101906103e69190610fa6565b505b915091565b5f7f000000000000000000000000000000000000000000000000000000000000000073ffffffffffffffffffffffffffffffffffffffff166323b872dd3330866040518463ffffffff1660e01b815260040161044b93929190610fd1565b6020604051808303815f875af1158015610467573d5f803e3d5ffd5b505050506040513d601f19601f8201168201806040525081019061048b9190610fa6565b507f000000000000000000000000000000000000000000000000000000000000000073ffffffffffffffffffffffffffffffffffffffff166323b872dd3330856040518463ffffffff1660e01b81526004016104e993929190610fd1565b6020604051808303815f875af1158015610505573d5f803e3d5ffd5b505050506040513d601f19601f820116820180604052508101906105299190610fa6565b505f7f000000000000000000000000000000000000000000000000000000000000000073ffffffffffffffffffffffffffffffffffffffff166370a08231306040518263ffffffff1660e01b81526004016105849190611006565b602060405180830381865afa15801561059f573d5f803e3d5ffd5b505050506040513d601f19601f820116820180604052508101906105c39190611033565b90505f7f000000000000000000000000000000000000000000000000000000000000000073ffffffffffffffffffffffffffffffffffffffff166370a08231306040518263ffffffff1660e01b815260040161061f9190611006565b602060405180830381865afa15801561063a573d5f803e3d5ffd5b505050506040513d601f19601f8201168201806040525081019061065e9190611033565b90505f80548361066e9190610f08565b90505f6001548361067f9190610f08565b90505f6002540361069d578082610696919061105e565b94506106d2565b6001545f546106ac919061105e565b60025482846106bb919061105e565b6106c59190610e6a565b6106cf9190610ed8565b94505b5f8511610714576040517f08c379a000000000000000000000000000000000000000000000000000000000815260040161070b906110eb565b60405180910390fd5b61071e3386610ba8565b6107288484610b97565b5050505092915050565b5f7f000000000000000000000000000000000000000000000000000000000000000073ffffffffffffffffffffffffffffffffffffffff168373ffffffffffffffffffffffffffffffffffffffff1614806107d857507f000000000000000000000000000000000000000000000000000000000000000073ffffffffffffffffffffffffffffffffffffffff168373ffffffffffffffffffffffffffffffffffffffff16145b610817576040517f08c379a000000000000000000000000000000000000000000000000000000000815260040161080e90611153565b60405180910390fd5b5f7f000000000000000000000000000000000000000000000000000000000000000073ffffffffffffffffffffffffffffffffffffffff168473ffffffffffffffffffffffffffffffffffffffff161490505f805f80846108be577f00000000000000000000000000000000000000000000000000000000000000007f00000000000000000000000000000000000000000000000000000000000000006001545f54610906565b7f00000000000000000000000000000000000000000000000000000000000000007f00000000000000000000000000000000000000000000000000000000000000005f546001545b93509350935093508373ffffffffffffffffffffffffffffffffffffffff166323b872dd33308a6040518463ffffffff1660e01b815260040161094b93929190610fd1565b6020604051808303815f875af1158015610967573d5f803e3d5ffd5b505050506040513d601f19601f8201168201806040525081019061098b9190610fa6565b505f828573ffffffffffffffffffffffffffffffffffffffff166370a08231306040518263ffffffff1660e01b81526004016109c79190611006565b602060405180830381865afa1580156109e2573d5f803e3d5ffd5b505050506040513d601f19601f82011682018060405250810190610a069190611033565b610a109190610f08565b90506103e86103e582610a239190610e6a565b610a2d9190610ed8565b96505f8087610a53578885610a429190610f08565b8a85610a4e919061105e565b610a6c565b8985610a5f919061105e565b8985610a6b9190610f08565b5b91509150610a7a8282610b97565b8573ffffffffffffffffffffffffffffffffffffffff1663a9059cbb338b6040518363ffffffff1660e01b8152600401610ab5929190610f4a565b6020604051808303815f875af1158015610ad1573d5f803e3d5ffd5b505050506040513d601f19601f82011682018060405250810190610af59190610fa6565b50505050505050505092915050565b7f000000000000000000000000000000000000000000000000000000000000000081565b8060035f8473ffffffffffffffffffffffffffffffffffffffff1673ffffffffffffffffffffffffffffffffffffffff1681526020019081526020015f205f828254610b749190610f08565b925050819055508060025f828254610b8c9190610f08565b925050819055505050565b815f81905550806001819055505050565b8060035f8473ffffffffffffffffffffffffffffffffffffffff1673ffffffffffffffffffffffffffffffffffffffff1681526020019081526020015f205f828254610bf4919061105e565b925050819055508060025f828254610c0c919061105e565b925050819055505050565b5f73ffffffffffffffffffffffffffffffffffffffff82169050919050565b5f819050919050565b5f610c59610c54610c4f84610c17565b610c36565b610c17565b9050919050565b5f610c6a82610c3f565b9050919050565b5f610c7b82610c60565b9050919050565b610c8b81610c71565b82525050565b5f602082019050610ca45f830184610c82565b92915050565b5f819050919050565b610cbc81610caa565b82525050565b5f602082019050610cd55f830184610cb3565b92915050565b5f80fd5b5f610ce982610c17565b9050919050565b610cf981610cdf565b8114610d03575f80fd5b50565b5f81359050610d1481610cf0565b92915050565b5f60208284031215610d2f57610d2e610cdb565b5b5f610d3c84828501610d06565b91505092915050565b610d4e81610caa565b8114610d58575f80fd5b50565b5f81359050610d6981610d45565b92915050565b5f60208284031215610d8457610d83610cdb565b5b5f610d9184828501610d5b565b91505092915050565b5f604082019050610dad5f830185610cb3565b610dba6020830184610cb3565b9392505050565b5f8060408385031215610dd757610dd6610cdb565b5b5f610de485828601610d5b565b9250506020610df585828601610d5b565b9150509250929050565b5f8060408385031215610e1557610e14610cdb565b5b5f610e2285828601610d06565b9250506020610e3385828601610d5b565b9150509250929050565b7f4e487b71000000000000000000000000000000000000000000000000000000005f52601160045260245ffd5b5f610e7482610caa565b9150610e7f83610caa565b9250828202610e8d81610caa565b91508282048414831517610ea457610ea3610e3d565b5b5092915050565b7f4e487b71000000000000000000000000000000000000000000000000000000005f52601260045260245ffd5b5f610ee282610caa565b9150610eed83610caa565b925082610efd57610efc610eab565b5b828204905092915050565b5f610f1282610caa565b9150610f1d83610caa565b9250828203905081811115610f3557610f34610e3d565b5b92915050565b610f4481610cdf565b82525050565b5f604082019050610f5d5f830185610f3b565b610f6a6020830184610cb3565b9392505050565b5f8115159050919050565b610f8581610f71565b8114610f8f575f80fd5b50565b5f81519050610fa081610f7c565b92915050565b5f60208284031215610fbb57610fba610cdb565b5b5f610fc884828501610f92565b91505092915050565b5f606082019050610fe45f830186610f3b565b610ff16020830185610f3b565b610ffe6040830184610cb3565b949350505050565b5f6020820190506110195f830184610f3b565b92915050565b5f8151905061102d81610d45565b92915050565b5f6020828403121561104857611047610cdb565b5b5f6110558482850161101f565b91505092915050565b5f61106882610caa565b915061107383610caa565b925082820190508082111561108b5761108a610e3d565b5b92915050565b5f82825260208201905092915050565b7f7368617265203d203000000000000000000000000000000000000000000000005f82015250565b5f6110d5600983611091565b91506110e0826110a1565b602082019050919050565b5f6020820190508181035f830152611102816110c9565b9050919050565b7f696e76616c696420746f6b656e000000000000000000000000000000000000005f82015250565b5f61113d600d83611091565b915061114882611109565b602082019050919050565b5f6020820190508181035f83015261116a81611131565b905091905056fea2646970667358221220b0ca7df376064506ec0830f7e04a14c43206c9a8026b221caaaf34176b7567b264736f6c63430008180033",
					"opcodes": "PUSH1 0xC0 PUSH1 0x40 MSTORE CALLVALUE DUP1 ISZERO PUSH3 0x10 JUMPI PUSH0 DUP1 REVERT JUMPDEST POP PUSH1 0x40 MLOAD PUSH3 0x1374 CODESIZE SUB DUP1 PUSH3 0x1374 DUP4 CODECOPY DUP2 DUP2 ADD PUSH1 0x40 MSTORE DUP2 ADD SWAP1 PUSH3 0x36 SWAP2 SWAP1 PUSH3 0x10B JUMP JUMPDEST DUP2 PUSH20 0xFFFFFFFFFFFFFFFFFFFFFFFFFFFFFFFFFFFFFFFF AND PUSH1 0x80 DUP2 PUSH20 0xFFFFFFFFFFFFFFFFFFFFFFFFFFFFFFFFFFFFFFFF AND DUP2 MSTORE POP POP DUP1 PUSH20 0xFFFFFFFFFFFFFFFFFFFFFFFFFFFFFFFFFFFFFFFF AND PUSH1 0xA0 DUP2 PUSH20 0xFFFFFFFFFFFFFFFFFFFFFFFFFFFFFFFFFFFFFFFF AND DUP2 MSTORE POP POP POP POP PUSH3 0x150 JUMP JUMPDEST PUSH0 DUP1 REVERT JUMPDEST PUSH0 PUSH20 0xFFFFFFFFFFFFFFFFFFFFFFFFFFFFFFFFFFFFFFFF DUP3 AND SWAP1 POP SWAP2 SWAP1 POP JUMP JUMPDEST PUSH0 PUSH3 0xD5 DUP3 PUSH3 0xAA JUMP JUMPDEST SWAP1 POP SWAP2 SWAP1 POP JUMP JUMPDEST PUSH3 0xE7 DUP2 PUSH3 0xC9 JUMP JUMPDEST DUP2 EQ PUSH3 0xF2 JUMPI PUSH0 DUP1 REVERT JUMPDEST POP JUMP JUMPDEST PUSH0 DUP2 MLOAD SWAP1 POP PUSH3 0x105 DUP2 PUSH3 0xDC JUMP JUMPDEST SWAP3 SWAP2 POP POP JUMP JUMPDEST PUSH0 DUP1 PUSH1 0x40 DUP4 DUP6 SUB SLT ISZERO PUSH3 0x124 JUMPI PUSH3 0x123 PUSH3 0xA6 JUMP JUMPDEST JUMPDEST PUSH0 PUSH3 0x133 DUP6 DUP3 DUP7 ADD PUSH3 0xF5 JUMP JUMPDEST SWAP3 POP POP PUSH1 0x20 PUSH3 0x146 DUP6 DUP3 DUP7 ADD PUSH3 0xF5 JUMP JUMPDEST SWAP2 POP POP SWAP3 POP SWAP3 SWAP1 POP JUMP JUMPDEST PUSH1 0x80 MLOAD PUSH1 0xA0 MLOAD PUSH2 0x11A7 PUSH3 0x1CD PUSH0 CODECOPY PUSH0 DUP2 DUP2 PUSH2 0x34D ADD MSTORE DUP2 DUP2 PUSH2 0x48E ADD MSTORE DUP2 DUP2 PUSH2 0x5C8 ADD MSTORE DUP2 DUP2 PUSH2 0x78A ADD MSTORE DUP2 DUP2 PUSH2 0x874 ADD MSTORE DUP2 DUP2 PUSH2 0x8E1 ADD MSTORE PUSH2 0xB06 ADD MSTORE PUSH0 DUP2 DUP2 PUSH2 0x1EE ADD MSTORE DUP2 DUP2 PUSH2 0x2A8 ADD MSTORE DUP2 DUP2 PUSH2 0x3F0 ADD MSTORE DUP2 DUP2 PUSH2 0x52D ADD MSTORE DUP2 DUP2 PUSH2 0x735 ADD MSTORE DUP2 DUP2 PUSH2 0x81A ADD MSTORE DUP2 DUP2 PUSH2 0x895 ADD MSTORE PUSH2 0x8C0 ADD MSTORE PUSH2 0x11A7 PUSH0 RETURN INVALID PUSH1 0x80 PUSH1 0x40 MSTORE CALLVALUE DUP1 ISZERO PUSH2 0xF JUMPI PUSH0 DUP1 REVERT JUMPDEST POP PUSH1 0x4 CALLDATASIZE LT PUSH2 0x91 JUMPI PUSH0 CALLDATALOAD PUSH1 0xE0 SHR DUP1 PUSH4 0x70A08231 GT PUSH2 0x64 JUMPI DUP1 PUSH4 0x70A08231 EQ PUSH2 0x10D JUMPI DUP1 PUSH4 0x9C8F9F23 EQ PUSH2 0x13D JUMPI DUP1 PUSH4 0x9CD441DA EQ PUSH2 0x16E JUMPI DUP1 PUSH4 0xD004F0F7 EQ PUSH2 0x19E JUMPI DUP1 PUSH4 0xD21220A7 EQ PUSH2 0x1CE JUMPI PUSH2 0x91 JUMP JUMPDEST DUP1 PUSH4 0xDFE1681 EQ PUSH2 0x95 JUMPI DUP1 PUSH4 0x18160DDD EQ PUSH2 0xB3 JUMPI DUP1 PUSH4 0x443CB4BC EQ PUSH2 0xD1 JUMPI DUP1 PUSH4 0x5A76F25E EQ PUSH2 0xEF JUMPI JUMPDEST PUSH0 DUP1 REVERT JUMPDEST PUSH2 0x9D PUSH2 0x1EC JUMP JUMPDEST PUSH1 0x40 MLOAD PUSH2 0xAA SWAP2 SWAP1 PUSH2 0xC91 JUMP JUMPDEST PUSH1 0x40 MLOAD DUP1 SWAP2 SUB SWAP1 RETURN JUMPDEST PUSH2 0xBB PUSH2 0x210 JUMP JUMPDEST PUSH1 0x40 MLOAD PUSH2 0xC8 SWAP2 SWAP1 PUSH2 0xCC2 JUMP JUMPDEST PUSH1 0x40 MLOAD DUP1 SWAP2 SUB SWAP1 RETURN JUMPDEST PUSH2 0xD9 PUSH2 0x216 JUMP JUMPDEST PUSH1 0x40 MLOAD PUSH2 0xE6 SWAP2 SWAP1 PUSH2 0xCC2 JUMP JUMPDEST PUSH1 0x40 MLOAD DUP1 SWAP2 SUB SWAP1 RETURN JUMPDEST PUSH2 0xF7 PUSH2 0x21B JUMP JUMPDEST PUSH1 0x40 MLOAD PUSH2 0x104 SWAP2 SWAP1 PUSH2 0xCC2 JUMP JUMPDEST PUSH1 0x40 MLOAD DUP1 SWAP2 SUB SWAP1 RETURN JUMPDEST PUSH2 0x127 PUSH1 0x4 DUP1 CALLDATASIZE SUB DUP2 ADD SWAP1 PUSH2 0x122 SWAP2 SWAP1 PUSH2 0xD1A JUMP JUMPDEST PUSH2 0x221 JUMP JUMPDEST PUSH1 0x40 MLOAD PUSH2 0x134 SWAP2 SWAP1 PUSH2 0xCC2 JUMP JUMPDEST PUSH1 0x40 MLOAD DUP1 SWAP2 SUB SWAP1 RETURN JUMPDEST PUSH2 0x157 PUSH1 0x4 DUP1 CALLDATASIZE SUB DUP2 ADD SWAP1 PUSH2 0x152 SWAP2 SWAP1 PUSH2 0xD6F JUMP JUMPDEST PUSH2 0x236 JUMP JUMPDEST PUSH1 0x40 MLOAD PUSH2 0x165 SWAP3 SWAP2 SWAP1 PUSH2 0xD9A JUMP JUMPDEST PUSH1 0x40 MLOAD DUP1 SWAP2 SUB SWAP1 RETURN JUMPDEST PUSH2 0x188 PUSH1 0x4 DUP1 CALLDATASIZE SUB DUP2 ADD SWAP1 PUSH2 0x183 SWAP2 SWAP1 PUSH2 0xDC1 JUMP JUMPDEST PUSH2 0x3ED JUMP JUMPDEST PUSH1 0x40 MLOAD PUSH2 0x195 SWAP2 SWAP1 PUSH2 0xCC2 JUMP JUMPDEST PUSH1 0x40 MLOAD DUP1 SWAP2 SUB SWAP1 RETURN JUMPDEST PUSH2 0x1B8 PUSH1 0x4 DUP1 CALLDATASIZE SUB DUP2 ADD SWAP1 PUSH2 0x1B3 SWAP2 SWAP1 PUSH2 0xDFF JUMP JUMPDEST PUSH2 0x732 JUMP JUMPDEST PUSH1 0x40 MLOAD PUSH2 0x1C5 SWAP2 SWAP1 PUSH2 0xCC2 JUMP JUMPDEST PUSH1 0x40 MLOAD DUP1 SWAP2 SUB SWAP1 RETURN JUMPDEST PUSH2 0x1D6 PUSH2 0xB04 JUMP JUMPDEST PUSH1 0x40 MLOAD PUSH2 0x1E3 SWAP2 SWAP1 PUSH2 0xC91 JUMP JUMPDEST PUSH1 0x40 MLOAD DUP1 SWAP2 SUB SWAP1 RETURN JUMPDEST PUSH32 0x0 DUP2 JUMP JUMPDEST PUSH1 0x2 SLOAD DUP2 JUMP JUMPDEST PUSH0 SLOAD DUP2 JUMP JUMPDEST PUSH1 0x1 SLOAD DUP2 JUMP JUMPDEST PUSH1 0x3 PUSH1 0x20 MSTORE DUP1 PUSH0 MSTORE PUSH1 0x40 PUSH0 KECCAK256 PUSH0 SWAP2 POP SWAP1 POP SLOAD DUP2 JUMP JUMPDEST PUSH0 DUP1 PUSH1 0x2 SLOAD DUP4 PUSH0 SLOAD PUSH2 0x248 SWAP2 SWAP1 PUSH2 0xE6A JUMP JUMPDEST PUSH2 0x252 SWAP2 SWAP1 PUSH2 0xED8 JUMP JUMPDEST SWAP2 POP PUSH1 0x2 SLOAD DUP4 PUSH1 0x1 SLOAD PUSH2 0x265 SWAP2 SWAP1 PUSH2 0xE6A JUMP JUMPDEST PUSH2 0x26F SWAP2 SWAP1 PUSH2 0xED8 JUMP JUMPDEST SWAP1 POP PUSH2 0x27B CALLER DUP5 PUSH2 0xB28 JUMP JUMPDEST PUSH2 0x29E DUP3 PUSH0 SLOAD PUSH2 0x28B SWAP2 SWAP1 PUSH2 0xF08 JUMP JUMPDEST DUP3 PUSH1 0x1 SLOAD PUSH2 0x299 SWAP2 SWAP1 PUSH2 0xF08 JUMP JUMPDEST PUSH2 0xB97 JUMP JUMPDEST PUSH0 DUP3 GT ISZERO PUSH2 0x343 JUMPI PUSH32 0x0 PUSH20 0xFFFFFFFFFFFFFFFFFFFFFFFFFFFFFFFFFFFFFFFF AND PUSH4 0xA9059CBB CALLER DUP5 PUSH1 0x40 MLOAD DUP4 PUSH4 0xFFFFFFFF AND PUSH1 0xE0 SHL DUP2 MSTORE PUSH1 0x4 ADD PUSH2 0x301 SWAP3 SWAP2 SWAP1 PUSH2 0xF4A JUMP JUMPDEST PUSH1 0x20 PUSH1 0x40 MLOAD DUP1 DUP4 SUB DUP2 PUSH0 DUP8 GAS CALL ISZERO DUP1 ISZERO PUSH2 0x31D JUMPI RETURNDATASIZE PUSH0 DUP1 RETURNDATACOPY RETURNDATASIZE PUSH0 REVERT JUMPDEST POP POP POP POP PUSH1 0x40 MLOAD RETURNDATASIZE PUSH1 0x1F NOT PUSH1 0x1F DUP3 ADD AND DUP3 ADD DUP1 PUSH1 0x40 MSTORE POP DUP2 ADD SWAP1 PUSH2 0x341 SWAP2 SWAP1 PUSH2 0xFA6 JUMP JUMPDEST POP JUMPDEST PUSH0 DUP2 GT ISZERO PUSH2 0x3E8 JUMPI PUSH32 0x0 PUSH20 0xFFFFFFFFFFFFFFFFFFFFFFFFFFFFFFFFFFFFFFFF AND PUSH4 0xA9059CBB CALLER DUP4 PUSH1 0x40 MLOAD DUP4 PUSH4 0xFFFFFFFF AND PUSH1 0xE0 SHL DUP2 MSTORE PUSH1 0x4 ADD PUSH2 0x3A6 SWAP3 SWAP2 SWAP1 PUSH2 0xF4A JUMP JUMPDEST PUSH1 0x20 PUSH1 0x40 MLOAD DUP1 DUP4 SUB DUP2 PUSH0 DUP8 GAS CALL ISZERO DUP1 ISZERO PUSH2 0x3C2 JUMPI RETURNDATASIZE PUSH0 DUP1 RETURNDATACOPY RETURNDATASIZE PUSH0 REVERT JUMPDEST POP POP POP POP PUSH1 0x40 MLOAD RETURNDATASIZE PUSH1 0x1F NOT PUSH1 0x1F DUP3 ADD AND DUP3 ADD DUP1 PUSH1 0x40 MSTORE POP DUP2 ADD SWAP1 PUSH2 0x3E6 SWAP2 SWAP1 PUSH2 0xFA6 JUMP JUMPDEST POP JUMPDEST SWAP2 POP SWAP2 JUMP JUMPDEST PUSH0 PUSH32 0x0 PUSH20 0xFFFFFFFFFFFFFFFFFFFFFFFFFFFFFFFFFFFFFFFF AND PUSH4 0x23B872DD CALLER ADDRESS DUP7 PUSH1 0x40 MLOAD DUP5 PUSH4 0xFFFFFFFF AND PUSH1 0xE0 SHL DUP2 MSTORE PUSH1 0x4 ADD PUSH2 0x44B SWAP4 SWAP3 SWAP2 SWAP1 PUSH2 0xFD1 JUMP JUMPDEST PUSH1 0x20 PUSH1 0x40 MLOAD DUP1 DUP4 SUB DUP2 PUSH0 DUP8 GAS CALL ISZERO DUP1 ISZERO PUSH2 0x467 JUMPI RETURNDATASIZE PUSH0 DUP1 RETURNDATACOPY RETURNDATASIZE PUSH0 REVERT JUMPDEST POP POP POP POP PUSH1 0x40 MLOAD RETURNDATASIZE PUSH1 0x1F NOT PUSH1 0x1F DUP3 ADD AND DUP3 ADD DUP1 PUSH1 0x40 MSTORE POP DUP2 ADD SWAP1 PUSH2 0x48B SWAP2 SWAP1 PUSH2 0xFA6 JUMP JUMPDEST POP PUSH32 0x0 PUSH20 0xFFFFFFFFFFFFFFFFFFFFFFFFFFFFFFFFFFFFFFFF AND PUSH4 0x23B872DD CALLER ADDRESS DUP6 PUSH1 0x40 MLOAD DUP5 PUSH4 0xFFFFFFFF AND PUSH1 0xE0 SHL DUP2 MSTORE PUSH1 0x4 ADD PUSH2 0x4E9 SWAP4 SWAP3 SWAP2 SWAP1 PUSH2 0xFD1 JUMP JUMPDEST PUSH1 0x20 PUSH1 0x40 MLOAD DUP1 DUP4 SUB DUP2 PUSH0 DUP8 GAS CALL ISZERO DUP1 ISZERO PUSH2 0x505 JUMPI RETURNDATASIZE PUSH0 DUP1 RETURNDATACOPY RETURNDATASIZE PUSH0 REVERT JUMPDEST POP POP POP POP PUSH1 0x40 MLOAD RETURNDATASIZE PUSH1 0x1F NOT PUSH1 0x1F DUP3 ADD AND DUP3 ADD DUP1 PUSH1 0x40 MSTORE POP DUP2 ADD SWAP1 PUSH2 0x529 SWAP2 SWAP1 PUSH2 0xFA6 JUMP JUMPDEST POP PUSH0 PUSH32 0x0 PUSH20 0xFFFFFFFFFFFFFFFFFFFFFFFFFFFFFFFFFFFFFFFF AND PUSH4 0x70A08231 ADDRESS PUSH1 0x40 MLOAD DUP3 PUSH4 0xFFFFFFFF AND PUSH1 0xE0 SHL DUP2 MSTORE PUSH1 0x4 ADD PUSH2 0x584 SWAP2 SWAP1 PUSH2 0x1006 JUMP JUMPDEST PUSH1 0x20 PUSH1 0x40 MLOAD DUP1 DUP4 SUB DUP2 DUP7 GAS STATICCALL ISZERO DUP1 ISZERO PUSH2 0x59F JUMPI RETURNDATASIZE PUSH0 DUP1 RETURNDATACOPY RETURNDATASIZE PUSH0 REVERT JUMPDEST POP POP POP POP PUSH1 0x40 MLOAD RETURNDATASIZE PUSH1 0x1F NOT PUSH1 0x1F DUP3 ADD AND DUP3 ADD DUP1 PUSH1 0x40 MSTORE POP DUP2 ADD SWAP1 PUSH2 0x5C3 SWAP2 SWAP1 PUSH2 0x1033 JUMP JUMPDEST SWAP1 POP PUSH0 PUSH32 0x0 PUSH20 0xFFFFFFFFFFFFFFFFFFFFFFFFFFFFFFFFFFFFFFFF AND PUSH4 0x70A08231 ADDRESS PUSH1 0x40 MLOAD DUP3 PUSH4 0xFFFFFFFF AND PUSH1 0xE0 SHL DUP2 MSTORE PUSH1 0x4 ADD PUSH2 0x61F SWAP2 SWAP1 PUSH2 0x1006 JUMP JUMPDEST PUSH1 0x20 PUSH1 0x40 MLOAD DUP1 DUP4 SUB DUP2 DUP7 GAS STATICCALL ISZERO DUP1 ISZERO PUSH2 0x63A JUMPI RETURNDATASIZE PUSH0 DUP1 RETURNDATACOPY RETURNDATASIZE PUSH0 REVERT JUMPDEST POP POP POP POP PUSH1 0x40 MLOAD RETURNDATASIZE PUSH1 0x1F NOT PUSH1 0x1F DUP3 ADD AND DUP3 ADD DUP1 PUSH1 0x40 MSTORE POP DUP2 ADD SWAP1 PUSH2 0x65E SWAP2 SWAP1 PUSH2 0x1033 JUMP JUMPDEST SWAP1 POP PUSH0 DUP1 SLOAD DUP4 PUSH2 0x66E SWAP2 SWAP1 PUSH2 0xF08 JUMP JUMPDEST SWAP1 POP PUSH0 PUSH1 0x1 SLOAD DUP4 PUSH2 0x67F SWAP2 SWAP1 PUSH2 0xF08 JUMP JUMPDEST SWAP1 POP PUSH0 PUSH1 0x2 SLOAD SUB PUSH2 0x69D JUMPI DUP1 DUP3 PUSH2 0x696 SWAP2 SWAP1 PUSH2 0x105E JUMP JUMPDEST SWAP5 POP PUSH2 0x6D2 JUMP JUMPDEST PUSH1 0x1 SLOAD PUSH0 SLOAD PUSH2 0x6AC SWAP2 SWAP1 PUSH2 0x105E JUMP JUMPDEST PUSH1 0x2 SLOAD DUP3 DUP5 PUSH2 0x6BB SWAP2 SWAP1 PUSH2 0x105E JUMP JUMPDEST PUSH2 0x6C5 SWAP2 SWAP1 PUSH2 0xE6A JUMP JUMPDEST PUSH2 0x6CF SWAP2 SWAP1 PUSH2 0xED8 JUMP JUMPDEST SWAP5 POP JUMPDEST PUSH0 DUP6 GT PUSH2 0x714 JUMPI PUSH1 0x40 MLOAD PUSH32 0x8C379A000000000000000000000000000000000000000000000000000000000 DUP2 MSTORE PUSH1 0x4 ADD PUSH2 0x70B SWAP1 PUSH2 0x10EB JUMP JUMPDEST PUSH1 0x40 MLOAD DUP1 SWAP2 SUB SWAP1 REVERT JUMPDEST PUSH2 0x71E CALLER DUP7 PUSH2 0xBA8 JUMP JUMPDEST PUSH2 0x728 DUP5 DUP5 PUSH2 0xB97 JUMP JUMPDEST POP POP POP POP SWAP3 SWAP2 POP POP JUMP JUMPDEST PUSH0 PUSH32 0x0 PUSH20 0xFFFFFFFFFFFFFFFFFFFFFFFFFFFFFFFFFFFFFFFF AND DUP4 PUSH20 0xFFFFFFFFFFFFFFFFFFFFFFFFFFFFFFFFFFFFFFFF AND EQ DUP1 PUSH2 0x7D8 JUMPI POP PUSH32 0x0 PUSH20 0xFFFFFFFFFFFFFFFFFFFFFFFFFFFFFFFFFFFFFFFF AND DUP4 PUSH20 0xFFFFFFFFFFFFFFFFFFFFFFFFFFFFFFFFFFFFFFFF AND EQ JUMPDEST PUSH2 0x817 JUMPI PUSH1 0x40 MLOAD PUSH32 0x8C379A000000000000000000000000000000000000000000000000000000000 DUP2 MSTORE PUSH1 0x4 ADD PUSH2 0x80E SWAP1 PUSH2 0x1153 JUMP JUMPDEST PUSH1 0x40 MLOAD DUP1 SWAP2 SUB SWAP1 REVERT JUMPDEST PUSH0 PUSH32 0x0 PUSH20 0xFFFFFFFFFFFFFFFFFFFFFFFFFFFFFFFFFFFFFFFF AND DUP5 PUSH20 0xFFFFFFFFFFFFFFFFFFFFFFFFFFFFFFFFFFFFFFFF AND EQ SWAP1 POP PUSH0 DUP1 PUSH0 DUP1 DUP5 PUSH2 0x8BE JUMPI PUSH32 0x0 PUSH32 0x0 PUSH1 0x1 SLOAD PUSH0 SLOAD PUSH2 0x906 JUMP JUMPDEST PUSH32 0x0 PUSH32 0x0 PUSH0 SLOAD PUSH1 0x1 SLOAD JUMPDEST SWAP4 POP SWAP4 POP SWAP4 POP SWAP4 POP DUP4 PUSH20 0xFFFFFFFFFFFFFFFFFFFFFFFFFFFFFFFFFFFFFFFF AND PUSH4 0x23B872DD CALLER ADDRESS DUP11 PUSH1 0x40 MLOAD DUP5 PUSH4 0xFFFFFFFF AND PUSH1 0xE0 SHL DUP2 MSTORE PUSH1 0x4 ADD PUSH2 0x94B SWAP4 SWAP3 SWAP2 SWAP1 PUSH2 0xFD1 JUMP JUMPDEST PUSH1 0x20 PUSH1 0x40 MLOAD DUP1 DUP4 SUB DUP2 PUSH0 DUP8 GAS CALL ISZERO DUP1 ISZERO PUSH2 0x967 JUMPI RETURNDATASIZE PUSH0 DUP1 RETURNDATACOPY RETURNDATASIZE PUSH0 REVERT JUMPDEST POP POP POP POP PUSH1 0x40 MLOAD RETURNDATASIZE PUSH1 0x1F NOT PUSH1 0x1F DUP3 ADD AND DUP3 ADD DUP1 PUSH1 0x40 MSTORE POP DUP2 ADD SWAP1 PUSH2 0x98B SWAP2 SWAP1 PUSH2 0xFA6 JUMP JUMPDEST POP PUSH0 DUP3 DUP6 PUSH20 0xFFFFFFFFFFFFFFFFFFFFFFFFFFFFFFFFFFFFFFFF AND PUSH4 0x70A08231 ADDRESS PUSH1 0x40 MLOAD DUP3 PUSH4 0xFFFFFFFF AND PUSH1 0xE0 SHL DUP2 MSTORE PUSH1 0x4 ADD PUSH2 0x9C7 SWAP2 SWAP1 PUSH2 0x1006 JUMP JUMPDEST PUSH1 0x20 PUSH1 0x40 MLOAD DUP1 DUP4 SUB DUP2 DUP7 GAS STATICCALL ISZERO DUP1 ISZERO PUSH2 0x9E2 JUMPI RETURNDATASIZE PUSH0 DUP1 RETURNDATACOPY RETURNDATASIZE PUSH0 REVERT JUMPDEST POP POP POP POP PUSH1 0x40 MLOAD RETURNDATASIZE PUSH1 0x1F NOT PUSH1 0x1F DUP3 ADD AND DUP3 ADD DUP1 PUSH1 0x40 MSTORE POP DUP2 ADD SWAP1 PUSH2 0xA06 SWAP2 SWAP1 PUSH2 0x1033 JUMP JUMPDEST PUSH2 0xA10 SWAP2 SWAP1 PUSH2 0xF08 JUMP JUMPDEST SWAP1 POP PUSH2 0x3E8 PUSH2 0x3E5 DUP3 PUSH2 0xA23 SWAP2 SWAP1 PUSH2 0xE6A JUMP JUMPDEST PUSH2 0xA2D SWAP2 SWAP1 PUSH2 0xED8 JUMP JUMPDEST SWAP7 POP PUSH0 DUP1 DUP8 PUSH2 0xA53 JUMPI DUP9 DUP6 PUSH2 0xA42 SWAP2 SWAP1 PUSH2 0xF08 JUMP JUMPDEST DUP11 DUP6 PUSH2 0xA4E SWAP2 SWAP1 PUSH2 0x105E JUMP JUMPDEST PUSH2 0xA6C JUMP JUMPDEST DUP10 DUP6 PUSH2 0xA5F SWAP2 SWAP1 PUSH2 0x105E JUMP JUMPDEST DUP10 DUP6 PUSH2 0xA6B SWAP2 SWAP1 PUSH2 0xF08 JUMP JUMPDEST JUMPDEST SWAP2 POP SWAP2 POP PUSH2 0xA7A DUP3 DUP3 PUSH2 0xB97 JUMP JUMPDEST DUP6 PUSH20 0xFFFFFFFFFFFFFFFFFFFFFFFFFFFFFFFFFFFFFFFF AND PUSH4 0xA9059CBB CALLER DUP12 PUSH1 0x40 MLOAD DUP4 PUSH4 0xFFFFFFFF AND PUSH1 0xE0 SHL DUP2 MSTORE PUSH1 0x4 ADD PUSH2 0xAB5 SWAP3 SWAP2 SWAP1 PUSH2 0xF4A JUMP JUMPDEST PUSH1 0x20 PUSH1 0x40 MLOAD DUP1 DUP4 SUB DUP2 PUSH0 DUP8 GAS CALL ISZERO DUP1 ISZERO PUSH2 0xAD1 JUMPI RETURNDATASIZE PUSH0 DUP1 RETURNDATACOPY RETURNDATASIZE PUSH0 REVERT JUMPDEST POP POP POP POP PUSH1 0x40 MLOAD RETURNDATASIZE PUSH1 0x1F NOT PUSH1 0x1F DUP3 ADD AND DUP3 ADD DUP1 PUSH1 0x40 MSTORE POP DUP2 ADD SWAP1 PUSH2 0xAF5 SWAP2 SWAP1 PUSH2 0xFA6 JUMP JUMPDEST POP POP POP POP POP POP POP POP POP SWAP3 SWAP2 POP POP JUMP JUMPDEST PUSH32 0x0 DUP2 JUMP JUMPDEST DUP1 PUSH1 0x3 PUSH0 DUP5 PUSH20 0xFFFFFFFFFFFFFFFFFFFFFFFFFFFFFFFFFFFFFFFF AND PUSH20 0xFFFFFFFFFFFFFFFFFFFFFFFFFFFFFFFFFFFFFFFF AND DUP2 MSTORE PUSH1 0x20 ADD SWAP1 DUP2 MSTORE PUSH1 0x20 ADD PUSH0 KECCAK256 PUSH0 DUP3 DUP3 SLOAD PUSH2 0xB74 SWAP2 SWAP1 PUSH2 0xF08 JUMP JUMPDEST SWAP3 POP POP DUP2 SWAP1 SSTORE POP DUP1 PUSH1 0x2 PUSH0 DUP3 DUP3 SLOAD PUSH2 0xB8C SWAP2 SWAP1 PUSH2 0xF08 JUMP JUMPDEST SWAP3 POP POP DUP2 SWAP1 SSTORE POP POP POP JUMP JUMPDEST DUP2 PUSH0 DUP2 SWAP1 SSTORE POP DUP1 PUSH1 0x1 DUP2 SWAP1 SSTORE POP POP POP JUMP JUMPDEST DUP1 PUSH1 0x3 PUSH0 DUP5 PUSH20 0xFFFFFFFFFFFFFFFFFFFFFFFFFFFFFFFFFFFFFFFF AND PUSH20 0xFFFFFFFFFFFFFFFFFFFFFFFFFFFFFFFFFFFFFFFF AND DUP2 MSTORE PUSH1 0x20 ADD SWAP1 DUP2 MSTORE PUSH1 0x20 ADD PUSH0 KECCAK256 PUSH0 DUP3 DUP3 SLOAD PUSH2 0xBF4 SWAP2 SWAP1 PUSH2 0x105E JUMP JUMPDEST SWAP3 POP POP DUP2 SWAP1 SSTORE POP DUP1 PUSH1 0x2 PUSH0 DUP3 DUP3 SLOAD PUSH2 0xC0C SWAP2 SWAP1 PUSH2 0x105E JUMP JUMPDEST SWAP3 POP POP DUP2 SWAP1 SSTORE POP POP POP JUMP JUMPDEST PUSH0 PUSH20 0xFFFFFFFFFFFFFFFFFFFFFFFFFFFFFFFFFFFFFFFF DUP3 AND SWAP1 POP SWAP2 SWAP1 POP JUMP JUMPDEST PUSH0 DUP2 SWAP1 POP SWAP2 SWAP1 POP JUMP JUMPDEST PUSH0 PUSH2 0xC59 PUSH2 0xC54 PUSH2 0xC4F DUP5 PUSH2 0xC17 JUMP JUMPDEST PUSH2 0xC36 JUMP JUMPDEST PUSH2 0xC17 JUMP JUMPDEST SWAP1 POP SWAP2 SWAP1 POP JUMP JUMPDEST PUSH0 PUSH2 0xC6A DUP3 PUSH2 0xC3F JUMP JUMPDEST SWAP1 POP SWAP2 SWAP1 POP JUMP JUMPDEST PUSH0 PUSH2 0xC7B DUP3 PUSH2 0xC60 JUMP JUMPDEST SWAP1 POP SWAP2 SWAP1 POP JUMP JUMPDEST PUSH2 0xC8B DUP2 PUSH2 0xC71 JUMP JUMPDEST DUP3 MSTORE POP POP JUMP JUMPDEST PUSH0 PUSH1 0x20 DUP3 ADD SWAP1 POP PUSH2 0xCA4 PUSH0 DUP4 ADD DUP5 PUSH2 0xC82 JUMP JUMPDEST SWAP3 SWAP2 POP POP JUMP JUMPDEST PUSH0 DUP2 SWAP1 POP SWAP2 SWAP1 POP JUMP JUMPDEST PUSH2 0xCBC DUP2 PUSH2 0xCAA JUMP JUMPDEST DUP3 MSTORE POP POP JUMP JUMPDEST PUSH0 PUSH1 0x20 DUP3 ADD SWAP1 POP PUSH2 0xCD5 PUSH0 DUP4 ADD DUP5 PUSH2 0xCB3 JUMP JUMPDEST SWAP3 SWAP2 POP POP JUMP JUMPDEST PUSH0 DUP1 REVERT JUMPDEST PUSH0 PUSH2 0xCE9 DUP3 PUSH2 0xC17 JUMP JUMPDEST SWAP1 POP SWAP2 SWAP1 POP JUMP JUMPDEST PUSH2 0xCF9 DUP2 PUSH2 0xCDF JUMP JUMPDEST DUP2 EQ PUSH2 0xD03 JUMPI PUSH0 DUP1 REVERT JUMPDEST POP JUMP JUMPDEST PUSH0 DUP2 CALLDATALOAD SWAP1 POP PUSH2 0xD14 DUP2 PUSH2 0xCF0 JUMP JUMPDEST SWAP3 SWAP2 POP POP JUMP JUMPDEST PUSH0 PUSH1 0x20 DUP3 DUP5 SUB SLT ISZERO PUSH2 0xD2F JUMPI PUSH2 0xD2E PUSH2 0xCDB JUMP JUMPDEST JUMPDEST PUSH0 PUSH2 0xD3C DUP5 DUP3 DUP6 ADD PUSH2 0xD06 JUMP JUMPDEST SWAP2 POP POP SWAP3 SWAP2 POP POP JUMP JUMPDEST PUSH2 0xD4E DUP2 PUSH2 0xCAA JUMP JUMPDEST DUP2 EQ PUSH2 0xD58 JUMPI PUSH0 DUP1 REVERT JUMPDEST POP JUMP JUMPDEST PUSH0 DUP2 CALLDATALOAD SWAP1 POP PUSH2 0xD69 DUP2 PUSH2 0xD45 JUMP JUMPDEST SWAP3 SWAP2 POP POP JUMP JUMPDEST PUSH0 PUSH1 0x20 DUP3 DUP5 SUB SLT ISZERO PUSH2 0xD84 JUMPI PUSH2 0xD83 PUSH2 0xCDB JUMP JUMPDEST JUMPDEST PUSH0 PUSH2 0xD91 DUP5 DUP3 DUP6 ADD PUSH2 0xD5B JUMP JUMPDEST SWAP2 POP POP SWAP3 SWAP2 POP POP JUMP JUMPDEST PUSH0 PUSH1 0x40 DUP3 ADD SWAP1 POP PUSH2 0xDAD PUSH0 DUP4 ADD DUP6 PUSH2 0xCB3 JUMP JUMPDEST PUSH2 0xDBA PUSH1 0x20 DUP4 ADD DUP5 PUSH2 0xCB3 JUMP JUMPDEST SWAP4 SWAP3 POP POP POP JUMP JUMPDEST PUSH0 DUP1 PUSH1 0x40 DUP4 DUP6 SUB SLT ISZERO PUSH2 0xDD7 JUMPI PUSH2 0xDD6 PUSH2 0xCDB JUMP JUMPDEST JUMPDEST PUSH0 PUSH2 0xDE4 DUP6 DUP3 DUP7 ADD PUSH2 0xD5B JUMP JUMPDEST SWAP3 POP POP PUSH1 0x20 PUSH2 0xDF5 DUP6 DUP3 DUP7 ADD PUSH2 0xD5B JUMP JUMPDEST SWAP2 POP POP SWAP3 POP SWAP3 SWAP1 POP JUMP JUMPDEST PUSH0 DUP1 PUSH1 0x40 DUP4 DUP6 SUB SLT ISZERO PUSH2 0xE15 JUMPI PUSH2 0xE14 PUSH2 0xCDB JUMP JUMPDEST JUMPDEST PUSH0 PUSH2 0xE22 DUP6 DUP3 DUP7 ADD PUSH2 0xD06 JUMP JUMPDEST SWAP3 POP POP PUSH1 0x20 PUSH2 0xE33 DUP6 DUP3 DUP7 ADD PUSH2 0xD5B JUMP JUMPDEST SWAP2 POP POP SWAP3 POP SWAP3 SWAP1 POP JUMP JUMPDEST PUSH32 0x4E487B7100000000000000000000000000000000000000000000000000000000 PUSH0 MSTORE PUSH1 0x11 PUSH1 0x4 MSTORE PUSH1 0x24 PUSH0 REVERT JUMPDEST PUSH0 PUSH2 0xE74 DUP3 PUSH2 0xCAA JUMP JUMPDEST SWAP2 POP PUSH2 0xE7F DUP4 PUSH2 0xCAA JUMP JUMPDEST SWAP3 POP DUP3 DUP3 MUL PUSH2 0xE8D DUP2 PUSH2 0xCAA JUMP JUMPDEST SWAP2 POP DUP3 DUP3 DIV DUP5 EQ DUP4 ISZERO OR PUSH2 0xEA4 JUMPI PUSH2 0xEA3 PUSH2 0xE3D JUMP JUMPDEST JUMPDEST POP SWAP3 SWAP2 POP POP JUMP JUMPDEST PUSH32 0x4E487B7100000000000000000000000000000000000000000000000000000000 PUSH0 MSTORE PUSH1 0x12 PUSH1 0x4 MSTORE PUSH1 0x24 PUSH0 REVERT JUMPDEST PUSH0 PUSH2 0xEE2 DUP3 PUSH2 0xCAA JUMP JUMPDEST SWAP2 POP PUSH2 0xEED DUP4 PUSH2 0xCAA JUMP JUMPDEST SWAP3 POP DUP3 PUSH2 0xEFD JUMPI PUSH2 0xEFC PUSH2 0xEAB JUMP JUMPDEST JUMPDEST DUP3 DUP3 DIV SWAP1 POP SWAP3 SWAP2 POP POP JUMP JUMPDEST PUSH0 PUSH2 0xF12 DUP3 PUSH2 0xCAA JUMP JUMPDEST SWAP2 POP PUSH2 0xF1D DUP4 PUSH2 0xCAA JUMP JUMPDEST SWAP3 POP DUP3 DUP3 SUB SWAP1 POP DUP2 DUP2 GT ISZERO PUSH2 0xF35 JUMPI PUSH2 0xF34 PUSH2 0xE3D JUMP JUMPDEST JUMPDEST SWAP3 SWAP2 POP POP JUMP JUMPDEST PUSH2 0xF44 DUP2 PUSH2 0xCDF JUMP JUMPDEST DUP3 MSTORE POP POP JUMP JUMPDEST PUSH0 PUSH1 0x40 DUP3 ADD SWAP1 POP PUSH2 0xF5D PUSH0 DUP4 ADD DUP6 PUSH2 0xF3B JUMP JUMPDEST PUSH2 0xF6A PUSH1 0x20 DUP4 ADD DUP5 PUSH2 0xCB3 JUMP JUMPDEST SWAP4 SWAP3 POP POP POP JUMP JUMPDEST PUSH0 DUP2 ISZERO ISZERO SWAP1 POP SWAP2 SWAP1 POP JUMP JUMPDEST PUSH2 0xF85 DUP2 PUSH2 0xF71 JUMP JUMPDEST DUP2 EQ PUSH2 0xF8F JUMPI PUSH0 DUP1 REVERT JUMPDEST POP JUMP JUMPDEST PUSH0 DUP2 MLOAD SWAP1 POP PUSH2 0xFA0 DUP2 PUSH2 0xF7C JUMP JUMPDEST SWAP3 SWAP2 POP POP JUMP JUMPDEST PUSH0 PUSH1 0x20 DUP3 DUP5 SUB SLT ISZERO PUSH2 0xFBB JUMPI PUSH2 0xFBA PUSH2 0xCDB JUMP JUMPDEST JUMPDEST PUSH0 PUSH2 0xFC8 DUP5 DUP3 DUP6 ADD PUSH2 0xF92 JUMP JUMPDEST SWAP2 POP POP SWAP3 SWAP2 POP POP JUMP JUMPDEST PUSH0 PUSH1 0x60 DUP3 ADD SWAP1 POP PUSH2 0xFE4 PUSH0 DUP4 ADD DUP7 PUSH2 0xF3B JUMP JUMPDEST PUSH2 0xFF1 PUSH1 0x20 DUP4 ADD DUP6 PUSH2 0xF3B JUMP JUMPDEST PUSH2 0xFFE PUSH1 0x40 DUP4 ADD DUP5 PUSH2 0xCB3 JUMP JUMPDEST SWAP5 SWAP4 POP POP POP POP JUMP JUMPDEST PUSH0 PUSH1 0x20 DUP3 ADD SWAP1 POP PUSH2 0x1019 PUSH0 DUP4 ADD DUP5 PUSH2 0xF3B JUMP JUMPDEST SWAP3 SWAP2 POP POP JUMP JUMPDEST PUSH0 DUP2 MLOAD SWAP1 POP PUSH2 0x102D DUP2 PUSH2 0xD45 JUMP JUMPDEST SWAP3 SWAP2 POP POP JUMP JUMPDEST PUSH0 PUSH1 0x20 DUP3 DUP5 SUB SLT ISZERO PUSH2 0x1048 JUMPI PUSH2 0x1047 PUSH2 0xCDB JUMP JUMPDEST JUMPDEST PUSH0 PUSH2 0x1055 DUP5 DUP3 DUP6 ADD PUSH2 0x101F JUMP JUMPDEST SWAP2 POP POP SWAP3 SWAP2 POP POP JUMP JUMPDEST PUSH0 PUSH2 0x1068 DUP3 PUSH2 0xCAA JUMP JUMPDEST SWAP2 POP PUSH2 0x1073 DUP4 PUSH2 0xCAA JUMP JUMPDEST SWAP3 POP DUP3 DUP3 ADD SWAP1 POP DUP1 DUP3 GT ISZERO PUSH2 0x108B JUMPI PUSH2 0x108A PUSH2 0xE3D JUMP JUMPDEST JUMPDEST SWAP3 SWAP2 POP POP JUMP JUMPDEST PUSH0 DUP3 DUP3 MSTORE PUSH1 0x20 DUP3 ADD SWAP1 POP SWAP3 SWAP2 POP POP JUMP JUMPDEST PUSH32 0x7368617265203D20300000000000000000000000000000000000000000000000 PUSH0 DUP3 ADD MSTORE POP JUMP JUMPDEST PUSH0 PUSH2 0x10D5 PUSH1 0x9 DUP4 PUSH2 0x1091 JUMP JUMPDEST SWAP2 POP PUSH2 0x10E0 DUP3 PUSH2 0x10A1 JUMP JUMPDEST PUSH1 0x20 DUP3 ADD SWAP1 POP SWAP2 SWAP1 POP JUMP JUMPDEST PUSH0 PUSH1 0x20 DUP3 ADD SWAP1 POP DUP2 DUP2 SUB PUSH0 DUP4 ADD MSTORE PUSH2 0x1102 DUP2 PUSH2 0x10C9 JUMP JUMPDEST SWAP1 POP SWAP2 SWAP1 POP JUMP JUMPDEST PUSH32 0x696E76616C696420746F6B656E00000000000000000000000000000000000000 PUSH0 DUP3 ADD MSTORE POP JUMP JUMPDEST PUSH0 PUSH2 0x113D PUSH1 0xD DUP4 PUSH2 0x1091 JUMP JUMPDEST SWAP2 POP PUSH2 0x1148 DUP3 PUSH2 0x1109 JUMP JUMPDEST PUSH1 0x20 DUP3 ADD SWAP1 POP SWAP2 SWAP1 POP JUMP JUMPDEST PUSH0 PUSH1 0x20 DUP3 ADD SWAP1 POP DUP2 DUP2 SUB PUSH0 DUP4 ADD MSTORE PUSH2 0x116A DUP2 PUSH2 0x1131 JUMP JUMPDEST SWAP1 POP SWAP2 SWAP1 POP JUMP INVALID LOG2 PUSH5 0x6970667358 0x22 SLT KECCAK256 0xB0 0xCA PUSH30 0xF376064506EC0830F7E04A14C43206C9A8026B221CAAAF34176B7567B264 PUSH20 0x6F6C634300081800330000000000000000000000 "
				},
				"gasEstimates": {
					"creation": {
						"codeDepositCost": "903800",
						"executionCost": "infinite",
						"totalCost": "infinite"
					},
					"external": {
						"addLiquidity(uint256,uint256)": "infinite",
						"balanceOf(address)": "2802",
						"removeLiquidity(uint256)": "infinite",
						"reserve0()": "2469",
						"reserve1()": "2492",
						"swap(address,uint256)": "infinite",
						"token0()": "infinite",
						"token1()": "infinite",
						"totalSupply()": "2448"
					},
					"internal": {
						"_burn(address,uint256)": "infinite",
						"_mint(address,uint256)": "infinite",
						"_update(uint256,uint256)": "44240"
					}
				},
				"methodIdentifiers": {
					"addLiquidity(uint256,uint256)": "9cd441da",
					"balanceOf(address)": "70a08231",
					"removeLiquidity(uint256)": "9c8f9f23",
					"reserve0()": "443cb4bc",
					"reserve1()": "5a76f25e",
					"swap(address,uint256)": "d004f0f7",
					"token0()": "0dfe1681",
					"token1()": "d21220a7",
					"totalSupply()": "18160ddd"
				}
			},
			"storageLayout": {
				"storage": [
					{
						"astId": 92,
						"contract": "tests/ConstantSumAutomatedMarket.sol:CSAMM",
						"label": "reserve0",
						"offset": 0,
						"slot": "0",
						"type": "t_uint256"
					},
					{
						"astId": 94,
						"contract": "tests/ConstantSumAutomatedMarket.sol:CSAMM",
						"label": "reserve1",
						"offset": 0,
						"slot": "1",
						"type": "t_uint256"
					},
					{
						"astId": 96,
						"contract": "tests/ConstantSumAutomatedMarket.sol:CSAMM",
						"label": "totalSupply",
						"offset": 0,
						"slot": "2",
						"type": "t_uint256"
					},
					{
						"astId": 100,
						"contract": "tests/ConstantSumAutomatedMarket.sol:CSAMM",
						"label": "balanceOf",
						"offset": 0,
						"slot": "3",
						"type": "t_mapping(t_address,t_uint256)"
					}
				],
				"types": {
					"t_address": {
						"encoding": "inplace",
						"label": "address",
						"numberOfBytes": "20"
					},
					"t_mapping(t_address,t_uint256)": {
						"encoding": "mapping",
						"key": "t_address",
						"label": "mapping(address => uint256)",
						"numberOfBytes": "32",
						"value": "t_uint256"
					},
					"t_uint256": {
						"encoding": "inplace",
						"label": "uint256",
						"numberOfBytes": "32"
					}
				}
			},
			"userdoc": {
				"kind": "user",
				"methods": {},
				"version": 1
			}
		}
	}
}