{
	"tests/MultiSigWallet.sol": {
		"MultiSigWallet": {
			"abi": [
				{
					"inputs": [
						{
							"internalType": "address[]",
							"name": "_owners",
							"type": "address[]"
						},
						{
							"internalType": "uint256",
							"name": "_required",
							"type": "uint256"
						}
					],
					"stateMutability": "nonpayable",
					"type": "constructor"
				},
				{
					"anonymous": false,
					"inputs": [
						{
							"indexed": true,
							"internalType": "address",
							"name": "owner",
							"type": "address"
						},
						{
							"indexed": true,
							"internalType": "uint256",
							"name": "txId",
							"type": "uint256"
						}
					],
					"name": "Approve",
					"type": "event"
				},
				{
					"anonymous": false,
					"inputs": [
						{
							"indexed": true,
							"internalType": "address",
							"name": "sender",
							"type": "address"
						},
						{
							"indexed": false,
							"internalType": "uint256",
							"name": "amount",
							"type": "uint256"
						}
					],
					"name": "Deposit",
					"type": "event"
				},
				{
					"anonymous": false,
					"inputs": [
						{
							"indexed": true,
							"internalType": "uint256",
							"name": "txId",
							"type": "uint256"
						}
					],
					"name": "Execute",
					"type": "event"
				},
				{
					"anonymous": false,
					"inputs": [
						{
							"indexed": true,
							"internalType": "address",
							"name": "owner",
							"type": "address"
						},
						{
							"indexed": true,
							"internalType": "uint256",
							"name": "txId",
							"type": "uint256"
						}
					],
					"name": "Revoke",
					"type": "event"
				},
				{
					"anonymous": false,
					"inputs": [
						{
							"indexed": true,
							"internalType": "uint256",
							"name": "txId",
							"type": "uint256"
						}
					],
					"name": "Submit",
					"type": "event"
				},
				{
					"inputs": [
						{
							"internalType": "uint256",
							"name": "_txId",
							"type": "uint256"
						}
					],
					"name": "approve",
					"outputs": [],
					"stateMutability": "nonpayable",
					"type": "function"
				},
				{
					"inputs": [
						{
							"internalType": "uint256",
							"name": "",
							"type": "uint256"
						},
						{
							"internalType": "address",
							"name": "",
							"type": "address"
						}
					],
					"name": "approved",
					"outputs": [
						{
							"internalType": "bool",
							"name": "",
							"type": "bool"
						}
					],
					"stateMutability": "view",
					"type": "function"
				},
				{
					"inputs": [
						{
							"internalType": "uint256",
							"name": "_txId",
							"type": "uint256"
						}
					],
					"name": "execute",
					"outputs": [],
					"stateMutability": "nonpayable",
					"type": "function"
				},
				{
					"inputs": [
						{
							"internalType": "address",
							"name": "",
							"type": "address"
						}
					],
					"name": "isOwner",
					"outputs": [
						{
							"internalType": "bool",
							"name": "",
							"type": "bool"
						}
					],
					"stateMutability": "view",
					"type": "function"
				},
				{
					"inputs": [
						{
							"internalType": "uint256",
							"name": "",
							"type": "uint256"
						}
					],
					"name": "owners",
					"outputs": [
						{
							"internalType": "address",
							"name": "",
							"type": "address"
						}
					],
					"stateMutability": "view",
					"type": "function"
				},
				{
					"inputs": [],
					"name": "required",
					"outputs": [
						{
							"internalType": "uint256",
							"name": "",
							"type": "uint256"
						}
					],
					"stateMutability": "view",
					"type": "function"
				},
				{
					"inputs": [
						{
							"internalType": "uint256",
							"name": "_txId",
							"type": "uint256"
						}
					],
					"name": "revoke",
					"outputs": [],
					"stateMutability": "nonpayable",
					"type": "function"
				},
				{
					"inputs": [
						{
							"internalType": "address",
							"name": "_to",
							"type": "address"
						},
						{
							"internalType": "uint256",
							"name": "_value",
							"type": "uint256"
						},
						{
							"internalType": "bytes",
							"name": "_data",
							"type": "bytes"
						}
					],
					"name": "submit",
					"outputs": [],
					"stateMutability": "nonpayable",
					"type": "function"
				},
				{
					"inputs": [
						{
							"internalType": "uint256",
							"name": "",
							"type": "uint256"
						}
					],
					"name": "transactions",
					"outputs": [
						{
							"internalType": "address",
							"name": "to",
							"type": "address"
						},
						{
							"internalType": "uint256",
							"name": "value",
							"type": "uint256"
						},
						{
							"internalType": "bytes",
							"name": "data",
							"type": "bytes"
						},
						{
							"internalType": "bool",
							"name": "executed",
							"type": "bool"
						}
					],
					"stateMutability": "view",
					"type": "function"
				},
				{
					"stateMutability": "payable",
					"type": "receive"
				}
			],
			"devdoc": {
				"kind": "dev",
				"methods": {},
				"version": 1
			},
			"evm": {
				"assembly": "    /* \"tests/MultiSigWallet.sol\":60:3348  contract MultiSigWallet {... */\n  mstore(0x40, 0x80)\n    /* \"tests/MultiSigWallet.sol\":1173:1733  constructor(address[] memory _owners, uint _required) {... */\n  callvalue\n  dup1\n  iszero\n  tag_1\n  jumpi\n  0x00\n  dup1\n  revert\ntag_1:\n  pop\n  mload(0x40)\n  sub(codesize, bytecodeSize)\n  dup1\n  bytecodeSize\n  dup4\n  codecopy\n  dup2\n  dup2\n  add\n  0x40\n  mstore\n  dup2\n  add\n  swap1\n  tag_2\n  swap2\n  swap1\n  tag_3\n  jump\t// in\ntag_2:\n    /* \"tests/MultiSigWallet.sol\":1263:1264  0 */\n  0x00\n    /* \"tests/MultiSigWallet.sol\":1246:1253  _owners */\n  dup3\n    /* \"tests/MultiSigWallet.sol\":1246:1260  _owners.length */\n  mload\n    /* \"tests/MultiSigWallet.sol\":1246:1264  _owners.length > 0 */\n  gt\n    /* \"tests/MultiSigWallet.sol\":1238:1282  require(_owners.length > 0, \"owner require\") */\n  tag_6\n  jumpi\n  mload(0x40)\n  0x08c379a000000000000000000000000000000000000000000000000000000000\n  dup2\n  mstore\n  0x04\n  add\n  tag_7\n  swap1\n  tag_8\n  jump\t// in\ntag_7:\n  mload(0x40)\n  dup1\n  swap2\n  sub\n  swap1\n  revert\ntag_6:\n    /* \"tests/MultiSigWallet.sol\":1327:1328  0 */\n  0x00\n    /* \"tests/MultiSigWallet.sol\":1315:1324  _required */\n  dup2\n    /* \"tests/MultiSigWallet.sol\":1315:1328  _required > 0 */\n  gt\n    /* \"tests/MultiSigWallet.sol\":1315:1358  _required > 0 && _required <= owners.length */\n  dup1\n  iszero\n  tag_9\n  jumpi\n  pop\n    /* \"tests/MultiSigWallet.sol\":1345:1351  owners */\n  0x00\n    /* \"tests/MultiSigWallet.sol\":1345:1358  owners.length */\n  dup1\n  sload\n  swap1\n  pop\n    /* \"tests/MultiSigWallet.sol\":1332:1341  _required */\n  dup2\n    /* \"tests/MultiSigWallet.sol\":1332:1358  _required <= owners.length */\n  gt\n  iszero\n    /* \"tests/MultiSigWallet.sol\":1315:1358  _required > 0 && _required <= owners.length */\ntag_9:\n    /* \"tests/MultiSigWallet.sol\":1293:1397  require(... */\n  tag_10\n  jumpi\n  mload(0x40)\n  0x08c379a000000000000000000000000000000000000000000000000000000000\n  dup2\n  mstore\n  0x04\n  add\n  tag_11\n  swap1\n  tag_12\n  jump\t// in\ntag_11:\n  mload(0x40)\n  dup1\n  swap2\n  sub\n  swap1\n  revert\ntag_10:\n    /* \"tests/MultiSigWallet.sol\":1415:1421  uint i */\n  0x00\n    /* \"tests/MultiSigWallet.sol\":1410:1695  for (uint i; i < _owners.length; i++){... */\ntag_13:\n    /* \"tests/MultiSigWallet.sol\":1427:1434  _owners */\n  dup3\n    /* \"tests/MultiSigWallet.sol\":1427:1441  _owners.length */\n  mload\n    /* \"tests/MultiSigWallet.sol\":1423:1424  i */\n  dup2\n    /* \"tests/MultiSigWallet.sol\":1423:1441  i < _owners.length */\n  lt\n    /* \"tests/MultiSigWallet.sol\":1410:1695  for (uint i; i < _owners.length; i++){... */\n  iszero\n  tag_14\n  jumpi\n    /* \"tests/MultiSigWallet.sol\":1462:1475  address owner */\n  0x00\n    /* \"tests/MultiSigWallet.sol\":1478:1485  _owners */\n  dup4\n    /* \"tests/MultiSigWallet.sol\":1486:1487  i */\n  dup3\n    /* \"tests/MultiSigWallet.sol\":1478:1488  _owners[i] */\n  dup2\n  mload\n  dup2\n  lt\n  tag_16\n  jumpi\n  tag_17\n  tag_18\n  jump\t// in\ntag_17:\ntag_16:\n  0x20\n  mul\n  0x20\n  add\n  add\n  mload\n    /* \"tests/MultiSigWallet.sol\":1462:1488  address owner = _owners[i] */\n  swap1\n  pop\n    /* \"tests/MultiSigWallet.sol\":1530:1531  0 */\n  0x00\n    /* \"tests/MultiSigWallet.sol\":1513:1532  owner != address(0) */\n  0xffffffffffffffffffffffffffffffffffffffff\n  and\n    /* \"tests/MultiSigWallet.sol\":1513:1518  owner */\n  dup2\n    /* \"tests/MultiSigWallet.sol\":1513:1532  owner != address(0) */\n  0xffffffffffffffffffffffffffffffffffffffff\n  and\n  sub\n    /* \"tests/MultiSigWallet.sol\":1505:1550  require(owner != address(0), \"invalid owner\") */\n  tag_19\n  jumpi\n  mload(0x40)\n  0x08c379a000000000000000000000000000000000000000000000000000000000\n  dup2\n  mstore\n  0x04\n  add\n  tag_20\n  swap1\n  tag_21\n  jump\t// in\ntag_20:\n  mload(0x40)\n  dup1\n  swap2\n  sub\n  swap1\n  revert\ntag_19:\n    /* \"tests/MultiSigWallet.sol\":1574:1581  isOwner */\n  0x01\n    /* \"tests/MultiSigWallet.sol\":1574:1588  isOwner[owner] */\n  0x00\n    /* \"tests/MultiSigWallet.sol\":1582:1587  owner */\n  dup3\n    /* \"tests/MultiSigWallet.sol\":1574:1588  isOwner[owner] */\n  0xffffffffffffffffffffffffffffffffffffffff\n  and\n  0xffffffffffffffffffffffffffffffffffffffff\n  and\n  dup2\n  mstore\n  0x20\n  add\n  swap1\n  dup2\n  mstore\n  0x20\n  add\n  0x00\n  keccak256\n  0x00\n  swap1\n  sload\n  swap1\n  0x0100\n  exp\n  swap1\n  div\n  0xff\n  and\n    /* \"tests/MultiSigWallet.sol\":1573:1588  !isOwner[owner] */\n  iszero\n    /* \"tests/MultiSigWallet.sol\":1565:1612  require(!isOwner[owner], \"owner is not unique\") */\n  tag_22\n  jumpi\n  mload(0x40)\n  0x08c379a000000000000000000000000000000000000000000000000000000000\n  dup2\n  mstore\n  0x04\n  add\n  tag_23\n  swap1\n  tag_24\n  jump\t// in\ntag_23:\n  mload(0x40)\n  dup1\n  swap2\n  sub\n  swap1\n  revert\ntag_22:\n    /* \"tests/MultiSigWallet.sol\":1646:1650  true */\n  0x01\n    /* \"tests/MultiSigWallet.sol\":1629:1636  isOwner */\n  dup1\n    /* \"tests/MultiSigWallet.sol\":1629:1643  isOwner[owner] */\n  0x00\n    /* \"tests/MultiSigWallet.sol\":1637:1642  owner */\n  dup4\n    /* \"tests/MultiSigWallet.sol\":1629:1643  isOwner[owner] */\n  0xffffffffffffffffffffffffffffffffffffffff\n  and\n  0xffffffffffffffffffffffffffffffffffffffff\n  and\n  dup2\n  mstore\n  0x20\n  add\n  swap1\n  dup2\n  mstore\n  0x20\n  add\n  0x00\n  keccak256\n  0x00\n    /* \"tests/MultiSigWallet.sol\":1629:1650  isOwner[owner] = true */\n  0x0100\n  exp\n  dup2\n  sload\n  dup2\n  0xff\n  mul\n  not\n  and\n  swap1\n  dup4\n  iszero\n  iszero\n  mul\n  or\n  swap1\n  sstore\n  pop\n    /* \"tests/MultiSigWallet.sol\":1665:1671  owners */\n  0x00\n    /* \"tests/MultiSigWallet.sol\":1677:1682  owner */\n  dup2\n    /* \"tests/MultiSigWallet.sol\":1665:1683  owners.push(owner) */\n  swap1\n  dup1\n  0x01\n  dup2\n  sload\n  add\n  dup1\n  dup3\n  sstore\n  dup1\n  swap2\n  pop\n  pop\n  0x01\n  swap1\n  sub\n  swap1\n  0x00\n  mstore\n  keccak256(0x00, 0x20)\n  add\n  0x00\n  swap1\n  swap2\n  swap1\n  swap2\n  swap1\n  swap2\n  0x0100\n  exp\n  dup2\n  sload\n  dup2\n  0xffffffffffffffffffffffffffffffffffffffff\n  mul\n  not\n  and\n  swap1\n  dup4\n  0xffffffffffffffffffffffffffffffffffffffff\n  and\n  mul\n  or\n  swap1\n  sstore\n  pop\n    /* \"tests/MultiSigWallet.sol\":1447:1695  {... */\n  pop\n    /* \"tests/MultiSigWallet.sol\":1443:1446  i++ */\n  dup1\n  dup1\n  0x01\n  add\n  swap2\n  pop\n  pop\n    /* \"tests/MultiSigWallet.sol\":1410:1695  for (uint i; i < _owners.length; i++){... */\n  jump(tag_13)\ntag_14:\n  pop\n    /* \"tests/MultiSigWallet.sol\":1716:1725  _required */\n  dup1\n    /* \"tests/MultiSigWallet.sol\":1705:1713  required */\n  0x02\n    /* \"tests/MultiSigWallet.sol\":1705:1725  required = _required */\n  dup2\n  swap1\n  sstore\n  pop\n    /* \"tests/MultiSigWallet.sol\":1173:1733  constructor(address[] memory _owners, uint _required) {... */\n  pop\n  pop\n    /* \"tests/MultiSigWallet.sol\":60:3348  contract MultiSigWallet {... */\n  jump(tag_26)\n    /* \"#utility.yul\":7:82   */\ntag_27:\n    /* \"#utility.yul\":40:46   */\n  0x00\n    /* \"#utility.yul\":73:75   */\n  0x40\n    /* \"#utility.yul\":67:76   */\n  mload\n    /* \"#utility.yul\":57:76   */\n  swap1\n  pop\n    /* \"#utility.yul\":7:82   */\n  swap1\n  jump\t// out\n    /* \"#utility.yul\":88:205   */\ntag_28:\n    /* \"#utility.yul\":197:198   */\n  0x00\n    /* \"#utility.yul\":194:195   */\n  dup1\n    /* \"#utility.yul\":187:199   */\n  revert\n    /* \"#utility.yul\":211:328   */\ntag_29:\n    /* \"#utility.yul\":320:321   */\n  0x00\n    /* \"#utility.yul\":317:318   */\n  dup1\n    /* \"#utility.yul\":310:322   */\n  revert\n    /* \"#utility.yul\":334:451   */\ntag_30:\n    /* \"#utility.yul\":443:444   */\n  0x00\n    /* \"#utility.yul\":440:441   */\n  dup1\n    /* \"#utility.yul\":433:445   */\n  revert\n    /* \"#utility.yul\":457:559   */\ntag_31:\n    /* \"#utility.yul\":498:504   */\n  0x00\n    /* \"#utility.yul\":549:551   */\n  0x1f\n    /* \"#utility.yul\":545:552   */\n  not\n    /* \"#utility.yul\":540:542   */\n  0x1f\n    /* \"#utility.yul\":533:538   */\n  dup4\n    /* \"#utility.yul\":529:543   */\n  add\n    /* \"#utility.yul\":525:553   */\n  and\n    /* \"#utility.yul\":515:553   */\n  swap1\n  pop\n    /* \"#utility.yul\":457:559   */\n  swap2\n  swap1\n  pop\n  jump\t// out\n    /* \"#utility.yul\":565:745   */\ntag_32:\n    /* \"#utility.yul\":613:690   */\n  0x4e487b7100000000000000000000000000000000000000000000000000000000\n    /* \"#utility.yul\":610:611   */\n  0x00\n    /* \"#utility.yul\":603:691   */\n  mstore\n    /* \"#utility.yul\":710:714   */\n  0x41\n    /* \"#utility.yul\":707:708   */\n  0x04\n    /* \"#utility.yul\":700:715   */\n  mstore\n    /* \"#utility.yul\":734:738   */\n  0x24\n    /* \"#utility.yul\":731:732   */\n  0x00\n    /* \"#utility.yul\":724:739   */\n  revert\n    /* \"#utility.yul\":751:1032   */\ntag_33:\n    /* \"#utility.yul\":834:861   */\n  tag_63\n    /* \"#utility.yul\":856:860   */\n  dup3\n    /* \"#utility.yul\":834:861   */\n  tag_31\n  jump\t// in\ntag_63:\n    /* \"#utility.yul\":826:832   */\n  dup2\n    /* \"#utility.yul\":822:862   */\n  add\n    /* \"#utility.yul\":964:970   */\n  dup2\n    /* \"#utility.yul\":952:962   */\n  dup2\n    /* \"#utility.yul\":949:971   */\n  lt\n    /* \"#utility.yul\":928:946   */\n  0xffffffffffffffff\n    /* \"#utility.yul\":916:926   */\n  dup3\n    /* \"#utility.yul\":913:947   */\n  gt\n    /* \"#utility.yul\":910:972   */\n  or\n    /* \"#utility.yul\":907:995   */\n  iszero\n  tag_64\n  jumpi\n    /* \"#utility.yul\":975:993   */\n  tag_65\n  tag_32\n  jump\t// in\ntag_65:\n    /* \"#utility.yul\":907:995   */\ntag_64:\n    /* \"#utility.yul\":1015:1025   */\n  dup1\n    /* \"#utility.yul\":1011:1013   */\n  0x40\n    /* \"#utility.yul\":1004:1026   */\n  mstore\n    /* \"#utility.yul\":794:1032   */\n  pop\n    /* \"#utility.yul\":751:1032   */\n  pop\n  pop\n  jump\t// out\n    /* \"#utility.yul\":1038:1167   */\ntag_34:\n    /* \"#utility.yul\":1072:1078   */\n  0x00\n    /* \"#utility.yul\":1099:1119   */\n  tag_67\n  tag_27\n  jump\t// in\ntag_67:\n    /* \"#utility.yul\":1089:1119   */\n  swap1\n  pop\n    /* \"#utility.yul\":1128:1161   */\n  tag_68\n    /* \"#utility.yul\":1156:1160   */\n  dup3\n    /* \"#utility.yul\":1148:1154   */\n  dup3\n    /* \"#utility.yul\":1128:1161   */\n  tag_33\n  jump\t// in\ntag_68:\n    /* \"#utility.yul\":1038:1167   */\n  swap2\n  swap1\n  pop\n  jump\t// out\n    /* \"#utility.yul\":1173:1484   */\ntag_35:\n    /* \"#utility.yul\":1250:1254   */\n  0x00\n    /* \"#utility.yul\":1340:1358   */\n  0xffffffffffffffff\n    /* \"#utility.yul\":1332:1338   */\n  dup3\n    /* \"#utility.yul\":1329:1359   */\n  gt\n    /* \"#utility.yul\":1326:1382   */\n  iszero\n  tag_70\n  jumpi\n    /* \"#utility.yul\":1362:1380   */\n  tag_71\n  tag_32\n  jump\t// in\ntag_71:\n    /* \"#utility.yul\":1326:1382   */\ntag_70:\n    /* \"#utility.yul\":1412:1416   */\n  0x20\n    /* \"#utility.yul\":1404:1410   */\n  dup3\n    /* \"#utility.yul\":1400:1417   */\n  mul\n    /* \"#utility.yul\":1392:1417   */\n  swap1\n  pop\n    /* \"#utility.yul\":1472:1476   */\n  0x20\n    /* \"#utility.yul\":1466:1470   */\n  dup2\n    /* \"#utility.yul\":1462:1477   */\n  add\n    /* \"#utility.yul\":1454:1477   */\n  swap1\n  pop\n    /* \"#utility.yul\":1173:1484   */\n  swap2\n  swap1\n  pop\n  jump\t// out\n    /* \"#utility.yul\":1490:1607   */\ntag_36:\n    /* \"#utility.yul\":1599:1600   */\n  0x00\n    /* \"#utility.yul\":1596:1597   */\n  dup1\n    /* \"#utility.yul\":1589:1601   */\n  revert\n    /* \"#utility.yul\":1613:1739   */\ntag_37:\n    /* \"#utility.yul\":1650:1657   */\n  0x00\n    /* \"#utility.yul\":1690:1732   */\n  0xffffffffffffffffffffffffffffffffffffffff\n    /* \"#utility.yul\":1683:1688   */\n  dup3\n    /* \"#utility.yul\":1679:1733   */\n  and\n    /* \"#utility.yul\":1668:1733   */\n  swap1\n  pop\n    /* \"#utility.yul\":1613:1739   */\n  swap2\n  swap1\n  pop\n  jump\t// out\n    /* \"#utility.yul\":1745:1841   */\ntag_38:\n    /* \"#utility.yul\":1782:1789   */\n  0x00\n    /* \"#utility.yul\":1811:1835   */\n  tag_75\n    /* \"#utility.yul\":1829:1834   */\n  dup3\n    /* \"#utility.yul\":1811:1835   */\n  tag_37\n  jump\t// in\ntag_75:\n    /* \"#utility.yul\":1800:1835   */\n  swap1\n  pop\n    /* \"#utility.yul\":1745:1841   */\n  swap2\n  swap1\n  pop\n  jump\t// out\n    /* \"#utility.yul\":1847:1969   */\ntag_39:\n    /* \"#utility.yul\":1920:1944   */\n  tag_77\n    /* \"#utility.yul\":1938:1943   */\n  dup2\n    /* \"#utility.yul\":1920:1944   */\n  tag_38\n  jump\t// in\ntag_77:\n    /* \"#utility.yul\":1913:1918   */\n  dup2\n    /* \"#utility.yul\":1910:1945   */\n  eq\n    /* \"#utility.yul\":1900:1963   */\n  tag_78\n  jumpi\n    /* \"#utility.yul\":1959:1960   */\n  0x00\n    /* \"#utility.yul\":1956:1957   */\n  dup1\n    /* \"#utility.yul\":1949:1961   */\n  revert\n    /* \"#utility.yul\":1900:1963   */\ntag_78:\n    /* \"#utility.yul\":1847:1969   */\n  pop\n  jump\t// out\n    /* \"#utility.yul\":1975:2118   */\ntag_40:\n    /* \"#utility.yul\":2032:2037   */\n  0x00\n    /* \"#utility.yul\":2063:2069   */\n  dup2\n    /* \"#utility.yul\":2057:2070   */\n  mload\n    /* \"#utility.yul\":2048:2070   */\n  swap1\n  pop\n    /* \"#utility.yul\":2079:2112   */\n  tag_80\n    /* \"#utility.yul\":2106:2111   */\n  dup2\n    /* \"#utility.yul\":2079:2112   */\n  tag_39\n  jump\t// in\ntag_80:\n    /* \"#utility.yul\":1975:2118   */\n  swap3\n  swap2\n  pop\n  pop\n  jump\t// out\n    /* \"#utility.yul\":2141:2873   */\ntag_41:\n    /* \"#utility.yul\":2248:2253   */\n  0x00\n    /* \"#utility.yul\":2273:2354   */\n  tag_82\n    /* \"#utility.yul\":2289:2353   */\n  tag_83\n    /* \"#utility.yul\":2346:2352   */\n  dup5\n    /* \"#utility.yul\":2289:2353   */\n  tag_35\n  jump\t// in\ntag_83:\n    /* \"#utility.yul\":2273:2354   */\n  tag_34\n  jump\t// in\ntag_82:\n    /* \"#utility.yul\":2264:2354   */\n  swap1\n  pop\n    /* \"#utility.yul\":2374:2379   */\n  dup1\n    /* \"#utility.yul\":2403:2409   */\n  dup4\n    /* \"#utility.yul\":2396:2401   */\n  dup3\n    /* \"#utility.yul\":2389:2410   */\n  mstore\n    /* \"#utility.yul\":2437:2441   */\n  0x20\n    /* \"#utility.yul\":2430:2435   */\n  dup3\n    /* \"#utility.yul\":2426:2442   */\n  add\n    /* \"#utility.yul\":2419:2442   */\n  swap1\n  pop\n    /* \"#utility.yul\":2490:2494   */\n  0x20\n    /* \"#utility.yul\":2482:2488   */\n  dup5\n    /* \"#utility.yul\":2478:2495   */\n  mul\n    /* \"#utility.yul\":2470:2476   */\n  dup4\n    /* \"#utility.yul\":2466:2496   */\n  add\n    /* \"#utility.yul\":2519:2522   */\n  dup6\n    /* \"#utility.yul\":2511:2517   */\n  dup2\n    /* \"#utility.yul\":2508:2523   */\n  gt\n    /* \"#utility.yul\":2505:2627   */\n  iszero\n  tag_84\n  jumpi\n    /* \"#utility.yul\":2538:2617   */\n  tag_85\n  tag_36\n  jump\t// in\ntag_85:\n    /* \"#utility.yul\":2505:2627   */\ntag_84:\n    /* \"#utility.yul\":2653:2659   */\n  dup4\n    /* \"#utility.yul\":2636:2867   */\ntag_86:\n    /* \"#utility.yul\":2670:2676   */\n  dup2\n    /* \"#utility.yul\":2665:2668   */\n  dup2\n    /* \"#utility.yul\":2662:2677   */\n  lt\n    /* \"#utility.yul\":2636:2867   */\n  iszero\n  tag_88\n  jumpi\n    /* \"#utility.yul\":2745:2748   */\n  dup1\n    /* \"#utility.yul\":2774:2822   */\n  tag_89\n    /* \"#utility.yul\":2818:2821   */\n  dup9\n    /* \"#utility.yul\":2806:2816   */\n  dup3\n    /* \"#utility.yul\":2774:2822   */\n  tag_40\n  jump\t// in\ntag_89:\n    /* \"#utility.yul\":2769:2772   */\n  dup5\n    /* \"#utility.yul\":2762:2823   */\n  mstore\n    /* \"#utility.yul\":2852:2856   */\n  0x20\n    /* \"#utility.yul\":2847:2850   */\n  dup5\n    /* \"#utility.yul\":2843:2857   */\n  add\n    /* \"#utility.yul\":2836:2857   */\n  swap4\n  pop\n    /* \"#utility.yul\":2712:2867   */\n  pop\n    /* \"#utility.yul\":2696:2700   */\n  0x20\n    /* \"#utility.yul\":2691:2694   */\n  dup2\n    /* \"#utility.yul\":2687:2701   */\n  add\n    /* \"#utility.yul\":2680:2701   */\n  swap1\n  pop\n    /* \"#utility.yul\":2636:2867   */\n  jump(tag_86)\ntag_88:\n    /* \"#utility.yul\":2640:2661   */\n  pop\n    /* \"#utility.yul\":2254:2873   */\n  pop\n  pop\n    /* \"#utility.yul\":2141:2873   */\n  swap4\n  swap3\n  pop\n  pop\n  pop\n  jump\t// out\n    /* \"#utility.yul\":2896:3281   */\ntag_42:\n    /* \"#utility.yul\":2978:2983   */\n  0x00\n    /* \"#utility.yul\":3027:3030   */\n  dup3\n    /* \"#utility.yul\":3020:3024   */\n  0x1f\n    /* \"#utility.yul\":3012:3018   */\n  dup4\n    /* \"#utility.yul\":3008:3025   */\n  add\n    /* \"#utility.yul\":3004:3031   */\n  slt\n    /* \"#utility.yul\":2994:3116   */\n  tag_91\n  jumpi\n    /* \"#utility.yul\":3035:3114   */\n  tag_92\n  tag_30\n  jump\t// in\ntag_92:\n    /* \"#utility.yul\":2994:3116   */\ntag_91:\n    /* \"#utility.yul\":3145:3151   */\n  dup2\n    /* \"#utility.yul\":3139:3152   */\n  mload\n    /* \"#utility.yul\":3170:3275   */\n  tag_93\n    /* \"#utility.yul\":3271:3274   */\n  dup5\n    /* \"#utility.yul\":3263:3269   */\n  dup3\n    /* \"#utility.yul\":3256:3260   */\n  0x20\n    /* \"#utility.yul\":3248:3254   */\n  dup7\n    /* \"#utility.yul\":3244:3261   */\n  add\n    /* \"#utility.yul\":3170:3275   */\n  tag_41\n  jump\t// in\ntag_93:\n    /* \"#utility.yul\":3161:3275   */\n  swap2\n  pop\n    /* \"#utility.yul\":2984:3281   */\n  pop\n    /* \"#utility.yul\":2896:3281   */\n  swap3\n  swap2\n  pop\n  pop\n  jump\t// out\n    /* \"#utility.yul\":3287:3364   */\ntag_43:\n    /* \"#utility.yul\":3324:3331   */\n  0x00\n    /* \"#utility.yul\":3353:3358   */\n  dup2\n    /* \"#utility.yul\":3342:3358   */\n  swap1\n  pop\n    /* \"#utility.yul\":3287:3364   */\n  swap2\n  swap1\n  pop\n  jump\t// out\n    /* \"#utility.yul\":3370:3492   */\ntag_44:\n    /* \"#utility.yul\":3443:3467   */\n  tag_96\n    /* \"#utility.yul\":3461:3466   */\n  dup2\n    /* \"#utility.yul\":3443:3467   */\n  tag_43\n  jump\t// in\ntag_96:\n    /* \"#utility.yul\":3436:3441   */\n  dup2\n    /* \"#utility.yul\":3433:3468   */\n  eq\n    /* \"#utility.yul\":3423:3486   */\n  tag_97\n  jumpi\n    /* \"#utility.yul\":3482:3483   */\n  0x00\n    /* \"#utility.yul\":3479:3480   */\n  dup1\n    /* \"#utility.yul\":3472:3484   */\n  revert\n    /* \"#utility.yul\":3423:3486   */\ntag_97:\n    /* \"#utility.yul\":3370:3492   */\n  pop\n  jump\t// out\n    /* \"#utility.yul\":3498:3641   */\ntag_45:\n    /* \"#utility.yul\":3555:3560   */\n  0x00\n    /* \"#utility.yul\":3586:3592   */\n  dup2\n    /* \"#utility.yul\":3580:3593   */\n  mload\n    /* \"#utility.yul\":3571:3593   */\n  swap1\n  pop\n    /* \"#utility.yul\":3602:3635   */\n  tag_99\n    /* \"#utility.yul\":3629:3634   */\n  dup2\n    /* \"#utility.yul\":3602:3635   */\n  tag_44\n  jump\t// in\ntag_99:\n    /* \"#utility.yul\":3498:3641   */\n  swap3\n  swap2\n  pop\n  pop\n  jump\t// out\n    /* \"#utility.yul\":3647:4357   */\ntag_3:\n    /* \"#utility.yul\":3751:3757   */\n  0x00\n    /* \"#utility.yul\":3759:3765   */\n  dup1\n    /* \"#utility.yul\":3808:3810   */\n  0x40\n    /* \"#utility.yul\":3796:3805   */\n  dup4\n    /* \"#utility.yul\":3787:3794   */\n  dup6\n    /* \"#utility.yul\":3783:3806   */\n  sub\n    /* \"#utility.yul\":3779:3811   */\n  slt\n    /* \"#utility.yul\":3776:3895   */\n  iszero\n  tag_101\n  jumpi\n    /* \"#utility.yul\":3814:3893   */\n  tag_102\n  tag_28\n  jump\t// in\ntag_102:\n    /* \"#utility.yul\":3776:3895   */\ntag_101:\n    /* \"#utility.yul\":3955:3956   */\n  0x00\n    /* \"#utility.yul\":3944:3953   */\n  dup4\n    /* \"#utility.yul\":3940:3957   */\n  add\n    /* \"#utility.yul\":3934:3958   */\n  mload\n    /* \"#utility.yul\":3985:4003   */\n  0xffffffffffffffff\n    /* \"#utility.yul\":3977:3983   */\n  dup2\n    /* \"#utility.yul\":3974:4004   */\n  gt\n    /* \"#utility.yul\":3971:4088   */\n  iszero\n  tag_103\n  jumpi\n    /* \"#utility.yul\":4007:4086   */\n  tag_104\n  tag_29\n  jump\t// in\ntag_104:\n    /* \"#utility.yul\":3971:4088   */\ntag_103:\n    /* \"#utility.yul\":4112:4201   */\n  tag_105\n    /* \"#utility.yul\":4193:4200   */\n  dup6\n    /* \"#utility.yul\":4184:4190   */\n  dup3\n    /* \"#utility.yul\":4173:4182   */\n  dup7\n    /* \"#utility.yul\":4169:4191   */\n  add\n    /* \"#utility.yul\":4112:4201   */\n  tag_42\n  jump\t// in\ntag_105:\n    /* \"#utility.yul\":4102:4201   */\n  swap3\n  pop\n    /* \"#utility.yul\":3905:4211   */\n  pop\n    /* \"#utility.yul\":4250:4252   */\n  0x20\n    /* \"#utility.yul\":4276:4340   */\n  tag_106\n    /* \"#utility.yul\":4332:4339   */\n  dup6\n    /* \"#utility.yul\":4323:4329   */\n  dup3\n    /* \"#utility.yul\":4312:4321   */\n  dup7\n    /* \"#utility.yul\":4308:4330   */\n  add\n    /* \"#utility.yul\":4276:4340   */\n  tag_45\n  jump\t// in\ntag_106:\n    /* \"#utility.yul\":4266:4340   */\n  swap2\n  pop\n    /* \"#utility.yul\":4221:4350   */\n  pop\n    /* \"#utility.yul\":3647:4357   */\n  swap3\n  pop\n  swap3\n  swap1\n  pop\n  jump\t// out\n    /* \"#utility.yul\":4363:4532   */\ntag_46:\n    /* \"#utility.yul\":4447:4458   */\n  0x00\n    /* \"#utility.yul\":4481:4487   */\n  dup3\n    /* \"#utility.yul\":4476:4479   */\n  dup3\n    /* \"#utility.yul\":4469:4488   */\n  mstore\n    /* \"#utility.yul\":4521:4525   */\n  0x20\n    /* \"#utility.yul\":4516:4519   */\n  dup3\n    /* \"#utility.yul\":4512:4526   */\n  add\n    /* \"#utility.yul\":4497:4526   */\n  swap1\n  pop\n    /* \"#utility.yul\":4363:4532   */\n  swap3\n  swap2\n  pop\n  pop\n  jump\t// out\n    /* \"#utility.yul\":4538:4701   */\ntag_47:\n    /* \"#utility.yul\":4678:4693   */\n  0x6f776e6572207265717569726500000000000000000000000000000000000000\n    /* \"#utility.yul\":4674:4675   */\n  0x00\n    /* \"#utility.yul\":4666:4672   */\n  dup3\n    /* \"#utility.yul\":4662:4676   */\n  add\n    /* \"#utility.yul\":4655:4694   */\n  mstore\n    /* \"#utility.yul\":4538:4701   */\n  pop\n  jump\t// out\n    /* \"#utility.yul\":4707:5073   */\ntag_48:\n    /* \"#utility.yul\":4849:4852   */\n  0x00\n    /* \"#utility.yul\":4870:4937   */\n  tag_110\n    /* \"#utility.yul\":4934:4936   */\n  0x0d\n    /* \"#utility.yul\":4929:4932   */\n  dup4\n    /* \"#utility.yul\":4870:4937   */\n  tag_46\n  jump\t// in\ntag_110:\n    /* \"#utility.yul\":4863:4937   */\n  swap2\n  pop\n    /* \"#utility.yul\":4946:5039   */\n  tag_111\n    /* \"#utility.yul\":5035:5038   */\n  dup3\n    /* \"#utility.yul\":4946:5039   */\n  tag_47\n  jump\t// in\ntag_111:\n    /* \"#utility.yul\":5064:5066   */\n  0x20\n    /* \"#utility.yul\":5059:5062   */\n  dup3\n    /* \"#utility.yul\":5055:5067   */\n  add\n    /* \"#utility.yul\":5048:5067   */\n  swap1\n  pop\n    /* \"#utility.yul\":4707:5073   */\n  swap2\n  swap1\n  pop\n  jump\t// out\n    /* \"#utility.yul\":5079:5498   */\ntag_8:\n    /* \"#utility.yul\":5245:5249   */\n  0x00\n    /* \"#utility.yul\":5283:5285   */\n  0x20\n    /* \"#utility.yul\":5272:5281   */\n  dup3\n    /* \"#utility.yul\":5268:5286   */\n  add\n    /* \"#utility.yul\":5260:5286   */\n  swap1\n  pop\n    /* \"#utility.yul\":5332:5341   */\n  dup2\n    /* \"#utility.yul\":5326:5330   */\n  dup2\n    /* \"#utility.yul\":5322:5342   */\n  sub\n    /* \"#utility.yul\":5318:5319   */\n  0x00\n    /* \"#utility.yul\":5307:5316   */\n  dup4\n    /* \"#utility.yul\":5303:5320   */\n  add\n    /* \"#utility.yul\":5296:5343   */\n  mstore\n    /* \"#utility.yul\":5360:5491   */\n  tag_113\n    /* \"#utility.yul\":5486:5490   */\n  dup2\n    /* \"#utility.yul\":5360:5491   */\n  tag_48\n  jump\t// in\ntag_113:\n    /* \"#utility.yul\":5352:5491   */\n  swap1\n  pop\n    /* \"#utility.yul\":5079:5498   */\n  swap2\n  swap1\n  pop\n  jump\t// out\n    /* \"#utility.yul\":5504:5678   */\ntag_49:\n    /* \"#utility.yul\":5644:5670   */\n  0x696e76616c696564207265717569726564206e756d6265720000000000000000\n    /* \"#utility.yul\":5640:5641   */\n  0x00\n    /* \"#utility.yul\":5632:5638   */\n  dup3\n    /* \"#utility.yul\":5628:5642   */\n  add\n    /* \"#utility.yul\":5621:5671   */\n  mstore\n    /* \"#utility.yul\":5504:5678   */\n  pop\n  jump\t// out\n    /* \"#utility.yul\":5684:6050   */\ntag_50:\n    /* \"#utility.yul\":5826:5829   */\n  0x00\n    /* \"#utility.yul\":5847:5914   */\n  tag_116\n    /* \"#utility.yul\":5911:5913   */\n  0x18\n    /* \"#utility.yul\":5906:5909   */\n  dup4\n    /* \"#utility.yul\":5847:5914   */\n  tag_46\n  jump\t// in\ntag_116:\n    /* \"#utility.yul\":5840:5914   */\n  swap2\n  pop\n    /* \"#utility.yul\":5923:6016   */\n  tag_117\n    /* \"#utility.yul\":6012:6015   */\n  dup3\n    /* \"#utility.yul\":5923:6016   */\n  tag_49\n  jump\t// in\ntag_117:\n    /* \"#utility.yul\":6041:6043   */\n  0x20\n    /* \"#utility.yul\":6036:6039   */\n  dup3\n    /* \"#utility.yul\":6032:6044   */\n  add\n    /* \"#utility.yul\":6025:6044   */\n  swap1\n  pop\n    /* \"#utility.yul\":5684:6050   */\n  swap2\n  swap1\n  pop\n  jump\t// out\n    /* \"#utility.yul\":6056:6475   */\ntag_12:\n    /* \"#utility.yul\":6222:6226   */\n  0x00\n    /* \"#utility.yul\":6260:6262   */\n  0x20\n    /* \"#utility.yul\":6249:6258   */\n  dup3\n    /* \"#utility.yul\":6245:6263   */\n  add\n    /* \"#utility.yul\":6237:6263   */\n  swap1\n  pop\n    /* \"#utility.yul\":6309:6318   */\n  dup2\n    /* \"#utility.yul\":6303:6307   */\n  dup2\n    /* \"#utility.yul\":6299:6319   */\n  sub\n    /* \"#utility.yul\":6295:6296   */\n  0x00\n    /* \"#utility.yul\":6284:6293   */\n  dup4\n    /* \"#utility.yul\":6280:6297   */\n  add\n    /* \"#utility.yul\":6273:6320   */\n  mstore\n    /* \"#utility.yul\":6337:6468   */\n  tag_119\n    /* \"#utility.yul\":6463:6467   */\n  dup2\n    /* \"#utility.yul\":6337:6468   */\n  tag_50\n  jump\t// in\ntag_119:\n    /* \"#utility.yul\":6329:6468   */\n  swap1\n  pop\n    /* \"#utility.yul\":6056:6475   */\n  swap2\n  swap1\n  pop\n  jump\t// out\n    /* \"#utility.yul\":6481:6661   */\ntag_18:\n    /* \"#utility.yul\":6529:6606   */\n  0x4e487b7100000000000000000000000000000000000000000000000000000000\n    /* \"#utility.yul\":6526:6527   */\n  0x00\n    /* \"#utility.yul\":6519:6607   */\n  mstore\n    /* \"#utility.yul\":6626:6630   */\n  0x32\n    /* \"#utility.yul\":6623:6624   */\n  0x04\n    /* \"#utility.yul\":6616:6631   */\n  mstore\n    /* \"#utility.yul\":6650:6654   */\n  0x24\n    /* \"#utility.yul\":6647:6648   */\n  0x00\n    /* \"#utility.yul\":6640:6655   */\n  revert\n    /* \"#utility.yul\":6667:6830   */\ntag_51:\n    /* \"#utility.yul\":6807:6822   */\n  0x696e76616c6964206f776e657200000000000000000000000000000000000000\n    /* \"#utility.yul\":6803:6804   */\n  0x00\n    /* \"#utility.yul\":6795:6801   */\n  dup3\n    /* \"#utility.yul\":6791:6805   */\n  add\n    /* \"#utility.yul\":6784:6823   */\n  mstore\n    /* \"#utility.yul\":6667:6830   */\n  pop\n  jump\t// out\n    /* \"#utility.yul\":6836:7202   */\ntag_52:\n    /* \"#utility.yul\":6978:6981   */\n  0x00\n    /* \"#utility.yul\":6999:7066   */\n  tag_123\n    /* \"#utility.yul\":7063:7065   */\n  0x0d\n    /* \"#utility.yul\":7058:7061   */\n  dup4\n    /* \"#utility.yul\":6999:7066   */\n  tag_46\n  jump\t// in\ntag_123:\n    /* \"#utility.yul\":6992:7066   */\n  swap2\n  pop\n    /* \"#utility.yul\":7075:7168   */\n  tag_124\n    /* \"#utility.yul\":7164:7167   */\n  dup3\n    /* \"#utility.yul\":7075:7168   */\n  tag_51\n  jump\t// in\ntag_124:\n    /* \"#utility.yul\":7193:7195   */\n  0x20\n    /* \"#utility.yul\":7188:7191   */\n  dup3\n    /* \"#utility.yul\":7184:7196   */\n  add\n    /* \"#utility.yul\":7177:7196   */\n  swap1\n  pop\n    /* \"#utility.yul\":6836:7202   */\n  swap2\n  swap1\n  pop\n  jump\t// out\n    /* \"#utility.yul\":7208:7627   */\ntag_21:\n    /* \"#utility.yul\":7374:7378   */\n  0x00\n    /* \"#utility.yul\":7412:7414   */\n  0x20\n    /* \"#utility.yul\":7401:7410   */\n  dup3\n    /* \"#utility.yul\":7397:7415   */\n  add\n    /* \"#utility.yul\":7389:7415   */\n  swap1\n  pop\n    /* \"#utility.yul\":7461:7470   */\n  dup2\n    /* \"#utility.yul\":7455:7459   */\n  dup2\n    /* \"#utility.yul\":7451:7471   */\n  sub\n    /* \"#utility.yul\":7447:7448   */\n  0x00\n    /* \"#utility.yul\":7436:7445   */\n  dup4\n    /* \"#utility.yul\":7432:7449   */\n  add\n    /* \"#utility.yul\":7425:7472   */\n  mstore\n    /* \"#utility.yul\":7489:7620   */\n  tag_126\n    /* \"#utility.yul\":7615:7619   */\n  dup2\n    /* \"#utility.yul\":7489:7620   */\n  tag_52\n  jump\t// in\ntag_126:\n    /* \"#utility.yul\":7481:7620   */\n  swap1\n  pop\n    /* \"#utility.yul\":7208:7627   */\n  swap2\n  swap1\n  pop\n  jump\t// out\n    /* \"#utility.yul\":7633:7802   */\ntag_53:\n    /* \"#utility.yul\":7773:7794   */\n  0x6f776e6572206973206e6f7420756e6971756500000000000000000000000000\n    /* \"#utility.yul\":7769:7770   */\n  0x00\n    /* \"#utility.yul\":7761:7767   */\n  dup3\n    /* \"#utility.yul\":7757:7771   */\n  add\n    /* \"#utility.yul\":7750:7795   */\n  mstore\n    /* \"#utility.yul\":7633:7802   */\n  pop\n  jump\t// out\n    /* \"#utility.yul\":7808:8174   */\ntag_54:\n    /* \"#utility.yul\":7950:7953   */\n  0x00\n    /* \"#utility.yul\":7971:8038   */\n  tag_129\n    /* \"#utility.yul\":8035:8037   */\n  0x13\n    /* \"#utility.yul\":8030:8033   */\n  dup4\n    /* \"#utility.yul\":7971:8038   */\n  tag_46\n  jump\t// in\ntag_129:\n    /* \"#utility.yul\":7964:8038   */\n  swap2\n  pop\n    /* \"#utility.yul\":8047:8140   */\n  tag_130\n    /* \"#utility.yul\":8136:8139   */\n  dup3\n    /* \"#utility.yul\":8047:8140   */\n  tag_53\n  jump\t// in\ntag_130:\n    /* \"#utility.yul\":8165:8167   */\n  0x20\n    /* \"#utility.yul\":8160:8163   */\n  dup3\n    /* \"#utility.yul\":8156:8168   */\n  add\n    /* \"#utility.yul\":8149:8168   */\n  swap1\n  pop\n    /* \"#utility.yul\":7808:8174   */\n  swap2\n  swap1\n  pop\n  jump\t// out\n    /* \"#utility.yul\":8180:8599   */\ntag_24:\n    /* \"#utility.yul\":8346:8350   */\n  0x00\n    /* \"#utility.yul\":8384:8386   */\n  0x20\n    /* \"#utility.yul\":8373:8382   */\n  dup3\n    /* \"#utility.yul\":8369:8387   */\n  add\n    /* \"#utility.yul\":8361:8387   */\n  swap1\n  pop\n    /* \"#utility.yul\":8433:8442   */\n  dup2\n    /* \"#utility.yul\":8427:8431   */\n  dup2\n    /* \"#utility.yul\":8423:8443   */\n  sub\n    /* \"#utility.yul\":8419:8420   */\n  0x00\n    /* \"#utility.yul\":8408:8417   */\n  dup4\n    /* \"#utility.yul\":8404:8421   */\n  add\n    /* \"#utility.yul\":8397:8444   */\n  mstore\n    /* \"#utility.yul\":8461:8592   */\n  tag_132\n    /* \"#utility.yul\":8587:8591   */\n  dup2\n    /* \"#utility.yul\":8461:8592   */\n  tag_54\n  jump\t// in\ntag_132:\n    /* \"#utility.yul\":8453:8592   */\n  swap1\n  pop\n    /* \"#utility.yul\":8180:8599   */\n  swap2\n  swap1\n  pop\n  jump\t// out\n    /* \"tests/MultiSigWallet.sol\":60:3348  contract MultiSigWallet {... */\ntag_26:\n  dataSize(sub_0)\n  dup1\n  dataOffset(sub_0)\n  0x00\n  codecopy\n  0x00\n  return\nstop\n\nsub_0: assembly {\n        /* \"tests/MultiSigWallet.sol\":60:3348  contract MultiSigWallet {... */\n      mstore(0x40, 0x80)\n      jumpi(tag_1, lt(calldatasize, 0x04))\n      shr(0xe0, calldataload(0x00))\n      dup1\n      0x8253951a\n      gt\n      tag_12\n      jumpi\n      dup1\n      0x8253951a\n      eq\n      tag_7\n      jumpi\n      dup1\n      0x9ace38c2\n      eq\n      tag_8\n      jumpi\n      dup1\n      0xb759f954\n      eq\n      tag_9\n      jumpi\n      dup1\n      0xdc8452cd\n      eq\n      tag_10\n      jumpi\n      dup1\n      0xfe0d94c1\n      eq\n      tag_11\n      jumpi\n      jump(tag_2)\n    tag_12:\n      dup1\n      0x025e7c27\n      eq\n      tag_3\n      jumpi\n      dup1\n      0x14de327f\n      eq\n      tag_4\n      jumpi\n      dup1\n      0x20c5429b\n      eq\n      tag_5\n      jumpi\n      dup1\n      0x2f54bf6e\n      eq\n      tag_6\n      jumpi\n      jump(tag_2)\n    tag_1:\n      jumpi(tag_2, calldatasize)\n        /* \"tests/MultiSigWallet.sol\":1793:1803  msg.sender */\n      caller\n        /* \"tests/MultiSigWallet.sol\":1785:1815  Deposit(msg.sender, msg.value) */\n      0xffffffffffffffffffffffffffffffffffffffff\n      and\n      0xe1fffcc4923d04b559f4d29a8bfc6cda04eb5b0d3c460751c2402c5c5cc9109c\n        /* \"tests/MultiSigWallet.sol\":1805:1814  msg.value */\n      callvalue\n        /* \"tests/MultiSigWallet.sol\":1785:1815  Deposit(msg.sender, msg.value) */\n      mload(0x40)\n      tag_15\n      swap2\n      swap1\n      tag_16\n      jump\t// in\n    tag_15:\n      mload(0x40)\n      dup1\n      swap2\n      sub\n      swap1\n      log2\n        /* \"tests/MultiSigWallet.sol\":60:3348  contract MultiSigWallet {... */\n      stop\n    tag_2:\n      0x00\n      dup1\n      revert\n        /* \"tests/MultiSigWallet.sol\":472:495  address[] public owners */\n    tag_3:\n      callvalue\n      dup1\n      iszero\n      tag_17\n      jumpi\n      0x00\n      dup1\n      revert\n    tag_17:\n      pop\n      tag_18\n      0x04\n      dup1\n      calldatasize\n      sub\n      dup2\n      add\n      swap1\n      tag_19\n      swap2\n      swap1\n      tag_20\n      jump\t// in\n    tag_19:\n      tag_21\n      jump\t// in\n    tag_18:\n      mload(0x40)\n      tag_22\n      swap2\n      swap1\n      tag_23\n      jump\t// in\n    tag_22:\n      mload(0x40)\n      dup1\n      swap2\n      sub\n      swap1\n      return\n        /* \"tests/MultiSigWallet.sol\":1831:2128  function submit(address _to, uint _value, bytes calldata _data) external onlyOwner {... */\n    tag_4:\n      callvalue\n      dup1\n      iszero\n      tag_24\n      jumpi\n      0x00\n      dup1\n      revert\n    tag_24:\n      pop\n      tag_25\n      0x04\n      dup1\n      calldatasize\n      sub\n      dup2\n      add\n      swap1\n      tag_26\n      swap2\n      swap1\n      tag_27\n      jump\t// in\n    tag_26:\n      tag_28\n      jump\t// in\n    tag_25:\n      stop\n        /* \"tests/MultiSigWallet.sol\":3099:3343  function revoke(uint _txId) external onlyOwner txExists(_txId) notExecuted(_txId) {... */\n    tag_5:\n      callvalue\n      dup1\n      iszero\n      tag_29\n      jumpi\n      0x00\n      dup1\n      revert\n    tag_29:\n      pop\n      tag_30\n      0x04\n      dup1\n      calldatasize\n      sub\n      dup2\n      add\n      swap1\n      tag_31\n      swap2\n      swap1\n      tag_20\n      jump\t// in\n    tag_31:\n      tag_32\n      jump\t// in\n    tag_30:\n      stop\n        /* \"tests/MultiSigWallet.sol\":502:542  mapping(address => bool) public  isOwner */\n    tag_6:\n      callvalue\n      dup1\n      iszero\n      tag_33\n      jumpi\n      0x00\n      dup1\n      revert\n    tag_33:\n      pop\n      tag_34\n      0x04\n      dup1\n      calldatasize\n      sub\n      dup2\n      add\n      swap1\n      tag_35\n      swap2\n      swap1\n      tag_36\n      jump\t// in\n    tag_35:\n      tag_37\n      jump\t// in\n    tag_34:\n      mload(0x40)\n      tag_38\n      swap2\n      swap1\n      tag_39\n      jump\t// in\n    tag_38:\n      mload(0x40)\n      dup1\n      swap2\n      sub\n      swap1\n      return\n        /* \"tests/MultiSigWallet.sol\":618:677  mapping (uint => mapping (address => bool)) public approved */\n    tag_7:\n      callvalue\n      dup1\n      iszero\n      tag_40\n      jumpi\n      0x00\n      dup1\n      revert\n    tag_40:\n      pop\n      tag_41\n      0x04\n      dup1\n      calldatasize\n      sub\n      dup2\n      add\n      swap1\n      tag_42\n      swap2\n      swap1\n      tag_43\n      jump\t// in\n    tag_42:\n      tag_44\n      jump\t// in\n    tag_41:\n      mload(0x40)\n      tag_45\n      swap2\n      swap1\n      tag_39\n      jump\t// in\n    tag_45:\n      mload(0x40)\n      dup1\n      swap2\n      sub\n      swap1\n      return\n        /* \"tests/MultiSigWallet.sol\":578:611  Transaction[] public transactions */\n    tag_8:\n      callvalue\n      dup1\n      iszero\n      tag_46\n      jumpi\n      0x00\n      dup1\n      revert\n    tag_46:\n      pop\n      tag_47\n      0x04\n      dup1\n      calldatasize\n      sub\n      dup2\n      add\n      swap1\n      tag_48\n      swap2\n      swap1\n      tag_20\n      jump\t// in\n    tag_48:\n      tag_49\n      jump\t// in\n    tag_47:\n      mload(0x40)\n      tag_50\n      swap5\n      swap4\n      swap3\n      swap2\n      swap1\n      tag_51\n      jump\t// in\n    tag_50:\n      mload(0x40)\n      dup1\n      swap2\n      sub\n      swap1\n      return\n        /* \"tests/MultiSigWallet.sol\":2136:2391  function approve(uint _txId)... */\n    tag_9:\n      callvalue\n      dup1\n      iszero\n      tag_52\n      jumpi\n      0x00\n      dup1\n      revert\n    tag_52:\n      pop\n      tag_53\n      0x04\n      dup1\n      calldatasize\n      sub\n      dup2\n      add\n      swap1\n      tag_54\n      swap2\n      swap1\n      tag_20\n      jump\t// in\n    tag_54:\n      tag_55\n      jump\t// in\n    tag_53:\n      stop\n        /* \"tests/MultiSigWallet.sol\":549:569  uint public required */\n    tag_10:\n      callvalue\n      dup1\n      iszero\n      tag_56\n      jumpi\n      0x00\n      dup1\n      revert\n    tag_56:\n      pop\n      tag_57\n      tag_58\n      jump\t// in\n    tag_57:\n      mload(0x40)\n      tag_59\n      swap2\n      swap1\n      tag_16\n      jump\t// in\n    tag_59:\n      mload(0x40)\n      dup1\n      swap2\n      sub\n      swap1\n      return\n        /* \"tests/MultiSigWallet.sol\":2637:3091  function execute(uint _txId) external txExists(_txId) notExecuted(_txId) {... */\n    tag_11:\n      callvalue\n      dup1\n      iszero\n      tag_60\n      jumpi\n      0x00\n      dup1\n      revert\n    tag_60:\n      pop\n      tag_61\n      0x04\n      dup1\n      calldatasize\n      sub\n      dup2\n      add\n      swap1\n      tag_62\n      swap2\n      swap1\n      tag_20\n      jump\t// in\n    tag_62:\n      tag_63\n      jump\t// in\n    tag_61:\n      stop\n        /* \"tests/MultiSigWallet.sol\":472:495  address[] public owners */\n    tag_21:\n      0x00\n      dup2\n      dup2\n      sload\n      dup2\n      lt\n      tag_64\n      jumpi\n      0x00\n      dup1\n      revert\n    tag_64:\n      swap1\n      0x00\n      mstore\n      keccak256(0x00, 0x20)\n      add\n      0x00\n      swap2\n      pop\n      sload\n      swap1\n      0x0100\n      exp\n      swap1\n      div\n      0xffffffffffffffffffffffffffffffffffffffff\n      and\n      dup2\n      jump\t// out\n        /* \"tests/MultiSigWallet.sol\":1831:2128  function submit(address _to, uint _value, bytes calldata _data) external onlyOwner {... */\n    tag_28:\n        /* \"tests/MultiSigWallet.sol\":725:732  isOwner */\n      0x01\n        /* \"tests/MultiSigWallet.sol\":725:744  isOwner[msg.sender] */\n      0x00\n        /* \"tests/MultiSigWallet.sol\":733:743  msg.sender */\n      caller\n        /* \"tests/MultiSigWallet.sol\":725:744  isOwner[msg.sender] */\n      0xffffffffffffffffffffffffffffffffffffffff\n      and\n      0xffffffffffffffffffffffffffffffffffffffff\n      and\n      dup2\n      mstore\n      0x20\n      add\n      swap1\n      dup2\n      mstore\n      0x20\n      add\n      0x00\n      keccak256\n      0x00\n      swap1\n      sload\n      swap1\n      0x0100\n      exp\n      swap1\n      div\n      0xff\n      and\n        /* \"tests/MultiSigWallet.sol\":717:758  require(isOwner[msg.sender], \"not owner\") */\n      tag_67\n      jumpi\n      mload(0x40)\n      0x08c379a000000000000000000000000000000000000000000000000000000000\n      dup2\n      mstore\n      0x04\n      add\n      tag_68\n      swap1\n      tag_69\n      jump\t// in\n    tag_68:\n      mload(0x40)\n      dup1\n      swap2\n      sub\n      swap1\n      revert\n    tag_67:\n        /* \"tests/MultiSigWallet.sol\":1925:1937  transactions */\n      0x03\n        /* \"tests/MultiSigWallet.sol\":1943:2073  Transaction({... */\n      mload(0x40)\n      dup1\n      0x80\n      add\n      0x40\n      mstore\n      dup1\n        /* \"tests/MultiSigWallet.sol\":1974:1977  _to */\n      dup7\n        /* \"tests/MultiSigWallet.sol\":1943:2073  Transaction({... */\n      0xffffffffffffffffffffffffffffffffffffffff\n      and\n      dup2\n      mstore\n      0x20\n      add\n        /* \"tests/MultiSigWallet.sol\":1999:2005  _value */\n      dup6\n        /* \"tests/MultiSigWallet.sol\":1943:2073  Transaction({... */\n      dup2\n      mstore\n      0x20\n      add\n        /* \"tests/MultiSigWallet.sol\":2026:2031  _data */\n      dup5\n      dup5\n        /* \"tests/MultiSigWallet.sol\":1943:2073  Transaction({... */\n      dup1\n      dup1\n      0x1f\n      add\n      0x20\n      dup1\n      swap2\n      div\n      mul\n      0x20\n      add\n      mload(0x40)\n      swap1\n      dup2\n      add\n      0x40\n      mstore\n      dup1\n      swap4\n      swap3\n      swap2\n      swap1\n      dup2\n      dup2\n      mstore\n      0x20\n      add\n      dup4\n      dup4\n      dup1\n      dup3\n      dup5\n      calldatacopy\n      0x00\n      dup2\n      dup5\n      add\n      mstore\n      not(0x1f)\n      0x1f\n      dup3\n      add\n      and\n      swap1\n      pop\n      dup1\n      dup4\n      add\n      swap3\n      pop\n      pop\n      pop\n      pop\n      pop\n      pop\n      pop\n      dup2\n      mstore\n      0x20\n      add\n        /* \"tests/MultiSigWallet.sol\":2056:2061  false */\n      0x00\n        /* \"tests/MultiSigWallet.sol\":1943:2073  Transaction({... */\n      iszero\n      iszero\n      dup2\n      mstore\n      pop\n        /* \"tests/MultiSigWallet.sol\":1925:2074  transactions.push(Transaction({... */\n      swap1\n      dup1\n      0x01\n      dup2\n      sload\n      add\n      dup1\n      dup3\n      sstore\n      dup1\n      swap2\n      pop\n      pop\n      0x01\n      swap1\n      sub\n      swap1\n      0x00\n      mstore\n      keccak256(0x00, 0x20)\n      swap1\n      0x04\n      mul\n      add\n      0x00\n      swap1\n      swap2\n      swap1\n      swap2\n      swap1\n      swap2\n      pop\n      0x00\n      dup3\n      add\n      mload\n      dup2\n      0x00\n      add\n      exp(0x0100, 0x00)\n      dup2\n      sload\n      dup2\n      0xffffffffffffffffffffffffffffffffffffffff\n      mul\n      not\n      and\n      swap1\n      dup4\n      0xffffffffffffffffffffffffffffffffffffffff\n      and\n      mul\n      or\n      swap1\n      sstore\n      pop\n      0x20\n      dup3\n      add\n      mload\n      dup2\n      0x01\n      add\n      sstore\n      0x40\n      dup3\n      add\n      mload\n      dup2\n      0x02\n      add\n      swap1\n      dup2\n      tag_72\n      swap2\n      swap1\n      tag_73\n      jump\t// in\n    tag_72:\n      pop\n      0x60\n      dup3\n      add\n      mload\n      dup2\n      0x03\n      add\n      exp(0x0100, 0x00)\n      dup2\n      sload\n      dup2\n      0xff\n      mul\n      not\n      and\n      swap1\n      dup4\n      iszero\n      iszero\n      mul\n      or\n      swap1\n      sstore\n      pop\n      pop\n      pop\n        /* \"tests/MultiSigWallet.sol\":2118:2119  1 */\n      0x01\n        /* \"tests/MultiSigWallet.sol\":2097:2109  transactions */\n      0x03\n        /* \"tests/MultiSigWallet.sol\":2097:2116  transactions.length */\n      dup1\n      sload\n      swap1\n      pop\n        /* \"tests/MultiSigWallet.sol\":2097:2119  transactions.length -1 */\n      tag_74\n      swap2\n      swap1\n      tag_75\n      jump\t// in\n    tag_74:\n        /* \"tests/MultiSigWallet.sol\":2090:2120  Submit(transactions.length -1) */\n      0x08324b3d745b914e3abd4ffbfead91e3b78391a98c173202129215ab933adfbe\n      mload(0x40)\n      mload(0x40)\n      dup1\n      swap2\n      sub\n      swap1\n      log2\n        /* \"tests/MultiSigWallet.sol\":1831:2128  function submit(address _to, uint _value, bytes calldata _data) external onlyOwner {... */\n      pop\n      pop\n      pop\n      pop\n      jump\t// out\n        /* \"tests/MultiSigWallet.sol\":3099:3343  function revoke(uint _txId) external onlyOwner txExists(_txId) notExecuted(_txId) {... */\n    tag_32:\n        /* \"tests/MultiSigWallet.sol\":725:732  isOwner */\n      0x01\n        /* \"tests/MultiSigWallet.sol\":725:744  isOwner[msg.sender] */\n      0x00\n        /* \"tests/MultiSigWallet.sol\":733:743  msg.sender */\n      caller\n        /* \"tests/MultiSigWallet.sol\":725:744  isOwner[msg.sender] */\n      0xffffffffffffffffffffffffffffffffffffffff\n      and\n      0xffffffffffffffffffffffffffffffffffffffff\n      and\n      dup2\n      mstore\n      0x20\n      add\n      swap1\n      dup2\n      mstore\n      0x20\n      add\n      0x00\n      keccak256\n      0x00\n      swap1\n      sload\n      swap1\n      0x0100\n      exp\n      swap1\n      div\n      0xff\n      and\n        /* \"tests/MultiSigWallet.sol\":717:758  require(isOwner[msg.sender], \"not owner\") */\n      tag_77\n      jumpi\n      mload(0x40)\n      0x08c379a000000000000000000000000000000000000000000000000000000000\n      dup2\n      mstore\n      0x04\n      add\n      tag_78\n      swap1\n      tag_69\n      jump\t// in\n    tag_78:\n      mload(0x40)\n      dup1\n      swap2\n      sub\n      swap1\n      revert\n    tag_77:\n        /* \"tests/MultiSigWallet.sol\":3155:3160  _txId */\n      dup1\n        /* \"tests/MultiSigWallet.sol\":839:851  transactions */\n      0x03\n        /* \"tests/MultiSigWallet.sol\":839:858  transactions.length */\n      dup1\n      sload\n      swap1\n      pop\n        /* \"tests/MultiSigWallet.sol\":831:836  _txId */\n      dup2\n        /* \"tests/MultiSigWallet.sol\":831:858  _txId < transactions.length */\n      lt\n        /* \"tests/MultiSigWallet.sol\":823:880  require(_txId < transactions.length, \"tx does not exist\") */\n      tag_80\n      jumpi\n      mload(0x40)\n      0x08c379a000000000000000000000000000000000000000000000000000000000\n      dup2\n      mstore\n      0x04\n      add\n      tag_81\n      swap1\n      tag_82\n      jump\t// in\n    tag_81:\n      mload(0x40)\n      dup1\n      swap2\n      sub\n      swap1\n      revert\n    tag_80:\n        /* \"tests/MultiSigWallet.sol\":3174:3179  _txId */\n      dup2\n        /* \"tests/MultiSigWallet.sol\":1093:1105  transactions */\n      0x03\n        /* \"tests/MultiSigWallet.sol\":1106:1111  _txId */\n      dup2\n        /* \"tests/MultiSigWallet.sol\":1093:1112  transactions[_txId] */\n      dup2\n      sload\n      dup2\n      lt\n      tag_84\n      jumpi\n      tag_85\n      tag_86\n      jump\t// in\n    tag_85:\n    tag_84:\n      swap1\n      0x00\n      mstore\n      keccak256(0x00, 0x20)\n      swap1\n      0x04\n      mul\n      add\n        /* \"tests/MultiSigWallet.sol\":1093:1121  transactions[_txId].executed */\n      0x03\n      add\n      0x00\n      swap1\n      sload\n      swap1\n      0x0100\n      exp\n      swap1\n      div\n      0xff\n      and\n        /* \"tests/MultiSigWallet.sol\":1092:1121  !transactions[_txId].executed */\n      iszero\n        /* \"tests/MultiSigWallet.sol\":1084:1145  require(!transactions[_txId].executed, \"tx already executed\") */\n      tag_88\n      jumpi\n      mload(0x40)\n      0x08c379a000000000000000000000000000000000000000000000000000000000\n      dup2\n      mstore\n      0x04\n      add\n      tag_89\n      swap1\n      tag_90\n      jump\t// in\n    tag_89:\n      mload(0x40)\n      dup1\n      swap2\n      sub\n      swap1\n      revert\n    tag_88:\n        /* \"tests/MultiSigWallet.sol\":3200:3208  approved */\n      0x04\n        /* \"tests/MultiSigWallet.sol\":3200:3215  approved[_txId] */\n      0x00\n        /* \"tests/MultiSigWallet.sol\":3209:3214  _txId */\n      dup5\n        /* \"tests/MultiSigWallet.sol\":3200:3215  approved[_txId] */\n      dup2\n      mstore\n      0x20\n      add\n      swap1\n      dup2\n      mstore\n      0x20\n      add\n      0x00\n      keccak256\n        /* \"tests/MultiSigWallet.sol\":3200:3227  approved[_txId][msg.sender] */\n      0x00\n        /* \"tests/MultiSigWallet.sol\":3216:3226  msg.sender */\n      caller\n        /* \"tests/MultiSigWallet.sol\":3200:3227  approved[_txId][msg.sender] */\n      0xffffffffffffffffffffffffffffffffffffffff\n      and\n      0xffffffffffffffffffffffffffffffffffffffff\n      and\n      dup2\n      mstore\n      0x20\n      add\n      swap1\n      dup2\n      mstore\n      0x20\n      add\n      0x00\n      keccak256\n      0x00\n      swap1\n      sload\n      swap1\n      0x0100\n      exp\n      swap1\n      div\n      0xff\n      and\n        /* \"tests/MultiSigWallet.sol\":3192:3247  require(approved[_txId][msg.sender], \"tx not approved\") */\n      tag_92\n      jumpi\n      mload(0x40)\n      0x08c379a000000000000000000000000000000000000000000000000000000000\n      dup2\n      mstore\n      0x04\n      add\n      tag_93\n      swap1\n      tag_94\n      jump\t// in\n    tag_93:\n      mload(0x40)\n      dup1\n      swap2\n      sub\n      swap1\n      revert\n    tag_92:\n        /* \"tests/MultiSigWallet.sol\":3288:3293  false */\n      0x00\n        /* \"tests/MultiSigWallet.sol\":3258:3266  approved */\n      0x04\n        /* \"tests/MultiSigWallet.sol\":3258:3273  approved[_txId] */\n      0x00\n        /* \"tests/MultiSigWallet.sol\":3267:3272  _txId */\n      dup6\n        /* \"tests/MultiSigWallet.sol\":3258:3273  approved[_txId] */\n      dup2\n      mstore\n      0x20\n      add\n      swap1\n      dup2\n      mstore\n      0x20\n      add\n      0x00\n      keccak256\n        /* \"tests/MultiSigWallet.sol\":3258:3285  approved[_txId][msg.sender] */\n      0x00\n        /* \"tests/MultiSigWallet.sol\":3274:3284  msg.sender */\n      caller\n        /* \"tests/MultiSigWallet.sol\":3258:3285  approved[_txId][msg.sender] */\n      0xffffffffffffffffffffffffffffffffffffffff\n      and\n      0xffffffffffffffffffffffffffffffffffffffff\n      and\n      dup2\n      mstore\n      0x20\n      add\n      swap1\n      dup2\n      mstore\n      0x20\n      add\n      0x00\n      keccak256\n      0x00\n        /* \"tests/MultiSigWallet.sol\":3258:3293  approved[_txId][msg.sender] = false */\n      0x0100\n      exp\n      dup2\n      sload\n      dup2\n      0xff\n      mul\n      not\n      and\n      swap1\n      dup4\n      iszero\n      iszero\n      mul\n      or\n      swap1\n      sstore\n      pop\n        /* \"tests/MultiSigWallet.sol\":3329:3334  _txId */\n      dup3\n        /* \"tests/MultiSigWallet.sol\":3317:3327  msg.sender */\n      caller\n        /* \"tests/MultiSigWallet.sol\":3310:3335  Revoke(msg.sender, _txId) */\n      0xffffffffffffffffffffffffffffffffffffffff\n      and\n      0xec9ab91322523c899ede7830ec9bfc992b5981cdcc27b91162fb23de5791117b\n      mload(0x40)\n      mload(0x40)\n      dup1\n      swap2\n      sub\n      swap1\n      log3\n        /* \"tests/MultiSigWallet.sol\":891:892  _ */\n      pop\n        /* \"tests/MultiSigWallet.sol\":765:766  _ */\n      pop\n        /* \"tests/MultiSigWallet.sol\":3099:3343  function revoke(uint _txId) external onlyOwner txExists(_txId) notExecuted(_txId) {... */\n      pop\n      jump\t// out\n        /* \"tests/MultiSigWallet.sol\":502:542  mapping(address => bool) public  isOwner */\n    tag_37:\n      mstore(0x20, 0x01)\n      dup1\n      0x00\n      mstore\n      keccak256(0x00, 0x40)\n      0x00\n      swap2\n      pop\n      sload\n      swap1\n      0x0100\n      exp\n      swap1\n      div\n      0xff\n      and\n      dup2\n      jump\t// out\n        /* \"tests/MultiSigWallet.sol\":618:677  mapping (uint => mapping (address => bool)) public approved */\n    tag_44:\n      mstore(0x20, 0x04)\n      dup2\n      0x00\n      mstore\n      mstore(0x20, keccak256(0x00, 0x40))\n      dup1\n      0x00\n      mstore\n      keccak256(0x00, 0x40)\n      0x00\n      swap2\n      pop\n      swap2\n      pop\n      swap1\n      sload\n      swap1\n      0x0100\n      exp\n      swap1\n      div\n      0xff\n      and\n      dup2\n      jump\t// out\n        /* \"tests/MultiSigWallet.sol\":578:611  Transaction[] public transactions */\n    tag_49:\n      0x03\n      dup2\n      dup2\n      sload\n      dup2\n      lt\n      tag_95\n      jumpi\n      0x00\n      dup1\n      revert\n    tag_95:\n      swap1\n      0x00\n      mstore\n      keccak256(0x00, 0x20)\n      swap1\n      0x04\n      mul\n      add\n      0x00\n      swap2\n      pop\n      swap1\n      pop\n      dup1\n      0x00\n      add\n      0x00\n      swap1\n      sload\n      swap1\n      0x0100\n      exp\n      swap1\n      div\n      0xffffffffffffffffffffffffffffffffffffffff\n      and\n      swap1\n      dup1\n      0x01\n      add\n      sload\n      swap1\n      dup1\n      0x02\n      add\n      dup1\n      sload\n      tag_97\n      swap1\n      tag_98\n      jump\t// in\n    tag_97:\n      dup1\n      0x1f\n      add\n      0x20\n      dup1\n      swap2\n      div\n      mul\n      0x20\n      add\n      mload(0x40)\n      swap1\n      dup2\n      add\n      0x40\n      mstore\n      dup1\n      swap3\n      swap2\n      swap1\n      dup2\n      dup2\n      mstore\n      0x20\n      add\n      dup3\n      dup1\n      sload\n      tag_99\n      swap1\n      tag_98\n      jump\t// in\n    tag_99:\n      dup1\n      iszero\n      tag_100\n      jumpi\n      dup1\n      0x1f\n      lt\n      tag_101\n      jumpi\n      0x0100\n      dup1\n      dup4\n      sload\n      div\n      mul\n      dup4\n      mstore\n      swap2\n      0x20\n      add\n      swap2\n      jump(tag_100)\n    tag_101:\n      dup3\n      add\n      swap2\n      swap1\n      0x00\n      mstore\n      keccak256(0x00, 0x20)\n      swap1\n    tag_102:\n      dup2\n      sload\n      dup2\n      mstore\n      swap1\n      0x01\n      add\n      swap1\n      0x20\n      add\n      dup1\n      dup4\n      gt\n      tag_102\n      jumpi\n      dup3\n      swap1\n      sub\n      0x1f\n      and\n      dup3\n      add\n      swap2\n    tag_100:\n      pop\n      pop\n      pop\n      pop\n      pop\n      swap1\n      dup1\n      0x03\n      add\n      0x00\n      swap1\n      sload\n      swap1\n      0x0100\n      exp\n      swap1\n      div\n      0xff\n      and\n      swap1\n      pop\n      dup5\n      jump\t// out\n        /* \"tests/MultiSigWallet.sol\":2136:2391  function approve(uint _txId)... */\n    tag_55:\n        /* \"tests/MultiSigWallet.sol\":725:732  isOwner */\n      0x01\n        /* \"tests/MultiSigWallet.sol\":725:744  isOwner[msg.sender] */\n      0x00\n        /* \"tests/MultiSigWallet.sol\":733:743  msg.sender */\n      caller\n        /* \"tests/MultiSigWallet.sol\":725:744  isOwner[msg.sender] */\n      0xffffffffffffffffffffffffffffffffffffffff\n      and\n      0xffffffffffffffffffffffffffffffffffffffff\n      and\n      dup2\n      mstore\n      0x20\n      add\n      swap1\n      dup2\n      mstore\n      0x20\n      add\n      0x00\n      keccak256\n      0x00\n      swap1\n      sload\n      swap1\n      0x0100\n      exp\n      swap1\n      div\n      0xff\n      and\n        /* \"tests/MultiSigWallet.sol\":717:758  require(isOwner[msg.sender], \"not owner\") */\n      tag_104\n      jumpi\n      mload(0x40)\n      0x08c379a000000000000000000000000000000000000000000000000000000000\n      dup2\n      mstore\n      0x04\n      add\n      tag_105\n      swap1\n      tag_69\n      jump\t// in\n    tag_105:\n      mload(0x40)\n      dup1\n      swap2\n      sub\n      swap1\n      revert\n    tag_104:\n        /* \"tests/MultiSigWallet.sol\":2221:2226  _txId */\n      dup1\n        /* \"tests/MultiSigWallet.sol\":839:851  transactions */\n      0x03\n        /* \"tests/MultiSigWallet.sol\":839:858  transactions.length */\n      dup1\n      sload\n      swap1\n      pop\n        /* \"tests/MultiSigWallet.sol\":831:836  _txId */\n      dup2\n        /* \"tests/MultiSigWallet.sol\":831:858  _txId < transactions.length */\n      lt\n        /* \"tests/MultiSigWallet.sol\":823:880  require(_txId < transactions.length, \"tx does not exist\") */\n      tag_107\n      jumpi\n      mload(0x40)\n      0x08c379a000000000000000000000000000000000000000000000000000000000\n      dup2\n      mstore\n      0x04\n      add\n      tag_108\n      swap1\n      tag_82\n      jump\t// in\n    tag_108:\n      mload(0x40)\n      dup1\n      swap2\n      sub\n      swap1\n      revert\n    tag_107:\n        /* \"tests/MultiSigWallet.sol\":2249:2254  _txId */\n      dup2\n        /* \"tests/MultiSigWallet.sol\":961:969  approved */\n      0x04\n        /* \"tests/MultiSigWallet.sol\":961:976  approved[_txId] */\n      0x00\n        /* \"tests/MultiSigWallet.sol\":970:975  _txId */\n      dup3\n        /* \"tests/MultiSigWallet.sol\":961:976  approved[_txId] */\n      dup2\n      mstore\n      0x20\n      add\n      swap1\n      dup2\n      mstore\n      0x20\n      add\n      0x00\n      keccak256\n        /* \"tests/MultiSigWallet.sol\":961:988  approved[_txId][msg.sender] */\n      0x00\n        /* \"tests/MultiSigWallet.sol\":977:987  msg.sender */\n      caller\n        /* \"tests/MultiSigWallet.sol\":961:988  approved[_txId][msg.sender] */\n      0xffffffffffffffffffffffffffffffffffffffff\n      and\n      0xffffffffffffffffffffffffffffffffffffffff\n      and\n      dup2\n      mstore\n      0x20\n      add\n      swap1\n      dup2\n      mstore\n      0x20\n      add\n      0x00\n      keccak256\n      0x00\n      swap1\n      sload\n      swap1\n      0x0100\n      exp\n      swap1\n      div\n      0xff\n      and\n        /* \"tests/MultiSigWallet.sol\":960:988  !approved[_txId][msg.sender] */\n      iszero\n        /* \"tests/MultiSigWallet.sol\":952:1012  require(!approved[_txId][msg.sender], \"tx already approved\") */\n      tag_110\n      jumpi\n      mload(0x40)\n      0x08c379a000000000000000000000000000000000000000000000000000000000\n      dup2\n      mstore\n      0x04\n      add\n      tag_111\n      swap1\n      tag_112\n      jump\t// in\n    tag_111:\n      mload(0x40)\n      dup1\n      swap2\n      sub\n      swap1\n      revert\n    tag_110:\n        /* \"tests/MultiSigWallet.sol\":2277:2282  _txId */\n      dup3\n        /* \"tests/MultiSigWallet.sol\":1093:1105  transactions */\n      0x03\n        /* \"tests/MultiSigWallet.sol\":1106:1111  _txId */\n      dup2\n        /* \"tests/MultiSigWallet.sol\":1093:1112  transactions[_txId] */\n      dup2\n      sload\n      dup2\n      lt\n      tag_114\n      jumpi\n      tag_115\n      tag_86\n      jump\t// in\n    tag_115:\n    tag_114:\n      swap1\n      0x00\n      mstore\n      keccak256(0x00, 0x20)\n      swap1\n      0x04\n      mul\n      add\n        /* \"tests/MultiSigWallet.sol\":1093:1121  transactions[_txId].executed */\n      0x03\n      add\n      0x00\n      swap1\n      sload\n      swap1\n      0x0100\n      exp\n      swap1\n      div\n      0xff\n      and\n        /* \"tests/MultiSigWallet.sol\":1092:1121  !transactions[_txId].executed */\n      iszero\n        /* \"tests/MultiSigWallet.sol\":1084:1145  require(!transactions[_txId].executed, \"tx already executed\") */\n      tag_117\n      jumpi\n      mload(0x40)\n      0x08c379a000000000000000000000000000000000000000000000000000000000\n      dup2\n      mstore\n      0x04\n      add\n      tag_118\n      swap1\n      tag_90\n      jump\t// in\n    tag_118:\n      mload(0x40)\n      dup1\n      swap2\n      sub\n      swap1\n      revert\n    tag_117:\n        /* \"tests/MultiSigWallet.sol\":2329:2333  true */\n      0x01\n        /* \"tests/MultiSigWallet.sol\":2299:2307  approved */\n      0x04\n        /* \"tests/MultiSigWallet.sol\":2299:2314  approved[_txId] */\n      0x00\n        /* \"tests/MultiSigWallet.sol\":2308:2313  _txId */\n      dup7\n        /* \"tests/MultiSigWallet.sol\":2299:2314  approved[_txId] */\n      dup2\n      mstore\n      0x20\n      add\n      swap1\n      dup2\n      mstore\n      0x20\n      add\n      0x00\n      keccak256\n        /* \"tests/MultiSigWallet.sol\":2299:2326  approved[_txId][msg.sender] */\n      0x00\n        /* \"tests/MultiSigWallet.sol\":2315:2325  msg.sender */\n      caller\n        /* \"tests/MultiSigWallet.sol\":2299:2326  approved[_txId][msg.sender] */\n      0xffffffffffffffffffffffffffffffffffffffff\n      and\n      0xffffffffffffffffffffffffffffffffffffffff\n      and\n      dup2\n      mstore\n      0x20\n      add\n      swap1\n      dup2\n      mstore\n      0x20\n      add\n      0x00\n      keccak256\n      0x00\n        /* \"tests/MultiSigWallet.sol\":2299:2333  approved[_txId][msg.sender] = true */\n      0x0100\n      exp\n      dup2\n      sload\n      dup2\n      0xff\n      mul\n      not\n      and\n      swap1\n      dup4\n      iszero\n      iszero\n      mul\n      or\n      swap1\n      sstore\n      pop\n        /* \"tests/MultiSigWallet.sol\":2373:2378  _txId */\n      dup4\n        /* \"tests/MultiSigWallet.sol\":2361:2371  msg.sender */\n      caller\n        /* \"tests/MultiSigWallet.sol\":2353:2379  Approve(msg.sender, _txId) */\n      0xffffffffffffffffffffffffffffffffffffffff\n      and\n      0x90ec57f18fa7b15c6b8d5e4d1deb90796c74b2ff23d4d0cecad0cb42a96b3128\n      mload(0x40)\n      mload(0x40)\n      dup1\n      swap2\n      sub\n      swap1\n      log3\n        /* \"tests/MultiSigWallet.sol\":1023:1024  _ */\n      pop\n        /* \"tests/MultiSigWallet.sol\":891:892  _ */\n      pop\n        /* \"tests/MultiSigWallet.sol\":765:766  _ */\n      pop\n        /* \"tests/MultiSigWallet.sol\":2136:2391  function approve(uint _txId)... */\n      pop\n      jump\t// out\n        /* \"tests/MultiSigWallet.sol\":549:569  uint public required */\n    tag_58:\n      sload(0x02)\n      dup2\n      jump\t// out\n        /* \"tests/MultiSigWallet.sol\":2637:3091  function execute(uint _txId) external txExists(_txId) notExecuted(_txId) {... */\n    tag_63:\n        /* \"tests/MultiSigWallet.sol\":2684:2689  _txId */\n      dup1\n        /* \"tests/MultiSigWallet.sol\":839:851  transactions */\n      0x03\n        /* \"tests/MultiSigWallet.sol\":839:858  transactions.length */\n      dup1\n      sload\n      swap1\n      pop\n        /* \"tests/MultiSigWallet.sol\":831:836  _txId */\n      dup2\n        /* \"tests/MultiSigWallet.sol\":831:858  _txId < transactions.length */\n      lt\n        /* \"tests/MultiSigWallet.sol\":823:880  require(_txId < transactions.length, \"tx does not exist\") */\n      tag_121\n      jumpi\n      mload(0x40)\n      0x08c379a000000000000000000000000000000000000000000000000000000000\n      dup2\n      mstore\n      0x04\n      add\n      tag_122\n      swap1\n      tag_82\n      jump\t// in\n    tag_122:\n      mload(0x40)\n      dup1\n      swap2\n      sub\n      swap1\n      revert\n    tag_121:\n        /* \"tests/MultiSigWallet.sol\":2703:2708  _txId */\n      dup2\n        /* \"tests/MultiSigWallet.sol\":1093:1105  transactions */\n      0x03\n        /* \"tests/MultiSigWallet.sol\":1106:1111  _txId */\n      dup2\n        /* \"tests/MultiSigWallet.sol\":1093:1112  transactions[_txId] */\n      dup2\n      sload\n      dup2\n      lt\n      tag_124\n      jumpi\n      tag_125\n      tag_86\n      jump\t// in\n    tag_125:\n    tag_124:\n      swap1\n      0x00\n      mstore\n      keccak256(0x00, 0x20)\n      swap1\n      0x04\n      mul\n      add\n        /* \"tests/MultiSigWallet.sol\":1093:1121  transactions[_txId].executed */\n      0x03\n      add\n      0x00\n      swap1\n      sload\n      swap1\n      0x0100\n      exp\n      swap1\n      div\n      0xff\n      and\n        /* \"tests/MultiSigWallet.sol\":1092:1121  !transactions[_txId].executed */\n      iszero\n        /* \"tests/MultiSigWallet.sol\":1084:1145  require(!transactions[_txId].executed, \"tx already executed\") */\n      tag_127\n      jumpi\n      mload(0x40)\n      0x08c379a000000000000000000000000000000000000000000000000000000000\n      dup2\n      mstore\n      0x04\n      add\n      tag_128\n      swap1\n      tag_90\n      jump\t// in\n    tag_128:\n      mload(0x40)\n      dup1\n      swap2\n      sub\n      swap1\n      revert\n    tag_127:\n        /* \"tests/MultiSigWallet.sol\":2757:2765  required */\n      sload(0x02)\n        /* \"tests/MultiSigWallet.sol\":2729:2753  _getApprovalCount(_txId) */\n      tag_130\n        /* \"tests/MultiSigWallet.sol\":2747:2752  _txId */\n      dup5\n        /* \"tests/MultiSigWallet.sol\":2729:2746  _getApprovalCount */\n      tag_131\n        /* \"tests/MultiSigWallet.sol\":2729:2753  _getApprovalCount(_txId) */\n      jump\t// in\n    tag_130:\n        /* \"tests/MultiSigWallet.sol\":2729:2765  _getApprovalCount(_txId) <= required */\n      gt\n      iszero\n        /* \"tests/MultiSigWallet.sol\":2721:2790  require(_getApprovalCount(_txId) <= required, \"approvals < required\") */\n      tag_132\n      jumpi\n      mload(0x40)\n      0x08c379a000000000000000000000000000000000000000000000000000000000\n      dup2\n      mstore\n      0x04\n      add\n      tag_133\n      swap1\n      tag_134\n      jump\t// in\n    tag_133:\n      mload(0x40)\n      dup1\n      swap2\n      sub\n      swap1\n      revert\n    tag_132:\n        /* \"tests/MultiSigWallet.sol\":2801:2832  Transaction storage transaction */\n      0x00\n        /* \"tests/MultiSigWallet.sol\":2835:2847  transactions */\n      0x03\n        /* \"tests/MultiSigWallet.sol\":2848:2853  _txId */\n      dup5\n        /* \"tests/MultiSigWallet.sol\":2835:2854  transactions[_txId] */\n      dup2\n      sload\n      dup2\n      lt\n      tag_135\n      jumpi\n      tag_136\n      tag_86\n      jump\t// in\n    tag_136:\n    tag_135:\n      swap1\n      0x00\n      mstore\n      keccak256(0x00, 0x20)\n      swap1\n      0x04\n      mul\n      add\n        /* \"tests/MultiSigWallet.sol\":2801:2854  Transaction storage transaction = transactions[_txId] */\n      swap1\n      pop\n        /* \"tests/MultiSigWallet.sol\":2890:2894  true */\n      0x01\n        /* \"tests/MultiSigWallet.sol\":2867:2878  transaction */\n      dup2\n        /* \"tests/MultiSigWallet.sol\":2867:2887  transaction.executed */\n      0x03\n      add\n      0x00\n        /* \"tests/MultiSigWallet.sol\":2867:2894  transaction.executed = true */\n      0x0100\n      exp\n      dup2\n      sload\n      dup2\n      0xff\n      mul\n      not\n      and\n      swap1\n      dup4\n      iszero\n      iszero\n      mul\n      or\n      swap1\n      sstore\n      pop\n        /* \"tests/MultiSigWallet.sol\":2908:2920  bool success */\n      0x00\n        /* \"tests/MultiSigWallet.sol\":2926:2937  transaction */\n      dup2\n        /* \"tests/MultiSigWallet.sol\":2926:2940  transaction.to */\n      0x00\n      add\n      0x00\n      swap1\n      sload\n      swap1\n      0x0100\n      exp\n      swap1\n      div\n      0xffffffffffffffffffffffffffffffffffffffff\n      and\n        /* \"tests/MultiSigWallet.sol\":2926:2945  transaction.to.call */\n      0xffffffffffffffffffffffffffffffffffffffff\n      and\n        /* \"tests/MultiSigWallet.sol\":2953:2964  transaction */\n      dup3\n        /* \"tests/MultiSigWallet.sol\":2953:2970  transaction.value */\n      0x01\n      add\n      sload\n        /* \"tests/MultiSigWallet.sol\":2986:2997  transaction */\n      dup4\n        /* \"tests/MultiSigWallet.sol\":2986:3002  transaction.data */\n      0x02\n      add\n        /* \"tests/MultiSigWallet.sol\":2926:3013  transaction.to.call{value: transaction.value}(... */\n      mload(0x40)\n      tag_138\n      swap2\n      swap1\n      tag_139\n      jump\t// in\n    tag_138:\n      0x00\n      mload(0x40)\n      dup1\n      dup4\n      sub\n      dup2\n      dup6\n      dup8\n      gas\n      call\n      swap3\n      pop\n      pop\n      pop\n      returndatasize\n      dup1\n      0x00\n      dup2\n      eq\n      tag_142\n      jumpi\n      mload(0x40)\n      swap2\n      pop\n      and(add(returndatasize, 0x3f), not(0x1f))\n      dup3\n      add\n      0x40\n      mstore\n      returndatasize\n      dup3\n      mstore\n      returndatasize\n      0x00\n      0x20\n      dup5\n      add\n      returndatacopy\n      jump(tag_141)\n    tag_142:\n      0x60\n      swap2\n      pop\n    tag_141:\n      pop\n        /* \"tests/MultiSigWallet.sol\":2907:3013  (bool success, ) = transaction.to.call{value: transaction.value}(... */\n      pop\n      swap1\n      pop\n        /* \"tests/MultiSigWallet.sol\":3032:3039  success */\n      dup1\n        /* \"tests/MultiSigWallet.sol\":3024:3053  require(success, \"tx failed\") */\n      tag_143\n      jumpi\n      mload(0x40)\n      0x08c379a000000000000000000000000000000000000000000000000000000000\n      dup2\n      mstore\n      0x04\n      add\n      tag_144\n      swap1\n      tag_145\n      jump\t// in\n    tag_144:\n      mload(0x40)\n      dup1\n      swap2\n      sub\n      swap1\n      revert\n    tag_143:\n        /* \"tests/MultiSigWallet.sol\":3077:3082  _txId */\n      dup5\n        /* \"tests/MultiSigWallet.sol\":3069:3083  Execute(_txId) */\n      0xddb556f1d2c1ec821e910b019d3685b229db152a0ecd517ca7e24b8bd7139289\n      mload(0x40)\n      mload(0x40)\n      dup1\n      swap2\n      sub\n      swap1\n      log2\n        /* \"tests/MultiSigWallet.sol\":2710:3091  {... */\n      pop\n      pop\n        /* \"tests/MultiSigWallet.sol\":891:892  _ */\n      pop\n        /* \"tests/MultiSigWallet.sol\":2637:3091  function execute(uint _txId) external txExists(_txId) notExecuted(_txId) {... */\n      pop\n      pop\n      jump\t// out\n        /* \"tests/MultiSigWallet.sol\":2399:2629  function _getApprovalCount(uint _txId) private view returns(uint count) {... */\n    tag_131:\n        /* \"tests/MultiSigWallet.sol\":2459:2469  uint count */\n      0x00\n        /* \"tests/MultiSigWallet.sol\":2487:2493  uint i */\n      dup1\n        /* \"tests/MultiSigWallet.sol\":2482:2622  for (uint i; i < owners.length; i++) {... */\n    tag_147:\n        /* \"tests/MultiSigWallet.sol\":2499:2505  owners */\n      0x00\n        /* \"tests/MultiSigWallet.sol\":2499:2512  owners.length */\n      dup1\n      sload\n      swap1\n      pop\n        /* \"tests/MultiSigWallet.sol\":2495:2496  i */\n      dup2\n        /* \"tests/MultiSigWallet.sol\":2495:2512  i < owners.length */\n      lt\n        /* \"tests/MultiSigWallet.sol\":2482:2622  for (uint i; i < owners.length; i++) {... */\n      iszero\n      tag_148\n      jumpi\n        /* \"tests/MultiSigWallet.sol\":2538:2546  approved */\n      0x04\n        /* \"tests/MultiSigWallet.sol\":2538:2553  approved[_txId] */\n      0x00\n        /* \"tests/MultiSigWallet.sol\":2547:2552  _txId */\n      dup5\n        /* \"tests/MultiSigWallet.sol\":2538:2553  approved[_txId] */\n      dup2\n      mstore\n      0x20\n      add\n      swap1\n      dup2\n      mstore\n      0x20\n      add\n      0x00\n      keccak256\n        /* \"tests/MultiSigWallet.sol\":2538:2564  approved[_txId][owners[i]] */\n      0x00\n        /* \"tests/MultiSigWallet.sol\":2554:2560  owners */\n      dup1\n        /* \"tests/MultiSigWallet.sol\":2561:2562  i */\n      dup4\n        /* \"tests/MultiSigWallet.sol\":2554:2563  owners[i] */\n      dup2\n      sload\n      dup2\n      lt\n      tag_150\n      jumpi\n      tag_151\n      tag_86\n      jump\t// in\n    tag_151:\n    tag_150:\n      swap1\n      0x00\n      mstore\n      keccak256(0x00, 0x20)\n      add\n      0x00\n      swap1\n      sload\n      swap1\n      0x0100\n      exp\n      swap1\n      div\n      0xffffffffffffffffffffffffffffffffffffffff\n      and\n        /* \"tests/MultiSigWallet.sol\":2538:2564  approved[_txId][owners[i]] */\n      0xffffffffffffffffffffffffffffffffffffffff\n      and\n      0xffffffffffffffffffffffffffffffffffffffff\n      and\n      dup2\n      mstore\n      0x20\n      add\n      swap1\n      dup2\n      mstore\n      0x20\n      add\n      0x00\n      keccak256\n      0x00\n      swap1\n      sload\n      swap1\n      0x0100\n      exp\n      swap1\n      div\n      0xff\n      and\n        /* \"tests/MultiSigWallet.sol\":2534:2611  if (approved[_txId][owners[i]]) {... */\n      iszero\n      tag_153\n      jumpi\n        /* \"tests/MultiSigWallet.sol\":2594:2595  1 */\n      0x01\n        /* \"tests/MultiSigWallet.sol\":2585:2595  count += 1 */\n      dup3\n      tag_154\n      swap2\n      swap1\n      tag_155\n      jump\t// in\n    tag_154:\n      swap2\n      pop\n        /* \"tests/MultiSigWallet.sol\":2534:2611  if (approved[_txId][owners[i]]) {... */\n    tag_153:\n        /* \"tests/MultiSigWallet.sol\":2514:2517  i++ */\n      dup1\n      dup1\n      0x01\n      add\n      swap2\n      pop\n      pop\n        /* \"tests/MultiSigWallet.sol\":2482:2622  for (uint i; i < owners.length; i++) {... */\n      jump(tag_147)\n    tag_148:\n      pop\n        /* \"tests/MultiSigWallet.sol\":2399:2629  function _getApprovalCount(uint _txId) private view returns(uint count) {... */\n      swap2\n      swap1\n      pop\n      jump\t// out\n        /* \"#utility.yul\":7:84   */\n    tag_156:\n        /* \"#utility.yul\":44:51   */\n      0x00\n        /* \"#utility.yul\":73:78   */\n      dup2\n        /* \"#utility.yul\":62:78   */\n      swap1\n      pop\n        /* \"#utility.yul\":7:84   */\n      swap2\n      swap1\n      pop\n      jump\t// out\n        /* \"#utility.yul\":90:208   */\n    tag_157:\n        /* \"#utility.yul\":177:201   */\n      tag_217\n        /* \"#utility.yul\":195:200   */\n      dup2\n        /* \"#utility.yul\":177:201   */\n      tag_156\n      jump\t// in\n    tag_217:\n        /* \"#utility.yul\":172:175   */\n      dup3\n        /* \"#utility.yul\":165:202   */\n      mstore\n        /* \"#utility.yul\":90:208   */\n      pop\n      pop\n      jump\t// out\n        /* \"#utility.yul\":214:436   */\n    tag_16:\n        /* \"#utility.yul\":307:311   */\n      0x00\n        /* \"#utility.yul\":345:347   */\n      0x20\n        /* \"#utility.yul\":334:343   */\n      dup3\n        /* \"#utility.yul\":330:348   */\n      add\n        /* \"#utility.yul\":322:348   */\n      swap1\n      pop\n        /* \"#utility.yul\":358:429   */\n      tag_219\n        /* \"#utility.yul\":426:427   */\n      0x00\n        /* \"#utility.yul\":415:424   */\n      dup4\n        /* \"#utility.yul\":411:428   */\n      add\n        /* \"#utility.yul\":402:408   */\n      dup5\n        /* \"#utility.yul\":358:429   */\n      tag_157\n      jump\t// in\n    tag_219:\n        /* \"#utility.yul\":214:436   */\n      swap3\n      swap2\n      pop\n      pop\n      jump\t// out\n        /* \"#utility.yul\":523:640   */\n    tag_159:\n        /* \"#utility.yul\":632:633   */\n      0x00\n        /* \"#utility.yul\":629:630   */\n      dup1\n        /* \"#utility.yul\":622:634   */\n      revert\n        /* \"#utility.yul\":646:763   */\n    tag_160:\n        /* \"#utility.yul\":755:756   */\n      0x00\n        /* \"#utility.yul\":752:753   */\n      dup1\n        /* \"#utility.yul\":745:757   */\n      revert\n        /* \"#utility.yul\":769:891   */\n    tag_161:\n        /* \"#utility.yul\":842:866   */\n      tag_224\n        /* \"#utility.yul\":860:865   */\n      dup2\n        /* \"#utility.yul\":842:866   */\n      tag_156\n      jump\t// in\n    tag_224:\n        /* \"#utility.yul\":835:840   */\n      dup2\n        /* \"#utility.yul\":832:867   */\n      eq\n        /* \"#utility.yul\":822:885   */\n      tag_225\n      jumpi\n        /* \"#utility.yul\":881:882   */\n      0x00\n        /* \"#utility.yul\":878:879   */\n      dup1\n        /* \"#utility.yul\":871:883   */\n      revert\n        /* \"#utility.yul\":822:885   */\n    tag_225:\n        /* \"#utility.yul\":769:891   */\n      pop\n      jump\t// out\n        /* \"#utility.yul\":897:1036   */\n    tag_162:\n        /* \"#utility.yul\":943:948   */\n      0x00\n        /* \"#utility.yul\":981:987   */\n      dup2\n        /* \"#utility.yul\":968:988   */\n      calldataload\n        /* \"#utility.yul\":959:988   */\n      swap1\n      pop\n        /* \"#utility.yul\":997:1030   */\n      tag_227\n        /* \"#utility.yul\":1024:1029   */\n      dup2\n        /* \"#utility.yul\":997:1030   */\n      tag_161\n      jump\t// in\n    tag_227:\n        /* \"#utility.yul\":897:1036   */\n      swap3\n      swap2\n      pop\n      pop\n      jump\t// out\n        /* \"#utility.yul\":1042:1371   */\n    tag_20:\n        /* \"#utility.yul\":1101:1107   */\n      0x00\n        /* \"#utility.yul\":1150:1152   */\n      0x20\n        /* \"#utility.yul\":1138:1147   */\n      dup3\n        /* \"#utility.yul\":1129:1136   */\n      dup5\n        /* \"#utility.yul\":1125:1148   */\n      sub\n        /* \"#utility.yul\":1121:1153   */\n      slt\n        /* \"#utility.yul\":1118:1237   */\n      iszero\n      tag_229\n      jumpi\n        /* \"#utility.yul\":1156:1235   */\n      tag_230\n      tag_159\n      jump\t// in\n    tag_230:\n        /* \"#utility.yul\":1118:1237   */\n    tag_229:\n        /* \"#utility.yul\":1276:1277   */\n      0x00\n        /* \"#utility.yul\":1301:1354   */\n      tag_231\n        /* \"#utility.yul\":1346:1353   */\n      dup5\n        /* \"#utility.yul\":1337:1343   */\n      dup3\n        /* \"#utility.yul\":1326:1335   */\n      dup6\n        /* \"#utility.yul\":1322:1344   */\n      add\n        /* \"#utility.yul\":1301:1354   */\n      tag_162\n      jump\t// in\n    tag_231:\n        /* \"#utility.yul\":1291:1354   */\n      swap2\n      pop\n        /* \"#utility.yul\":1247:1364   */\n      pop\n        /* \"#utility.yul\":1042:1371   */\n      swap3\n      swap2\n      pop\n      pop\n      jump\t// out\n        /* \"#utility.yul\":1377:1503   */\n    tag_163:\n        /* \"#utility.yul\":1414:1421   */\n      0x00\n        /* \"#utility.yul\":1454:1496   */\n      0xffffffffffffffffffffffffffffffffffffffff\n        /* \"#utility.yul\":1447:1452   */\n      dup3\n        /* \"#utility.yul\":1443:1497   */\n      and\n        /* \"#utility.yul\":1432:1497   */\n      swap1\n      pop\n        /* \"#utility.yul\":1377:1503   */\n      swap2\n      swap1\n      pop\n      jump\t// out\n        /* \"#utility.yul\":1509:1605   */\n    tag_164:\n        /* \"#utility.yul\":1546:1553   */\n      0x00\n        /* \"#utility.yul\":1575:1599   */\n      tag_234\n        /* \"#utility.yul\":1593:1598   */\n      dup3\n        /* \"#utility.yul\":1575:1599   */\n      tag_163\n      jump\t// in\n    tag_234:\n        /* \"#utility.yul\":1564:1599   */\n      swap1\n      pop\n        /* \"#utility.yul\":1509:1605   */\n      swap2\n      swap1\n      pop\n      jump\t// out\n        /* \"#utility.yul\":1611:1729   */\n    tag_165:\n        /* \"#utility.yul\":1698:1722   */\n      tag_236\n        /* \"#utility.yul\":1716:1721   */\n      dup2\n        /* \"#utility.yul\":1698:1722   */\n      tag_164\n      jump\t// in\n    tag_236:\n        /* \"#utility.yul\":1693:1696   */\n      dup3\n        /* \"#utility.yul\":1686:1723   */\n      mstore\n        /* \"#utility.yul\":1611:1729   */\n      pop\n      pop\n      jump\t// out\n        /* \"#utility.yul\":1735:1957   */\n    tag_23:\n        /* \"#utility.yul\":1828:1832   */\n      0x00\n        /* \"#utility.yul\":1866:1868   */\n      0x20\n        /* \"#utility.yul\":1855:1864   */\n      dup3\n        /* \"#utility.yul\":1851:1869   */\n      add\n        /* \"#utility.yul\":1843:1869   */\n      swap1\n      pop\n        /* \"#utility.yul\":1879:1950   */\n      tag_238\n        /* \"#utility.yul\":1947:1948   */\n      0x00\n        /* \"#utility.yul\":1936:1945   */\n      dup4\n        /* \"#utility.yul\":1932:1949   */\n      add\n        /* \"#utility.yul\":1923:1929   */\n      dup5\n        /* \"#utility.yul\":1879:1950   */\n      tag_165\n      jump\t// in\n    tag_238:\n        /* \"#utility.yul\":1735:1957   */\n      swap3\n      swap2\n      pop\n      pop\n      jump\t// out\n        /* \"#utility.yul\":1963:2085   */\n    tag_166:\n        /* \"#utility.yul\":2036:2060   */\n      tag_240\n        /* \"#utility.yul\":2054:2059   */\n      dup2\n        /* \"#utility.yul\":2036:2060   */\n      tag_164\n      jump\t// in\n    tag_240:\n        /* \"#utility.yul\":2029:2034   */\n      dup2\n        /* \"#utility.yul\":2026:2061   */\n      eq\n        /* \"#utility.yul\":2016:2079   */\n      tag_241\n      jumpi\n        /* \"#utility.yul\":2075:2076   */\n      0x00\n        /* \"#utility.yul\":2072:2073   */\n      dup1\n        /* \"#utility.yul\":2065:2077   */\n      revert\n        /* \"#utility.yul\":2016:2079   */\n    tag_241:\n        /* \"#utility.yul\":1963:2085   */\n      pop\n      jump\t// out\n        /* \"#utility.yul\":2091:2230   */\n    tag_167:\n        /* \"#utility.yul\":2137:2142   */\n      0x00\n        /* \"#utility.yul\":2175:2181   */\n      dup2\n        /* \"#utility.yul\":2162:2182   */\n      calldataload\n        /* \"#utility.yul\":2153:2182   */\n      swap1\n      pop\n        /* \"#utility.yul\":2191:2224   */\n      tag_243\n        /* \"#utility.yul\":2218:2223   */\n      dup2\n        /* \"#utility.yul\":2191:2224   */\n      tag_166\n      jump\t// in\n    tag_243:\n        /* \"#utility.yul\":2091:2230   */\n      swap3\n      swap2\n      pop\n      pop\n      jump\t// out\n        /* \"#utility.yul\":2236:2353   */\n    tag_168:\n        /* \"#utility.yul\":2345:2346   */\n      0x00\n        /* \"#utility.yul\":2342:2343   */\n      dup1\n        /* \"#utility.yul\":2335:2347   */\n      revert\n        /* \"#utility.yul\":2359:2476   */\n    tag_169:\n        /* \"#utility.yul\":2468:2469   */\n      0x00\n        /* \"#utility.yul\":2465:2466   */\n      dup1\n        /* \"#utility.yul\":2458:2470   */\n      revert\n        /* \"#utility.yul\":2482:2599   */\n    tag_170:\n        /* \"#utility.yul\":2591:2592   */\n      0x00\n        /* \"#utility.yul\":2588:2589   */\n      dup1\n        /* \"#utility.yul\":2581:2593   */\n      revert\n        /* \"#utility.yul\":2618:3170   */\n    tag_171:\n        /* \"#utility.yul\":2675:2683   */\n      0x00\n        /* \"#utility.yul\":2685:2691   */\n      dup1\n        /* \"#utility.yul\":2735:2738   */\n      dup4\n        /* \"#utility.yul\":2728:2732   */\n      0x1f\n        /* \"#utility.yul\":2720:2726   */\n      dup5\n        /* \"#utility.yul\":2716:2733   */\n      add\n        /* \"#utility.yul\":2712:2739   */\n      slt\n        /* \"#utility.yul\":2702:2824   */\n      tag_248\n      jumpi\n        /* \"#utility.yul\":2743:2822   */\n      tag_249\n      tag_168\n      jump\t// in\n    tag_249:\n        /* \"#utility.yul\":2702:2824   */\n    tag_248:\n        /* \"#utility.yul\":2856:2862   */\n      dup3\n        /* \"#utility.yul\":2843:2863   */\n      calldataload\n        /* \"#utility.yul\":2833:2863   */\n      swap1\n      pop\n        /* \"#utility.yul\":2886:2904   */\n      0xffffffffffffffff\n        /* \"#utility.yul\":2878:2884   */\n      dup2\n        /* \"#utility.yul\":2875:2905   */\n      gt\n        /* \"#utility.yul\":2872:2989   */\n      iszero\n      tag_250\n      jumpi\n        /* \"#utility.yul\":2908:2987   */\n      tag_251\n      tag_169\n      jump\t// in\n    tag_251:\n        /* \"#utility.yul\":2872:2989   */\n    tag_250:\n        /* \"#utility.yul\":3022:3026   */\n      0x20\n        /* \"#utility.yul\":3014:3020   */\n      dup4\n        /* \"#utility.yul\":3010:3027   */\n      add\n        /* \"#utility.yul\":2998:3027   */\n      swap2\n      pop\n        /* \"#utility.yul\":3076:3079   */\n      dup4\n        /* \"#utility.yul\":3068:3072   */\n      0x01\n        /* \"#utility.yul\":3060:3066   */\n      dup3\n        /* \"#utility.yul\":3056:3073   */\n      mul\n        /* \"#utility.yul\":3046:3054   */\n      dup4\n        /* \"#utility.yul\":3042:3074   */\n      add\n        /* \"#utility.yul\":3039:3080   */\n      gt\n        /* \"#utility.yul\":3036:3164   */\n      iszero\n      tag_252\n      jumpi\n        /* \"#utility.yul\":3083:3162   */\n      tag_253\n      tag_170\n      jump\t// in\n    tag_253:\n        /* \"#utility.yul\":3036:3164   */\n    tag_252:\n        /* \"#utility.yul\":2618:3170   */\n      swap3\n      pop\n      swap3\n      swap1\n      pop\n      jump\t// out\n        /* \"#utility.yul\":3176:3993   */\n    tag_27:\n        /* \"#utility.yul\":3264:3270   */\n      0x00\n        /* \"#utility.yul\":3272:3278   */\n      dup1\n        /* \"#utility.yul\":3280:3286   */\n      0x00\n        /* \"#utility.yul\":3288:3294   */\n      dup1\n        /* \"#utility.yul\":3337:3339   */\n      0x60\n        /* \"#utility.yul\":3325:3334   */\n      dup6\n        /* \"#utility.yul\":3316:3323   */\n      dup8\n        /* \"#utility.yul\":3312:3335   */\n      sub\n        /* \"#utility.yul\":3308:3340   */\n      slt\n        /* \"#utility.yul\":3305:3424   */\n      iszero\n      tag_255\n      jumpi\n        /* \"#utility.yul\":3343:3422   */\n      tag_256\n      tag_159\n      jump\t// in\n    tag_256:\n        /* \"#utility.yul\":3305:3424   */\n    tag_255:\n        /* \"#utility.yul\":3463:3464   */\n      0x00\n        /* \"#utility.yul\":3488:3541   */\n      tag_257\n        /* \"#utility.yul\":3533:3540   */\n      dup8\n        /* \"#utility.yul\":3524:3530   */\n      dup3\n        /* \"#utility.yul\":3513:3522   */\n      dup9\n        /* \"#utility.yul\":3509:3531   */\n      add\n        /* \"#utility.yul\":3488:3541   */\n      tag_167\n      jump\t// in\n    tag_257:\n        /* \"#utility.yul\":3478:3541   */\n      swap5\n      pop\n        /* \"#utility.yul\":3434:3551   */\n      pop\n        /* \"#utility.yul\":3590:3592   */\n      0x20\n        /* \"#utility.yul\":3616:3669   */\n      tag_258\n        /* \"#utility.yul\":3661:3668   */\n      dup8\n        /* \"#utility.yul\":3652:3658   */\n      dup3\n        /* \"#utility.yul\":3641:3650   */\n      dup9\n        /* \"#utility.yul\":3637:3659   */\n      add\n        /* \"#utility.yul\":3616:3669   */\n      tag_162\n      jump\t// in\n    tag_258:\n        /* \"#utility.yul\":3606:3669   */\n      swap4\n      pop\n        /* \"#utility.yul\":3561:3679   */\n      pop\n        /* \"#utility.yul\":3746:3748   */\n      0x40\n        /* \"#utility.yul\":3735:3744   */\n      dup6\n        /* \"#utility.yul\":3731:3749   */\n      add\n        /* \"#utility.yul\":3718:3750   */\n      calldataload\n        /* \"#utility.yul\":3777:3795   */\n      0xffffffffffffffff\n        /* \"#utility.yul\":3769:3775   */\n      dup2\n        /* \"#utility.yul\":3766:3796   */\n      gt\n        /* \"#utility.yul\":3763:3880   */\n      iszero\n      tag_259\n      jumpi\n        /* \"#utility.yul\":3799:3878   */\n      tag_260\n      tag_160\n      jump\t// in\n    tag_260:\n        /* \"#utility.yul\":3763:3880   */\n    tag_259:\n        /* \"#utility.yul\":3912:3976   */\n      tag_261\n        /* \"#utility.yul\":3968:3975   */\n      dup8\n        /* \"#utility.yul\":3959:3965   */\n      dup3\n        /* \"#utility.yul\":3948:3957   */\n      dup9\n        /* \"#utility.yul\":3944:3966   */\n      add\n        /* \"#utility.yul\":3912:3976   */\n      tag_171\n      jump\t// in\n    tag_261:\n        /* \"#utility.yul\":3894:3976   */\n      swap3\n      pop\n      swap3\n      pop\n        /* \"#utility.yul\":3689:3986   */\n      pop\n        /* \"#utility.yul\":3176:3993   */\n      swap3\n      swap6\n      swap2\n      swap5\n      pop\n      swap3\n      pop\n      jump\t// out\n        /* \"#utility.yul\":3999:4328   */\n    tag_36:\n        /* \"#utility.yul\":4058:4064   */\n      0x00\n        /* \"#utility.yul\":4107:4109   */\n      0x20\n        /* \"#utility.yul\":4095:4104   */\n      dup3\n        /* \"#utility.yul\":4086:4093   */\n      dup5\n        /* \"#utility.yul\":4082:4105   */\n      sub\n        /* \"#utility.yul\":4078:4110   */\n      slt\n        /* \"#utility.yul\":4075:4194   */\n      iszero\n      tag_263\n      jumpi\n        /* \"#utility.yul\":4113:4192   */\n      tag_264\n      tag_159\n      jump\t// in\n    tag_264:\n        /* \"#utility.yul\":4075:4194   */\n    tag_263:\n        /* \"#utility.yul\":4233:4234   */\n      0x00\n        /* \"#utility.yul\":4258:4311   */\n      tag_265\n        /* \"#utility.yul\":4303:4310   */\n      dup5\n        /* \"#utility.yul\":4294:4300   */\n      dup3\n        /* \"#utility.yul\":4283:4292   */\n      dup6\n        /* \"#utility.yul\":4279:4301   */\n      add\n        /* \"#utility.yul\":4258:4311   */\n      tag_167\n      jump\t// in\n    tag_265:\n        /* \"#utility.yul\":4248:4311   */\n      swap2\n      pop\n        /* \"#utility.yul\":4204:4321   */\n      pop\n        /* \"#utility.yul\":3999:4328   */\n      swap3\n      swap2\n      pop\n      pop\n      jump\t// out\n        /* \"#utility.yul\":4334:4424   */\n    tag_172:\n        /* \"#utility.yul\":4368:4375   */\n      0x00\n        /* \"#utility.yul\":4411:4416   */\n      dup2\n        /* \"#utility.yul\":4404:4417   */\n      iszero\n        /* \"#utility.yul\":4397:4418   */\n      iszero\n        /* \"#utility.yul\":4386:4418   */\n      swap1\n      pop\n        /* \"#utility.yul\":4334:4424   */\n      swap2\n      swap1\n      pop\n      jump\t// out\n        /* \"#utility.yul\":4430:4539   */\n    tag_173:\n        /* \"#utility.yul\":4511:4532   */\n      tag_268\n        /* \"#utility.yul\":4526:4531   */\n      dup2\n        /* \"#utility.yul\":4511:4532   */\n      tag_172\n      jump\t// in\n    tag_268:\n        /* \"#utility.yul\":4506:4509   */\n      dup3\n        /* \"#utility.yul\":4499:4533   */\n      mstore\n        /* \"#utility.yul\":4430:4539   */\n      pop\n      pop\n      jump\t// out\n        /* \"#utility.yul\":4545:4755   */\n    tag_39:\n        /* \"#utility.yul\":4632:4636   */\n      0x00\n        /* \"#utility.yul\":4670:4672   */\n      0x20\n        /* \"#utility.yul\":4659:4668   */\n      dup3\n        /* \"#utility.yul\":4655:4673   */\n      add\n        /* \"#utility.yul\":4647:4673   */\n      swap1\n      pop\n        /* \"#utility.yul\":4683:4748   */\n      tag_270\n        /* \"#utility.yul\":4745:4746   */\n      0x00\n        /* \"#utility.yul\":4734:4743   */\n      dup4\n        /* \"#utility.yul\":4730:4747   */\n      add\n        /* \"#utility.yul\":4721:4727   */\n      dup5\n        /* \"#utility.yul\":4683:4748   */\n      tag_173\n      jump\t// in\n    tag_270:\n        /* \"#utility.yul\":4545:4755   */\n      swap3\n      swap2\n      pop\n      pop\n      jump\t// out\n        /* \"#utility.yul\":4761:5235   */\n    tag_43:\n        /* \"#utility.yul\":4829:4835   */\n      0x00\n        /* \"#utility.yul\":4837:4843   */\n      dup1\n        /* \"#utility.yul\":4886:4888   */\n      0x40\n        /* \"#utility.yul\":4874:4883   */\n      dup4\n        /* \"#utility.yul\":4865:4872   */\n      dup6\n        /* \"#utility.yul\":4861:4884   */\n      sub\n        /* \"#utility.yul\":4857:4889   */\n      slt\n        /* \"#utility.yul\":4854:4973   */\n      iszero\n      tag_272\n      jumpi\n        /* \"#utility.yul\":4892:4971   */\n      tag_273\n      tag_159\n      jump\t// in\n    tag_273:\n        /* \"#utility.yul\":4854:4973   */\n    tag_272:\n        /* \"#utility.yul\":5012:5013   */\n      0x00\n        /* \"#utility.yul\":5037:5090   */\n      tag_274\n        /* \"#utility.yul\":5082:5089   */\n      dup6\n        /* \"#utility.yul\":5073:5079   */\n      dup3\n        /* \"#utility.yul\":5062:5071   */\n      dup7\n        /* \"#utility.yul\":5058:5080   */\n      add\n        /* \"#utility.yul\":5037:5090   */\n      tag_162\n      jump\t// in\n    tag_274:\n        /* \"#utility.yul\":5027:5090   */\n      swap3\n      pop\n        /* \"#utility.yul\":4983:5100   */\n      pop\n        /* \"#utility.yul\":5139:5141   */\n      0x20\n        /* \"#utility.yul\":5165:5218   */\n      tag_275\n        /* \"#utility.yul\":5210:5217   */\n      dup6\n        /* \"#utility.yul\":5201:5207   */\n      dup3\n        /* \"#utility.yul\":5190:5199   */\n      dup7\n        /* \"#utility.yul\":5186:5208   */\n      add\n        /* \"#utility.yul\":5165:5218   */\n      tag_167\n      jump\t// in\n    tag_275:\n        /* \"#utility.yul\":5155:5218   */\n      swap2\n      pop\n        /* \"#utility.yul\":5110:5228   */\n      pop\n        /* \"#utility.yul\":4761:5235   */\n      swap3\n      pop\n      swap3\n      swap1\n      pop\n      jump\t// out\n        /* \"#utility.yul\":5241:5339   */\n    tag_174:\n        /* \"#utility.yul\":5292:5298   */\n      0x00\n        /* \"#utility.yul\":5326:5331   */\n      dup2\n        /* \"#utility.yul\":5320:5332   */\n      mload\n        /* \"#utility.yul\":5310:5332   */\n      swap1\n      pop\n        /* \"#utility.yul\":5241:5339   */\n      swap2\n      swap1\n      pop\n      jump\t// out\n        /* \"#utility.yul\":5345:5513   */\n    tag_175:\n        /* \"#utility.yul\":5428:5439   */\n      0x00\n        /* \"#utility.yul\":5462:5468   */\n      dup3\n        /* \"#utility.yul\":5457:5460   */\n      dup3\n        /* \"#utility.yul\":5450:5469   */\n      mstore\n        /* \"#utility.yul\":5502:5506   */\n      0x20\n        /* \"#utility.yul\":5497:5500   */\n      dup3\n        /* \"#utility.yul\":5493:5507   */\n      add\n        /* \"#utility.yul\":5478:5507   */\n      swap1\n      pop\n        /* \"#utility.yul\":5345:5513   */\n      swap3\n      swap2\n      pop\n      pop\n      jump\t// out\n        /* \"#utility.yul\":5519:5765   */\n    tag_176:\n        /* \"#utility.yul\":5600:5601   */\n      0x00\n        /* \"#utility.yul\":5610:5723   */\n    tag_279:\n        /* \"#utility.yul\":5624:5630   */\n      dup4\n        /* \"#utility.yul\":5621:5622   */\n      dup2\n        /* \"#utility.yul\":5618:5631   */\n      lt\n        /* \"#utility.yul\":5610:5723   */\n      iszero\n      tag_281\n      jumpi\n        /* \"#utility.yul\":5709:5710   */\n      dup1\n        /* \"#utility.yul\":5704:5707   */\n      dup3\n        /* \"#utility.yul\":5700:5711   */\n      add\n        /* \"#utility.yul\":5694:5712   */\n      mload\n        /* \"#utility.yul\":5690:5691   */\n      dup2\n        /* \"#utility.yul\":5685:5688   */\n      dup5\n        /* \"#utility.yul\":5681:5692   */\n      add\n        /* \"#utility.yul\":5674:5713   */\n      mstore\n        /* \"#utility.yul\":5646:5648   */\n      0x20\n        /* \"#utility.yul\":5643:5644   */\n      dup2\n        /* \"#utility.yul\":5639:5649   */\n      add\n        /* \"#utility.yul\":5634:5649   */\n      swap1\n      pop\n        /* \"#utility.yul\":5610:5723   */\n      jump(tag_279)\n    tag_281:\n        /* \"#utility.yul\":5757:5758   */\n      0x00\n        /* \"#utility.yul\":5748:5754   */\n      dup5\n        /* \"#utility.yul\":5743:5746   */\n      dup5\n        /* \"#utility.yul\":5739:5755   */\n      add\n        /* \"#utility.yul\":5732:5759   */\n      mstore\n        /* \"#utility.yul\":5581:5765   */\n      pop\n        /* \"#utility.yul\":5519:5765   */\n      pop\n      pop\n      pop\n      jump\t// out\n        /* \"#utility.yul\":5771:5873   */\n    tag_177:\n        /* \"#utility.yul\":5812:5818   */\n      0x00\n        /* \"#utility.yul\":5863:5865   */\n      0x1f\n        /* \"#utility.yul\":5859:5866   */\n      not\n        /* \"#utility.yul\":5854:5856   */\n      0x1f\n        /* \"#utility.yul\":5847:5852   */\n      dup4\n        /* \"#utility.yul\":5843:5857   */\n      add\n        /* \"#utility.yul\":5839:5867   */\n      and\n        /* \"#utility.yul\":5829:5867   */\n      swap1\n      pop\n        /* \"#utility.yul\":5771:5873   */\n      swap2\n      swap1\n      pop\n      jump\t// out\n        /* \"#utility.yul\":5879:6252   */\n    tag_178:\n        /* \"#utility.yul\":5965:5968   */\n      0x00\n        /* \"#utility.yul\":5993:6031   */\n      tag_284\n        /* \"#utility.yul\":6025:6030   */\n      dup3\n        /* \"#utility.yul\":5993:6031   */\n      tag_174\n      jump\t// in\n    tag_284:\n        /* \"#utility.yul\":6047:6117   */\n      tag_285\n        /* \"#utility.yul\":6110:6116   */\n      dup2\n        /* \"#utility.yul\":6105:6108   */\n      dup6\n        /* \"#utility.yul\":6047:6117   */\n      tag_175\n      jump\t// in\n    tag_285:\n        /* \"#utility.yul\":6040:6117   */\n      swap4\n      pop\n        /* \"#utility.yul\":6126:6191   */\n      tag_286\n        /* \"#utility.yul\":6184:6190   */\n      dup2\n        /* \"#utility.yul\":6179:6182   */\n      dup6\n        /* \"#utility.yul\":6172:6176   */\n      0x20\n        /* \"#utility.yul\":6165:6170   */\n      dup7\n        /* \"#utility.yul\":6161:6177   */\n      add\n        /* \"#utility.yul\":6126:6191   */\n      tag_176\n      jump\t// in\n    tag_286:\n        /* \"#utility.yul\":6216:6245   */\n      tag_287\n        /* \"#utility.yul\":6238:6244   */\n      dup2\n        /* \"#utility.yul\":6216:6245   */\n      tag_177\n      jump\t// in\n    tag_287:\n        /* \"#utility.yul\":6211:6214   */\n      dup5\n        /* \"#utility.yul\":6207:6246   */\n      add\n        /* \"#utility.yul\":6200:6246   */\n      swap2\n      pop\n        /* \"#utility.yul\":5969:6252   */\n      pop\n        /* \"#utility.yul\":5879:6252   */\n      swap3\n      swap2\n      pop\n      pop\n      jump\t// out\n        /* \"#utility.yul\":6258:6886   */\n    tag_51:\n        /* \"#utility.yul\":6447:6451   */\n      0x00\n        /* \"#utility.yul\":6485:6488   */\n      0x80\n        /* \"#utility.yul\":6474:6483   */\n      dup3\n        /* \"#utility.yul\":6470:6489   */\n      add\n        /* \"#utility.yul\":6462:6489   */\n      swap1\n      pop\n        /* \"#utility.yul\":6499:6570   */\n      tag_289\n        /* \"#utility.yul\":6567:6568   */\n      0x00\n        /* \"#utility.yul\":6556:6565   */\n      dup4\n        /* \"#utility.yul\":6552:6569   */\n      add\n        /* \"#utility.yul\":6543:6549   */\n      dup8\n        /* \"#utility.yul\":6499:6570   */\n      tag_165\n      jump\t// in\n    tag_289:\n        /* \"#utility.yul\":6580:6652   */\n      tag_290\n        /* \"#utility.yul\":6648:6650   */\n      0x20\n        /* \"#utility.yul\":6637:6646   */\n      dup4\n        /* \"#utility.yul\":6633:6651   */\n      add\n        /* \"#utility.yul\":6624:6630   */\n      dup7\n        /* \"#utility.yul\":6580:6652   */\n      tag_157\n      jump\t// in\n    tag_290:\n        /* \"#utility.yul\":6699:6708   */\n      dup2\n        /* \"#utility.yul\":6693:6697   */\n      dup2\n        /* \"#utility.yul\":6689:6709   */\n      sub\n        /* \"#utility.yul\":6684:6686   */\n      0x40\n        /* \"#utility.yul\":6673:6682   */\n      dup4\n        /* \"#utility.yul\":6669:6687   */\n      add\n        /* \"#utility.yul\":6662:6710   */\n      mstore\n        /* \"#utility.yul\":6727:6803   */\n      tag_291\n        /* \"#utility.yul\":6798:6802   */\n      dup2\n        /* \"#utility.yul\":6789:6795   */\n      dup6\n        /* \"#utility.yul\":6727:6803   */\n      tag_178\n      jump\t// in\n    tag_291:\n        /* \"#utility.yul\":6719:6803   */\n      swap1\n      pop\n        /* \"#utility.yul\":6813:6879   */\n      tag_292\n        /* \"#utility.yul\":6875:6877   */\n      0x60\n        /* \"#utility.yul\":6864:6873   */\n      dup4\n        /* \"#utility.yul\":6860:6878   */\n      add\n        /* \"#utility.yul\":6851:6857   */\n      dup5\n        /* \"#utility.yul\":6813:6879   */\n      tag_173\n      jump\t// in\n    tag_292:\n        /* \"#utility.yul\":6258:6886   */\n      swap6\n      swap5\n      pop\n      pop\n      pop\n      pop\n      pop\n      jump\t// out\n        /* \"#utility.yul\":6892:7061   */\n    tag_179:\n        /* \"#utility.yul\":6976:6987   */\n      0x00\n        /* \"#utility.yul\":7010:7016   */\n      dup3\n        /* \"#utility.yul\":7005:7008   */\n      dup3\n        /* \"#utility.yul\":6998:7017   */\n      mstore\n        /* \"#utility.yul\":7050:7054   */\n      0x20\n        /* \"#utility.yul\":7045:7048   */\n      dup3\n        /* \"#utility.yul\":7041:7055   */\n      add\n        /* \"#utility.yul\":7026:7055   */\n      swap1\n      pop\n        /* \"#utility.yul\":6892:7061   */\n      swap3\n      swap2\n      pop\n      pop\n      jump\t// out\n        /* \"#utility.yul\":7067:7226   */\n    tag_180:\n        /* \"#utility.yul\":7207:7218   */\n      0x6e6f74206f776e65720000000000000000000000000000000000000000000000\n        /* \"#utility.yul\":7203:7204   */\n      0x00\n        /* \"#utility.yul\":7195:7201   */\n      dup3\n        /* \"#utility.yul\":7191:7205   */\n      add\n        /* \"#utility.yul\":7184:7219   */\n      mstore\n        /* \"#utility.yul\":7067:7226   */\n      pop\n      jump\t// out\n        /* \"#utility.yul\":7232:7597   */\n    tag_181:\n        /* \"#utility.yul\":7374:7377   */\n      0x00\n        /* \"#utility.yul\":7395:7461   */\n      tag_296\n        /* \"#utility.yul\":7459:7460   */\n      0x09\n        /* \"#utility.yul\":7454:7457   */\n      dup4\n        /* \"#utility.yul\":7395:7461   */\n      tag_179\n      jump\t// in\n    tag_296:\n        /* \"#utility.yul\":7388:7461   */\n      swap2\n      pop\n        /* \"#utility.yul\":7470:7563   */\n      tag_297\n        /* \"#utility.yul\":7559:7562   */\n      dup3\n        /* \"#utility.yul\":7470:7563   */\n      tag_180\n      jump\t// in\n    tag_297:\n        /* \"#utility.yul\":7588:7590   */\n      0x20\n        /* \"#utility.yul\":7583:7586   */\n      dup3\n        /* \"#utility.yul\":7579:7591   */\n      add\n        /* \"#utility.yul\":7572:7591   */\n      swap1\n      pop\n        /* \"#utility.yul\":7232:7597   */\n      swap2\n      swap1\n      pop\n      jump\t// out\n        /* \"#utility.yul\":7603:8022   */\n    tag_69:\n        /* \"#utility.yul\":7769:7773   */\n      0x00\n        /* \"#utility.yul\":7807:7809   */\n      0x20\n        /* \"#utility.yul\":7796:7805   */\n      dup3\n        /* \"#utility.yul\":7792:7810   */\n      add\n        /* \"#utility.yul\":7784:7810   */\n      swap1\n      pop\n        /* \"#utility.yul\":7856:7865   */\n      dup2\n        /* \"#utility.yul\":7850:7854   */\n      dup2\n        /* \"#utility.yul\":7846:7866   */\n      sub\n        /* \"#utility.yul\":7842:7843   */\n      0x00\n        /* \"#utility.yul\":7831:7840   */\n      dup4\n        /* \"#utility.yul\":7827:7844   */\n      add\n        /* \"#utility.yul\":7820:7867   */\n      mstore\n        /* \"#utility.yul\":7884:8015   */\n      tag_299\n        /* \"#utility.yul\":8010:8014   */\n      dup2\n        /* \"#utility.yul\":7884:8015   */\n      tag_181\n      jump\t// in\n    tag_299:\n        /* \"#utility.yul\":7876:8015   */\n      swap1\n      pop\n        /* \"#utility.yul\":7603:8022   */\n      swap2\n      swap1\n      pop\n      jump\t// out\n        /* \"#utility.yul\":8028:8208   */\n    tag_182:\n        /* \"#utility.yul\":8076:8153   */\n      0x4e487b7100000000000000000000000000000000000000000000000000000000\n        /* \"#utility.yul\":8073:8074   */\n      0x00\n        /* \"#utility.yul\":8066:8154   */\n      mstore\n        /* \"#utility.yul\":8173:8177   */\n      0x41\n        /* \"#utility.yul\":8170:8171   */\n      0x04\n        /* \"#utility.yul\":8163:8178   */\n      mstore\n        /* \"#utility.yul\":8197:8201   */\n      0x24\n        /* \"#utility.yul\":8194:8195   */\n      0x00\n        /* \"#utility.yul\":8187:8202   */\n      revert\n        /* \"#utility.yul\":8214:8394   */\n    tag_183:\n        /* \"#utility.yul\":8262:8339   */\n      0x4e487b7100000000000000000000000000000000000000000000000000000000\n        /* \"#utility.yul\":8259:8260   */\n      0x00\n        /* \"#utility.yul\":8252:8340   */\n      mstore\n        /* \"#utility.yul\":8359:8363   */\n      0x22\n        /* \"#utility.yul\":8356:8357   */\n      0x04\n        /* \"#utility.yul\":8349:8364   */\n      mstore\n        /* \"#utility.yul\":8383:8387   */\n      0x24\n        /* \"#utility.yul\":8380:8381   */\n      0x00\n        /* \"#utility.yul\":8373:8388   */\n      revert\n        /* \"#utility.yul\":8400:8720   */\n    tag_98:\n        /* \"#utility.yul\":8444:8450   */\n      0x00\n        /* \"#utility.yul\":8481:8482   */\n      0x02\n        /* \"#utility.yul\":8475:8479   */\n      dup3\n        /* \"#utility.yul\":8471:8483   */\n      div\n        /* \"#utility.yul\":8461:8483   */\n      swap1\n      pop\n        /* \"#utility.yul\":8528:8529   */\n      0x01\n        /* \"#utility.yul\":8522:8526   */\n      dup3\n        /* \"#utility.yul\":8518:8530   */\n      and\n        /* \"#utility.yul\":8549:8567   */\n      dup1\n        /* \"#utility.yul\":8539:8620   */\n      tag_303\n      jumpi\n        /* \"#utility.yul\":8605:8609   */\n      0x7f\n        /* \"#utility.yul\":8597:8603   */\n      dup3\n        /* \"#utility.yul\":8593:8610   */\n      and\n        /* \"#utility.yul\":8583:8610   */\n      swap2\n      pop\n        /* \"#utility.yul\":8539:8620   */\n    tag_303:\n        /* \"#utility.yul\":8667:8669   */\n      0x20\n        /* \"#utility.yul\":8659:8665   */\n      dup3\n        /* \"#utility.yul\":8656:8670   */\n      lt\n        /* \"#utility.yul\":8636:8654   */\n      dup2\n        /* \"#utility.yul\":8633:8671   */\n      sub\n        /* \"#utility.yul\":8630:8714   */\n      tag_304\n      jumpi\n        /* \"#utility.yul\":8686:8704   */\n      tag_305\n      tag_183\n      jump\t// in\n    tag_305:\n        /* \"#utility.yul\":8630:8714   */\n    tag_304:\n        /* \"#utility.yul\":8451:8720   */\n      pop\n        /* \"#utility.yul\":8400:8720   */\n      swap2\n      swap1\n      pop\n      jump\t// out\n        /* \"#utility.yul\":8726:8866   */\n    tag_184:\n        /* \"#utility.yul\":8774:8778   */\n      0x00\n        /* \"#utility.yul\":8797:8800   */\n      dup2\n        /* \"#utility.yul\":8789:8800   */\n      swap1\n      pop\n        /* \"#utility.yul\":8820:8823   */\n      dup2\n        /* \"#utility.yul\":8817:8818   */\n      0x00\n        /* \"#utility.yul\":8810:8824   */\n      mstore\n        /* \"#utility.yul\":8854:8858   */\n      0x20\n        /* \"#utility.yul\":8851:8852   */\n      0x00\n        /* \"#utility.yul\":8841:8859   */\n      keccak256\n        /* \"#utility.yul\":8833:8859   */\n      swap1\n      pop\n        /* \"#utility.yul\":8726:8866   */\n      swap2\n      swap1\n      pop\n      jump\t// out\n        /* \"#utility.yul\":8872:8965   */\n    tag_185:\n        /* \"#utility.yul\":8909:8915   */\n      0x00\n        /* \"#utility.yul\":8956:8958   */\n      0x20\n        /* \"#utility.yul\":8951:8953   */\n      0x1f\n        /* \"#utility.yul\":8944:8949   */\n      dup4\n        /* \"#utility.yul\":8940:8954   */\n      add\n        /* \"#utility.yul\":8936:8959   */\n      div\n        /* \"#utility.yul\":8926:8959   */\n      swap1\n      pop\n        /* \"#utility.yul\":8872:8965   */\n      swap2\n      swap1\n      pop\n      jump\t// out\n        /* \"#utility.yul\":8971:9078   */\n    tag_186:\n        /* \"#utility.yul\":9015:9023   */\n      0x00\n        /* \"#utility.yul\":9065:9070   */\n      dup3\n        /* \"#utility.yul\":9059:9063   */\n      dup3\n        /* \"#utility.yul\":9055:9071   */\n      shl\n        /* \"#utility.yul\":9034:9071   */\n      swap1\n      pop\n        /* \"#utility.yul\":8971:9078   */\n      swap3\n      swap2\n      pop\n      pop\n      jump\t// out\n        /* \"#utility.yul\":9084:9477   */\n    tag_187:\n        /* \"#utility.yul\":9153:9159   */\n      0x00\n        /* \"#utility.yul\":9203:9204   */\n      0x08\n        /* \"#utility.yul\":9191:9201   */\n      dup4\n        /* \"#utility.yul\":9187:9205   */\n      mul\n        /* \"#utility.yul\":9226:9323   */\n      tag_310\n        /* \"#utility.yul\":9256:9322   */\n      0xffffffffffffffffffffffffffffffffffffffffffffffffffffffffffffffff\n        /* \"#utility.yul\":9245:9254   */\n      dup3\n        /* \"#utility.yul\":9226:9323   */\n      tag_186\n      jump\t// in\n    tag_310:\n        /* \"#utility.yul\":9344:9383   */\n      tag_311\n        /* \"#utility.yul\":9374:9382   */\n      dup7\n        /* \"#utility.yul\":9363:9372   */\n      dup4\n        /* \"#utility.yul\":9344:9383   */\n      tag_186\n      jump\t// in\n    tag_311:\n        /* \"#utility.yul\":9332:9383   */\n      swap6\n      pop\n        /* \"#utility.yul\":9416:9420   */\n      dup1\n        /* \"#utility.yul\":9412:9421   */\n      not\n        /* \"#utility.yul\":9405:9410   */\n      dup5\n        /* \"#utility.yul\":9401:9422   */\n      and\n        /* \"#utility.yul\":9392:9422   */\n      swap4\n      pop\n        /* \"#utility.yul\":9465:9469   */\n      dup1\n        /* \"#utility.yul\":9455:9463   */\n      dup7\n        /* \"#utility.yul\":9451:9470   */\n      and\n        /* \"#utility.yul\":9444:9449   */\n      dup5\n        /* \"#utility.yul\":9441:9471   */\n      or\n        /* \"#utility.yul\":9431:9471   */\n      swap3\n      pop\n        /* \"#utility.yul\":9160:9477   */\n      pop\n      pop\n        /* \"#utility.yul\":9084:9477   */\n      swap4\n      swap3\n      pop\n      pop\n      pop\n      jump\t// out\n        /* \"#utility.yul\":9483:9543   */\n    tag_188:\n        /* \"#utility.yul\":9511:9514   */\n      0x00\n        /* \"#utility.yul\":9532:9537   */\n      dup2\n        /* \"#utility.yul\":9525:9537   */\n      swap1\n      pop\n        /* \"#utility.yul\":9483:9543   */\n      swap2\n      swap1\n      pop\n      jump\t// out\n        /* \"#utility.yul\":9549:9691   */\n    tag_189:\n        /* \"#utility.yul\":9599:9608   */\n      0x00\n        /* \"#utility.yul\":9632:9685   */\n      tag_314\n        /* \"#utility.yul\":9650:9684   */\n      tag_315\n        /* \"#utility.yul\":9659:9683   */\n      tag_316\n        /* \"#utility.yul\":9677:9682   */\n      dup5\n        /* \"#utility.yul\":9659:9683   */\n      tag_156\n      jump\t// in\n    tag_316:\n        /* \"#utility.yul\":9650:9684   */\n      tag_188\n      jump\t// in\n    tag_315:\n        /* \"#utility.yul\":9632:9685   */\n      tag_156\n      jump\t// in\n    tag_314:\n        /* \"#utility.yul\":9619:9685   */\n      swap1\n      pop\n        /* \"#utility.yul\":9549:9691   */\n      swap2\n      swap1\n      pop\n      jump\t// out\n        /* \"#utility.yul\":9697:9772   */\n    tag_190:\n        /* \"#utility.yul\":9740:9743   */\n      0x00\n        /* \"#utility.yul\":9761:9766   */\n      dup2\n        /* \"#utility.yul\":9754:9766   */\n      swap1\n      pop\n        /* \"#utility.yul\":9697:9772   */\n      swap2\n      swap1\n      pop\n      jump\t// out\n        /* \"#utility.yul\":9778:10047   */\n    tag_191:\n        /* \"#utility.yul\":9888:9927   */\n      tag_319\n        /* \"#utility.yul\":9919:9926   */\n      dup4\n        /* \"#utility.yul\":9888:9927   */\n      tag_189\n      jump\t// in\n    tag_319:\n        /* \"#utility.yul\":9949:10040   */\n      tag_320\n        /* \"#utility.yul\":9998:10039   */\n      tag_321\n        /* \"#utility.yul\":10022:10038   */\n      dup3\n        /* \"#utility.yul\":9998:10039   */\n      tag_190\n      jump\t// in\n    tag_321:\n        /* \"#utility.yul\":9990:9996   */\n      dup5\n        /* \"#utility.yul\":9983:9987   */\n      dup5\n        /* \"#utility.yul\":9977:9988   */\n      sload\n        /* \"#utility.yul\":9949:10040   */\n      tag_187\n      jump\t// in\n    tag_320:\n        /* \"#utility.yul\":9943:9947   */\n      dup3\n        /* \"#utility.yul\":9936:10041   */\n      sstore\n        /* \"#utility.yul\":9854:10047   */\n      pop\n        /* \"#utility.yul\":9778:10047   */\n      pop\n      pop\n      pop\n      jump\t// out\n        /* \"#utility.yul\":10053:10126   */\n    tag_192:\n        /* \"#utility.yul\":10098:10101   */\n      0x00\n        /* \"#utility.yul\":10053:10126   */\n      swap1\n      jump\t// out\n        /* \"#utility.yul\":10132:10321   */\n    tag_193:\n        /* \"#utility.yul\":10209:10241   */\n      tag_324\n      tag_192\n      jump\t// in\n    tag_324:\n        /* \"#utility.yul\":10250:10315   */\n      tag_325\n        /* \"#utility.yul\":10308:10314   */\n      dup2\n        /* \"#utility.yul\":10300:10306   */\n      dup5\n        /* \"#utility.yul\":10294:10298   */\n      dup5\n        /* \"#utility.yul\":10250:10315   */\n      tag_191\n      jump\t// in\n    tag_325:\n        /* \"#utility.yul\":10185:10321   */\n      pop\n        /* \"#utility.yul\":10132:10321   */\n      pop\n      pop\n      jump\t// out\n        /* \"#utility.yul\":10327:10513   */\n    tag_194:\n        /* \"#utility.yul\":10387:10507   */\n    tag_327:\n        /* \"#utility.yul\":10404:10407   */\n      dup2\n        /* \"#utility.yul\":10397:10402   */\n      dup2\n        /* \"#utility.yul\":10394:10408   */\n      lt\n        /* \"#utility.yul\":10387:10507   */\n      iszero\n      tag_329\n      jumpi\n        /* \"#utility.yul\":10458:10497   */\n      tag_330\n        /* \"#utility.yul\":10495:10496   */\n      0x00\n        /* \"#utility.yul\":10488:10493   */\n      dup3\n        /* \"#utility.yul\":10458:10497   */\n      tag_193\n      jump\t// in\n    tag_330:\n        /* \"#utility.yul\":10431:10432   */\n      0x01\n        /* \"#utility.yul\":10424:10429   */\n      dup2\n        /* \"#utility.yul\":10420:10433   */\n      add\n        /* \"#utility.yul\":10411:10433   */\n      swap1\n      pop\n        /* \"#utility.yul\":10387:10507   */\n      jump(tag_327)\n    tag_329:\n        /* \"#utility.yul\":10327:10513   */\n      pop\n      pop\n      jump\t// out\n        /* \"#utility.yul\":10519:11060   */\n    tag_195:\n        /* \"#utility.yul\":10619:10621   */\n      0x1f\n        /* \"#utility.yul\":10614:10617   */\n      dup3\n        /* \"#utility.yul\":10611:10622   */\n      gt\n        /* \"#utility.yul\":10608:11053   */\n      iszero\n      tag_332\n      jumpi\n        /* \"#utility.yul\":10653:10690   */\n      tag_333\n        /* \"#utility.yul\":10684:10689   */\n      dup2\n        /* \"#utility.yul\":10653:10690   */\n      tag_184\n      jump\t// in\n    tag_333:\n        /* \"#utility.yul\":10736:10765   */\n      tag_334\n        /* \"#utility.yul\":10754:10764   */\n      dup5\n        /* \"#utility.yul\":10736:10765   */\n      tag_185\n      jump\t// in\n    tag_334:\n        /* \"#utility.yul\":10726:10734   */\n      dup2\n        /* \"#utility.yul\":10722:10766   */\n      add\n        /* \"#utility.yul\":10919:10921   */\n      0x20\n        /* \"#utility.yul\":10907:10917   */\n      dup6\n        /* \"#utility.yul\":10904:10922   */\n      lt\n        /* \"#utility.yul\":10901:10950   */\n      iszero\n      tag_335\n      jumpi\n        /* \"#utility.yul\":10940:10948   */\n      dup2\n        /* \"#utility.yul\":10925:10948   */\n      swap1\n      pop\n        /* \"#utility.yul\":10901:10950   */\n    tag_335:\n        /* \"#utility.yul\":10963:11043   */\n      tag_336\n        /* \"#utility.yul\":11019:11041   */\n      tag_337\n        /* \"#utility.yul\":11037:11040   */\n      dup6\n        /* \"#utility.yul\":11019:11041   */\n      tag_185\n      jump\t// in\n    tag_337:\n        /* \"#utility.yul\":11009:11017   */\n      dup4\n        /* \"#utility.yul\":11005:11042   */\n      add\n        /* \"#utility.yul\":10992:11003   */\n      dup3\n        /* \"#utility.yul\":10963:11043   */\n      tag_194\n      jump\t// in\n    tag_336:\n        /* \"#utility.yul\":10623:11053   */\n      pop\n      pop\n        /* \"#utility.yul\":10608:11053   */\n    tag_332:\n        /* \"#utility.yul\":10519:11060   */\n      pop\n      pop\n      pop\n      jump\t// out\n        /* \"#utility.yul\":11066:11183   */\n    tag_196:\n        /* \"#utility.yul\":11120:11128   */\n      0x00\n        /* \"#utility.yul\":11170:11175   */\n      dup3\n        /* \"#utility.yul\":11164:11168   */\n      dup3\n        /* \"#utility.yul\":11160:11176   */\n      shr\n        /* \"#utility.yul\":11139:11176   */\n      swap1\n      pop\n        /* \"#utility.yul\":11066:11183   */\n      swap3\n      swap2\n      pop\n      pop\n      jump\t// out\n        /* \"#utility.yul\":11189:11358   */\n    tag_197:\n        /* \"#utility.yul\":11233:11239   */\n      0x00\n        /* \"#utility.yul\":11266:11317   */\n      tag_340\n        /* \"#utility.yul\":11314:11315   */\n      0x00\n        /* \"#utility.yul\":11310:11316   */\n      not\n        /* \"#utility.yul\":11302:11307   */\n      dup5\n        /* \"#utility.yul\":11299:11300   */\n      0x08\n        /* \"#utility.yul\":11295:11308   */\n      mul\n        /* \"#utility.yul\":11266:11317   */\n      tag_196\n      jump\t// in\n    tag_340:\n        /* \"#utility.yul\":11262:11318   */\n      not\n        /* \"#utility.yul\":11347:11351   */\n      dup1\n        /* \"#utility.yul\":11341:11345   */\n      dup4\n        /* \"#utility.yul\":11337:11352   */\n      and\n        /* \"#utility.yul\":11327:11352   */\n      swap2\n      pop\n        /* \"#utility.yul\":11240:11358   */\n      pop\n        /* \"#utility.yul\":11189:11358   */\n      swap3\n      swap2\n      pop\n      pop\n      jump\t// out\n        /* \"#utility.yul\":11363:11658   */\n    tag_198:\n        /* \"#utility.yul\":11439:11443   */\n      0x00\n        /* \"#utility.yul\":11585:11614   */\n      tag_342\n        /* \"#utility.yul\":11610:11613   */\n      dup4\n        /* \"#utility.yul\":11604:11608   */\n      dup4\n        /* \"#utility.yul\":11585:11614   */\n      tag_197\n      jump\t// in\n    tag_342:\n        /* \"#utility.yul\":11577:11614   */\n      swap2\n      pop\n        /* \"#utility.yul\":11647:11650   */\n      dup3\n        /* \"#utility.yul\":11644:11645   */\n      0x02\n        /* \"#utility.yul\":11640:11651   */\n      mul\n        /* \"#utility.yul\":11634:11638   */\n      dup3\n        /* \"#utility.yul\":11631:11652   */\n      or\n        /* \"#utility.yul\":11623:11652   */\n      swap1\n      pop\n        /* \"#utility.yul\":11363:11658   */\n      swap3\n      swap2\n      pop\n      pop\n      jump\t// out\n        /* \"#utility.yul\":11663:13053   */\n    tag_73:\n        /* \"#utility.yul\":11778:11814   */\n      tag_344\n        /* \"#utility.yul\":11810:11813   */\n      dup3\n        /* \"#utility.yul\":11778:11814   */\n      tag_174\n      jump\t// in\n    tag_344:\n        /* \"#utility.yul\":11879:11897   */\n      0xffffffffffffffff\n        /* \"#utility.yul\":11871:11877   */\n      dup2\n        /* \"#utility.yul\":11868:11898   */\n      gt\n        /* \"#utility.yul\":11865:11921   */\n      iszero\n      tag_345\n      jumpi\n        /* \"#utility.yul\":11901:11919   */\n      tag_346\n      tag_182\n      jump\t// in\n    tag_346:\n        /* \"#utility.yul\":11865:11921   */\n    tag_345:\n        /* \"#utility.yul\":11945:11983   */\n      tag_347\n        /* \"#utility.yul\":11977:11981   */\n      dup3\n        /* \"#utility.yul\":11971:11982   */\n      sload\n        /* \"#utility.yul\":11945:11983   */\n      tag_98\n      jump\t// in\n    tag_347:\n        /* \"#utility.yul\":12030:12096   */\n      tag_348\n        /* \"#utility.yul\":12089:12095   */\n      dup3\n        /* \"#utility.yul\":12081:12087   */\n      dup3\n        /* \"#utility.yul\":12075:12079   */\n      dup6\n        /* \"#utility.yul\":12030:12096   */\n      tag_195\n      jump\t// in\n    tag_348:\n        /* \"#utility.yul\":12123:12124   */\n      0x00\n        /* \"#utility.yul\":12147:12151   */\n      0x20\n        /* \"#utility.yul\":12134:12151   */\n      swap1\n      pop\n        /* \"#utility.yul\":12179:12181   */\n      0x1f\n        /* \"#utility.yul\":12171:12177   */\n      dup4\n        /* \"#utility.yul\":12168:12182   */\n      gt\n        /* \"#utility.yul\":12196:12197   */\n      0x01\n        /* \"#utility.yul\":12191:12808   */\n      dup2\n      eq\n      tag_350\n      jumpi\n        /* \"#utility.yul\":12852:12853   */\n      0x00\n        /* \"#utility.yul\":12869:12875   */\n      dup5\n        /* \"#utility.yul\":12866:12943   */\n      iszero\n      tag_351\n      jumpi\n        /* \"#utility.yul\":12918:12927   */\n      dup3\n        /* \"#utility.yul\":12913:12916   */\n      dup8\n        /* \"#utility.yul\":12909:12928   */\n      add\n        /* \"#utility.yul\":12903:12929   */\n      mload\n        /* \"#utility.yul\":12894:12929   */\n      swap1\n      pop\n        /* \"#utility.yul\":12866:12943   */\n    tag_351:\n        /* \"#utility.yul\":12969:13036   */\n      tag_352\n        /* \"#utility.yul\":13029:13035   */\n      dup6\n        /* \"#utility.yul\":13022:13027   */\n      dup3\n        /* \"#utility.yul\":12969:13036   */\n      tag_198\n      jump\t// in\n    tag_352:\n        /* \"#utility.yul\":12963:12967   */\n      dup7\n        /* \"#utility.yul\":12956:13037   */\n      sstore\n        /* \"#utility.yul\":12825:13047   */\n      pop\n        /* \"#utility.yul\":12161:13047   */\n      jump(tag_349)\n        /* \"#utility.yul\":12191:12808   */\n    tag_350:\n        /* \"#utility.yul\":12243:12247   */\n      0x1f\n        /* \"#utility.yul\":12239:12248   */\n      not\n        /* \"#utility.yul\":12231:12237   */\n      dup5\n        /* \"#utility.yul\":12227:12249   */\n      and\n        /* \"#utility.yul\":12277:12313   */\n      tag_353\n        /* \"#utility.yul\":12308:12312   */\n      dup7\n        /* \"#utility.yul\":12277:12313   */\n      tag_184\n      jump\t// in\n    tag_353:\n        /* \"#utility.yul\":12335:12336   */\n      0x00\n        /* \"#utility.yul\":12349:12557   */\n    tag_354:\n        /* \"#utility.yul\":12363:12370   */\n      dup3\n        /* \"#utility.yul\":12360:12361   */\n      dup2\n        /* \"#utility.yul\":12357:12371   */\n      lt\n        /* \"#utility.yul\":12349:12557   */\n      iszero\n      tag_356\n      jumpi\n        /* \"#utility.yul\":12442:12451   */\n      dup5\n        /* \"#utility.yul\":12437:12440   */\n      dup10\n        /* \"#utility.yul\":12433:12452   */\n      add\n        /* \"#utility.yul\":12427:12453   */\n      mload\n        /* \"#utility.yul\":12419:12425   */\n      dup3\n        /* \"#utility.yul\":12412:12454   */\n      sstore\n        /* \"#utility.yul\":12493:12494   */\n      0x01\n        /* \"#utility.yul\":12485:12491   */\n      dup3\n        /* \"#utility.yul\":12481:12495   */\n      add\n        /* \"#utility.yul\":12471:12495   */\n      swap2\n      pop\n        /* \"#utility.yul\":12540:12542   */\n      0x20\n        /* \"#utility.yul\":12529:12538   */\n      dup6\n        /* \"#utility.yul\":12525:12543   */\n      add\n        /* \"#utility.yul\":12512:12543   */\n      swap5\n      pop\n        /* \"#utility.yul\":12386:12390   */\n      0x20\n        /* \"#utility.yul\":12383:12384   */\n      dup2\n        /* \"#utility.yul\":12379:12391   */\n      add\n        /* \"#utility.yul\":12374:12391   */\n      swap1\n      pop\n        /* \"#utility.yul\":12349:12557   */\n      jump(tag_354)\n    tag_356:\n        /* \"#utility.yul\":12585:12591   */\n      dup7\n        /* \"#utility.yul\":12576:12583   */\n      dup4\n        /* \"#utility.yul\":12573:12592   */\n      lt\n        /* \"#utility.yul\":12570:12749   */\n      iszero\n      tag_357\n      jumpi\n        /* \"#utility.yul\":12643:12652   */\n      dup5\n        /* \"#utility.yul\":12638:12641   */\n      dup10\n        /* \"#utility.yul\":12634:12653   */\n      add\n        /* \"#utility.yul\":12628:12654   */\n      mload\n        /* \"#utility.yul\":12686:12734   */\n      tag_358\n        /* \"#utility.yul\":12728:12732   */\n      0x1f\n        /* \"#utility.yul\":12720:12726   */\n      dup10\n        /* \"#utility.yul\":12716:12733   */\n      and\n        /* \"#utility.yul\":12705:12714   */\n      dup3\n        /* \"#utility.yul\":12686:12734   */\n      tag_197\n      jump\t// in\n    tag_358:\n        /* \"#utility.yul\":12678:12684   */\n      dup4\n        /* \"#utility.yul\":12671:12735   */\n      sstore\n        /* \"#utility.yul\":12593:12749   */\n      pop\n        /* \"#utility.yul\":12570:12749   */\n    tag_357:\n        /* \"#utility.yul\":12795:12796   */\n      0x01\n        /* \"#utility.yul\":12791:12792   */\n      0x02\n        /* \"#utility.yul\":12783:12789   */\n      dup9\n        /* \"#utility.yul\":12779:12793   */\n      mul\n        /* \"#utility.yul\":12775:12797   */\n      add\n        /* \"#utility.yul\":12769:12773   */\n      dup9\n        /* \"#utility.yul\":12762:12798   */\n      sstore\n        /* \"#utility.yul\":12198:12808   */\n      pop\n      pop\n      pop\n        /* \"#utility.yul\":12161:13047   */\n    tag_349:\n      pop\n        /* \"#utility.yul\":11753:13053   */\n      pop\n      pop\n      pop\n        /* \"#utility.yul\":11663:13053   */\n      pop\n      pop\n      jump\t// out\n        /* \"#utility.yul\":13059:13239   */\n    tag_199:\n        /* \"#utility.yul\":13107:13184   */\n      0x4e487b7100000000000000000000000000000000000000000000000000000000\n        /* \"#utility.yul\":13104:13105   */\n      0x00\n        /* \"#utility.yul\":13097:13185   */\n      mstore\n        /* \"#utility.yul\":13204:13208   */\n      0x11\n        /* \"#utility.yul\":13201:13202   */\n      0x04\n        /* \"#utility.yul\":13194:13209   */\n      mstore\n        /* \"#utility.yul\":13228:13232   */\n      0x24\n        /* \"#utility.yul\":13225:13226   */\n      0x00\n        /* \"#utility.yul\":13218:13233   */\n      revert\n        /* \"#utility.yul\":13245:13439   */\n    tag_75:\n        /* \"#utility.yul\":13285:13289   */\n      0x00\n        /* \"#utility.yul\":13305:13325   */\n      tag_361\n        /* \"#utility.yul\":13323:13324   */\n      dup3\n        /* \"#utility.yul\":13305:13325   */\n      tag_156\n      jump\t// in\n    tag_361:\n        /* \"#utility.yul\":13300:13325   */\n      swap2\n      pop\n        /* \"#utility.yul\":13339:13359   */\n      tag_362\n        /* \"#utility.yul\":13357:13358   */\n      dup4\n        /* \"#utility.yul\":13339:13359   */\n      tag_156\n      jump\t// in\n    tag_362:\n        /* \"#utility.yul\":13334:13359   */\n      swap3\n      pop\n        /* \"#utility.yul\":13383:13384   */\n      dup3\n        /* \"#utility.yul\":13380:13381   */\n      dup3\n        /* \"#utility.yul\":13376:13385   */\n      sub\n        /* \"#utility.yul\":13368:13385   */\n      swap1\n      pop\n        /* \"#utility.yul\":13407:13408   */\n      dup2\n        /* \"#utility.yul\":13401:13405   */\n      dup2\n        /* \"#utility.yul\":13398:13409   */\n      gt\n        /* \"#utility.yul\":13395:13432   */\n      iszero\n      tag_363\n      jumpi\n        /* \"#utility.yul\":13412:13430   */\n      tag_364\n      tag_199\n      jump\t// in\n    tag_364:\n        /* \"#utility.yul\":13395:13432   */\n    tag_363:\n        /* \"#utility.yul\":13245:13439   */\n      swap3\n      swap2\n      pop\n      pop\n      jump\t// out\n        /* \"#utility.yul\":13445:13612   */\n    tag_200:\n        /* \"#utility.yul\":13585:13604   */\n      0x747820646f6573206e6f74206578697374000000000000000000000000000000\n        /* \"#utility.yul\":13581:13582   */\n      0x00\n        /* \"#utility.yul\":13573:13579   */\n      dup3\n        /* \"#utility.yul\":13569:13583   */\n      add\n        /* \"#utility.yul\":13562:13605   */\n      mstore\n        /* \"#utility.yul\":13445:13612   */\n      pop\n      jump\t// out\n        /* \"#utility.yul\":13618:13984   */\n    tag_201:\n        /* \"#utility.yul\":13760:13763   */\n      0x00\n        /* \"#utility.yul\":13781:13848   */\n      tag_367\n        /* \"#utility.yul\":13845:13847   */\n      0x11\n        /* \"#utility.yul\":13840:13843   */\n      dup4\n        /* \"#utility.yul\":13781:13848   */\n      tag_179\n      jump\t// in\n    tag_367:\n        /* \"#utility.yul\":13774:13848   */\n      swap2\n      pop\n        /* \"#utility.yul\":13857:13950   */\n      tag_368\n        /* \"#utility.yul\":13946:13949   */\n      dup3\n        /* \"#utility.yul\":13857:13950   */\n      tag_200\n      jump\t// in\n    tag_368:\n        /* \"#utility.yul\":13975:13977   */\n      0x20\n        /* \"#utility.yul\":13970:13973   */\n      dup3\n        /* \"#utility.yul\":13966:13978   */\n      add\n        /* \"#utility.yul\":13959:13978   */\n      swap1\n      pop\n        /* \"#utility.yul\":13618:13984   */\n      swap2\n      swap1\n      pop\n      jump\t// out\n        /* \"#utility.yul\":13990:14409   */\n    tag_82:\n        /* \"#utility.yul\":14156:14160   */\n      0x00\n        /* \"#utility.yul\":14194:14196   */\n      0x20\n        /* \"#utility.yul\":14183:14192   */\n      dup3\n        /* \"#utility.yul\":14179:14197   */\n      add\n        /* \"#utility.yul\":14171:14197   */\n      swap1\n      pop\n        /* \"#utility.yul\":14243:14252   */\n      dup2\n        /* \"#utility.yul\":14237:14241   */\n      dup2\n        /* \"#utility.yul\":14233:14253   */\n      sub\n        /* \"#utility.yul\":14229:14230   */\n      0x00\n        /* \"#utility.yul\":14218:14227   */\n      dup4\n        /* \"#utility.yul\":14214:14231   */\n      add\n        /* \"#utility.yul\":14207:14254   */\n      mstore\n        /* \"#utility.yul\":14271:14402   */\n      tag_370\n        /* \"#utility.yul\":14397:14401   */\n      dup2\n        /* \"#utility.yul\":14271:14402   */\n      tag_201\n      jump\t// in\n    tag_370:\n        /* \"#utility.yul\":14263:14402   */\n      swap1\n      pop\n        /* \"#utility.yul\":13990:14409   */\n      swap2\n      swap1\n      pop\n      jump\t// out\n        /* \"#utility.yul\":14415:14595   */\n    tag_86:\n        /* \"#utility.yul\":14463:14540   */\n      0x4e487b7100000000000000000000000000000000000000000000000000000000\n        /* \"#utility.yul\":14460:14461   */\n      0x00\n        /* \"#utility.yul\":14453:14541   */\n      mstore\n        /* \"#utility.yul\":14560:14564   */\n      0x32\n        /* \"#utility.yul\":14557:14558   */\n      0x04\n        /* \"#utility.yul\":14550:14565   */\n      mstore\n        /* \"#utility.yul\":14584:14588   */\n      0x24\n        /* \"#utility.yul\":14581:14582   */\n      0x00\n        /* \"#utility.yul\":14574:14589   */\n      revert\n        /* \"#utility.yul\":14601:14770   */\n    tag_202:\n        /* \"#utility.yul\":14741:14762   */\n      0x747820616c726561647920657865637574656400000000000000000000000000\n        /* \"#utility.yul\":14737:14738   */\n      0x00\n        /* \"#utility.yul\":14729:14735   */\n      dup3\n        /* \"#utility.yul\":14725:14739   */\n      add\n        /* \"#utility.yul\":14718:14763   */\n      mstore\n        /* \"#utility.yul\":14601:14770   */\n      pop\n      jump\t// out\n        /* \"#utility.yul\":14776:15142   */\n    tag_203:\n        /* \"#utility.yul\":14918:14921   */\n      0x00\n        /* \"#utility.yul\":14939:15006   */\n      tag_374\n        /* \"#utility.yul\":15003:15005   */\n      0x13\n        /* \"#utility.yul\":14998:15001   */\n      dup4\n        /* \"#utility.yul\":14939:15006   */\n      tag_179\n      jump\t// in\n    tag_374:\n        /* \"#utility.yul\":14932:15006   */\n      swap2\n      pop\n        /* \"#utility.yul\":15015:15108   */\n      tag_375\n        /* \"#utility.yul\":15104:15107   */\n      dup3\n        /* \"#utility.yul\":15015:15108   */\n      tag_202\n      jump\t// in\n    tag_375:\n        /* \"#utility.yul\":15133:15135   */\n      0x20\n        /* \"#utility.yul\":15128:15131   */\n      dup3\n        /* \"#utility.yul\":15124:15136   */\n      add\n        /* \"#utility.yul\":15117:15136   */\n      swap1\n      pop\n        /* \"#utility.yul\":14776:15142   */\n      swap2\n      swap1\n      pop\n      jump\t// out\n        /* \"#utility.yul\":15148:15567   */\n    tag_90:\n        /* \"#utility.yul\":15314:15318   */\n      0x00\n        /* \"#utility.yul\":15352:15354   */\n      0x20\n        /* \"#utility.yul\":15341:15350   */\n      dup3\n        /* \"#utility.yul\":15337:15355   */\n      add\n        /* \"#utility.yul\":15329:15355   */\n      swap1\n      pop\n        /* \"#utility.yul\":15401:15410   */\n      dup2\n        /* \"#utility.yul\":15395:15399   */\n      dup2\n        /* \"#utility.yul\":15391:15411   */\n      sub\n        /* \"#utility.yul\":15387:15388   */\n      0x00\n        /* \"#utility.yul\":15376:15385   */\n      dup4\n        /* \"#utility.yul\":15372:15389   */\n      add\n        /* \"#utility.yul\":15365:15412   */\n      mstore\n        /* \"#utility.yul\":15429:15560   */\n      tag_377\n        /* \"#utility.yul\":15555:15559   */\n      dup2\n        /* \"#utility.yul\":15429:15560   */\n      tag_203\n      jump\t// in\n    tag_377:\n        /* \"#utility.yul\":15421:15560   */\n      swap1\n      pop\n        /* \"#utility.yul\":15148:15567   */\n      swap2\n      swap1\n      pop\n      jump\t// out\n        /* \"#utility.yul\":15573:15738   */\n    tag_204:\n        /* \"#utility.yul\":15713:15730   */\n      0x7478206e6f7420617070726f7665640000000000000000000000000000000000\n        /* \"#utility.yul\":15709:15710   */\n      0x00\n        /* \"#utility.yul\":15701:15707   */\n      dup3\n        /* \"#utility.yul\":15697:15711   */\n      add\n        /* \"#utility.yul\":15690:15731   */\n      mstore\n        /* \"#utility.yul\":15573:15738   */\n      pop\n      jump\t// out\n        /* \"#utility.yul\":15744:16110   */\n    tag_205:\n        /* \"#utility.yul\":15886:15889   */\n      0x00\n        /* \"#utility.yul\":15907:15974   */\n      tag_380\n        /* \"#utility.yul\":15971:15973   */\n      0x0f\n        /* \"#utility.yul\":15966:15969   */\n      dup4\n        /* \"#utility.yul\":15907:15974   */\n      tag_179\n      jump\t// in\n    tag_380:\n        /* \"#utility.yul\":15900:15974   */\n      swap2\n      pop\n        /* \"#utility.yul\":15983:16076   */\n      tag_381\n        /* \"#utility.yul\":16072:16075   */\n      dup3\n        /* \"#utility.yul\":15983:16076   */\n      tag_204\n      jump\t// in\n    tag_381:\n        /* \"#utility.yul\":16101:16103   */\n      0x20\n        /* \"#utility.yul\":16096:16099   */\n      dup3\n        /* \"#utility.yul\":16092:16104   */\n      add\n        /* \"#utility.yul\":16085:16104   */\n      swap1\n      pop\n        /* \"#utility.yul\":15744:16110   */\n      swap2\n      swap1\n      pop\n      jump\t// out\n        /* \"#utility.yul\":16116:16535   */\n    tag_94:\n        /* \"#utility.yul\":16282:16286   */\n      0x00\n        /* \"#utility.yul\":16320:16322   */\n      0x20\n        /* \"#utility.yul\":16309:16318   */\n      dup3\n        /* \"#utility.yul\":16305:16323   */\n      add\n        /* \"#utility.yul\":16297:16323   */\n      swap1\n      pop\n        /* \"#utility.yul\":16369:16378   */\n      dup2\n        /* \"#utility.yul\":16363:16367   */\n      dup2\n        /* \"#utility.yul\":16359:16379   */\n      sub\n        /* \"#utility.yul\":16355:16356   */\n      0x00\n        /* \"#utility.yul\":16344:16353   */\n      dup4\n        /* \"#utility.yul\":16340:16357   */\n      add\n        /* \"#utility.yul\":16333:16380   */\n      mstore\n        /* \"#utility.yul\":16397:16528   */\n      tag_383\n        /* \"#utility.yul\":16523:16527   */\n      dup2\n        /* \"#utility.yul\":16397:16528   */\n      tag_205\n      jump\t// in\n    tag_383:\n        /* \"#utility.yul\":16389:16528   */\n      swap1\n      pop\n        /* \"#utility.yul\":16116:16535   */\n      swap2\n      swap1\n      pop\n      jump\t// out\n        /* \"#utility.yul\":16541:16710   */\n    tag_206:\n        /* \"#utility.yul\":16681:16702   */\n      0x747820616c726561647920617070726f76656400000000000000000000000000\n        /* \"#utility.yul\":16677:16678   */\n      0x00\n        /* \"#utility.yul\":16669:16675   */\n      dup3\n        /* \"#utility.yul\":16665:16679   */\n      add\n        /* \"#utility.yul\":16658:16703   */\n      mstore\n        /* \"#utility.yul\":16541:16710   */\n      pop\n      jump\t// out\n        /* \"#utility.yul\":16716:17082   */\n    tag_207:\n        /* \"#utility.yul\":16858:16861   */\n      0x00\n        /* \"#utility.yul\":16879:16946   */\n      tag_386\n        /* \"#utility.yul\":16943:16945   */\n      0x13\n        /* \"#utility.yul\":16938:16941   */\n      dup4\n        /* \"#utility.yul\":16879:16946   */\n      tag_179\n      jump\t// in\n    tag_386:\n        /* \"#utility.yul\":16872:16946   */\n      swap2\n      pop\n        /* \"#utility.yul\":16955:17048   */\n      tag_387\n        /* \"#utility.yul\":17044:17047   */\n      dup3\n        /* \"#utility.yul\":16955:17048   */\n      tag_206\n      jump\t// in\n    tag_387:\n        /* \"#utility.yul\":17073:17075   */\n      0x20\n        /* \"#utility.yul\":17068:17071   */\n      dup3\n        /* \"#utility.yul\":17064:17076   */\n      add\n        /* \"#utility.yul\":17057:17076   */\n      swap1\n      pop\n        /* \"#utility.yul\":16716:17082   */\n      swap2\n      swap1\n      pop\n      jump\t// out\n        /* \"#utility.yul\":17088:17507   */\n    tag_112:\n        /* \"#utility.yul\":17254:17258   */\n      0x00\n        /* \"#utility.yul\":17292:17294   */\n      0x20\n        /* \"#utility.yul\":17281:17290   */\n      dup3\n        /* \"#utility.yul\":17277:17295   */\n      add\n        /* \"#utility.yul\":17269:17295   */\n      swap1\n      pop\n        /* \"#utility.yul\":17341:17350   */\n      dup2\n        /* \"#utility.yul\":17335:17339   */\n      dup2\n        /* \"#utility.yul\":17331:17351   */\n      sub\n        /* \"#utility.yul\":17327:17328   */\n      0x00\n        /* \"#utility.yul\":17316:17325   */\n      dup4\n        /* \"#utility.yul\":17312:17329   */\n      add\n        /* \"#utility.yul\":17305:17352   */\n      mstore\n        /* \"#utility.yul\":17369:17500   */\n      tag_389\n        /* \"#utility.yul\":17495:17499   */\n      dup2\n        /* \"#utility.yul\":17369:17500   */\n      tag_207\n      jump\t// in\n    tag_389:\n        /* \"#utility.yul\":17361:17500   */\n      swap1\n      pop\n        /* \"#utility.yul\":17088:17507   */\n      swap2\n      swap1\n      pop\n      jump\t// out\n        /* \"#utility.yul\":17513:17683   */\n    tag_208:\n        /* \"#utility.yul\":17653:17675   */\n      0x617070726f76616c73203c207265717569726564000000000000000000000000\n        /* \"#utility.yul\":17649:17650   */\n      0x00\n        /* \"#utility.yul\":17641:17647   */\n      dup3\n        /* \"#utility.yul\":17637:17651   */\n      add\n        /* \"#utility.yul\":17630:17676   */\n      mstore\n        /* \"#utility.yul\":17513:17683   */\n      pop\n      jump\t// out\n        /* \"#utility.yul\":17689:18055   */\n    tag_209:\n        /* \"#utility.yul\":17831:17834   */\n      0x00\n        /* \"#utility.yul\":17852:17919   */\n      tag_392\n        /* \"#utility.yul\":17916:17918   */\n      0x14\n        /* \"#utility.yul\":17911:17914   */\n      dup4\n        /* \"#utility.yul\":17852:17919   */\n      tag_179\n      jump\t// in\n    tag_392:\n        /* \"#utility.yul\":17845:17919   */\n      swap2\n      pop\n        /* \"#utility.yul\":17928:18021   */\n      tag_393\n        /* \"#utility.yul\":18017:18020   */\n      dup3\n        /* \"#utility.yul\":17928:18021   */\n      tag_208\n      jump\t// in\n    tag_393:\n        /* \"#utility.yul\":18046:18048   */\n      0x20\n        /* \"#utility.yul\":18041:18044   */\n      dup3\n        /* \"#utility.yul\":18037:18049   */\n      add\n        /* \"#utility.yul\":18030:18049   */\n      swap1\n      pop\n        /* \"#utility.yul\":17689:18055   */\n      swap2\n      swap1\n      pop\n      jump\t// out\n        /* \"#utility.yul\":18061:18480   */\n    tag_134:\n        /* \"#utility.yul\":18227:18231   */\n      0x00\n        /* \"#utility.yul\":18265:18267   */\n      0x20\n        /* \"#utility.yul\":18254:18263   */\n      dup3\n        /* \"#utility.yul\":18250:18268   */\n      add\n        /* \"#utility.yul\":18242:18268   */\n      swap1\n      pop\n        /* \"#utility.yul\":18314:18323   */\n      dup2\n        /* \"#utility.yul\":18308:18312   */\n      dup2\n        /* \"#utility.yul\":18304:18324   */\n      sub\n        /* \"#utility.yul\":18300:18301   */\n      0x00\n        /* \"#utility.yul\":18289:18298   */\n      dup4\n        /* \"#utility.yul\":18285:18302   */\n      add\n        /* \"#utility.yul\":18278:18325   */\n      mstore\n        /* \"#utility.yul\":18342:18473   */\n      tag_395\n        /* \"#utility.yul\":18468:18472   */\n      dup2\n        /* \"#utility.yul\":18342:18473   */\n      tag_209\n      jump\t// in\n    tag_395:\n        /* \"#utility.yul\":18334:18473   */\n      swap1\n      pop\n        /* \"#utility.yul\":18061:18480   */\n      swap2\n      swap1\n      pop\n      jump\t// out\n        /* \"#utility.yul\":18486:18633   */\n    tag_210:\n        /* \"#utility.yul\":18587:18598   */\n      0x00\n        /* \"#utility.yul\":18624:18627   */\n      dup2\n        /* \"#utility.yul\":18609:18627   */\n      swap1\n      pop\n        /* \"#utility.yul\":18486:18633   */\n      swap3\n      swap2\n      pop\n      pop\n      jump\t// out\n        /* \"#utility.yul\":18661:19531   */\n    tag_211:\n        /* \"#utility.yul\":18762:18765   */\n      0x00\n        /* \"#utility.yul\":18799:18804   */\n      dup2\n        /* \"#utility.yul\":18793:18805   */\n      sload\n        /* \"#utility.yul\":18828:18864   */\n      tag_398\n        /* \"#utility.yul\":18854:18863   */\n      dup2\n        /* \"#utility.yul\":18828:18864   */\n      tag_98\n      jump\t// in\n    tag_398:\n        /* \"#utility.yul\":18880:18968   */\n      tag_399\n        /* \"#utility.yul\":18961:18967   */\n      dup2\n        /* \"#utility.yul\":18956:18959   */\n      dup7\n        /* \"#utility.yul\":18880:18968   */\n      tag_210\n      jump\t// in\n    tag_399:\n        /* \"#utility.yul\":18873:18968   */\n      swap5\n      pop\n        /* \"#utility.yul\":18999:19000   */\n      0x01\n        /* \"#utility.yul\":18988:18997   */\n      dup3\n        /* \"#utility.yul\":18984:19001   */\n      and\n        /* \"#utility.yul\":19015:19016   */\n      0x00\n        /* \"#utility.yul\":19010:19176   */\n      dup2\n      eq\n      tag_401\n      jumpi\n        /* \"#utility.yul\":19190:19191   */\n      0x01\n        /* \"#utility.yul\":19185:19525   */\n      dup2\n      eq\n      tag_402\n      jumpi\n        /* \"#utility.yul\":18977:19525   */\n      jump(tag_400)\n        /* \"#utility.yul\":19010:19176   */\n    tag_401:\n        /* \"#utility.yul\":19094:19098   */\n      0xff\n        /* \"#utility.yul\":19090:19099   */\n      not\n        /* \"#utility.yul\":19079:19088   */\n      dup4\n        /* \"#utility.yul\":19075:19100   */\n      and\n        /* \"#utility.yul\":19070:19073   */\n      dup7\n        /* \"#utility.yul\":19063:19101   */\n      mstore\n        /* \"#utility.yul\":19156:19162   */\n      dup2\n        /* \"#utility.yul\":19149:19163   */\n      iszero\n        /* \"#utility.yul\":19142:19164   */\n      iszero\n        /* \"#utility.yul\":19134:19140   */\n      dup3\n        /* \"#utility.yul\":19130:19165   */\n      mul\n        /* \"#utility.yul\":19125:19128   */\n      dup7\n        /* \"#utility.yul\":19121:19166   */\n      add\n        /* \"#utility.yul\":19114:19166   */\n      swap4\n      pop\n        /* \"#utility.yul\":19010:19176   */\n      jump(tag_400)\n        /* \"#utility.yul\":19185:19525   */\n    tag_402:\n        /* \"#utility.yul\":19252:19289   */\n      tag_403\n        /* \"#utility.yul\":19283:19288   */\n      dup6\n        /* \"#utility.yul\":19252:19289   */\n      tag_184\n      jump\t// in\n    tag_403:\n        /* \"#utility.yul\":19311:19312   */\n      0x00\n        /* \"#utility.yul\":19325:19479   */\n    tag_404:\n        /* \"#utility.yul\":19339:19345   */\n      dup4\n        /* \"#utility.yul\":19336:19337   */\n      dup2\n        /* \"#utility.yul\":19333:19346   */\n      lt\n        /* \"#utility.yul\":19325:19479   */\n      iszero\n      tag_406\n      jumpi\n        /* \"#utility.yul\":19413:19420   */\n      dup2\n        /* \"#utility.yul\":19407:19421   */\n      sload\n        /* \"#utility.yul\":19403:19404   */\n      dup2\n        /* \"#utility.yul\":19398:19401   */\n      dup10\n        /* \"#utility.yul\":19394:19405   */\n      add\n        /* \"#utility.yul\":19387:19422   */\n      mstore\n        /* \"#utility.yul\":19463:19464   */\n      0x01\n        /* \"#utility.yul\":19454:19461   */\n      dup3\n        /* \"#utility.yul\":19450:19465   */\n      add\n        /* \"#utility.yul\":19439:19465   */\n      swap2\n      pop\n        /* \"#utility.yul\":19361:19365   */\n      0x20\n        /* \"#utility.yul\":19358:19359   */\n      dup2\n        /* \"#utility.yul\":19354:19366   */\n      add\n        /* \"#utility.yul\":19349:19366   */\n      swap1\n      pop\n        /* \"#utility.yul\":19325:19479   */\n      jump(tag_404)\n    tag_406:\n        /* \"#utility.yul\":19508:19514   */\n      dup4\n        /* \"#utility.yul\":19503:19506   */\n      dup9\n        /* \"#utility.yul\":19499:19515   */\n      add\n        /* \"#utility.yul\":19492:19515   */\n      swap6\n      pop\n        /* \"#utility.yul\":19192:19525   */\n      pop\n      pop\n        /* \"#utility.yul\":18977:19525   */\n    tag_400:\n      pop\n        /* \"#utility.yul\":18766:19531   */\n      pop\n      pop\n        /* \"#utility.yul\":18661:19531   */\n      swap3\n      swap2\n      pop\n      pop\n      jump\t// out\n        /* \"#utility.yul\":19537:19802   */\n    tag_139:\n        /* \"#utility.yul\":19664:19667   */\n      0x00\n        /* \"#utility.yul\":19686:19776   */\n      tag_408\n        /* \"#utility.yul\":19772:19775   */\n      dup3\n        /* \"#utility.yul\":19763:19769   */\n      dup5\n        /* \"#utility.yul\":19686:19776   */\n      tag_211\n      jump\t// in\n    tag_408:\n        /* \"#utility.yul\":19679:19776   */\n      swap2\n      pop\n        /* \"#utility.yul\":19793:19796   */\n      dup2\n        /* \"#utility.yul\":19786:19796   */\n      swap1\n      pop\n        /* \"#utility.yul\":19537:19802   */\n      swap3\n      swap2\n      pop\n      pop\n      jump\t// out\n        /* \"#utility.yul\":19808:19967   */\n    tag_212:\n        /* \"#utility.yul\":19948:19959   */\n      0x7478206661696c65640000000000000000000000000000000000000000000000\n        /* \"#utility.yul\":19944:19945   */\n      0x00\n        /* \"#utility.yul\":19936:19942   */\n      dup3\n        /* \"#utility.yul\":19932:19946   */\n      add\n        /* \"#utility.yul\":19925:19960   */\n      mstore\n        /* \"#utility.yul\":19808:19967   */\n      pop\n      jump\t// out\n        /* \"#utility.yul\":19973:20338   */\n    tag_213:\n        /* \"#utility.yul\":20115:20118   */\n      0x00\n        /* \"#utility.yul\":20136:20202   */\n      tag_411\n        /* \"#utility.yul\":20200:20201   */\n      0x09\n        /* \"#utility.yul\":20195:20198   */\n      dup4\n        /* \"#utility.yul\":20136:20202   */\n      tag_179\n      jump\t// in\n    tag_411:\n        /* \"#utility.yul\":20129:20202   */\n      swap2\n      pop\n        /* \"#utility.yul\":20211:20304   */\n      tag_412\n        /* \"#utility.yul\":20300:20303   */\n      dup3\n        /* \"#utility.yul\":20211:20304   */\n      tag_212\n      jump\t// in\n    tag_412:\n        /* \"#utility.yul\":20329:20331   */\n      0x20\n        /* \"#utility.yul\":20324:20327   */\n      dup3\n        /* \"#utility.yul\":20320:20332   */\n      add\n        /* \"#utility.yul\":20313:20332   */\n      swap1\n      pop\n        /* \"#utility.yul\":19973:20338   */\n      swap2\n      swap1\n      pop\n      jump\t// out\n        /* \"#utility.yul\":20344:20763   */\n    tag_145:\n        /* \"#utility.yul\":20510:20514   */\n      0x00\n        /* \"#utility.yul\":20548:20550   */\n      0x20\n        /* \"#utility.yul\":20537:20546   */\n      dup3\n        /* \"#utility.yul\":20533:20551   */\n      add\n        /* \"#utility.yul\":20525:20551   */\n      swap1\n      pop\n        /* \"#utility.yul\":20597:20606   */\n      dup2\n        /* \"#utility.yul\":20591:20595   */\n      dup2\n        /* \"#utility.yul\":20587:20607   */\n      sub\n        /* \"#utility.yul\":20583:20584   */\n      0x00\n        /* \"#utility.yul\":20572:20581   */\n      dup4\n        /* \"#utility.yul\":20568:20585   */\n      add\n        /* \"#utility.yul\":20561:20608   */\n      mstore\n        /* \"#utility.yul\":20625:20756   */\n      tag_414\n        /* \"#utility.yul\":20751:20755   */\n      dup2\n        /* \"#utility.yul\":20625:20756   */\n      tag_213\n      jump\t// in\n    tag_414:\n        /* \"#utility.yul\":20617:20756   */\n      swap1\n      pop\n        /* \"#utility.yul\":20344:20763   */\n      swap2\n      swap1\n      pop\n      jump\t// out\n        /* \"#utility.yul\":20769:20960   */\n    tag_155:\n        /* \"#utility.yul\":20809:20812   */\n      0x00\n        /* \"#utility.yul\":20828:20848   */\n      tag_416\n        /* \"#utility.yul\":20846:20847   */\n      dup3\n        /* \"#utility.yul\":20828:20848   */\n      tag_156\n      jump\t// in\n    tag_416:\n        /* \"#utility.yul\":20823:20848   */\n      swap2\n      pop\n        /* \"#utility.yul\":20862:20882   */\n      tag_417\n        /* \"#utility.yul\":20880:20881   */\n      dup4\n        /* \"#utility.yul\":20862:20882   */\n      tag_156\n      jump\t// in\n    tag_417:\n        /* \"#utility.yul\":20857:20882   */\n      swap3\n      pop\n        /* \"#utility.yul\":20905:20906   */\n      dup3\n        /* \"#utility.yul\":20902:20903   */\n      dup3\n        /* \"#utility.yul\":20898:20907   */\n      add\n        /* \"#utility.yul\":20891:20907   */\n      swap1\n      pop\n        /* \"#utility.yul\":20926:20929   */\n      dup1\n        /* \"#utility.yul\":20923:20924   */\n      dup3\n        /* \"#utility.yul\":20920:20930   */\n      gt\n        /* \"#utility.yul\":20917:20953   */\n      iszero\n      tag_418\n      jumpi\n        /* \"#utility.yul\":20933:20951   */\n      tag_419\n      tag_199\n      jump\t// in\n    tag_419:\n        /* \"#utility.yul\":20917:20953   */\n    tag_418:\n        /* \"#utility.yul\":20769:20960   */\n      swap3\n      swap2\n      pop\n      pop\n      jump\t// out\n\n    auxdata: 0xa264697066735822122073d1a9c4892bd90a068e25be8c938fdcb7c1dfc49ab567549a951f0aa59e781a64736f6c63430008170033\n}\n",
				"bytecode": {
					"linkReferences": {},
					"object": "608060405234801562000010575f80fd5b5060405162002040380380620020408339818101604052810190620000369190620004e5565b5f8251116200007c576040517f08c379a00000000000000000000000000000000000000000000000000000000081526004016200007390620005a7565b60405180910390fd5b5f811180156200009057505f805490508111155b620000d2576040517f08c379a0000000000000000000000000000000000000000000000000000000008152600401620000c99062000615565b60405180910390fd5b5f5b8251811015620002bf575f838281518110620000f557620000f462000635565b5b602002602001015190505f73ffffffffffffffffffffffffffffffffffffffff168173ffffffffffffffffffffffffffffffffffffffff160362000170576040517f08c379a00000000000000000000000000000000000000000000000000000000081526004016200016790620006b0565b60405180910390fd5b60015f8273ffffffffffffffffffffffffffffffffffffffff1673ffffffffffffffffffffffffffffffffffffffff1681526020019081526020015f205f9054906101000a900460ff1615620001fd576040517f08c379a0000000000000000000000000000000000000000000000000000000008152600401620001f4906200071e565b60405180910390fd5b6001805f8373ffffffffffffffffffffffffffffffffffffffff1673ffffffffffffffffffffffffffffffffffffffff1681526020019081526020015f205f6101000a81548160ff0219169083151502179055505f81908060018154018082558091505060019003905f5260205f20015f9091909190916101000a81548173ffffffffffffffffffffffffffffffffffffffff021916908373ffffffffffffffffffffffffffffffffffffffff160217905550508080600101915050620000d4565b508060028190555050506200073e565b5f604051905090565b5f80fd5b5f80fd5b5f80fd5b5f601f19601f8301169050919050565b7f4e487b71000000000000000000000000000000000000000000000000000000005f52604160045260245ffd5b6200032c82620002e4565b810181811067ffffffffffffffff821117156200034e576200034d620002f4565b5b80604052505050565b5f62000362620002cf565b905062000370828262000321565b919050565b5f67ffffffffffffffff821115620003925762000391620002f4565b5b602082029050602081019050919050565b5f80fd5b5f73ffffffffffffffffffffffffffffffffffffffff82169050919050565b5f620003d282620003a7565b9050919050565b620003e481620003c6565b8114620003ef575f80fd5b50565b5f815190506200040281620003d9565b92915050565b5f6200041e620004188462000375565b62000357565b90508083825260208201905060208402830185811115620004445762000443620003a3565b5b835b818110156200047157806200045c8882620003f2565b84526020840193505060208101905062000446565b5050509392505050565b5f82601f830112620004925762000491620002e0565b5b8151620004a484826020860162000408565b91505092915050565b5f819050919050565b620004c181620004ad565b8114620004cc575f80fd5b50565b5f81519050620004df81620004b6565b92915050565b5f8060408385031215620004fe57620004fd620002d8565b5b5f83015167ffffffffffffffff8111156200051e576200051d620002dc565b5b6200052c858286016200047b565b92505060206200053f85828601620004cf565b9150509250929050565b5f82825260208201905092915050565b7f6f776e65722072657175697265000000000000000000000000000000000000005f82015250565b5f6200058f600d8362000549565b91506200059c8262000559565b602082019050919050565b5f6020820190508181035f830152620005c08162000581565b9050919050565b7f696e76616c696564207265717569726564206e756d62657200000000000000005f82015250565b5f620005fd60188362000549565b91506200060a82620005c7565b602082019050919050565b5f6020820190508181035f8301526200062e81620005ef565b9050919050565b7f4e487b71000000000000000000000000000000000000000000000000000000005f52603260045260245ffd5b7f696e76616c6964206f776e6572000000000000000000000000000000000000005f82015250565b5f62000698600d8362000549565b9150620006a58262000662565b602082019050919050565b5f6020820190508181035f830152620006c9816200068a565b9050919050565b7f6f776e6572206973206e6f7420756e69717565000000000000000000000000005f82015250565b5f6200070660138362000549565b91506200071382620006d0565b602082019050919050565b5f6020820190508181035f8301526200073781620006f8565b9050919050565b6118f4806200074c5f395ff3fe608060405260043610610089575f3560e01c80638253951a116100585780638253951a146101aa5780639ace38c2146101e6578063b759f95414610225578063dc8452cd1461024d578063fe0d94c114610277576100de565b8063025e7c27146100e257806314de327f1461011e57806320c5429b146101465780632f54bf6e1461016e576100de565b366100de573373ffffffffffffffffffffffffffffffffffffffff167fe1fffcc4923d04b559f4d29a8bfc6cda04eb5b0d3c460751c2402c5c5cc9109c346040516100d49190610e46565b60405180910390a2005b5f80fd5b3480156100ed575f80fd5b5061010860048036038101906101039190610e91565b61029f565b6040516101159190610efb565b60405180910390f35b348015610129575f80fd5b50610144600480360381019061013f9190610f9f565b6102d9565b005b348015610151575f80fd5b5061016c60048036038101906101679190610e91565b6104cf565b005b348015610179575f80fd5b50610194600480360381019061018f9190611010565b610755565b6040516101a19190611055565b60405180910390f35b3480156101b5575f80fd5b506101d060048036038101906101cb919061106e565b610772565b6040516101dd9190611055565b60405180910390f35b3480156101f1575f80fd5b5061020c60048036038101906102079190610e91565b61079c565b60405161021c9493929190611136565b60405180910390f35b348015610230575f80fd5b5061024b60048036038101906102469190610e91565b610888565b005b348015610258575f80fd5b50610261610b12565b60405161026e9190610e46565b60405180910390f35b348015610282575f80fd5b5061029d60048036038101906102989190610e91565b610b18565b005b5f81815481106102ad575f80fd5b905f5260205f20015f915054906101000a900473ffffffffffffffffffffffffffffffffffffffff1681565b60015f3373ffffffffffffffffffffffffffffffffffffffff1673ffffffffffffffffffffffffffffffffffffffff1681526020019081526020015f205f9054906101000a900460ff16610362576040517f08c379a0000000000000000000000000000000000000000000000000000000008152600401610359906111da565b60405180910390fd5b600360405180608001604052808673ffffffffffffffffffffffffffffffffffffffff16815260200185815260200184848080601f0160208091040260200160405190810160405280939291908181526020018383808284375f81840152601f19601f8201169050808301925050505050505081526020015f1515815250908060018154018082558091505060019003905f5260205f2090600402015f909190919091505f820151815f015f6101000a81548173ffffffffffffffffffffffffffffffffffffffff021916908373ffffffffffffffffffffffffffffffffffffffff160217905550602082015181600101556040820151816002019081610469919061141f565b506060820151816003015f6101000a81548160ff0219169083151502179055505050600160038054905061049d919061151b565b7f08324b3d745b914e3abd4ffbfead91e3b78391a98c173202129215ab933adfbe60405160405180910390a250505050565b60015f3373ffffffffffffffffffffffffffffffffffffffff1673ffffffffffffffffffffffffffffffffffffffff1681526020019081526020015f205f9054906101000a900460ff16610558576040517f08c379a000000000000000000000000000000000000000000000000000000000815260040161054f906111da565b60405180910390fd5b8060038054905081106105a0576040517f08c379a000000000000000000000000000000000000000000000000000000000815260040161059790611598565b60405180910390fd5b81600381815481106105b5576105b46115b6565b5b905f5260205f2090600402016003015f9054906101000a900460ff1615610611576040517f08c379a00000000000000000000000000000000000000000000000000000000081526004016106089061162d565b60405180910390fd5b60045f8481526020019081526020015f205f3373ffffffffffffffffffffffffffffffffffffffff1673ffffffffffffffffffffffffffffffffffffffff1681526020019081526020015f205f9054906101000a900460ff166106a9576040517f08c379a00000000000000000000000000000000000000000000000000000000081526004016106a090611695565b60405180910390fd5b5f60045f8581526020019081526020015f205f3373ffffffffffffffffffffffffffffffffffffffff1673ffffffffffffffffffffffffffffffffffffffff1681526020019081526020015f205f6101000a81548160ff021916908315150217905550823373ffffffffffffffffffffffffffffffffffffffff167fec9ab91322523c899ede7830ec9bfc992b5981cdcc27b91162fb23de5791117b60405160405180910390a3505050565b6001602052805f5260405f205f915054906101000a900460ff1681565b6004602052815f5260405f20602052805f5260405f205f915091509054906101000a900460ff1681565b600381815481106107ab575f80fd5b905f5260205f2090600402015f91509050805f015f9054906101000a900473ffffffffffffffffffffffffffffffffffffffff16908060010154908060020180546107f590611252565b80601f016020809104026020016040519081016040528092919081815260200182805461082190611252565b801561086c5780601f106108435761010080835404028352916020019161086c565b820191905f5260205f20905b81548152906001019060200180831161084f57829003601f168201915b505050505090806003015f9054906101000a900460ff16905084565b60015f3373ffffffffffffffffffffffffffffffffffffffff1673ffffffffffffffffffffffffffffffffffffffff1681526020019081526020015f205f9054906101000a900460ff16610911576040517f08c379a0000000000000000000000000000000000000000000000000000000008152600401610908906111da565b60405180910390fd5b806003805490508110610959576040517f08c379a000000000000000000000000000000000000000000000000000000000815260040161095090611598565b60405180910390fd5b8160045f8281526020019081526020015f205f3373ffffffffffffffffffffffffffffffffffffffff1673ffffffffffffffffffffffffffffffffffffffff1681526020019081526020015f205f9054906101000a900460ff16156109f3576040517f08c379a00000000000000000000000000000000000000000000000000000000081526004016109ea906116fd565b60405180910390fd5b8260038181548110610a0857610a076115b6565b5b905f5260205f2090600402016003015f9054906101000a900460ff1615610a64576040517f08c379a0000000000000000000000000000000000000000000000000000000008152600401610a5b9061162d565b60405180910390fd5b600160045f8681526020019081526020015f205f3373ffffffffffffffffffffffffffffffffffffffff1673ffffffffffffffffffffffffffffffffffffffff1681526020019081526020015f205f6101000a81548160ff021916908315150217905550833373ffffffffffffffffffffffffffffffffffffffff167f90ec57f18fa7b15c6b8d5e4d1deb90796c74b2ff23d4d0cecad0cb42a96b312860405160405180910390a350505050565b60025481565b806003805490508110610b60576040517f08c379a0000000000000000000000000000000000000000000000000000000008152600401610b5790611598565b60405180910390fd5b8160038181548110610b7557610b746115b6565b5b905f5260205f2090600402016003015f9054906101000a900460ff1615610bd1576040517f08c379a0000000000000000000000000000000000000000000000000000000008152600401610bc89061162d565b60405180910390fd5b600254610bdd84610d64565b1115610c1e576040517f08c379a0000000000000000000000000000000000000000000000000000000008152600401610c1590611765565b60405180910390fd5b5f60038481548110610c3357610c326115b6565b5b905f5260205f20906004020190506001816003015f6101000a81548160ff0219169083151502179055505f815f015f9054906101000a900473ffffffffffffffffffffffffffffffffffffffff1673ffffffffffffffffffffffffffffffffffffffff16826001015483600201604051610cad919061180d565b5f6040518083038185875af1925050503d805f8114610ce7576040519150601f19603f3d011682016040523d82523d5f602084013e610cec565b606091505b5050905080610d30576040517f08c379a0000000000000000000000000000000000000000000000000000000008152600401610d279061186d565b60405180910390fd5b847fddb556f1d2c1ec821e910b019d3685b229db152a0ecd517ca7e24b8bd713928960405160405180910390a25050505050565b5f805b5f80549050811015610e285760045f8481526020019081526020015f205f808381548110610d9857610d976115b6565b5b905f5260205f20015f9054906101000a900473ffffffffffffffffffffffffffffffffffffffff1673ffffffffffffffffffffffffffffffffffffffff1673ffffffffffffffffffffffffffffffffffffffff1681526020019081526020015f205f9054906101000a900460ff1615610e1b57600182610e18919061188b565b91505b8080600101915050610d67565b50919050565b5f819050919050565b610e4081610e2e565b82525050565b5f602082019050610e595f830184610e37565b92915050565b5f80fd5b5f80fd5b610e7081610e2e565b8114610e7a575f80fd5b50565b5f81359050610e8b81610e67565b92915050565b5f60208284031215610ea657610ea5610e5f565b5b5f610eb384828501610e7d565b91505092915050565b5f73ffffffffffffffffffffffffffffffffffffffff82169050919050565b5f610ee582610ebc565b9050919050565b610ef581610edb565b82525050565b5f602082019050610f0e5f830184610eec565b92915050565b610f1d81610edb565b8114610f27575f80fd5b50565b5f81359050610f3881610f14565b92915050565b5f80fd5b5f80fd5b5f80fd5b5f8083601f840112610f5f57610f5e610f3e565b5b8235905067ffffffffffffffff811115610f7c57610f7b610f42565b5b602083019150836001820283011115610f9857610f97610f46565b5b9250929050565b5f805f8060608587031215610fb757610fb6610e5f565b5b5f610fc487828801610f2a565b9450506020610fd587828801610e7d565b935050604085013567ffffffffffffffff811115610ff657610ff5610e63565b5b61100287828801610f4a565b925092505092959194509250565b5f6020828403121561102557611024610e5f565b5b5f61103284828501610f2a565b91505092915050565b5f8115159050919050565b61104f8161103b565b82525050565b5f6020820190506110685f830184611046565b92915050565b5f806040838503121561108457611083610e5f565b5b5f61109185828601610e7d565b92505060206110a285828601610f2a565b9150509250929050565b5f81519050919050565b5f82825260208201905092915050565b5f5b838110156110e35780820151818401526020810190506110c8565b5f8484015250505050565b5f601f19601f8301169050919050565b5f611108826110ac565b61111281856110b6565b93506111228185602086016110c6565b61112b816110ee565b840191505092915050565b5f6080820190506111495f830187610eec565b6111566020830186610e37565b818103604083015261116881856110fe565b90506111776060830184611046565b95945050505050565b5f82825260208201905092915050565b7f6e6f74206f776e657200000000000000000000000000000000000000000000005f82015250565b5f6111c4600983611180565b91506111cf82611190565b602082019050919050565b5f6020820190508181035f8301526111f1816111b8565b9050919050565b7f4e487b71000000000000000000000000000000000000000000000000000000005f52604160045260245ffd5b7f4e487b71000000000000000000000000000000000000000000000000000000005f52602260045260245ffd5b5f600282049050600182168061126957607f821691505b60208210810361127c5761127b611225565b5b50919050565b5f819050815f5260205f209050919050565b5f6020601f8301049050919050565b5f82821b905092915050565b5f600883026112de7fffffffffffffffffffffffffffffffffffffffffffffffffffffffffffffffff826112a3565b6112e886836112a3565b95508019841693508086168417925050509392505050565b5f819050919050565b5f61132361131e61131984610e2e565b611300565b610e2e565b9050919050565b5f819050919050565b61133c83611309565b6113506113488261132a565b8484546112af565b825550505050565b5f90565b611364611358565b61136f818484611333565b505050565b5b81811015611392576113875f8261135c565b600181019050611375565b5050565b601f8211156113d7576113a881611282565b6113b184611294565b810160208510156113c0578190505b6113d46113cc85611294565b830182611374565b50505b505050565b5f82821c905092915050565b5f6113f75f19846008026113dc565b1980831691505092915050565b5f61140f83836113e8565b9150826002028217905092915050565b611428826110ac565b67ffffffffffffffff811115611441576114406111f8565b5b61144b8254611252565b611456828285611396565b5f60209050601f831160018114611487575f8415611475578287015190505b61147f8582611404565b8655506114e6565b601f19841661149586611282565b5f5b828110156114bc57848901518255600182019150602085019450602081019050611497565b868310156114d957848901516114d5601f8916826113e8565b8355505b6001600288020188555050505b505050505050565b7f4e487b71000000000000000000000000000000000000000000000000000000005f52601160045260245ffd5b5f61152582610e2e565b915061153083610e2e565b9250828203905081811115611548576115476114ee565b5b92915050565b7f747820646f6573206e6f742065786973740000000000000000000000000000005f82015250565b5f611582601183611180565b915061158d8261154e565b602082019050919050565b5f6020820190508181035f8301526115af81611576565b9050919050565b7f4e487b71000000000000000000000000000000000000000000000000000000005f52603260045260245ffd5b7f747820616c7265616479206578656375746564000000000000000000000000005f82015250565b5f611617601383611180565b9150611622826115e3565b602082019050919050565b5f6020820190508181035f8301526116448161160b565b9050919050565b7f7478206e6f7420617070726f76656400000000000000000000000000000000005f82015250565b5f61167f600f83611180565b915061168a8261164b565b602082019050919050565b5f6020820190508181035f8301526116ac81611673565b9050919050565b7f747820616c726561647920617070726f766564000000000000000000000000005f82015250565b5f6116e7601383611180565b91506116f2826116b3565b602082019050919050565b5f6020820190508181035f830152611714816116db565b9050919050565b7f617070726f76616c73203c2072657175697265640000000000000000000000005f82015250565b5f61174f601483611180565b915061175a8261171b565b602082019050919050565b5f6020820190508181035f83015261177c81611743565b9050919050565b5f81905092915050565b5f815461179981611252565b6117a38186611783565b9450600182165f81146117bd57600181146117d257611804565b60ff1983168652811515820286019350611804565b6117db85611282565b5f5b838110156117fc578154818901526001820191506020810190506117dd565b838801955050505b50505092915050565b5f611818828461178d565b915081905092915050565b7f7478206661696c656400000000000000000000000000000000000000000000005f82015250565b5f611857600983611180565b915061186282611823565b602082019050919050565b5f6020820190508181035f8301526118848161184b565b9050919050565b5f61189582610e2e565b91506118a083610e2e565b92508282019050808211156118b8576118b76114ee565b5b9291505056fea264697066735822122073d1a9c4892bd90a068e25be8c938fdcb7c1dfc49ab567549a951f0aa59e781a64736f6c63430008170033",
					"opcodes": "PUSH1 0x80 PUSH1 0x40 MSTORE CALLVALUE DUP1 ISZERO PUSH3 0x10 JUMPI PUSH0 DUP1 REVERT JUMPDEST POP PUSH1 0x40 MLOAD PUSH3 0x2040 CODESIZE SUB DUP1 PUSH3 0x2040 DUP4 CODECOPY DUP2 DUP2 ADD PUSH1 0x40 MSTORE DUP2 ADD SWAP1 PUSH3 0x36 SWAP2 SWAP1 PUSH3 0x4E5 JUMP JUMPDEST PUSH0 DUP3 MLOAD GT PUSH3 0x7C JUMPI PUSH1 0x40 MLOAD PUSH32 0x8C379A000000000000000000000000000000000000000000000000000000000 DUP2 MSTORE PUSH1 0x4 ADD PUSH3 0x73 SWAP1 PUSH3 0x5A7 JUMP JUMPDEST PUSH1 0x40 MLOAD DUP1 SWAP2 SUB SWAP1 REVERT JUMPDEST PUSH0 DUP2 GT DUP1 ISZERO PUSH3 0x90 JUMPI POP PUSH0 DUP1 SLOAD SWAP1 POP DUP2 GT ISZERO JUMPDEST PUSH3 0xD2 JUMPI PUSH1 0x40 MLOAD PUSH32 0x8C379A000000000000000000000000000000000000000000000000000000000 DUP2 MSTORE PUSH1 0x4 ADD PUSH3 0xC9 SWAP1 PUSH3 0x615 JUMP JUMPDEST PUSH1 0x40 MLOAD DUP1 SWAP2 SUB SWAP1 REVERT JUMPDEST PUSH0 JUMPDEST DUP3 MLOAD DUP2 LT ISZERO PUSH3 0x2BF JUMPI PUSH0 DUP4 DUP3 DUP2 MLOAD DUP2 LT PUSH3 0xF5 JUMPI PUSH3 0xF4 PUSH3 0x635 JUMP JUMPDEST JUMPDEST PUSH1 0x20 MUL PUSH1 0x20 ADD ADD MLOAD SWAP1 POP PUSH0 PUSH20 0xFFFFFFFFFFFFFFFFFFFFFFFFFFFFFFFFFFFFFFFF AND DUP2 PUSH20 0xFFFFFFFFFFFFFFFFFFFFFFFFFFFFFFFFFFFFFFFF AND SUB PUSH3 0x170 JUMPI PUSH1 0x40 MLOAD PUSH32 0x8C379A000000000000000000000000000000000000000000000000000000000 DUP2 MSTORE PUSH1 0x4 ADD PUSH3 0x167 SWAP1 PUSH3 0x6B0 JUMP JUMPDEST PUSH1 0x40 MLOAD DUP1 SWAP2 SUB SWAP1 REVERT JUMPDEST PUSH1 0x1 PUSH0 DUP3 PUSH20 0xFFFFFFFFFFFFFFFFFFFFFFFFFFFFFFFFFFFFFFFF AND PUSH20 0xFFFFFFFFFFFFFFFFFFFFFFFFFFFFFFFFFFFFFFFF AND DUP2 MSTORE PUSH1 0x20 ADD SWAP1 DUP2 MSTORE PUSH1 0x20 ADD PUSH0 KECCAK256 PUSH0 SWAP1 SLOAD SWAP1 PUSH2 0x100 EXP SWAP1 DIV PUSH1 0xFF AND ISZERO PUSH3 0x1FD JUMPI PUSH1 0x40 MLOAD PUSH32 0x8C379A000000000000000000000000000000000000000000000000000000000 DUP2 MSTORE PUSH1 0x4 ADD PUSH3 0x1F4 SWAP1 PUSH3 0x71E JUMP JUMPDEST PUSH1 0x40 MLOAD DUP1 SWAP2 SUB SWAP1 REVERT JUMPDEST PUSH1 0x1 DUP1 PUSH0 DUP4 PUSH20 0xFFFFFFFFFFFFFFFFFFFFFFFFFFFFFFFFFFFFFFFF AND PUSH20 0xFFFFFFFFFFFFFFFFFFFFFFFFFFFFFFFFFFFFFFFF AND DUP2 MSTORE PUSH1 0x20 ADD SWAP1 DUP2 MSTORE PUSH1 0x20 ADD PUSH0 KECCAK256 PUSH0 PUSH2 0x100 EXP DUP2 SLOAD DUP2 PUSH1 0xFF MUL NOT AND SWAP1 DUP4 ISZERO ISZERO MUL OR SWAP1 SSTORE POP PUSH0 DUP2 SWAP1 DUP1 PUSH1 0x1 DUP2 SLOAD ADD DUP1 DUP3 SSTORE DUP1 SWAP2 POP POP PUSH1 0x1 SWAP1 SUB SWAP1 PUSH0 MSTORE PUSH1 0x20 PUSH0 KECCAK256 ADD PUSH0 SWAP1 SWAP2 SWAP1 SWAP2 SWAP1 SWAP2 PUSH2 0x100 EXP DUP2 SLOAD DUP2 PUSH20 0xFFFFFFFFFFFFFFFFFFFFFFFFFFFFFFFFFFFFFFFF MUL NOT AND SWAP1 DUP4 PUSH20 0xFFFFFFFFFFFFFFFFFFFFFFFFFFFFFFFFFFFFFFFF AND MUL OR SWAP1 SSTORE POP POP DUP1 DUP1 PUSH1 0x1 ADD SWAP2 POP POP PUSH3 0xD4 JUMP JUMPDEST POP DUP1 PUSH1 0x2 DUP2 SWAP1 SSTORE POP POP POP PUSH3 0x73E JUMP JUMPDEST PUSH0 PUSH1 0x40 MLOAD SWAP1 POP SWAP1 JUMP JUMPDEST PUSH0 DUP1 REVERT JUMPDEST PUSH0 DUP1 REVERT JUMPDEST PUSH0 DUP1 REVERT JUMPDEST PUSH0 PUSH1 0x1F NOT PUSH1 0x1F DUP4 ADD AND SWAP1 POP SWAP2 SWAP1 POP JUMP JUMPDEST PUSH32 0x4E487B7100000000000000000000000000000000000000000000000000000000 PUSH0 MSTORE PUSH1 0x41 PUSH1 0x4 MSTORE PUSH1 0x24 PUSH0 REVERT JUMPDEST PUSH3 0x32C DUP3 PUSH3 0x2E4 JUMP JUMPDEST DUP2 ADD DUP2 DUP2 LT PUSH8 0xFFFFFFFFFFFFFFFF DUP3 GT OR ISZERO PUSH3 0x34E JUMPI PUSH3 0x34D PUSH3 0x2F4 JUMP JUMPDEST JUMPDEST DUP1 PUSH1 0x40 MSTORE POP POP POP JUMP JUMPDEST PUSH0 PUSH3 0x362 PUSH3 0x2CF JUMP JUMPDEST SWAP1 POP PUSH3 0x370 DUP3 DUP3 PUSH3 0x321 JUMP JUMPDEST SWAP2 SWAP1 POP JUMP JUMPDEST PUSH0 PUSH8 0xFFFFFFFFFFFFFFFF DUP3 GT ISZERO PUSH3 0x392 JUMPI PUSH3 0x391 PUSH3 0x2F4 JUMP JUMPDEST JUMPDEST PUSH1 0x20 DUP3 MUL SWAP1 POP PUSH1 0x20 DUP2 ADD SWAP1 POP SWAP2 SWAP1 POP JUMP JUMPDEST PUSH0 DUP1 REVERT JUMPDEST PUSH0 PUSH20 0xFFFFFFFFFFFFFFFFFFFFFFFFFFFFFFFFFFFFFFFF DUP3 AND SWAP1 POP SWAP2 SWAP1 POP JUMP JUMPDEST PUSH0 PUSH3 0x3D2 DUP3 PUSH3 0x3A7 JUMP JUMPDEST SWAP1 POP SWAP2 SWAP1 POP JUMP JUMPDEST PUSH3 0x3E4 DUP2 PUSH3 0x3C6 JUMP JUMPDEST DUP2 EQ PUSH3 0x3EF JUMPI PUSH0 DUP1 REVERT JUMPDEST POP JUMP JUMPDEST PUSH0 DUP2 MLOAD SWAP1 POP PUSH3 0x402 DUP2 PUSH3 0x3D9 JUMP JUMPDEST SWAP3 SWAP2 POP POP JUMP JUMPDEST PUSH0 PUSH3 0x41E PUSH3 0x418 DUP5 PUSH3 0x375 JUMP JUMPDEST PUSH3 0x357 JUMP JUMPDEST SWAP1 POP DUP1 DUP4 DUP3 MSTORE PUSH1 0x20 DUP3 ADD SWAP1 POP PUSH1 0x20 DUP5 MUL DUP4 ADD DUP6 DUP2 GT ISZERO PUSH3 0x444 JUMPI PUSH3 0x443 PUSH3 0x3A3 JUMP JUMPDEST JUMPDEST DUP4 JUMPDEST DUP2 DUP2 LT ISZERO PUSH3 0x471 JUMPI DUP1 PUSH3 0x45C DUP9 DUP3 PUSH3 0x3F2 JUMP JUMPDEST DUP5 MSTORE PUSH1 0x20 DUP5 ADD SWAP4 POP POP PUSH1 0x20 DUP2 ADD SWAP1 POP PUSH3 0x446 JUMP JUMPDEST POP POP POP SWAP4 SWAP3 POP POP POP JUMP JUMPDEST PUSH0 DUP3 PUSH1 0x1F DUP4 ADD SLT PUSH3 0x492 JUMPI PUSH3 0x491 PUSH3 0x2E0 JUMP JUMPDEST JUMPDEST DUP2 MLOAD PUSH3 0x4A4 DUP5 DUP3 PUSH1 0x20 DUP7 ADD PUSH3 0x408 JUMP JUMPDEST SWAP2 POP POP SWAP3 SWAP2 POP POP JUMP JUMPDEST PUSH0 DUP2 SWAP1 POP SWAP2 SWAP1 POP JUMP JUMPDEST PUSH3 0x4C1 DUP2 PUSH3 0x4AD JUMP JUMPDEST DUP2 EQ PUSH3 0x4CC JUMPI PUSH0 DUP1 REVERT JUMPDEST POP JUMP JUMPDEST PUSH0 DUP2 MLOAD SWAP1 POP PUSH3 0x4DF DUP2 PUSH3 0x4B6 JUMP JUMPDEST SWAP3 SWAP2 POP POP JUMP JUMPDEST PUSH0 DUP1 PUSH1 0x40 DUP4 DUP6 SUB SLT ISZERO PUSH3 0x4FE JUMPI PUSH3 0x4FD PUSH3 0x2D8 JUMP JUMPDEST JUMPDEST PUSH0 DUP4 ADD MLOAD PUSH8 0xFFFFFFFFFFFFFFFF DUP2 GT ISZERO PUSH3 0x51E JUMPI PUSH3 0x51D PUSH3 0x2DC JUMP JUMPDEST JUMPDEST PUSH3 0x52C DUP6 DUP3 DUP7 ADD PUSH3 0x47B JUMP JUMPDEST SWAP3 POP POP PUSH1 0x20 PUSH3 0x53F DUP6 DUP3 DUP7 ADD PUSH3 0x4CF JUMP JUMPDEST SWAP2 POP POP SWAP3 POP SWAP3 SWAP1 POP JUMP JUMPDEST PUSH0 DUP3 DUP3 MSTORE PUSH1 0x20 DUP3 ADD SWAP1 POP SWAP3 SWAP2 POP POP JUMP JUMPDEST PUSH32 0x6F776E6572207265717569726500000000000000000000000000000000000000 PUSH0 DUP3 ADD MSTORE POP JUMP JUMPDEST PUSH0 PUSH3 0x58F PUSH1 0xD DUP4 PUSH3 0x549 JUMP JUMPDEST SWAP2 POP PUSH3 0x59C DUP3 PUSH3 0x559 JUMP JUMPDEST PUSH1 0x20 DUP3 ADD SWAP1 POP SWAP2 SWAP1 POP JUMP JUMPDEST PUSH0 PUSH1 0x20 DUP3 ADD SWAP1 POP DUP2 DUP2 SUB PUSH0 DUP4 ADD MSTORE PUSH3 0x5C0 DUP2 PUSH3 0x581 JUMP JUMPDEST SWAP1 POP SWAP2 SWAP1 POP JUMP JUMPDEST PUSH32 0x696E76616C696564207265717569726564206E756D6265720000000000000000 PUSH0 DUP3 ADD MSTORE POP JUMP JUMPDEST PUSH0 PUSH3 0x5FD PUSH1 0x18 DUP4 PUSH3 0x549 JUMP JUMPDEST SWAP2 POP PUSH3 0x60A DUP3 PUSH3 0x5C7 JUMP JUMPDEST PUSH1 0x20 DUP3 ADD SWAP1 POP SWAP2 SWAP1 POP JUMP JUMPDEST PUSH0 PUSH1 0x20 DUP3 ADD SWAP1 POP DUP2 DUP2 SUB PUSH0 DUP4 ADD MSTORE PUSH3 0x62E DUP2 PUSH3 0x5EF JUMP JUMPDEST SWAP1 POP SWAP2 SWAP1 POP JUMP JUMPDEST PUSH32 0x4E487B7100000000000000000000000000000000000000000000000000000000 PUSH0 MSTORE PUSH1 0x32 PUSH1 0x4 MSTORE PUSH1 0x24 PUSH0 REVERT JUMPDEST PUSH32 0x696E76616C6964206F776E657200000000000000000000000000000000000000 PUSH0 DUP3 ADD MSTORE POP JUMP JUMPDEST PUSH0 PUSH3 0x698 PUSH1 0xD DUP4 PUSH3 0x549 JUMP JUMPDEST SWAP2 POP PUSH3 0x6A5 DUP3 PUSH3 0x662 JUMP JUMPDEST PUSH1 0x20 DUP3 ADD SWAP1 POP SWAP2 SWAP1 POP JUMP JUMPDEST PUSH0 PUSH1 0x20 DUP3 ADD SWAP1 POP DUP2 DUP2 SUB PUSH0 DUP4 ADD MSTORE PUSH3 0x6C9 DUP2 PUSH3 0x68A JUMP JUMPDEST SWAP1 POP SWAP2 SWAP1 POP JUMP JUMPDEST PUSH32 0x6F776E6572206973206E6F7420756E6971756500000000000000000000000000 PUSH0 DUP3 ADD MSTORE POP JUMP JUMPDEST PUSH0 PUSH3 0x706 PUSH1 0x13 DUP4 PUSH3 0x549 JUMP JUMPDEST SWAP2 POP PUSH3 0x713 DUP3 PUSH3 0x6D0 JUMP JUMPDEST PUSH1 0x20 DUP3 ADD SWAP1 POP SWAP2 SWAP1 POP JUMP JUMPDEST PUSH0 PUSH1 0x20 DUP3 ADD SWAP1 POP DUP2 DUP2 SUB PUSH0 DUP4 ADD MSTORE PUSH3 0x737 DUP2 PUSH3 0x6F8 JUMP JUMPDEST SWAP1 POP SWAP2 SWAP1 POP JUMP JUMPDEST PUSH2 0x18F4 DUP1 PUSH3 0x74C PUSH0 CODECOPY PUSH0 RETURN INVALID PUSH1 0x80 PUSH1 0x40 MSTORE PUSH1 0x4 CALLDATASIZE LT PUSH2 0x89 JUMPI PUSH0 CALLDATALOAD PUSH1 0xE0 SHR DUP1 PUSH4 0x8253951A GT PUSH2 0x58 JUMPI DUP1 PUSH4 0x8253951A EQ PUSH2 0x1AA JUMPI DUP1 PUSH4 0x9ACE38C2 EQ PUSH2 0x1E6 JUMPI DUP1 PUSH4 0xB759F954 EQ PUSH2 0x225 JUMPI DUP1 PUSH4 0xDC8452CD EQ PUSH2 0x24D JUMPI DUP1 PUSH4 0xFE0D94C1 EQ PUSH2 0x277 JUMPI PUSH2 0xDE JUMP JUMPDEST DUP1 PUSH4 0x25E7C27 EQ PUSH2 0xE2 JUMPI DUP1 PUSH4 0x14DE327F EQ PUSH2 0x11E JUMPI DUP1 PUSH4 0x20C5429B EQ PUSH2 0x146 JUMPI DUP1 PUSH4 0x2F54BF6E EQ PUSH2 0x16E JUMPI PUSH2 0xDE JUMP JUMPDEST CALLDATASIZE PUSH2 0xDE JUMPI CALLER PUSH20 0xFFFFFFFFFFFFFFFFFFFFFFFFFFFFFFFFFFFFFFFF AND PUSH32 0xE1FFFCC4923D04B559F4D29A8BFC6CDA04EB5B0D3C460751C2402C5C5CC9109C CALLVALUE PUSH1 0x40 MLOAD PUSH2 0xD4 SWAP2 SWAP1 PUSH2 0xE46 JUMP JUMPDEST PUSH1 0x40 MLOAD DUP1 SWAP2 SUB SWAP1 LOG2 STOP JUMPDEST PUSH0 DUP1 REVERT JUMPDEST CALLVALUE DUP1 ISZERO PUSH2 0xED JUMPI PUSH0 DUP1 REVERT JUMPDEST POP PUSH2 0x108 PUSH1 0x4 DUP1 CALLDATASIZE SUB DUP2 ADD SWAP1 PUSH2 0x103 SWAP2 SWAP1 PUSH2 0xE91 JUMP JUMPDEST PUSH2 0x29F JUMP JUMPDEST PUSH1 0x40 MLOAD PUSH2 0x115 SWAP2 SWAP1 PUSH2 0xEFB JUMP JUMPDEST PUSH1 0x40 MLOAD DUP1 SWAP2 SUB SWAP1 RETURN JUMPDEST CALLVALUE DUP1 ISZERO PUSH2 0x129 JUMPI PUSH0 DUP1 REVERT JUMPDEST POP PUSH2 0x144 PUSH1 0x4 DUP1 CALLDATASIZE SUB DUP2 ADD SWAP1 PUSH2 0x13F SWAP2 SWAP1 PUSH2 0xF9F JUMP JUMPDEST PUSH2 0x2D9 JUMP JUMPDEST STOP JUMPDEST CALLVALUE DUP1 ISZERO PUSH2 0x151 JUMPI PUSH0 DUP1 REVERT JUMPDEST POP PUSH2 0x16C PUSH1 0x4 DUP1 CALLDATASIZE SUB DUP2 ADD SWAP1 PUSH2 0x167 SWAP2 SWAP1 PUSH2 0xE91 JUMP JUMPDEST PUSH2 0x4CF JUMP JUMPDEST STOP JUMPDEST CALLVALUE DUP1 ISZERO PUSH2 0x179 JUMPI PUSH0 DUP1 REVERT JUMPDEST POP PUSH2 0x194 PUSH1 0x4 DUP1 CALLDATASIZE SUB DUP2 ADD SWAP1 PUSH2 0x18F SWAP2 SWAP1 PUSH2 0x1010 JUMP JUMPDEST PUSH2 0x755 JUMP JUMPDEST PUSH1 0x40 MLOAD PUSH2 0x1A1 SWAP2 SWAP1 PUSH2 0x1055 JUMP JUMPDEST PUSH1 0x40 MLOAD DUP1 SWAP2 SUB SWAP1 RETURN JUMPDEST CALLVALUE DUP1 ISZERO PUSH2 0x1B5 JUMPI PUSH0 DUP1 REVERT JUMPDEST POP PUSH2 0x1D0 PUSH1 0x4 DUP1 CALLDATASIZE SUB DUP2 ADD SWAP1 PUSH2 0x1CB SWAP2 SWAP1 PUSH2 0x106E JUMP JUMPDEST PUSH2 0x772 JUMP JUMPDEST PUSH1 0x40 MLOAD PUSH2 0x1DD SWAP2 SWAP1 PUSH2 0x1055 JUMP JUMPDEST PUSH1 0x40 MLOAD DUP1 SWAP2 SUB SWAP1 RETURN JUMPDEST CALLVALUE DUP1 ISZERO PUSH2 0x1F1 JUMPI PUSH0 DUP1 REVERT JUMPDEST POP PUSH2 0x20C PUSH1 0x4 DUP1 CALLDATASIZE SUB DUP2 ADD SWAP1 PUSH2 0x207 SWAP2 SWAP1 PUSH2 0xE91 JUMP JUMPDEST PUSH2 0x79C JUMP JUMPDEST PUSH1 0x40 MLOAD PUSH2 0x21C SWAP5 SWAP4 SWAP3 SWAP2 SWAP1 PUSH2 0x1136 JUMP JUMPDEST PUSH1 0x40 MLOAD DUP1 SWAP2 SUB SWAP1 RETURN JUMPDEST CALLVALUE DUP1 ISZERO PUSH2 0x230 JUMPI PUSH0 DUP1 REVERT JUMPDEST POP PUSH2 0x24B PUSH1 0x4 DUP1 CALLDATASIZE SUB DUP2 ADD SWAP1 PUSH2 0x246 SWAP2 SWAP1 PUSH2 0xE91 JUMP JUMPDEST PUSH2 0x888 JUMP JUMPDEST STOP JUMPDEST CALLVALUE DUP1 ISZERO PUSH2 0x258 JUMPI PUSH0 DUP1 REVERT JUMPDEST POP PUSH2 0x261 PUSH2 0xB12 JUMP JUMPDEST PUSH1 0x40 MLOAD PUSH2 0x26E SWAP2 SWAP1 PUSH2 0xE46 JUMP JUMPDEST PUSH1 0x40 MLOAD DUP1 SWAP2 SUB SWAP1 RETURN JUMPDEST CALLVALUE DUP1 ISZERO PUSH2 0x282 JUMPI PUSH0 DUP1 REVERT JUMPDEST POP PUSH2 0x29D PUSH1 0x4 DUP1 CALLDATASIZE SUB DUP2 ADD SWAP1 PUSH2 0x298 SWAP2 SWAP1 PUSH2 0xE91 JUMP JUMPDEST PUSH2 0xB18 JUMP JUMPDEST STOP JUMPDEST PUSH0 DUP2 DUP2 SLOAD DUP2 LT PUSH2 0x2AD JUMPI PUSH0 DUP1 REVERT JUMPDEST SWAP1 PUSH0 MSTORE PUSH1 0x20 PUSH0 KECCAK256 ADD PUSH0 SWAP2 POP SLOAD SWAP1 PUSH2 0x100 EXP SWAP1 DIV PUSH20 0xFFFFFFFFFFFFFFFFFFFFFFFFFFFFFFFFFFFFFFFF AND DUP2 JUMP JUMPDEST PUSH1 0x1 PUSH0 CALLER PUSH20 0xFFFFFFFFFFFFFFFFFFFFFFFFFFFFFFFFFFFFFFFF AND PUSH20 0xFFFFFFFFFFFFFFFFFFFFFFFFFFFFFFFFFFFFFFFF AND DUP2 MSTORE PUSH1 0x20 ADD SWAP1 DUP2 MSTORE PUSH1 0x20 ADD PUSH0 KECCAK256 PUSH0 SWAP1 SLOAD SWAP1 PUSH2 0x100 EXP SWAP1 DIV PUSH1 0xFF AND PUSH2 0x362 JUMPI PUSH1 0x40 MLOAD PUSH32 0x8C379A000000000000000000000000000000000000000000000000000000000 DUP2 MSTORE PUSH1 0x4 ADD PUSH2 0x359 SWAP1 PUSH2 0x11DA JUMP JUMPDEST PUSH1 0x40 MLOAD DUP1 SWAP2 SUB SWAP1 REVERT JUMPDEST PUSH1 0x3 PUSH1 0x40 MLOAD DUP1 PUSH1 0x80 ADD PUSH1 0x40 MSTORE DUP1 DUP7 PUSH20 0xFFFFFFFFFFFFFFFFFFFFFFFFFFFFFFFFFFFFFFFF AND DUP2 MSTORE PUSH1 0x20 ADD DUP6 DUP2 MSTORE PUSH1 0x20 ADD DUP5 DUP5 DUP1 DUP1 PUSH1 0x1F ADD PUSH1 0x20 DUP1 SWAP2 DIV MUL PUSH1 0x20 ADD PUSH1 0x40 MLOAD SWAP1 DUP2 ADD PUSH1 0x40 MSTORE DUP1 SWAP4 SWAP3 SWAP2 SWAP1 DUP2 DUP2 MSTORE PUSH1 0x20 ADD DUP4 DUP4 DUP1 DUP3 DUP5 CALLDATACOPY PUSH0 DUP2 DUP5 ADD MSTORE PUSH1 0x1F NOT PUSH1 0x1F DUP3 ADD AND SWAP1 POP DUP1 DUP4 ADD SWAP3 POP POP POP POP POP POP POP DUP2 MSTORE PUSH1 0x20 ADD PUSH0 ISZERO ISZERO DUP2 MSTORE POP SWAP1 DUP1 PUSH1 0x1 DUP2 SLOAD ADD DUP1 DUP3 SSTORE DUP1 SWAP2 POP POP PUSH1 0x1 SWAP1 SUB SWAP1 PUSH0 MSTORE PUSH1 0x20 PUSH0 KECCAK256 SWAP1 PUSH1 0x4 MUL ADD PUSH0 SWAP1 SWAP2 SWAP1 SWAP2 SWAP1 SWAP2 POP PUSH0 DUP3 ADD MLOAD DUP2 PUSH0 ADD PUSH0 PUSH2 0x100 EXP DUP2 SLOAD DUP2 PUSH20 0xFFFFFFFFFFFFFFFFFFFFFFFFFFFFFFFFFFFFFFFF MUL NOT AND SWAP1 DUP4 PUSH20 0xFFFFFFFFFFFFFFFFFFFFFFFFFFFFFFFFFFFFFFFF AND MUL OR SWAP1 SSTORE POP PUSH1 0x20 DUP3 ADD MLOAD DUP2 PUSH1 0x1 ADD SSTORE PUSH1 0x40 DUP3 ADD MLOAD DUP2 PUSH1 0x2 ADD SWAP1 DUP2 PUSH2 0x469 SWAP2 SWAP1 PUSH2 0x141F JUMP JUMPDEST POP PUSH1 0x60 DUP3 ADD MLOAD DUP2 PUSH1 0x3 ADD PUSH0 PUSH2 0x100 EXP DUP2 SLOAD DUP2 PUSH1 0xFF MUL NOT AND SWAP1 DUP4 ISZERO ISZERO MUL OR SWAP1 SSTORE POP POP POP PUSH1 0x1 PUSH1 0x3 DUP1 SLOAD SWAP1 POP PUSH2 0x49D SWAP2 SWAP1 PUSH2 0x151B JUMP JUMPDEST PUSH32 0x8324B3D745B914E3ABD4FFBFEAD91E3B78391A98C173202129215AB933ADFBE PUSH1 0x40 MLOAD PUSH1 0x40 MLOAD DUP1 SWAP2 SUB SWAP1 LOG2 POP POP POP POP JUMP JUMPDEST PUSH1 0x1 PUSH0 CALLER PUSH20 0xFFFFFFFFFFFFFFFFFFFFFFFFFFFFFFFFFFFFFFFF AND PUSH20 0xFFFFFFFFFFFFFFFFFFFFFFFFFFFFFFFFFFFFFFFF AND DUP2 MSTORE PUSH1 0x20 ADD SWAP1 DUP2 MSTORE PUSH1 0x20 ADD PUSH0 KECCAK256 PUSH0 SWAP1 SLOAD SWAP1 PUSH2 0x100 EXP SWAP1 DIV PUSH1 0xFF AND PUSH2 0x558 JUMPI PUSH1 0x40 MLOAD PUSH32 0x8C379A000000000000000000000000000000000000000000000000000000000 DUP2 MSTORE PUSH1 0x4 ADD PUSH2 0x54F SWAP1 PUSH2 0x11DA JUMP JUMPDEST PUSH1 0x40 MLOAD DUP1 SWAP2 SUB SWAP1 REVERT JUMPDEST DUP1 PUSH1 0x3 DUP1 SLOAD SWAP1 POP DUP2 LT PUSH2 0x5A0 JUMPI PUSH1 0x40 MLOAD PUSH32 0x8C379A000000000000000000000000000000000000000000000000000000000 DUP2 MSTORE PUSH1 0x4 ADD PUSH2 0x597 SWAP1 PUSH2 0x1598 JUMP JUMPDEST PUSH1 0x40 MLOAD DUP1 SWAP2 SUB SWAP1 REVERT JUMPDEST DUP2 PUSH1 0x3 DUP2 DUP2 SLOAD DUP2 LT PUSH2 0x5B5 JUMPI PUSH2 0x5B4 PUSH2 0x15B6 JUMP JUMPDEST JUMPDEST SWAP1 PUSH0 MSTORE PUSH1 0x20 PUSH0 KECCAK256 SWAP1 PUSH1 0x4 MUL ADD PUSH1 0x3 ADD PUSH0 SWAP1 SLOAD SWAP1 PUSH2 0x100 EXP SWAP1 DIV PUSH1 0xFF AND ISZERO PUSH2 0x611 JUMPI PUSH1 0x40 MLOAD PUSH32 0x8C379A000000000000000000000000000000000000000000000000000000000 DUP2 MSTORE PUSH1 0x4 ADD PUSH2 0x608 SWAP1 PUSH2 0x162D JUMP JUMPDEST PUSH1 0x40 MLOAD DUP1 SWAP2 SUB SWAP1 REVERT JUMPDEST PUSH1 0x4 PUSH0 DUP5 DUP2 MSTORE PUSH1 0x20 ADD SWAP1 DUP2 MSTORE PUSH1 0x20 ADD PUSH0 KECCAK256 PUSH0 CALLER PUSH20 0xFFFFFFFFFFFFFFFFFFFFFFFFFFFFFFFFFFFFFFFF AND PUSH20 0xFFFFFFFFFFFFFFFFFFFFFFFFFFFFFFFFFFFFFFFF AND DUP2 MSTORE PUSH1 0x20 ADD SWAP1 DUP2 MSTORE PUSH1 0x20 ADD PUSH0 KECCAK256 PUSH0 SWAP1 SLOAD SWAP1 PUSH2 0x100 EXP SWAP1 DIV PUSH1 0xFF AND PUSH2 0x6A9 JUMPI PUSH1 0x40 MLOAD PUSH32 0x8C379A000000000000000000000000000000000000000000000000000000000 DUP2 MSTORE PUSH1 0x4 ADD PUSH2 0x6A0 SWAP1 PUSH2 0x1695 JUMP JUMPDEST PUSH1 0x40 MLOAD DUP1 SWAP2 SUB SWAP1 REVERT JUMPDEST PUSH0 PUSH1 0x4 PUSH0 DUP6 DUP2 MSTORE PUSH1 0x20 ADD SWAP1 DUP2 MSTORE PUSH1 0x20 ADD PUSH0 KECCAK256 PUSH0 CALLER PUSH20 0xFFFFFFFFFFFFFFFFFFFFFFFFFFFFFFFFFFFFFFFF AND PUSH20 0xFFFFFFFFFFFFFFFFFFFFFFFFFFFFFFFFFFFFFFFF AND DUP2 MSTORE PUSH1 0x20 ADD SWAP1 DUP2 MSTORE PUSH1 0x20 ADD PUSH0 KECCAK256 PUSH0 PUSH2 0x100 EXP DUP2 SLOAD DUP2 PUSH1 0xFF MUL NOT AND SWAP1 DUP4 ISZERO ISZERO MUL OR SWAP1 SSTORE POP DUP3 CALLER PUSH20 0xFFFFFFFFFFFFFFFFFFFFFFFFFFFFFFFFFFFFFFFF AND PUSH32 0xEC9AB91322523C899EDE7830EC9BFC992B5981CDCC27B91162FB23DE5791117B PUSH1 0x40 MLOAD PUSH1 0x40 MLOAD DUP1 SWAP2 SUB SWAP1 LOG3 POP POP POP JUMP JUMPDEST PUSH1 0x1 PUSH1 0x20 MSTORE DUP1 PUSH0 MSTORE PUSH1 0x40 PUSH0 KECCAK256 PUSH0 SWAP2 POP SLOAD SWAP1 PUSH2 0x100 EXP SWAP1 DIV PUSH1 0xFF AND DUP2 JUMP JUMPDEST PUSH1 0x4 PUSH1 0x20 MSTORE DUP2 PUSH0 MSTORE PUSH1 0x40 PUSH0 KECCAK256 PUSH1 0x20 MSTORE DUP1 PUSH0 MSTORE PUSH1 0x40 PUSH0 KECCAK256 PUSH0 SWAP2 POP SWAP2 POP SWAP1 SLOAD SWAP1 PUSH2 0x100 EXP SWAP1 DIV PUSH1 0xFF AND DUP2 JUMP JUMPDEST PUSH1 0x3 DUP2 DUP2 SLOAD DUP2 LT PUSH2 0x7AB JUMPI PUSH0 DUP1 REVERT JUMPDEST SWAP1 PUSH0 MSTORE PUSH1 0x20 PUSH0 KECCAK256 SWAP1 PUSH1 0x4 MUL ADD PUSH0 SWAP2 POP SWAP1 POP DUP1 PUSH0 ADD PUSH0 SWAP1 SLOAD SWAP1 PUSH2 0x100 EXP SWAP1 DIV PUSH20 0xFFFFFFFFFFFFFFFFFFFFFFFFFFFFFFFFFFFFFFFF AND SWAP1 DUP1 PUSH1 0x1 ADD SLOAD SWAP1 DUP1 PUSH1 0x2 ADD DUP1 SLOAD PUSH2 0x7F5 SWAP1 PUSH2 0x1252 JUMP JUMPDEST DUP1 PUSH1 0x1F ADD PUSH1 0x20 DUP1 SWAP2 DIV MUL PUSH1 0x20 ADD PUSH1 0x40 MLOAD SWAP1 DUP2 ADD PUSH1 0x40 MSTORE DUP1 SWAP3 SWAP2 SWAP1 DUP2 DUP2 MSTORE PUSH1 0x20 ADD DUP3 DUP1 SLOAD PUSH2 0x821 SWAP1 PUSH2 0x1252 JUMP JUMPDEST DUP1 ISZERO PUSH2 0x86C JUMPI DUP1 PUSH1 0x1F LT PUSH2 0x843 JUMPI PUSH2 0x100 DUP1 DUP4 SLOAD DIV MUL DUP4 MSTORE SWAP2 PUSH1 0x20 ADD SWAP2 PUSH2 0x86C JUMP JUMPDEST DUP3 ADD SWAP2 SWAP1 PUSH0 MSTORE PUSH1 0x20 PUSH0 KECCAK256 SWAP1 JUMPDEST DUP2 SLOAD DUP2 MSTORE SWAP1 PUSH1 0x1 ADD SWAP1 PUSH1 0x20 ADD DUP1 DUP4 GT PUSH2 0x84F JUMPI DUP3 SWAP1 SUB PUSH1 0x1F AND DUP3 ADD SWAP2 JUMPDEST POP POP POP POP POP SWAP1 DUP1 PUSH1 0x3 ADD PUSH0 SWAP1 SLOAD SWAP1 PUSH2 0x100 EXP SWAP1 DIV PUSH1 0xFF AND SWAP1 POP DUP5 JUMP JUMPDEST PUSH1 0x1 PUSH0 CALLER PUSH20 0xFFFFFFFFFFFFFFFFFFFFFFFFFFFFFFFFFFFFFFFF AND PUSH20 0xFFFFFFFFFFFFFFFFFFFFFFFFFFFFFFFFFFFFFFFF AND DUP2 MSTORE PUSH1 0x20 ADD SWAP1 DUP2 MSTORE PUSH1 0x20 ADD PUSH0 KECCAK256 PUSH0 SWAP1 SLOAD SWAP1 PUSH2 0x100 EXP SWAP1 DIV PUSH1 0xFF AND PUSH2 0x911 JUMPI PUSH1 0x40 MLOAD PUSH32 0x8C379A000000000000000000000000000000000000000000000000000000000 DUP2 MSTORE PUSH1 0x4 ADD PUSH2 0x908 SWAP1 PUSH2 0x11DA JUMP JUMPDEST PUSH1 0x40 MLOAD DUP1 SWAP2 SUB SWAP1 REVERT JUMPDEST DUP1 PUSH1 0x3 DUP1 SLOAD SWAP1 POP DUP2 LT PUSH2 0x959 JUMPI PUSH1 0x40 MLOAD PUSH32 0x8C379A000000000000000000000000000000000000000000000000000000000 DUP2 MSTORE PUSH1 0x4 ADD PUSH2 0x950 SWAP1 PUSH2 0x1598 JUMP JUMPDEST PUSH1 0x40 MLOAD DUP1 SWAP2 SUB SWAP1 REVERT JUMPDEST DUP2 PUSH1 0x4 PUSH0 DUP3 DUP2 MSTORE PUSH1 0x20 ADD SWAP1 DUP2 MSTORE PUSH1 0x20 ADD PUSH0 KECCAK256 PUSH0 CALLER PUSH20 0xFFFFFFFFFFFFFFFFFFFFFFFFFFFFFFFFFFFFFFFF AND PUSH20 0xFFFFFFFFFFFFFFFFFFFFFFFFFFFFFFFFFFFFFFFF AND DUP2 MSTORE PUSH1 0x20 ADD SWAP1 DUP2 MSTORE PUSH1 0x20 ADD PUSH0 KECCAK256 PUSH0 SWAP1 SLOAD SWAP1 PUSH2 0x100 EXP SWAP1 DIV PUSH1 0xFF AND ISZERO PUSH2 0x9F3 JUMPI PUSH1 0x40 MLOAD PUSH32 0x8C379A000000000000000000000000000000000000000000000000000000000 DUP2 MSTORE PUSH1 0x4 ADD PUSH2 0x9EA SWAP1 PUSH2 0x16FD JUMP JUMPDEST PUSH1 0x40 MLOAD DUP1 SWAP2 SUB SWAP1 REVERT JUMPDEST DUP3 PUSH1 0x3 DUP2 DUP2 SLOAD DUP2 LT PUSH2 0xA08 JUMPI PUSH2 0xA07 PUSH2 0x15B6 JUMP JUMPDEST JUMPDEST SWAP1 PUSH0 MSTORE PUSH1 0x20 PUSH0 KECCAK256 SWAP1 PUSH1 0x4 MUL ADD PUSH1 0x3 ADD PUSH0 SWAP1 SLOAD SWAP1 PUSH2 0x100 EXP SWAP1 DIV PUSH1 0xFF AND ISZERO PUSH2 0xA64 JUMPI PUSH1 0x40 MLOAD PUSH32 0x8C379A000000000000000000000000000000000000000000000000000000000 DUP2 MSTORE PUSH1 0x4 ADD PUSH2 0xA5B SWAP1 PUSH2 0x162D JUMP JUMPDEST PUSH1 0x40 MLOAD DUP1 SWAP2 SUB SWAP1 REVERT JUMPDEST PUSH1 0x1 PUSH1 0x4 PUSH0 DUP7 DUP2 MSTORE PUSH1 0x20 ADD SWAP1 DUP2 MSTORE PUSH1 0x20 ADD PUSH0 KECCAK256 PUSH0 CALLER PUSH20 0xFFFFFFFFFFFFFFFFFFFFFFFFFFFFFFFFFFFFFFFF AND PUSH20 0xFFFFFFFFFFFFFFFFFFFFFFFFFFFFFFFFFFFFFFFF AND DUP2 MSTORE PUSH1 0x20 ADD SWAP1 DUP2 MSTORE PUSH1 0x20 ADD PUSH0 KECCAK256 PUSH0 PUSH2 0x100 EXP DUP2 SLOAD DUP2 PUSH1 0xFF MUL NOT AND SWAP1 DUP4 ISZERO ISZERO MUL OR SWAP1 SSTORE POP DUP4 CALLER PUSH20 0xFFFFFFFFFFFFFFFFFFFFFFFFFFFFFFFFFFFFFFFF AND PUSH32 0x90EC57F18FA7B15C6B8D5E4D1DEB90796C74B2FF23D4D0CECAD0CB42A96B3128 PUSH1 0x40 MLOAD PUSH1 0x40 MLOAD DUP1 SWAP2 SUB SWAP1 LOG3 POP POP POP POP JUMP JUMPDEST PUSH1 0x2 SLOAD DUP2 JUMP JUMPDEST DUP1 PUSH1 0x3 DUP1 SLOAD SWAP1 POP DUP2 LT PUSH2 0xB60 JUMPI PUSH1 0x40 MLOAD PUSH32 0x8C379A000000000000000000000000000000000000000000000000000000000 DUP2 MSTORE PUSH1 0x4 ADD PUSH2 0xB57 SWAP1 PUSH2 0x1598 JUMP JUMPDEST PUSH1 0x40 MLOAD DUP1 SWAP2 SUB SWAP1 REVERT JUMPDEST DUP2 PUSH1 0x3 DUP2 DUP2 SLOAD DUP2 LT PUSH2 0xB75 JUMPI PUSH2 0xB74 PUSH2 0x15B6 JUMP JUMPDEST JUMPDEST SWAP1 PUSH0 MSTORE PUSH1 0x20 PUSH0 KECCAK256 SWAP1 PUSH1 0x4 MUL ADD PUSH1 0x3 ADD PUSH0 SWAP1 SLOAD SWAP1 PUSH2 0x100 EXP SWAP1 DIV PUSH1 0xFF AND ISZERO PUSH2 0xBD1 JUMPI PUSH1 0x40 MLOAD PUSH32 0x8C379A000000000000000000000000000000000000000000000000000000000 DUP2 MSTORE PUSH1 0x4 ADD PUSH2 0xBC8 SWAP1 PUSH2 0x162D JUMP JUMPDEST PUSH1 0x40 MLOAD DUP1 SWAP2 SUB SWAP1 REVERT JUMPDEST PUSH1 0x2 SLOAD PUSH2 0xBDD DUP5 PUSH2 0xD64 JUMP JUMPDEST GT ISZERO PUSH2 0xC1E JUMPI PUSH1 0x40 MLOAD PUSH32 0x8C379A000000000000000000000000000000000000000000000000000000000 DUP2 MSTORE PUSH1 0x4 ADD PUSH2 0xC15 SWAP1 PUSH2 0x1765 JUMP JUMPDEST PUSH1 0x40 MLOAD DUP1 SWAP2 SUB SWAP1 REVERT JUMPDEST PUSH0 PUSH1 0x3 DUP5 DUP2 SLOAD DUP2 LT PUSH2 0xC33 JUMPI PUSH2 0xC32 PUSH2 0x15B6 JUMP JUMPDEST JUMPDEST SWAP1 PUSH0 MSTORE PUSH1 0x20 PUSH0 KECCAK256 SWAP1 PUSH1 0x4 MUL ADD SWAP1 POP PUSH1 0x1 DUP2 PUSH1 0x3 ADD PUSH0 PUSH2 0x100 EXP DUP2 SLOAD DUP2 PUSH1 0xFF MUL NOT AND SWAP1 DUP4 ISZERO ISZERO MUL OR SWAP1 SSTORE POP PUSH0 DUP2 PUSH0 ADD PUSH0 SWAP1 SLOAD SWAP1 PUSH2 0x100 EXP SWAP1 DIV PUSH20 0xFFFFFFFFFFFFFFFFFFFFFFFFFFFFFFFFFFFFFFFF AND PUSH20 0xFFFFFFFFFFFFFFFFFFFFFFFFFFFFFFFFFFFFFFFF AND DUP3 PUSH1 0x1 ADD SLOAD DUP4 PUSH1 0x2 ADD PUSH1 0x40 MLOAD PUSH2 0xCAD SWAP2 SWAP1 PUSH2 0x180D JUMP JUMPDEST PUSH0 PUSH1 0x40 MLOAD DUP1 DUP4 SUB DUP2 DUP6 DUP8 GAS CALL SWAP3 POP POP POP RETURNDATASIZE DUP1 PUSH0 DUP2 EQ PUSH2 0xCE7 JUMPI PUSH1 0x40 MLOAD SWAP2 POP PUSH1 0x1F NOT PUSH1 0x3F RETURNDATASIZE ADD AND DUP3 ADD PUSH1 0x40 MSTORE RETURNDATASIZE DUP3 MSTORE RETURNDATASIZE PUSH0 PUSH1 0x20 DUP5 ADD RETURNDATACOPY PUSH2 0xCEC JUMP JUMPDEST PUSH1 0x60 SWAP2 POP JUMPDEST POP POP SWAP1 POP DUP1 PUSH2 0xD30 JUMPI PUSH1 0x40 MLOAD PUSH32 0x8C379A000000000000000000000000000000000000000000000000000000000 DUP2 MSTORE PUSH1 0x4 ADD PUSH2 0xD27 SWAP1 PUSH2 0x186D JUMP JUMPDEST PUSH1 0x40 MLOAD DUP1 SWAP2 SUB SWAP1 REVERT JUMPDEST DUP5 PUSH32 0xDDB556F1D2C1EC821E910B019D3685B229DB152A0ECD517CA7E24B8BD7139289 PUSH1 0x40 MLOAD PUSH1 0x40 MLOAD DUP1 SWAP2 SUB SWAP1 LOG2 POP POP POP POP POP JUMP JUMPDEST PUSH0 DUP1 JUMPDEST PUSH0 DUP1 SLOAD SWAP1 POP DUP2 LT ISZERO PUSH2 0xE28 JUMPI PUSH1 0x4 PUSH0 DUP5 DUP2 MSTORE PUSH1 0x20 ADD SWAP1 DUP2 MSTORE PUSH1 0x20 ADD PUSH0 KECCAK256 PUSH0 DUP1 DUP4 DUP2 SLOAD DUP2 LT PUSH2 0xD98 JUMPI PUSH2 0xD97 PUSH2 0x15B6 JUMP JUMPDEST JUMPDEST SWAP1 PUSH0 MSTORE PUSH1 0x20 PUSH0 KECCAK256 ADD PUSH0 SWAP1 SLOAD SWAP1 PUSH2 0x100 EXP SWAP1 DIV PUSH20 0xFFFFFFFFFFFFFFFFFFFFFFFFFFFFFFFFFFFFFFFF AND PUSH20 0xFFFFFFFFFFFFFFFFFFFFFFFFFFFFFFFFFFFFFFFF AND PUSH20 0xFFFFFFFFFFFFFFFFFFFFFFFFFFFFFFFFFFFFFFFF AND DUP2 MSTORE PUSH1 0x20 ADD SWAP1 DUP2 MSTORE PUSH1 0x20 ADD PUSH0 KECCAK256 PUSH0 SWAP1 SLOAD SWAP1 PUSH2 0x100 EXP SWAP1 DIV PUSH1 0xFF AND ISZERO PUSH2 0xE1B JUMPI PUSH1 0x1 DUP3 PUSH2 0xE18 SWAP2 SWAP1 PUSH2 0x188B JUMP JUMPDEST SWAP2 POP JUMPDEST DUP1 DUP1 PUSH1 0x1 ADD SWAP2 POP POP PUSH2 0xD67 JUMP JUMPDEST POP SWAP2 SWAP1 POP JUMP JUMPDEST PUSH0 DUP2 SWAP1 POP SWAP2 SWAP1 POP JUMP JUMPDEST PUSH2 0xE40 DUP2 PUSH2 0xE2E JUMP JUMPDEST DUP3 MSTORE POP POP JUMP JUMPDEST PUSH0 PUSH1 0x20 DUP3 ADD SWAP1 POP PUSH2 0xE59 PUSH0 DUP4 ADD DUP5 PUSH2 0xE37 JUMP JUMPDEST SWAP3 SWAP2 POP POP JUMP JUMPDEST PUSH0 DUP1 REVERT JUMPDEST PUSH0 DUP1 REVERT JUMPDEST PUSH2 0xE70 DUP2 PUSH2 0xE2E JUMP JUMPDEST DUP2 EQ PUSH2 0xE7A JUMPI PUSH0 DUP1 REVERT JUMPDEST POP JUMP JUMPDEST PUSH0 DUP2 CALLDATALOAD SWAP1 POP PUSH2 0xE8B DUP2 PUSH2 0xE67 JUMP JUMPDEST SWAP3 SWAP2 POP POP JUMP JUMPDEST PUSH0 PUSH1 0x20 DUP3 DUP5 SUB SLT ISZERO PUSH2 0xEA6 JUMPI PUSH2 0xEA5 PUSH2 0xE5F JUMP JUMPDEST JUMPDEST PUSH0 PUSH2 0xEB3 DUP5 DUP3 DUP6 ADD PUSH2 0xE7D JUMP JUMPDEST SWAP2 POP POP SWAP3 SWAP2 POP POP JUMP JUMPDEST PUSH0 PUSH20 0xFFFFFFFFFFFFFFFFFFFFFFFFFFFFFFFFFFFFFFFF DUP3 AND SWAP1 POP SWAP2 SWAP1 POP JUMP JUMPDEST PUSH0 PUSH2 0xEE5 DUP3 PUSH2 0xEBC JUMP JUMPDEST SWAP1 POP SWAP2 SWAP1 POP JUMP JUMPDEST PUSH2 0xEF5 DUP2 PUSH2 0xEDB JUMP JUMPDEST DUP3 MSTORE POP POP JUMP JUMPDEST PUSH0 PUSH1 0x20 DUP3 ADD SWAP1 POP PUSH2 0xF0E PUSH0 DUP4 ADD DUP5 PUSH2 0xEEC JUMP JUMPDEST SWAP3 SWAP2 POP POP JUMP JUMPDEST PUSH2 0xF1D DUP2 PUSH2 0xEDB JUMP JUMPDEST DUP2 EQ PUSH2 0xF27 JUMPI PUSH0 DUP1 REVERT JUMPDEST POP JUMP JUMPDEST PUSH0 DUP2 CALLDATALOAD SWAP1 POP PUSH2 0xF38 DUP2 PUSH2 0xF14 JUMP JUMPDEST SWAP3 SWAP2 POP POP JUMP JUMPDEST PUSH0 DUP1 REVERT JUMPDEST PUSH0 DUP1 REVERT JUMPDEST PUSH0 DUP1 REVERT JUMPDEST PUSH0 DUP1 DUP4 PUSH1 0x1F DUP5 ADD SLT PUSH2 0xF5F JUMPI PUSH2 0xF5E PUSH2 0xF3E JUMP JUMPDEST JUMPDEST DUP3 CALLDATALOAD SWAP1 POP PUSH8 0xFFFFFFFFFFFFFFFF DUP2 GT ISZERO PUSH2 0xF7C JUMPI PUSH2 0xF7B PUSH2 0xF42 JUMP JUMPDEST JUMPDEST PUSH1 0x20 DUP4 ADD SWAP2 POP DUP4 PUSH1 0x1 DUP3 MUL DUP4 ADD GT ISZERO PUSH2 0xF98 JUMPI PUSH2 0xF97 PUSH2 0xF46 JUMP JUMPDEST JUMPDEST SWAP3 POP SWAP3 SWAP1 POP JUMP JUMPDEST PUSH0 DUP1 PUSH0 DUP1 PUSH1 0x60 DUP6 DUP8 SUB SLT ISZERO PUSH2 0xFB7 JUMPI PUSH2 0xFB6 PUSH2 0xE5F JUMP JUMPDEST JUMPDEST PUSH0 PUSH2 0xFC4 DUP8 DUP3 DUP9 ADD PUSH2 0xF2A JUMP JUMPDEST SWAP5 POP POP PUSH1 0x20 PUSH2 0xFD5 DUP8 DUP3 DUP9 ADD PUSH2 0xE7D JUMP JUMPDEST SWAP4 POP POP PUSH1 0x40 DUP6 ADD CALLDATALOAD PUSH8 0xFFFFFFFFFFFFFFFF DUP2 GT ISZERO PUSH2 0xFF6 JUMPI PUSH2 0xFF5 PUSH2 0xE63 JUMP JUMPDEST JUMPDEST PUSH2 0x1002 DUP8 DUP3 DUP9 ADD PUSH2 0xF4A JUMP JUMPDEST SWAP3 POP SWAP3 POP POP SWAP3 SWAP6 SWAP2 SWAP5 POP SWAP3 POP JUMP JUMPDEST PUSH0 PUSH1 0x20 DUP3 DUP5 SUB SLT ISZERO PUSH2 0x1025 JUMPI PUSH2 0x1024 PUSH2 0xE5F JUMP JUMPDEST JUMPDEST PUSH0 PUSH2 0x1032 DUP5 DUP3 DUP6 ADD PUSH2 0xF2A JUMP JUMPDEST SWAP2 POP POP SWAP3 SWAP2 POP POP JUMP JUMPDEST PUSH0 DUP2 ISZERO ISZERO SWAP1 POP SWAP2 SWAP1 POP JUMP JUMPDEST PUSH2 0x104F DUP2 PUSH2 0x103B JUMP JUMPDEST DUP3 MSTORE POP POP JUMP JUMPDEST PUSH0 PUSH1 0x20 DUP3 ADD SWAP1 POP PUSH2 0x1068 PUSH0 DUP4 ADD DUP5 PUSH2 0x1046 JUMP JUMPDEST SWAP3 SWAP2 POP POP JUMP JUMPDEST PUSH0 DUP1 PUSH1 0x40 DUP4 DUP6 SUB SLT ISZERO PUSH2 0x1084 JUMPI PUSH2 0x1083 PUSH2 0xE5F JUMP JUMPDEST JUMPDEST PUSH0 PUSH2 0x1091 DUP6 DUP3 DUP7 ADD PUSH2 0xE7D JUMP JUMPDEST SWAP3 POP POP PUSH1 0x20 PUSH2 0x10A2 DUP6 DUP3 DUP7 ADD PUSH2 0xF2A JUMP JUMPDEST SWAP2 POP POP SWAP3 POP SWAP3 SWAP1 POP JUMP JUMPDEST PUSH0 DUP2 MLOAD SWAP1 POP SWAP2 SWAP1 POP JUMP JUMPDEST PUSH0 DUP3 DUP3 MSTORE PUSH1 0x20 DUP3 ADD SWAP1 POP SWAP3 SWAP2 POP POP JUMP JUMPDEST PUSH0 JUMPDEST DUP4 DUP2 LT ISZERO PUSH2 0x10E3 JUMPI DUP1 DUP3 ADD MLOAD DUP2 DUP5 ADD MSTORE PUSH1 0x20 DUP2 ADD SWAP1 POP PUSH2 0x10C8 JUMP JUMPDEST PUSH0 DUP5 DUP5 ADD MSTORE POP POP POP POP JUMP JUMPDEST PUSH0 PUSH1 0x1F NOT PUSH1 0x1F DUP4 ADD AND SWAP1 POP SWAP2 SWAP1 POP JUMP JUMPDEST PUSH0 PUSH2 0x1108 DUP3 PUSH2 0x10AC JUMP JUMPDEST PUSH2 0x1112 DUP2 DUP6 PUSH2 0x10B6 JUMP JUMPDEST SWAP4 POP PUSH2 0x1122 DUP2 DUP6 PUSH1 0x20 DUP7 ADD PUSH2 0x10C6 JUMP JUMPDEST PUSH2 0x112B DUP2 PUSH2 0x10EE JUMP JUMPDEST DUP5 ADD SWAP2 POP POP SWAP3 SWAP2 POP POP JUMP JUMPDEST PUSH0 PUSH1 0x80 DUP3 ADD SWAP1 POP PUSH2 0x1149 PUSH0 DUP4 ADD DUP8 PUSH2 0xEEC JUMP JUMPDEST PUSH2 0x1156 PUSH1 0x20 DUP4 ADD DUP7 PUSH2 0xE37 JUMP JUMPDEST DUP2 DUP2 SUB PUSH1 0x40 DUP4 ADD MSTORE PUSH2 0x1168 DUP2 DUP6 PUSH2 0x10FE JUMP JUMPDEST SWAP1 POP PUSH2 0x1177 PUSH1 0x60 DUP4 ADD DUP5 PUSH2 0x1046 JUMP JUMPDEST SWAP6 SWAP5 POP POP POP POP POP JUMP JUMPDEST PUSH0 DUP3 DUP3 MSTORE PUSH1 0x20 DUP3 ADD SWAP1 POP SWAP3 SWAP2 POP POP JUMP JUMPDEST PUSH32 0x6E6F74206F776E65720000000000000000000000000000000000000000000000 PUSH0 DUP3 ADD MSTORE POP JUMP JUMPDEST PUSH0 PUSH2 0x11C4 PUSH1 0x9 DUP4 PUSH2 0x1180 JUMP JUMPDEST SWAP2 POP PUSH2 0x11CF DUP3 PUSH2 0x1190 JUMP JUMPDEST PUSH1 0x20 DUP3 ADD SWAP1 POP SWAP2 SWAP1 POP JUMP JUMPDEST PUSH0 PUSH1 0x20 DUP3 ADD SWAP1 POP DUP2 DUP2 SUB PUSH0 DUP4 ADD MSTORE PUSH2 0x11F1 DUP2 PUSH2 0x11B8 JUMP JUMPDEST SWAP1 POP SWAP2 SWAP1 POP JUMP JUMPDEST PUSH32 0x4E487B7100000000000000000000000000000000000000000000000000000000 PUSH0 MSTORE PUSH1 0x41 PUSH1 0x4 MSTORE PUSH1 0x24 PUSH0 REVERT JUMPDEST PUSH32 0x4E487B7100000000000000000000000000000000000000000000000000000000 PUSH0 MSTORE PUSH1 0x22 PUSH1 0x4 MSTORE PUSH1 0x24 PUSH0 REVERT JUMPDEST PUSH0 PUSH1 0x2 DUP3 DIV SWAP1 POP PUSH1 0x1 DUP3 AND DUP1 PUSH2 0x1269 JUMPI PUSH1 0x7F DUP3 AND SWAP2 POP JUMPDEST PUSH1 0x20 DUP3 LT DUP2 SUB PUSH2 0x127C JUMPI PUSH2 0x127B PUSH2 0x1225 JUMP JUMPDEST JUMPDEST POP SWAP2 SWAP1 POP JUMP JUMPDEST PUSH0 DUP2 SWAP1 POP DUP2 PUSH0 MSTORE PUSH1 0x20 PUSH0 KECCAK256 SWAP1 POP SWAP2 SWAP1 POP JUMP JUMPDEST PUSH0 PUSH1 0x20 PUSH1 0x1F DUP4 ADD DIV SWAP1 POP SWAP2 SWAP1 POP JUMP JUMPDEST PUSH0 DUP3 DUP3 SHL SWAP1 POP SWAP3 SWAP2 POP POP JUMP JUMPDEST PUSH0 PUSH1 0x8 DUP4 MUL PUSH2 0x12DE PUSH32 0xFFFFFFFFFFFFFFFFFFFFFFFFFFFFFFFFFFFFFFFFFFFFFFFFFFFFFFFFFFFFFFFF DUP3 PUSH2 0x12A3 JUMP JUMPDEST PUSH2 0x12E8 DUP7 DUP4 PUSH2 0x12A3 JUMP JUMPDEST SWAP6 POP DUP1 NOT DUP5 AND SWAP4 POP DUP1 DUP7 AND DUP5 OR SWAP3 POP POP POP SWAP4 SWAP3 POP POP POP JUMP JUMPDEST PUSH0 DUP2 SWAP1 POP SWAP2 SWAP1 POP JUMP JUMPDEST PUSH0 PUSH2 0x1323 PUSH2 0x131E PUSH2 0x1319 DUP5 PUSH2 0xE2E JUMP JUMPDEST PUSH2 0x1300 JUMP JUMPDEST PUSH2 0xE2E JUMP JUMPDEST SWAP1 POP SWAP2 SWAP1 POP JUMP JUMPDEST PUSH0 DUP2 SWAP1 POP SWAP2 SWAP1 POP JUMP JUMPDEST PUSH2 0x133C DUP4 PUSH2 0x1309 JUMP JUMPDEST PUSH2 0x1350 PUSH2 0x1348 DUP3 PUSH2 0x132A JUMP JUMPDEST DUP5 DUP5 SLOAD PUSH2 0x12AF JUMP JUMPDEST DUP3 SSTORE POP POP POP POP JUMP JUMPDEST PUSH0 SWAP1 JUMP JUMPDEST PUSH2 0x1364 PUSH2 0x1358 JUMP JUMPDEST PUSH2 0x136F DUP2 DUP5 DUP5 PUSH2 0x1333 JUMP JUMPDEST POP POP POP JUMP JUMPDEST JUMPDEST DUP2 DUP2 LT ISZERO PUSH2 0x1392 JUMPI PUSH2 0x1387 PUSH0 DUP3 PUSH2 0x135C JUMP JUMPDEST PUSH1 0x1 DUP2 ADD SWAP1 POP PUSH2 0x1375 JUMP JUMPDEST POP POP JUMP JUMPDEST PUSH1 0x1F DUP3 GT ISZERO PUSH2 0x13D7 JUMPI PUSH2 0x13A8 DUP2 PUSH2 0x1282 JUMP JUMPDEST PUSH2 0x13B1 DUP5 PUSH2 0x1294 JUMP JUMPDEST DUP2 ADD PUSH1 0x20 DUP6 LT ISZERO PUSH2 0x13C0 JUMPI DUP2 SWAP1 POP JUMPDEST PUSH2 0x13D4 PUSH2 0x13CC DUP6 PUSH2 0x1294 JUMP JUMPDEST DUP4 ADD DUP3 PUSH2 0x1374 JUMP JUMPDEST POP POP JUMPDEST POP POP POP JUMP JUMPDEST PUSH0 DUP3 DUP3 SHR SWAP1 POP SWAP3 SWAP2 POP POP JUMP JUMPDEST PUSH0 PUSH2 0x13F7 PUSH0 NOT DUP5 PUSH1 0x8 MUL PUSH2 0x13DC JUMP JUMPDEST NOT DUP1 DUP4 AND SWAP2 POP POP SWAP3 SWAP2 POP POP JUMP JUMPDEST PUSH0 PUSH2 0x140F DUP4 DUP4 PUSH2 0x13E8 JUMP JUMPDEST SWAP2 POP DUP3 PUSH1 0x2 MUL DUP3 OR SWAP1 POP SWAP3 SWAP2 POP POP JUMP JUMPDEST PUSH2 0x1428 DUP3 PUSH2 0x10AC JUMP JUMPDEST PUSH8 0xFFFFFFFFFFFFFFFF DUP2 GT ISZERO PUSH2 0x1441 JUMPI PUSH2 0x1440 PUSH2 0x11F8 JUMP JUMPDEST JUMPDEST PUSH2 0x144B DUP3 SLOAD PUSH2 0x1252 JUMP JUMPDEST PUSH2 0x1456 DUP3 DUP3 DUP6 PUSH2 0x1396 JUMP JUMPDEST PUSH0 PUSH1 0x20 SWAP1 POP PUSH1 0x1F DUP4 GT PUSH1 0x1 DUP2 EQ PUSH2 0x1487 JUMPI PUSH0 DUP5 ISZERO PUSH2 0x1475 JUMPI DUP3 DUP8 ADD MLOAD SWAP1 POP JUMPDEST PUSH2 0x147F DUP6 DUP3 PUSH2 0x1404 JUMP JUMPDEST DUP7 SSTORE POP PUSH2 0x14E6 JUMP JUMPDEST PUSH1 0x1F NOT DUP5 AND PUSH2 0x1495 DUP7 PUSH2 0x1282 JUMP JUMPDEST PUSH0 JUMPDEST DUP3 DUP2 LT ISZERO PUSH2 0x14BC JUMPI DUP5 DUP10 ADD MLOAD DUP3 SSTORE PUSH1 0x1 DUP3 ADD SWAP2 POP PUSH1 0x20 DUP6 ADD SWAP5 POP PUSH1 0x20 DUP2 ADD SWAP1 POP PUSH2 0x1497 JUMP JUMPDEST DUP7 DUP4 LT ISZERO PUSH2 0x14D9 JUMPI DUP5 DUP10 ADD MLOAD PUSH2 0x14D5 PUSH1 0x1F DUP10 AND DUP3 PUSH2 0x13E8 JUMP JUMPDEST DUP4 SSTORE POP JUMPDEST PUSH1 0x1 PUSH1 0x2 DUP9 MUL ADD DUP9 SSTORE POP POP POP JUMPDEST POP POP POP POP POP POP JUMP JUMPDEST PUSH32 0x4E487B7100000000000000000000000000000000000000000000000000000000 PUSH0 MSTORE PUSH1 0x11 PUSH1 0x4 MSTORE PUSH1 0x24 PUSH0 REVERT JUMPDEST PUSH0 PUSH2 0x1525 DUP3 PUSH2 0xE2E JUMP JUMPDEST SWAP2 POP PUSH2 0x1530 DUP4 PUSH2 0xE2E JUMP JUMPDEST SWAP3 POP DUP3 DUP3 SUB SWAP1 POP DUP2 DUP2 GT ISZERO PUSH2 0x1548 JUMPI PUSH2 0x1547 PUSH2 0x14EE JUMP JUMPDEST JUMPDEST SWAP3 SWAP2 POP POP JUMP JUMPDEST PUSH32 0x747820646F6573206E6F74206578697374000000000000000000000000000000 PUSH0 DUP3 ADD MSTORE POP JUMP JUMPDEST PUSH0 PUSH2 0x1582 PUSH1 0x11 DUP4 PUSH2 0x1180 JUMP JUMPDEST SWAP2 POP PUSH2 0x158D DUP3 PUSH2 0x154E JUMP JUMPDEST PUSH1 0x20 DUP3 ADD SWAP1 POP SWAP2 SWAP1 POP JUMP JUMPDEST PUSH0 PUSH1 0x20 DUP3 ADD SWAP1 POP DUP2 DUP2 SUB PUSH0 DUP4 ADD MSTORE PUSH2 0x15AF DUP2 PUSH2 0x1576 JUMP JUMPDEST SWAP1 POP SWAP2 SWAP1 POP JUMP JUMPDEST PUSH32 0x4E487B7100000000000000000000000000000000000000000000000000000000 PUSH0 MSTORE PUSH1 0x32 PUSH1 0x4 MSTORE PUSH1 0x24 PUSH0 REVERT JUMPDEST PUSH32 0x747820616C726561647920657865637574656400000000000000000000000000 PUSH0 DUP3 ADD MSTORE POP JUMP JUMPDEST PUSH0 PUSH2 0x1617 PUSH1 0x13 DUP4 PUSH2 0x1180 JUMP JUMPDEST SWAP2 POP PUSH2 0x1622 DUP3 PUSH2 0x15E3 JUMP JUMPDEST PUSH1 0x20 DUP3 ADD SWAP1 POP SWAP2 SWAP1 POP JUMP JUMPDEST PUSH0 PUSH1 0x20 DUP3 ADD SWAP1 POP DUP2 DUP2 SUB PUSH0 DUP4 ADD MSTORE PUSH2 0x1644 DUP2 PUSH2 0x160B JUMP JUMPDEST SWAP1 POP SWAP2 SWAP1 POP JUMP JUMPDEST PUSH32 0x7478206E6F7420617070726F7665640000000000000000000000000000000000 PUSH0 DUP3 ADD MSTORE POP JUMP JUMPDEST PUSH0 PUSH2 0x167F PUSH1 0xF DUP4 PUSH2 0x1180 JUMP JUMPDEST SWAP2 POP PUSH2 0x168A DUP3 PUSH2 0x164B JUMP JUMPDEST PUSH1 0x20 DUP3 ADD SWAP1 POP SWAP2 SWAP1 POP JUMP JUMPDEST PUSH0 PUSH1 0x20 DUP3 ADD SWAP1 POP DUP2 DUP2 SUB PUSH0 DUP4 ADD MSTORE PUSH2 0x16AC DUP2 PUSH2 0x1673 JUMP JUMPDEST SWAP1 POP SWAP2 SWAP1 POP JUMP JUMPDEST PUSH32 0x747820616C726561647920617070726F76656400000000000000000000000000 PUSH0 DUP3 ADD MSTORE POP JUMP JUMPDEST PUSH0 PUSH2 0x16E7 PUSH1 0x13 DUP4 PUSH2 0x1180 JUMP JUMPDEST SWAP2 POP PUSH2 0x16F2 DUP3 PUSH2 0x16B3 JUMP JUMPDEST PUSH1 0x20 DUP3 ADD SWAP1 POP SWAP2 SWAP1 POP JUMP JUMPDEST PUSH0 PUSH1 0x20 DUP3 ADD SWAP1 POP DUP2 DUP2 SUB PUSH0 DUP4 ADD MSTORE PUSH2 0x1714 DUP2 PUSH2 0x16DB JUMP JUMPDEST SWAP1 POP SWAP2 SWAP1 POP JUMP JUMPDEST PUSH32 0x617070726F76616C73203C207265717569726564000000000000000000000000 PUSH0 DUP3 ADD MSTORE POP JUMP JUMPDEST PUSH0 PUSH2 0x174F PUSH1 0x14 DUP4 PUSH2 0x1180 JUMP JUMPDEST SWAP2 POP PUSH2 0x175A DUP3 PUSH2 0x171B JUMP JUMPDEST PUSH1 0x20 DUP3 ADD SWAP1 POP SWAP2 SWAP1 POP JUMP JUMPDEST PUSH0 PUSH1 0x20 DUP3 ADD SWAP1 POP DUP2 DUP2 SUB PUSH0 DUP4 ADD MSTORE PUSH2 0x177C DUP2 PUSH2 0x1743 JUMP JUMPDEST SWAP1 POP SWAP2 SWAP1 POP JUMP JUMPDEST PUSH0 DUP2 SWAP1 POP SWAP3 SWAP2 POP POP JUMP JUMPDEST PUSH0 DUP2 SLOAD PUSH2 0x1799 DUP2 PUSH2 0x1252 JUMP JUMPDEST PUSH2 0x17A3 DUP2 DUP7 PUSH2 0x1783 JUMP JUMPDEST SWAP5 POP PUSH1 0x1 DUP3 AND PUSH0 DUP2 EQ PUSH2 0x17BD JUMPI PUSH1 0x1 DUP2 EQ PUSH2 0x17D2 JUMPI PUSH2 0x1804 JUMP JUMPDEST PUSH1 0xFF NOT DUP4 AND DUP7 MSTORE DUP2 ISZERO ISZERO DUP3 MUL DUP7 ADD SWAP4 POP PUSH2 0x1804 JUMP JUMPDEST PUSH2 0x17DB DUP6 PUSH2 0x1282 JUMP JUMPDEST PUSH0 JUMPDEST DUP4 DUP2 LT ISZERO PUSH2 0x17FC JUMPI DUP2 SLOAD DUP2 DUP10 ADD MSTORE PUSH1 0x1 DUP3 ADD SWAP2 POP PUSH1 0x20 DUP2 ADD SWAP1 POP PUSH2 0x17DD JUMP JUMPDEST DUP4 DUP9 ADD SWAP6 POP POP POP JUMPDEST POP POP POP SWAP3 SWAP2 POP POP JUMP JUMPDEST PUSH0 PUSH2 0x1818 DUP3 DUP5 PUSH2 0x178D JUMP JUMPDEST SWAP2 POP DUP2 SWAP1 POP SWAP3 SWAP2 POP POP JUMP JUMPDEST PUSH32 0x7478206661696C65640000000000000000000000000000000000000000000000 PUSH0 DUP3 ADD MSTORE POP JUMP JUMPDEST PUSH0 PUSH2 0x1857 PUSH1 0x9 DUP4 PUSH2 0x1180 JUMP JUMPDEST SWAP2 POP PUSH2 0x1862 DUP3 PUSH2 0x1823 JUMP JUMPDEST PUSH1 0x20 DUP3 ADD SWAP1 POP SWAP2 SWAP1 POP JUMP JUMPDEST PUSH0 PUSH1 0x20 DUP3 ADD SWAP1 POP DUP2 DUP2 SUB PUSH0 DUP4 ADD MSTORE PUSH2 0x1884 DUP2 PUSH2 0x184B JUMP JUMPDEST SWAP1 POP SWAP2 SWAP1 POP JUMP JUMPDEST PUSH0 PUSH2 0x1895 DUP3 PUSH2 0xE2E JUMP JUMPDEST SWAP2 POP PUSH2 0x18A0 DUP4 PUSH2 0xE2E JUMP JUMPDEST SWAP3 POP DUP3 DUP3 ADD SWAP1 POP DUP1 DUP3 GT ISZERO PUSH2 0x18B8 JUMPI PUSH2 0x18B7 PUSH2 0x14EE JUMP JUMPDEST JUMPDEST SWAP3 SWAP2 POP POP JUMP INVALID LOG2 PUSH5 0x6970667358 0x22 SLT KECCAK256 PUSH20 0xD1A9C4892BD90A068E25BE8C938FDCB7C1DFC49A 0xB5 PUSH8 0x549A951F0AA59E78 BYTE PUSH5 0x736F6C6343 STOP ADDMOD OR STOP CALLER "
				},
				"gasEstimates": {
					"creation": {
						"codeDepositCost": "1277600",
						"executionCost": "infinite",
						"totalCost": "infinite"
					},
					"external": {
						"approve(uint256)": "37465",
						"approved(uint256,address)": "3071",
						"execute(uint256)": "infinite",
						"isOwner(address)": "2900",
						"owners(uint256)": "4944",
						"required()": "2491",
						"revoke(uint256)": "37457",
						"submit(address,uint256,bytes)": "infinite",
						"transactions(uint256)": "infinite"
					},
					"internal": {
						"_getApprovalCount(uint256)": "infinite"
					}
				},
				"methodIdentifiers": {
					"approve(uint256)": "b759f954",
					"approved(uint256,address)": "8253951a",
					"execute(uint256)": "fe0d94c1",
					"isOwner(address)": "2f54bf6e",
					"owners(uint256)": "025e7c27",
					"required()": "dc8452cd",
					"revoke(uint256)": "20c5429b",
					"submit(address,uint256,bytes)": "14de327f",
					"transactions(uint256)": "9ace38c2"
				}
			},
			"storageLayout": {
				"storage": [
					{
						"astId": 39,
						"contract": "tests/MultiSigWallet.sol:MultiSigWallet",
						"label": "owners",
						"offset": 0,
						"slot": "0",
						"type": "t_array(t_address)dyn_storage"
					},
					{
						"astId": 43,
						"contract": "tests/MultiSigWallet.sol:MultiSigWallet",
						"label": "isOwner",
						"offset": 0,
						"slot": "1",
						"type": "t_mapping(t_address,t_bool)"
					},
					{
						"astId": 45,
						"contract": "tests/MultiSigWallet.sol:MultiSigWallet",
						"label": "required",
						"offset": 0,
						"slot": "2",
						"type": "t_uint256"
					},
					{
						"astId": 49,
						"contract": "tests/MultiSigWallet.sol:MultiSigWallet",
						"label": "transactions",
						"offset": 0,
						"slot": "3",
						"type": "t_array(t_struct(Transaction)36_storage)dyn_storage"
					},
					{
						"astId": 55,
						"contract": "tests/MultiSigWallet.sol:MultiSigWallet",
						"label": "approved",
						"offset": 0,
						"slot": "4",
						"type": "t_mapping(t_uint256,t_mapping(t_address,t_bool))"
					}
				],
				"types": {
					"t_address": {
						"encoding": "inplace",
						"label": "address",
						"numberOfBytes": "20"
					},
					"t_array(t_address)dyn_storage": {
						"base": "t_address",
						"encoding": "dynamic_array",
						"label": "address[]",
						"numberOfBytes": "32"
					},
					"t_array(t_struct(Transaction)36_storage)dyn_storage": {
						"base": "t_struct(Transaction)36_storage",
						"encoding": "dynamic_array",
						"label": "struct MultiSigWallet.Transaction[]",
						"numberOfBytes": "32"
					},
					"t_bool": {
						"encoding": "inplace",
						"label": "bool",
						"numberOfBytes": "1"
					},
					"t_bytes_storage": {
						"encoding": "bytes",
						"label": "bytes",
						"numberOfBytes": "32"
					},
					"t_mapping(t_address,t_bool)": {
						"encoding": "mapping",
						"key": "t_address",
						"label": "mapping(address => bool)",
						"numberOfBytes": "32",
						"value": "t_bool"
					},
					"t_mapping(t_uint256,t_mapping(t_address,t_bool))": {
						"encoding": "mapping",
						"key": "t_uint256",
						"label": "mapping(uint256 => mapping(address => bool))",
						"numberOfBytes": "32",
						"value": "t_mapping(t_address,t_bool)"
					},
					"t_struct(Transaction)36_storage": {
						"encoding": "inplace",
						"label": "struct MultiSigWallet.Transaction",
						"members": [
							{
								"astId": 29,
								"contract": "tests/MultiSigWallet.sol:MultiSigWallet",
								"label": "to",
								"offset": 0,
								"slot": "0",
								"type": "t_address"
							},
							{
								"astId": 31,
								"contract": "tests/MultiSigWallet.sol:MultiSigWallet",
								"label": "value",
								"offset": 0,
								"slot": "1",
								"type": "t_uint256"
							},
							{
								"astId": 33,
								"contract": "tests/MultiSigWallet.sol:MultiSigWallet",
								"label": "data",
								"offset": 0,
								"slot": "2",
								"type": "t_bytes_storage"
							},
							{
								"astId": 35,
								"contract": "tests/MultiSigWallet.sol:MultiSigWallet",
								"label": "executed",
								"offset": 0,
								"slot": "3",
								"type": "t_bool"
							}
						],
						"numberOfBytes": "128"
					},
					"t_uint256": {
						"encoding": "inplace",
						"label": "uint256",
						"numberOfBytes": "32"
					}
				}
			},
			"userdoc": {
				"kind": "user",
				"methods": {},
				"version": 1
			}
		}
	}
}