{
	"tests/ERC721.sol": {
		"MyNFT": {
			"abi": [
				{
					"anonymous": false,
					"inputs": [
						{
							"indexed": true,
							"internalType": "address",
							"name": "owner",
							"type": "address"
						},
						{
							"indexed": true,
							"internalType": "address",
							"name": "spender",
							"type": "address"
						},
						{
							"indexed": true,
							"internalType": "uint256",
							"name": "id",
							"type": "uint256"
						}
					],
					"name": "Approval",
					"type": "event"
				},
				{
					"anonymous": false,
					"inputs": [
						{
							"indexed": true,
							"internalType": "address",
							"name": "owner",
							"type": "address"
						},
						{
							"indexed": true,
							"internalType": "address",
							"name": "operator",
							"type": "address"
						},
						{
							"indexed": false,
							"internalType": "bool",
							"name": "approved",
							"type": "bool"
						}
					],
					"name": "ApprovalForAll",
					"type": "event"
				},
				{
					"anonymous": false,
					"inputs": [
						{
							"indexed": true,
							"internalType": "address",
							"name": "from",
							"type": "address"
						},
						{
							"indexed": true,
							"internalType": "address",
							"name": "to",
							"type": "address"
						},
						{
							"indexed": true,
							"internalType": "uint256",
							"name": "id",
							"type": "uint256"
						}
					],
					"name": "Transfer",
					"type": "event"
				},
				{
					"inputs": [
						{
							"internalType": "address",
							"name": "to",
							"type": "address"
						},
						{
							"internalType": "uint256",
							"name": "tokenId",
							"type": "uint256"
						}
					],
					"name": "approve",
					"outputs": [],
					"stateMutability": "nonpayable",
					"type": "function"
				},
				{
					"inputs": [
						{
							"internalType": "address",
							"name": "owner",
							"type": "address"
						}
					],
					"name": "balanceOf",
					"outputs": [
						{
							"internalType": "uint256",
							"name": "balance",
							"type": "uint256"
						}
					],
					"stateMutability": "view",
					"type": "function"
				},
				{
					"inputs": [
						{
							"internalType": "uint256",
							"name": "tokenId",
							"type": "uint256"
						}
					],
					"name": "burn",
					"outputs": [],
					"stateMutability": "nonpayable",
					"type": "function"
				},
				{
					"inputs": [
						{
							"internalType": "uint256",
							"name": "tokenId",
							"type": "uint256"
						}
					],
					"name": "getApproved",
					"outputs": [
						{
							"internalType": "address",
							"name": "operator",
							"type": "address"
						}
					],
					"stateMutability": "view",
					"type": "function"
				},
				{
					"inputs": [
						{
							"internalType": "address",
							"name": "",
							"type": "address"
						},
						{
							"internalType": "address",
							"name": "",
							"type": "address"
						}
					],
					"name": "isApprovedForAll",
					"outputs": [
						{
							"internalType": "bool",
							"name": "",
							"type": "bool"
						}
					],
					"stateMutability": "view",
					"type": "function"
				},
				{
					"inputs": [
						{
							"internalType": "address",
							"name": "to",
							"type": "address"
						},
						{
							"internalType": "uint256",
							"name": "tokenId",
							"type": "uint256"
						}
					],
					"name": "mint",
					"outputs": [],
					"stateMutability": "nonpayable",
					"type": "function"
				},
				{
					"inputs": [
						{
							"internalType": "uint256",
							"name": "tokenId",
							"type": "uint256"
						}
					],
					"name": "ownerOf",
					"outputs": [
						{
							"internalType": "address",
							"name": "owner",
							"type": "address"
						}
					],
					"stateMutability": "view",
					"type": "function"
				},
				{
					"inputs": [
						{
							"internalType": "address",
							"name": "from",
							"type": "address"
						},
						{
							"internalType": "address",
							"name": "to",
							"type": "address"
						},
						{
							"internalType": "uint256",
							"name": "tokenId",
							"type": "uint256"
						}
					],
					"name": "safeTransferFrom",
					"outputs": [],
					"stateMutability": "nonpayable",
					"type": "function"
				},
				{
					"inputs": [
						{
							"internalType": "address",
							"name": "from",
							"type": "address"
						},
						{
							"internalType": "address",
							"name": "to",
							"type": "address"
						},
						{
							"internalType": "uint256",
							"name": "tokenId",
							"type": "uint256"
						},
						{
							"internalType": "bytes",
							"name": "data",
							"type": "bytes"
						}
					],
					"name": "safeTransferFrom",
					"outputs": [],
					"stateMutability": "nonpayable",
					"type": "function"
				},
				{
					"inputs": [
						{
							"internalType": "address",
							"name": "operator",
							"type": "address"
						},
						{
							"internalType": "bool",
							"name": "_approved",
							"type": "bool"
						}
					],
					"name": "setApprovalForAll",
					"outputs": [],
					"stateMutability": "nonpayable",
					"type": "function"
				},
				{
					"inputs": [
						{
							"internalType": "bytes4",
							"name": "interfaceId",
							"type": "bytes4"
						}
					],
					"name": "supportsInterface",
					"outputs": [
						{
							"internalType": "bool",
							"name": "",
							"type": "bool"
						}
					],
					"stateMutability": "view",
					"type": "function"
				},
				{
					"inputs": [
						{
							"internalType": "address",
							"name": "from",
							"type": "address"
						},
						{
							"internalType": "address",
							"name": "to",
							"type": "address"
						},
						{
							"internalType": "uint256",
							"name": "tokenId",
							"type": "uint256"
						}
					],
					"name": "transferFrom",
					"outputs": [],
					"stateMutability": "nonpayable",
					"type": "function"
				}
			],
			"devdoc": {
				"kind": "dev",
				"methods": {},
				"version": 1
			},
			"evm": {
				"assembly": "    /* \"tests/ERC721.sol\":5204:5467  contract MyNFT is ERC721 {... */\n  mstore(0x40, 0x80)\n  callvalue\n  dup1\n  iszero\n  tag_1\n  jumpi\n  0x00\n  dup1\n  revert\ntag_1:\n  pop\n  dataSize(sub_0)\n  dup1\n  dataOffset(sub_0)\n  0x00\n  codecopy\n  0x00\n  return\nstop\n\nsub_0: assembly {\n        /* \"tests/ERC721.sol\":5204:5467  contract MyNFT is ERC721 {... */\n      mstore(0x40, 0x80)\n      callvalue\n      dup1\n      iszero\n      tag_1\n      jumpi\n      0x00\n      dup1\n      revert\n    tag_1:\n      pop\n      jumpi(tag_2, lt(calldatasize, 0x04))\n      shr(0xe0, calldataload(0x00))\n      dup1\n      0x42966c68\n      gt\n      tag_15\n      jumpi\n      dup1\n      0x42966c68\n      eq\n      tag_9\n      jumpi\n      dup1\n      0x6352211e\n      eq\n      tag_10\n      jumpi\n      dup1\n      0x70a08231\n      eq\n      tag_11\n      jumpi\n      dup1\n      0xa22cb465\n      eq\n      tag_12\n      jumpi\n      dup1\n      0xb88d4fde\n      eq\n      tag_13\n      jumpi\n      dup1\n      0xe985e9c5\n      eq\n      tag_14\n      jumpi\n      jump(tag_2)\n    tag_15:\n      dup1\n      0x01ffc9a7\n      eq\n      tag_3\n      jumpi\n      dup1\n      0x081812fc\n      eq\n      tag_4\n      jumpi\n      dup1\n      0x095ea7b3\n      eq\n      tag_5\n      jumpi\n      dup1\n      0x23b872dd\n      eq\n      tag_6\n      jumpi\n      dup1\n      0x40c10f19\n      eq\n      tag_7\n      jumpi\n      dup1\n      0x42842e0e\n      eq\n      tag_8\n      jumpi\n    tag_2:\n      0x00\n      dup1\n      revert\n        /* \"tests/ERC721.sol\":1831:2030  function supportsInterface(bytes4 interfaceId)        ... */\n    tag_3:\n      tag_16\n      0x04\n      dup1\n      calldatasize\n      sub\n      dup2\n      add\n      swap1\n      tag_17\n      swap2\n      swap1\n      tag_18\n      jump\t// in\n    tag_17:\n      tag_19\n      jump\t// in\n    tag_16:\n      mload(0x40)\n      tag_20\n      swap2\n      swap1\n      tag_21\n      jump\t// in\n    tag_20:\n      mload(0x40)\n      dup1\n      swap2\n      sub\n      swap1\n      return\n        /* \"tests/ERC721.sol\":2936:3131  function getApproved(uint256 tokenId) external view returns(address operator) {... */\n    tag_4:\n      tag_22\n      0x04\n      dup1\n      calldatasize\n      sub\n      dup2\n      add\n      swap1\n      tag_23\n      swap2\n      swap1\n      tag_24\n      jump\t// in\n    tag_23:\n      tag_25\n      jump\t// in\n    tag_22:\n      mload(0x40)\n      tag_26\n      swap2\n      swap1\n      tag_27\n      jump\t// in\n    tag_26:\n      mload(0x40)\n      dup1\n      swap2\n      sub\n      swap1\n      return\n        /* \"tests/ERC721.sol\":2609:2928  function approve(address to, uint256 tokenId) external {... */\n    tag_5:\n      tag_28\n      0x04\n      dup1\n      calldatasize\n      sub\n      dup2\n      add\n      swap1\n      tag_29\n      swap2\n      swap1\n      tag_30\n      jump\t// in\n    tag_29:\n      tag_31\n      jump\t// in\n    tag_28:\n      stop\n        /* \"tests/ERC721.sol\":3380:3838  function transferFrom(address from, address to, uint256 tokenId) public  {... */\n    tag_6:\n      tag_32\n      0x04\n      dup1\n      calldatasize\n      sub\n      dup2\n      add\n      swap1\n      tag_33\n      swap2\n      swap1\n      tag_34\n      jump\t// in\n    tag_33:\n      tag_35\n      jump\t// in\n    tag_32:\n      stop\n        /* \"tests/ERC721.sol\":5236:5322  function mint(address to, uint tokenId) external {... */\n    tag_7:\n      tag_36\n      0x04\n      dup1\n      calldatasize\n      sub\n      dup2\n      add\n      swap1\n      tag_37\n      swap2\n      swap1\n      tag_30\n      jump\t// in\n    tag_37:\n      tag_38\n      jump\t// in\n    tag_36:\n      stop\n        /* \"tests/ERC721.sol\":3848:4175  function safeTransferFrom(address from, address to, uint256 tokenId) external {... */\n    tag_8:\n      tag_39\n      0x04\n      dup1\n      calldatasize\n      sub\n      dup2\n      add\n      swap1\n      tag_40\n      swap2\n      swap1\n      tag_34\n      jump\t// in\n    tag_40:\n      tag_41\n      jump\t// in\n    tag_39:\n      stop\n        /* \"tests/ERC721.sol\":5330:5464  function burn(uint tokenId) external {... */\n    tag_9:\n      tag_42\n      0x04\n      dup1\n      calldatasize\n      sub\n      dup2\n      add\n      swap1\n      tag_43\n      swap2\n      swap1\n      tag_24\n      jump\t// in\n    tag_43:\n      tag_44\n      jump\t// in\n    tag_42:\n      stop\n        /* \"tests/ERC721.sol\":2220:2395  function ownerOf(uint256 tokenId) external view returns(address owner) {... */\n    tag_10:\n      tag_45\n      0x04\n      dup1\n      calldatasize\n      sub\n      dup2\n      add\n      swap1\n      tag_46\n      swap2\n      swap1\n      tag_24\n      jump\t// in\n    tag_46:\n      tag_47\n      jump\t// in\n    tag_45:\n      mload(0x40)\n      tag_48\n      swap2\n      swap1\n      tag_27\n      jump\t// in\n    tag_48:\n      mload(0x40)\n      dup1\n      swap2\n      sub\n      swap1\n      return\n        /* \"tests/ERC721.sol\":2038:2214  function balanceOf(address owner) external view returns(uint256 balance) {... */\n    tag_11:\n      tag_49\n      0x04\n      dup1\n      calldatasize\n      sub\n      dup2\n      add\n      swap1\n      tag_50\n      swap2\n      swap1\n      tag_51\n      jump\t// in\n    tag_50:\n      tag_52\n      jump\t// in\n    tag_49:\n      mload(0x40)\n      tag_53\n      swap2\n      swap1\n      tag_54\n      jump\t// in\n    tag_53:\n      mload(0x40)\n      dup1\n      swap2\n      sub\n      swap1\n      return\n        /* \"tests/ERC721.sol\":2401:2603  function setApprovalForAll(address operator, bool _approved) external {... */\n    tag_12:\n      tag_55\n      0x04\n      dup1\n      calldatasize\n      sub\n      dup2\n      add\n      swap1\n      tag_56\n      swap2\n      swap1\n      tag_57\n      jump\t// in\n    tag_56:\n      tag_58\n      jump\t// in\n    tag_55:\n      stop\n        /* \"tests/ERC721.sol\":4181:4574  function safeTransferFrom(... */\n    tag_13:\n      tag_59\n      0x04\n      dup1\n      calldatasize\n      sub\n      dup2\n      add\n      swap1\n      tag_60\n      swap2\n      swap1\n      tag_61\n      jump\t// in\n    tag_60:\n      tag_62\n      jump\t// in\n    tag_59:\n      stop\n        /* \"tests/ERC721.sol\":1748:1818  mapping (address => mapping (address => bool)) public isApprovedForAll */\n    tag_14:\n      tag_63\n      0x04\n      dup1\n      calldatasize\n      sub\n      dup2\n      add\n      swap1\n      tag_64\n      swap2\n      swap1\n      tag_65\n      jump\t// in\n    tag_64:\n      tag_66\n      jump\t// in\n    tag_63:\n      mload(0x40)\n      tag_67\n      swap2\n      swap1\n      tag_21\n      jump\t// in\n    tag_67:\n      mload(0x40)\n      dup1\n      swap2\n      sub\n      swap1\n      return\n        /* \"tests/ERC721.sol\":1831:2030  function supportsInterface(bytes4 interfaceId)        ... */\n    tag_19:\n        /* \"tests/ERC721.sol\":1915:1919  bool */\n      0x00\n        /* \"tests/ERC721.sol\":1953:1978  type(IERC721).interfaceId */\n      0x80ac58cd00000000000000000000000000000000000000000000000000000000\n        /* \"tests/ERC721.sol\":1938:1978  interfaceId == type(IERC721).interfaceId */\n      not(0xffffffffffffffffffffffffffffffffffffffffffffffffffffffff)\n      and\n        /* \"tests/ERC721.sol\":1938:1949  interfaceId */\n      dup3\n        /* \"tests/ERC721.sol\":1938:1978  interfaceId == type(IERC721).interfaceId */\n      not(0xffffffffffffffffffffffffffffffffffffffffffffffffffffffff)\n      and\n      eq\n        /* \"tests/ERC721.sol\":1938:2022  interfaceId == type(IERC721).interfaceId || interfaceId == type(IERC165).interfaceId */\n      dup1\n      tag_69\n      jumpi\n      pop\n        /* \"tests/ERC721.sol\":1997:2022  type(IERC165).interfaceId */\n      0x01ffc9a700000000000000000000000000000000000000000000000000000000\n        /* \"tests/ERC721.sol\":1982:2022  interfaceId == type(IERC165).interfaceId */\n      not(0xffffffffffffffffffffffffffffffffffffffffffffffffffffffff)\n      and\n        /* \"tests/ERC721.sol\":1982:1993  interfaceId */\n      dup3\n        /* \"tests/ERC721.sol\":1982:2022  interfaceId == type(IERC165).interfaceId */\n      not(0xffffffffffffffffffffffffffffffffffffffffffffffffffffffff)\n      and\n      eq\n        /* \"tests/ERC721.sol\":1938:2022  interfaceId == type(IERC721).interfaceId || interfaceId == type(IERC165).interfaceId */\n    tag_69:\n        /* \"tests/ERC721.sol\":1931:2022  return interfaceId == type(IERC721).interfaceId || interfaceId == type(IERC165).interfaceId */\n      swap1\n      pop\n        /* \"tests/ERC721.sol\":1831:2030  function supportsInterface(bytes4 interfaceId)        ... */\n      swap2\n      swap1\n      pop\n      jump\t// out\n        /* \"tests/ERC721.sol\":2936:3131  function getApproved(uint256 tokenId) external view returns(address operator) {... */\n    tag_25:\n        /* \"tests/ERC721.sol\":2996:3012  address operator */\n      0x00\n        /* \"tests/ERC721.sol\":3062:3063  0 */\n      dup1\n        /* \"tests/ERC721.sol\":3033:3064  _ownerOf[tokenId] != address(0) */\n      0xffffffffffffffffffffffffffffffffffffffff\n      and\n        /* \"tests/ERC721.sol\":3033:3041  _ownerOf */\n      0x00\n        /* \"tests/ERC721.sol\":3033:3050  _ownerOf[tokenId] */\n      dup1\n        /* \"tests/ERC721.sol\":3042:3049  tokenId */\n      dup5\n        /* \"tests/ERC721.sol\":3033:3050  _ownerOf[tokenId] */\n      dup2\n      mstore\n      0x20\n      add\n      swap1\n      dup2\n      mstore\n      0x20\n      add\n      0x00\n      keccak256\n      0x00\n      swap1\n      sload\n      swap1\n      0x0100\n      exp\n      swap1\n      div\n      0xffffffffffffffffffffffffffffffffffffffff\n      and\n        /* \"tests/ERC721.sol\":3033:3064  _ownerOf[tokenId] != address(0) */\n      0xffffffffffffffffffffffffffffffffffffffff\n      and\n      sub\n        /* \"tests/ERC721.sol\":3025:3086  require(_ownerOf[tokenId] != address(0), \"tokenId not exits\") */\n      tag_71\n      jumpi\n      mload(0x40)\n      0x08c379a000000000000000000000000000000000000000000000000000000000\n      dup2\n      mstore\n      0x04\n      add\n      tag_72\n      swap1\n      tag_73\n      jump\t// in\n    tag_72:\n      mload(0x40)\n      dup1\n      swap2\n      sub\n      swap1\n      revert\n    tag_71:\n        /* \"tests/ERC721.sol\":3104:3114  _approvals */\n      0x02\n        /* \"tests/ERC721.sol\":3104:3123  _approvals[tokenId] */\n      0x00\n        /* \"tests/ERC721.sol\":3115:3122  tokenId */\n      dup4\n        /* \"tests/ERC721.sol\":3104:3123  _approvals[tokenId] */\n      dup2\n      mstore\n      0x20\n      add\n      swap1\n      dup2\n      mstore\n      0x20\n      add\n      0x00\n      keccak256\n      0x00\n      swap1\n      sload\n      swap1\n      0x0100\n      exp\n      swap1\n      div\n      0xffffffffffffffffffffffffffffffffffffffff\n      and\n        /* \"tests/ERC721.sol\":3097:3123  return _approvals[tokenId] */\n      swap1\n      pop\n        /* \"tests/ERC721.sol\":2936:3131  function getApproved(uint256 tokenId) external view returns(address operator) {... */\n      swap2\n      swap1\n      pop\n      jump\t// out\n        /* \"tests/ERC721.sol\":2609:2928  function approve(address to, uint256 tokenId) external {... */\n    tag_31:\n        /* \"tests/ERC721.sol\":2675:2688  address owner */\n      0x00\n        /* \"tests/ERC721.sol\":2691:2699  _ownerOf */\n      dup1\n        /* \"tests/ERC721.sol\":2691:2708  _ownerOf[tokenId] */\n      0x00\n        /* \"tests/ERC721.sol\":2700:2707  tokenId */\n      dup4\n        /* \"tests/ERC721.sol\":2691:2708  _ownerOf[tokenId] */\n      dup2\n      mstore\n      0x20\n      add\n      swap1\n      dup2\n      mstore\n      0x20\n      add\n      0x00\n      keccak256\n      0x00\n      swap1\n      sload\n      swap1\n      0x0100\n      exp\n      swap1\n      div\n      0xffffffffffffffffffffffffffffffffffffffff\n      and\n        /* \"tests/ERC721.sol\":2675:2708  address owner = _ownerOf[tokenId] */\n      swap1\n      pop\n        /* \"tests/ERC721.sol\":2755:2760  owner */\n      dup1\n        /* \"tests/ERC721.sol\":2741:2760  msg.sender == owner */\n      0xffffffffffffffffffffffffffffffffffffffff\n      and\n        /* \"tests/ERC721.sol\":2741:2751  msg.sender */\n      caller\n        /* \"tests/ERC721.sol\":2741:2760  msg.sender == owner */\n      0xffffffffffffffffffffffffffffffffffffffff\n      and\n      eq\n        /* \"tests/ERC721.sol\":2741:2799  msg.sender == owner || isApprovedForAll[owner][msg.sender] */\n      dup1\n      tag_75\n      jumpi\n      pop\n        /* \"tests/ERC721.sol\":2764:2780  isApprovedForAll */\n      0x03\n        /* \"tests/ERC721.sol\":2764:2787  isApprovedForAll[owner] */\n      0x00\n        /* \"tests/ERC721.sol\":2781:2786  owner */\n      dup3\n        /* \"tests/ERC721.sol\":2764:2787  isApprovedForAll[owner] */\n      0xffffffffffffffffffffffffffffffffffffffff\n      and\n      0xffffffffffffffffffffffffffffffffffffffff\n      and\n      dup2\n      mstore\n      0x20\n      add\n      swap1\n      dup2\n      mstore\n      0x20\n      add\n      0x00\n      keccak256\n        /* \"tests/ERC721.sol\":2764:2799  isApprovedForAll[owner][msg.sender] */\n      0x00\n        /* \"tests/ERC721.sol\":2788:2798  msg.sender */\n      caller\n        /* \"tests/ERC721.sol\":2764:2799  isApprovedForAll[owner][msg.sender] */\n      0xffffffffffffffffffffffffffffffffffffffff\n      and\n      0xffffffffffffffffffffffffffffffffffffffff\n      and\n      dup2\n      mstore\n      0x20\n      add\n      swap1\n      dup2\n      mstore\n      0x20\n      add\n      0x00\n      keccak256\n      0x00\n      swap1\n      sload\n      swap1\n      0x0100\n      exp\n      swap1\n      div\n      0xff\n      and\n        /* \"tests/ERC721.sol\":2741:2799  msg.sender == owner || isApprovedForAll[owner][msg.sender] */\n    tag_75:\n        /* \"tests/ERC721.sol\":2719:2841  require(... */\n      tag_76\n      jumpi\n      mload(0x40)\n      0x08c379a000000000000000000000000000000000000000000000000000000000\n      dup2\n      mstore\n      0x04\n      add\n      tag_77\n      swap1\n      tag_78\n      jump\t// in\n    tag_77:\n      mload(0x40)\n      dup1\n      swap2\n      sub\n      swap1\n      revert\n    tag_76:\n        /* \"tests/ERC721.sol\":2874:2876  to */\n      dup3\n        /* \"tests/ERC721.sol\":2852:2862  _approvals */\n      0x02\n        /* \"tests/ERC721.sol\":2852:2871  _approvals[tokenId] */\n      0x00\n        /* \"tests/ERC721.sol\":2863:2870  tokenId */\n      dup5\n        /* \"tests/ERC721.sol\":2852:2871  _approvals[tokenId] */\n      dup2\n      mstore\n      0x20\n      add\n      swap1\n      dup2\n      mstore\n      0x20\n      add\n      0x00\n      keccak256\n      0x00\n        /* \"tests/ERC721.sol\":2852:2876  _approvals[tokenId] = to */\n      0x0100\n      exp\n      dup2\n      sload\n      dup2\n      0xffffffffffffffffffffffffffffffffffffffff\n      mul\n      not\n      and\n      swap1\n      dup4\n      0xffffffffffffffffffffffffffffffffffffffff\n      and\n      mul\n      or\n      swap1\n      sstore\n      pop\n        /* \"tests/ERC721.sol\":2912:2919  tokenId */\n      dup2\n        /* \"tests/ERC721.sol\":2908:2910  to */\n      dup4\n        /* \"tests/ERC721.sol\":2892:2920  Approval(owner, to, tokenId) */\n      0xffffffffffffffffffffffffffffffffffffffff\n      and\n        /* \"tests/ERC721.sol\":2901:2906  owner */\n      dup3\n        /* \"tests/ERC721.sol\":2892:2920  Approval(owner, to, tokenId) */\n      0xffffffffffffffffffffffffffffffffffffffff\n      and\n      0x8c5be1e5ebec7d5bd14f71427d1e84f3dd0314c0f7b2291e5b200ac8c7c3b925\n      mload(0x40)\n      mload(0x40)\n      dup1\n      swap2\n      sub\n      swap1\n      log4\n        /* \"tests/ERC721.sol\":2664:2928  {... */\n      pop\n        /* \"tests/ERC721.sol\":2609:2928  function approve(address to, uint256 tokenId) external {... */\n      pop\n      pop\n      jump\t// out\n        /* \"tests/ERC721.sol\":3380:3838  function transferFrom(address from, address to, uint256 tokenId) public  {... */\n    tag_35:\n        /* \"tests/ERC721.sol\":3480:3488  _ownerOf */\n      0x00\n        /* \"tests/ERC721.sol\":3480:3497  _ownerOf[tokenId] */\n      dup1\n        /* \"tests/ERC721.sol\":3489:3496  tokenId */\n      dup3\n        /* \"tests/ERC721.sol\":3480:3497  _ownerOf[tokenId] */\n      dup2\n      mstore\n      0x20\n      add\n      swap1\n      dup2\n      mstore\n      0x20\n      add\n      0x00\n      keccak256\n      0x00\n      swap1\n      sload\n      swap1\n      0x0100\n      exp\n      swap1\n      div\n      0xffffffffffffffffffffffffffffffffffffffff\n      and\n        /* \"tests/ERC721.sol\":3472:3497  from == _ownerOf[tokenId] */\n      0xffffffffffffffffffffffffffffffffffffffff\n      and\n        /* \"tests/ERC721.sol\":3472:3476  from */\n      dup4\n        /* \"tests/ERC721.sol\":3472:3497  from == _ownerOf[tokenId] */\n      0xffffffffffffffffffffffffffffffffffffffff\n      and\n      eq\n        /* \"tests/ERC721.sol\":3464:3515  require(from == _ownerOf[tokenId], \"from != owner\") */\n      tag_80\n      jumpi\n      mload(0x40)\n      0x08c379a000000000000000000000000000000000000000000000000000000000\n      dup2\n      mstore\n      0x04\n      add\n      tag_81\n      swap1\n      tag_82\n      jump\t// in\n    tag_81:\n      mload(0x40)\n      dup1\n      swap2\n      sub\n      swap1\n      revert\n    tag_80:\n        /* \"tests/ERC721.sol\":3548:3549  0 */\n      0x00\n        /* \"tests/ERC721.sol\":3534:3550  to != address(0) */\n      0xffffffffffffffffffffffffffffffffffffffff\n      and\n        /* \"tests/ERC721.sol\":3534:3536  to */\n      dup3\n        /* \"tests/ERC721.sol\":3534:3550  to != address(0) */\n      0xffffffffffffffffffffffffffffffffffffffff\n      and\n      sub\n        /* \"tests/ERC721.sol\":3526:3572  require(to != address(0), \"to = zero address\") */\n      tag_83\n      jumpi\n      mload(0x40)\n      0x08c379a000000000000000000000000000000000000000000000000000000000\n      dup2\n      mstore\n      0x04\n      add\n      tag_84\n      swap1\n      tag_85\n      jump\t// in\n    tag_84:\n      mload(0x40)\n      dup1\n      swap2\n      sub\n      swap1\n      revert\n    tag_83:\n        /* \"tests/ERC721.sol\":3591:3636  _isApprovedOrOwner(from, msg.sender, tokenId) */\n      tag_86\n        /* \"tests/ERC721.sol\":3610:3614  from */\n      dup4\n        /* \"tests/ERC721.sol\":3616:3626  msg.sender */\n      caller\n        /* \"tests/ERC721.sol\":3628:3635  tokenId */\n      dup4\n        /* \"tests/ERC721.sol\":3591:3609  _isApprovedOrOwner */\n      tag_87\n        /* \"tests/ERC721.sol\":3591:3636  _isApprovedOrOwner(from, msg.sender, tokenId) */\n      jump\t// in\n    tag_86:\n        /* \"tests/ERC721.sol\":3583:3655  require(_isApprovedOrOwner(from, msg.sender, tokenId), \"not authorized\") */\n      tag_88\n      jumpi\n      mload(0x40)\n      0x08c379a000000000000000000000000000000000000000000000000000000000\n      dup2\n      mstore\n      0x04\n      add\n      tag_89\n      swap1\n      tag_78\n      jump\t// in\n    tag_89:\n      mload(0x40)\n      dup1\n      swap2\n      sub\n      swap1\n      revert\n    tag_88:\n        /* \"tests/ERC721.sol\":3668:3678  _balanceOf */\n      0x01\n        /* \"tests/ERC721.sol\":3668:3684  _balanceOf[from] */\n      0x00\n        /* \"tests/ERC721.sol\":3679:3683  from */\n      dup5\n        /* \"tests/ERC721.sol\":3668:3684  _balanceOf[from] */\n      0xffffffffffffffffffffffffffffffffffffffff\n      and\n      0xffffffffffffffffffffffffffffffffffffffff\n      and\n      dup2\n      mstore\n      0x20\n      add\n      swap1\n      dup2\n      mstore\n      0x20\n      add\n      0x00\n      keccak256\n      0x00\n        /* \"tests/ERC721.sol\":3668:3687  _balanceOf[from] -- */\n      dup2\n      sload\n      dup1\n      swap3\n      swap2\n      swap1\n      tag_90\n      swap1\n      tag_91\n      jump\t// in\n    tag_90:\n      swap2\n      swap1\n      pop\n      sstore\n      pop\n        /* \"tests/ERC721.sol\":3698:3708  _balanceOf */\n      0x01\n        /* \"tests/ERC721.sol\":3698:3712  _balanceOf[to] */\n      0x00\n        /* \"tests/ERC721.sol\":3709:3711  to */\n      dup4\n        /* \"tests/ERC721.sol\":3698:3712  _balanceOf[to] */\n      0xffffffffffffffffffffffffffffffffffffffff\n      and\n      0xffffffffffffffffffffffffffffffffffffffff\n      and\n      dup2\n      mstore\n      0x20\n      add\n      swap1\n      dup2\n      mstore\n      0x20\n      add\n      0x00\n      keccak256\n      0x00\n        /* \"tests/ERC721.sol\":3698:3715  _balanceOf[to] ++ */\n      dup2\n      sload\n      dup1\n      swap3\n      swap2\n      swap1\n      tag_92\n      swap1\n      tag_93\n      jump\t// in\n    tag_92:\n      swap2\n      swap1\n      pop\n      sstore\n      pop\n        /* \"tests/ERC721.sol\":3746:3748  to */\n      dup2\n        /* \"tests/ERC721.sol\":3726:3734  _ownerOf */\n      0x00\n        /* \"tests/ERC721.sol\":3726:3743  _ownerOf[tokenId] */\n      dup1\n        /* \"tests/ERC721.sol\":3735:3742  tokenId */\n      dup4\n        /* \"tests/ERC721.sol\":3726:3743  _ownerOf[tokenId] */\n      dup2\n      mstore\n      0x20\n      add\n      swap1\n      dup2\n      mstore\n      0x20\n      add\n      0x00\n      keccak256\n      0x00\n        /* \"tests/ERC721.sol\":3726:3748  _ownerOf[tokenId] = to */\n      0x0100\n      exp\n      dup2\n      sload\n      dup2\n      0xffffffffffffffffffffffffffffffffffffffff\n      mul\n      not\n      and\n      swap1\n      dup4\n      0xffffffffffffffffffffffffffffffffffffffff\n      and\n      mul\n      or\n      swap1\n      sstore\n      pop\n        /* \"tests/ERC721.sol\":3768:3778  _approvals */\n      0x02\n        /* \"tests/ERC721.sol\":3768:3787  _approvals[tokenId] */\n      0x00\n        /* \"tests/ERC721.sol\":3779:3786  tokenId */\n      dup3\n        /* \"tests/ERC721.sol\":3768:3787  _approvals[tokenId] */\n      dup2\n      mstore\n      0x20\n      add\n      swap1\n      dup2\n      mstore\n      0x20\n      add\n      0x00\n      keccak256\n      0x00\n        /* \"tests/ERC721.sol\":3761:3787  delete _approvals[tokenId] */\n      0x0100\n      exp\n      dup2\n      sload\n      swap1\n      0xffffffffffffffffffffffffffffffffffffffff\n      mul\n      not\n      and\n      swap1\n      sstore\n        /* \"tests/ERC721.sol\":3822:3829  tokenId */\n      dup1\n        /* \"tests/ERC721.sol\":3818:3820  to */\n      dup3\n        /* \"tests/ERC721.sol\":3803:3830  Transfer(from, to, tokenId) */\n      0xffffffffffffffffffffffffffffffffffffffff\n      and\n        /* \"tests/ERC721.sol\":3812:3816  from */\n      dup5\n        /* \"tests/ERC721.sol\":3803:3830  Transfer(from, to, tokenId) */\n      0xffffffffffffffffffffffffffffffffffffffff\n      and\n      0xddf252ad1be2c89b69c2b068fc378daa952ba7f163c4a11628f55a4df523b3ef\n      mload(0x40)\n      mload(0x40)\n      dup1\n      swap2\n      sub\n      swap1\n      log4\n        /* \"tests/ERC721.sol\":3380:3838  function transferFrom(address from, address to, uint256 tokenId) public  {... */\n      pop\n      pop\n      pop\n      jump\t// out\n        /* \"tests/ERC721.sol\":5236:5322  function mint(address to, uint tokenId) external {... */\n    tag_38:\n        /* \"tests/ERC721.sol\":5296:5314  _mint(to, tokenId) */\n      tag_95\n        /* \"tests/ERC721.sol\":5302:5304  to */\n      dup3\n        /* \"tests/ERC721.sol\":5306:5313  tokenId */\n      dup3\n        /* \"tests/ERC721.sol\":5296:5301  _mint */\n      tag_96\n        /* \"tests/ERC721.sol\":5296:5314  _mint(to, tokenId) */\n      jump\t// in\n    tag_95:\n        /* \"tests/ERC721.sol\":5236:5322  function mint(address to, uint tokenId) external {... */\n      pop\n      pop\n      jump\t// out\n        /* \"tests/ERC721.sol\":3848:4175  function safeTransferFrom(address from, address to, uint256 tokenId) external {... */\n    tag_41:\n        /* \"tests/ERC721.sol\":3937:3968  transferFrom(from, to, tokenId) */\n      tag_98\n        /* \"tests/ERC721.sol\":3950:3954  from */\n      dup4\n        /* \"tests/ERC721.sol\":3956:3958  to */\n      dup4\n        /* \"tests/ERC721.sol\":3960:3967  tokenId */\n      dup4\n        /* \"tests/ERC721.sol\":3937:3949  transferFrom */\n      tag_35\n        /* \"tests/ERC721.sol\":3937:3968  transferFrom(from, to, tokenId) */\n      jump\t// in\n    tag_98:\n        /* \"tests/ERC721.sol\":4019:4020  0 */\n      0x00\n        /* \"tests/ERC721.sol\":4001:4003  to */\n      dup3\n        /* \"tests/ERC721.sol\":4001:4015  to.code.length */\n      0xffffffffffffffffffffffffffffffffffffffff\n      and\n      extcodesize\n        /* \"tests/ERC721.sol\":4001:4020  to.code.length == 0 */\n      eq\n        /* \"tests/ERC721.sol\":4001:4136  to.code.length == 0 || IERC721Receiver(to).onERC721Received(msg.sender, from, tokenId, \"\") == IERC721Receiver.onERC721Received.selector */\n      dup1\n      tag_99\n      jumpi\n      pop\n        /* \"tests/ERC721.sol\":4095:4136  IERC721Receiver.onERC721Received.selector */\n      shl(0xe0, 0x150b7a02)\n        /* \"tests/ERC721.sol\":4024:4136  IERC721Receiver(to).onERC721Received(msg.sender, from, tokenId, \"\") == IERC721Receiver.onERC721Received.selector */\n      not(0xffffffffffffffffffffffffffffffffffffffffffffffffffffffff)\n      and\n        /* \"tests/ERC721.sol\":4040:4042  to */\n      dup3\n        /* \"tests/ERC721.sol\":4024:4060  IERC721Receiver(to).onERC721Received */\n      0xffffffffffffffffffffffffffffffffffffffff\n      and\n      0x150b7a02\n        /* \"tests/ERC721.sol\":4061:4071  msg.sender */\n      caller\n        /* \"tests/ERC721.sol\":4073:4077  from */\n      dup7\n        /* \"tests/ERC721.sol\":4079:4086  tokenId */\n      dup6\n        /* \"tests/ERC721.sol\":4024:4091  IERC721Receiver(to).onERC721Received(msg.sender, from, tokenId, \"\") */\n      mload(0x40)\n      dup5\n      0xffffffff\n      and\n      0xe0\n      shl\n      dup2\n      mstore\n      0x04\n      add\n      tag_100\n      swap4\n      swap3\n      swap2\n      swap1\n      tag_101\n      jump\t// in\n    tag_100:\n      0x20\n      mload(0x40)\n      dup1\n      dup4\n      sub\n      dup2\n      0x00\n      dup8\n      gas\n      call\n      iszero\n      dup1\n      iszero\n      tag_103\n      jumpi\n      returndatasize\n      0x00\n      dup1\n      returndatacopy\n      revert(0x00, returndatasize)\n    tag_103:\n      pop\n      pop\n      pop\n      pop\n      mload(0x40)\n      returndatasize\n      not(0x1f)\n      0x1f\n      dup3\n      add\n      and\n      dup3\n      add\n      dup1\n      0x40\n      mstore\n      pop\n      dup2\n      add\n      swap1\n      tag_104\n      swap2\n      swap1\n      tag_105\n      jump\t// in\n    tag_104:\n        /* \"tests/ERC721.sol\":4024:4136  IERC721Receiver(to).onERC721Received(msg.sender, from, tokenId, \"\") == IERC721Receiver.onERC721Received.selector */\n      not(0xffffffffffffffffffffffffffffffffffffffffffffffffffffffff)\n      and\n      eq\n        /* \"tests/ERC721.sol\":4001:4136  to.code.length == 0 || IERC721Receiver(to).onERC721Received(msg.sender, from, tokenId, \"\") == IERC721Receiver.onERC721Received.selector */\n    tag_99:\n        /* \"tests/ERC721.sol\":3979:4167  require(... */\n      tag_106\n      jumpi\n      mload(0x40)\n      0x08c379a000000000000000000000000000000000000000000000000000000000\n      dup2\n      mstore\n      0x04\n      add\n      tag_107\n      swap1\n      tag_108\n      jump\t// in\n    tag_107:\n      mload(0x40)\n      dup1\n      swap2\n      sub\n      swap1\n      revert\n    tag_106:\n        /* \"tests/ERC721.sol\":3848:4175  function safeTransferFrom(address from, address to, uint256 tokenId) external {... */\n      pop\n      pop\n      pop\n      jump\t// out\n        /* \"tests/ERC721.sol\":5330:5464  function burn(uint tokenId) external {... */\n    tag_44:\n        /* \"tests/ERC721.sol\":5400:5408  _ownerOf */\n      0x00\n        /* \"tests/ERC721.sol\":5400:5417  _ownerOf[tokenId] */\n      dup1\n        /* \"tests/ERC721.sol\":5409:5416  tokenId */\n      dup3\n        /* \"tests/ERC721.sol\":5400:5417  _ownerOf[tokenId] */\n      dup2\n      mstore\n      0x20\n      add\n      swap1\n      dup2\n      mstore\n      0x20\n      add\n      0x00\n      keccak256\n      0x00\n      swap1\n      sload\n      swap1\n      0x0100\n      exp\n      swap1\n      div\n      0xffffffffffffffffffffffffffffffffffffffff\n      and\n        /* \"tests/ERC721.sol\":5386:5417  msg.sender == _ownerOf[tokenId] */\n      0xffffffffffffffffffffffffffffffffffffffff\n      and\n        /* \"tests/ERC721.sol\":5386:5396  msg.sender */\n      caller\n        /* \"tests/ERC721.sol\":5386:5417  msg.sender == _ownerOf[tokenId] */\n      0xffffffffffffffffffffffffffffffffffffffff\n      and\n      eq\n        /* \"tests/ERC721.sol\":5378:5431  require(msg.sender == _ownerOf[tokenId], \"not owner\") */\n      tag_110\n      jumpi\n      mload(0x40)\n      0x08c379a000000000000000000000000000000000000000000000000000000000\n      dup2\n      mstore\n      0x04\n      add\n      tag_111\n      swap1\n      tag_112\n      jump\t// in\n    tag_111:\n      mload(0x40)\n      dup1\n      swap2\n      sub\n      swap1\n      revert\n    tag_110:\n        /* \"tests/ERC721.sol\":5442:5456  _burn(tokenId) */\n      tag_113\n        /* \"tests/ERC721.sol\":5448:5455  tokenId */\n      dup2\n        /* \"tests/ERC721.sol\":5442:5447  _burn */\n      tag_114\n        /* \"tests/ERC721.sol\":5442:5456  _burn(tokenId) */\n      jump\t// in\n    tag_113:\n        /* \"tests/ERC721.sol\":5330:5464  function burn(uint tokenId) external {... */\n      pop\n      jump\t// out\n        /* \"tests/ERC721.sol\":2220:2395  function ownerOf(uint256 tokenId) external view returns(address owner) {... */\n    tag_47:\n        /* \"tests/ERC721.sol\":2276:2289  address owner */\n      0x00\n        /* \"tests/ERC721.sol\":2310:2318  _ownerOf */\n      dup1\n        /* \"tests/ERC721.sol\":2310:2327  _ownerOf[tokenId] */\n      0x00\n        /* \"tests/ERC721.sol\":2319:2326  tokenId */\n      dup4\n        /* \"tests/ERC721.sol\":2310:2327  _ownerOf[tokenId] */\n      dup2\n      mstore\n      0x20\n      add\n      swap1\n      dup2\n      mstore\n      0x20\n      add\n      0x00\n      keccak256\n      0x00\n      swap1\n      sload\n      swap1\n      0x0100\n      exp\n      swap1\n      div\n      0xffffffffffffffffffffffffffffffffffffffff\n      and\n        /* \"tests/ERC721.sol\":2302:2327  owner = _ownerOf[tokenId] */\n      swap1\n      pop\n        /* \"tests/ERC721.sol\":2363:2364  0 */\n      0x00\n        /* \"tests/ERC721.sol\":2346:2365  owner != address(0) */\n      0xffffffffffffffffffffffffffffffffffffffff\n      and\n        /* \"tests/ERC721.sol\":2346:2351  owner */\n      dup2\n        /* \"tests/ERC721.sol\":2346:2365  owner != address(0) */\n      0xffffffffffffffffffffffffffffffffffffffff\n      and\n      sub\n        /* \"tests/ERC721.sol\":2338:2387  require(owner != address(0), \"owner = address 0\") */\n      tag_116\n      jumpi\n      mload(0x40)\n      0x08c379a000000000000000000000000000000000000000000000000000000000\n      dup2\n      mstore\n      0x04\n      add\n      tag_117\n      swap1\n      tag_118\n      jump\t// in\n    tag_117:\n      mload(0x40)\n      dup1\n      swap2\n      sub\n      swap1\n      revert\n    tag_116:\n        /* \"tests/ERC721.sol\":2220:2395  function ownerOf(uint256 tokenId) external view returns(address owner) {... */\n      swap2\n      swap1\n      pop\n      jump\t// out\n        /* \"tests/ERC721.sol\":2038:2214  function balanceOf(address owner) external view returns(uint256 balance) {... */\n    tag_52:\n        /* \"tests/ERC721.sol\":2094:2109  uint256 balance */\n      0x00\n        /* \"tests/ERC721.sol\":2147:2148  0 */\n      dup1\n        /* \"tests/ERC721.sol\":2130:2149  owner != address(0) */\n      0xffffffffffffffffffffffffffffffffffffffff\n      and\n        /* \"tests/ERC721.sol\":2130:2135  owner */\n      dup3\n        /* \"tests/ERC721.sol\":2130:2149  owner != address(0) */\n      0xffffffffffffffffffffffffffffffffffffffff\n      and\n      sub\n        /* \"tests/ERC721.sol\":2122:2171  require(owner != address(0), \"owner = address 0\") */\n      tag_120\n      jumpi\n      mload(0x40)\n      0x08c379a000000000000000000000000000000000000000000000000000000000\n      dup2\n      mstore\n      0x04\n      add\n      tag_121\n      swap1\n      tag_118\n      jump\t// in\n    tag_121:\n      mload(0x40)\n      dup1\n      swap2\n      sub\n      swap1\n      revert\n    tag_120:\n        /* \"tests/ERC721.sol\":2189:2199  _balanceOf */\n      0x01\n        /* \"tests/ERC721.sol\":2189:2206  _balanceOf[owner] */\n      0x00\n        /* \"tests/ERC721.sol\":2200:2205  owner */\n      dup4\n        /* \"tests/ERC721.sol\":2189:2206  _balanceOf[owner] */\n      0xffffffffffffffffffffffffffffffffffffffff\n      and\n      0xffffffffffffffffffffffffffffffffffffffff\n      and\n      dup2\n      mstore\n      0x20\n      add\n      swap1\n      dup2\n      mstore\n      0x20\n      add\n      0x00\n      keccak256\n      sload\n        /* \"tests/ERC721.sol\":2182:2206  return _balanceOf[owner] */\n      swap1\n      pop\n        /* \"tests/ERC721.sol\":2038:2214  function balanceOf(address owner) external view returns(uint256 balance) {... */\n      swap2\n      swap1\n      pop\n      jump\t// out\n        /* \"tests/ERC721.sol\":2401:2603  function setApprovalForAll(address operator, bool _approved) external {... */\n    tag_58:\n        /* \"tests/ERC721.sol\":2523:2532  _approved */\n      dup1\n        /* \"tests/ERC721.sol\":2482:2498  isApprovedForAll */\n      0x03\n        /* \"tests/ERC721.sol\":2482:2510  isApprovedForAll[msg.sender] */\n      0x00\n        /* \"tests/ERC721.sol\":2499:2509  msg.sender */\n      caller\n        /* \"tests/ERC721.sol\":2482:2510  isApprovedForAll[msg.sender] */\n      0xffffffffffffffffffffffffffffffffffffffff\n      and\n      0xffffffffffffffffffffffffffffffffffffffff\n      and\n      dup2\n      mstore\n      0x20\n      add\n      swap1\n      dup2\n      mstore\n      0x20\n      add\n      0x00\n      keccak256\n        /* \"tests/ERC721.sol\":2482:2520  isApprovedForAll[msg.sender][operator] */\n      0x00\n        /* \"tests/ERC721.sol\":2511:2519  operator */\n      dup5\n        /* \"tests/ERC721.sol\":2482:2520  isApprovedForAll[msg.sender][operator] */\n      0xffffffffffffffffffffffffffffffffffffffff\n      and\n      0xffffffffffffffffffffffffffffffffffffffff\n      and\n      dup2\n      mstore\n      0x20\n      add\n      swap1\n      dup2\n      mstore\n      0x20\n      add\n      0x00\n      keccak256\n      0x00\n        /* \"tests/ERC721.sol\":2482:2532  isApprovedForAll[msg.sender][operator] = _approved */\n      0x0100\n      exp\n      dup2\n      sload\n      dup2\n      0xff\n      mul\n      not\n      and\n      swap1\n      dup4\n      iszero\n      iszero\n      mul\n      or\n      swap1\n      sstore\n      pop\n        /* \"tests/ERC721.sol\":2575:2583  operator */\n      dup2\n        /* \"tests/ERC721.sol\":2548:2595  ApprovalForAll(msg.sender, operator, _approved) */\n      0xffffffffffffffffffffffffffffffffffffffff\n      and\n        /* \"tests/ERC721.sol\":2563:2573  msg.sender */\n      caller\n        /* \"tests/ERC721.sol\":2548:2595  ApprovalForAll(msg.sender, operator, _approved) */\n      0xffffffffffffffffffffffffffffffffffffffff\n      and\n      0x17307eab39ab6107e8899845ad3d59bd9653f200f220920489ca2b5937696c31\n        /* \"tests/ERC721.sol\":2585:2594  _approved */\n      dup4\n        /* \"tests/ERC721.sol\":2548:2595  ApprovalForAll(msg.sender, operator, _approved) */\n      mload(0x40)\n      tag_123\n      swap2\n      swap1\n      tag_21\n      jump\t// in\n    tag_123:\n      mload(0x40)\n      dup1\n      swap2\n      sub\n      swap1\n      log3\n        /* \"tests/ERC721.sol\":2401:2603  function setApprovalForAll(address operator, bool _approved) external {... */\n      pop\n      pop\n      jump\t// out\n        /* \"tests/ERC721.sol\":4181:4574  function safeTransferFrom(... */\n    tag_62:\n        /* \"tests/ERC721.sol\":4334:4365  transferFrom(from, to, tokenId) */\n      tag_125\n        /* \"tests/ERC721.sol\":4347:4351  from */\n      dup6\n        /* \"tests/ERC721.sol\":4353:4355  to */\n      dup6\n        /* \"tests/ERC721.sol\":4357:4364  tokenId */\n      dup6\n        /* \"tests/ERC721.sol\":4334:4346  transferFrom */\n      tag_35\n        /* \"tests/ERC721.sol\":4334:4365  transferFrom(from, to, tokenId) */\n      jump\t// in\n    tag_125:\n        /* \"tests/ERC721.sol\":4416:4417  0 */\n      0x00\n        /* \"tests/ERC721.sol\":4398:4400  to */\n      dup5\n        /* \"tests/ERC721.sol\":4398:4412  to.code.length */\n      0xffffffffffffffffffffffffffffffffffffffff\n      and\n      extcodesize\n        /* \"tests/ERC721.sol\":4398:4417  to.code.length == 0 */\n      eq\n        /* \"tests/ERC721.sol\":4398:4535  to.code.length == 0 || IERC721Receiver(to).onERC721Received(msg.sender, from, tokenId, data) == IERC721Receiver.onERC721Received.selector */\n      dup1\n      tag_126\n      jumpi\n      pop\n        /* \"tests/ERC721.sol\":4494:4535  IERC721Receiver.onERC721Received.selector */\n      shl(0xe0, 0x150b7a02)\n        /* \"tests/ERC721.sol\":4421:4535  IERC721Receiver(to).onERC721Received(msg.sender, from, tokenId, data) == IERC721Receiver.onERC721Received.selector */\n      not(0xffffffffffffffffffffffffffffffffffffffffffffffffffffffff)\n      and\n        /* \"tests/ERC721.sol\":4437:4439  to */\n      dup5\n        /* \"tests/ERC721.sol\":4421:4457  IERC721Receiver(to).onERC721Received */\n      0xffffffffffffffffffffffffffffffffffffffff\n      and\n      0x150b7a02\n        /* \"tests/ERC721.sol\":4458:4468  msg.sender */\n      caller\n        /* \"tests/ERC721.sol\":4470:4474  from */\n      dup9\n        /* \"tests/ERC721.sol\":4476:4483  tokenId */\n      dup8\n        /* \"tests/ERC721.sol\":4485:4489  data */\n      dup8\n      dup8\n        /* \"tests/ERC721.sol\":4421:4490  IERC721Receiver(to).onERC721Received(msg.sender, from, tokenId, data) */\n      mload(0x40)\n      dup7\n      0xffffffff\n      and\n      0xe0\n      shl\n      dup2\n      mstore\n      0x04\n      add\n      tag_127\n      swap6\n      swap5\n      swap4\n      swap3\n      swap2\n      swap1\n      tag_128\n      jump\t// in\n    tag_127:\n      0x20\n      mload(0x40)\n      dup1\n      dup4\n      sub\n      dup2\n      0x00\n      dup8\n      gas\n      call\n      iszero\n      dup1\n      iszero\n      tag_130\n      jumpi\n      returndatasize\n      0x00\n      dup1\n      returndatacopy\n      revert(0x00, returndatasize)\n    tag_130:\n      pop\n      pop\n      pop\n      pop\n      mload(0x40)\n      returndatasize\n      not(0x1f)\n      0x1f\n      dup3\n      add\n      and\n      dup3\n      add\n      dup1\n      0x40\n      mstore\n      pop\n      dup2\n      add\n      swap1\n      tag_131\n      swap2\n      swap1\n      tag_105\n      jump\t// in\n    tag_131:\n        /* \"tests/ERC721.sol\":4421:4535  IERC721Receiver(to).onERC721Received(msg.sender, from, tokenId, data) == IERC721Receiver.onERC721Received.selector */\n      not(0xffffffffffffffffffffffffffffffffffffffffffffffffffffffff)\n      and\n      eq\n        /* \"tests/ERC721.sol\":4398:4535  to.code.length == 0 || IERC721Receiver(to).onERC721Received(msg.sender, from, tokenId, data) == IERC721Receiver.onERC721Received.selector */\n    tag_126:\n        /* \"tests/ERC721.sol\":4376:4566  require(... */\n      tag_132\n      jumpi\n      mload(0x40)\n      0x08c379a000000000000000000000000000000000000000000000000000000000\n      dup2\n      mstore\n      0x04\n      add\n      tag_133\n      swap1\n      tag_108\n      jump\t// in\n    tag_133:\n      mload(0x40)\n      dup1\n      swap2\n      sub\n      swap1\n      revert\n    tag_132:\n        /* \"tests/ERC721.sol\":4181:4574  function safeTransferFrom(... */\n      pop\n      pop\n      pop\n      pop\n      pop\n      jump\t// out\n        /* \"tests/ERC721.sol\":1748:1818  mapping (address => mapping (address => bool)) public isApprovedForAll */\n    tag_66:\n      mstore(0x20, 0x03)\n      dup2\n      0x00\n      mstore\n      mstore(0x20, keccak256(0x00, 0x40))\n      dup1\n      0x00\n      mstore\n      keccak256(0x00, 0x40)\n      0x00\n      swap2\n      pop\n      swap2\n      pop\n      swap1\n      sload\n      swap1\n      0x0100\n      exp\n      swap1\n      div\n      0xff\n      and\n      dup2\n      jump\t// out\n        /* \"tests/ERC721.sol\":3139:3374  function _isApprovedOrOwner(address owner, address spender, uint tokenId) internal view returns(bool) {... */\n    tag_87:\n        /* \"tests/ERC721.sol\":3235:3239  bool */\n      0x00\n        /* \"tests/ERC721.sol\":3271:3276  owner */\n      dup4\n        /* \"tests/ERC721.sol\":3260:3276  spender == owner */\n      0xffffffffffffffffffffffffffffffffffffffff\n      and\n        /* \"tests/ERC721.sol\":3260:3267  spender */\n      dup4\n        /* \"tests/ERC721.sol\":3260:3276  spender == owner */\n      0xffffffffffffffffffffffffffffffffffffffff\n      and\n      eq\n        /* \"tests/ERC721.sol\":3260:3322  spender == owner ... */\n      dup1\n      tag_135\n      jumpi\n      pop\n        /* \"tests/ERC721.sol\":3290:3306  isApprovedForAll */\n      0x03\n        /* \"tests/ERC721.sol\":3290:3313  isApprovedForAll[owner] */\n      0x00\n        /* \"tests/ERC721.sol\":3307:3312  owner */\n      dup6\n        /* \"tests/ERC721.sol\":3290:3313  isApprovedForAll[owner] */\n      0xffffffffffffffffffffffffffffffffffffffff\n      and\n      0xffffffffffffffffffffffffffffffffffffffff\n      and\n      dup2\n      mstore\n      0x20\n      add\n      swap1\n      dup2\n      mstore\n      0x20\n      add\n      0x00\n      keccak256\n        /* \"tests/ERC721.sol\":3290:3322  isApprovedForAll[owner][spender] */\n      0x00\n        /* \"tests/ERC721.sol\":3314:3321  spender */\n      dup5\n        /* \"tests/ERC721.sol\":3290:3322  isApprovedForAll[owner][spender] */\n      0xffffffffffffffffffffffffffffffffffffffff\n      and\n      0xffffffffffffffffffffffffffffffffffffffff\n      and\n      dup2\n      mstore\n      0x20\n      add\n      swap1\n      dup2\n      mstore\n      0x20\n      add\n      0x00\n      keccak256\n      0x00\n      swap1\n      sload\n      swap1\n      0x0100\n      exp\n      swap1\n      div\n      0xff\n      and\n        /* \"tests/ERC721.sol\":3260:3322  spender == owner ... */\n    tag_135:\n        /* \"tests/ERC721.sol\":3260:3365  spender == owner ... */\n      dup1\n      tag_136\n      jumpi\n      pop\n        /* \"tests/ERC721.sol\":3346:3356  _approvals */\n      0x02\n        /* \"tests/ERC721.sol\":3346:3365  _approvals[tokenId] */\n      0x00\n        /* \"tests/ERC721.sol\":3357:3364  tokenId */\n      dup4\n        /* \"tests/ERC721.sol\":3346:3365  _approvals[tokenId] */\n      dup2\n      mstore\n      0x20\n      add\n      swap1\n      dup2\n      mstore\n      0x20\n      add\n      0x00\n      keccak256\n      0x00\n      swap1\n      sload\n      swap1\n      0x0100\n      exp\n      swap1\n      div\n      0xffffffffffffffffffffffffffffffffffffffff\n      and\n        /* \"tests/ERC721.sol\":3335:3365  spender == _approvals[tokenId] */\n      0xffffffffffffffffffffffffffffffffffffffff\n      and\n        /* \"tests/ERC721.sol\":3335:3342  spender */\n      dup4\n        /* \"tests/ERC721.sol\":3335:3365  spender == _approvals[tokenId] */\n      0xffffffffffffffffffffffffffffffffffffffff\n      and\n      eq\n        /* \"tests/ERC721.sol\":3260:3365  spender == owner ... */\n    tag_136:\n        /* \"tests/ERC721.sol\":3252:3366  return (spender == owner ... */\n      swap1\n      pop\n        /* \"tests/ERC721.sol\":3139:3374  function _isApprovedOrOwner(address owner, address spender, uint tokenId) internal view returns(bool) {... */\n      swap4\n      swap3\n      pop\n      pop\n      pop\n      jump\t// out\n        /* \"tests/ERC721.sol\":4582:4877  function _mint(address to, uint tokenId) internal  {... */\n    tag_96:\n        /* \"tests/ERC721.sol\":4666:4667  0 */\n      0x00\n        /* \"tests/ERC721.sol\":4652:4668  to != address(0) */\n      0xffffffffffffffffffffffffffffffffffffffff\n      and\n        /* \"tests/ERC721.sol\":4652:4654  to */\n      dup3\n        /* \"tests/ERC721.sol\":4652:4668  to != address(0) */\n      0xffffffffffffffffffffffffffffffffffffffff\n      and\n      sub\n        /* \"tests/ERC721.sol\":4644:4690  require(to != address(0), \"to = zero address\") */\n      tag_138\n      jumpi\n      mload(0x40)\n      0x08c379a000000000000000000000000000000000000000000000000000000000\n      dup2\n      mstore\n      0x04\n      add\n      tag_139\n      swap1\n      tag_85\n      jump\t// in\n    tag_139:\n      mload(0x40)\n      dup1\n      swap2\n      sub\n      swap1\n      revert\n    tag_138:\n        /* \"tests/ERC721.sol\":4738:4739  0 */\n      0x00\n        /* \"tests/ERC721.sol\":4709:4740  _ownerOf[tokenId] == address(0) */\n      0xffffffffffffffffffffffffffffffffffffffff\n      and\n        /* \"tests/ERC721.sol\":4709:4717  _ownerOf */\n      0x00\n        /* \"tests/ERC721.sol\":4709:4726  _ownerOf[tokenId] */\n      dup1\n        /* \"tests/ERC721.sol\":4718:4725  tokenId */\n      dup4\n        /* \"tests/ERC721.sol\":4709:4726  _ownerOf[tokenId] */\n      dup2\n      mstore\n      0x20\n      add\n      swap1\n      dup2\n      mstore\n      0x20\n      add\n      0x00\n      keccak256\n      0x00\n      swap1\n      sload\n      swap1\n      0x0100\n      exp\n      swap1\n      div\n      0xffffffffffffffffffffffffffffffffffffffff\n      and\n        /* \"tests/ERC721.sol\":4709:4740  _ownerOf[tokenId] == address(0) */\n      0xffffffffffffffffffffffffffffffffffffffff\n      and\n      eq\n        /* \"tests/ERC721.sol\":4701:4757  require(_ownerOf[tokenId] == address(0), \"token exists\") */\n      tag_140\n      jumpi\n      mload(0x40)\n      0x08c379a000000000000000000000000000000000000000000000000000000000\n      dup2\n      mstore\n      0x04\n      add\n      tag_141\n      swap1\n      tag_142\n      jump\t// in\n    tag_141:\n      mload(0x40)\n      dup1\n      swap2\n      sub\n      swap1\n      revert\n    tag_140:\n        /* \"tests/ERC721.sol\":4770:4780  _balanceOf */\n      0x01\n        /* \"tests/ERC721.sol\":4770:4784  _balanceOf[to] */\n      0x00\n        /* \"tests/ERC721.sol\":4781:4783  to */\n      dup4\n        /* \"tests/ERC721.sol\":4770:4784  _balanceOf[to] */\n      0xffffffffffffffffffffffffffffffffffffffff\n      and\n      0xffffffffffffffffffffffffffffffffffffffff\n      and\n      dup2\n      mstore\n      0x20\n      add\n      swap1\n      dup2\n      mstore\n      0x20\n      add\n      0x00\n      keccak256\n      0x00\n        /* \"tests/ERC721.sol\":4770:4787  _balanceOf[to] ++ */\n      dup2\n      sload\n      dup1\n      swap3\n      swap2\n      swap1\n      tag_143\n      swap1\n      tag_93\n      jump\t// in\n    tag_143:\n      swap2\n      swap1\n      pop\n      sstore\n      pop\n        /* \"tests/ERC721.sol\":4818:4820  to */\n      dup2\n        /* \"tests/ERC721.sol\":4798:4806  _ownerOf */\n      0x00\n        /* \"tests/ERC721.sol\":4798:4815  _ownerOf[tokenId] */\n      dup1\n        /* \"tests/ERC721.sol\":4807:4814  tokenId */\n      dup4\n        /* \"tests/ERC721.sol\":4798:4815  _ownerOf[tokenId] */\n      dup2\n      mstore\n      0x20\n      add\n      swap1\n      dup2\n      mstore\n      0x20\n      add\n      0x00\n      keccak256\n      0x00\n        /* \"tests/ERC721.sol\":4798:4820  _ownerOf[tokenId] = to */\n      0x0100\n      exp\n      dup2\n      sload\n      dup2\n      0xffffffffffffffffffffffffffffffffffffffff\n      mul\n      not\n      and\n      swap1\n      dup4\n      0xffffffffffffffffffffffffffffffffffffffff\n      and\n      mul\n      or\n      swap1\n      sstore\n      pop\n        /* \"tests/ERC721.sol\":4861:4868  tokenId */\n      dup1\n        /* \"tests/ERC721.sol\":4857:4859  to */\n      dup3\n        /* \"tests/ERC721.sol\":4836:4869  Transfer(address(0), to, tokenId) */\n      0xffffffffffffffffffffffffffffffffffffffff\n      and\n        /* \"tests/ERC721.sol\":4853:4854  0 */\n      0x00\n        /* \"tests/ERC721.sol\":4836:4869  Transfer(address(0), to, tokenId) */\n      0xffffffffffffffffffffffffffffffffffffffff\n      and\n      0xddf252ad1be2c89b69c2b068fc378daa952ba7f163c4a11628f55a4df523b3ef\n      mload(0x40)\n      mload(0x40)\n      dup1\n      swap2\n      sub\n      swap1\n      log4\n        /* \"tests/ERC721.sol\":4582:4877  function _mint(address to, uint tokenId) internal  {... */\n      pop\n      pop\n      jump\t// out\n        /* \"tests/ERC721.sol\":4885:5197  function _burn(uint tokenId) internal {... */\n    tag_114:\n        /* \"tests/ERC721.sol\":4934:4947  address owner */\n      0x00\n        /* \"tests/ERC721.sol\":4950:4958  _ownerOf */\n      dup1\n        /* \"tests/ERC721.sol\":4950:4967  _ownerOf[tokenId] */\n      0x00\n        /* \"tests/ERC721.sol\":4959:4966  tokenId */\n      dup4\n        /* \"tests/ERC721.sol\":4950:4967  _ownerOf[tokenId] */\n      dup2\n      mstore\n      0x20\n      add\n      swap1\n      dup2\n      mstore\n      0x20\n      add\n      0x00\n      keccak256\n      0x00\n      swap1\n      sload\n      swap1\n      0x0100\n      exp\n      swap1\n      div\n      0xffffffffffffffffffffffffffffffffffffffff\n      and\n        /* \"tests/ERC721.sol\":4934:4967  address owner = _ownerOf[tokenId] */\n      swap1\n      pop\n        /* \"tests/ERC721.sol\":5003:5004  0 */\n      0x00\n        /* \"tests/ERC721.sol\":4986:5005  owner != address(0) */\n      0xffffffffffffffffffffffffffffffffffffffff\n      and\n        /* \"tests/ERC721.sol\":4986:4991  owner */\n      dup2\n        /* \"tests/ERC721.sol\":4986:5005  owner != address(0) */\n      0xffffffffffffffffffffffffffffffffffffffff\n      and\n      sub\n        /* \"tests/ERC721.sol\":4978:5030  require(owner != address(0), \"token does not exist\") */\n      tag_145\n      jumpi\n      mload(0x40)\n      0x08c379a000000000000000000000000000000000000000000000000000000000\n      dup2\n      mstore\n      0x04\n      add\n      tag_146\n      swap1\n      tag_147\n      jump\t// in\n    tag_146:\n      mload(0x40)\n      dup1\n      swap2\n      sub\n      swap1\n      revert\n    tag_145:\n        /* \"tests/ERC721.sol\":5043:5053  _balanceOf */\n      0x01\n        /* \"tests/ERC721.sol\":5043:5060  _balanceOf[owner] */\n      0x00\n        /* \"tests/ERC721.sol\":5054:5059  owner */\n      dup3\n        /* \"tests/ERC721.sol\":5043:5060  _balanceOf[owner] */\n      0xffffffffffffffffffffffffffffffffffffffff\n      and\n      0xffffffffffffffffffffffffffffffffffffffff\n      and\n      dup2\n      mstore\n      0x20\n      add\n      swap1\n      dup2\n      mstore\n      0x20\n      add\n      0x00\n      keccak256\n      0x00\n        /* \"tests/ERC721.sol\":5043:5063  _balanceOf[owner] -- */\n      dup2\n      sload\n      dup1\n      swap3\n      swap2\n      swap1\n      tag_148\n      swap1\n      tag_91\n      jump\t// in\n    tag_148:\n      swap2\n      swap1\n      pop\n      sstore\n      pop\n        /* \"tests/ERC721.sol\":5081:5089  _ownerOf */\n      0x00\n        /* \"tests/ERC721.sol\":5081:5098  _ownerOf[tokenId] */\n      dup1\n        /* \"tests/ERC721.sol\":5090:5097  tokenId */\n      dup4\n        /* \"tests/ERC721.sol\":5081:5098  _ownerOf[tokenId] */\n      dup2\n      mstore\n      0x20\n      add\n      swap1\n      dup2\n      mstore\n      0x20\n      add\n      0x00\n      keccak256\n      0x00\n        /* \"tests/ERC721.sol\":5074:5098  delete _ownerOf[tokenId] */\n      0x0100\n      exp\n      dup2\n      sload\n      swap1\n      0xffffffffffffffffffffffffffffffffffffffff\n      mul\n      not\n      and\n      swap1\n      sstore\n        /* \"tests/ERC721.sol\":5116:5126  _approvals */\n      0x02\n        /* \"tests/ERC721.sol\":5116:5135  _approvals[tokenId] */\n      0x00\n        /* \"tests/ERC721.sol\":5127:5134  tokenId */\n      dup4\n        /* \"tests/ERC721.sol\":5116:5135  _approvals[tokenId] */\n      dup2\n      mstore\n      0x20\n      add\n      swap1\n      dup2\n      mstore\n      0x20\n      add\n      0x00\n      keccak256\n      0x00\n        /* \"tests/ERC721.sol\":5109:5135  delete _approvals[tokenId] */\n      0x0100\n      exp\n      dup2\n      sload\n      swap1\n      0xffffffffffffffffffffffffffffffffffffffff\n      mul\n      not\n      and\n      swap1\n      sstore\n        /* \"tests/ERC721.sol\":5181:5188  tokenId */\n      dup2\n        /* \"tests/ERC721.sol\":5177:5178  0 */\n      0x00\n        /* \"tests/ERC721.sol\":5153:5189  Transfer(owner, address(0), tokenId) */\n      0xffffffffffffffffffffffffffffffffffffffff\n      and\n        /* \"tests/ERC721.sol\":5162:5167  owner */\n      dup3\n        /* \"tests/ERC721.sol\":5153:5189  Transfer(owner, address(0), tokenId) */\n      0xffffffffffffffffffffffffffffffffffffffff\n      and\n      0xddf252ad1be2c89b69c2b068fc378daa952ba7f163c4a11628f55a4df523b3ef\n      mload(0x40)\n      mload(0x40)\n      dup1\n      swap2\n      sub\n      swap1\n      log4\n        /* \"tests/ERC721.sol\":4923:5197  {... */\n      pop\n        /* \"tests/ERC721.sol\":4885:5197  function _burn(uint tokenId) internal {... */\n      pop\n      jump\t// out\n        /* \"#utility.yul\":88:205   */\n    tag_150:\n        /* \"#utility.yul\":197:198   */\n      0x00\n        /* \"#utility.yul\":194:195   */\n      dup1\n        /* \"#utility.yul\":187:199   */\n      revert\n        /* \"#utility.yul\":211:328   */\n    tag_151:\n        /* \"#utility.yul\":320:321   */\n      0x00\n        /* \"#utility.yul\":317:318   */\n      dup1\n        /* \"#utility.yul\":310:322   */\n      revert\n        /* \"#utility.yul\":334:483   */\n    tag_152:\n        /* \"#utility.yul\":370:377   */\n      0x00\n        /* \"#utility.yul\":410:476   */\n      0xffffffff00000000000000000000000000000000000000000000000000000000\n        /* \"#utility.yul\":403:408   */\n      dup3\n        /* \"#utility.yul\":399:477   */\n      and\n        /* \"#utility.yul\":388:477   */\n      swap1\n      pop\n        /* \"#utility.yul\":334:483   */\n      swap2\n      swap1\n      pop\n      jump\t// out\n        /* \"#utility.yul\":489:609   */\n    tag_153:\n        /* \"#utility.yul\":561:584   */\n      tag_205\n        /* \"#utility.yul\":578:583   */\n      dup2\n        /* \"#utility.yul\":561:584   */\n      tag_152\n      jump\t// in\n    tag_205:\n        /* \"#utility.yul\":554:559   */\n      dup2\n        /* \"#utility.yul\":551:585   */\n      eq\n        /* \"#utility.yul\":541:603   */\n      tag_206\n      jumpi\n        /* \"#utility.yul\":599:600   */\n      0x00\n        /* \"#utility.yul\":596:597   */\n      dup1\n        /* \"#utility.yul\":589:601   */\n      revert\n        /* \"#utility.yul\":541:603   */\n    tag_206:\n        /* \"#utility.yul\":489:609   */\n      pop\n      jump\t// out\n        /* \"#utility.yul\":615:752   */\n    tag_154:\n        /* \"#utility.yul\":660:665   */\n      0x00\n        /* \"#utility.yul\":698:704   */\n      dup2\n        /* \"#utility.yul\":685:705   */\n      calldataload\n        /* \"#utility.yul\":676:705   */\n      swap1\n      pop\n        /* \"#utility.yul\":714:746   */\n      tag_208\n        /* \"#utility.yul\":740:745   */\n      dup2\n        /* \"#utility.yul\":714:746   */\n      tag_153\n      jump\t// in\n    tag_208:\n        /* \"#utility.yul\":615:752   */\n      swap3\n      swap2\n      pop\n      pop\n      jump\t// out\n        /* \"#utility.yul\":758:1085   */\n    tag_18:\n        /* \"#utility.yul\":816:822   */\n      0x00\n        /* \"#utility.yul\":865:867   */\n      0x20\n        /* \"#utility.yul\":853:862   */\n      dup3\n        /* \"#utility.yul\":844:851   */\n      dup5\n        /* \"#utility.yul\":840:863   */\n      sub\n        /* \"#utility.yul\":836:868   */\n      slt\n        /* \"#utility.yul\":833:952   */\n      iszero\n      tag_210\n      jumpi\n        /* \"#utility.yul\":871:950   */\n      tag_211\n      tag_150\n      jump\t// in\n    tag_211:\n        /* \"#utility.yul\":833:952   */\n    tag_210:\n        /* \"#utility.yul\":991:992   */\n      0x00\n        /* \"#utility.yul\":1016:1068   */\n      tag_212\n        /* \"#utility.yul\":1060:1067   */\n      dup5\n        /* \"#utility.yul\":1051:1057   */\n      dup3\n        /* \"#utility.yul\":1040:1049   */\n      dup6\n        /* \"#utility.yul\":1036:1058   */\n      add\n        /* \"#utility.yul\":1016:1068   */\n      tag_154\n      jump\t// in\n    tag_212:\n        /* \"#utility.yul\":1006:1068   */\n      swap2\n      pop\n        /* \"#utility.yul\":962:1078   */\n      pop\n        /* \"#utility.yul\":758:1085   */\n      swap3\n      swap2\n      pop\n      pop\n      jump\t// out\n        /* \"#utility.yul\":1091:1181   */\n    tag_155:\n        /* \"#utility.yul\":1125:1132   */\n      0x00\n        /* \"#utility.yul\":1168:1173   */\n      dup2\n        /* \"#utility.yul\":1161:1174   */\n      iszero\n        /* \"#utility.yul\":1154:1175   */\n      iszero\n        /* \"#utility.yul\":1143:1175   */\n      swap1\n      pop\n        /* \"#utility.yul\":1091:1181   */\n      swap2\n      swap1\n      pop\n      jump\t// out\n        /* \"#utility.yul\":1187:1296   */\n    tag_156:\n        /* \"#utility.yul\":1268:1289   */\n      tag_215\n        /* \"#utility.yul\":1283:1288   */\n      dup2\n        /* \"#utility.yul\":1268:1289   */\n      tag_155\n      jump\t// in\n    tag_215:\n        /* \"#utility.yul\":1263:1266   */\n      dup3\n        /* \"#utility.yul\":1256:1290   */\n      mstore\n        /* \"#utility.yul\":1187:1296   */\n      pop\n      pop\n      jump\t// out\n        /* \"#utility.yul\":1302:1512   */\n    tag_21:\n        /* \"#utility.yul\":1389:1393   */\n      0x00\n        /* \"#utility.yul\":1427:1429   */\n      0x20\n        /* \"#utility.yul\":1416:1425   */\n      dup3\n        /* \"#utility.yul\":1412:1430   */\n      add\n        /* \"#utility.yul\":1404:1430   */\n      swap1\n      pop\n        /* \"#utility.yul\":1440:1505   */\n      tag_217\n        /* \"#utility.yul\":1502:1503   */\n      0x00\n        /* \"#utility.yul\":1491:1500   */\n      dup4\n        /* \"#utility.yul\":1487:1504   */\n      add\n        /* \"#utility.yul\":1478:1484   */\n      dup5\n        /* \"#utility.yul\":1440:1505   */\n      tag_156\n      jump\t// in\n    tag_217:\n        /* \"#utility.yul\":1302:1512   */\n      swap3\n      swap2\n      pop\n      pop\n      jump\t// out\n        /* \"#utility.yul\":1518:1595   */\n    tag_157:\n        /* \"#utility.yul\":1555:1562   */\n      0x00\n        /* \"#utility.yul\":1584:1589   */\n      dup2\n        /* \"#utility.yul\":1573:1589   */\n      swap1\n      pop\n        /* \"#utility.yul\":1518:1595   */\n      swap2\n      swap1\n      pop\n      jump\t// out\n        /* \"#utility.yul\":1601:1723   */\n    tag_158:\n        /* \"#utility.yul\":1674:1698   */\n      tag_220\n        /* \"#utility.yul\":1692:1697   */\n      dup2\n        /* \"#utility.yul\":1674:1698   */\n      tag_157\n      jump\t// in\n    tag_220:\n        /* \"#utility.yul\":1667:1672   */\n      dup2\n        /* \"#utility.yul\":1664:1699   */\n      eq\n        /* \"#utility.yul\":1654:1717   */\n      tag_221\n      jumpi\n        /* \"#utility.yul\":1713:1714   */\n      0x00\n        /* \"#utility.yul\":1710:1711   */\n      dup1\n        /* \"#utility.yul\":1703:1715   */\n      revert\n        /* \"#utility.yul\":1654:1717   */\n    tag_221:\n        /* \"#utility.yul\":1601:1723   */\n      pop\n      jump\t// out\n        /* \"#utility.yul\":1729:1868   */\n    tag_159:\n        /* \"#utility.yul\":1775:1780   */\n      0x00\n        /* \"#utility.yul\":1813:1819   */\n      dup2\n        /* \"#utility.yul\":1800:1820   */\n      calldataload\n        /* \"#utility.yul\":1791:1820   */\n      swap1\n      pop\n        /* \"#utility.yul\":1829:1862   */\n      tag_223\n        /* \"#utility.yul\":1856:1861   */\n      dup2\n        /* \"#utility.yul\":1829:1862   */\n      tag_158\n      jump\t// in\n    tag_223:\n        /* \"#utility.yul\":1729:1868   */\n      swap3\n      swap2\n      pop\n      pop\n      jump\t// out\n        /* \"#utility.yul\":1874:2203   */\n    tag_24:\n        /* \"#utility.yul\":1933:1939   */\n      0x00\n        /* \"#utility.yul\":1982:1984   */\n      0x20\n        /* \"#utility.yul\":1970:1979   */\n      dup3\n        /* \"#utility.yul\":1961:1968   */\n      dup5\n        /* \"#utility.yul\":1957:1980   */\n      sub\n        /* \"#utility.yul\":1953:1985   */\n      slt\n        /* \"#utility.yul\":1950:2069   */\n      iszero\n      tag_225\n      jumpi\n        /* \"#utility.yul\":1988:2067   */\n      tag_226\n      tag_150\n      jump\t// in\n    tag_226:\n        /* \"#utility.yul\":1950:2069   */\n    tag_225:\n        /* \"#utility.yul\":2108:2109   */\n      0x00\n        /* \"#utility.yul\":2133:2186   */\n      tag_227\n        /* \"#utility.yul\":2178:2185   */\n      dup5\n        /* \"#utility.yul\":2169:2175   */\n      dup3\n        /* \"#utility.yul\":2158:2167   */\n      dup6\n        /* \"#utility.yul\":2154:2176   */\n      add\n        /* \"#utility.yul\":2133:2186   */\n      tag_159\n      jump\t// in\n    tag_227:\n        /* \"#utility.yul\":2123:2186   */\n      swap2\n      pop\n        /* \"#utility.yul\":2079:2196   */\n      pop\n        /* \"#utility.yul\":1874:2203   */\n      swap3\n      swap2\n      pop\n      pop\n      jump\t// out\n        /* \"#utility.yul\":2209:2335   */\n    tag_160:\n        /* \"#utility.yul\":2246:2253   */\n      0x00\n        /* \"#utility.yul\":2286:2328   */\n      0xffffffffffffffffffffffffffffffffffffffff\n        /* \"#utility.yul\":2279:2284   */\n      dup3\n        /* \"#utility.yul\":2275:2329   */\n      and\n        /* \"#utility.yul\":2264:2329   */\n      swap1\n      pop\n        /* \"#utility.yul\":2209:2335   */\n      swap2\n      swap1\n      pop\n      jump\t// out\n        /* \"#utility.yul\":2341:2437   */\n    tag_161:\n        /* \"#utility.yul\":2378:2385   */\n      0x00\n        /* \"#utility.yul\":2407:2431   */\n      tag_230\n        /* \"#utility.yul\":2425:2430   */\n      dup3\n        /* \"#utility.yul\":2407:2431   */\n      tag_160\n      jump\t// in\n    tag_230:\n        /* \"#utility.yul\":2396:2431   */\n      swap1\n      pop\n        /* \"#utility.yul\":2341:2437   */\n      swap2\n      swap1\n      pop\n      jump\t// out\n        /* \"#utility.yul\":2443:2561   */\n    tag_162:\n        /* \"#utility.yul\":2530:2554   */\n      tag_232\n        /* \"#utility.yul\":2548:2553   */\n      dup2\n        /* \"#utility.yul\":2530:2554   */\n      tag_161\n      jump\t// in\n    tag_232:\n        /* \"#utility.yul\":2525:2528   */\n      dup3\n        /* \"#utility.yul\":2518:2555   */\n      mstore\n        /* \"#utility.yul\":2443:2561   */\n      pop\n      pop\n      jump\t// out\n        /* \"#utility.yul\":2567:2789   */\n    tag_27:\n        /* \"#utility.yul\":2660:2664   */\n      0x00\n        /* \"#utility.yul\":2698:2700   */\n      0x20\n        /* \"#utility.yul\":2687:2696   */\n      dup3\n        /* \"#utility.yul\":2683:2701   */\n      add\n        /* \"#utility.yul\":2675:2701   */\n      swap1\n      pop\n        /* \"#utility.yul\":2711:2782   */\n      tag_234\n        /* \"#utility.yul\":2779:2780   */\n      0x00\n        /* \"#utility.yul\":2768:2777   */\n      dup4\n        /* \"#utility.yul\":2764:2781   */\n      add\n        /* \"#utility.yul\":2755:2761   */\n      dup5\n        /* \"#utility.yul\":2711:2782   */\n      tag_162\n      jump\t// in\n    tag_234:\n        /* \"#utility.yul\":2567:2789   */\n      swap3\n      swap2\n      pop\n      pop\n      jump\t// out\n        /* \"#utility.yul\":2795:2917   */\n    tag_163:\n        /* \"#utility.yul\":2868:2892   */\n      tag_236\n        /* \"#utility.yul\":2886:2891   */\n      dup2\n        /* \"#utility.yul\":2868:2892   */\n      tag_161\n      jump\t// in\n    tag_236:\n        /* \"#utility.yul\":2861:2866   */\n      dup2\n        /* \"#utility.yul\":2858:2893   */\n      eq\n        /* \"#utility.yul\":2848:2911   */\n      tag_237\n      jumpi\n        /* \"#utility.yul\":2907:2908   */\n      0x00\n        /* \"#utility.yul\":2904:2905   */\n      dup1\n        /* \"#utility.yul\":2897:2909   */\n      revert\n        /* \"#utility.yul\":2848:2911   */\n    tag_237:\n        /* \"#utility.yul\":2795:2917   */\n      pop\n      jump\t// out\n        /* \"#utility.yul\":2923:3062   */\n    tag_164:\n        /* \"#utility.yul\":2969:2974   */\n      0x00\n        /* \"#utility.yul\":3007:3013   */\n      dup2\n        /* \"#utility.yul\":2994:3014   */\n      calldataload\n        /* \"#utility.yul\":2985:3014   */\n      swap1\n      pop\n        /* \"#utility.yul\":3023:3056   */\n      tag_239\n        /* \"#utility.yul\":3050:3055   */\n      dup2\n        /* \"#utility.yul\":3023:3056   */\n      tag_163\n      jump\t// in\n    tag_239:\n        /* \"#utility.yul\":2923:3062   */\n      swap3\n      swap2\n      pop\n      pop\n      jump\t// out\n        /* \"#utility.yul\":3068:3542   */\n    tag_30:\n        /* \"#utility.yul\":3136:3142   */\n      0x00\n        /* \"#utility.yul\":3144:3150   */\n      dup1\n        /* \"#utility.yul\":3193:3195   */\n      0x40\n        /* \"#utility.yul\":3181:3190   */\n      dup4\n        /* \"#utility.yul\":3172:3179   */\n      dup6\n        /* \"#utility.yul\":3168:3191   */\n      sub\n        /* \"#utility.yul\":3164:3196   */\n      slt\n        /* \"#utility.yul\":3161:3280   */\n      iszero\n      tag_241\n      jumpi\n        /* \"#utility.yul\":3199:3278   */\n      tag_242\n      tag_150\n      jump\t// in\n    tag_242:\n        /* \"#utility.yul\":3161:3280   */\n    tag_241:\n        /* \"#utility.yul\":3319:3320   */\n      0x00\n        /* \"#utility.yul\":3344:3397   */\n      tag_243\n        /* \"#utility.yul\":3389:3396   */\n      dup6\n        /* \"#utility.yul\":3380:3386   */\n      dup3\n        /* \"#utility.yul\":3369:3378   */\n      dup7\n        /* \"#utility.yul\":3365:3387   */\n      add\n        /* \"#utility.yul\":3344:3397   */\n      tag_164\n      jump\t// in\n    tag_243:\n        /* \"#utility.yul\":3334:3397   */\n      swap3\n      pop\n        /* \"#utility.yul\":3290:3407   */\n      pop\n        /* \"#utility.yul\":3446:3448   */\n      0x20\n        /* \"#utility.yul\":3472:3525   */\n      tag_244\n        /* \"#utility.yul\":3517:3524   */\n      dup6\n        /* \"#utility.yul\":3508:3514   */\n      dup3\n        /* \"#utility.yul\":3497:3506   */\n      dup7\n        /* \"#utility.yul\":3493:3515   */\n      add\n        /* \"#utility.yul\":3472:3525   */\n      tag_159\n      jump\t// in\n    tag_244:\n        /* \"#utility.yul\":3462:3525   */\n      swap2\n      pop\n        /* \"#utility.yul\":3417:3535   */\n      pop\n        /* \"#utility.yul\":3068:3542   */\n      swap3\n      pop\n      swap3\n      swap1\n      pop\n      jump\t// out\n        /* \"#utility.yul\":3548:4167   */\n    tag_34:\n        /* \"#utility.yul\":3625:3631   */\n      0x00\n        /* \"#utility.yul\":3633:3639   */\n      dup1\n        /* \"#utility.yul\":3641:3647   */\n      0x00\n        /* \"#utility.yul\":3690:3692   */\n      0x60\n        /* \"#utility.yul\":3678:3687   */\n      dup5\n        /* \"#utility.yul\":3669:3676   */\n      dup7\n        /* \"#utility.yul\":3665:3688   */\n      sub\n        /* \"#utility.yul\":3661:3693   */\n      slt\n        /* \"#utility.yul\":3658:3777   */\n      iszero\n      tag_246\n      jumpi\n        /* \"#utility.yul\":3696:3775   */\n      tag_247\n      tag_150\n      jump\t// in\n    tag_247:\n        /* \"#utility.yul\":3658:3777   */\n    tag_246:\n        /* \"#utility.yul\":3816:3817   */\n      0x00\n        /* \"#utility.yul\":3841:3894   */\n      tag_248\n        /* \"#utility.yul\":3886:3893   */\n      dup7\n        /* \"#utility.yul\":3877:3883   */\n      dup3\n        /* \"#utility.yul\":3866:3875   */\n      dup8\n        /* \"#utility.yul\":3862:3884   */\n      add\n        /* \"#utility.yul\":3841:3894   */\n      tag_164\n      jump\t// in\n    tag_248:\n        /* \"#utility.yul\":3831:3894   */\n      swap4\n      pop\n        /* \"#utility.yul\":3787:3904   */\n      pop\n        /* \"#utility.yul\":3943:3945   */\n      0x20\n        /* \"#utility.yul\":3969:4022   */\n      tag_249\n        /* \"#utility.yul\":4014:4021   */\n      dup7\n        /* \"#utility.yul\":4005:4011   */\n      dup3\n        /* \"#utility.yul\":3994:4003   */\n      dup8\n        /* \"#utility.yul\":3990:4012   */\n      add\n        /* \"#utility.yul\":3969:4022   */\n      tag_164\n      jump\t// in\n    tag_249:\n        /* \"#utility.yul\":3959:4022   */\n      swap3\n      pop\n        /* \"#utility.yul\":3914:4032   */\n      pop\n        /* \"#utility.yul\":4071:4073   */\n      0x40\n        /* \"#utility.yul\":4097:4150   */\n      tag_250\n        /* \"#utility.yul\":4142:4149   */\n      dup7\n        /* \"#utility.yul\":4133:4139   */\n      dup3\n        /* \"#utility.yul\":4122:4131   */\n      dup8\n        /* \"#utility.yul\":4118:4140   */\n      add\n        /* \"#utility.yul\":4097:4150   */\n      tag_159\n      jump\t// in\n    tag_250:\n        /* \"#utility.yul\":4087:4150   */\n      swap2\n      pop\n        /* \"#utility.yul\":4042:4160   */\n      pop\n        /* \"#utility.yul\":3548:4167   */\n      swap3\n      pop\n      swap3\n      pop\n      swap3\n      jump\t// out\n        /* \"#utility.yul\":4173:4502   */\n    tag_51:\n        /* \"#utility.yul\":4232:4238   */\n      0x00\n        /* \"#utility.yul\":4281:4283   */\n      0x20\n        /* \"#utility.yul\":4269:4278   */\n      dup3\n        /* \"#utility.yul\":4260:4267   */\n      dup5\n        /* \"#utility.yul\":4256:4279   */\n      sub\n        /* \"#utility.yul\":4252:4284   */\n      slt\n        /* \"#utility.yul\":4249:4368   */\n      iszero\n      tag_252\n      jumpi\n        /* \"#utility.yul\":4287:4366   */\n      tag_253\n      tag_150\n      jump\t// in\n    tag_253:\n        /* \"#utility.yul\":4249:4368   */\n    tag_252:\n        /* \"#utility.yul\":4407:4408   */\n      0x00\n        /* \"#utility.yul\":4432:4485   */\n      tag_254\n        /* \"#utility.yul\":4477:4484   */\n      dup5\n        /* \"#utility.yul\":4468:4474   */\n      dup3\n        /* \"#utility.yul\":4457:4466   */\n      dup6\n        /* \"#utility.yul\":4453:4475   */\n      add\n        /* \"#utility.yul\":4432:4485   */\n      tag_164\n      jump\t// in\n    tag_254:\n        /* \"#utility.yul\":4422:4485   */\n      swap2\n      pop\n        /* \"#utility.yul\":4378:4495   */\n      pop\n        /* \"#utility.yul\":4173:4502   */\n      swap3\n      swap2\n      pop\n      pop\n      jump\t// out\n        /* \"#utility.yul\":4508:4626   */\n    tag_165:\n        /* \"#utility.yul\":4595:4619   */\n      tag_256\n        /* \"#utility.yul\":4613:4618   */\n      dup2\n        /* \"#utility.yul\":4595:4619   */\n      tag_157\n      jump\t// in\n    tag_256:\n        /* \"#utility.yul\":4590:4593   */\n      dup3\n        /* \"#utility.yul\":4583:4620   */\n      mstore\n        /* \"#utility.yul\":4508:4626   */\n      pop\n      pop\n      jump\t// out\n        /* \"#utility.yul\":4632:4854   */\n    tag_54:\n        /* \"#utility.yul\":4725:4729   */\n      0x00\n        /* \"#utility.yul\":4763:4765   */\n      0x20\n        /* \"#utility.yul\":4752:4761   */\n      dup3\n        /* \"#utility.yul\":4748:4766   */\n      add\n        /* \"#utility.yul\":4740:4766   */\n      swap1\n      pop\n        /* \"#utility.yul\":4776:4847   */\n      tag_258\n        /* \"#utility.yul\":4844:4845   */\n      0x00\n        /* \"#utility.yul\":4833:4842   */\n      dup4\n        /* \"#utility.yul\":4829:4846   */\n      add\n        /* \"#utility.yul\":4820:4826   */\n      dup5\n        /* \"#utility.yul\":4776:4847   */\n      tag_165\n      jump\t// in\n    tag_258:\n        /* \"#utility.yul\":4632:4854   */\n      swap3\n      swap2\n      pop\n      pop\n      jump\t// out\n        /* \"#utility.yul\":4860:4976   */\n    tag_166:\n        /* \"#utility.yul\":4930:4951   */\n      tag_260\n        /* \"#utility.yul\":4945:4950   */\n      dup2\n        /* \"#utility.yul\":4930:4951   */\n      tag_155\n      jump\t// in\n    tag_260:\n        /* \"#utility.yul\":4923:4928   */\n      dup2\n        /* \"#utility.yul\":4920:4952   */\n      eq\n        /* \"#utility.yul\":4910:4970   */\n      tag_261\n      jumpi\n        /* \"#utility.yul\":4966:4967   */\n      0x00\n        /* \"#utility.yul\":4963:4964   */\n      dup1\n        /* \"#utility.yul\":4956:4968   */\n      revert\n        /* \"#utility.yul\":4910:4970   */\n    tag_261:\n        /* \"#utility.yul\":4860:4976   */\n      pop\n      jump\t// out\n        /* \"#utility.yul\":4982:5115   */\n    tag_167:\n        /* \"#utility.yul\":5025:5030   */\n      0x00\n        /* \"#utility.yul\":5063:5069   */\n      dup2\n        /* \"#utility.yul\":5050:5070   */\n      calldataload\n        /* \"#utility.yul\":5041:5070   */\n      swap1\n      pop\n        /* \"#utility.yul\":5079:5109   */\n      tag_263\n        /* \"#utility.yul\":5103:5108   */\n      dup2\n        /* \"#utility.yul\":5079:5109   */\n      tag_166\n      jump\t// in\n    tag_263:\n        /* \"#utility.yul\":4982:5115   */\n      swap3\n      swap2\n      pop\n      pop\n      jump\t// out\n        /* \"#utility.yul\":5121:5589   */\n    tag_57:\n        /* \"#utility.yul\":5186:5192   */\n      0x00\n        /* \"#utility.yul\":5194:5200   */\n      dup1\n        /* \"#utility.yul\":5243:5245   */\n      0x40\n        /* \"#utility.yul\":5231:5240   */\n      dup4\n        /* \"#utility.yul\":5222:5229   */\n      dup6\n        /* \"#utility.yul\":5218:5241   */\n      sub\n        /* \"#utility.yul\":5214:5246   */\n      slt\n        /* \"#utility.yul\":5211:5330   */\n      iszero\n      tag_265\n      jumpi\n        /* \"#utility.yul\":5249:5328   */\n      tag_266\n      tag_150\n      jump\t// in\n    tag_266:\n        /* \"#utility.yul\":5211:5330   */\n    tag_265:\n        /* \"#utility.yul\":5369:5370   */\n      0x00\n        /* \"#utility.yul\":5394:5447   */\n      tag_267\n        /* \"#utility.yul\":5439:5446   */\n      dup6\n        /* \"#utility.yul\":5430:5436   */\n      dup3\n        /* \"#utility.yul\":5419:5428   */\n      dup7\n        /* \"#utility.yul\":5415:5437   */\n      add\n        /* \"#utility.yul\":5394:5447   */\n      tag_164\n      jump\t// in\n    tag_267:\n        /* \"#utility.yul\":5384:5447   */\n      swap3\n      pop\n        /* \"#utility.yul\":5340:5457   */\n      pop\n        /* \"#utility.yul\":5496:5498   */\n      0x20\n        /* \"#utility.yul\":5522:5572   */\n      tag_268\n        /* \"#utility.yul\":5564:5571   */\n      dup6\n        /* \"#utility.yul\":5555:5561   */\n      dup3\n        /* \"#utility.yul\":5544:5553   */\n      dup7\n        /* \"#utility.yul\":5540:5562   */\n      add\n        /* \"#utility.yul\":5522:5572   */\n      tag_167\n      jump\t// in\n    tag_268:\n        /* \"#utility.yul\":5512:5572   */\n      swap2\n      pop\n        /* \"#utility.yul\":5467:5582   */\n      pop\n        /* \"#utility.yul\":5121:5589   */\n      swap3\n      pop\n      swap3\n      swap1\n      pop\n      jump\t// out\n        /* \"#utility.yul\":5595:5712   */\n    tag_168:\n        /* \"#utility.yul\":5704:5705   */\n      0x00\n        /* \"#utility.yul\":5701:5702   */\n      dup1\n        /* \"#utility.yul\":5694:5706   */\n      revert\n        /* \"#utility.yul\":5718:5835   */\n    tag_169:\n        /* \"#utility.yul\":5827:5828   */\n      0x00\n        /* \"#utility.yul\":5824:5825   */\n      dup1\n        /* \"#utility.yul\":5817:5829   */\n      revert\n        /* \"#utility.yul\":5841:5958   */\n    tag_170:\n        /* \"#utility.yul\":5950:5951   */\n      0x00\n        /* \"#utility.yul\":5947:5948   */\n      dup1\n        /* \"#utility.yul\":5940:5952   */\n      revert\n        /* \"#utility.yul\":5977:6529   */\n    tag_171:\n        /* \"#utility.yul\":6034:6042   */\n      0x00\n        /* \"#utility.yul\":6044:6050   */\n      dup1\n        /* \"#utility.yul\":6094:6097   */\n      dup4\n        /* \"#utility.yul\":6087:6091   */\n      0x1f\n        /* \"#utility.yul\":6079:6085   */\n      dup5\n        /* \"#utility.yul\":6075:6092   */\n      add\n        /* \"#utility.yul\":6071:6098   */\n      slt\n        /* \"#utility.yul\":6061:6183   */\n      tag_273\n      jumpi\n        /* \"#utility.yul\":6102:6181   */\n      tag_274\n      tag_168\n      jump\t// in\n    tag_274:\n        /* \"#utility.yul\":6061:6183   */\n    tag_273:\n        /* \"#utility.yul\":6215:6221   */\n      dup3\n        /* \"#utility.yul\":6202:6222   */\n      calldataload\n        /* \"#utility.yul\":6192:6222   */\n      swap1\n      pop\n        /* \"#utility.yul\":6245:6263   */\n      0xffffffffffffffff\n        /* \"#utility.yul\":6237:6243   */\n      dup2\n        /* \"#utility.yul\":6234:6264   */\n      gt\n        /* \"#utility.yul\":6231:6348   */\n      iszero\n      tag_275\n      jumpi\n        /* \"#utility.yul\":6267:6346   */\n      tag_276\n      tag_169\n      jump\t// in\n    tag_276:\n        /* \"#utility.yul\":6231:6348   */\n    tag_275:\n        /* \"#utility.yul\":6381:6385   */\n      0x20\n        /* \"#utility.yul\":6373:6379   */\n      dup4\n        /* \"#utility.yul\":6369:6386   */\n      add\n        /* \"#utility.yul\":6357:6386   */\n      swap2\n      pop\n        /* \"#utility.yul\":6435:6438   */\n      dup4\n        /* \"#utility.yul\":6427:6431   */\n      0x01\n        /* \"#utility.yul\":6419:6425   */\n      dup3\n        /* \"#utility.yul\":6415:6432   */\n      mul\n        /* \"#utility.yul\":6405:6413   */\n      dup4\n        /* \"#utility.yul\":6401:6433   */\n      add\n        /* \"#utility.yul\":6398:6439   */\n      gt\n        /* \"#utility.yul\":6395:6523   */\n      iszero\n      tag_277\n      jumpi\n        /* \"#utility.yul\":6442:6521   */\n      tag_278\n      tag_170\n      jump\t// in\n    tag_278:\n        /* \"#utility.yul\":6395:6523   */\n    tag_277:\n        /* \"#utility.yul\":5977:6529   */\n      swap3\n      pop\n      swap3\n      swap1\n      pop\n      jump\t// out\n        /* \"#utility.yul\":6535:7498   */\n    tag_61:\n        /* \"#utility.yul\":6632:6638   */\n      0x00\n        /* \"#utility.yul\":6640:6646   */\n      dup1\n        /* \"#utility.yul\":6648:6654   */\n      0x00\n        /* \"#utility.yul\":6656:6662   */\n      dup1\n        /* \"#utility.yul\":6664:6670   */\n      0x00\n        /* \"#utility.yul\":6713:6716   */\n      0x80\n        /* \"#utility.yul\":6701:6710   */\n      dup7\n        /* \"#utility.yul\":6692:6699   */\n      dup9\n        /* \"#utility.yul\":6688:6711   */\n      sub\n        /* \"#utility.yul\":6684:6717   */\n      slt\n        /* \"#utility.yul\":6681:6801   */\n      iszero\n      tag_280\n      jumpi\n        /* \"#utility.yul\":6720:6799   */\n      tag_281\n      tag_150\n      jump\t// in\n    tag_281:\n        /* \"#utility.yul\":6681:6801   */\n    tag_280:\n        /* \"#utility.yul\":6840:6841   */\n      0x00\n        /* \"#utility.yul\":6865:6918   */\n      tag_282\n        /* \"#utility.yul\":6910:6917   */\n      dup9\n        /* \"#utility.yul\":6901:6907   */\n      dup3\n        /* \"#utility.yul\":6890:6899   */\n      dup10\n        /* \"#utility.yul\":6886:6908   */\n      add\n        /* \"#utility.yul\":6865:6918   */\n      tag_164\n      jump\t// in\n    tag_282:\n        /* \"#utility.yul\":6855:6918   */\n      swap6\n      pop\n        /* \"#utility.yul\":6811:6928   */\n      pop\n        /* \"#utility.yul\":6967:6969   */\n      0x20\n        /* \"#utility.yul\":6993:7046   */\n      tag_283\n        /* \"#utility.yul\":7038:7045   */\n      dup9\n        /* \"#utility.yul\":7029:7035   */\n      dup3\n        /* \"#utility.yul\":7018:7027   */\n      dup10\n        /* \"#utility.yul\":7014:7036   */\n      add\n        /* \"#utility.yul\":6993:7046   */\n      tag_164\n      jump\t// in\n    tag_283:\n        /* \"#utility.yul\":6983:7046   */\n      swap5\n      pop\n        /* \"#utility.yul\":6938:7056   */\n      pop\n        /* \"#utility.yul\":7095:7097   */\n      0x40\n        /* \"#utility.yul\":7121:7174   */\n      tag_284\n        /* \"#utility.yul\":7166:7173   */\n      dup9\n        /* \"#utility.yul\":7157:7163   */\n      dup3\n        /* \"#utility.yul\":7146:7155   */\n      dup10\n        /* \"#utility.yul\":7142:7164   */\n      add\n        /* \"#utility.yul\":7121:7174   */\n      tag_159\n      jump\t// in\n    tag_284:\n        /* \"#utility.yul\":7111:7174   */\n      swap4\n      pop\n        /* \"#utility.yul\":7066:7184   */\n      pop\n        /* \"#utility.yul\":7251:7253   */\n      0x60\n        /* \"#utility.yul\":7240:7249   */\n      dup7\n        /* \"#utility.yul\":7236:7254   */\n      add\n        /* \"#utility.yul\":7223:7255   */\n      calldataload\n        /* \"#utility.yul\":7282:7300   */\n      0xffffffffffffffff\n        /* \"#utility.yul\":7274:7280   */\n      dup2\n        /* \"#utility.yul\":7271:7301   */\n      gt\n        /* \"#utility.yul\":7268:7385   */\n      iszero\n      tag_285\n      jumpi\n        /* \"#utility.yul\":7304:7383   */\n      tag_286\n      tag_151\n      jump\t// in\n    tag_286:\n        /* \"#utility.yul\":7268:7385   */\n    tag_285:\n        /* \"#utility.yul\":7417:7481   */\n      tag_287\n        /* \"#utility.yul\":7473:7480   */\n      dup9\n        /* \"#utility.yul\":7464:7470   */\n      dup3\n        /* \"#utility.yul\":7453:7462   */\n      dup10\n        /* \"#utility.yul\":7449:7471   */\n      add\n        /* \"#utility.yul\":7417:7481   */\n      tag_171\n      jump\t// in\n    tag_287:\n        /* \"#utility.yul\":7399:7481   */\n      swap3\n      pop\n      swap3\n      pop\n        /* \"#utility.yul\":7194:7491   */\n      pop\n        /* \"#utility.yul\":6535:7498   */\n      swap3\n      swap6\n      pop\n      swap3\n      swap6\n      swap1\n      swap4\n      pop\n      jump\t// out\n        /* \"#utility.yul\":7504:7978   */\n    tag_65:\n        /* \"#utility.yul\":7572:7578   */\n      0x00\n        /* \"#utility.yul\":7580:7586   */\n      dup1\n        /* \"#utility.yul\":7629:7631   */\n      0x40\n        /* \"#utility.yul\":7617:7626   */\n      dup4\n        /* \"#utility.yul\":7608:7615   */\n      dup6\n        /* \"#utility.yul\":7604:7627   */\n      sub\n        /* \"#utility.yul\":7600:7632   */\n      slt\n        /* \"#utility.yul\":7597:7716   */\n      iszero\n      tag_289\n      jumpi\n        /* \"#utility.yul\":7635:7714   */\n      tag_290\n      tag_150\n      jump\t// in\n    tag_290:\n        /* \"#utility.yul\":7597:7716   */\n    tag_289:\n        /* \"#utility.yul\":7755:7756   */\n      0x00\n        /* \"#utility.yul\":7780:7833   */\n      tag_291\n        /* \"#utility.yul\":7825:7832   */\n      dup6\n        /* \"#utility.yul\":7816:7822   */\n      dup3\n        /* \"#utility.yul\":7805:7814   */\n      dup7\n        /* \"#utility.yul\":7801:7823   */\n      add\n        /* \"#utility.yul\":7780:7833   */\n      tag_164\n      jump\t// in\n    tag_291:\n        /* \"#utility.yul\":7770:7833   */\n      swap3\n      pop\n        /* \"#utility.yul\":7726:7843   */\n      pop\n        /* \"#utility.yul\":7882:7884   */\n      0x20\n        /* \"#utility.yul\":7908:7961   */\n      tag_292\n        /* \"#utility.yul\":7953:7960   */\n      dup6\n        /* \"#utility.yul\":7944:7950   */\n      dup3\n        /* \"#utility.yul\":7933:7942   */\n      dup7\n        /* \"#utility.yul\":7929:7951   */\n      add\n        /* \"#utility.yul\":7908:7961   */\n      tag_164\n      jump\t// in\n    tag_292:\n        /* \"#utility.yul\":7898:7961   */\n      swap2\n      pop\n        /* \"#utility.yul\":7853:7971   */\n      pop\n        /* \"#utility.yul\":7504:7978   */\n      swap3\n      pop\n      swap3\n      swap1\n      pop\n      jump\t// out\n        /* \"#utility.yul\":7984:8153   */\n    tag_172:\n        /* \"#utility.yul\":8068:8079   */\n      0x00\n        /* \"#utility.yul\":8102:8108   */\n      dup3\n        /* \"#utility.yul\":8097:8100   */\n      dup3\n        /* \"#utility.yul\":8090:8109   */\n      mstore\n        /* \"#utility.yul\":8142:8146   */\n      0x20\n        /* \"#utility.yul\":8137:8140   */\n      dup3\n        /* \"#utility.yul\":8133:8147   */\n      add\n        /* \"#utility.yul\":8118:8147   */\n      swap1\n      pop\n        /* \"#utility.yul\":7984:8153   */\n      swap3\n      swap2\n      pop\n      pop\n      jump\t// out\n        /* \"#utility.yul\":8159:8326   */\n    tag_173:\n        /* \"#utility.yul\":8299:8318   */\n      0x746f6b656e4964206e6f74206578697473000000000000000000000000000000\n        /* \"#utility.yul\":8295:8296   */\n      0x00\n        /* \"#utility.yul\":8287:8293   */\n      dup3\n        /* \"#utility.yul\":8283:8297   */\n      add\n        /* \"#utility.yul\":8276:8319   */\n      mstore\n        /* \"#utility.yul\":8159:8326   */\n      pop\n      jump\t// out\n        /* \"#utility.yul\":8332:8698   */\n    tag_174:\n        /* \"#utility.yul\":8474:8477   */\n      0x00\n        /* \"#utility.yul\":8495:8562   */\n      tag_296\n        /* \"#utility.yul\":8559:8561   */\n      0x11\n        /* \"#utility.yul\":8554:8557   */\n      dup4\n        /* \"#utility.yul\":8495:8562   */\n      tag_172\n      jump\t// in\n    tag_296:\n        /* \"#utility.yul\":8488:8562   */\n      swap2\n      pop\n        /* \"#utility.yul\":8571:8664   */\n      tag_297\n        /* \"#utility.yul\":8660:8663   */\n      dup3\n        /* \"#utility.yul\":8571:8664   */\n      tag_173\n      jump\t// in\n    tag_297:\n        /* \"#utility.yul\":8689:8691   */\n      0x20\n        /* \"#utility.yul\":8684:8687   */\n      dup3\n        /* \"#utility.yul\":8680:8692   */\n      add\n        /* \"#utility.yul\":8673:8692   */\n      swap1\n      pop\n        /* \"#utility.yul\":8332:8698   */\n      swap2\n      swap1\n      pop\n      jump\t// out\n        /* \"#utility.yul\":8704:9123   */\n    tag_73:\n        /* \"#utility.yul\":8870:8874   */\n      0x00\n        /* \"#utility.yul\":8908:8910   */\n      0x20\n        /* \"#utility.yul\":8897:8906   */\n      dup3\n        /* \"#utility.yul\":8893:8911   */\n      add\n        /* \"#utility.yul\":8885:8911   */\n      swap1\n      pop\n        /* \"#utility.yul\":8957:8966   */\n      dup2\n        /* \"#utility.yul\":8951:8955   */\n      dup2\n        /* \"#utility.yul\":8947:8967   */\n      sub\n        /* \"#utility.yul\":8943:8944   */\n      0x00\n        /* \"#utility.yul\":8932:8941   */\n      dup4\n        /* \"#utility.yul\":8928:8945   */\n      add\n        /* \"#utility.yul\":8921:8968   */\n      mstore\n        /* \"#utility.yul\":8985:9116   */\n      tag_299\n        /* \"#utility.yul\":9111:9115   */\n      dup2\n        /* \"#utility.yul\":8985:9116   */\n      tag_174\n      jump\t// in\n    tag_299:\n        /* \"#utility.yul\":8977:9116   */\n      swap1\n      pop\n        /* \"#utility.yul\":8704:9123   */\n      swap2\n      swap1\n      pop\n      jump\t// out\n        /* \"#utility.yul\":9129:9293   */\n    tag_175:\n        /* \"#utility.yul\":9269:9285   */\n      0x6e6f7420617574686f72697a6564000000000000000000000000000000000000\n        /* \"#utility.yul\":9265:9266   */\n      0x00\n        /* \"#utility.yul\":9257:9263   */\n      dup3\n        /* \"#utility.yul\":9253:9267   */\n      add\n        /* \"#utility.yul\":9246:9286   */\n      mstore\n        /* \"#utility.yul\":9129:9293   */\n      pop\n      jump\t// out\n        /* \"#utility.yul\":9299:9665   */\n    tag_176:\n        /* \"#utility.yul\":9441:9444   */\n      0x00\n        /* \"#utility.yul\":9462:9529   */\n      tag_302\n        /* \"#utility.yul\":9526:9528   */\n      0x0e\n        /* \"#utility.yul\":9521:9524   */\n      dup4\n        /* \"#utility.yul\":9462:9529   */\n      tag_172\n      jump\t// in\n    tag_302:\n        /* \"#utility.yul\":9455:9529   */\n      swap2\n      pop\n        /* \"#utility.yul\":9538:9631   */\n      tag_303\n        /* \"#utility.yul\":9627:9630   */\n      dup3\n        /* \"#utility.yul\":9538:9631   */\n      tag_175\n      jump\t// in\n    tag_303:\n        /* \"#utility.yul\":9656:9658   */\n      0x20\n        /* \"#utility.yul\":9651:9654   */\n      dup3\n        /* \"#utility.yul\":9647:9659   */\n      add\n        /* \"#utility.yul\":9640:9659   */\n      swap1\n      pop\n        /* \"#utility.yul\":9299:9665   */\n      swap2\n      swap1\n      pop\n      jump\t// out\n        /* \"#utility.yul\":9671:10090   */\n    tag_78:\n        /* \"#utility.yul\":9837:9841   */\n      0x00\n        /* \"#utility.yul\":9875:9877   */\n      0x20\n        /* \"#utility.yul\":9864:9873   */\n      dup3\n        /* \"#utility.yul\":9860:9878   */\n      add\n        /* \"#utility.yul\":9852:9878   */\n      swap1\n      pop\n        /* \"#utility.yul\":9924:9933   */\n      dup2\n        /* \"#utility.yul\":9918:9922   */\n      dup2\n        /* \"#utility.yul\":9914:9934   */\n      sub\n        /* \"#utility.yul\":9910:9911   */\n      0x00\n        /* \"#utility.yul\":9899:9908   */\n      dup4\n        /* \"#utility.yul\":9895:9912   */\n      add\n        /* \"#utility.yul\":9888:9935   */\n      mstore\n        /* \"#utility.yul\":9952:10083   */\n      tag_305\n        /* \"#utility.yul\":10078:10082   */\n      dup2\n        /* \"#utility.yul\":9952:10083   */\n      tag_176\n      jump\t// in\n    tag_305:\n        /* \"#utility.yul\":9944:10083   */\n      swap1\n      pop\n        /* \"#utility.yul\":9671:10090   */\n      swap2\n      swap1\n      pop\n      jump\t// out\n        /* \"#utility.yul\":10096:10259   */\n    tag_177:\n        /* \"#utility.yul\":10236:10251   */\n      0x66726f6d20213d206f776e657200000000000000000000000000000000000000\n        /* \"#utility.yul\":10232:10233   */\n      0x00\n        /* \"#utility.yul\":10224:10230   */\n      dup3\n        /* \"#utility.yul\":10220:10234   */\n      add\n        /* \"#utility.yul\":10213:10252   */\n      mstore\n        /* \"#utility.yul\":10096:10259   */\n      pop\n      jump\t// out\n        /* \"#utility.yul\":10265:10631   */\n    tag_178:\n        /* \"#utility.yul\":10407:10410   */\n      0x00\n        /* \"#utility.yul\":10428:10495   */\n      tag_308\n        /* \"#utility.yul\":10492:10494   */\n      0x0d\n        /* \"#utility.yul\":10487:10490   */\n      dup4\n        /* \"#utility.yul\":10428:10495   */\n      tag_172\n      jump\t// in\n    tag_308:\n        /* \"#utility.yul\":10421:10495   */\n      swap2\n      pop\n        /* \"#utility.yul\":10504:10597   */\n      tag_309\n        /* \"#utility.yul\":10593:10596   */\n      dup3\n        /* \"#utility.yul\":10504:10597   */\n      tag_177\n      jump\t// in\n    tag_309:\n        /* \"#utility.yul\":10622:10624   */\n      0x20\n        /* \"#utility.yul\":10617:10620   */\n      dup3\n        /* \"#utility.yul\":10613:10625   */\n      add\n        /* \"#utility.yul\":10606:10625   */\n      swap1\n      pop\n        /* \"#utility.yul\":10265:10631   */\n      swap2\n      swap1\n      pop\n      jump\t// out\n        /* \"#utility.yul\":10637:11056   */\n    tag_82:\n        /* \"#utility.yul\":10803:10807   */\n      0x00\n        /* \"#utility.yul\":10841:10843   */\n      0x20\n        /* \"#utility.yul\":10830:10839   */\n      dup3\n        /* \"#utility.yul\":10826:10844   */\n      add\n        /* \"#utility.yul\":10818:10844   */\n      swap1\n      pop\n        /* \"#utility.yul\":10890:10899   */\n      dup2\n        /* \"#utility.yul\":10884:10888   */\n      dup2\n        /* \"#utility.yul\":10880:10900   */\n      sub\n        /* \"#utility.yul\":10876:10877   */\n      0x00\n        /* \"#utility.yul\":10865:10874   */\n      dup4\n        /* \"#utility.yul\":10861:10878   */\n      add\n        /* \"#utility.yul\":10854:10901   */\n      mstore\n        /* \"#utility.yul\":10918:11049   */\n      tag_311\n        /* \"#utility.yul\":11044:11048   */\n      dup2\n        /* \"#utility.yul\":10918:11049   */\n      tag_178\n      jump\t// in\n    tag_311:\n        /* \"#utility.yul\":10910:11049   */\n      swap1\n      pop\n        /* \"#utility.yul\":10637:11056   */\n      swap2\n      swap1\n      pop\n      jump\t// out\n        /* \"#utility.yul\":11062:11229   */\n    tag_179:\n        /* \"#utility.yul\":11202:11221   */\n      0x746f203d207a65726f2061646472657373000000000000000000000000000000\n        /* \"#utility.yul\":11198:11199   */\n      0x00\n        /* \"#utility.yul\":11190:11196   */\n      dup3\n        /* \"#utility.yul\":11186:11200   */\n      add\n        /* \"#utility.yul\":11179:11222   */\n      mstore\n        /* \"#utility.yul\":11062:11229   */\n      pop\n      jump\t// out\n        /* \"#utility.yul\":11235:11601   */\n    tag_180:\n        /* \"#utility.yul\":11377:11380   */\n      0x00\n        /* \"#utility.yul\":11398:11465   */\n      tag_314\n        /* \"#utility.yul\":11462:11464   */\n      0x11\n        /* \"#utility.yul\":11457:11460   */\n      dup4\n        /* \"#utility.yul\":11398:11465   */\n      tag_172\n      jump\t// in\n    tag_314:\n        /* \"#utility.yul\":11391:11465   */\n      swap2\n      pop\n        /* \"#utility.yul\":11474:11567   */\n      tag_315\n        /* \"#utility.yul\":11563:11566   */\n      dup3\n        /* \"#utility.yul\":11474:11567   */\n      tag_179\n      jump\t// in\n    tag_315:\n        /* \"#utility.yul\":11592:11594   */\n      0x20\n        /* \"#utility.yul\":11587:11590   */\n      dup3\n        /* \"#utility.yul\":11583:11595   */\n      add\n        /* \"#utility.yul\":11576:11595   */\n      swap1\n      pop\n        /* \"#utility.yul\":11235:11601   */\n      swap2\n      swap1\n      pop\n      jump\t// out\n        /* \"#utility.yul\":11607:12026   */\n    tag_85:\n        /* \"#utility.yul\":11773:11777   */\n      0x00\n        /* \"#utility.yul\":11811:11813   */\n      0x20\n        /* \"#utility.yul\":11800:11809   */\n      dup3\n        /* \"#utility.yul\":11796:11814   */\n      add\n        /* \"#utility.yul\":11788:11814   */\n      swap1\n      pop\n        /* \"#utility.yul\":11860:11869   */\n      dup2\n        /* \"#utility.yul\":11854:11858   */\n      dup2\n        /* \"#utility.yul\":11850:11870   */\n      sub\n        /* \"#utility.yul\":11846:11847   */\n      0x00\n        /* \"#utility.yul\":11835:11844   */\n      dup4\n        /* \"#utility.yul\":11831:11848   */\n      add\n        /* \"#utility.yul\":11824:11871   */\n      mstore\n        /* \"#utility.yul\":11888:12019   */\n      tag_317\n        /* \"#utility.yul\":12014:12018   */\n      dup2\n        /* \"#utility.yul\":11888:12019   */\n      tag_180\n      jump\t// in\n    tag_317:\n        /* \"#utility.yul\":11880:12019   */\n      swap1\n      pop\n        /* \"#utility.yul\":11607:12026   */\n      swap2\n      swap1\n      pop\n      jump\t// out\n        /* \"#utility.yul\":12032:12212   */\n    tag_181:\n        /* \"#utility.yul\":12080:12157   */\n      0x4e487b7100000000000000000000000000000000000000000000000000000000\n        /* \"#utility.yul\":12077:12078   */\n      0x00\n        /* \"#utility.yul\":12070:12158   */\n      mstore\n        /* \"#utility.yul\":12177:12181   */\n      0x11\n        /* \"#utility.yul\":12174:12175   */\n      0x04\n        /* \"#utility.yul\":12167:12182   */\n      mstore\n        /* \"#utility.yul\":12201:12205   */\n      0x24\n        /* \"#utility.yul\":12198:12199   */\n      0x00\n        /* \"#utility.yul\":12191:12206   */\n      revert\n        /* \"#utility.yul\":12218:12389   */\n    tag_91:\n        /* \"#utility.yul\":12257:12260   */\n      0x00\n        /* \"#utility.yul\":12280:12304   */\n      tag_320\n        /* \"#utility.yul\":12298:12303   */\n      dup3\n        /* \"#utility.yul\":12280:12304   */\n      tag_157\n      jump\t// in\n    tag_320:\n        /* \"#utility.yul\":12271:12304   */\n      swap2\n      pop\n        /* \"#utility.yul\":12326:12330   */\n      0x00\n        /* \"#utility.yul\":12319:12324   */\n      dup3\n        /* \"#utility.yul\":12316:12331   */\n      sub\n        /* \"#utility.yul\":12313:12354   */\n      tag_321\n      jumpi\n        /* \"#utility.yul\":12334:12352   */\n      tag_322\n      tag_181\n      jump\t// in\n    tag_322:\n        /* \"#utility.yul\":12313:12354   */\n    tag_321:\n        /* \"#utility.yul\":12381:12382   */\n      0x01\n        /* \"#utility.yul\":12374:12379   */\n      dup3\n        /* \"#utility.yul\":12370:12383   */\n      sub\n        /* \"#utility.yul\":12363:12383   */\n      swap1\n      pop\n        /* \"#utility.yul\":12218:12389   */\n      swap2\n      swap1\n      pop\n      jump\t// out\n        /* \"#utility.yul\":12395:12628   */\n    tag_93:\n        /* \"#utility.yul\":12434:12437   */\n      0x00\n        /* \"#utility.yul\":12457:12481   */\n      tag_324\n        /* \"#utility.yul\":12475:12480   */\n      dup3\n        /* \"#utility.yul\":12457:12481   */\n      tag_157\n      jump\t// in\n    tag_324:\n        /* \"#utility.yul\":12448:12481   */\n      swap2\n      pop\n        /* \"#utility.yul\":12503:12569   */\n      0xffffffffffffffffffffffffffffffffffffffffffffffffffffffffffffffff\n        /* \"#utility.yul\":12496:12501   */\n      dup3\n        /* \"#utility.yul\":12493:12570   */\n      sub\n        /* \"#utility.yul\":12490:12593   */\n      tag_325\n      jumpi\n        /* \"#utility.yul\":12573:12591   */\n      tag_326\n      tag_181\n      jump\t// in\n    tag_326:\n        /* \"#utility.yul\":12490:12593   */\n    tag_325:\n        /* \"#utility.yul\":12620:12621   */\n      0x01\n        /* \"#utility.yul\":12613:12618   */\n      dup3\n        /* \"#utility.yul\":12609:12622   */\n      add\n        /* \"#utility.yul\":12602:12622   */\n      swap1\n      pop\n        /* \"#utility.yul\":12395:12628   */\n      swap2\n      swap1\n      pop\n      jump\t// out\n        /* \"#utility.yul\":12634:12802   */\n    tag_182:\n        /* \"#utility.yul\":12717:12728   */\n      0x00\n        /* \"#utility.yul\":12751:12757   */\n      dup3\n        /* \"#utility.yul\":12746:12749   */\n      dup3\n        /* \"#utility.yul\":12739:12758   */\n      mstore\n        /* \"#utility.yul\":12791:12795   */\n      0x20\n        /* \"#utility.yul\":12786:12789   */\n      dup3\n        /* \"#utility.yul\":12782:12796   */\n      add\n        /* \"#utility.yul\":12767:12796   */\n      swap1\n      pop\n        /* \"#utility.yul\":12634:12802   */\n      swap3\n      swap2\n      pop\n      pop\n      jump\t// out\n        /* \"#utility.yul\":12808:12922   */\n    tag_183:\n      pop\n      jump\t// out\n        /* \"#utility.yul\":12928:13290   */\n    tag_184:\n        /* \"#utility.yul\":13069:13072   */\n      0x00\n        /* \"#utility.yul\":13090:13155   */\n      tag_330\n        /* \"#utility.yul\":13153:13154   */\n      0x00\n        /* \"#utility.yul\":13148:13151   */\n      dup4\n        /* \"#utility.yul\":13090:13155   */\n      tag_182\n      jump\t// in\n    tag_330:\n        /* \"#utility.yul\":13083:13155   */\n      swap2\n      pop\n        /* \"#utility.yul\":13164:13257   */\n      tag_331\n        /* \"#utility.yul\":13253:13256   */\n      dup3\n        /* \"#utility.yul\":13164:13257   */\n      tag_183\n      jump\t// in\n    tag_331:\n        /* \"#utility.yul\":13282:13283   */\n      0x00\n        /* \"#utility.yul\":13277:13280   */\n      dup3\n        /* \"#utility.yul\":13273:13284   */\n      add\n        /* \"#utility.yul\":13266:13284   */\n      swap1\n      pop\n        /* \"#utility.yul\":12928:13290   */\n      swap2\n      swap1\n      pop\n      jump\t// out\n        /* \"#utility.yul\":13296:14044   */\n    tag_101:\n        /* \"#utility.yul\":13545:13549   */\n      0x00\n        /* \"#utility.yul\":13583:13586   */\n      0x80\n        /* \"#utility.yul\":13572:13581   */\n      dup3\n        /* \"#utility.yul\":13568:13587   */\n      add\n        /* \"#utility.yul\":13560:13587   */\n      swap1\n      pop\n        /* \"#utility.yul\":13597:13668   */\n      tag_333\n        /* \"#utility.yul\":13665:13666   */\n      0x00\n        /* \"#utility.yul\":13654:13663   */\n      dup4\n        /* \"#utility.yul\":13650:13667   */\n      add\n        /* \"#utility.yul\":13641:13647   */\n      dup7\n        /* \"#utility.yul\":13597:13668   */\n      tag_162\n      jump\t// in\n    tag_333:\n        /* \"#utility.yul\":13678:13750   */\n      tag_334\n        /* \"#utility.yul\":13746:13748   */\n      0x20\n        /* \"#utility.yul\":13735:13744   */\n      dup4\n        /* \"#utility.yul\":13731:13749   */\n      add\n        /* \"#utility.yul\":13722:13728   */\n      dup6\n        /* \"#utility.yul\":13678:13750   */\n      tag_162\n      jump\t// in\n    tag_334:\n        /* \"#utility.yul\":13760:13832   */\n      tag_335\n        /* \"#utility.yul\":13828:13830   */\n      0x40\n        /* \"#utility.yul\":13817:13826   */\n      dup4\n        /* \"#utility.yul\":13813:13831   */\n      add\n        /* \"#utility.yul\":13804:13810   */\n      dup5\n        /* \"#utility.yul\":13760:13832   */\n      tag_165\n      jump\t// in\n    tag_335:\n        /* \"#utility.yul\":13879:13888   */\n      dup2\n        /* \"#utility.yul\":13873:13877   */\n      dup2\n        /* \"#utility.yul\":13869:13889   */\n      sub\n        /* \"#utility.yul\":13864:13866   */\n      0x60\n        /* \"#utility.yul\":13853:13862   */\n      dup4\n        /* \"#utility.yul\":13849:13867   */\n      add\n        /* \"#utility.yul\":13842:13890   */\n      mstore\n        /* \"#utility.yul\":13907:14037   */\n      tag_336\n        /* \"#utility.yul\":14032:14036   */\n      dup2\n        /* \"#utility.yul\":13907:14037   */\n      tag_184\n      jump\t// in\n    tag_336:\n        /* \"#utility.yul\":13899:14037   */\n      swap1\n      pop\n        /* \"#utility.yul\":13296:14044   */\n      swap5\n      swap4\n      pop\n      pop\n      pop\n      pop\n      jump\t// out\n        /* \"#utility.yul\":14050:14191   */\n    tag_185:\n        /* \"#utility.yul\":14106:14111   */\n      0x00\n        /* \"#utility.yul\":14137:14143   */\n      dup2\n        /* \"#utility.yul\":14131:14144   */\n      mload\n        /* \"#utility.yul\":14122:14144   */\n      swap1\n      pop\n        /* \"#utility.yul\":14153:14185   */\n      tag_338\n        /* \"#utility.yul\":14179:14184   */\n      dup2\n        /* \"#utility.yul\":14153:14185   */\n      tag_153\n      jump\t// in\n    tag_338:\n        /* \"#utility.yul\":14050:14191   */\n      swap3\n      swap2\n      pop\n      pop\n      jump\t// out\n        /* \"#utility.yul\":14197:14546   */\n    tag_105:\n        /* \"#utility.yul\":14266:14272   */\n      0x00\n        /* \"#utility.yul\":14315:14317   */\n      0x20\n        /* \"#utility.yul\":14303:14312   */\n      dup3\n        /* \"#utility.yul\":14294:14301   */\n      dup5\n        /* \"#utility.yul\":14290:14313   */\n      sub\n        /* \"#utility.yul\":14286:14318   */\n      slt\n        /* \"#utility.yul\":14283:14402   */\n      iszero\n      tag_340\n      jumpi\n        /* \"#utility.yul\":14321:14400   */\n      tag_341\n      tag_150\n      jump\t// in\n    tag_341:\n        /* \"#utility.yul\":14283:14402   */\n    tag_340:\n        /* \"#utility.yul\":14441:14442   */\n      0x00\n        /* \"#utility.yul\":14466:14529   */\n      tag_342\n        /* \"#utility.yul\":14521:14528   */\n      dup5\n        /* \"#utility.yul\":14512:14518   */\n      dup3\n        /* \"#utility.yul\":14501:14510   */\n      dup6\n        /* \"#utility.yul\":14497:14519   */\n      add\n        /* \"#utility.yul\":14466:14529   */\n      tag_185\n      jump\t// in\n    tag_342:\n        /* \"#utility.yul\":14456:14529   */\n      swap2\n      pop\n        /* \"#utility.yul\":14412:14539   */\n      pop\n        /* \"#utility.yul\":14197:14546   */\n      swap3\n      swap2\n      pop\n      pop\n      jump\t// out\n        /* \"#utility.yul\":14552:14718   */\n    tag_186:\n        /* \"#utility.yul\":14692:14710   */\n      0x756e7361666520726563697069656e7400000000000000000000000000000000\n        /* \"#utility.yul\":14688:14689   */\n      0x00\n        /* \"#utility.yul\":14680:14686   */\n      dup3\n        /* \"#utility.yul\":14676:14690   */\n      add\n        /* \"#utility.yul\":14669:14711   */\n      mstore\n        /* \"#utility.yul\":14552:14718   */\n      pop\n      jump\t// out\n        /* \"#utility.yul\":14724:15090   */\n    tag_187:\n        /* \"#utility.yul\":14866:14869   */\n      0x00\n        /* \"#utility.yul\":14887:14954   */\n      tag_345\n        /* \"#utility.yul\":14951:14953   */\n      0x10\n        /* \"#utility.yul\":14946:14949   */\n      dup4\n        /* \"#utility.yul\":14887:14954   */\n      tag_172\n      jump\t// in\n    tag_345:\n        /* \"#utility.yul\":14880:14954   */\n      swap2\n      pop\n        /* \"#utility.yul\":14963:15056   */\n      tag_346\n        /* \"#utility.yul\":15052:15055   */\n      dup3\n        /* \"#utility.yul\":14963:15056   */\n      tag_186\n      jump\t// in\n    tag_346:\n        /* \"#utility.yul\":15081:15083   */\n      0x20\n        /* \"#utility.yul\":15076:15079   */\n      dup3\n        /* \"#utility.yul\":15072:15084   */\n      add\n        /* \"#utility.yul\":15065:15084   */\n      swap1\n      pop\n        /* \"#utility.yul\":14724:15090   */\n      swap2\n      swap1\n      pop\n      jump\t// out\n        /* \"#utility.yul\":15096:15515   */\n    tag_108:\n        /* \"#utility.yul\":15262:15266   */\n      0x00\n        /* \"#utility.yul\":15300:15302   */\n      0x20\n        /* \"#utility.yul\":15289:15298   */\n      dup3\n        /* \"#utility.yul\":15285:15303   */\n      add\n        /* \"#utility.yul\":15277:15303   */\n      swap1\n      pop\n        /* \"#utility.yul\":15349:15358   */\n      dup2\n        /* \"#utility.yul\":15343:15347   */\n      dup2\n        /* \"#utility.yul\":15339:15359   */\n      sub\n        /* \"#utility.yul\":15335:15336   */\n      0x00\n        /* \"#utility.yul\":15324:15333   */\n      dup4\n        /* \"#utility.yul\":15320:15337   */\n      add\n        /* \"#utility.yul\":15313:15360   */\n      mstore\n        /* \"#utility.yul\":15377:15508   */\n      tag_348\n        /* \"#utility.yul\":15503:15507   */\n      dup2\n        /* \"#utility.yul\":15377:15508   */\n      tag_187\n      jump\t// in\n    tag_348:\n        /* \"#utility.yul\":15369:15508   */\n      swap1\n      pop\n        /* \"#utility.yul\":15096:15515   */\n      swap2\n      swap1\n      pop\n      jump\t// out\n        /* \"#utility.yul\":15521:15680   */\n    tag_188:\n        /* \"#utility.yul\":15661:15672   */\n      0x6e6f74206f776e65720000000000000000000000000000000000000000000000\n        /* \"#utility.yul\":15657:15658   */\n      0x00\n        /* \"#utility.yul\":15649:15655   */\n      dup3\n        /* \"#utility.yul\":15645:15659   */\n      add\n        /* \"#utility.yul\":15638:15673   */\n      mstore\n        /* \"#utility.yul\":15521:15680   */\n      pop\n      jump\t// out\n        /* \"#utility.yul\":15686:16051   */\n    tag_189:\n        /* \"#utility.yul\":15828:15831   */\n      0x00\n        /* \"#utility.yul\":15849:15915   */\n      tag_351\n        /* \"#utility.yul\":15913:15914   */\n      0x09\n        /* \"#utility.yul\":15908:15911   */\n      dup4\n        /* \"#utility.yul\":15849:15915   */\n      tag_172\n      jump\t// in\n    tag_351:\n        /* \"#utility.yul\":15842:15915   */\n      swap2\n      pop\n        /* \"#utility.yul\":15924:16017   */\n      tag_352\n        /* \"#utility.yul\":16013:16016   */\n      dup3\n        /* \"#utility.yul\":15924:16017   */\n      tag_188\n      jump\t// in\n    tag_352:\n        /* \"#utility.yul\":16042:16044   */\n      0x20\n        /* \"#utility.yul\":16037:16040   */\n      dup3\n        /* \"#utility.yul\":16033:16045   */\n      add\n        /* \"#utility.yul\":16026:16045   */\n      swap1\n      pop\n        /* \"#utility.yul\":15686:16051   */\n      swap2\n      swap1\n      pop\n      jump\t// out\n        /* \"#utility.yul\":16057:16476   */\n    tag_112:\n        /* \"#utility.yul\":16223:16227   */\n      0x00\n        /* \"#utility.yul\":16261:16263   */\n      0x20\n        /* \"#utility.yul\":16250:16259   */\n      dup3\n        /* \"#utility.yul\":16246:16264   */\n      add\n        /* \"#utility.yul\":16238:16264   */\n      swap1\n      pop\n        /* \"#utility.yul\":16310:16319   */\n      dup2\n        /* \"#utility.yul\":16304:16308   */\n      dup2\n        /* \"#utility.yul\":16300:16320   */\n      sub\n        /* \"#utility.yul\":16296:16297   */\n      0x00\n        /* \"#utility.yul\":16285:16294   */\n      dup4\n        /* \"#utility.yul\":16281:16298   */\n      add\n        /* \"#utility.yul\":16274:16321   */\n      mstore\n        /* \"#utility.yul\":16338:16469   */\n      tag_354\n        /* \"#utility.yul\":16464:16468   */\n      dup2\n        /* \"#utility.yul\":16338:16469   */\n      tag_189\n      jump\t// in\n    tag_354:\n        /* \"#utility.yul\":16330:16469   */\n      swap1\n      pop\n        /* \"#utility.yul\":16057:16476   */\n      swap2\n      swap1\n      pop\n      jump\t// out\n        /* \"#utility.yul\":16482:16649   */\n    tag_190:\n        /* \"#utility.yul\":16622:16641   */\n      0x6f776e6572203d20616464726573732030000000000000000000000000000000\n        /* \"#utility.yul\":16618:16619   */\n      0x00\n        /* \"#utility.yul\":16610:16616   */\n      dup3\n        /* \"#utility.yul\":16606:16620   */\n      add\n        /* \"#utility.yul\":16599:16642   */\n      mstore\n        /* \"#utility.yul\":16482:16649   */\n      pop\n      jump\t// out\n        /* \"#utility.yul\":16655:17021   */\n    tag_191:\n        /* \"#utility.yul\":16797:16800   */\n      0x00\n        /* \"#utility.yul\":16818:16885   */\n      tag_357\n        /* \"#utility.yul\":16882:16884   */\n      0x11\n        /* \"#utility.yul\":16877:16880   */\n      dup4\n        /* \"#utility.yul\":16818:16885   */\n      tag_172\n      jump\t// in\n    tag_357:\n        /* \"#utility.yul\":16811:16885   */\n      swap2\n      pop\n        /* \"#utility.yul\":16894:16987   */\n      tag_358\n        /* \"#utility.yul\":16983:16986   */\n      dup3\n        /* \"#utility.yul\":16894:16987   */\n      tag_190\n      jump\t// in\n    tag_358:\n        /* \"#utility.yul\":17012:17014   */\n      0x20\n        /* \"#utility.yul\":17007:17010   */\n      dup3\n        /* \"#utility.yul\":17003:17015   */\n      add\n        /* \"#utility.yul\":16996:17015   */\n      swap1\n      pop\n        /* \"#utility.yul\":16655:17021   */\n      swap2\n      swap1\n      pop\n      jump\t// out\n        /* \"#utility.yul\":17027:17446   */\n    tag_118:\n        /* \"#utility.yul\":17193:17197   */\n      0x00\n        /* \"#utility.yul\":17231:17233   */\n      0x20\n        /* \"#utility.yul\":17220:17229   */\n      dup3\n        /* \"#utility.yul\":17216:17234   */\n      add\n        /* \"#utility.yul\":17208:17234   */\n      swap1\n      pop\n        /* \"#utility.yul\":17280:17289   */\n      dup2\n        /* \"#utility.yul\":17274:17278   */\n      dup2\n        /* \"#utility.yul\":17270:17290   */\n      sub\n        /* \"#utility.yul\":17266:17267   */\n      0x00\n        /* \"#utility.yul\":17255:17264   */\n      dup4\n        /* \"#utility.yul\":17251:17268   */\n      add\n        /* \"#utility.yul\":17244:17291   */\n      mstore\n        /* \"#utility.yul\":17308:17439   */\n      tag_360\n        /* \"#utility.yul\":17434:17438   */\n      dup2\n        /* \"#utility.yul\":17308:17439   */\n      tag_191\n      jump\t// in\n    tag_360:\n        /* \"#utility.yul\":17300:17439   */\n      swap1\n      pop\n        /* \"#utility.yul\":17027:17446   */\n      swap2\n      swap1\n      pop\n      jump\t// out\n        /* \"#utility.yul\":17452:17598   */\n    tag_192:\n        /* \"#utility.yul\":17549:17555   */\n      dup3\n        /* \"#utility.yul\":17544:17547   */\n      dup2\n        /* \"#utility.yul\":17539:17542   */\n      dup4\n        /* \"#utility.yul\":17526:17556   */\n      calldatacopy\n        /* \"#utility.yul\":17590:17591   */\n      0x00\n        /* \"#utility.yul\":17581:17587   */\n      dup4\n        /* \"#utility.yul\":17576:17579   */\n      dup4\n        /* \"#utility.yul\":17572:17588   */\n      add\n        /* \"#utility.yul\":17565:17592   */\n      mstore\n        /* \"#utility.yul\":17452:17598   */\n      pop\n      pop\n      pop\n      jump\t// out\n        /* \"#utility.yul\":17604:17706   */\n    tag_193:\n        /* \"#utility.yul\":17645:17651   */\n      0x00\n        /* \"#utility.yul\":17696:17698   */\n      0x1f\n        /* \"#utility.yul\":17692:17699   */\n      not\n        /* \"#utility.yul\":17687:17689   */\n      0x1f\n        /* \"#utility.yul\":17680:17685   */\n      dup4\n        /* \"#utility.yul\":17676:17690   */\n      add\n        /* \"#utility.yul\":17672:17700   */\n      and\n        /* \"#utility.yul\":17662:17700   */\n      swap1\n      pop\n        /* \"#utility.yul\":17604:17706   */\n      swap2\n      swap1\n      pop\n      jump\t// out\n        /* \"#utility.yul\":17734:18048   */\n    tag_194:\n        /* \"#utility.yul\":17830:17833   */\n      0x00\n        /* \"#utility.yul\":17851:17921   */\n      tag_364\n        /* \"#utility.yul\":17914:17920   */\n      dup4\n        /* \"#utility.yul\":17909:17912   */\n      dup6\n        /* \"#utility.yul\":17851:17921   */\n      tag_182\n      jump\t// in\n    tag_364:\n        /* \"#utility.yul\":17844:17921   */\n      swap4\n      pop\n        /* \"#utility.yul\":17931:17987   */\n      tag_365\n        /* \"#utility.yul\":17980:17986   */\n      dup4\n        /* \"#utility.yul\":17975:17978   */\n      dup6\n        /* \"#utility.yul\":17968:17973   */\n      dup5\n        /* \"#utility.yul\":17931:17987   */\n      tag_192\n      jump\t// in\n    tag_365:\n        /* \"#utility.yul\":18012:18041   */\n      tag_366\n        /* \"#utility.yul\":18034:18040   */\n      dup4\n        /* \"#utility.yul\":18012:18041   */\n      tag_193\n      jump\t// in\n    tag_366:\n        /* \"#utility.yul\":18007:18010   */\n      dup5\n        /* \"#utility.yul\":18003:18042   */\n      add\n        /* \"#utility.yul\":17996:18042   */\n      swap1\n      pop\n        /* \"#utility.yul\":17734:18048   */\n      swap4\n      swap3\n      pop\n      pop\n      pop\n      jump\t// out\n        /* \"#utility.yul\":18054:18714   */\n    tag_128:\n        /* \"#utility.yul\":18259:18263   */\n      0x00\n        /* \"#utility.yul\":18297:18300   */\n      0x80\n        /* \"#utility.yul\":18286:18295   */\n      dup3\n        /* \"#utility.yul\":18282:18301   */\n      add\n        /* \"#utility.yul\":18274:18301   */\n      swap1\n      pop\n        /* \"#utility.yul\":18311:18382   */\n      tag_368\n        /* \"#utility.yul\":18379:18380   */\n      0x00\n        /* \"#utility.yul\":18368:18377   */\n      dup4\n        /* \"#utility.yul\":18364:18381   */\n      add\n        /* \"#utility.yul\":18355:18361   */\n      dup9\n        /* \"#utility.yul\":18311:18382   */\n      tag_162\n      jump\t// in\n    tag_368:\n        /* \"#utility.yul\":18392:18464   */\n      tag_369\n        /* \"#utility.yul\":18460:18462   */\n      0x20\n        /* \"#utility.yul\":18449:18458   */\n      dup4\n        /* \"#utility.yul\":18445:18463   */\n      add\n        /* \"#utility.yul\":18436:18442   */\n      dup8\n        /* \"#utility.yul\":18392:18464   */\n      tag_162\n      jump\t// in\n    tag_369:\n        /* \"#utility.yul\":18474:18546   */\n      tag_370\n        /* \"#utility.yul\":18542:18544   */\n      0x40\n        /* \"#utility.yul\":18531:18540   */\n      dup4\n        /* \"#utility.yul\":18527:18545   */\n      add\n        /* \"#utility.yul\":18518:18524   */\n      dup7\n        /* \"#utility.yul\":18474:18546   */\n      tag_165\n      jump\t// in\n    tag_370:\n        /* \"#utility.yul\":18593:18602   */\n      dup2\n        /* \"#utility.yul\":18587:18591   */\n      dup2\n        /* \"#utility.yul\":18583:18603   */\n      sub\n        /* \"#utility.yul\":18578:18580   */\n      0x60\n        /* \"#utility.yul\":18567:18576   */\n      dup4\n        /* \"#utility.yul\":18563:18581   */\n      add\n        /* \"#utility.yul\":18556:18604   */\n      mstore\n        /* \"#utility.yul\":18621:18707   */\n      tag_371\n        /* \"#utility.yul\":18702:18706   */\n      dup2\n        /* \"#utility.yul\":18693:18699   */\n      dup5\n        /* \"#utility.yul\":18685:18691   */\n      dup7\n        /* \"#utility.yul\":18621:18707   */\n      tag_194\n      jump\t// in\n    tag_371:\n        /* \"#utility.yul\":18613:18707   */\n      swap1\n      pop\n        /* \"#utility.yul\":18054:18714   */\n      swap7\n      swap6\n      pop\n      pop\n      pop\n      pop\n      pop\n      pop\n      jump\t// out\n        /* \"#utility.yul\":18720:18882   */\n    tag_195:\n        /* \"#utility.yul\":18860:18874   */\n      0x746f6b656e206578697374730000000000000000000000000000000000000000\n        /* \"#utility.yul\":18856:18857   */\n      0x00\n        /* \"#utility.yul\":18848:18854   */\n      dup3\n        /* \"#utility.yul\":18844:18858   */\n      add\n        /* \"#utility.yul\":18837:18875   */\n      mstore\n        /* \"#utility.yul\":18720:18882   */\n      pop\n      jump\t// out\n        /* \"#utility.yul\":18888:19254   */\n    tag_196:\n        /* \"#utility.yul\":19030:19033   */\n      0x00\n        /* \"#utility.yul\":19051:19118   */\n      tag_374\n        /* \"#utility.yul\":19115:19117   */\n      0x0c\n        /* \"#utility.yul\":19110:19113   */\n      dup4\n        /* \"#utility.yul\":19051:19118   */\n      tag_172\n      jump\t// in\n    tag_374:\n        /* \"#utility.yul\":19044:19118   */\n      swap2\n      pop\n        /* \"#utility.yul\":19127:19220   */\n      tag_375\n        /* \"#utility.yul\":19216:19219   */\n      dup3\n        /* \"#utility.yul\":19127:19220   */\n      tag_195\n      jump\t// in\n    tag_375:\n        /* \"#utility.yul\":19245:19247   */\n      0x20\n        /* \"#utility.yul\":19240:19243   */\n      dup3\n        /* \"#utility.yul\":19236:19248   */\n      add\n        /* \"#utility.yul\":19229:19248   */\n      swap1\n      pop\n        /* \"#utility.yul\":18888:19254   */\n      swap2\n      swap1\n      pop\n      jump\t// out\n        /* \"#utility.yul\":19260:19679   */\n    tag_142:\n        /* \"#utility.yul\":19426:19430   */\n      0x00\n        /* \"#utility.yul\":19464:19466   */\n      0x20\n        /* \"#utility.yul\":19453:19462   */\n      dup3\n        /* \"#utility.yul\":19449:19467   */\n      add\n        /* \"#utility.yul\":19441:19467   */\n      swap1\n      pop\n        /* \"#utility.yul\":19513:19522   */\n      dup2\n        /* \"#utility.yul\":19507:19511   */\n      dup2\n        /* \"#utility.yul\":19503:19523   */\n      sub\n        /* \"#utility.yul\":19499:19500   */\n      0x00\n        /* \"#utility.yul\":19488:19497   */\n      dup4\n        /* \"#utility.yul\":19484:19501   */\n      add\n        /* \"#utility.yul\":19477:19524   */\n      mstore\n        /* \"#utility.yul\":19541:19672   */\n      tag_377\n        /* \"#utility.yul\":19667:19671   */\n      dup2\n        /* \"#utility.yul\":19541:19672   */\n      tag_196\n      jump\t// in\n    tag_377:\n        /* \"#utility.yul\":19533:19672   */\n      swap1\n      pop\n        /* \"#utility.yul\":19260:19679   */\n      swap2\n      swap1\n      pop\n      jump\t// out\n        /* \"#utility.yul\":19685:19855   */\n    tag_197:\n        /* \"#utility.yul\":19825:19847   */\n      0x746f6b656e20646f6573206e6f74206578697374000000000000000000000000\n        /* \"#utility.yul\":19821:19822   */\n      0x00\n        /* \"#utility.yul\":19813:19819   */\n      dup3\n        /* \"#utility.yul\":19809:19823   */\n      add\n        /* \"#utility.yul\":19802:19848   */\n      mstore\n        /* \"#utility.yul\":19685:19855   */\n      pop\n      jump\t// out\n        /* \"#utility.yul\":19861:20227   */\n    tag_198:\n        /* \"#utility.yul\":20003:20006   */\n      0x00\n        /* \"#utility.yul\":20024:20091   */\n      tag_380\n        /* \"#utility.yul\":20088:20090   */\n      0x14\n        /* \"#utility.yul\":20083:20086   */\n      dup4\n        /* \"#utility.yul\":20024:20091   */\n      tag_172\n      jump\t// in\n    tag_380:\n        /* \"#utility.yul\":20017:20091   */\n      swap2\n      pop\n        /* \"#utility.yul\":20100:20193   */\n      tag_381\n        /* \"#utility.yul\":20189:20192   */\n      dup3\n        /* \"#utility.yul\":20100:20193   */\n      tag_197\n      jump\t// in\n    tag_381:\n        /* \"#utility.yul\":20218:20220   */\n      0x20\n        /* \"#utility.yul\":20213:20216   */\n      dup3\n        /* \"#utility.yul\":20209:20221   */\n      add\n        /* \"#utility.yul\":20202:20221   */\n      swap1\n      pop\n        /* \"#utility.yul\":19861:20227   */\n      swap2\n      swap1\n      pop\n      jump\t// out\n        /* \"#utility.yul\":20233:20652   */\n    tag_147:\n        /* \"#utility.yul\":20399:20403   */\n      0x00\n        /* \"#utility.yul\":20437:20439   */\n      0x20\n        /* \"#utility.yul\":20426:20435   */\n      dup3\n        /* \"#utility.yul\":20422:20440   */\n      add\n        /* \"#utility.yul\":20414:20440   */\n      swap1\n      pop\n        /* \"#utility.yul\":20486:20495   */\n      dup2\n        /* \"#utility.yul\":20480:20484   */\n      dup2\n        /* \"#utility.yul\":20476:20496   */\n      sub\n        /* \"#utility.yul\":20472:20473   */\n      0x00\n        /* \"#utility.yul\":20461:20470   */\n      dup4\n        /* \"#utility.yul\":20457:20474   */\n      add\n        /* \"#utility.yul\":20450:20497   */\n      mstore\n        /* \"#utility.yul\":20514:20645   */\n      tag_383\n        /* \"#utility.yul\":20640:20644   */\n      dup2\n        /* \"#utility.yul\":20514:20645   */\n      tag_198\n      jump\t// in\n    tag_383:\n        /* \"#utility.yul\":20506:20645   */\n      swap1\n      pop\n        /* \"#utility.yul\":20233:20652   */\n      swap2\n      swap1\n      pop\n      jump\t// out\n\n    auxdata: 0xa264697066735822122044b6c7f739dea7033f2bde3134a6e9cdaaf3eafa4ef9679219601f8dd7feffbb64736f6c63430008170033\n}\n",
				"bytecode": {
					"linkReferences": {},
					"object": "608060405234801561000f575f80fd5b50611d348061001d5f395ff3fe608060405234801561000f575f80fd5b50600436106100b2575f3560e01c806342966c681161006f57806342966c68146101865780636352211e146101a257806370a08231146101d2578063a22cb46514610202578063b88d4fde1461021e578063e985e9c51461023a576100b2565b806301ffc9a7146100b6578063081812fc146100e6578063095ea7b31461011657806323b872dd1461013257806340c10f191461014e57806342842e0e1461016a575b5f80fd5b6100d060048036038101906100cb91906113b1565b61026a565b6040516100dd91906113f6565b60405180910390f35b61010060048036038101906100fb9190611442565b61033b565b60405161010d91906114ac565b60405180910390f35b610130600480360381019061012b91906114ef565b610411565b005b61014c6004803603810190610147919061152d565b6105ed565b005b610168600480360381019061016391906114ef565b6108c7565b005b610184600480360381019061017f919061152d565b6108d5565b005b6101a0600480360381019061019b9190611442565b610a09565b005b6101bc60048036038101906101b79190611442565b610ab2565b6040516101c991906114ac565b60405180910390f35b6101ec60048036038101906101e7919061157d565b610b58565b6040516101f991906115b7565b60405180910390f35b61021c600480360381019061021791906115fa565b610c0c565b005b61023860048036038101906102339190611699565b610d04565b005b610254600480360381019061024f919061171d565b610e3e565b60405161026191906113f6565b60405180910390f35b5f7f80ac58cd000000000000000000000000000000000000000000000000000000007bffffffffffffffffffffffffffffffffffffffffffffffffffffffff1916827bffffffffffffffffffffffffffffffffffffffffffffffffffffffff1916148061033457507f01ffc9a7000000000000000000000000000000000000000000000000000000007bffffffffffffffffffffffffffffffffffffffffffffffffffffffff1916827bffffffffffffffffffffffffffffffffffffffffffffffffffffffff1916145b9050919050565b5f8073ffffffffffffffffffffffffffffffffffffffff165f808481526020019081526020015f205f9054906101000a900473ffffffffffffffffffffffffffffffffffffffff1673ffffffffffffffffffffffffffffffffffffffff16036103d9576040517f08c379a00000000000000000000000000000000000000000000000000000000081526004016103d0906117b5565b60405180910390fd5b60025f8381526020019081526020015f205f9054906101000a900473ffffffffffffffffffffffffffffffffffffffff169050919050565b5f805f8381526020019081526020015f205f9054906101000a900473ffffffffffffffffffffffffffffffffffffffff1690508073ffffffffffffffffffffffffffffffffffffffff163373ffffffffffffffffffffffffffffffffffffffff1614806104ff575060035f8273ffffffffffffffffffffffffffffffffffffffff1673ffffffffffffffffffffffffffffffffffffffff1681526020019081526020015f205f3373ffffffffffffffffffffffffffffffffffffffff1673ffffffffffffffffffffffffffffffffffffffff1681526020019081526020015f205f9054906101000a900460ff165b61053e576040517f08c379a00000000000000000000000000000000000000000000000000000000081526004016105359061181d565b60405180910390fd5b8260025f8481526020019081526020015f205f6101000a81548173ffffffffffffffffffffffffffffffffffffffff021916908373ffffffffffffffffffffffffffffffffffffffff160217905550818373ffffffffffffffffffffffffffffffffffffffff168273ffffffffffffffffffffffffffffffffffffffff167f8c5be1e5ebec7d5bd14f71427d1e84f3dd0314c0f7b2291e5b200ac8c7c3b92560405160405180910390a4505050565b5f808281526020019081526020015f205f9054906101000a900473ffffffffffffffffffffffffffffffffffffffff1673ffffffffffffffffffffffffffffffffffffffff168373ffffffffffffffffffffffffffffffffffffffff161461068a576040517f08c379a000000000000000000000000000000000000000000000000000000000815260040161068190611885565b60405180910390fd5b5f73ffffffffffffffffffffffffffffffffffffffff168273ffffffffffffffffffffffffffffffffffffffff16036106f8576040517f08c379a00000000000000000000000000000000000000000000000000000000081526004016106ef906118ed565b60405180910390fd5b610703833383610e68565b610742576040517f08c379a00000000000000000000000000000000000000000000000000000000081526004016107399061181d565b60405180910390fd5b60015f8473ffffffffffffffffffffffffffffffffffffffff1673ffffffffffffffffffffffffffffffffffffffff1681526020019081526020015f205f81548092919061078f90611938565b919050555060015f8373ffffffffffffffffffffffffffffffffffffffff1673ffffffffffffffffffffffffffffffffffffffff1681526020019081526020015f205f8154809291906107e19061195f565b9190505550815f808381526020019081526020015f205f6101000a81548173ffffffffffffffffffffffffffffffffffffffff021916908373ffffffffffffffffffffffffffffffffffffffff16021790555060025f8281526020019081526020015f205f6101000a81549073ffffffffffffffffffffffffffffffffffffffff0219169055808273ffffffffffffffffffffffffffffffffffffffff168473ffffffffffffffffffffffffffffffffffffffff167fddf252ad1be2c89b69c2b068fc378daa952ba7f163c4a11628f55a4df523b3ef60405160405180910390a4505050565b6108d18282610f93565b5050565b6108e08383836105ed565b5f8273ffffffffffffffffffffffffffffffffffffffff163b14806109c5575063150b7a0260e01b7bffffffffffffffffffffffffffffffffffffffffffffffffffffffff19168273ffffffffffffffffffffffffffffffffffffffff1663150b7a023386856040518463ffffffff1660e01b8152600401610964939291906119d9565b6020604051808303815f875af1158015610980573d5f803e3d5ffd5b505050506040513d601f19601f820116820180604052508101906109a49190611a35565b7bffffffffffffffffffffffffffffffffffffffffffffffffffffffff1916145b610a04576040517f08c379a00000000000000000000000000000000000000000000000000000000081526004016109fb90611aaa565b60405180910390fd5b505050565b5f808281526020019081526020015f205f9054906101000a900473ffffffffffffffffffffffffffffffffffffffff1673ffffffffffffffffffffffffffffffffffffffff163373ffffffffffffffffffffffffffffffffffffffff1614610aa6576040517f08c379a0000000000000000000000000000000000000000000000000000000008152600401610a9d90611b12565b60405180910390fd5b610aaf8161119d565b50565b5f805f8381526020019081526020015f205f9054906101000a900473ffffffffffffffffffffffffffffffffffffffff1690505f73ffffffffffffffffffffffffffffffffffffffff168173ffffffffffffffffffffffffffffffffffffffff1603610b53576040517f08c379a0000000000000000000000000000000000000000000000000000000008152600401610b4a90611b7a565b60405180910390fd5b919050565b5f8073ffffffffffffffffffffffffffffffffffffffff168273ffffffffffffffffffffffffffffffffffffffff1603610bc7576040517f08c379a0000000000000000000000000000000000000000000000000000000008152600401610bbe90611b7a565b60405180910390fd5b60015f8373ffffffffffffffffffffffffffffffffffffffff1673ffffffffffffffffffffffffffffffffffffffff1681526020019081526020015f20549050919050565b8060035f3373ffffffffffffffffffffffffffffffffffffffff1673ffffffffffffffffffffffffffffffffffffffff1681526020019081526020015f205f8473ffffffffffffffffffffffffffffffffffffffff1673ffffffffffffffffffffffffffffffffffffffff1681526020019081526020015f205f6101000a81548160ff0219169083151502179055508173ffffffffffffffffffffffffffffffffffffffff163373ffffffffffffffffffffffffffffffffffffffff167f17307eab39ab6107e8899845ad3d59bd9653f200f220920489ca2b5937696c3183604051610cf891906113f6565b60405180910390a35050565b610d0f8585856105ed565b5f8473ffffffffffffffffffffffffffffffffffffffff163b1480610df8575063150b7a0260e01b7bffffffffffffffffffffffffffffffffffffffffffffffffffffffff19168473ffffffffffffffffffffffffffffffffffffffff1663150b7a0233888787876040518663ffffffff1660e01b8152600401610d97959493929190611be2565b6020604051808303815f875af1158015610db3573d5f803e3d5ffd5b505050506040513d601f19601f82011682018060405250810190610dd79190611a35565b7bffffffffffffffffffffffffffffffffffffffffffffffffffffffff1916145b610e37576040517f08c379a0000000000000000000000000000000000000000000000000000000008152600401610e2e90611aaa565b60405180910390fd5b5050505050565b6003602052815f5260405f20602052805f5260405f205f915091509054906101000a900460ff1681565b5f8373ffffffffffffffffffffffffffffffffffffffff168373ffffffffffffffffffffffffffffffffffffffff161480610f24575060035f8573ffffffffffffffffffffffffffffffffffffffff1673ffffffffffffffffffffffffffffffffffffffff1681526020019081526020015f205f8473ffffffffffffffffffffffffffffffffffffffff1673ffffffffffffffffffffffffffffffffffffffff1681526020019081526020015f205f9054906101000a900460ff165b80610f8a575060025f8381526020019081526020015f205f9054906101000a900473ffffffffffffffffffffffffffffffffffffffff1673ffffffffffffffffffffffffffffffffffffffff168373ffffffffffffffffffffffffffffffffffffffff16145b90509392505050565b5f73ffffffffffffffffffffffffffffffffffffffff168273ffffffffffffffffffffffffffffffffffffffff1603611001576040517f08c379a0000000000000000000000000000000000000000000000000000000008152600401610ff8906118ed565b60405180910390fd5b5f73ffffffffffffffffffffffffffffffffffffffff165f808381526020019081526020015f205f9054906101000a900473ffffffffffffffffffffffffffffffffffffffff1673ffffffffffffffffffffffffffffffffffffffff161461109e576040517f08c379a000000000000000000000000000000000000000000000000000000000815260040161109590611c78565b60405180910390fd5b60015f8373ffffffffffffffffffffffffffffffffffffffff1673ffffffffffffffffffffffffffffffffffffffff1681526020019081526020015f205f8154809291906110eb9061195f565b9190505550815f808381526020019081526020015f205f6101000a81548173ffffffffffffffffffffffffffffffffffffffff021916908373ffffffffffffffffffffffffffffffffffffffff160217905550808273ffffffffffffffffffffffffffffffffffffffff165f73ffffffffffffffffffffffffffffffffffffffff167fddf252ad1be2c89b69c2b068fc378daa952ba7f163c4a11628f55a4df523b3ef60405160405180910390a45050565b5f805f8381526020019081526020015f205f9054906101000a900473ffffffffffffffffffffffffffffffffffffffff1690505f73ffffffffffffffffffffffffffffffffffffffff168173ffffffffffffffffffffffffffffffffffffffff160361123e576040517f08c379a000000000000000000000000000000000000000000000000000000000815260040161123590611ce0565b60405180910390fd5b60015f8273ffffffffffffffffffffffffffffffffffffffff1673ffffffffffffffffffffffffffffffffffffffff1681526020019081526020015f205f81548092919061128b90611938565b91905055505f808381526020019081526020015f205f6101000a81549073ffffffffffffffffffffffffffffffffffffffff021916905560025f8381526020019081526020015f205f6101000a81549073ffffffffffffffffffffffffffffffffffffffff0219169055815f73ffffffffffffffffffffffffffffffffffffffff168273ffffffffffffffffffffffffffffffffffffffff167fddf252ad1be2c89b69c2b068fc378daa952ba7f163c4a11628f55a4df523b3ef60405160405180910390a45050565b5f80fd5b5f80fd5b5f7fffffffff0000000000000000000000000000000000000000000000000000000082169050919050565b6113908161135c565b811461139a575f80fd5b50565b5f813590506113ab81611387565b92915050565b5f602082840312156113c6576113c5611354565b5b5f6113d38482850161139d565b91505092915050565b5f8115159050919050565b6113f0816113dc565b82525050565b5f6020820190506114095f8301846113e7565b92915050565b5f819050919050565b6114218161140f565b811461142b575f80fd5b50565b5f8135905061143c81611418565b92915050565b5f6020828403121561145757611456611354565b5b5f6114648482850161142e565b91505092915050565b5f73ffffffffffffffffffffffffffffffffffffffff82169050919050565b5f6114968261146d565b9050919050565b6114a68161148c565b82525050565b5f6020820190506114bf5f83018461149d565b92915050565b6114ce8161148c565b81146114d8575f80fd5b50565b5f813590506114e9816114c5565b92915050565b5f806040838503121561150557611504611354565b5b5f611512858286016114db565b92505060206115238582860161142e565b9150509250929050565b5f805f6060848603121561154457611543611354565b5b5f611551868287016114db565b9350506020611562868287016114db565b92505060406115738682870161142e565b9150509250925092565b5f6020828403121561159257611591611354565b5b5f61159f848285016114db565b91505092915050565b6115b18161140f565b82525050565b5f6020820190506115ca5f8301846115a8565b92915050565b6115d9816113dc565b81146115e3575f80fd5b50565b5f813590506115f4816115d0565b92915050565b5f80604083850312156116105761160f611354565b5b5f61161d858286016114db565b925050602061162e858286016115e6565b9150509250929050565b5f80fd5b5f80fd5b5f80fd5b5f8083601f84011261165957611658611638565b5b8235905067ffffffffffffffff8111156116765761167561163c565b5b60208301915083600182028301111561169257611691611640565b5b9250929050565b5f805f805f608086880312156116b2576116b1611354565b5b5f6116bf888289016114db565b95505060206116d0888289016114db565b94505060406116e18882890161142e565b935050606086013567ffffffffffffffff81111561170257611701611358565b5b61170e88828901611644565b92509250509295509295909350565b5f806040838503121561173357611732611354565b5b5f611740858286016114db565b9250506020611751858286016114db565b9150509250929050565b5f82825260208201905092915050565b7f746f6b656e4964206e6f742065786974730000000000000000000000000000005f82015250565b5f61179f60118361175b565b91506117aa8261176b565b602082019050919050565b5f6020820190508181035f8301526117cc81611793565b9050919050565b7f6e6f7420617574686f72697a65640000000000000000000000000000000000005f82015250565b5f611807600e8361175b565b9150611812826117d3565b602082019050919050565b5f6020820190508181035f830152611834816117fb565b9050919050565b7f66726f6d20213d206f776e6572000000000000000000000000000000000000005f82015250565b5f61186f600d8361175b565b915061187a8261183b565b602082019050919050565b5f6020820190508181035f83015261189c81611863565b9050919050565b7f746f203d207a65726f20616464726573730000000000000000000000000000005f82015250565b5f6118d760118361175b565b91506118e2826118a3565b602082019050919050565b5f6020820190508181035f830152611904816118cb565b9050919050565b7f4e487b71000000000000000000000000000000000000000000000000000000005f52601160045260245ffd5b5f6119428261140f565b91505f82036119545761195361190b565b5b600182039050919050565b5f6119698261140f565b91507fffffffffffffffffffffffffffffffffffffffffffffffffffffffffffffffff820361199b5761199a61190b565b5b600182019050919050565b5f82825260208201905092915050565b50565b5f6119c45f836119a6565b91506119cf826119b6565b5f82019050919050565b5f6080820190506119ec5f83018661149d565b6119f9602083018561149d565b611a0660408301846115a8565b8181036060830152611a17816119b9565b9050949350505050565b5f81519050611a2f81611387565b92915050565b5f60208284031215611a4a57611a49611354565b5b5f611a5784828501611a21565b91505092915050565b7f756e7361666520726563697069656e74000000000000000000000000000000005f82015250565b5f611a9460108361175b565b9150611a9f82611a60565b602082019050919050565b5f6020820190508181035f830152611ac181611a88565b9050919050565b7f6e6f74206f776e657200000000000000000000000000000000000000000000005f82015250565b5f611afc60098361175b565b9150611b0782611ac8565b602082019050919050565b5f6020820190508181035f830152611b2981611af0565b9050919050565b7f6f776e6572203d206164647265737320300000000000000000000000000000005f82015250565b5f611b6460118361175b565b9150611b6f82611b30565b602082019050919050565b5f6020820190508181035f830152611b9181611b58565b9050919050565b828183375f83830152505050565b5f601f19601f8301169050919050565b5f611bc183856119a6565b9350611bce838584611b98565b611bd783611ba6565b840190509392505050565b5f608082019050611bf55f83018861149d565b611c02602083018761149d565b611c0f60408301866115a8565b8181036060830152611c22818486611bb6565b90509695505050505050565b7f746f6b656e2065786973747300000000000000000000000000000000000000005f82015250565b5f611c62600c8361175b565b9150611c6d82611c2e565b602082019050919050565b5f6020820190508181035f830152611c8f81611c56565b9050919050565b7f746f6b656e20646f6573206e6f742065786973740000000000000000000000005f82015250565b5f611cca60148361175b565b9150611cd582611c96565b602082019050919050565b5f6020820190508181035f830152611cf781611cbe565b905091905056fea264697066735822122044b6c7f739dea7033f2bde3134a6e9cdaaf3eafa4ef9679219601f8dd7feffbb64736f6c63430008170033",
					"opcodes": "PUSH1 0x80 PUSH1 0x40 MSTORE CALLVALUE DUP1 ISZERO PUSH2 0xF JUMPI PUSH0 DUP1 REVERT JUMPDEST POP PUSH2 0x1D34 DUP1 PUSH2 0x1D PUSH0 CODECOPY PUSH0 RETURN INVALID PUSH1 0x80 PUSH1 0x40 MSTORE CALLVALUE DUP1 ISZERO PUSH2 0xF JUMPI PUSH0 DUP1 REVERT JUMPDEST POP PUSH1 0x4 CALLDATASIZE LT PUSH2 0xB2 JUMPI PUSH0 CALLDATALOAD PUSH1 0xE0 SHR DUP1 PUSH4 0x42966C68 GT PUSH2 0x6F JUMPI DUP1 PUSH4 0x42966C68 EQ PUSH2 0x186 JUMPI DUP1 PUSH4 0x6352211E EQ PUSH2 0x1A2 JUMPI DUP1 PUSH4 0x70A08231 EQ PUSH2 0x1D2 JUMPI DUP1 PUSH4 0xA22CB465 EQ PUSH2 0x202 JUMPI DUP1 PUSH4 0xB88D4FDE EQ PUSH2 0x21E JUMPI DUP1 PUSH4 0xE985E9C5 EQ PUSH2 0x23A JUMPI PUSH2 0xB2 JUMP JUMPDEST DUP1 PUSH4 0x1FFC9A7 EQ PUSH2 0xB6 JUMPI DUP1 PUSH4 0x81812FC EQ PUSH2 0xE6 JUMPI DUP1 PUSH4 0x95EA7B3 EQ PUSH2 0x116 JUMPI DUP1 PUSH4 0x23B872DD EQ PUSH2 0x132 JUMPI DUP1 PUSH4 0x40C10F19 EQ PUSH2 0x14E JUMPI DUP1 PUSH4 0x42842E0E EQ PUSH2 0x16A JUMPI JUMPDEST PUSH0 DUP1 REVERT JUMPDEST PUSH2 0xD0 PUSH1 0x4 DUP1 CALLDATASIZE SUB DUP2 ADD SWAP1 PUSH2 0xCB SWAP2 SWAP1 PUSH2 0x13B1 JUMP JUMPDEST PUSH2 0x26A JUMP JUMPDEST PUSH1 0x40 MLOAD PUSH2 0xDD SWAP2 SWAP1 PUSH2 0x13F6 JUMP JUMPDEST PUSH1 0x40 MLOAD DUP1 SWAP2 SUB SWAP1 RETURN JUMPDEST PUSH2 0x100 PUSH1 0x4 DUP1 CALLDATASIZE SUB DUP2 ADD SWAP1 PUSH2 0xFB SWAP2 SWAP1 PUSH2 0x1442 JUMP JUMPDEST PUSH2 0x33B JUMP JUMPDEST PUSH1 0x40 MLOAD PUSH2 0x10D SWAP2 SWAP1 PUSH2 0x14AC JUMP JUMPDEST PUSH1 0x40 MLOAD DUP1 SWAP2 SUB SWAP1 RETURN JUMPDEST PUSH2 0x130 PUSH1 0x4 DUP1 CALLDATASIZE SUB DUP2 ADD SWAP1 PUSH2 0x12B SWAP2 SWAP1 PUSH2 0x14EF JUMP JUMPDEST PUSH2 0x411 JUMP JUMPDEST STOP JUMPDEST PUSH2 0x14C PUSH1 0x4 DUP1 CALLDATASIZE SUB DUP2 ADD SWAP1 PUSH2 0x147 SWAP2 SWAP1 PUSH2 0x152D JUMP JUMPDEST PUSH2 0x5ED JUMP JUMPDEST STOP JUMPDEST PUSH2 0x168 PUSH1 0x4 DUP1 CALLDATASIZE SUB DUP2 ADD SWAP1 PUSH2 0x163 SWAP2 SWAP1 PUSH2 0x14EF JUMP JUMPDEST PUSH2 0x8C7 JUMP JUMPDEST STOP JUMPDEST PUSH2 0x184 PUSH1 0x4 DUP1 CALLDATASIZE SUB DUP2 ADD SWAP1 PUSH2 0x17F SWAP2 SWAP1 PUSH2 0x152D JUMP JUMPDEST PUSH2 0x8D5 JUMP JUMPDEST STOP JUMPDEST PUSH2 0x1A0 PUSH1 0x4 DUP1 CALLDATASIZE SUB DUP2 ADD SWAP1 PUSH2 0x19B SWAP2 SWAP1 PUSH2 0x1442 JUMP JUMPDEST PUSH2 0xA09 JUMP JUMPDEST STOP JUMPDEST PUSH2 0x1BC PUSH1 0x4 DUP1 CALLDATASIZE SUB DUP2 ADD SWAP1 PUSH2 0x1B7 SWAP2 SWAP1 PUSH2 0x1442 JUMP JUMPDEST PUSH2 0xAB2 JUMP JUMPDEST PUSH1 0x40 MLOAD PUSH2 0x1C9 SWAP2 SWAP1 PUSH2 0x14AC JUMP JUMPDEST PUSH1 0x40 MLOAD DUP1 SWAP2 SUB SWAP1 RETURN JUMPDEST PUSH2 0x1EC PUSH1 0x4 DUP1 CALLDATASIZE SUB DUP2 ADD SWAP1 PUSH2 0x1E7 SWAP2 SWAP1 PUSH2 0x157D JUMP JUMPDEST PUSH2 0xB58 JUMP JUMPDEST PUSH1 0x40 MLOAD PUSH2 0x1F9 SWAP2 SWAP1 PUSH2 0x15B7 JUMP JUMPDEST PUSH1 0x40 MLOAD DUP1 SWAP2 SUB SWAP1 RETURN JUMPDEST PUSH2 0x21C PUSH1 0x4 DUP1 CALLDATASIZE SUB DUP2 ADD SWAP1 PUSH2 0x217 SWAP2 SWAP1 PUSH2 0x15FA JUMP JUMPDEST PUSH2 0xC0C JUMP JUMPDEST STOP JUMPDEST PUSH2 0x238 PUSH1 0x4 DUP1 CALLDATASIZE SUB DUP2 ADD SWAP1 PUSH2 0x233 SWAP2 SWAP1 PUSH2 0x1699 JUMP JUMPDEST PUSH2 0xD04 JUMP JUMPDEST STOP JUMPDEST PUSH2 0x254 PUSH1 0x4 DUP1 CALLDATASIZE SUB DUP2 ADD SWAP1 PUSH2 0x24F SWAP2 SWAP1 PUSH2 0x171D JUMP JUMPDEST PUSH2 0xE3E JUMP JUMPDEST PUSH1 0x40 MLOAD PUSH2 0x261 SWAP2 SWAP1 PUSH2 0x13F6 JUMP JUMPDEST PUSH1 0x40 MLOAD DUP1 SWAP2 SUB SWAP1 RETURN JUMPDEST PUSH0 PUSH32 0x80AC58CD00000000000000000000000000000000000000000000000000000000 PUSH28 0xFFFFFFFFFFFFFFFFFFFFFFFFFFFFFFFFFFFFFFFFFFFFFFFFFFFFFFFF NOT AND DUP3 PUSH28 0xFFFFFFFFFFFFFFFFFFFFFFFFFFFFFFFFFFFFFFFFFFFFFFFFFFFFFFFF NOT AND EQ DUP1 PUSH2 0x334 JUMPI POP PUSH32 0x1FFC9A700000000000000000000000000000000000000000000000000000000 PUSH28 0xFFFFFFFFFFFFFFFFFFFFFFFFFFFFFFFFFFFFFFFFFFFFFFFFFFFFFFFF NOT AND DUP3 PUSH28 0xFFFFFFFFFFFFFFFFFFFFFFFFFFFFFFFFFFFFFFFFFFFFFFFFFFFFFFFF NOT AND EQ JUMPDEST SWAP1 POP SWAP2 SWAP1 POP JUMP JUMPDEST PUSH0 DUP1 PUSH20 0xFFFFFFFFFFFFFFFFFFFFFFFFFFFFFFFFFFFFFFFF AND PUSH0 DUP1 DUP5 DUP2 MSTORE PUSH1 0x20 ADD SWAP1 DUP2 MSTORE PUSH1 0x20 ADD PUSH0 KECCAK256 PUSH0 SWAP1 SLOAD SWAP1 PUSH2 0x100 EXP SWAP1 DIV PUSH20 0xFFFFFFFFFFFFFFFFFFFFFFFFFFFFFFFFFFFFFFFF AND PUSH20 0xFFFFFFFFFFFFFFFFFFFFFFFFFFFFFFFFFFFFFFFF AND SUB PUSH2 0x3D9 JUMPI PUSH1 0x40 MLOAD PUSH32 0x8C379A000000000000000000000000000000000000000000000000000000000 DUP2 MSTORE PUSH1 0x4 ADD PUSH2 0x3D0 SWAP1 PUSH2 0x17B5 JUMP JUMPDEST PUSH1 0x40 MLOAD DUP1 SWAP2 SUB SWAP1 REVERT JUMPDEST PUSH1 0x2 PUSH0 DUP4 DUP2 MSTORE PUSH1 0x20 ADD SWAP1 DUP2 MSTORE PUSH1 0x20 ADD PUSH0 KECCAK256 PUSH0 SWAP1 SLOAD SWAP1 PUSH2 0x100 EXP SWAP1 DIV PUSH20 0xFFFFFFFFFFFFFFFFFFFFFFFFFFFFFFFFFFFFFFFF AND SWAP1 POP SWAP2 SWAP1 POP JUMP JUMPDEST PUSH0 DUP1 PUSH0 DUP4 DUP2 MSTORE PUSH1 0x20 ADD SWAP1 DUP2 MSTORE PUSH1 0x20 ADD PUSH0 KECCAK256 PUSH0 SWAP1 SLOAD SWAP1 PUSH2 0x100 EXP SWAP1 DIV PUSH20 0xFFFFFFFFFFFFFFFFFFFFFFFFFFFFFFFFFFFFFFFF AND SWAP1 POP DUP1 PUSH20 0xFFFFFFFFFFFFFFFFFFFFFFFFFFFFFFFFFFFFFFFF AND CALLER PUSH20 0xFFFFFFFFFFFFFFFFFFFFFFFFFFFFFFFFFFFFFFFF AND EQ DUP1 PUSH2 0x4FF JUMPI POP PUSH1 0x3 PUSH0 DUP3 PUSH20 0xFFFFFFFFFFFFFFFFFFFFFFFFFFFFFFFFFFFFFFFF AND PUSH20 0xFFFFFFFFFFFFFFFFFFFFFFFFFFFFFFFFFFFFFFFF AND DUP2 MSTORE PUSH1 0x20 ADD SWAP1 DUP2 MSTORE PUSH1 0x20 ADD PUSH0 KECCAK256 PUSH0 CALLER PUSH20 0xFFFFFFFFFFFFFFFFFFFFFFFFFFFFFFFFFFFFFFFF AND PUSH20 0xFFFFFFFFFFFFFFFFFFFFFFFFFFFFFFFFFFFFFFFF AND DUP2 MSTORE PUSH1 0x20 ADD SWAP1 DUP2 MSTORE PUSH1 0x20 ADD PUSH0 KECCAK256 PUSH0 SWAP1 SLOAD SWAP1 PUSH2 0x100 EXP SWAP1 DIV PUSH1 0xFF AND JUMPDEST PUSH2 0x53E JUMPI PUSH1 0x40 MLOAD PUSH32 0x8C379A000000000000000000000000000000000000000000000000000000000 DUP2 MSTORE PUSH1 0x4 ADD PUSH2 0x535 SWAP1 PUSH2 0x181D JUMP JUMPDEST PUSH1 0x40 MLOAD DUP1 SWAP2 SUB SWAP1 REVERT JUMPDEST DUP3 PUSH1 0x2 PUSH0 DUP5 DUP2 MSTORE PUSH1 0x20 ADD SWAP1 DUP2 MSTORE PUSH1 0x20 ADD PUSH0 KECCAK256 PUSH0 PUSH2 0x100 EXP DUP2 SLOAD DUP2 PUSH20 0xFFFFFFFFFFFFFFFFFFFFFFFFFFFFFFFFFFFFFFFF MUL NOT AND SWAP1 DUP4 PUSH20 0xFFFFFFFFFFFFFFFFFFFFFFFFFFFFFFFFFFFFFFFF AND MUL OR SWAP1 SSTORE POP DUP2 DUP4 PUSH20 0xFFFFFFFFFFFFFFFFFFFFFFFFFFFFFFFFFFFFFFFF AND DUP3 PUSH20 0xFFFFFFFFFFFFFFFFFFFFFFFFFFFFFFFFFFFFFFFF AND PUSH32 0x8C5BE1E5EBEC7D5BD14F71427D1E84F3DD0314C0F7B2291E5B200AC8C7C3B925 PUSH1 0x40 MLOAD PUSH1 0x40 MLOAD DUP1 SWAP2 SUB SWAP1 LOG4 POP POP POP JUMP JUMPDEST PUSH0 DUP1 DUP3 DUP2 MSTORE PUSH1 0x20 ADD SWAP1 DUP2 MSTORE PUSH1 0x20 ADD PUSH0 KECCAK256 PUSH0 SWAP1 SLOAD SWAP1 PUSH2 0x100 EXP SWAP1 DIV PUSH20 0xFFFFFFFFFFFFFFFFFFFFFFFFFFFFFFFFFFFFFFFF AND PUSH20 0xFFFFFFFFFFFFFFFFFFFFFFFFFFFFFFFFFFFFFFFF AND DUP4 PUSH20 0xFFFFFFFFFFFFFFFFFFFFFFFFFFFFFFFFFFFFFFFF AND EQ PUSH2 0x68A JUMPI PUSH1 0x40 MLOAD PUSH32 0x8C379A000000000000000000000000000000000000000000000000000000000 DUP2 MSTORE PUSH1 0x4 ADD PUSH2 0x681 SWAP1 PUSH2 0x1885 JUMP JUMPDEST PUSH1 0x40 MLOAD DUP1 SWAP2 SUB SWAP1 REVERT JUMPDEST PUSH0 PUSH20 0xFFFFFFFFFFFFFFFFFFFFFFFFFFFFFFFFFFFFFFFF AND DUP3 PUSH20 0xFFFFFFFFFFFFFFFFFFFFFFFFFFFFFFFFFFFFFFFF AND SUB PUSH2 0x6F8 JUMPI PUSH1 0x40 MLOAD PUSH32 0x8C379A000000000000000000000000000000000000000000000000000000000 DUP2 MSTORE PUSH1 0x4 ADD PUSH2 0x6EF SWAP1 PUSH2 0x18ED JUMP JUMPDEST PUSH1 0x40 MLOAD DUP1 SWAP2 SUB SWAP1 REVERT JUMPDEST PUSH2 0x703 DUP4 CALLER DUP4 PUSH2 0xE68 JUMP JUMPDEST PUSH2 0x742 JUMPI PUSH1 0x40 MLOAD PUSH32 0x8C379A000000000000000000000000000000000000000000000000000000000 DUP2 MSTORE PUSH1 0x4 ADD PUSH2 0x739 SWAP1 PUSH2 0x181D JUMP JUMPDEST PUSH1 0x40 MLOAD DUP1 SWAP2 SUB SWAP1 REVERT JUMPDEST PUSH1 0x1 PUSH0 DUP5 PUSH20 0xFFFFFFFFFFFFFFFFFFFFFFFFFFFFFFFFFFFFFFFF AND PUSH20 0xFFFFFFFFFFFFFFFFFFFFFFFFFFFFFFFFFFFFFFFF AND DUP2 MSTORE PUSH1 0x20 ADD SWAP1 DUP2 MSTORE PUSH1 0x20 ADD PUSH0 KECCAK256 PUSH0 DUP2 SLOAD DUP1 SWAP3 SWAP2 SWAP1 PUSH2 0x78F SWAP1 PUSH2 0x1938 JUMP JUMPDEST SWAP2 SWAP1 POP SSTORE POP PUSH1 0x1 PUSH0 DUP4 PUSH20 0xFFFFFFFFFFFFFFFFFFFFFFFFFFFFFFFFFFFFFFFF AND PUSH20 0xFFFFFFFFFFFFFFFFFFFFFFFFFFFFFFFFFFFFFFFF AND DUP2 MSTORE PUSH1 0x20 ADD SWAP1 DUP2 MSTORE PUSH1 0x20 ADD PUSH0 KECCAK256 PUSH0 DUP2 SLOAD DUP1 SWAP3 SWAP2 SWAP1 PUSH2 0x7E1 SWAP1 PUSH2 0x195F JUMP JUMPDEST SWAP2 SWAP1 POP SSTORE POP DUP2 PUSH0 DUP1 DUP4 DUP2 MSTORE PUSH1 0x20 ADD SWAP1 DUP2 MSTORE PUSH1 0x20 ADD PUSH0 KECCAK256 PUSH0 PUSH2 0x100 EXP DUP2 SLOAD DUP2 PUSH20 0xFFFFFFFFFFFFFFFFFFFFFFFFFFFFFFFFFFFFFFFF MUL NOT AND SWAP1 DUP4 PUSH20 0xFFFFFFFFFFFFFFFFFFFFFFFFFFFFFFFFFFFFFFFF AND MUL OR SWAP1 SSTORE POP PUSH1 0x2 PUSH0 DUP3 DUP2 MSTORE PUSH1 0x20 ADD SWAP1 DUP2 MSTORE PUSH1 0x20 ADD PUSH0 KECCAK256 PUSH0 PUSH2 0x100 EXP DUP2 SLOAD SWAP1 PUSH20 0xFFFFFFFFFFFFFFFFFFFFFFFFFFFFFFFFFFFFFFFF MUL NOT AND SWAP1 SSTORE DUP1 DUP3 PUSH20 0xFFFFFFFFFFFFFFFFFFFFFFFFFFFFFFFFFFFFFFFF AND DUP5 PUSH20 0xFFFFFFFFFFFFFFFFFFFFFFFFFFFFFFFFFFFFFFFF AND PUSH32 0xDDF252AD1BE2C89B69C2B068FC378DAA952BA7F163C4A11628F55A4DF523B3EF PUSH1 0x40 MLOAD PUSH1 0x40 MLOAD DUP1 SWAP2 SUB SWAP1 LOG4 POP POP POP JUMP JUMPDEST PUSH2 0x8D1 DUP3 DUP3 PUSH2 0xF93 JUMP JUMPDEST POP POP JUMP JUMPDEST PUSH2 0x8E0 DUP4 DUP4 DUP4 PUSH2 0x5ED JUMP JUMPDEST PUSH0 DUP3 PUSH20 0xFFFFFFFFFFFFFFFFFFFFFFFFFFFFFFFFFFFFFFFF AND EXTCODESIZE EQ DUP1 PUSH2 0x9C5 JUMPI POP PUSH4 0x150B7A02 PUSH1 0xE0 SHL PUSH28 0xFFFFFFFFFFFFFFFFFFFFFFFFFFFFFFFFFFFFFFFFFFFFFFFFFFFFFFFF NOT AND DUP3 PUSH20 0xFFFFFFFFFFFFFFFFFFFFFFFFFFFFFFFFFFFFFFFF AND PUSH4 0x150B7A02 CALLER DUP7 DUP6 PUSH1 0x40 MLOAD DUP5 PUSH4 0xFFFFFFFF AND PUSH1 0xE0 SHL DUP2 MSTORE PUSH1 0x4 ADD PUSH2 0x964 SWAP4 SWAP3 SWAP2 SWAP1 PUSH2 0x19D9 JUMP JUMPDEST PUSH1 0x20 PUSH1 0x40 MLOAD DUP1 DUP4 SUB DUP2 PUSH0 DUP8 GAS CALL ISZERO DUP1 ISZERO PUSH2 0x980 JUMPI RETURNDATASIZE PUSH0 DUP1 RETURNDATACOPY RETURNDATASIZE PUSH0 REVERT JUMPDEST POP POP POP POP PUSH1 0x40 MLOAD RETURNDATASIZE PUSH1 0x1F NOT PUSH1 0x1F DUP3 ADD AND DUP3 ADD DUP1 PUSH1 0x40 MSTORE POP DUP2 ADD SWAP1 PUSH2 0x9A4 SWAP2 SWAP1 PUSH2 0x1A35 JUMP JUMPDEST PUSH28 0xFFFFFFFFFFFFFFFFFFFFFFFFFFFFFFFFFFFFFFFFFFFFFFFFFFFFFFFF NOT AND EQ JUMPDEST PUSH2 0xA04 JUMPI PUSH1 0x40 MLOAD PUSH32 0x8C379A000000000000000000000000000000000000000000000000000000000 DUP2 MSTORE PUSH1 0x4 ADD PUSH2 0x9FB SWAP1 PUSH2 0x1AAA JUMP JUMPDEST PUSH1 0x40 MLOAD DUP1 SWAP2 SUB SWAP1 REVERT JUMPDEST POP POP POP JUMP JUMPDEST PUSH0 DUP1 DUP3 DUP2 MSTORE PUSH1 0x20 ADD SWAP1 DUP2 MSTORE PUSH1 0x20 ADD PUSH0 KECCAK256 PUSH0 SWAP1 SLOAD SWAP1 PUSH2 0x100 EXP SWAP1 DIV PUSH20 0xFFFFFFFFFFFFFFFFFFFFFFFFFFFFFFFFFFFFFFFF AND PUSH20 0xFFFFFFFFFFFFFFFFFFFFFFFFFFFFFFFFFFFFFFFF AND CALLER PUSH20 0xFFFFFFFFFFFFFFFFFFFFFFFFFFFFFFFFFFFFFFFF AND EQ PUSH2 0xAA6 JUMPI PUSH1 0x40 MLOAD PUSH32 0x8C379A000000000000000000000000000000000000000000000000000000000 DUP2 MSTORE PUSH1 0x4 ADD PUSH2 0xA9D SWAP1 PUSH2 0x1B12 JUMP JUMPDEST PUSH1 0x40 MLOAD DUP1 SWAP2 SUB SWAP1 REVERT JUMPDEST PUSH2 0xAAF DUP2 PUSH2 0x119D JUMP JUMPDEST POP JUMP JUMPDEST PUSH0 DUP1 PUSH0 DUP4 DUP2 MSTORE PUSH1 0x20 ADD SWAP1 DUP2 MSTORE PUSH1 0x20 ADD PUSH0 KECCAK256 PUSH0 SWAP1 SLOAD SWAP1 PUSH2 0x100 EXP SWAP1 DIV PUSH20 0xFFFFFFFFFFFFFFFFFFFFFFFFFFFFFFFFFFFFFFFF AND SWAP1 POP PUSH0 PUSH20 0xFFFFFFFFFFFFFFFFFFFFFFFFFFFFFFFFFFFFFFFF AND DUP2 PUSH20 0xFFFFFFFFFFFFFFFFFFFFFFFFFFFFFFFFFFFFFFFF AND SUB PUSH2 0xB53 JUMPI PUSH1 0x40 MLOAD PUSH32 0x8C379A000000000000000000000000000000000000000000000000000000000 DUP2 MSTORE PUSH1 0x4 ADD PUSH2 0xB4A SWAP1 PUSH2 0x1B7A JUMP JUMPDEST PUSH1 0x40 MLOAD DUP1 SWAP2 SUB SWAP1 REVERT JUMPDEST SWAP2 SWAP1 POP JUMP JUMPDEST PUSH0 DUP1 PUSH20 0xFFFFFFFFFFFFFFFFFFFFFFFFFFFFFFFFFFFFFFFF AND DUP3 PUSH20 0xFFFFFFFFFFFFFFFFFFFFFFFFFFFFFFFFFFFFFFFF AND SUB PUSH2 0xBC7 JUMPI PUSH1 0x40 MLOAD PUSH32 0x8C379A000000000000000000000000000000000000000000000000000000000 DUP2 MSTORE PUSH1 0x4 ADD PUSH2 0xBBE SWAP1 PUSH2 0x1B7A JUMP JUMPDEST PUSH1 0x40 MLOAD DUP1 SWAP2 SUB SWAP1 REVERT JUMPDEST PUSH1 0x1 PUSH0 DUP4 PUSH20 0xFFFFFFFFFFFFFFFFFFFFFFFFFFFFFFFFFFFFFFFF AND PUSH20 0xFFFFFFFFFFFFFFFFFFFFFFFFFFFFFFFFFFFFFFFF AND DUP2 MSTORE PUSH1 0x20 ADD SWAP1 DUP2 MSTORE PUSH1 0x20 ADD PUSH0 KECCAK256 SLOAD SWAP1 POP SWAP2 SWAP1 POP JUMP JUMPDEST DUP1 PUSH1 0x3 PUSH0 CALLER PUSH20 0xFFFFFFFFFFFFFFFFFFFFFFFFFFFFFFFFFFFFFFFF AND PUSH20 0xFFFFFFFFFFFFFFFFFFFFFFFFFFFFFFFFFFFFFFFF AND DUP2 MSTORE PUSH1 0x20 ADD SWAP1 DUP2 MSTORE PUSH1 0x20 ADD PUSH0 KECCAK256 PUSH0 DUP5 PUSH20 0xFFFFFFFFFFFFFFFFFFFFFFFFFFFFFFFFFFFFFFFF AND PUSH20 0xFFFFFFFFFFFFFFFFFFFFFFFFFFFFFFFFFFFFFFFF AND DUP2 MSTORE PUSH1 0x20 ADD SWAP1 DUP2 MSTORE PUSH1 0x20 ADD PUSH0 KECCAK256 PUSH0 PUSH2 0x100 EXP DUP2 SLOAD DUP2 PUSH1 0xFF MUL NOT AND SWAP1 DUP4 ISZERO ISZERO MUL OR SWAP1 SSTORE POP DUP2 PUSH20 0xFFFFFFFFFFFFFFFFFFFFFFFFFFFFFFFFFFFFFFFF AND CALLER PUSH20 0xFFFFFFFFFFFFFFFFFFFFFFFFFFFFFFFFFFFFFFFF AND PUSH32 0x17307EAB39AB6107E8899845AD3D59BD9653F200F220920489CA2B5937696C31 DUP4 PUSH1 0x40 MLOAD PUSH2 0xCF8 SWAP2 SWAP1 PUSH2 0x13F6 JUMP JUMPDEST PUSH1 0x40 MLOAD DUP1 SWAP2 SUB SWAP1 LOG3 POP POP JUMP JUMPDEST PUSH2 0xD0F DUP6 DUP6 DUP6 PUSH2 0x5ED JUMP JUMPDEST PUSH0 DUP5 PUSH20 0xFFFFFFFFFFFFFFFFFFFFFFFFFFFFFFFFFFFFFFFF AND EXTCODESIZE EQ DUP1 PUSH2 0xDF8 JUMPI POP PUSH4 0x150B7A02 PUSH1 0xE0 SHL PUSH28 0xFFFFFFFFFFFFFFFFFFFFFFFFFFFFFFFFFFFFFFFFFFFFFFFFFFFFFFFF NOT AND DUP5 PUSH20 0xFFFFFFFFFFFFFFFFFFFFFFFFFFFFFFFFFFFFFFFF AND PUSH4 0x150B7A02 CALLER DUP9 DUP8 DUP8 DUP8 PUSH1 0x40 MLOAD DUP7 PUSH4 0xFFFFFFFF AND PUSH1 0xE0 SHL DUP2 MSTORE PUSH1 0x4 ADD PUSH2 0xD97 SWAP6 SWAP5 SWAP4 SWAP3 SWAP2 SWAP1 PUSH2 0x1BE2 JUMP JUMPDEST PUSH1 0x20 PUSH1 0x40 MLOAD DUP1 DUP4 SUB DUP2 PUSH0 DUP8 GAS CALL ISZERO DUP1 ISZERO PUSH2 0xDB3 JUMPI RETURNDATASIZE PUSH0 DUP1 RETURNDATACOPY RETURNDATASIZE PUSH0 REVERT JUMPDEST POP POP POP POP PUSH1 0x40 MLOAD RETURNDATASIZE PUSH1 0x1F NOT PUSH1 0x1F DUP3 ADD AND DUP3 ADD DUP1 PUSH1 0x40 MSTORE POP DUP2 ADD SWAP1 PUSH2 0xDD7 SWAP2 SWAP1 PUSH2 0x1A35 JUMP JUMPDEST PUSH28 0xFFFFFFFFFFFFFFFFFFFFFFFFFFFFFFFFFFFFFFFFFFFFFFFFFFFFFFFF NOT AND EQ JUMPDEST PUSH2 0xE37 JUMPI PUSH1 0x40 MLOAD PUSH32 0x8C379A000000000000000000000000000000000000000000000000000000000 DUP2 MSTORE PUSH1 0x4 ADD PUSH2 0xE2E SWAP1 PUSH2 0x1AAA JUMP JUMPDEST PUSH1 0x40 MLOAD DUP1 SWAP2 SUB SWAP1 REVERT JUMPDEST POP POP POP POP POP JUMP JUMPDEST PUSH1 0x3 PUSH1 0x20 MSTORE DUP2 PUSH0 MSTORE PUSH1 0x40 PUSH0 KECCAK256 PUSH1 0x20 MSTORE DUP1 PUSH0 MSTORE PUSH1 0x40 PUSH0 KECCAK256 PUSH0 SWAP2 POP SWAP2 POP SWAP1 SLOAD SWAP1 PUSH2 0x100 EXP SWAP1 DIV PUSH1 0xFF AND DUP2 JUMP JUMPDEST PUSH0 DUP4 PUSH20 0xFFFFFFFFFFFFFFFFFFFFFFFFFFFFFFFFFFFFFFFF AND DUP4 PUSH20 0xFFFFFFFFFFFFFFFFFFFFFFFFFFFFFFFFFFFFFFFF AND EQ DUP1 PUSH2 0xF24 JUMPI POP PUSH1 0x3 PUSH0 DUP6 PUSH20 0xFFFFFFFFFFFFFFFFFFFFFFFFFFFFFFFFFFFFFFFF AND PUSH20 0xFFFFFFFFFFFFFFFFFFFFFFFFFFFFFFFFFFFFFFFF AND DUP2 MSTORE PUSH1 0x20 ADD SWAP1 DUP2 MSTORE PUSH1 0x20 ADD PUSH0 KECCAK256 PUSH0 DUP5 PUSH20 0xFFFFFFFFFFFFFFFFFFFFFFFFFFFFFFFFFFFFFFFF AND PUSH20 0xFFFFFFFFFFFFFFFFFFFFFFFFFFFFFFFFFFFFFFFF AND DUP2 MSTORE PUSH1 0x20 ADD SWAP1 DUP2 MSTORE PUSH1 0x20 ADD PUSH0 KECCAK256 PUSH0 SWAP1 SLOAD SWAP1 PUSH2 0x100 EXP SWAP1 DIV PUSH1 0xFF AND JUMPDEST DUP1 PUSH2 0xF8A JUMPI POP PUSH1 0x2 PUSH0 DUP4 DUP2 MSTORE PUSH1 0x20 ADD SWAP1 DUP2 MSTORE PUSH1 0x20 ADD PUSH0 KECCAK256 PUSH0 SWAP1 SLOAD SWAP1 PUSH2 0x100 EXP SWAP1 DIV PUSH20 0xFFFFFFFFFFFFFFFFFFFFFFFFFFFFFFFFFFFFFFFF AND PUSH20 0xFFFFFFFFFFFFFFFFFFFFFFFFFFFFFFFFFFFFFFFF AND DUP4 PUSH20 0xFFFFFFFFFFFFFFFFFFFFFFFFFFFFFFFFFFFFFFFF AND EQ JUMPDEST SWAP1 POP SWAP4 SWAP3 POP POP POP JUMP JUMPDEST PUSH0 PUSH20 0xFFFFFFFFFFFFFFFFFFFFFFFFFFFFFFFFFFFFFFFF AND DUP3 PUSH20 0xFFFFFFFFFFFFFFFFFFFFFFFFFFFFFFFFFFFFFFFF AND SUB PUSH2 0x1001 JUMPI PUSH1 0x40 MLOAD PUSH32 0x8C379A000000000000000000000000000000000000000000000000000000000 DUP2 MSTORE PUSH1 0x4 ADD PUSH2 0xFF8 SWAP1 PUSH2 0x18ED JUMP JUMPDEST PUSH1 0x40 MLOAD DUP1 SWAP2 SUB SWAP1 REVERT JUMPDEST PUSH0 PUSH20 0xFFFFFFFFFFFFFFFFFFFFFFFFFFFFFFFFFFFFFFFF AND PUSH0 DUP1 DUP4 DUP2 MSTORE PUSH1 0x20 ADD SWAP1 DUP2 MSTORE PUSH1 0x20 ADD PUSH0 KECCAK256 PUSH0 SWAP1 SLOAD SWAP1 PUSH2 0x100 EXP SWAP1 DIV PUSH20 0xFFFFFFFFFFFFFFFFFFFFFFFFFFFFFFFFFFFFFFFF AND PUSH20 0xFFFFFFFFFFFFFFFFFFFFFFFFFFFFFFFFFFFFFFFF AND EQ PUSH2 0x109E JUMPI PUSH1 0x40 MLOAD PUSH32 0x8C379A000000000000000000000000000000000000000000000000000000000 DUP2 MSTORE PUSH1 0x4 ADD PUSH2 0x1095 SWAP1 PUSH2 0x1C78 JUMP JUMPDEST PUSH1 0x40 MLOAD DUP1 SWAP2 SUB SWAP1 REVERT JUMPDEST PUSH1 0x1 PUSH0 DUP4 PUSH20 0xFFFFFFFFFFFFFFFFFFFFFFFFFFFFFFFFFFFFFFFF AND PUSH20 0xFFFFFFFFFFFFFFFFFFFFFFFFFFFFFFFFFFFFFFFF AND DUP2 MSTORE PUSH1 0x20 ADD SWAP1 DUP2 MSTORE PUSH1 0x20 ADD PUSH0 KECCAK256 PUSH0 DUP2 SLOAD DUP1 SWAP3 SWAP2 SWAP1 PUSH2 0x10EB SWAP1 PUSH2 0x195F JUMP JUMPDEST SWAP2 SWAP1 POP SSTORE POP DUP2 PUSH0 DUP1 DUP4 DUP2 MSTORE PUSH1 0x20 ADD SWAP1 DUP2 MSTORE PUSH1 0x20 ADD PUSH0 KECCAK256 PUSH0 PUSH2 0x100 EXP DUP2 SLOAD DUP2 PUSH20 0xFFFFFFFFFFFFFFFFFFFFFFFFFFFFFFFFFFFFFFFF MUL NOT AND SWAP1 DUP4 PUSH20 0xFFFFFFFFFFFFFFFFFFFFFFFFFFFFFFFFFFFFFFFF AND MUL OR SWAP1 SSTORE POP DUP1 DUP3 PUSH20 0xFFFFFFFFFFFFFFFFFFFFFFFFFFFFFFFFFFFFFFFF AND PUSH0 PUSH20 0xFFFFFFFFFFFFFFFFFFFFFFFFFFFFFFFFFFFFFFFF AND PUSH32 0xDDF252AD1BE2C89B69C2B068FC378DAA952BA7F163C4A11628F55A4DF523B3EF PUSH1 0x40 MLOAD PUSH1 0x40 MLOAD DUP1 SWAP2 SUB SWAP1 LOG4 POP POP JUMP JUMPDEST PUSH0 DUP1 PUSH0 DUP4 DUP2 MSTORE PUSH1 0x20 ADD SWAP1 DUP2 MSTORE PUSH1 0x20 ADD PUSH0 KECCAK256 PUSH0 SWAP1 SLOAD SWAP1 PUSH2 0x100 EXP SWAP1 DIV PUSH20 0xFFFFFFFFFFFFFFFFFFFFFFFFFFFFFFFFFFFFFFFF AND SWAP1 POP PUSH0 PUSH20 0xFFFFFFFFFFFFFFFFFFFFFFFFFFFFFFFFFFFFFFFF AND DUP2 PUSH20 0xFFFFFFFFFFFFFFFFFFFFFFFFFFFFFFFFFFFFFFFF AND SUB PUSH2 0x123E JUMPI PUSH1 0x40 MLOAD PUSH32 0x8C379A000000000000000000000000000000000000000000000000000000000 DUP2 MSTORE PUSH1 0x4 ADD PUSH2 0x1235 SWAP1 PUSH2 0x1CE0 JUMP JUMPDEST PUSH1 0x40 MLOAD DUP1 SWAP2 SUB SWAP1 REVERT JUMPDEST PUSH1 0x1 PUSH0 DUP3 PUSH20 0xFFFFFFFFFFFFFFFFFFFFFFFFFFFFFFFFFFFFFFFF AND PUSH20 0xFFFFFFFFFFFFFFFFFFFFFFFFFFFFFFFFFFFFFFFF AND DUP2 MSTORE PUSH1 0x20 ADD SWAP1 DUP2 MSTORE PUSH1 0x20 ADD PUSH0 KECCAK256 PUSH0 DUP2 SLOAD DUP1 SWAP3 SWAP2 SWAP1 PUSH2 0x128B SWAP1 PUSH2 0x1938 JUMP JUMPDEST SWAP2 SWAP1 POP SSTORE POP PUSH0 DUP1 DUP4 DUP2 MSTORE PUSH1 0x20 ADD SWAP1 DUP2 MSTORE PUSH1 0x20 ADD PUSH0 KECCAK256 PUSH0 PUSH2 0x100 EXP DUP2 SLOAD SWAP1 PUSH20 0xFFFFFFFFFFFFFFFFFFFFFFFFFFFFFFFFFFFFFFFF MUL NOT AND SWAP1 SSTORE PUSH1 0x2 PUSH0 DUP4 DUP2 MSTORE PUSH1 0x20 ADD SWAP1 DUP2 MSTORE PUSH1 0x20 ADD PUSH0 KECCAK256 PUSH0 PUSH2 0x100 EXP DUP2 SLOAD SWAP1 PUSH20 0xFFFFFFFFFFFFFFFFFFFFFFFFFFFFFFFFFFFFFFFF MUL NOT AND SWAP1 SSTORE DUP2 PUSH0 PUSH20 0xFFFFFFFFFFFFFFFFFFFFFFFFFFFFFFFFFFFFFFFF AND DUP3 PUSH20 0xFFFFFFFFFFFFFFFFFFFFFFFFFFFFFFFFFFFFFFFF AND PUSH32 0xDDF252AD1BE2C89B69C2B068FC378DAA952BA7F163C4A11628F55A4DF523B3EF PUSH1 0x40 MLOAD PUSH1 0x40 MLOAD DUP1 SWAP2 SUB SWAP1 LOG4 POP POP JUMP JUMPDEST PUSH0 DUP1 REVERT JUMPDEST PUSH0 DUP1 REVERT JUMPDEST PUSH0 PUSH32 0xFFFFFFFF00000000000000000000000000000000000000000000000000000000 DUP3 AND SWAP1 POP SWAP2 SWAP1 POP JUMP JUMPDEST PUSH2 0x1390 DUP2 PUSH2 0x135C JUMP JUMPDEST DUP2 EQ PUSH2 0x139A JUMPI PUSH0 DUP1 REVERT JUMPDEST POP JUMP JUMPDEST PUSH0 DUP2 CALLDATALOAD SWAP1 POP PUSH2 0x13AB DUP2 PUSH2 0x1387 JUMP JUMPDEST SWAP3 SWAP2 POP POP JUMP JUMPDEST PUSH0 PUSH1 0x20 DUP3 DUP5 SUB SLT ISZERO PUSH2 0x13C6 JUMPI PUSH2 0x13C5 PUSH2 0x1354 JUMP JUMPDEST JUMPDEST PUSH0 PUSH2 0x13D3 DUP5 DUP3 DUP6 ADD PUSH2 0x139D JUMP JUMPDEST SWAP2 POP POP SWAP3 SWAP2 POP POP JUMP JUMPDEST PUSH0 DUP2 ISZERO ISZERO SWAP1 POP SWAP2 SWAP1 POP JUMP JUMPDEST PUSH2 0x13F0 DUP2 PUSH2 0x13DC JUMP JUMPDEST DUP3 MSTORE POP POP JUMP JUMPDEST PUSH0 PUSH1 0x20 DUP3 ADD SWAP1 POP PUSH2 0x1409 PUSH0 DUP4 ADD DUP5 PUSH2 0x13E7 JUMP JUMPDEST SWAP3 SWAP2 POP POP JUMP JUMPDEST PUSH0 DUP2 SWAP1 POP SWAP2 SWAP1 POP JUMP JUMPDEST PUSH2 0x1421 DUP2 PUSH2 0x140F JUMP JUMPDEST DUP2 EQ PUSH2 0x142B JUMPI PUSH0 DUP1 REVERT JUMPDEST POP JUMP JUMPDEST PUSH0 DUP2 CALLDATALOAD SWAP1 POP PUSH2 0x143C DUP2 PUSH2 0x1418 JUMP JUMPDEST SWAP3 SWAP2 POP POP JUMP JUMPDEST PUSH0 PUSH1 0x20 DUP3 DUP5 SUB SLT ISZERO PUSH2 0x1457 JUMPI PUSH2 0x1456 PUSH2 0x1354 JUMP JUMPDEST JUMPDEST PUSH0 PUSH2 0x1464 DUP5 DUP3 DUP6 ADD PUSH2 0x142E JUMP JUMPDEST SWAP2 POP POP SWAP3 SWAP2 POP POP JUMP JUMPDEST PUSH0 PUSH20 0xFFFFFFFFFFFFFFFFFFFFFFFFFFFFFFFFFFFFFFFF DUP3 AND SWAP1 POP SWAP2 SWAP1 POP JUMP JUMPDEST PUSH0 PUSH2 0x1496 DUP3 PUSH2 0x146D JUMP JUMPDEST SWAP1 POP SWAP2 SWAP1 POP JUMP JUMPDEST PUSH2 0x14A6 DUP2 PUSH2 0x148C JUMP JUMPDEST DUP3 MSTORE POP POP JUMP JUMPDEST PUSH0 PUSH1 0x20 DUP3 ADD SWAP1 POP PUSH2 0x14BF PUSH0 DUP4 ADD DUP5 PUSH2 0x149D JUMP JUMPDEST SWAP3 SWAP2 POP POP JUMP JUMPDEST PUSH2 0x14CE DUP2 PUSH2 0x148C JUMP JUMPDEST DUP2 EQ PUSH2 0x14D8 JUMPI PUSH0 DUP1 REVERT JUMPDEST POP JUMP JUMPDEST PUSH0 DUP2 CALLDATALOAD SWAP1 POP PUSH2 0x14E9 DUP2 PUSH2 0x14C5 JUMP JUMPDEST SWAP3 SWAP2 POP POP JUMP JUMPDEST PUSH0 DUP1 PUSH1 0x40 DUP4 DUP6 SUB SLT ISZERO PUSH2 0x1505 JUMPI PUSH2 0x1504 PUSH2 0x1354 JUMP JUMPDEST JUMPDEST PUSH0 PUSH2 0x1512 DUP6 DUP3 DUP7 ADD PUSH2 0x14DB JUMP JUMPDEST SWAP3 POP POP PUSH1 0x20 PUSH2 0x1523 DUP6 DUP3 DUP7 ADD PUSH2 0x142E JUMP JUMPDEST SWAP2 POP POP SWAP3 POP SWAP3 SWAP1 POP JUMP JUMPDEST PUSH0 DUP1 PUSH0 PUSH1 0x60 DUP5 DUP7 SUB SLT ISZERO PUSH2 0x1544 JUMPI PUSH2 0x1543 PUSH2 0x1354 JUMP JUMPDEST JUMPDEST PUSH0 PUSH2 0x1551 DUP7 DUP3 DUP8 ADD PUSH2 0x14DB JUMP JUMPDEST SWAP4 POP POP PUSH1 0x20 PUSH2 0x1562 DUP7 DUP3 DUP8 ADD PUSH2 0x14DB JUMP JUMPDEST SWAP3 POP POP PUSH1 0x40 PUSH2 0x1573 DUP7 DUP3 DUP8 ADD PUSH2 0x142E JUMP JUMPDEST SWAP2 POP POP SWAP3 POP SWAP3 POP SWAP3 JUMP JUMPDEST PUSH0 PUSH1 0x20 DUP3 DUP5 SUB SLT ISZERO PUSH2 0x1592 JUMPI PUSH2 0x1591 PUSH2 0x1354 JUMP JUMPDEST JUMPDEST PUSH0 PUSH2 0x159F DUP5 DUP3 DUP6 ADD PUSH2 0x14DB JUMP JUMPDEST SWAP2 POP POP SWAP3 SWAP2 POP POP JUMP JUMPDEST PUSH2 0x15B1 DUP2 PUSH2 0x140F JUMP JUMPDEST DUP3 MSTORE POP POP JUMP JUMPDEST PUSH0 PUSH1 0x20 DUP3 ADD SWAP1 POP PUSH2 0x15CA PUSH0 DUP4 ADD DUP5 PUSH2 0x15A8 JUMP JUMPDEST SWAP3 SWAP2 POP POP JUMP JUMPDEST PUSH2 0x15D9 DUP2 PUSH2 0x13DC JUMP JUMPDEST DUP2 EQ PUSH2 0x15E3 JUMPI PUSH0 DUP1 REVERT JUMPDEST POP JUMP JUMPDEST PUSH0 DUP2 CALLDATALOAD SWAP1 POP PUSH2 0x15F4 DUP2 PUSH2 0x15D0 JUMP JUMPDEST SWAP3 SWAP2 POP POP JUMP JUMPDEST PUSH0 DUP1 PUSH1 0x40 DUP4 DUP6 SUB SLT ISZERO PUSH2 0x1610 JUMPI PUSH2 0x160F PUSH2 0x1354 JUMP JUMPDEST JUMPDEST PUSH0 PUSH2 0x161D DUP6 DUP3 DUP7 ADD PUSH2 0x14DB JUMP JUMPDEST SWAP3 POP POP PUSH1 0x20 PUSH2 0x162E DUP6 DUP3 DUP7 ADD PUSH2 0x15E6 JUMP JUMPDEST SWAP2 POP POP SWAP3 POP SWAP3 SWAP1 POP JUMP JUMPDEST PUSH0 DUP1 REVERT JUMPDEST PUSH0 DUP1 REVERT JUMPDEST PUSH0 DUP1 REVERT JUMPDEST PUSH0 DUP1 DUP4 PUSH1 0x1F DUP5 ADD SLT PUSH2 0x1659 JUMPI PUSH2 0x1658 PUSH2 0x1638 JUMP JUMPDEST JUMPDEST DUP3 CALLDATALOAD SWAP1 POP PUSH8 0xFFFFFFFFFFFFFFFF DUP2 GT ISZERO PUSH2 0x1676 JUMPI PUSH2 0x1675 PUSH2 0x163C JUMP JUMPDEST JUMPDEST PUSH1 0x20 DUP4 ADD SWAP2 POP DUP4 PUSH1 0x1 DUP3 MUL DUP4 ADD GT ISZERO PUSH2 0x1692 JUMPI PUSH2 0x1691 PUSH2 0x1640 JUMP JUMPDEST JUMPDEST SWAP3 POP SWAP3 SWAP1 POP JUMP JUMPDEST PUSH0 DUP1 PUSH0 DUP1 PUSH0 PUSH1 0x80 DUP7 DUP9 SUB SLT ISZERO PUSH2 0x16B2 JUMPI PUSH2 0x16B1 PUSH2 0x1354 JUMP JUMPDEST JUMPDEST PUSH0 PUSH2 0x16BF DUP9 DUP3 DUP10 ADD PUSH2 0x14DB JUMP JUMPDEST SWAP6 POP POP PUSH1 0x20 PUSH2 0x16D0 DUP9 DUP3 DUP10 ADD PUSH2 0x14DB JUMP JUMPDEST SWAP5 POP POP PUSH1 0x40 PUSH2 0x16E1 DUP9 DUP3 DUP10 ADD PUSH2 0x142E JUMP JUMPDEST SWAP4 POP POP PUSH1 0x60 DUP7 ADD CALLDATALOAD PUSH8 0xFFFFFFFFFFFFFFFF DUP2 GT ISZERO PUSH2 0x1702 JUMPI PUSH2 0x1701 PUSH2 0x1358 JUMP JUMPDEST JUMPDEST PUSH2 0x170E DUP9 DUP3 DUP10 ADD PUSH2 0x1644 JUMP JUMPDEST SWAP3 POP SWAP3 POP POP SWAP3 SWAP6 POP SWAP3 SWAP6 SWAP1 SWAP4 POP JUMP JUMPDEST PUSH0 DUP1 PUSH1 0x40 DUP4 DUP6 SUB SLT ISZERO PUSH2 0x1733 JUMPI PUSH2 0x1732 PUSH2 0x1354 JUMP JUMPDEST JUMPDEST PUSH0 PUSH2 0x1740 DUP6 DUP3 DUP7 ADD PUSH2 0x14DB JUMP JUMPDEST SWAP3 POP POP PUSH1 0x20 PUSH2 0x1751 DUP6 DUP3 DUP7 ADD PUSH2 0x14DB JUMP JUMPDEST SWAP2 POP POP SWAP3 POP SWAP3 SWAP1 POP JUMP JUMPDEST PUSH0 DUP3 DUP3 MSTORE PUSH1 0x20 DUP3 ADD SWAP1 POP SWAP3 SWAP2 POP POP JUMP JUMPDEST PUSH32 0x746F6B656E4964206E6F74206578697473000000000000000000000000000000 PUSH0 DUP3 ADD MSTORE POP JUMP JUMPDEST PUSH0 PUSH2 0x179F PUSH1 0x11 DUP4 PUSH2 0x175B JUMP JUMPDEST SWAP2 POP PUSH2 0x17AA DUP3 PUSH2 0x176B JUMP JUMPDEST PUSH1 0x20 DUP3 ADD SWAP1 POP SWAP2 SWAP1 POP JUMP JUMPDEST PUSH0 PUSH1 0x20 DUP3 ADD SWAP1 POP DUP2 DUP2 SUB PUSH0 DUP4 ADD MSTORE PUSH2 0x17CC DUP2 PUSH2 0x1793 JUMP JUMPDEST SWAP1 POP SWAP2 SWAP1 POP JUMP JUMPDEST PUSH32 0x6E6F7420617574686F72697A6564000000000000000000000000000000000000 PUSH0 DUP3 ADD MSTORE POP JUMP JUMPDEST PUSH0 PUSH2 0x1807 PUSH1 0xE DUP4 PUSH2 0x175B JUMP JUMPDEST SWAP2 POP PUSH2 0x1812 DUP3 PUSH2 0x17D3 JUMP JUMPDEST PUSH1 0x20 DUP3 ADD SWAP1 POP SWAP2 SWAP1 POP JUMP JUMPDEST PUSH0 PUSH1 0x20 DUP3 ADD SWAP1 POP DUP2 DUP2 SUB PUSH0 DUP4 ADD MSTORE PUSH2 0x1834 DUP2 PUSH2 0x17FB JUMP JUMPDEST SWAP1 POP SWAP2 SWAP1 POP JUMP JUMPDEST PUSH32 0x66726F6D20213D206F776E657200000000000000000000000000000000000000 PUSH0 DUP3 ADD MSTORE POP JUMP JUMPDEST PUSH0 PUSH2 0x186F PUSH1 0xD DUP4 PUSH2 0x175B JUMP JUMPDEST SWAP2 POP PUSH2 0x187A DUP3 PUSH2 0x183B JUMP JUMPDEST PUSH1 0x20 DUP3 ADD SWAP1 POP SWAP2 SWAP1 POP JUMP JUMPDEST PUSH0 PUSH1 0x20 DUP3 ADD SWAP1 POP DUP2 DUP2 SUB PUSH0 DUP4 ADD MSTORE PUSH2 0x189C DUP2 PUSH2 0x1863 JUMP JUMPDEST SWAP1 POP SWAP2 SWAP1 POP JUMP JUMPDEST PUSH32 0x746F203D207A65726F2061646472657373000000000000000000000000000000 PUSH0 DUP3 ADD MSTORE POP JUMP JUMPDEST PUSH0 PUSH2 0x18D7 PUSH1 0x11 DUP4 PUSH2 0x175B JUMP JUMPDEST SWAP2 POP PUSH2 0x18E2 DUP3 PUSH2 0x18A3 JUMP JUMPDEST PUSH1 0x20 DUP3 ADD SWAP1 POP SWAP2 SWAP1 POP JUMP JUMPDEST PUSH0 PUSH1 0x20 DUP3 ADD SWAP1 POP DUP2 DUP2 SUB PUSH0 DUP4 ADD MSTORE PUSH2 0x1904 DUP2 PUSH2 0x18CB JUMP JUMPDEST SWAP1 POP SWAP2 SWAP1 POP JUMP JUMPDEST PUSH32 0x4E487B7100000000000000000000000000000000000000000000000000000000 PUSH0 MSTORE PUSH1 0x11 PUSH1 0x4 MSTORE PUSH1 0x24 PUSH0 REVERT JUMPDEST PUSH0 PUSH2 0x1942 DUP3 PUSH2 0x140F JUMP JUMPDEST SWAP2 POP PUSH0 DUP3 SUB PUSH2 0x1954 JUMPI PUSH2 0x1953 PUSH2 0x190B JUMP JUMPDEST JUMPDEST PUSH1 0x1 DUP3 SUB SWAP1 POP SWAP2 SWAP1 POP JUMP JUMPDEST PUSH0 PUSH2 0x1969 DUP3 PUSH2 0x140F JUMP JUMPDEST SWAP2 POP PUSH32 0xFFFFFFFFFFFFFFFFFFFFFFFFFFFFFFFFFFFFFFFFFFFFFFFFFFFFFFFFFFFFFFFF DUP3 SUB PUSH2 0x199B JUMPI PUSH2 0x199A PUSH2 0x190B JUMP JUMPDEST JUMPDEST PUSH1 0x1 DUP3 ADD SWAP1 POP SWAP2 SWAP1 POP JUMP JUMPDEST PUSH0 DUP3 DUP3 MSTORE PUSH1 0x20 DUP3 ADD SWAP1 POP SWAP3 SWAP2 POP POP JUMP JUMPDEST POP JUMP JUMPDEST PUSH0 PUSH2 0x19C4 PUSH0 DUP4 PUSH2 0x19A6 JUMP JUMPDEST SWAP2 POP PUSH2 0x19CF DUP3 PUSH2 0x19B6 JUMP JUMPDEST PUSH0 DUP3 ADD SWAP1 POP SWAP2 SWAP1 POP JUMP JUMPDEST PUSH0 PUSH1 0x80 DUP3 ADD SWAP1 POP PUSH2 0x19EC PUSH0 DUP4 ADD DUP7 PUSH2 0x149D JUMP JUMPDEST PUSH2 0x19F9 PUSH1 0x20 DUP4 ADD DUP6 PUSH2 0x149D JUMP JUMPDEST PUSH2 0x1A06 PUSH1 0x40 DUP4 ADD DUP5 PUSH2 0x15A8 JUMP JUMPDEST DUP2 DUP2 SUB PUSH1 0x60 DUP4 ADD MSTORE PUSH2 0x1A17 DUP2 PUSH2 0x19B9 JUMP JUMPDEST SWAP1 POP SWAP5 SWAP4 POP POP POP POP JUMP JUMPDEST PUSH0 DUP2 MLOAD SWAP1 POP PUSH2 0x1A2F DUP2 PUSH2 0x1387 JUMP JUMPDEST SWAP3 SWAP2 POP POP JUMP JUMPDEST PUSH0 PUSH1 0x20 DUP3 DUP5 SUB SLT ISZERO PUSH2 0x1A4A JUMPI PUSH2 0x1A49 PUSH2 0x1354 JUMP JUMPDEST JUMPDEST PUSH0 PUSH2 0x1A57 DUP5 DUP3 DUP6 ADD PUSH2 0x1A21 JUMP JUMPDEST SWAP2 POP POP SWAP3 SWAP2 POP POP JUMP JUMPDEST PUSH32 0x756E7361666520726563697069656E7400000000000000000000000000000000 PUSH0 DUP3 ADD MSTORE POP JUMP JUMPDEST PUSH0 PUSH2 0x1A94 PUSH1 0x10 DUP4 PUSH2 0x175B JUMP JUMPDEST SWAP2 POP PUSH2 0x1A9F DUP3 PUSH2 0x1A60 JUMP JUMPDEST PUSH1 0x20 DUP3 ADD SWAP1 POP SWAP2 SWAP1 POP JUMP JUMPDEST PUSH0 PUSH1 0x20 DUP3 ADD SWAP1 POP DUP2 DUP2 SUB PUSH0 DUP4 ADD MSTORE PUSH2 0x1AC1 DUP2 PUSH2 0x1A88 JUMP JUMPDEST SWAP1 POP SWAP2 SWAP1 POP JUMP JUMPDEST PUSH32 0x6E6F74206F776E65720000000000000000000000000000000000000000000000 PUSH0 DUP3 ADD MSTORE POP JUMP JUMPDEST PUSH0 PUSH2 0x1AFC PUSH1 0x9 DUP4 PUSH2 0x175B JUMP JUMPDEST SWAP2 POP PUSH2 0x1B07 DUP3 PUSH2 0x1AC8 JUMP JUMPDEST PUSH1 0x20 DUP3 ADD SWAP1 POP SWAP2 SWAP1 POP JUMP JUMPDEST PUSH0 PUSH1 0x20 DUP3 ADD SWAP1 POP DUP2 DUP2 SUB PUSH0 DUP4 ADD MSTORE PUSH2 0x1B29 DUP2 PUSH2 0x1AF0 JUMP JUMPDEST SWAP1 POP SWAP2 SWAP1 POP JUMP JUMPDEST PUSH32 0x6F776E6572203D20616464726573732030000000000000000000000000000000 PUSH0 DUP3 ADD MSTORE POP JUMP JUMPDEST PUSH0 PUSH2 0x1B64 PUSH1 0x11 DUP4 PUSH2 0x175B JUMP JUMPDEST SWAP2 POP PUSH2 0x1B6F DUP3 PUSH2 0x1B30 JUMP JUMPDEST PUSH1 0x20 DUP3 ADD SWAP1 POP SWAP2 SWAP1 POP JUMP JUMPDEST PUSH0 PUSH1 0x20 DUP3 ADD SWAP1 POP DUP2 DUP2 SUB PUSH0 DUP4 ADD MSTORE PUSH2 0x1B91 DUP2 PUSH2 0x1B58 JUMP JUMPDEST SWAP1 POP SWAP2 SWAP1 POP JUMP JUMPDEST DUP3 DUP2 DUP4 CALLDATACOPY PUSH0 DUP4 DUP4 ADD MSTORE POP POP POP JUMP JUMPDEST PUSH0 PUSH1 0x1F NOT PUSH1 0x1F DUP4 ADD AND SWAP1 POP SWAP2 SWAP1 POP JUMP JUMPDEST PUSH0 PUSH2 0x1BC1 DUP4 DUP6 PUSH2 0x19A6 JUMP JUMPDEST SWAP4 POP PUSH2 0x1BCE DUP4 DUP6 DUP5 PUSH2 0x1B98 JUMP JUMPDEST PUSH2 0x1BD7 DUP4 PUSH2 0x1BA6 JUMP JUMPDEST DUP5 ADD SWAP1 POP SWAP4 SWAP3 POP POP POP JUMP JUMPDEST PUSH0 PUSH1 0x80 DUP3 ADD SWAP1 POP PUSH2 0x1BF5 PUSH0 DUP4 ADD DUP9 PUSH2 0x149D JUMP JUMPDEST PUSH2 0x1C02 PUSH1 0x20 DUP4 ADD DUP8 PUSH2 0x149D JUMP JUMPDEST PUSH2 0x1C0F PUSH1 0x40 DUP4 ADD DUP7 PUSH2 0x15A8 JUMP JUMPDEST DUP2 DUP2 SUB PUSH1 0x60 DUP4 ADD MSTORE PUSH2 0x1C22 DUP2 DUP5 DUP7 PUSH2 0x1BB6 JUMP JUMPDEST SWAP1 POP SWAP7 SWAP6 POP POP POP POP POP POP JUMP JUMPDEST PUSH32 0x746F6B656E206578697374730000000000000000000000000000000000000000 PUSH0 DUP3 ADD MSTORE POP JUMP JUMPDEST PUSH0 PUSH2 0x1C62 PUSH1 0xC DUP4 PUSH2 0x175B JUMP JUMPDEST SWAP2 POP PUSH2 0x1C6D DUP3 PUSH2 0x1C2E JUMP JUMPDEST PUSH1 0x20 DUP3 ADD SWAP1 POP SWAP2 SWAP1 POP JUMP JUMPDEST PUSH0 PUSH1 0x20 DUP3 ADD SWAP1 POP DUP2 DUP2 SUB PUSH0 DUP4 ADD MSTORE PUSH2 0x1C8F DUP2 PUSH2 0x1C56 JUMP JUMPDEST SWAP1 POP SWAP2 SWAP1 POP JUMP JUMPDEST PUSH32 0x746F6B656E20646F6573206E6F74206578697374000000000000000000000000 PUSH0 DUP3 ADD MSTORE POP JUMP JUMPDEST PUSH0 PUSH2 0x1CCA PUSH1 0x14 DUP4 PUSH2 0x175B JUMP JUMPDEST SWAP2 POP PUSH2 0x1CD5 DUP3 PUSH2 0x1C96 JUMP JUMPDEST PUSH1 0x20 DUP3 ADD SWAP1 POP SWAP2 SWAP1 POP JUMP JUMPDEST PUSH0 PUSH1 0x20 DUP3 ADD SWAP1 POP DUP2 DUP2 SUB PUSH0 DUP4 ADD MSTORE PUSH2 0x1CF7 DUP2 PUSH2 0x1CBE JUMP JUMPDEST SWAP1 POP SWAP2 SWAP1 POP JUMP INVALID LOG2 PUSH5 0x6970667358 0x22 SLT KECCAK256 PREVRANDAO 0xB6 0xC7 0xF7 CODECOPY 0xDE 0xA7 SUB EXTCODEHASH 0x2B 0xDE BALANCE CALLVALUE 0xA6 0xE9 0xCD 0xAA RETURN 0xEA STATICCALL 0x4E 0xF9 PUSH8 0x9219601F8DD7FEFF 0xBB PUSH5 0x736F6C6343 STOP ADDMOD OR STOP CALLER "
				},
				"gasEstimates": {
					"creation": {
						"codeDepositCost": "1495200",
						"executionCost": "1559",
						"totalCost": "1496759"
					},
					"external": {
						"approve(address,uint256)": "31519",
						"balanceOf(address)": "2908",
						"burn(uint256)": "infinite",
						"getApproved(uint256)": "5121",
						"isApprovedForAll(address,address)": "infinite",
						"mint(address,uint256)": "infinite",
						"ownerOf(uint256)": "2960",
						"safeTransferFrom(address,address,uint256)": "infinite",
						"safeTransferFrom(address,address,uint256,bytes)": "infinite",
						"setApprovalForAll(address,bool)": "infinite",
						"supportsInterface(bytes4)": "676",
						"transferFrom(address,address,uint256)": "infinite"
					}
				},
				"methodIdentifiers": {
					"approve(address,uint256)": "095ea7b3",
					"balanceOf(address)": "70a08231",
					"burn(uint256)": "42966c68",
					"getApproved(uint256)": "081812fc",
					"isApprovedForAll(address,address)": "e985e9c5",
					"mint(address,uint256)": "40c10f19",
					"ownerOf(uint256)": "6352211e",
					"safeTransferFrom(address,address,uint256)": "42842e0e",
					"safeTransferFrom(address,address,uint256,bytes)": "b88d4fde",
					"setApprovalForAll(address,bool)": "a22cb465",
					"supportsInterface(bytes4)": "01ffc9a7",
					"transferFrom(address,address,uint256)": "23b872dd"
				}
			},
			"storageLayout": {
				"storage": [
					{
						"astId": 129,
						"contract": "tests/ERC721.sol:MyNFT",
						"label": "_ownerOf",
						"offset": 0,
						"slot": "0",
						"type": "t_mapping(t_uint256,t_address)"
					},
					{
						"astId": 133,
						"contract": "tests/ERC721.sol:MyNFT",
						"label": "_balanceOf",
						"offset": 0,
						"slot": "1",
						"type": "t_mapping(t_address,t_uint256)"
					},
					{
						"astId": 137,
						"contract": "tests/ERC721.sol:MyNFT",
						"label": "_approvals",
						"offset": 0,
						"slot": "2",
						"type": "t_mapping(t_uint256,t_address)"
					},
					{
						"astId": 143,
						"contract": "tests/ERC721.sol:MyNFT",
						"label": "isApprovedForAll",
						"offset": 0,
						"slot": "3",
						"type": "t_mapping(t_address,t_mapping(t_address,t_bool))"
					}
				],
				"types": {
					"t_address": {
						"encoding": "inplace",
						"label": "address",
						"numberOfBytes": "20"
					},
					"t_bool": {
						"encoding": "inplace",
						"label": "bool",
						"numberOfBytes": "1"
					},
					"t_mapping(t_address,t_bool)": {
						"encoding": "mapping",
						"key": "t_address",
						"label": "mapping(address => bool)",
						"numberOfBytes": "32",
						"value": "t_bool"
					},
					"t_mapping(t_address,t_mapping(t_address,t_bool))": {
						"encoding": "mapping",
						"key": "t_address",
						"label": "mapping(address => mapping(address => bool))",
						"numberOfBytes": "32",
						"value": "t_mapping(t_address,t_bool)"
					},
					"t_mapping(t_address,t_uint256)": {
						"encoding": "mapping",
						"key": "t_address",
						"label": "mapping(address => uint256)",
						"numberOfBytes": "32",
						"value": "t_uint256"
					},
					"t_mapping(t_uint256,t_address)": {
						"encoding": "mapping",
						"key": "t_uint256",
						"label": "mapping(uint256 => address)",
						"numberOfBytes": "32",
						"value": "t_address"
					},
					"t_uint256": {
						"encoding": "inplace",
						"label": "uint256",
						"numberOfBytes": "32"
					}
				}
			},
			"userdoc": {
				"kind": "user",
				"methods": {},
				"version": 1
			}
		}
	}
}