{
	"tests/StakingRewards.sol": {
		"StakingRewards": {
			"abi": [
				{
					"inputs": [
						{
							"internalType": "address",
							"name": "_stakingToken",
							"type": "address"
						},
						{
							"internalType": "address",
							"name": "_rewardsToken",
							"type": "address"
						}
					],
					"stateMutability": "nonpayable",
					"type": "constructor"
				},
				{
					"inputs": [
						{
							"internalType": "address",
							"name": "",
							"type": "address"
						}
					],
					"name": "balanceOf",
					"outputs": [
						{
							"internalType": "uint256",
							"name": "",
							"type": "uint256"
						}
					],
					"stateMutability": "view",
					"type": "function"
				},
				{
					"inputs": [],
					"name": "duration",
					"outputs": [
						{
							"internalType": "uint256",
							"name": "",
							"type": "uint256"
						}
					],
					"stateMutability": "view",
					"type": "function"
				},
				{
					"inputs": [
						{
							"internalType": "address",
							"name": "_account",
							"type": "address"
						}
					],
					"name": "earned",
					"outputs": [
						{
							"internalType": "uint256",
							"name": "",
							"type": "uint256"
						}
					],
					"stateMutability": "view",
					"type": "function"
				},
				{
					"inputs": [],
					"name": "finishAt",
					"outputs": [
						{
							"internalType": "uint256",
							"name": "",
							"type": "uint256"
						}
					],
					"stateMutability": "view",
					"type": "function"
				},
				{
					"inputs": [],
					"name": "getReward",
					"outputs": [],
					"stateMutability": "nonpayable",
					"type": "function"
				},
				{
					"inputs": [],
					"name": "lastTimeRewardApplicable",
					"outputs": [
						{
							"internalType": "uint256",
							"name": "",
							"type": "uint256"
						}
					],
					"stateMutability": "view",
					"type": "function"
				},
				{
					"inputs": [
						{
							"internalType": "uint256",
							"name": "_amount",
							"type": "uint256"
						}
					],
					"name": "notifyRewardAmount",
					"outputs": [],
					"stateMutability": "nonpayable",
					"type": "function"
				},
				{
					"inputs": [],
					"name": "owner",
					"outputs": [
						{
							"internalType": "address",
							"name": "",
							"type": "address"
						}
					],
					"stateMutability": "view",
					"type": "function"
				},
				{
					"inputs": [],
					"name": "rewardPerToken",
					"outputs": [
						{
							"internalType": "uint256",
							"name": "",
							"type": "uint256"
						}
					],
					"stateMutability": "view",
					"type": "function"
				},
				{
					"inputs": [],
					"name": "rewardPerTokenStored",
					"outputs": [
						{
							"internalType": "uint256",
							"name": "",
							"type": "uint256"
						}
					],
					"stateMutability": "view",
					"type": "function"
				},
				{
					"inputs": [],
					"name": "rewardRate",
					"outputs": [
						{
							"internalType": "uint256",
							"name": "",
							"type": "uint256"
						}
					],
					"stateMutability": "view",
					"type": "function"
				},
				{
					"inputs": [
						{
							"internalType": "address",
							"name": "",
							"type": "address"
						}
					],
					"name": "rewards",
					"outputs": [
						{
							"internalType": "uint256",
							"name": "",
							"type": "uint256"
						}
					],
					"stateMutability": "view",
					"type": "function"
				},
				{
					"inputs": [],
					"name": "rewardsToken",
					"outputs": [
						{
							"internalType": "contract IERC20",
							"name": "",
							"type": "address"
						}
					],
					"stateMutability": "view",
					"type": "function"
				},
				{
					"inputs": [
						{
							"internalType": "uint256",
							"name": "_duration",
							"type": "uint256"
						}
					],
					"name": "setRewarsDuration",
					"outputs": [],
					"stateMutability": "nonpayable",
					"type": "function"
				},
				{
					"inputs": [
						{
							"internalType": "uint256",
							"name": "_amount",
							"type": "uint256"
						}
					],
					"name": "stake",
					"outputs": [],
					"stateMutability": "nonpayable",
					"type": "function"
				},
				{
					"inputs": [],
					"name": "stakingToken",
					"outputs": [
						{
							"internalType": "contract IERC20",
							"name": "",
							"type": "address"
						}
					],
					"stateMutability": "view",
					"type": "function"
				},
				{
					"inputs": [],
					"name": "totalSupply",
					"outputs": [
						{
							"internalType": "uint256",
							"name": "",
							"type": "uint256"
						}
					],
					"stateMutability": "view",
					"type": "function"
				},
				{
					"inputs": [],
					"name": "updatedAt",
					"outputs": [
						{
							"internalType": "uint256",
							"name": "",
							"type": "uint256"
						}
					],
					"stateMutability": "view",
					"type": "function"
				},
				{
					"inputs": [
						{
							"internalType": "address",
							"name": "",
							"type": "address"
						}
					],
					"name": "userRewardPerTokenPaid",
					"outputs": [
						{
							"internalType": "uint256",
							"name": "",
							"type": "uint256"
						}
					],
					"stateMutability": "view",
					"type": "function"
				},
				{
					"inputs": [
						{
							"internalType": "uint256",
							"name": "_amount",
							"type": "uint256"
						}
					],
					"name": "withdraw",
					"outputs": [],
					"stateMutability": "nonpayable",
					"type": "function"
				}
			],
			"devdoc": {
				"kind": "dev",
				"methods": {},
				"version": 1
			},
			"evm": {
				"assembly": "    /* \"tests/StakingRewards.sol\":119:3536  contract StakingRewards {... */\n  mstore(0x40, 0xc0)\n    /* \"tests/StakingRewards.sol\":1054:1243  constructor(address _stakingToken, address _rewardsToken) {... */\n  callvalue\n  dup1\n  iszero\n  tag_1\n  jumpi\n  0x00\n  dup1\n  revert\ntag_1:\n  pop\n  mload(0x40)\n  sub(codesize, bytecodeSize)\n  dup1\n  bytecodeSize\n  dup4\n  codecopy\n  dup2\n  dup2\n  add\n  0x40\n  mstore\n  dup2\n  add\n  swap1\n  tag_2\n  swap2\n  swap1\n  tag_3\n  jump\t// in\ntag_2:\n    /* \"tests/StakingRewards.sol\":1131:1141  msg.sender */\n  caller\n    /* \"tests/StakingRewards.sol\":1123:1128  owner */\n  0x00\n  dup1\n    /* \"tests/StakingRewards.sol\":1123:1141  owner = msg.sender */\n  0x0100\n  exp\n  dup2\n  sload\n  dup2\n  0xffffffffffffffffffffffffffffffffffffffff\n  mul\n  not\n  and\n  swap1\n  dup4\n  0xffffffffffffffffffffffffffffffffffffffff\n  and\n  mul\n  or\n  swap1\n  sstore\n  pop\n    /* \"tests/StakingRewards.sol\":1174:1187  _stakingToken */\n  dup2\n    /* \"tests/StakingRewards.sol\":1152:1188  stakingToken = IERC20(_stakingToken) */\n  0xffffffffffffffffffffffffffffffffffffffff\n  and\n  0x80\n  dup2\n  0xffffffffffffffffffffffffffffffffffffffff\n  and\n  dup2\n  mstore\n  pop\n  pop\n    /* \"tests/StakingRewards.sol\":1221:1234  _rewardsToken */\n  dup1\n    /* \"tests/StakingRewards.sol\":1199:1235  rewardsToken = IERC20(_rewardsToken) */\n  0xffffffffffffffffffffffffffffffffffffffff\n  and\n  0xa0\n  dup2\n  0xffffffffffffffffffffffffffffffffffffffff\n  and\n  dup2\n  mstore\n  pop\n  pop\n    /* \"tests/StakingRewards.sol\":1054:1243  constructor(address _stakingToken, address _rewardsToken) {... */\n  pop\n  pop\n    /* \"tests/StakingRewards.sol\":119:3536  contract StakingRewards {... */\n  jump(tag_6)\n    /* \"#utility.yul\":88:205   */\ntag_8:\n    /* \"#utility.yul\":197:198   */\n  0x00\n    /* \"#utility.yul\":194:195   */\n  dup1\n    /* \"#utility.yul\":187:199   */\n  revert\n    /* \"#utility.yul\":334:460   */\ntag_10:\n    /* \"#utility.yul\":371:378   */\n  0x00\n    /* \"#utility.yul\":411:453   */\n  0xffffffffffffffffffffffffffffffffffffffff\n    /* \"#utility.yul\":404:409   */\n  dup3\n    /* \"#utility.yul\":400:454   */\n  and\n    /* \"#utility.yul\":389:454   */\n  swap1\n  pop\n    /* \"#utility.yul\":334:460   */\n  swap2\n  swap1\n  pop\n  jump\t// out\n    /* \"#utility.yul\":466:562   */\ntag_11:\n    /* \"#utility.yul\":503:510   */\n  0x00\n    /* \"#utility.yul\":532:556   */\n  tag_20\n    /* \"#utility.yul\":550:555   */\n  dup3\n    /* \"#utility.yul\":532:556   */\n  tag_10\n  jump\t// in\ntag_20:\n    /* \"#utility.yul\":521:556   */\n  swap1\n  pop\n    /* \"#utility.yul\":466:562   */\n  swap2\n  swap1\n  pop\n  jump\t// out\n    /* \"#utility.yul\":568:690   */\ntag_12:\n    /* \"#utility.yul\":641:665   */\n  tag_22\n    /* \"#utility.yul\":659:664   */\n  dup2\n    /* \"#utility.yul\":641:665   */\n  tag_11\n  jump\t// in\ntag_22:\n    /* \"#utility.yul\":634:639   */\n  dup2\n    /* \"#utility.yul\":631:666   */\n  eq\n    /* \"#utility.yul\":621:684   */\n  tag_23\n  jumpi\n    /* \"#utility.yul\":680:681   */\n  0x00\n    /* \"#utility.yul\":677:678   */\n  dup1\n    /* \"#utility.yul\":670:682   */\n  revert\n    /* \"#utility.yul\":621:684   */\ntag_23:\n    /* \"#utility.yul\":568:690   */\n  pop\n  jump\t// out\n    /* \"#utility.yul\":696:839   */\ntag_13:\n    /* \"#utility.yul\":753:758   */\n  0x00\n    /* \"#utility.yul\":784:790   */\n  dup2\n    /* \"#utility.yul\":778:791   */\n  mload\n    /* \"#utility.yul\":769:791   */\n  swap1\n  pop\n    /* \"#utility.yul\":800:833   */\n  tag_25\n    /* \"#utility.yul\":827:832   */\n  dup2\n    /* \"#utility.yul\":800:833   */\n  tag_12\n  jump\t// in\ntag_25:\n    /* \"#utility.yul\":696:839   */\n  swap3\n  swap2\n  pop\n  pop\n  jump\t// out\n    /* \"#utility.yul\":845:1352   */\ntag_3:\n    /* \"#utility.yul\":924:930   */\n  0x00\n    /* \"#utility.yul\":932:938   */\n  dup1\n    /* \"#utility.yul\":981:983   */\n  0x40\n    /* \"#utility.yul\":969:978   */\n  dup4\n    /* \"#utility.yul\":960:967   */\n  dup6\n    /* \"#utility.yul\":956:979   */\n  sub\n    /* \"#utility.yul\":952:984   */\n  slt\n    /* \"#utility.yul\":949:1068   */\n  iszero\n  tag_27\n  jumpi\n    /* \"#utility.yul\":987:1066   */\n  tag_28\n  tag_8\n  jump\t// in\ntag_28:\n    /* \"#utility.yul\":949:1068   */\ntag_27:\n    /* \"#utility.yul\":1107:1108   */\n  0x00\n    /* \"#utility.yul\":1132:1196   */\n  tag_29\n    /* \"#utility.yul\":1188:1195   */\n  dup6\n    /* \"#utility.yul\":1179:1185   */\n  dup3\n    /* \"#utility.yul\":1168:1177   */\n  dup7\n    /* \"#utility.yul\":1164:1186   */\n  add\n    /* \"#utility.yul\":1132:1196   */\n  tag_13\n  jump\t// in\ntag_29:\n    /* \"#utility.yul\":1122:1196   */\n  swap3\n  pop\n    /* \"#utility.yul\":1078:1206   */\n  pop\n    /* \"#utility.yul\":1245:1247   */\n  0x20\n    /* \"#utility.yul\":1271:1335   */\n  tag_30\n    /* \"#utility.yul\":1327:1334   */\n  dup6\n    /* \"#utility.yul\":1318:1324   */\n  dup3\n    /* \"#utility.yul\":1307:1316   */\n  dup7\n    /* \"#utility.yul\":1303:1325   */\n  add\n    /* \"#utility.yul\":1271:1335   */\n  tag_13\n  jump\t// in\ntag_30:\n    /* \"#utility.yul\":1261:1335   */\n  swap2\n  pop\n    /* \"#utility.yul\":1216:1345   */\n  pop\n    /* \"#utility.yul\":845:1352   */\n  swap3\n  pop\n  swap3\n  swap1\n  pop\n  jump\t// out\n    /* \"tests/StakingRewards.sol\":119:3536  contract StakingRewards {... */\ntag_6:\n  mload(0x80)\n  mload(0xa0)\n  codecopy(0x00, dataOffset(sub_0), dataSize(sub_0))\n  0x00\n  assignImmutable(\"0x04e57633024368235fc5219bfb9802814291d3a7b9a68d0aeb7bd3d297ac474e\")\n  0x00\n  assignImmutable(\"0x845e9c18ca148a712f01bf14c91c3e2fe352eabe86c44817e3f33b63f585a343\")\n  return(0x00, dataSize(sub_0))\nstop\n\nsub_0: assembly {\n        /* \"tests/StakingRewards.sol\":119:3536  contract StakingRewards {... */\n      mstore(0x40, 0x80)\n      callvalue\n      dup1\n      iszero\n      tag_1\n      jumpi\n      0x00\n      dup1\n      revert\n    tag_1:\n      pop\n      jumpi(tag_2, lt(calldatasize, 0x04))\n      shr(0xe0, calldataload(0x00))\n      dup1\n      0x72f702f3\n      gt\n      tag_23\n      jumpi\n      dup1\n      0x8da5cb5b\n      gt\n      tag_24\n      jumpi\n      dup1\n      0x8da5cb5b\n      eq\n      tag_18\n      jumpi\n      dup1\n      0xa694fc3a\n      eq\n      tag_19\n      jumpi\n      dup1\n      0xcd3daf9d\n      eq\n      tag_20\n      jumpi\n      dup1\n      0xd1af0c7d\n      eq\n      tag_21\n      jumpi\n      dup1\n      0xdf136d65\n      eq\n      tag_22\n      jumpi\n      jump(tag_2)\n    tag_24:\n      dup1\n      0x72f702f3\n      eq\n      tag_13\n      jumpi\n      dup1\n      0x7519ab50\n      eq\n      tag_14\n      jumpi\n      dup1\n      0x7b0a47ee\n      eq\n      tag_15\n      jumpi\n      dup1\n      0x80faa57d\n      eq\n      tag_16\n      jumpi\n      dup1\n      0x8b876347\n      eq\n      tag_17\n      jumpi\n      jump(tag_2)\n    tag_23:\n      dup1\n      0x2e1a7d4d\n      gt\n      tag_25\n      jumpi\n      dup1\n      0x2e1a7d4d\n      eq\n      tag_8\n      jumpi\n      dup1\n      0x3c6b16ab\n      eq\n      tag_9\n      jumpi\n      dup1\n      0x3d18b912\n      eq\n      tag_10\n      jumpi\n      dup1\n      0x67d3b488\n      eq\n      tag_11\n      jumpi\n      dup1\n      0x70a08231\n      eq\n      tag_12\n      jumpi\n      jump(tag_2)\n    tag_25:\n      dup1\n      0x8cc262\n      eq\n      tag_3\n      jumpi\n      dup1\n      0x0700037d\n      eq\n      tag_4\n      jumpi\n      dup1\n      0x0fb5a6b4\n      eq\n      tag_5\n      jumpi\n      dup1\n      0x18160ddd\n      eq\n      tag_6\n      jumpi\n      dup1\n      0x208bae25\n      eq\n      tag_7\n      jumpi\n    tag_2:\n      0x00\n      dup1\n      revert\n        /* \"tests/StakingRewards.sol\":2983:3175  function earned(address _account) public view returns(uint) {... */\n    tag_3:\n      tag_26\n      0x04\n      dup1\n      calldatasize\n      sub\n      dup2\n      add\n      swap1\n      tag_27\n      swap2\n      swap1\n      tag_28\n      jump\t// in\n    tag_27:\n      tag_29\n      jump\t// in\n    tag_26:\n      mload(0x40)\n      tag_30\n      swap2\n      swap1\n      tag_31\n      jump\t// in\n    tag_30:\n      mload(0x40)\n      dup1\n      swap2\n      sub\n      swap1\n      return\n        /* \"tests/StakingRewards.sol\":481:521  mapping (address => uint) public rewards */\n    tag_4:\n      tag_32\n      0x04\n      dup1\n      calldatasize\n      sub\n      dup2\n      add\n      swap1\n      tag_33\n      swap2\n      swap1\n      tag_28\n      jump\t// in\n    tag_33:\n      tag_34\n      jump\t// in\n    tag_32:\n      mload(0x40)\n      tag_35\n      swap2\n      swap1\n      tag_31\n      jump\t// in\n    tag_35:\n      mload(0x40)\n      dup1\n      swap2\n      sub\n      swap1\n      return\n        /* \"tests/StakingRewards.sol\":267:287  uint public duration */\n    tag_5:\n      tag_36\n      tag_37\n      jump\t// in\n    tag_36:\n      mload(0x40)\n      tag_38\n      swap2\n      swap1\n      tag_31\n      jump\t// in\n    tag_38:\n      mload(0x40)\n      dup1\n      swap2\n      sub\n      swap1\n      return\n        /* \"tests/StakingRewards.sol\":530:553  uint public totalSupply */\n    tag_6:\n      tag_39\n      tag_40\n      jump\t// in\n    tag_39:\n      mload(0x40)\n      tag_41\n      swap2\n      swap1\n      tag_31\n      jump\t// in\n    tag_41:\n      mload(0x40)\n      dup1\n      swap2\n      sub\n      swap1\n      return\n        /* \"tests/StakingRewards.sol\":1251:1430  function setRewarsDuration(uint _duration) external onlyOwner {... */\n    tag_7:\n      tag_42\n      0x04\n      dup1\n      calldatasize\n      sub\n      dup2\n      add\n      swap1\n      tag_43\n      swap2\n      swap1\n      tag_44\n      jump\t// in\n    tag_43:\n      tag_45\n      jump\t// in\n    tag_42:\n      stop\n        /* \"tests/StakingRewards.sol\":2329:2577  function withdraw(uint _amount) external updateReward(msg.sender) {... */\n    tag_8:\n      tag_46\n      0x04\n      dup1\n      calldatasize\n      sub\n      dup2\n      add\n      swap1\n      tag_47\n      swap2\n      swap1\n      tag_44\n      jump\t// in\n    tag_47:\n      tag_48\n      jump\t// in\n    tag_46:\n      stop\n        /* \"tests/StakingRewards.sol\":1438:2049  function notifyRewardAmount(uint _amount) external onlyOwner updateReward(address(0)) {... */\n    tag_9:\n      tag_49\n      0x04\n      dup1\n      calldatasize\n      sub\n      dup2\n      add\n      swap1\n      tag_50\n      swap2\n      swap1\n      tag_44\n      jump\t// in\n    tag_50:\n      tag_51\n      jump\t// in\n    tag_49:\n      stop\n        /* \"tests/StakingRewards.sol\":3183:3422  function getReward() external updateReward(msg.sender) {... */\n    tag_10:\n      tag_52\n      tag_53\n      jump\t// in\n    tag_52:\n      stop\n        /* \"tests/StakingRewards.sol\":294:314  uint public finishAt */\n    tag_11:\n      tag_54\n      tag_55\n      jump\t// in\n    tag_54:\n      mload(0x40)\n      tag_56\n      swap2\n      swap1\n      tag_31\n      jump\t// in\n    tag_56:\n      mload(0x40)\n      dup1\n      swap2\n      sub\n      swap1\n      return\n        /* \"tests/StakingRewards.sol\":560:602  mapping (address => uint) public balanceOf */\n    tag_12:\n      tag_57\n      0x04\n      dup1\n      calldatasize\n      sub\n      dup2\n      add\n      swap1\n      tag_58\n      swap2\n      swap1\n      tag_28\n      jump\t// in\n    tag_58:\n      tag_59\n      jump\t// in\n    tag_57:\n      mload(0x40)\n      tag_60\n      swap2\n      swap1\n      tag_31\n      jump\t// in\n    tag_60:\n      mload(0x40)\n      dup1\n      swap2\n      sub\n      swap1\n      return\n        /* \"tests/StakingRewards.sol\":150:186  IERC20 public immutable stakingToken */\n    tag_13:\n      tag_61\n      tag_62\n      jump\t// in\n    tag_61:\n      mload(0x40)\n      tag_63\n      swap2\n      swap1\n      tag_64\n      jump\t// in\n    tag_63:\n      mload(0x40)\n      dup1\n      swap2\n      sub\n      swap1\n      return\n        /* \"tests/StakingRewards.sol\":321:342  uint public updatedAt */\n    tag_14:\n      tag_65\n      tag_66\n      jump\t// in\n    tag_65:\n      mload(0x40)\n      tag_67\n      swap2\n      swap1\n      tag_31\n      jump\t// in\n    tag_67:\n      mload(0x40)\n      dup1\n      swap2\n      sub\n      swap1\n      return\n        /* \"tests/StakingRewards.sol\":349:371  uint public rewardRate */\n    tag_15:\n      tag_68\n      tag_69\n      jump\t// in\n    tag_68:\n      mload(0x40)\n      tag_70\n      swap2\n      swap1\n      tag_31\n      jump\t// in\n    tag_70:\n      mload(0x40)\n      dup1\n      swap2\n      sub\n      swap1\n      return\n        /* \"tests/StakingRewards.sol\":2585:2704  function lastTimeRewardApplicable() public view returns(uint) {... */\n    tag_16:\n      tag_71\n      tag_72\n      jump\t// in\n    tag_71:\n      mload(0x40)\n      tag_73\n      swap2\n      swap1\n      tag_31\n      jump\t// in\n    tag_73:\n      mload(0x40)\n      dup1\n      swap2\n      sub\n      swap1\n      return\n        /* \"tests/StakingRewards.sol\":419:474  mapping (address => uint) public userRewardPerTokenPaid */\n    tag_17:\n      tag_74\n      0x04\n      dup1\n      calldatasize\n      sub\n      dup2\n      add\n      swap1\n      tag_75\n      swap2\n      swap1\n      tag_28\n      jump\t// in\n    tag_75:\n      tag_76\n      jump\t// in\n    tag_74:\n      mload(0x40)\n      tag_77\n      swap2\n      swap1\n      tag_31\n      jump\t// in\n    tag_77:\n      mload(0x40)\n      dup1\n      swap2\n      sub\n      swap1\n      return\n        /* \"tests/StakingRewards.sol\":238:258  address public owner */\n    tag_18:\n      tag_78\n      tag_79\n      jump\t// in\n    tag_78:\n      mload(0x40)\n      tag_80\n      swap2\n      swap1\n      tag_81\n      jump\t// in\n    tag_80:\n      mload(0x40)\n      dup1\n      swap2\n      sub\n      swap1\n      return\n        /* \"tests/StakingRewards.sol\":2057:2321  function stake(uint _amount) external updateReward(msg.sender) {... */\n    tag_19:\n      tag_82\n      0x04\n      dup1\n      calldatasize\n      sub\n      dup2\n      add\n      swap1\n      tag_83\n      swap2\n      swap1\n      tag_44\n      jump\t// in\n    tag_83:\n      tag_84\n      jump\t// in\n    tag_82:\n      stop\n        /* \"tests/StakingRewards.sol\":2712:2975  function rewardPerToken() public view returns(uint) {... */\n    tag_20:\n      tag_85\n      tag_86\n      jump\t// in\n    tag_85:\n      mload(0x40)\n      tag_87\n      swap2\n      swap1\n      tag_31\n      jump\t// in\n    tag_87:\n      mload(0x40)\n      dup1\n      swap2\n      sub\n      swap1\n      return\n        /* \"tests/StakingRewards.sol\":193:229  IERC20 public immutable rewardsToken */\n    tag_21:\n      tag_88\n      tag_89\n      jump\t// in\n    tag_88:\n      mload(0x40)\n      tag_90\n      swap2\n      swap1\n      tag_64\n      jump\t// in\n    tag_90:\n      mload(0x40)\n      dup1\n      swap2\n      sub\n      swap1\n      return\n        /* \"tests/StakingRewards.sol\":378:410  uint public rewardPerTokenStored */\n    tag_22:\n      tag_91\n      tag_92\n      jump\t// in\n    tag_91:\n      mload(0x40)\n      tag_93\n      swap2\n      swap1\n      tag_31\n      jump\t// in\n    tag_93:\n      mload(0x40)\n      dup1\n      swap2\n      sub\n      swap1\n      return\n        /* \"tests/StakingRewards.sol\":2983:3175  function earned(address _account) public view returns(uint) {... */\n    tag_29:\n        /* \"tests/StakingRewards.sol\":3037:3041  uint */\n      0x00\n        /* \"tests/StakingRewards.sol\":3150:3157  rewards */\n      0x07\n        /* \"tests/StakingRewards.sol\":3150:3167  rewards[_account] */\n      0x00\n        /* \"tests/StakingRewards.sol\":3158:3166  _account */\n      dup4\n        /* \"tests/StakingRewards.sol\":3150:3167  rewards[_account] */\n      0xffffffffffffffffffffffffffffffffffffffff\n      and\n      0xffffffffffffffffffffffffffffffffffffffff\n      and\n      dup2\n      mstore\n      0x20\n      add\n      swap1\n      dup2\n      mstore\n      0x20\n      add\n      0x00\n      keccak256\n      sload\n        /* \"tests/StakingRewards.sol\":3143:3147  1e18 */\n      0x0de0b6b3a7640000\n        /* \"tests/StakingRewards.sol\":3104:3126  userRewardPerTokenPaid */\n      0x06\n        /* \"tests/StakingRewards.sol\":3104:3136  userRewardPerTokenPaid[_account] */\n      0x00\n        /* \"tests/StakingRewards.sol\":3127:3135  _account */\n      dup6\n        /* \"tests/StakingRewards.sol\":3104:3136  userRewardPerTokenPaid[_account] */\n      0xffffffffffffffffffffffffffffffffffffffff\n      and\n      0xffffffffffffffffffffffffffffffffffffffff\n      and\n      dup2\n      mstore\n      0x20\n      add\n      swap1\n      dup2\n      mstore\n      0x20\n      add\n      0x00\n      keccak256\n      sload\n        /* \"tests/StakingRewards.sol\":3085:3101  rewardPerToken() */\n      tag_95\n        /* \"tests/StakingRewards.sol\":3085:3099  rewardPerToken */\n      tag_86\n        /* \"tests/StakingRewards.sol\":3085:3101  rewardPerToken() */\n      jump\t// in\n    tag_95:\n        /* \"tests/StakingRewards.sol\":3085:3136  rewardPerToken() - userRewardPerTokenPaid[_account] */\n      tag_96\n      swap2\n      swap1\n      tag_97\n      jump\t// in\n    tag_96:\n        /* \"tests/StakingRewards.sol\":3062:3071  balanceOf */\n      0x09\n        /* \"tests/StakingRewards.sol\":3062:3081  balanceOf[_account] */\n      0x00\n        /* \"tests/StakingRewards.sol\":3072:3080  _account */\n      dup7\n        /* \"tests/StakingRewards.sol\":3062:3081  balanceOf[_account] */\n      0xffffffffffffffffffffffffffffffffffffffff\n      and\n      0xffffffffffffffffffffffffffffffffffffffff\n      and\n      dup2\n      mstore\n      0x20\n      add\n      swap1\n      dup2\n      mstore\n      0x20\n      add\n      0x00\n      keccak256\n      sload\n        /* \"tests/StakingRewards.sol\":3062:3138  balanceOf[_account] * (rewardPerToken() - userRewardPerTokenPaid[_account] ) */\n      tag_98\n      swap2\n      swap1\n      tag_99\n      jump\t// in\n    tag_98:\n        /* \"tests/StakingRewards.sol\":3061:3147  (balanceOf[_account] * (rewardPerToken() - userRewardPerTokenPaid[_account] ) ) / 1e18 */\n      tag_100\n      swap2\n      swap1\n      tag_101\n      jump\t// in\n    tag_100:\n        /* \"tests/StakingRewards.sol\":3061:3167  (balanceOf[_account] * (rewardPerToken() - userRewardPerTokenPaid[_account] ) ) / 1e18 + rewards[_account] */\n      tag_102\n      swap2\n      swap1\n      tag_103\n      jump\t// in\n    tag_102:\n        /* \"tests/StakingRewards.sol\":3054:3167  return (balanceOf[_account] * (rewardPerToken() - userRewardPerTokenPaid[_account] ) ) / 1e18 + rewards[_account] */\n      swap1\n      pop\n        /* \"tests/StakingRewards.sol\":2983:3175  function earned(address _account) public view returns(uint) {... */\n      swap2\n      swap1\n      pop\n      jump\t// out\n        /* \"tests/StakingRewards.sol\":481:521  mapping (address => uint) public rewards */\n    tag_34:\n      mstore(0x20, 0x07)\n      dup1\n      0x00\n      mstore\n      keccak256(0x00, 0x40)\n      0x00\n      swap2\n      pop\n      swap1\n      pop\n      sload\n      dup2\n      jump\t// out\n        /* \"tests/StakingRewards.sol\":267:287  uint public duration */\n    tag_37:\n      sload(0x01)\n      dup2\n      jump\t// out\n        /* \"tests/StakingRewards.sol\":530:553  uint public totalSupply */\n    tag_40:\n      sload(0x08)\n      dup2\n      jump\t// out\n        /* \"tests/StakingRewards.sol\":1251:1430  function setRewarsDuration(uint _duration) external onlyOwner {... */\n    tag_45:\n        /* \"tests/StakingRewards.sol\":665:670  owner */\n      0x00\n      dup1\n      sload\n      swap1\n      0x0100\n      exp\n      swap1\n      div\n      0xffffffffffffffffffffffffffffffffffffffff\n      and\n        /* \"tests/StakingRewards.sol\":651:670  msg.sender == owner */\n      0xffffffffffffffffffffffffffffffffffffffff\n      and\n        /* \"tests/StakingRewards.sol\":651:661  msg.sender */\n      caller\n        /* \"tests/StakingRewards.sol\":651:670  msg.sender == owner */\n      0xffffffffffffffffffffffffffffffffffffffff\n      and\n      eq\n        /* \"tests/StakingRewards.sol\":643:684  require(msg.sender == owner, \"not owner\") */\n      tag_105\n      jumpi\n      mload(0x40)\n      0x08c379a000000000000000000000000000000000000000000000000000000000\n      dup2\n      mstore\n      0x04\n      add\n      tag_106\n      swap1\n      tag_107\n      jump\t// in\n    tag_106:\n      mload(0x40)\n      dup1\n      swap2\n      sub\n      swap1\n      revert\n    tag_105:\n        /* \"tests/StakingRewards.sol\":1343:1358  block.timestamp */\n      timestamp\n        /* \"tests/StakingRewards.sol\":1332:1340  finishAt */\n      sload(0x02)\n        /* \"tests/StakingRewards.sol\":1332:1358  finishAt < block.timestamp */\n      lt\n        /* \"tests/StakingRewards.sol\":1324:1391  require(finishAt < block.timestamp, \"reward duration not finished\") */\n      tag_109\n      jumpi\n      mload(0x40)\n      0x08c379a000000000000000000000000000000000000000000000000000000000\n      dup2\n      mstore\n      0x04\n      add\n      tag_110\n      swap1\n      tag_111\n      jump\t// in\n    tag_110:\n      mload(0x40)\n      dup1\n      swap2\n      sub\n      swap1\n      revert\n    tag_109:\n        /* \"tests/StakingRewards.sol\":1413:1422  _duration */\n      dup1\n        /* \"tests/StakingRewards.sol\":1402:1410  duration */\n      0x01\n        /* \"tests/StakingRewards.sol\":1402:1422  duration = _duration */\n      dup2\n      swap1\n      sstore\n      pop\n        /* \"tests/StakingRewards.sol\":1251:1430  function setRewarsDuration(uint _duration) external onlyOwner {... */\n      pop\n      jump\t// out\n        /* \"tests/StakingRewards.sol\":2329:2577  function withdraw(uint _amount) external updateReward(msg.sender) {... */\n    tag_48:\n        /* \"tests/StakingRewards.sol\":2383:2393  msg.sender */\n      caller\n        /* \"tests/StakingRewards.sol\":786:802  rewardPerToken() */\n      tag_113\n        /* \"tests/StakingRewards.sol\":786:800  rewardPerToken */\n      tag_86\n        /* \"tests/StakingRewards.sol\":786:802  rewardPerToken() */\n      jump\t// in\n    tag_113:\n        /* \"tests/StakingRewards.sol\":763:783  rewardPerTokenStored */\n      0x05\n        /* \"tests/StakingRewards.sol\":763:802  rewardPerTokenStored = rewardPerToken() */\n      dup2\n      swap1\n      sstore\n      pop\n        /* \"tests/StakingRewards.sol\":825:851  lastTimeRewardApplicable() */\n      tag_114\n        /* \"tests/StakingRewards.sol\":825:849  lastTimeRewardApplicable */\n      tag_72\n        /* \"tests/StakingRewards.sol\":825:851  lastTimeRewardApplicable() */\n      jump\t// in\n    tag_114:\n        /* \"tests/StakingRewards.sol\":813:822  updatedAt */\n      0x03\n        /* \"tests/StakingRewards.sol\":813:851  updatedAt = lastTimeRewardApplicable() */\n      dup2\n      swap1\n      sstore\n      pop\n        /* \"tests/StakingRewards.sol\":888:889  0 */\n      0x00\n        /* \"tests/StakingRewards.sol\":868:890  _account != address(0) */\n      0xffffffffffffffffffffffffffffffffffffffff\n      and\n        /* \"tests/StakingRewards.sol\":868:876  _account */\n      dup2\n        /* \"tests/StakingRewards.sol\":868:890  _account != address(0) */\n      0xffffffffffffffffffffffffffffffffffffffff\n      and\n      eq\n        /* \"tests/StakingRewards.sol\":864:1025  if (_account != address(0)) {... */\n      tag_115\n      jumpi\n        /* \"tests/StakingRewards.sol\":927:943  earned(_account) */\n      tag_116\n        /* \"tests/StakingRewards.sol\":934:942  _account */\n      dup2\n        /* \"tests/StakingRewards.sol\":927:933  earned */\n      tag_29\n        /* \"tests/StakingRewards.sol\":927:943  earned(_account) */\n      jump\t// in\n    tag_116:\n        /* \"tests/StakingRewards.sol\":907:914  rewards */\n      0x07\n        /* \"tests/StakingRewards.sol\":907:924  rewards[_account] */\n      0x00\n        /* \"tests/StakingRewards.sol\":915:923  _account */\n      dup4\n        /* \"tests/StakingRewards.sol\":907:924  rewards[_account] */\n      0xffffffffffffffffffffffffffffffffffffffff\n      and\n      0xffffffffffffffffffffffffffffffffffffffff\n      and\n      dup2\n      mstore\n      0x20\n      add\n      swap1\n      dup2\n      mstore\n      0x20\n      add\n      0x00\n      keccak256\n        /* \"tests/StakingRewards.sol\":907:943  rewards[_account] = earned(_account) */\n      dup2\n      swap1\n      sstore\n      pop\n        /* \"tests/StakingRewards.sol\":993:1013  rewardPerTokenStored */\n      sload(0x05)\n        /* \"tests/StakingRewards.sol\":958:980  userRewardPerTokenPaid */\n      0x06\n        /* \"tests/StakingRewards.sol\":958:990  userRewardPerTokenPaid[_account] */\n      0x00\n        /* \"tests/StakingRewards.sol\":981:989  _account */\n      dup4\n        /* \"tests/StakingRewards.sol\":958:990  userRewardPerTokenPaid[_account] */\n      0xffffffffffffffffffffffffffffffffffffffff\n      and\n      0xffffffffffffffffffffffffffffffffffffffff\n      and\n      dup2\n      mstore\n      0x20\n      add\n      swap1\n      dup2\n      mstore\n      0x20\n      add\n      0x00\n      keccak256\n        /* \"tests/StakingRewards.sol\":958:1013  userRewardPerTokenPaid[_account] = rewardPerTokenStored */\n      dup2\n      swap1\n      sstore\n      pop\n        /* \"tests/StakingRewards.sol\":864:1025  if (_account != address(0)) {... */\n    tag_115:\n        /* \"tests/StakingRewards.sol\":2424:2425  0 */\n      0x00\n        /* \"tests/StakingRewards.sol\":2414:2421  _amount */\n      dup3\n        /* \"tests/StakingRewards.sol\":2414:2425  _amount > 0 */\n      gt\n        /* \"tests/StakingRewards.sol\":2406:2440  require(_amount > 0, \"amount = 0\") */\n      tag_118\n      jumpi\n      mload(0x40)\n      0x08c379a000000000000000000000000000000000000000000000000000000000\n      dup2\n      mstore\n      0x04\n      add\n      tag_119\n      swap1\n      tag_120\n      jump\t// in\n    tag_119:\n      mload(0x40)\n      dup1\n      swap2\n      sub\n      swap1\n      revert\n    tag_118:\n        /* \"tests/StakingRewards.sol\":2476:2483  _amount */\n      dup2\n        /* \"tests/StakingRewards.sol\":2451:2460  balanceOf */\n      0x09\n        /* \"tests/StakingRewards.sol\":2451:2472  balanceOf[msg.sender] */\n      0x00\n        /* \"tests/StakingRewards.sol\":2461:2471  msg.sender */\n      caller\n        /* \"tests/StakingRewards.sol\":2451:2472  balanceOf[msg.sender] */\n      0xffffffffffffffffffffffffffffffffffffffff\n      and\n      0xffffffffffffffffffffffffffffffffffffffff\n      and\n      dup2\n      mstore\n      0x20\n      add\n      swap1\n      dup2\n      mstore\n      0x20\n      add\n      0x00\n      keccak256\n      0x00\n        /* \"tests/StakingRewards.sol\":2451:2483  balanceOf[msg.sender] -= _amount */\n      dup3\n      dup3\n      sload\n      tag_121\n      swap2\n      swap1\n      tag_97\n      jump\t// in\n    tag_121:\n      swap3\n      pop\n      pop\n      dup2\n      swap1\n      sstore\n      pop\n        /* \"tests/StakingRewards.sol\":2509:2516  _amount */\n      dup2\n        /* \"tests/StakingRewards.sol\":2494:2505  totalSupply */\n      0x08\n      0x00\n        /* \"tests/StakingRewards.sol\":2494:2516  totalSupply -= _amount */\n      dup3\n      dup3\n      sload\n      tag_122\n      swap2\n      swap1\n      tag_97\n      jump\t// in\n    tag_122:\n      swap3\n      pop\n      pop\n      dup2\n      swap1\n      sstore\n      pop\n        /* \"tests/StakingRewards.sol\":2527:2539  stakingToken */\n      immutable(\"0x845e9c18ca148a712f01bf14c91c3e2fe352eabe86c44817e3f33b63f585a343\")\n        /* \"tests/StakingRewards.sol\":2527:2548  stakingToken.transfer */\n      0xffffffffffffffffffffffffffffffffffffffff\n      and\n      0xa9059cbb\n        /* \"tests/StakingRewards.sol\":2549:2559  msg.sender */\n      caller\n        /* \"tests/StakingRewards.sol\":2561:2568  _amount */\n      dup5\n        /* \"tests/StakingRewards.sol\":2527:2569  stakingToken.transfer(msg.sender, _amount) */\n      mload(0x40)\n      dup4\n      0xffffffff\n      and\n      0xe0\n      shl\n      dup2\n      mstore\n      0x04\n      add\n      tag_123\n      swap3\n      swap2\n      swap1\n      tag_124\n      jump\t// in\n    tag_123:\n      0x20\n      mload(0x40)\n      dup1\n      dup4\n      sub\n      dup2\n      0x00\n      dup8\n      gas\n      call\n      iszero\n      dup1\n      iszero\n      tag_126\n      jumpi\n      returndatasize\n      0x00\n      dup1\n      returndatacopy\n      revert(0x00, returndatasize)\n    tag_126:\n      pop\n      pop\n      pop\n      pop\n      mload(0x40)\n      returndatasize\n      not(0x1f)\n      0x1f\n      dup3\n      add\n      and\n      dup3\n      add\n      dup1\n      0x40\n      mstore\n      pop\n      dup2\n      add\n      swap1\n      tag_127\n      swap2\n      swap1\n      tag_128\n      jump\t// in\n    tag_127:\n      pop\n        /* \"tests/StakingRewards.sol\":2329:2577  function withdraw(uint _amount) external updateReward(msg.sender) {... */\n      pop\n      pop\n      jump\t// out\n        /* \"tests/StakingRewards.sol\":1438:2049  function notifyRewardAmount(uint _amount) external onlyOwner updateReward(address(0)) {... */\n    tag_51:\n        /* \"tests/StakingRewards.sol\":665:670  owner */\n      0x00\n      dup1\n      sload\n      swap1\n      0x0100\n      exp\n      swap1\n      div\n      0xffffffffffffffffffffffffffffffffffffffff\n      and\n        /* \"tests/StakingRewards.sol\":651:670  msg.sender == owner */\n      0xffffffffffffffffffffffffffffffffffffffff\n      and\n        /* \"tests/StakingRewards.sol\":651:661  msg.sender */\n      caller\n        /* \"tests/StakingRewards.sol\":651:670  msg.sender == owner */\n      0xffffffffffffffffffffffffffffffffffffffff\n      and\n      eq\n        /* \"tests/StakingRewards.sol\":643:684  require(msg.sender == owner, \"not owner\") */\n      tag_130\n      jumpi\n      mload(0x40)\n      0x08c379a000000000000000000000000000000000000000000000000000000000\n      dup2\n      mstore\n      0x04\n      add\n      tag_131\n      swap1\n      tag_107\n      jump\t// in\n    tag_131:\n      mload(0x40)\n      dup1\n      swap2\n      sub\n      swap1\n      revert\n    tag_130:\n        /* \"tests/StakingRewards.sol\":1520:1521  0 */\n      0x00\n        /* \"tests/StakingRewards.sol\":786:802  rewardPerToken() */\n      tag_133\n        /* \"tests/StakingRewards.sol\":786:800  rewardPerToken */\n      tag_86\n        /* \"tests/StakingRewards.sol\":786:802  rewardPerToken() */\n      jump\t// in\n    tag_133:\n        /* \"tests/StakingRewards.sol\":763:783  rewardPerTokenStored */\n      0x05\n        /* \"tests/StakingRewards.sol\":763:802  rewardPerTokenStored = rewardPerToken() */\n      dup2\n      swap1\n      sstore\n      pop\n        /* \"tests/StakingRewards.sol\":825:851  lastTimeRewardApplicable() */\n      tag_134\n        /* \"tests/StakingRewards.sol\":825:849  lastTimeRewardApplicable */\n      tag_72\n        /* \"tests/StakingRewards.sol\":825:851  lastTimeRewardApplicable() */\n      jump\t// in\n    tag_134:\n        /* \"tests/StakingRewards.sol\":813:822  updatedAt */\n      0x03\n        /* \"tests/StakingRewards.sol\":813:851  updatedAt = lastTimeRewardApplicable() */\n      dup2\n      swap1\n      sstore\n      pop\n        /* \"tests/StakingRewards.sol\":888:889  0 */\n      0x00\n        /* \"tests/StakingRewards.sol\":868:890  _account != address(0) */\n      0xffffffffffffffffffffffffffffffffffffffff\n      and\n        /* \"tests/StakingRewards.sol\":868:876  _account */\n      dup2\n        /* \"tests/StakingRewards.sol\":868:890  _account != address(0) */\n      0xffffffffffffffffffffffffffffffffffffffff\n      and\n      eq\n        /* \"tests/StakingRewards.sol\":864:1025  if (_account != address(0)) {... */\n      tag_135\n      jumpi\n        /* \"tests/StakingRewards.sol\":927:943  earned(_account) */\n      tag_136\n        /* \"tests/StakingRewards.sol\":934:942  _account */\n      dup2\n        /* \"tests/StakingRewards.sol\":927:933  earned */\n      tag_29\n        /* \"tests/StakingRewards.sol\":927:943  earned(_account) */\n      jump\t// in\n    tag_136:\n        /* \"tests/StakingRewards.sol\":907:914  rewards */\n      0x07\n        /* \"tests/StakingRewards.sol\":907:924  rewards[_account] */\n      0x00\n        /* \"tests/StakingRewards.sol\":915:923  _account */\n      dup4\n        /* \"tests/StakingRewards.sol\":907:924  rewards[_account] */\n      0xffffffffffffffffffffffffffffffffffffffff\n      and\n      0xffffffffffffffffffffffffffffffffffffffff\n      and\n      dup2\n      mstore\n      0x20\n      add\n      swap1\n      dup2\n      mstore\n      0x20\n      add\n      0x00\n      keccak256\n        /* \"tests/StakingRewards.sol\":907:943  rewards[_account] = earned(_account) */\n      dup2\n      swap1\n      sstore\n      pop\n        /* \"tests/StakingRewards.sol\":993:1013  rewardPerTokenStored */\n      sload(0x05)\n        /* \"tests/StakingRewards.sol\":958:980  userRewardPerTokenPaid */\n      0x06\n        /* \"tests/StakingRewards.sol\":958:990  userRewardPerTokenPaid[_account] */\n      0x00\n        /* \"tests/StakingRewards.sol\":981:989  _account */\n      dup4\n        /* \"tests/StakingRewards.sol\":958:990  userRewardPerTokenPaid[_account] */\n      0xffffffffffffffffffffffffffffffffffffffff\n      and\n      0xffffffffffffffffffffffffffffffffffffffff\n      and\n      dup2\n      mstore\n      0x20\n      add\n      swap1\n      dup2\n      mstore\n      0x20\n      add\n      0x00\n      keccak256\n        /* \"tests/StakingRewards.sol\":958:1013  userRewardPerTokenPaid[_account] = rewardPerTokenStored */\n      dup2\n      swap1\n      sstore\n      pop\n        /* \"tests/StakingRewards.sol\":864:1025  if (_account != address(0)) {... */\n    tag_135:\n        /* \"tests/StakingRewards.sol\":1557:1565  finishAt */\n      sload(0x02)\n        /* \"tests/StakingRewards.sol\":1539:1554  block.timestamp */\n      timestamp\n        /* \"tests/StakingRewards.sol\":1539:1565  block.timestamp > finishAt */\n      gt\n        /* \"tests/StakingRewards.sol\":1535:1790  if (block.timestamp > finishAt) {... */\n      iszero\n      tag_138\n      jumpi\n        /* \"tests/StakingRewards.sol\":1605:1613  duration */\n      sload(0x01)\n        /* \"tests/StakingRewards.sol\":1595:1602  _amount */\n      dup3\n        /* \"tests/StakingRewards.sol\":1595:1613  _amount / duration */\n      tag_139\n      swap2\n      swap1\n      tag_101\n      jump\t// in\n    tag_139:\n        /* \"tests/StakingRewards.sol\":1582:1592  rewardRate */\n      0x04\n        /* \"tests/StakingRewards.sol\":1582:1613  rewardRate = _amount / duration */\n      dup2\n      swap1\n      sstore\n      pop\n        /* \"tests/StakingRewards.sol\":1535:1790  if (block.timestamp > finishAt) {... */\n      jump(tag_140)\n    tag_138:\n        /* \"tests/StakingRewards.sol\":1646:1667  uint remainingRewards */\n      0x00\n        /* \"tests/StakingRewards.sol\":1695:1710  block.timestamp */\n      timestamp\n        /* \"tests/StakingRewards.sol\":1684:1692  finishAt */\n      sload(0x02)\n        /* \"tests/StakingRewards.sol\":1684:1710  finishAt - block.timestamp */\n      tag_141\n      swap2\n      swap1\n      tag_97\n      jump\t// in\n    tag_141:\n        /* \"tests/StakingRewards.sol\":1670:1680  rewardRate */\n      sload(0x04)\n        /* \"tests/StakingRewards.sol\":1670:1711  rewardRate * (finishAt - block.timestamp) */\n      tag_142\n      swap2\n      swap1\n      tag_99\n      jump\t// in\n    tag_142:\n        /* \"tests/StakingRewards.sol\":1646:1711  uint remainingRewards = rewardRate * (finishAt - block.timestamp) */\n      swap1\n      pop\n        /* \"tests/StakingRewards.sol\":1770:1778  duration */\n      sload(0x01)\n        /* \"tests/StakingRewards.sol\":1759:1766  _amount */\n      dup4\n        /* \"tests/StakingRewards.sol\":1740:1756  remainingRewards */\n      dup3\n        /* \"tests/StakingRewards.sol\":1740:1766  remainingRewards + _amount */\n      tag_143\n      swap2\n      swap1\n      tag_103\n      jump\t// in\n    tag_143:\n        /* \"tests/StakingRewards.sol\":1739:1778  (remainingRewards + _amount) / duration */\n      tag_144\n      swap2\n      swap1\n      tag_101\n      jump\t// in\n    tag_144:\n        /* \"tests/StakingRewards.sol\":1726:1736  rewardRate */\n      0x04\n        /* \"tests/StakingRewards.sol\":1726:1778  rewardRate = (remainingRewards + _amount) / duration */\n      dup2\n      swap1\n      sstore\n      pop\n        /* \"tests/StakingRewards.sol\":1631:1790  {... */\n      pop\n        /* \"tests/StakingRewards.sol\":1535:1790  if (block.timestamp > finishAt) {... */\n    tag_140:\n        /* \"tests/StakingRewards.sol\":1823:1824  0 */\n      0x00\n        /* \"tests/StakingRewards.sol\":1810:1820  rewardRate */\n      sload(0x04)\n        /* \"tests/StakingRewards.sol\":1810:1824  rewardRate > 0 */\n      gt\n        /* \"tests/StakingRewards.sol\":1802:1844  require(rewardRate > 0, \"reward rate = 0\") */\n      tag_145\n      jumpi\n      mload(0x40)\n      0x08c379a000000000000000000000000000000000000000000000000000000000\n      dup2\n      mstore\n      0x04\n      add\n      tag_146\n      swap1\n      tag_147\n      jump\t// in\n    tag_146:\n      mload(0x40)\n      dup1\n      swap2\n      sub\n      swap1\n      revert\n    tag_145:\n        /* \"tests/StakingRewards.sol\":1888:1900  rewardsToken */\n      immutable(\"0x04e57633024368235fc5219bfb9802814291d3a7b9a68d0aeb7bd3d297ac474e\")\n        /* \"tests/StakingRewards.sol\":1888:1910  rewardsToken.balanceOf */\n      0xffffffffffffffffffffffffffffffffffffffff\n      and\n      0x70a08231\n        /* \"tests/StakingRewards.sol\":1919:1923  this */\n      address\n        /* \"tests/StakingRewards.sol\":1888:1925  rewardsToken.balanceOf(address(this)) */\n      mload(0x40)\n      dup3\n      0xffffffff\n      and\n      0xe0\n      shl\n      dup2\n      mstore\n      0x04\n      add\n      tag_148\n      swap2\n      swap1\n      tag_81\n      jump\t// in\n    tag_148:\n      0x20\n      mload(0x40)\n      dup1\n      dup4\n      sub\n      dup2\n      dup7\n      gas\n      staticcall\n      iszero\n      dup1\n      iszero\n      tag_150\n      jumpi\n      returndatasize\n      0x00\n      dup1\n      returndatacopy\n      revert(0x00, returndatasize)\n    tag_150:\n      pop\n      pop\n      pop\n      pop\n      mload(0x40)\n      returndatasize\n      not(0x1f)\n      0x1f\n      dup3\n      add\n      and\n      dup3\n      add\n      dup1\n      0x40\n      mstore\n      pop\n      dup2\n      add\n      swap1\n      tag_151\n      swap2\n      swap1\n      tag_152\n      jump\t// in\n    tag_151:\n        /* \"tests/StakingRewards.sol\":1876:1884  duration */\n      sload(0x01)\n        /* \"tests/StakingRewards.sol\":1863:1873  rewardRate */\n      sload(0x04)\n        /* \"tests/StakingRewards.sol\":1863:1884  rewardRate * duration */\n      tag_153\n      swap2\n      swap1\n      tag_99\n      jump\t// in\n    tag_153:\n        /* \"tests/StakingRewards.sol\":1863:1925  rewardRate * duration <= rewardsToken.balanceOf(address(this)) */\n      gt\n      iszero\n        /* \"tests/StakingRewards.sol\":1855:1953  require(rewardRate * duration <= rewardsToken.balanceOf(address(this)), \"reward amount > balance\") */\n      tag_154\n      jumpi\n      mload(0x40)\n      0x08c379a000000000000000000000000000000000000000000000000000000000\n      dup2\n      mstore\n      0x04\n      add\n      tag_155\n      swap1\n      tag_156\n      jump\t// in\n    tag_155:\n      mload(0x40)\n      dup1\n      swap2\n      sub\n      swap1\n      revert\n    tag_154:\n        /* \"tests/StakingRewards.sol\":1995:2003  duration */\n      sload(0x01)\n        /* \"tests/StakingRewards.sol\":1977:1992  block.timestamp */\n      timestamp\n        /* \"tests/StakingRewards.sol\":1977:2003  block.timestamp + duration */\n      tag_157\n      swap2\n      swap1\n      tag_103\n      jump\t// in\n    tag_157:\n        /* \"tests/StakingRewards.sol\":1966:1974  finishAt */\n      0x02\n        /* \"tests/StakingRewards.sol\":1966:2003  finishAt = block.timestamp + duration */\n      dup2\n      swap1\n      sstore\n      pop\n        /* \"tests/StakingRewards.sol\":2026:2041  block.timestamp */\n      timestamp\n        /* \"tests/StakingRewards.sol\":2014:2023  updatedAt */\n      0x03\n        /* \"tests/StakingRewards.sol\":2014:2041  updatedAt = block.timestamp */\n      dup2\n      swap1\n      sstore\n      pop\n        /* \"tests/StakingRewards.sol\":695:696  _ */\n      pop\n        /* \"tests/StakingRewards.sol\":1438:2049  function notifyRewardAmount(uint _amount) external onlyOwner updateReward(address(0)) {... */\n      pop\n      jump\t// out\n        /* \"tests/StakingRewards.sol\":3183:3422  function getReward() external updateReward(msg.sender) {... */\n    tag_53:\n        /* \"tests/StakingRewards.sol\":3226:3236  msg.sender */\n      caller\n        /* \"tests/StakingRewards.sol\":786:802  rewardPerToken() */\n      tag_159\n        /* \"tests/StakingRewards.sol\":786:800  rewardPerToken */\n      tag_86\n        /* \"tests/StakingRewards.sol\":786:802  rewardPerToken() */\n      jump\t// in\n    tag_159:\n        /* \"tests/StakingRewards.sol\":763:783  rewardPerTokenStored */\n      0x05\n        /* \"tests/StakingRewards.sol\":763:802  rewardPerTokenStored = rewardPerToken() */\n      dup2\n      swap1\n      sstore\n      pop\n        /* \"tests/StakingRewards.sol\":825:851  lastTimeRewardApplicable() */\n      tag_160\n        /* \"tests/StakingRewards.sol\":825:849  lastTimeRewardApplicable */\n      tag_72\n        /* \"tests/StakingRewards.sol\":825:851  lastTimeRewardApplicable() */\n      jump\t// in\n    tag_160:\n        /* \"tests/StakingRewards.sol\":813:822  updatedAt */\n      0x03\n        /* \"tests/StakingRewards.sol\":813:851  updatedAt = lastTimeRewardApplicable() */\n      dup2\n      swap1\n      sstore\n      pop\n        /* \"tests/StakingRewards.sol\":888:889  0 */\n      0x00\n        /* \"tests/StakingRewards.sol\":868:890  _account != address(0) */\n      0xffffffffffffffffffffffffffffffffffffffff\n      and\n        /* \"tests/StakingRewards.sol\":868:876  _account */\n      dup2\n        /* \"tests/StakingRewards.sol\":868:890  _account != address(0) */\n      0xffffffffffffffffffffffffffffffffffffffff\n      and\n      eq\n        /* \"tests/StakingRewards.sol\":864:1025  if (_account != address(0)) {... */\n      tag_161\n      jumpi\n        /* \"tests/StakingRewards.sol\":927:943  earned(_account) */\n      tag_162\n        /* \"tests/StakingRewards.sol\":934:942  _account */\n      dup2\n        /* \"tests/StakingRewards.sol\":927:933  earned */\n      tag_29\n        /* \"tests/StakingRewards.sol\":927:943  earned(_account) */\n      jump\t// in\n    tag_162:\n        /* \"tests/StakingRewards.sol\":907:914  rewards */\n      0x07\n        /* \"tests/StakingRewards.sol\":907:924  rewards[_account] */\n      0x00\n        /* \"tests/StakingRewards.sol\":915:923  _account */\n      dup4\n        /* \"tests/StakingRewards.sol\":907:924  rewards[_account] */\n      0xffffffffffffffffffffffffffffffffffffffff\n      and\n      0xffffffffffffffffffffffffffffffffffffffff\n      and\n      dup2\n      mstore\n      0x20\n      add\n      swap1\n      dup2\n      mstore\n      0x20\n      add\n      0x00\n      keccak256\n        /* \"tests/StakingRewards.sol\":907:943  rewards[_account] = earned(_account) */\n      dup2\n      swap1\n      sstore\n      pop\n        /* \"tests/StakingRewards.sol\":993:1013  rewardPerTokenStored */\n      sload(0x05)\n        /* \"tests/StakingRewards.sol\":958:980  userRewardPerTokenPaid */\n      0x06\n        /* \"tests/StakingRewards.sol\":958:990  userRewardPerTokenPaid[_account] */\n      0x00\n        /* \"tests/StakingRewards.sol\":981:989  _account */\n      dup4\n        /* \"tests/StakingRewards.sol\":958:990  userRewardPerTokenPaid[_account] */\n      0xffffffffffffffffffffffffffffffffffffffff\n      and\n      0xffffffffffffffffffffffffffffffffffffffff\n      and\n      dup2\n      mstore\n      0x20\n      add\n      swap1\n      dup2\n      mstore\n      0x20\n      add\n      0x00\n      keccak256\n        /* \"tests/StakingRewards.sol\":958:1013  userRewardPerTokenPaid[_account] = rewardPerTokenStored */\n      dup2\n      swap1\n      sstore\n      pop\n        /* \"tests/StakingRewards.sol\":864:1025  if (_account != address(0)) {... */\n    tag_161:\n        /* \"tests/StakingRewards.sol\":3249:3260  uint reward */\n      0x00\n        /* \"tests/StakingRewards.sol\":3263:3270  rewards */\n      0x07\n        /* \"tests/StakingRewards.sol\":3263:3282  rewards[msg.sender] */\n      0x00\n        /* \"tests/StakingRewards.sol\":3271:3281  msg.sender */\n      caller\n        /* \"tests/StakingRewards.sol\":3263:3282  rewards[msg.sender] */\n      0xffffffffffffffffffffffffffffffffffffffff\n      and\n      0xffffffffffffffffffffffffffffffffffffffff\n      and\n      dup2\n      mstore\n      0x20\n      add\n      swap1\n      dup2\n      mstore\n      0x20\n      add\n      0x00\n      keccak256\n      sload\n        /* \"tests/StakingRewards.sol\":3249:3282  uint reward = rewards[msg.sender] */\n      swap1\n      pop\n        /* \"tests/StakingRewards.sol\":3306:3307  0 */\n      0x00\n        /* \"tests/StakingRewards.sol\":3297:3303  reward */\n      dup2\n        /* \"tests/StakingRewards.sol\":3297:3307  reward > 0 */\n      gt\n        /* \"tests/StakingRewards.sol\":3293:3415  if (reward > 0) {... */\n      iszero\n      tag_164\n      jumpi\n        /* \"tests/StakingRewards.sol\":3346:3347  0 */\n      0x00\n        /* \"tests/StakingRewards.sol\":3324:3331  rewards */\n      0x07\n        /* \"tests/StakingRewards.sol\":3324:3343  rewards[msg.sender] */\n      0x00\n        /* \"tests/StakingRewards.sol\":3332:3342  msg.sender */\n      caller\n        /* \"tests/StakingRewards.sol\":3324:3343  rewards[msg.sender] */\n      0xffffffffffffffffffffffffffffffffffffffff\n      and\n      0xffffffffffffffffffffffffffffffffffffffff\n      and\n      dup2\n      mstore\n      0x20\n      add\n      swap1\n      dup2\n      mstore\n      0x20\n      add\n      0x00\n      keccak256\n        /* \"tests/StakingRewards.sol\":3324:3347  rewards[msg.sender] = 0 */\n      dup2\n      swap1\n      sstore\n      pop\n        /* \"tests/StakingRewards.sol\":3362:3374  rewardsToken */\n      immutable(\"0x04e57633024368235fc5219bfb9802814291d3a7b9a68d0aeb7bd3d297ac474e\")\n        /* \"tests/StakingRewards.sol\":3362:3383  rewardsToken.transfer */\n      0xffffffffffffffffffffffffffffffffffffffff\n      and\n      0xa9059cbb\n        /* \"tests/StakingRewards.sol\":3384:3394  msg.sender */\n      caller\n        /* \"tests/StakingRewards.sol\":3396:3402  reward */\n      dup4\n        /* \"tests/StakingRewards.sol\":3362:3403  rewardsToken.transfer(msg.sender, reward) */\n      mload(0x40)\n      dup4\n      0xffffffff\n      and\n      0xe0\n      shl\n      dup2\n      mstore\n      0x04\n      add\n      tag_165\n      swap3\n      swap2\n      swap1\n      tag_124\n      jump\t// in\n    tag_165:\n      0x20\n      mload(0x40)\n      dup1\n      dup4\n      sub\n      dup2\n      0x00\n      dup8\n      gas\n      call\n      iszero\n      dup1\n      iszero\n      tag_167\n      jumpi\n      returndatasize\n      0x00\n      dup1\n      returndatacopy\n      revert(0x00, returndatasize)\n    tag_167:\n      pop\n      pop\n      pop\n      pop\n      mload(0x40)\n      returndatasize\n      not(0x1f)\n      0x1f\n      dup3\n      add\n      and\n      dup3\n      add\n      dup1\n      0x40\n      mstore\n      pop\n      dup2\n      add\n      swap1\n      tag_168\n      swap2\n      swap1\n      tag_128\n      jump\t// in\n    tag_168:\n      pop\n        /* \"tests/StakingRewards.sol\":3293:3415  if (reward > 0) {... */\n    tag_164:\n        /* \"tests/StakingRewards.sol\":3238:3422  {... */\n      pop\n        /* \"tests/StakingRewards.sol\":3183:3422  function getReward() external updateReward(msg.sender) {... */\n      pop\n      jump\t// out\n        /* \"tests/StakingRewards.sol\":294:314  uint public finishAt */\n    tag_55:\n      sload(0x02)\n      dup2\n      jump\t// out\n        /* \"tests/StakingRewards.sol\":560:602  mapping (address => uint) public balanceOf */\n    tag_59:\n      mstore(0x20, 0x09)\n      dup1\n      0x00\n      mstore\n      keccak256(0x00, 0x40)\n      0x00\n      swap2\n      pop\n      swap1\n      pop\n      sload\n      dup2\n      jump\t// out\n        /* \"tests/StakingRewards.sol\":150:186  IERC20 public immutable stakingToken */\n    tag_62:\n      immutable(\"0x845e9c18ca148a712f01bf14c91c3e2fe352eabe86c44817e3f33b63f585a343\")\n      dup2\n      jump\t// out\n        /* \"tests/StakingRewards.sol\":321:342  uint public updatedAt */\n    tag_66:\n      sload(0x03)\n      dup2\n      jump\t// out\n        /* \"tests/StakingRewards.sol\":349:371  uint public rewardRate */\n    tag_69:\n      sload(0x04)\n      dup2\n      jump\t// out\n        /* \"tests/StakingRewards.sol\":2585:2704  function lastTimeRewardApplicable() public view returns(uint) {... */\n    tag_72:\n        /* \"tests/StakingRewards.sol\":2641:2645  uint */\n      0x00\n        /* \"tests/StakingRewards.sol\":2665:2696  _min(block.timestamp, finishAt) */\n      tag_170\n        /* \"tests/StakingRewards.sol\":2670:2685  block.timestamp */\n      timestamp\n        /* \"tests/StakingRewards.sol\":2687:2695  finishAt */\n      sload(0x02)\n        /* \"tests/StakingRewards.sol\":2665:2669  _min */\n      tag_171\n        /* \"tests/StakingRewards.sol\":2665:2696  _min(block.timestamp, finishAt) */\n      jump\t// in\n    tag_170:\n        /* \"tests/StakingRewards.sol\":2658:2696  return _min(block.timestamp, finishAt) */\n      swap1\n      pop\n        /* \"tests/StakingRewards.sol\":2585:2704  function lastTimeRewardApplicable() public view returns(uint) {... */\n      swap1\n      jump\t// out\n        /* \"tests/StakingRewards.sol\":419:474  mapping (address => uint) public userRewardPerTokenPaid */\n    tag_76:\n      mstore(0x20, 0x06)\n      dup1\n      0x00\n      mstore\n      keccak256(0x00, 0x40)\n      0x00\n      swap2\n      pop\n      swap1\n      pop\n      sload\n      dup2\n      jump\t// out\n        /* \"tests/StakingRewards.sol\":238:258  address public owner */\n    tag_79:\n      0x00\n      dup1\n      sload\n      swap1\n      0x0100\n      exp\n      swap1\n      div\n      0xffffffffffffffffffffffffffffffffffffffff\n      and\n      dup2\n      jump\t// out\n        /* \"tests/StakingRewards.sol\":2057:2321  function stake(uint _amount) external updateReward(msg.sender) {... */\n    tag_84:\n        /* \"tests/StakingRewards.sol\":2108:2118  msg.sender */\n      caller\n        /* \"tests/StakingRewards.sol\":786:802  rewardPerToken() */\n      tag_173\n        /* \"tests/StakingRewards.sol\":786:800  rewardPerToken */\n      tag_86\n        /* \"tests/StakingRewards.sol\":786:802  rewardPerToken() */\n      jump\t// in\n    tag_173:\n        /* \"tests/StakingRewards.sol\":763:783  rewardPerTokenStored */\n      0x05\n        /* \"tests/StakingRewards.sol\":763:802  rewardPerTokenStored = rewardPerToken() */\n      dup2\n      swap1\n      sstore\n      pop\n        /* \"tests/StakingRewards.sol\":825:851  lastTimeRewardApplicable() */\n      tag_174\n        /* \"tests/StakingRewards.sol\":825:849  lastTimeRewardApplicable */\n      tag_72\n        /* \"tests/StakingRewards.sol\":825:851  lastTimeRewardApplicable() */\n      jump\t// in\n    tag_174:\n        /* \"tests/StakingRewards.sol\":813:822  updatedAt */\n      0x03\n        /* \"tests/StakingRewards.sol\":813:851  updatedAt = lastTimeRewardApplicable() */\n      dup2\n      swap1\n      sstore\n      pop\n        /* \"tests/StakingRewards.sol\":888:889  0 */\n      0x00\n        /* \"tests/StakingRewards.sol\":868:890  _account != address(0) */\n      0xffffffffffffffffffffffffffffffffffffffff\n      and\n        /* \"tests/StakingRewards.sol\":868:876  _account */\n      dup2\n        /* \"tests/StakingRewards.sol\":868:890  _account != address(0) */\n      0xffffffffffffffffffffffffffffffffffffffff\n      and\n      eq\n        /* \"tests/StakingRewards.sol\":864:1025  if (_account != address(0)) {... */\n      tag_175\n      jumpi\n        /* \"tests/StakingRewards.sol\":927:943  earned(_account) */\n      tag_176\n        /* \"tests/StakingRewards.sol\":934:942  _account */\n      dup2\n        /* \"tests/StakingRewards.sol\":927:933  earned */\n      tag_29\n        /* \"tests/StakingRewards.sol\":927:943  earned(_account) */\n      jump\t// in\n    tag_176:\n        /* \"tests/StakingRewards.sol\":907:914  rewards */\n      0x07\n        /* \"tests/StakingRewards.sol\":907:924  rewards[_account] */\n      0x00\n        /* \"tests/StakingRewards.sol\":915:923  _account */\n      dup4\n        /* \"tests/StakingRewards.sol\":907:924  rewards[_account] */\n      0xffffffffffffffffffffffffffffffffffffffff\n      and\n      0xffffffffffffffffffffffffffffffffffffffff\n      and\n      dup2\n      mstore\n      0x20\n      add\n      swap1\n      dup2\n      mstore\n      0x20\n      add\n      0x00\n      keccak256\n        /* \"tests/StakingRewards.sol\":907:943  rewards[_account] = earned(_account) */\n      dup2\n      swap1\n      sstore\n      pop\n        /* \"tests/StakingRewards.sol\":993:1013  rewardPerTokenStored */\n      sload(0x05)\n        /* \"tests/StakingRewards.sol\":958:980  userRewardPerTokenPaid */\n      0x06\n        /* \"tests/StakingRewards.sol\":958:990  userRewardPerTokenPaid[_account] */\n      0x00\n        /* \"tests/StakingRewards.sol\":981:989  _account */\n      dup4\n        /* \"tests/StakingRewards.sol\":958:990  userRewardPerTokenPaid[_account] */\n      0xffffffffffffffffffffffffffffffffffffffff\n      and\n      0xffffffffffffffffffffffffffffffffffffffff\n      and\n      dup2\n      mstore\n      0x20\n      add\n      swap1\n      dup2\n      mstore\n      0x20\n      add\n      0x00\n      keccak256\n        /* \"tests/StakingRewards.sol\":958:1013  userRewardPerTokenPaid[_account] = rewardPerTokenStored */\n      dup2\n      swap1\n      sstore\n      pop\n        /* \"tests/StakingRewards.sol\":864:1025  if (_account != address(0)) {... */\n    tag_175:\n        /* \"tests/StakingRewards.sol\":2149:2150  0 */\n      0x00\n        /* \"tests/StakingRewards.sol\":2139:2146  _amount */\n      dup3\n        /* \"tests/StakingRewards.sol\":2139:2150  _amount > 0 */\n      gt\n        /* \"tests/StakingRewards.sol\":2131:2165  require(_amount > 0, \"amount = 0\") */\n      tag_178\n      jumpi\n      mload(0x40)\n      0x08c379a000000000000000000000000000000000000000000000000000000000\n      dup2\n      mstore\n      0x04\n      add\n      tag_179\n      swap1\n      tag_120\n      jump\t// in\n    tag_179:\n      mload(0x40)\n      dup1\n      swap2\n      sub\n      swap1\n      revert\n    tag_178:\n        /* \"tests/StakingRewards.sol\":2176:2188  stakingToken */\n      immutable(\"0x845e9c18ca148a712f01bf14c91c3e2fe352eabe86c44817e3f33b63f585a343\")\n        /* \"tests/StakingRewards.sol\":2176:2201  stakingToken.transferFrom */\n      0xffffffffffffffffffffffffffffffffffffffff\n      and\n      0x23b872dd\n        /* \"tests/StakingRewards.sol\":2202:2212  msg.sender */\n      caller\n        /* \"tests/StakingRewards.sol\":2222:2226  this */\n      address\n        /* \"tests/StakingRewards.sol\":2229:2236  _amount */\n      dup6\n        /* \"tests/StakingRewards.sol\":2176:2237  stakingToken.transferFrom(msg.sender, address(this), _amount) */\n      mload(0x40)\n      dup5\n      0xffffffff\n      and\n      0xe0\n      shl\n      dup2\n      mstore\n      0x04\n      add\n      tag_180\n      swap4\n      swap3\n      swap2\n      swap1\n      tag_181\n      jump\t// in\n    tag_180:\n      0x20\n      mload(0x40)\n      dup1\n      dup4\n      sub\n      dup2\n      0x00\n      dup8\n      gas\n      call\n      iszero\n      dup1\n      iszero\n      tag_183\n      jumpi\n      returndatasize\n      0x00\n      dup1\n      returndatacopy\n      revert(0x00, returndatasize)\n    tag_183:\n      pop\n      pop\n      pop\n      pop\n      mload(0x40)\n      returndatasize\n      not(0x1f)\n      0x1f\n      dup3\n      add\n      and\n      dup3\n      add\n      dup1\n      0x40\n      mstore\n      pop\n      dup2\n      add\n      swap1\n      tag_184\n      swap2\n      swap1\n      tag_128\n      jump\t// in\n    tag_184:\n      pop\n        /* \"tests/StakingRewards.sol\":2273:2280  _amount */\n      dup2\n        /* \"tests/StakingRewards.sol\":2248:2257  balanceOf */\n      0x09\n        /* \"tests/StakingRewards.sol\":2248:2269  balanceOf[msg.sender] */\n      0x00\n        /* \"tests/StakingRewards.sol\":2258:2268  msg.sender */\n      caller\n        /* \"tests/StakingRewards.sol\":2248:2269  balanceOf[msg.sender] */\n      0xffffffffffffffffffffffffffffffffffffffff\n      and\n      0xffffffffffffffffffffffffffffffffffffffff\n      and\n      dup2\n      mstore\n      0x20\n      add\n      swap1\n      dup2\n      mstore\n      0x20\n      add\n      0x00\n      keccak256\n      0x00\n        /* \"tests/StakingRewards.sol\":2248:2280  balanceOf[msg.sender] += _amount */\n      dup3\n      dup3\n      sload\n      tag_185\n      swap2\n      swap1\n      tag_103\n      jump\t// in\n    tag_185:\n      swap3\n      pop\n      pop\n      dup2\n      swap1\n      sstore\n      pop\n        /* \"tests/StakingRewards.sol\":2306:2313  _amount */\n      dup2\n        /* \"tests/StakingRewards.sol\":2291:2302  totalSupply */\n      0x08\n      0x00\n        /* \"tests/StakingRewards.sol\":2291:2313  totalSupply += _amount */\n      dup3\n      dup3\n      sload\n      tag_186\n      swap2\n      swap1\n      tag_103\n      jump\t// in\n    tag_186:\n      swap3\n      pop\n      pop\n      dup2\n      swap1\n      sstore\n      pop\n        /* \"tests/StakingRewards.sol\":2057:2321  function stake(uint _amount) external updateReward(msg.sender) {... */\n      pop\n      pop\n      jump\t// out\n        /* \"tests/StakingRewards.sol\":2712:2975  function rewardPerToken() public view returns(uint) {... */\n    tag_86:\n        /* \"tests/StakingRewards.sol\":2758:2762  uint */\n      0x00\n        /* \"tests/StakingRewards.sol\":2794:2795  0 */\n      dup1\n        /* \"tests/StakingRewards.sol\":2779:2790  totalSupply */\n      sload(0x08)\n        /* \"tests/StakingRewards.sol\":2779:2795  totalSupply == 0 */\n      sub\n        /* \"tests/StakingRewards.sol\":2775:2851  if (totalSupply == 0) {... */\n      tag_188\n      jumpi\n        /* \"tests/StakingRewards.sol\":2819:2839  rewardPerTokenStored */\n      sload(0x05)\n        /* \"tests/StakingRewards.sol\":2812:2839  return rewardPerTokenStored */\n      swap1\n      pop\n      jump(tag_187)\n        /* \"tests/StakingRewards.sol\":2775:2851  if (totalSupply == 0) {... */\n    tag_188:\n        /* \"tests/StakingRewards.sol\":2956:2967  totalSupply */\n      sload(0x08)\n        /* \"tests/StakingRewards.sol\":2949:2953  1e18 */\n      0x0de0b6b3a7640000\n        /* \"tests/StakingRewards.sol\":2935:2944  updatedAt */\n      sload(0x03)\n        /* \"tests/StakingRewards.sol\":2906:2932  lastTimeRewardApplicable() */\n      tag_189\n        /* \"tests/StakingRewards.sol\":2906:2930  lastTimeRewardApplicable */\n      tag_72\n        /* \"tests/StakingRewards.sol\":2906:2932  lastTimeRewardApplicable() */\n      jump\t// in\n    tag_189:\n        /* \"tests/StakingRewards.sol\":2906:2944  lastTimeRewardApplicable() - updatedAt */\n      tag_190\n      swap2\n      swap1\n      tag_97\n      jump\t// in\n    tag_190:\n        /* \"tests/StakingRewards.sol\":2892:2902  rewardRate */\n      sload(0x04)\n        /* \"tests/StakingRewards.sol\":2892:2945  rewardRate * (lastTimeRewardApplicable() - updatedAt) */\n      tag_191\n      swap2\n      swap1\n      tag_99\n      jump\t// in\n    tag_191:\n        /* \"tests/StakingRewards.sol\":2891:2953  (rewardRate * (lastTimeRewardApplicable() - updatedAt)) * 1e18 */\n      tag_192\n      swap2\n      swap1\n      tag_99\n      jump\t// in\n    tag_192:\n        /* \"tests/StakingRewards.sol\":2891:2967  (rewardRate * (lastTimeRewardApplicable() - updatedAt)) * 1e18 / totalSupply */\n      tag_193\n      swap2\n      swap1\n      tag_101\n      jump\t// in\n    tag_193:\n        /* \"tests/StakingRewards.sol\":2868:2888  rewardPerTokenStored */\n      sload(0x05)\n        /* \"tests/StakingRewards.sol\":2868:2967  rewardPerTokenStored + (rewardRate * (lastTimeRewardApplicable() - updatedAt)) * 1e18 / totalSupply */\n      tag_194\n      swap2\n      swap1\n      tag_103\n      jump\t// in\n    tag_194:\n        /* \"tests/StakingRewards.sol\":2861:2967  return rewardPerTokenStored + (rewardRate * (lastTimeRewardApplicable() - updatedAt)) * 1e18 / totalSupply */\n      swap1\n      pop\n        /* \"tests/StakingRewards.sol\":2712:2975  function rewardPerToken() public view returns(uint) {... */\n    tag_187:\n      swap1\n      jump\t// out\n        /* \"tests/StakingRewards.sol\":193:229  IERC20 public immutable rewardsToken */\n    tag_89:\n      immutable(\"0x04e57633024368235fc5219bfb9802814291d3a7b9a68d0aeb7bd3d297ac474e\")\n      dup2\n      jump\t// out\n        /* \"tests/StakingRewards.sol\":378:410  uint public rewardPerTokenStored */\n    tag_92:\n      sload(0x05)\n      dup2\n      jump\t// out\n        /* \"tests/StakingRewards.sol\":3430:3527  function _min(uint x, uint y) private pure returns(uint) {... */\n    tag_171:\n        /* \"tests/StakingRewards.sol\":3481:3485  uint */\n      0x00\n        /* \"tests/StakingRewards.sol\":3510:3511  y */\n      dup2\n        /* \"tests/StakingRewards.sol\":3505:3506  x */\n      dup4\n        /* \"tests/StakingRewards.sol\":3505:3511  x <= y */\n      gt\n      iszero\n        /* \"tests/StakingRewards.sol\":3505:3519  x <= y ? x : y */\n      tag_196\n      jumpi\n        /* \"tests/StakingRewards.sol\":3518:3519  y */\n      dup2\n        /* \"tests/StakingRewards.sol\":3505:3519  x <= y ? x : y */\n      jump(tag_197)\n    tag_196:\n        /* \"tests/StakingRewards.sol\":3514:3515  x */\n      dup3\n        /* \"tests/StakingRewards.sol\":3505:3519  x <= y ? x : y */\n    tag_197:\n        /* \"tests/StakingRewards.sol\":3498:3519  return x <= y ? x : y */\n      swap1\n      pop\n        /* \"tests/StakingRewards.sol\":3430:3527  function _min(uint x, uint y) private pure returns(uint) {... */\n      swap3\n      swap2\n      pop\n      pop\n      jump\t// out\n        /* \"#utility.yul\":88:205   */\n    tag_199:\n        /* \"#utility.yul\":197:198   */\n      0x00\n        /* \"#utility.yul\":194:195   */\n      dup1\n        /* \"#utility.yul\":187:199   */\n      revert\n        /* \"#utility.yul\":334:460   */\n    tag_201:\n        /* \"#utility.yul\":371:378   */\n      0x00\n        /* \"#utility.yul\":411:453   */\n      0xffffffffffffffffffffffffffffffffffffffff\n        /* \"#utility.yul\":404:409   */\n      dup3\n        /* \"#utility.yul\":400:454   */\n      and\n        /* \"#utility.yul\":389:454   */\n      swap1\n      pop\n        /* \"#utility.yul\":334:460   */\n      swap2\n      swap1\n      pop\n      jump\t// out\n        /* \"#utility.yul\":466:562   */\n    tag_202:\n        /* \"#utility.yul\":503:510   */\n      0x00\n        /* \"#utility.yul\":532:556   */\n      tag_238\n        /* \"#utility.yul\":550:555   */\n      dup3\n        /* \"#utility.yul\":532:556   */\n      tag_201\n      jump\t// in\n    tag_238:\n        /* \"#utility.yul\":521:556   */\n      swap1\n      pop\n        /* \"#utility.yul\":466:562   */\n      swap2\n      swap1\n      pop\n      jump\t// out\n        /* \"#utility.yul\":568:690   */\n    tag_203:\n        /* \"#utility.yul\":641:665   */\n      tag_240\n        /* \"#utility.yul\":659:664   */\n      dup2\n        /* \"#utility.yul\":641:665   */\n      tag_202\n      jump\t// in\n    tag_240:\n        /* \"#utility.yul\":634:639   */\n      dup2\n        /* \"#utility.yul\":631:666   */\n      eq\n        /* \"#utility.yul\":621:684   */\n      tag_241\n      jumpi\n        /* \"#utility.yul\":680:681   */\n      0x00\n        /* \"#utility.yul\":677:678   */\n      dup1\n        /* \"#utility.yul\":670:682   */\n      revert\n        /* \"#utility.yul\":621:684   */\n    tag_241:\n        /* \"#utility.yul\":568:690   */\n      pop\n      jump\t// out\n        /* \"#utility.yul\":696:835   */\n    tag_204:\n        /* \"#utility.yul\":742:747   */\n      0x00\n        /* \"#utility.yul\":780:786   */\n      dup2\n        /* \"#utility.yul\":767:787   */\n      calldataload\n        /* \"#utility.yul\":758:787   */\n      swap1\n      pop\n        /* \"#utility.yul\":796:829   */\n      tag_243\n        /* \"#utility.yul\":823:828   */\n      dup2\n        /* \"#utility.yul\":796:829   */\n      tag_203\n      jump\t// in\n    tag_243:\n        /* \"#utility.yul\":696:835   */\n      swap3\n      swap2\n      pop\n      pop\n      jump\t// out\n        /* \"#utility.yul\":841:1170   */\n    tag_28:\n        /* \"#utility.yul\":900:906   */\n      0x00\n        /* \"#utility.yul\":949:951   */\n      0x20\n        /* \"#utility.yul\":937:946   */\n      dup3\n        /* \"#utility.yul\":928:935   */\n      dup5\n        /* \"#utility.yul\":924:947   */\n      sub\n        /* \"#utility.yul\":920:952   */\n      slt\n        /* \"#utility.yul\":917:1036   */\n      iszero\n      tag_245\n      jumpi\n        /* \"#utility.yul\":955:1034   */\n      tag_246\n      tag_199\n      jump\t// in\n    tag_246:\n        /* \"#utility.yul\":917:1036   */\n    tag_245:\n        /* \"#utility.yul\":1075:1076   */\n      0x00\n        /* \"#utility.yul\":1100:1153   */\n      tag_247\n        /* \"#utility.yul\":1145:1152   */\n      dup5\n        /* \"#utility.yul\":1136:1142   */\n      dup3\n        /* \"#utility.yul\":1125:1134   */\n      dup6\n        /* \"#utility.yul\":1121:1143   */\n      add\n        /* \"#utility.yul\":1100:1153   */\n      tag_204\n      jump\t// in\n    tag_247:\n        /* \"#utility.yul\":1090:1153   */\n      swap2\n      pop\n        /* \"#utility.yul\":1046:1163   */\n      pop\n        /* \"#utility.yul\":841:1170   */\n      swap3\n      swap2\n      pop\n      pop\n      jump\t// out\n        /* \"#utility.yul\":1176:1253   */\n    tag_205:\n        /* \"#utility.yul\":1213:1220   */\n      0x00\n        /* \"#utility.yul\":1242:1247   */\n      dup2\n        /* \"#utility.yul\":1231:1247   */\n      swap1\n      pop\n        /* \"#utility.yul\":1176:1253   */\n      swap2\n      swap1\n      pop\n      jump\t// out\n        /* \"#utility.yul\":1259:1377   */\n    tag_206:\n        /* \"#utility.yul\":1346:1370   */\n      tag_250\n        /* \"#utility.yul\":1364:1369   */\n      dup2\n        /* \"#utility.yul\":1346:1370   */\n      tag_205\n      jump\t// in\n    tag_250:\n        /* \"#utility.yul\":1341:1344   */\n      dup3\n        /* \"#utility.yul\":1334:1371   */\n      mstore\n        /* \"#utility.yul\":1259:1377   */\n      pop\n      pop\n      jump\t// out\n        /* \"#utility.yul\":1383:1605   */\n    tag_31:\n        /* \"#utility.yul\":1476:1480   */\n      0x00\n        /* \"#utility.yul\":1514:1516   */\n      0x20\n        /* \"#utility.yul\":1503:1512   */\n      dup3\n        /* \"#utility.yul\":1499:1517   */\n      add\n        /* \"#utility.yul\":1491:1517   */\n      swap1\n      pop\n        /* \"#utility.yul\":1527:1598   */\n      tag_252\n        /* \"#utility.yul\":1595:1596   */\n      0x00\n        /* \"#utility.yul\":1584:1593   */\n      dup4\n        /* \"#utility.yul\":1580:1597   */\n      add\n        /* \"#utility.yul\":1571:1577   */\n      dup5\n        /* \"#utility.yul\":1527:1598   */\n      tag_206\n      jump\t// in\n    tag_252:\n        /* \"#utility.yul\":1383:1605   */\n      swap3\n      swap2\n      pop\n      pop\n      jump\t// out\n        /* \"#utility.yul\":1611:1733   */\n    tag_207:\n        /* \"#utility.yul\":1684:1708   */\n      tag_254\n        /* \"#utility.yul\":1702:1707   */\n      dup2\n        /* \"#utility.yul\":1684:1708   */\n      tag_205\n      jump\t// in\n    tag_254:\n        /* \"#utility.yul\":1677:1682   */\n      dup2\n        /* \"#utility.yul\":1674:1709   */\n      eq\n        /* \"#utility.yul\":1664:1727   */\n      tag_255\n      jumpi\n        /* \"#utility.yul\":1723:1724   */\n      0x00\n        /* \"#utility.yul\":1720:1721   */\n      dup1\n        /* \"#utility.yul\":1713:1725   */\n      revert\n        /* \"#utility.yul\":1664:1727   */\n    tag_255:\n        /* \"#utility.yul\":1611:1733   */\n      pop\n      jump\t// out\n        /* \"#utility.yul\":1739:1878   */\n    tag_208:\n        /* \"#utility.yul\":1785:1790   */\n      0x00\n        /* \"#utility.yul\":1823:1829   */\n      dup2\n        /* \"#utility.yul\":1810:1830   */\n      calldataload\n        /* \"#utility.yul\":1801:1830   */\n      swap1\n      pop\n        /* \"#utility.yul\":1839:1872   */\n      tag_257\n        /* \"#utility.yul\":1866:1871   */\n      dup2\n        /* \"#utility.yul\":1839:1872   */\n      tag_207\n      jump\t// in\n    tag_257:\n        /* \"#utility.yul\":1739:1878   */\n      swap3\n      swap2\n      pop\n      pop\n      jump\t// out\n        /* \"#utility.yul\":1884:2213   */\n    tag_44:\n        /* \"#utility.yul\":1943:1949   */\n      0x00\n        /* \"#utility.yul\":1992:1994   */\n      0x20\n        /* \"#utility.yul\":1980:1989   */\n      dup3\n        /* \"#utility.yul\":1971:1978   */\n      dup5\n        /* \"#utility.yul\":1967:1990   */\n      sub\n        /* \"#utility.yul\":1963:1995   */\n      slt\n        /* \"#utility.yul\":1960:2079   */\n      iszero\n      tag_259\n      jumpi\n        /* \"#utility.yul\":1998:2077   */\n      tag_260\n      tag_199\n      jump\t// in\n    tag_260:\n        /* \"#utility.yul\":1960:2079   */\n    tag_259:\n        /* \"#utility.yul\":2118:2119   */\n      0x00\n        /* \"#utility.yul\":2143:2196   */\n      tag_261\n        /* \"#utility.yul\":2188:2195   */\n      dup5\n        /* \"#utility.yul\":2179:2185   */\n      dup3\n        /* \"#utility.yul\":2168:2177   */\n      dup6\n        /* \"#utility.yul\":2164:2186   */\n      add\n        /* \"#utility.yul\":2143:2196   */\n      tag_208\n      jump\t// in\n    tag_261:\n        /* \"#utility.yul\":2133:2196   */\n      swap2\n      pop\n        /* \"#utility.yul\":2089:2206   */\n      pop\n        /* \"#utility.yul\":1884:2213   */\n      swap3\n      swap2\n      pop\n      pop\n      jump\t// out\n        /* \"#utility.yul\":2219:2279   */\n    tag_209:\n        /* \"#utility.yul\":2247:2250   */\n      0x00\n        /* \"#utility.yul\":2268:2273   */\n      dup2\n        /* \"#utility.yul\":2261:2273   */\n      swap1\n      pop\n        /* \"#utility.yul\":2219:2279   */\n      swap2\n      swap1\n      pop\n      jump\t// out\n        /* \"#utility.yul\":2285:2427   */\n    tag_210:\n        /* \"#utility.yul\":2335:2344   */\n      0x00\n        /* \"#utility.yul\":2368:2421   */\n      tag_264\n        /* \"#utility.yul\":2386:2420   */\n      tag_265\n        /* \"#utility.yul\":2395:2419   */\n      tag_266\n        /* \"#utility.yul\":2413:2418   */\n      dup5\n        /* \"#utility.yul\":2395:2419   */\n      tag_201\n      jump\t// in\n    tag_266:\n        /* \"#utility.yul\":2386:2420   */\n      tag_209\n      jump\t// in\n    tag_265:\n        /* \"#utility.yul\":2368:2421   */\n      tag_201\n      jump\t// in\n    tag_264:\n        /* \"#utility.yul\":2355:2421   */\n      swap1\n      pop\n        /* \"#utility.yul\":2285:2427   */\n      swap2\n      swap1\n      pop\n      jump\t// out\n        /* \"#utility.yul\":2433:2559   */\n    tag_211:\n        /* \"#utility.yul\":2483:2492   */\n      0x00\n        /* \"#utility.yul\":2516:2553   */\n      tag_268\n        /* \"#utility.yul\":2547:2552   */\n      dup3\n        /* \"#utility.yul\":2516:2553   */\n      tag_210\n      jump\t// in\n    tag_268:\n        /* \"#utility.yul\":2503:2553   */\n      swap1\n      pop\n        /* \"#utility.yul\":2433:2559   */\n      swap2\n      swap1\n      pop\n      jump\t// out\n        /* \"#utility.yul\":2565:2704   */\n    tag_212:\n        /* \"#utility.yul\":2628:2637   */\n      0x00\n        /* \"#utility.yul\":2661:2698   */\n      tag_270\n        /* \"#utility.yul\":2692:2697   */\n      dup3\n        /* \"#utility.yul\":2661:2698   */\n      tag_211\n      jump\t// in\n    tag_270:\n        /* \"#utility.yul\":2648:2698   */\n      swap1\n      pop\n        /* \"#utility.yul\":2565:2704   */\n      swap2\n      swap1\n      pop\n      jump\t// out\n        /* \"#utility.yul\":2710:2867   */\n    tag_213:\n        /* \"#utility.yul\":2810:2860   */\n      tag_272\n        /* \"#utility.yul\":2854:2859   */\n      dup2\n        /* \"#utility.yul\":2810:2860   */\n      tag_212\n      jump\t// in\n    tag_272:\n        /* \"#utility.yul\":2805:2808   */\n      dup3\n        /* \"#utility.yul\":2798:2861   */\n      mstore\n        /* \"#utility.yul\":2710:2867   */\n      pop\n      pop\n      jump\t// out\n        /* \"#utility.yul\":2873:3121   */\n    tag_64:\n        /* \"#utility.yul\":2979:2983   */\n      0x00\n        /* \"#utility.yul\":3017:3019   */\n      0x20\n        /* \"#utility.yul\":3006:3015   */\n      dup3\n        /* \"#utility.yul\":3002:3020   */\n      add\n        /* \"#utility.yul\":2994:3020   */\n      swap1\n      pop\n        /* \"#utility.yul\":3030:3114   */\n      tag_274\n        /* \"#utility.yul\":3111:3112   */\n      0x00\n        /* \"#utility.yul\":3100:3109   */\n      dup4\n        /* \"#utility.yul\":3096:3113   */\n      add\n        /* \"#utility.yul\":3087:3093   */\n      dup5\n        /* \"#utility.yul\":3030:3114   */\n      tag_213\n      jump\t// in\n    tag_274:\n        /* \"#utility.yul\":2873:3121   */\n      swap3\n      swap2\n      pop\n      pop\n      jump\t// out\n        /* \"#utility.yul\":3127:3245   */\n    tag_214:\n        /* \"#utility.yul\":3214:3238   */\n      tag_276\n        /* \"#utility.yul\":3232:3237   */\n      dup2\n        /* \"#utility.yul\":3214:3238   */\n      tag_202\n      jump\t// in\n    tag_276:\n        /* \"#utility.yul\":3209:3212   */\n      dup3\n        /* \"#utility.yul\":3202:3239   */\n      mstore\n        /* \"#utility.yul\":3127:3245   */\n      pop\n      pop\n      jump\t// out\n        /* \"#utility.yul\":3251:3473   */\n    tag_81:\n        /* \"#utility.yul\":3344:3348   */\n      0x00\n        /* \"#utility.yul\":3382:3384   */\n      0x20\n        /* \"#utility.yul\":3371:3380   */\n      dup3\n        /* \"#utility.yul\":3367:3385   */\n      add\n        /* \"#utility.yul\":3359:3385   */\n      swap1\n      pop\n        /* \"#utility.yul\":3395:3466   */\n      tag_278\n        /* \"#utility.yul\":3463:3464   */\n      0x00\n        /* \"#utility.yul\":3452:3461   */\n      dup4\n        /* \"#utility.yul\":3448:3465   */\n      add\n        /* \"#utility.yul\":3439:3445   */\n      dup5\n        /* \"#utility.yul\":3395:3466   */\n      tag_214\n      jump\t// in\n    tag_278:\n        /* \"#utility.yul\":3251:3473   */\n      swap3\n      swap2\n      pop\n      pop\n      jump\t// out\n        /* \"#utility.yul\":3479:3659   */\n    tag_215:\n        /* \"#utility.yul\":3527:3604   */\n      0x4e487b7100000000000000000000000000000000000000000000000000000000\n        /* \"#utility.yul\":3524:3525   */\n      0x00\n        /* \"#utility.yul\":3517:3605   */\n      mstore\n        /* \"#utility.yul\":3624:3628   */\n      0x11\n        /* \"#utility.yul\":3621:3622   */\n      0x04\n        /* \"#utility.yul\":3614:3629   */\n      mstore\n        /* \"#utility.yul\":3648:3652   */\n      0x24\n        /* \"#utility.yul\":3645:3646   */\n      0x00\n        /* \"#utility.yul\":3638:3653   */\n      revert\n        /* \"#utility.yul\":3665:3859   */\n    tag_97:\n        /* \"#utility.yul\":3705:3709   */\n      0x00\n        /* \"#utility.yul\":3725:3745   */\n      tag_281\n        /* \"#utility.yul\":3743:3744   */\n      dup3\n        /* \"#utility.yul\":3725:3745   */\n      tag_205\n      jump\t// in\n    tag_281:\n        /* \"#utility.yul\":3720:3745   */\n      swap2\n      pop\n        /* \"#utility.yul\":3759:3779   */\n      tag_282\n        /* \"#utility.yul\":3777:3778   */\n      dup4\n        /* \"#utility.yul\":3759:3779   */\n      tag_205\n      jump\t// in\n    tag_282:\n        /* \"#utility.yul\":3754:3779   */\n      swap3\n      pop\n        /* \"#utility.yul\":3803:3804   */\n      dup3\n        /* \"#utility.yul\":3800:3801   */\n      dup3\n        /* \"#utility.yul\":3796:3805   */\n      sub\n        /* \"#utility.yul\":3788:3805   */\n      swap1\n      pop\n        /* \"#utility.yul\":3827:3828   */\n      dup2\n        /* \"#utility.yul\":3821:3825   */\n      dup2\n        /* \"#utility.yul\":3818:3829   */\n      gt\n        /* \"#utility.yul\":3815:3852   */\n      iszero\n      tag_283\n      jumpi\n        /* \"#utility.yul\":3832:3850   */\n      tag_284\n      tag_215\n      jump\t// in\n    tag_284:\n        /* \"#utility.yul\":3815:3852   */\n    tag_283:\n        /* \"#utility.yul\":3665:3859   */\n      swap3\n      swap2\n      pop\n      pop\n      jump\t// out\n        /* \"#utility.yul\":3865:4275   */\n    tag_99:\n        /* \"#utility.yul\":3905:3912   */\n      0x00\n        /* \"#utility.yul\":3928:3948   */\n      tag_286\n        /* \"#utility.yul\":3946:3947   */\n      dup3\n        /* \"#utility.yul\":3928:3948   */\n      tag_205\n      jump\t// in\n    tag_286:\n        /* \"#utility.yul\":3923:3948   */\n      swap2\n      pop\n        /* \"#utility.yul\":3962:3982   */\n      tag_287\n        /* \"#utility.yul\":3980:3981   */\n      dup4\n        /* \"#utility.yul\":3962:3982   */\n      tag_205\n      jump\t// in\n    tag_287:\n        /* \"#utility.yul\":3957:3982   */\n      swap3\n      pop\n        /* \"#utility.yul\":4017:4018   */\n      dup3\n        /* \"#utility.yul\":4014:4015   */\n      dup3\n        /* \"#utility.yul\":4010:4019   */\n      mul\n        /* \"#utility.yul\":4039:4069   */\n      tag_288\n        /* \"#utility.yul\":4057:4068   */\n      dup2\n        /* \"#utility.yul\":4039:4069   */\n      tag_205\n      jump\t// in\n    tag_288:\n        /* \"#utility.yul\":4028:4069   */\n      swap2\n      pop\n        /* \"#utility.yul\":4218:4219   */\n      dup3\n        /* \"#utility.yul\":4209:4216   */\n      dup3\n        /* \"#utility.yul\":4205:4220   */\n      div\n        /* \"#utility.yul\":4202:4203   */\n      dup5\n        /* \"#utility.yul\":4199:4221   */\n      eq\n        /* \"#utility.yul\":4179:4180   */\n      dup4\n        /* \"#utility.yul\":4172:4181   */\n      iszero\n        /* \"#utility.yul\":4152:4235   */\n      or\n        /* \"#utility.yul\":4129:4268   */\n      tag_289\n      jumpi\n        /* \"#utility.yul\":4248:4266   */\n      tag_290\n      tag_215\n      jump\t// in\n    tag_290:\n        /* \"#utility.yul\":4129:4268   */\n    tag_289:\n        /* \"#utility.yul\":3913:4275   */\n      pop\n        /* \"#utility.yul\":3865:4275   */\n      swap3\n      swap2\n      pop\n      pop\n      jump\t// out\n        /* \"#utility.yul\":4281:4461   */\n    tag_216:\n        /* \"#utility.yul\":4329:4406   */\n      0x4e487b7100000000000000000000000000000000000000000000000000000000\n        /* \"#utility.yul\":4326:4327   */\n      0x00\n        /* \"#utility.yul\":4319:4407   */\n      mstore\n        /* \"#utility.yul\":4426:4430   */\n      0x12\n        /* \"#utility.yul\":4423:4424   */\n      0x04\n        /* \"#utility.yul\":4416:4431   */\n      mstore\n        /* \"#utility.yul\":4450:4454   */\n      0x24\n        /* \"#utility.yul\":4447:4448   */\n      0x00\n        /* \"#utility.yul\":4440:4455   */\n      revert\n        /* \"#utility.yul\":4467:4652   */\n    tag_101:\n        /* \"#utility.yul\":4507:4508   */\n      0x00\n        /* \"#utility.yul\":4524:4544   */\n      tag_293\n        /* \"#utility.yul\":4542:4543   */\n      dup3\n        /* \"#utility.yul\":4524:4544   */\n      tag_205\n      jump\t// in\n    tag_293:\n        /* \"#utility.yul\":4519:4544   */\n      swap2\n      pop\n        /* \"#utility.yul\":4558:4578   */\n      tag_294\n        /* \"#utility.yul\":4576:4577   */\n      dup4\n        /* \"#utility.yul\":4558:4578   */\n      tag_205\n      jump\t// in\n    tag_294:\n        /* \"#utility.yul\":4553:4578   */\n      swap3\n      pop\n        /* \"#utility.yul\":4597:4598   */\n      dup3\n        /* \"#utility.yul\":4587:4622   */\n      tag_295\n      jumpi\n        /* \"#utility.yul\":4602:4620   */\n      tag_296\n      tag_216\n      jump\t// in\n    tag_296:\n        /* \"#utility.yul\":4587:4622   */\n    tag_295:\n        /* \"#utility.yul\":4644:4645   */\n      dup3\n        /* \"#utility.yul\":4641:4642   */\n      dup3\n        /* \"#utility.yul\":4637:4646   */\n      div\n        /* \"#utility.yul\":4632:4646   */\n      swap1\n      pop\n        /* \"#utility.yul\":4467:4652   */\n      swap3\n      swap2\n      pop\n      pop\n      jump\t// out\n        /* \"#utility.yul\":4658:4849   */\n    tag_103:\n        /* \"#utility.yul\":4698:4701   */\n      0x00\n        /* \"#utility.yul\":4717:4737   */\n      tag_298\n        /* \"#utility.yul\":4735:4736   */\n      dup3\n        /* \"#utility.yul\":4717:4737   */\n      tag_205\n      jump\t// in\n    tag_298:\n        /* \"#utility.yul\":4712:4737   */\n      swap2\n      pop\n        /* \"#utility.yul\":4751:4771   */\n      tag_299\n        /* \"#utility.yul\":4769:4770   */\n      dup4\n        /* \"#utility.yul\":4751:4771   */\n      tag_205\n      jump\t// in\n    tag_299:\n        /* \"#utility.yul\":4746:4771   */\n      swap3\n      pop\n        /* \"#utility.yul\":4794:4795   */\n      dup3\n        /* \"#utility.yul\":4791:4792   */\n      dup3\n        /* \"#utility.yul\":4787:4796   */\n      add\n        /* \"#utility.yul\":4780:4796   */\n      swap1\n      pop\n        /* \"#utility.yul\":4815:4818   */\n      dup1\n        /* \"#utility.yul\":4812:4813   */\n      dup3\n        /* \"#utility.yul\":4809:4819   */\n      gt\n        /* \"#utility.yul\":4806:4842   */\n      iszero\n      tag_300\n      jumpi\n        /* \"#utility.yul\":4822:4840   */\n      tag_301\n      tag_215\n      jump\t// in\n    tag_301:\n        /* \"#utility.yul\":4806:4842   */\n    tag_300:\n        /* \"#utility.yul\":4658:4849   */\n      swap3\n      swap2\n      pop\n      pop\n      jump\t// out\n        /* \"#utility.yul\":4855:5024   */\n    tag_217:\n        /* \"#utility.yul\":4939:4950   */\n      0x00\n        /* \"#utility.yul\":4973:4979   */\n      dup3\n        /* \"#utility.yul\":4968:4971   */\n      dup3\n        /* \"#utility.yul\":4961:4980   */\n      mstore\n        /* \"#utility.yul\":5013:5017   */\n      0x20\n        /* \"#utility.yul\":5008:5011   */\n      dup3\n        /* \"#utility.yul\":5004:5018   */\n      add\n        /* \"#utility.yul\":4989:5018   */\n      swap1\n      pop\n        /* \"#utility.yul\":4855:5024   */\n      swap3\n      swap2\n      pop\n      pop\n      jump\t// out\n        /* \"#utility.yul\":5030:5189   */\n    tag_218:\n        /* \"#utility.yul\":5170:5181   */\n      0x6e6f74206f776e65720000000000000000000000000000000000000000000000\n        /* \"#utility.yul\":5166:5167   */\n      0x00\n        /* \"#utility.yul\":5158:5164   */\n      dup3\n        /* \"#utility.yul\":5154:5168   */\n      add\n        /* \"#utility.yul\":5147:5182   */\n      mstore\n        /* \"#utility.yul\":5030:5189   */\n      pop\n      jump\t// out\n        /* \"#utility.yul\":5195:5560   */\n    tag_219:\n        /* \"#utility.yul\":5337:5340   */\n      0x00\n        /* \"#utility.yul\":5358:5424   */\n      tag_305\n        /* \"#utility.yul\":5422:5423   */\n      0x09\n        /* \"#utility.yul\":5417:5420   */\n      dup4\n        /* \"#utility.yul\":5358:5424   */\n      tag_217\n      jump\t// in\n    tag_305:\n        /* \"#utility.yul\":5351:5424   */\n      swap2\n      pop\n        /* \"#utility.yul\":5433:5526   */\n      tag_306\n        /* \"#utility.yul\":5522:5525   */\n      dup3\n        /* \"#utility.yul\":5433:5526   */\n      tag_218\n      jump\t// in\n    tag_306:\n        /* \"#utility.yul\":5551:5553   */\n      0x20\n        /* \"#utility.yul\":5546:5549   */\n      dup3\n        /* \"#utility.yul\":5542:5554   */\n      add\n        /* \"#utility.yul\":5535:5554   */\n      swap1\n      pop\n        /* \"#utility.yul\":5195:5560   */\n      swap2\n      swap1\n      pop\n      jump\t// out\n        /* \"#utility.yul\":5566:5985   */\n    tag_107:\n        /* \"#utility.yul\":5732:5736   */\n      0x00\n        /* \"#utility.yul\":5770:5772   */\n      0x20\n        /* \"#utility.yul\":5759:5768   */\n      dup3\n        /* \"#utility.yul\":5755:5773   */\n      add\n        /* \"#utility.yul\":5747:5773   */\n      swap1\n      pop\n        /* \"#utility.yul\":5819:5828   */\n      dup2\n        /* \"#utility.yul\":5813:5817   */\n      dup2\n        /* \"#utility.yul\":5809:5829   */\n      sub\n        /* \"#utility.yul\":5805:5806   */\n      0x00\n        /* \"#utility.yul\":5794:5803   */\n      dup4\n        /* \"#utility.yul\":5790:5807   */\n      add\n        /* \"#utility.yul\":5783:5830   */\n      mstore\n        /* \"#utility.yul\":5847:5978   */\n      tag_308\n        /* \"#utility.yul\":5973:5977   */\n      dup2\n        /* \"#utility.yul\":5847:5978   */\n      tag_219\n      jump\t// in\n    tag_308:\n        /* \"#utility.yul\":5839:5978   */\n      swap1\n      pop\n        /* \"#utility.yul\":5566:5985   */\n      swap2\n      swap1\n      pop\n      jump\t// out\n        /* \"#utility.yul\":5991:6169   */\n    tag_220:\n        /* \"#utility.yul\":6131:6161   */\n      0x726577617264206475726174696f6e206e6f742066696e697368656400000000\n        /* \"#utility.yul\":6127:6128   */\n      0x00\n        /* \"#utility.yul\":6119:6125   */\n      dup3\n        /* \"#utility.yul\":6115:6129   */\n      add\n        /* \"#utility.yul\":6108:6162   */\n      mstore\n        /* \"#utility.yul\":5991:6169   */\n      pop\n      jump\t// out\n        /* \"#utility.yul\":6175:6541   */\n    tag_221:\n        /* \"#utility.yul\":6317:6320   */\n      0x00\n        /* \"#utility.yul\":6338:6405   */\n      tag_311\n        /* \"#utility.yul\":6402:6404   */\n      0x1c\n        /* \"#utility.yul\":6397:6400   */\n      dup4\n        /* \"#utility.yul\":6338:6405   */\n      tag_217\n      jump\t// in\n    tag_311:\n        /* \"#utility.yul\":6331:6405   */\n      swap2\n      pop\n        /* \"#utility.yul\":6414:6507   */\n      tag_312\n        /* \"#utility.yul\":6503:6506   */\n      dup3\n        /* \"#utility.yul\":6414:6507   */\n      tag_220\n      jump\t// in\n    tag_312:\n        /* \"#utility.yul\":6532:6534   */\n      0x20\n        /* \"#utility.yul\":6527:6530   */\n      dup3\n        /* \"#utility.yul\":6523:6535   */\n      add\n        /* \"#utility.yul\":6516:6535   */\n      swap1\n      pop\n        /* \"#utility.yul\":6175:6541   */\n      swap2\n      swap1\n      pop\n      jump\t// out\n        /* \"#utility.yul\":6547:6966   */\n    tag_111:\n        /* \"#utility.yul\":6713:6717   */\n      0x00\n        /* \"#utility.yul\":6751:6753   */\n      0x20\n        /* \"#utility.yul\":6740:6749   */\n      dup3\n        /* \"#utility.yul\":6736:6754   */\n      add\n        /* \"#utility.yul\":6728:6754   */\n      swap1\n      pop\n        /* \"#utility.yul\":6800:6809   */\n      dup2\n        /* \"#utility.yul\":6794:6798   */\n      dup2\n        /* \"#utility.yul\":6790:6810   */\n      sub\n        /* \"#utility.yul\":6786:6787   */\n      0x00\n        /* \"#utility.yul\":6775:6784   */\n      dup4\n        /* \"#utility.yul\":6771:6788   */\n      add\n        /* \"#utility.yul\":6764:6811   */\n      mstore\n        /* \"#utility.yul\":6828:6959   */\n      tag_314\n        /* \"#utility.yul\":6954:6958   */\n      dup2\n        /* \"#utility.yul\":6828:6959   */\n      tag_221\n      jump\t// in\n    tag_314:\n        /* \"#utility.yul\":6820:6959   */\n      swap1\n      pop\n        /* \"#utility.yul\":6547:6966   */\n      swap2\n      swap1\n      pop\n      jump\t// out\n        /* \"#utility.yul\":6972:7132   */\n    tag_222:\n        /* \"#utility.yul\":7112:7124   */\n      0x616d6f756e74203d203000000000000000000000000000000000000000000000\n        /* \"#utility.yul\":7108:7109   */\n      0x00\n        /* \"#utility.yul\":7100:7106   */\n      dup3\n        /* \"#utility.yul\":7096:7110   */\n      add\n        /* \"#utility.yul\":7089:7125   */\n      mstore\n        /* \"#utility.yul\":6972:7132   */\n      pop\n      jump\t// out\n        /* \"#utility.yul\":7138:7504   */\n    tag_223:\n        /* \"#utility.yul\":7280:7283   */\n      0x00\n        /* \"#utility.yul\":7301:7368   */\n      tag_317\n        /* \"#utility.yul\":7365:7367   */\n      0x0a\n        /* \"#utility.yul\":7360:7363   */\n      dup4\n        /* \"#utility.yul\":7301:7368   */\n      tag_217\n      jump\t// in\n    tag_317:\n        /* \"#utility.yul\":7294:7368   */\n      swap2\n      pop\n        /* \"#utility.yul\":7377:7470   */\n      tag_318\n        /* \"#utility.yul\":7466:7469   */\n      dup3\n        /* \"#utility.yul\":7377:7470   */\n      tag_222\n      jump\t// in\n    tag_318:\n        /* \"#utility.yul\":7495:7497   */\n      0x20\n        /* \"#utility.yul\":7490:7493   */\n      dup3\n        /* \"#utility.yul\":7486:7498   */\n      add\n        /* \"#utility.yul\":7479:7498   */\n      swap1\n      pop\n        /* \"#utility.yul\":7138:7504   */\n      swap2\n      swap1\n      pop\n      jump\t// out\n        /* \"#utility.yul\":7510:7929   */\n    tag_120:\n        /* \"#utility.yul\":7676:7680   */\n      0x00\n        /* \"#utility.yul\":7714:7716   */\n      0x20\n        /* \"#utility.yul\":7703:7712   */\n      dup3\n        /* \"#utility.yul\":7699:7717   */\n      add\n        /* \"#utility.yul\":7691:7717   */\n      swap1\n      pop\n        /* \"#utility.yul\":7763:7772   */\n      dup2\n        /* \"#utility.yul\":7757:7761   */\n      dup2\n        /* \"#utility.yul\":7753:7773   */\n      sub\n        /* \"#utility.yul\":7749:7750   */\n      0x00\n        /* \"#utility.yul\":7738:7747   */\n      dup4\n        /* \"#utility.yul\":7734:7751   */\n      add\n        /* \"#utility.yul\":7727:7774   */\n      mstore\n        /* \"#utility.yul\":7791:7922   */\n      tag_320\n        /* \"#utility.yul\":7917:7921   */\n      dup2\n        /* \"#utility.yul\":7791:7922   */\n      tag_223\n      jump\t// in\n    tag_320:\n        /* \"#utility.yul\":7783:7922   */\n      swap1\n      pop\n        /* \"#utility.yul\":7510:7929   */\n      swap2\n      swap1\n      pop\n      jump\t// out\n        /* \"#utility.yul\":7935:8267   */\n    tag_124:\n        /* \"#utility.yul\":8056:8060   */\n      0x00\n        /* \"#utility.yul\":8094:8096   */\n      0x40\n        /* \"#utility.yul\":8083:8092   */\n      dup3\n        /* \"#utility.yul\":8079:8097   */\n      add\n        /* \"#utility.yul\":8071:8097   */\n      swap1\n      pop\n        /* \"#utility.yul\":8107:8178   */\n      tag_322\n        /* \"#utility.yul\":8175:8176   */\n      0x00\n        /* \"#utility.yul\":8164:8173   */\n      dup4\n        /* \"#utility.yul\":8160:8177   */\n      add\n        /* \"#utility.yul\":8151:8157   */\n      dup6\n        /* \"#utility.yul\":8107:8178   */\n      tag_214\n      jump\t// in\n    tag_322:\n        /* \"#utility.yul\":8188:8260   */\n      tag_323\n        /* \"#utility.yul\":8256:8258   */\n      0x20\n        /* \"#utility.yul\":8245:8254   */\n      dup4\n        /* \"#utility.yul\":8241:8259   */\n      add\n        /* \"#utility.yul\":8232:8238   */\n      dup5\n        /* \"#utility.yul\":8188:8260   */\n      tag_206\n      jump\t// in\n    tag_323:\n        /* \"#utility.yul\":7935:8267   */\n      swap4\n      swap3\n      pop\n      pop\n      pop\n      jump\t// out\n        /* \"#utility.yul\":8273:8363   */\n    tag_224:\n        /* \"#utility.yul\":8307:8314   */\n      0x00\n        /* \"#utility.yul\":8350:8355   */\n      dup2\n        /* \"#utility.yul\":8343:8356   */\n      iszero\n        /* \"#utility.yul\":8336:8357   */\n      iszero\n        /* \"#utility.yul\":8325:8357   */\n      swap1\n      pop\n        /* \"#utility.yul\":8273:8363   */\n      swap2\n      swap1\n      pop\n      jump\t// out\n        /* \"#utility.yul\":8369:8485   */\n    tag_225:\n        /* \"#utility.yul\":8439:8460   */\n      tag_326\n        /* \"#utility.yul\":8454:8459   */\n      dup2\n        /* \"#utility.yul\":8439:8460   */\n      tag_224\n      jump\t// in\n    tag_326:\n        /* \"#utility.yul\":8432:8437   */\n      dup2\n        /* \"#utility.yul\":8429:8461   */\n      eq\n        /* \"#utility.yul\":8419:8479   */\n      tag_327\n      jumpi\n        /* \"#utility.yul\":8475:8476   */\n      0x00\n        /* \"#utility.yul\":8472:8473   */\n      dup1\n        /* \"#utility.yul\":8465:8477   */\n      revert\n        /* \"#utility.yul\":8419:8479   */\n    tag_327:\n        /* \"#utility.yul\":8369:8485   */\n      pop\n      jump\t// out\n        /* \"#utility.yul\":8491:8628   */\n    tag_226:\n        /* \"#utility.yul\":8545:8550   */\n      0x00\n        /* \"#utility.yul\":8576:8582   */\n      dup2\n        /* \"#utility.yul\":8570:8583   */\n      mload\n        /* \"#utility.yul\":8561:8583   */\n      swap1\n      pop\n        /* \"#utility.yul\":8592:8622   */\n      tag_329\n        /* \"#utility.yul\":8616:8621   */\n      dup2\n        /* \"#utility.yul\":8592:8622   */\n      tag_225\n      jump\t// in\n    tag_329:\n        /* \"#utility.yul\":8491:8628   */\n      swap3\n      swap2\n      pop\n      pop\n      jump\t// out\n        /* \"#utility.yul\":8634:8979   */\n    tag_128:\n        /* \"#utility.yul\":8701:8707   */\n      0x00\n        /* \"#utility.yul\":8750:8752   */\n      0x20\n        /* \"#utility.yul\":8738:8747   */\n      dup3\n        /* \"#utility.yul\":8729:8736   */\n      dup5\n        /* \"#utility.yul\":8725:8748   */\n      sub\n        /* \"#utility.yul\":8721:8753   */\n      slt\n        /* \"#utility.yul\":8718:8837   */\n      iszero\n      tag_331\n      jumpi\n        /* \"#utility.yul\":8756:8835   */\n      tag_332\n      tag_199\n      jump\t// in\n    tag_332:\n        /* \"#utility.yul\":8718:8837   */\n    tag_331:\n        /* \"#utility.yul\":8876:8877   */\n      0x00\n        /* \"#utility.yul\":8901:8962   */\n      tag_333\n        /* \"#utility.yul\":8954:8961   */\n      dup5\n        /* \"#utility.yul\":8945:8951   */\n      dup3\n        /* \"#utility.yul\":8934:8943   */\n      dup6\n        /* \"#utility.yul\":8930:8952   */\n      add\n        /* \"#utility.yul\":8901:8962   */\n      tag_226\n      jump\t// in\n    tag_333:\n        /* \"#utility.yul\":8891:8962   */\n      swap2\n      pop\n        /* \"#utility.yul\":8847:8972   */\n      pop\n        /* \"#utility.yul\":8634:8979   */\n      swap3\n      swap2\n      pop\n      pop\n      jump\t// out\n        /* \"#utility.yul\":8985:9150   */\n    tag_227:\n        /* \"#utility.yul\":9125:9142   */\n      0x7265776172642072617465203d20300000000000000000000000000000000000\n        /* \"#utility.yul\":9121:9122   */\n      0x00\n        /* \"#utility.yul\":9113:9119   */\n      dup3\n        /* \"#utility.yul\":9109:9123   */\n      add\n        /* \"#utility.yul\":9102:9143   */\n      mstore\n        /* \"#utility.yul\":8985:9150   */\n      pop\n      jump\t// out\n        /* \"#utility.yul\":9156:9522   */\n    tag_228:\n        /* \"#utility.yul\":9298:9301   */\n      0x00\n        /* \"#utility.yul\":9319:9386   */\n      tag_336\n        /* \"#utility.yul\":9383:9385   */\n      0x0f\n        /* \"#utility.yul\":9378:9381   */\n      dup4\n        /* \"#utility.yul\":9319:9386   */\n      tag_217\n      jump\t// in\n    tag_336:\n        /* \"#utility.yul\":9312:9386   */\n      swap2\n      pop\n        /* \"#utility.yul\":9395:9488   */\n      tag_337\n        /* \"#utility.yul\":9484:9487   */\n      dup3\n        /* \"#utility.yul\":9395:9488   */\n      tag_227\n      jump\t// in\n    tag_337:\n        /* \"#utility.yul\":9513:9515   */\n      0x20\n        /* \"#utility.yul\":9508:9511   */\n      dup3\n        /* \"#utility.yul\":9504:9516   */\n      add\n        /* \"#utility.yul\":9497:9516   */\n      swap1\n      pop\n        /* \"#utility.yul\":9156:9522   */\n      swap2\n      swap1\n      pop\n      jump\t// out\n        /* \"#utility.yul\":9528:9947   */\n    tag_147:\n        /* \"#utility.yul\":9694:9698   */\n      0x00\n        /* \"#utility.yul\":9732:9734   */\n      0x20\n        /* \"#utility.yul\":9721:9730   */\n      dup3\n        /* \"#utility.yul\":9717:9735   */\n      add\n        /* \"#utility.yul\":9709:9735   */\n      swap1\n      pop\n        /* \"#utility.yul\":9781:9790   */\n      dup2\n        /* \"#utility.yul\":9775:9779   */\n      dup2\n        /* \"#utility.yul\":9771:9791   */\n      sub\n        /* \"#utility.yul\":9767:9768   */\n      0x00\n        /* \"#utility.yul\":9756:9765   */\n      dup4\n        /* \"#utility.yul\":9752:9769   */\n      add\n        /* \"#utility.yul\":9745:9792   */\n      mstore\n        /* \"#utility.yul\":9809:9940   */\n      tag_339\n        /* \"#utility.yul\":9935:9939   */\n      dup2\n        /* \"#utility.yul\":9809:9940   */\n      tag_228\n      jump\t// in\n    tag_339:\n        /* \"#utility.yul\":9801:9940   */\n      swap1\n      pop\n        /* \"#utility.yul\":9528:9947   */\n      swap2\n      swap1\n      pop\n      jump\t// out\n        /* \"#utility.yul\":9953:10096   */\n    tag_229:\n        /* \"#utility.yul\":10010:10015   */\n      0x00\n        /* \"#utility.yul\":10041:10047   */\n      dup2\n        /* \"#utility.yul\":10035:10048   */\n      mload\n        /* \"#utility.yul\":10026:10048   */\n      swap1\n      pop\n        /* \"#utility.yul\":10057:10090   */\n      tag_341\n        /* \"#utility.yul\":10084:10089   */\n      dup2\n        /* \"#utility.yul\":10057:10090   */\n      tag_207\n      jump\t// in\n    tag_341:\n        /* \"#utility.yul\":9953:10096   */\n      swap3\n      swap2\n      pop\n      pop\n      jump\t// out\n        /* \"#utility.yul\":10102:10453   */\n    tag_152:\n        /* \"#utility.yul\":10172:10178   */\n      0x00\n        /* \"#utility.yul\":10221:10223   */\n      0x20\n        /* \"#utility.yul\":10209:10218   */\n      dup3\n        /* \"#utility.yul\":10200:10207   */\n      dup5\n        /* \"#utility.yul\":10196:10219   */\n      sub\n        /* \"#utility.yul\":10192:10224   */\n      slt\n        /* \"#utility.yul\":10189:10308   */\n      iszero\n      tag_343\n      jumpi\n        /* \"#utility.yul\":10227:10306   */\n      tag_344\n      tag_199\n      jump\t// in\n    tag_344:\n        /* \"#utility.yul\":10189:10308   */\n    tag_343:\n        /* \"#utility.yul\":10347:10348   */\n      0x00\n        /* \"#utility.yul\":10372:10436   */\n      tag_345\n        /* \"#utility.yul\":10428:10435   */\n      dup5\n        /* \"#utility.yul\":10419:10425   */\n      dup3\n        /* \"#utility.yul\":10408:10417   */\n      dup6\n        /* \"#utility.yul\":10404:10426   */\n      add\n        /* \"#utility.yul\":10372:10436   */\n      tag_229\n      jump\t// in\n    tag_345:\n        /* \"#utility.yul\":10362:10436   */\n      swap2\n      pop\n        /* \"#utility.yul\":10318:10446   */\n      pop\n        /* \"#utility.yul\":10102:10453   */\n      swap3\n      swap2\n      pop\n      pop\n      jump\t// out\n        /* \"#utility.yul\":10459:10632   */\n    tag_230:\n        /* \"#utility.yul\":10599:10624   */\n      0x72657761726420616d6f756e74203e2062616c616e6365000000000000000000\n        /* \"#utility.yul\":10595:10596   */\n      0x00\n        /* \"#utility.yul\":10587:10593   */\n      dup3\n        /* \"#utility.yul\":10583:10597   */\n      add\n        /* \"#utility.yul\":10576:10625   */\n      mstore\n        /* \"#utility.yul\":10459:10632   */\n      pop\n      jump\t// out\n        /* \"#utility.yul\":10638:11004   */\n    tag_231:\n        /* \"#utility.yul\":10780:10783   */\n      0x00\n        /* \"#utility.yul\":10801:10868   */\n      tag_348\n        /* \"#utility.yul\":10865:10867   */\n      0x17\n        /* \"#utility.yul\":10860:10863   */\n      dup4\n        /* \"#utility.yul\":10801:10868   */\n      tag_217\n      jump\t// in\n    tag_348:\n        /* \"#utility.yul\":10794:10868   */\n      swap2\n      pop\n        /* \"#utility.yul\":10877:10970   */\n      tag_349\n        /* \"#utility.yul\":10966:10969   */\n      dup3\n        /* \"#utility.yul\":10877:10970   */\n      tag_230\n      jump\t// in\n    tag_349:\n        /* \"#utility.yul\":10995:10997   */\n      0x20\n        /* \"#utility.yul\":10990:10993   */\n      dup3\n        /* \"#utility.yul\":10986:10998   */\n      add\n        /* \"#utility.yul\":10979:10998   */\n      swap1\n      pop\n        /* \"#utility.yul\":10638:11004   */\n      swap2\n      swap1\n      pop\n      jump\t// out\n        /* \"#utility.yul\":11010:11429   */\n    tag_156:\n        /* \"#utility.yul\":11176:11180   */\n      0x00\n        /* \"#utility.yul\":11214:11216   */\n      0x20\n        /* \"#utility.yul\":11203:11212   */\n      dup3\n        /* \"#utility.yul\":11199:11217   */\n      add\n        /* \"#utility.yul\":11191:11217   */\n      swap1\n      pop\n        /* \"#utility.yul\":11263:11272   */\n      dup2\n        /* \"#utility.yul\":11257:11261   */\n      dup2\n        /* \"#utility.yul\":11253:11273   */\n      sub\n        /* \"#utility.yul\":11249:11250   */\n      0x00\n        /* \"#utility.yul\":11238:11247   */\n      dup4\n        /* \"#utility.yul\":11234:11251   */\n      add\n        /* \"#utility.yul\":11227:11274   */\n      mstore\n        /* \"#utility.yul\":11291:11422   */\n      tag_351\n        /* \"#utility.yul\":11417:11421   */\n      dup2\n        /* \"#utility.yul\":11291:11422   */\n      tag_231\n      jump\t// in\n    tag_351:\n        /* \"#utility.yul\":11283:11422   */\n      swap1\n      pop\n        /* \"#utility.yul\":11010:11429   */\n      swap2\n      swap1\n      pop\n      jump\t// out\n        /* \"#utility.yul\":11435:11877   */\n    tag_181:\n        /* \"#utility.yul\":11584:11588   */\n      0x00\n        /* \"#utility.yul\":11622:11624   */\n      0x60\n        /* \"#utility.yul\":11611:11620   */\n      dup3\n        /* \"#utility.yul\":11607:11625   */\n      add\n        /* \"#utility.yul\":11599:11625   */\n      swap1\n      pop\n        /* \"#utility.yul\":11635:11706   */\n      tag_353\n        /* \"#utility.yul\":11703:11704   */\n      0x00\n        /* \"#utility.yul\":11692:11701   */\n      dup4\n        /* \"#utility.yul\":11688:11705   */\n      add\n        /* \"#utility.yul\":11679:11685   */\n      dup7\n        /* \"#utility.yul\":11635:11706   */\n      tag_214\n      jump\t// in\n    tag_353:\n        /* \"#utility.yul\":11716:11788   */\n      tag_354\n        /* \"#utility.yul\":11784:11786   */\n      0x20\n        /* \"#utility.yul\":11773:11782   */\n      dup4\n        /* \"#utility.yul\":11769:11787   */\n      add\n        /* \"#utility.yul\":11760:11766   */\n      dup6\n        /* \"#utility.yul\":11716:11788   */\n      tag_214\n      jump\t// in\n    tag_354:\n        /* \"#utility.yul\":11798:11870   */\n      tag_355\n        /* \"#utility.yul\":11866:11868   */\n      0x40\n        /* \"#utility.yul\":11855:11864   */\n      dup4\n        /* \"#utility.yul\":11851:11869   */\n      add\n        /* \"#utility.yul\":11842:11848   */\n      dup5\n        /* \"#utility.yul\":11798:11870   */\n      tag_206\n      jump\t// in\n    tag_355:\n        /* \"#utility.yul\":11435:11877   */\n      swap5\n      swap4\n      pop\n      pop\n      pop\n      pop\n      jump\t// out\n\n    auxdata: 0xa2646970667358221220dd859bcbdca2075b7ea5a6db0390ac1d24e4e23ebc29b0c71f2b9bf0d9f8fd8064736f6c63430008180033\n}\n",
				"bytecode": {
					"linkReferences": {},
					"object": "60c060405234801562000010575f80fd5b506040516200185a3803806200185a83398181016040528101906200003691906200014a565b335f806101000a81548173ffffffffffffffffffffffffffffffffffffffff021916908373ffffffffffffffffffffffffffffffffffffffff1602179055508173ffffffffffffffffffffffffffffffffffffffff1660808173ffffffffffffffffffffffffffffffffffffffff16815250508073ffffffffffffffffffffffffffffffffffffffff1660a08173ffffffffffffffffffffffffffffffffffffffff168152505050506200018f565b5f80fd5b5f73ffffffffffffffffffffffffffffffffffffffff82169050919050565b5f6200011482620000e9565b9050919050565b620001268162000108565b811462000131575f80fd5b50565b5f8151905062000144816200011b565b92915050565b5f8060408385031215620001635762000162620000e5565b5b5f620001728582860162000134565b9250506020620001858582860162000134565b9150509250929050565b60805160a05161168d620001cd5f395f81816109e801528181610c5a015261102701525f818161073601528181610d160152610eb1015261168d5ff3fe608060405234801561000f575f80fd5b5060043610610129575f3560e01c806372f702f3116100ab5780638da5cb5b1161006f5780638da5cb5b1461031d578063a694fc3a1461033b578063cd3daf9d14610357578063d1af0c7d14610375578063df136d651461039357610129565b806372f702f3146102755780637519ab50146102935780637b0a47ee146102b157806380faa57d146102cf5780638b876347146102ed57610129565b80632e1a7d4d116100f25780632e1a7d4d146101e55780633c6b16ab146102015780633d18b9121461021d57806367d3b4881461022757806370a082311461024557610129565b80628cc2621461012d5780630700037d1461015d5780630fb5a6b41461018d57806318160ddd146101ab578063208bae25146101c9575b5f80fd5b610147600480360381019061014291906110c6565b6103b1565b6040516101549190611109565b60405180910390f35b610177600480360381019061017291906110c6565b6104ac565b6040516101849190611109565b60405180910390f35b6101956104c1565b6040516101a29190611109565b60405180910390f35b6101b36104c7565b6040516101c09190611109565b60405180910390f35b6101e360048036038101906101de919061114c565b6104cd565b005b6101ff60048036038101906101fa919061114c565b6105a8565b005b61021b6004803603810190610216919061114c565b6107d4565b005b610225610aee565b005b61022f610cf9565b60405161023c9190611109565b60405180910390f35b61025f600480360381019061025a91906110c6565b610cff565b60405161026c9190611109565b60405180910390f35b61027d610d14565b60405161028a91906111d2565b60405180910390f35b61029b610d38565b6040516102a89190611109565b60405180910390f35b6102b9610d3e565b6040516102c69190611109565b60405180910390f35b6102d7610d44565b6040516102e49190611109565b60405180910390f35b610307600480360381019061030291906110c6565b610d56565b6040516103149190611109565b60405180910390f35b610325610d6b565b60405161033291906111fa565b60405180910390f35b6103556004803603810190610350919061114c565b610d8e565b005b61035f610fbc565b60405161036c9190611109565b60405180910390f35b61037d611025565b60405161038a91906111d2565b60405180910390f35b61039b611049565b6040516103a89190611109565b60405180910390f35b5f60075f8373ffffffffffffffffffffffffffffffffffffffff1673ffffffffffffffffffffffffffffffffffffffff1681526020019081526020015f2054670de0b6b3a764000060065f8573ffffffffffffffffffffffffffffffffffffffff1673ffffffffffffffffffffffffffffffffffffffff1681526020019081526020015f205461043f610fbc565b6104499190611240565b60095f8673ffffffffffffffffffffffffffffffffffffffff1673ffffffffffffffffffffffffffffffffffffffff1681526020019081526020015f20546104919190611273565b61049b91906112e1565b6104a59190611311565b9050919050565b6007602052805f5260405f205f915090505481565b60015481565b60085481565b5f8054906101000a900473ffffffffffffffffffffffffffffffffffffffff1673ffffffffffffffffffffffffffffffffffffffff163373ffffffffffffffffffffffffffffffffffffffff161461055a576040517f08c379a00000000000000000000000000000000000000000000000000000000081526004016105519061139e565b60405180910390fd5b426002541061059e576040517f08c379a000000000000000000000000000000000000000000000000000000000815260040161059590611406565b60405180910390fd5b8060018190555050565b336105b1610fbc565b6005819055506105bf610d44565b6003819055505f73ffffffffffffffffffffffffffffffffffffffff168173ffffffffffffffffffffffffffffffffffffffff161461068757610601816103b1565b60075f8373ffffffffffffffffffffffffffffffffffffffff1673ffffffffffffffffffffffffffffffffffffffff1681526020019081526020015f208190555060055460065f8373ffffffffffffffffffffffffffffffffffffffff1673ffffffffffffffffffffffffffffffffffffffff1681526020019081526020015f20819055505b5f82116106c9576040517f08c379a00000000000000000000000000000000000000000000000000000000081526004016106c09061146e565b60405180910390fd5b8160095f3373ffffffffffffffffffffffffffffffffffffffff1673ffffffffffffffffffffffffffffffffffffffff1681526020019081526020015f205f8282546107159190611240565b925050819055508160085f82825461072d9190611240565b925050819055507f000000000000000000000000000000000000000000000000000000000000000073ffffffffffffffffffffffffffffffffffffffff1663a9059cbb33846040518363ffffffff1660e01b815260040161078f92919061148c565b6020604051808303815f875af11580156107ab573d5f803e3d5ffd5b505050506040513d601f19601f820116820180604052508101906107cf91906114e8565b505050565b5f8054906101000a900473ffffffffffffffffffffffffffffffffffffffff1673ffffffffffffffffffffffffffffffffffffffff163373ffffffffffffffffffffffffffffffffffffffff1614610861576040517f08c379a00000000000000000000000000000000000000000000000000000000081526004016108589061139e565b60405180910390fd5b5f61086a610fbc565b600581905550610878610d44565b6003819055505f73ffffffffffffffffffffffffffffffffffffffff168173ffffffffffffffffffffffffffffffffffffffff1614610940576108ba816103b1565b60075f8373ffffffffffffffffffffffffffffffffffffffff1673ffffffffffffffffffffffffffffffffffffffff1681526020019081526020015f208190555060055460065f8373ffffffffffffffffffffffffffffffffffffffff1673ffffffffffffffffffffffffffffffffffffffff1681526020019081526020015f20819055505b600254421115610963576001548261095891906112e1565b6004819055506109a2565b5f426002546109729190611240565b60045461097f9190611273565b905060015483826109909190611311565b61099a91906112e1565b600481905550505b5f600454116109e6576040517f08c379a00000000000000000000000000000000000000000000000000000000081526004016109dd9061155d565b60405180910390fd5b7f000000000000000000000000000000000000000000000000000000000000000073ffffffffffffffffffffffffffffffffffffffff166370a08231306040518263ffffffff1660e01b8152600401610a3f91906111fa565b602060405180830381865afa158015610a5a573d5f803e3d5ffd5b505050506040513d601f19601f82011682018060405250810190610a7e919061158f565b600154600454610a8e9190611273565b1115610acf576040517f08c379a0000000000000000000000000000000000000000000000000000000008152600401610ac690611604565b60405180910390fd5b60015442610add9190611311565b600281905550426003819055505050565b33610af7610fbc565b600581905550610b05610d44565b6003819055505f73ffffffffffffffffffffffffffffffffffffffff168173ffffffffffffffffffffffffffffffffffffffff1614610bcd57610b47816103b1565b60075f8373ffffffffffffffffffffffffffffffffffffffff1673ffffffffffffffffffffffffffffffffffffffff1681526020019081526020015f208190555060055460065f8373ffffffffffffffffffffffffffffffffffffffff1673ffffffffffffffffffffffffffffffffffffffff1681526020019081526020015f20819055505b5f60075f3373ffffffffffffffffffffffffffffffffffffffff1673ffffffffffffffffffffffffffffffffffffffff1681526020019081526020015f205490505f811115610cf5575f60075f3373ffffffffffffffffffffffffffffffffffffffff1673ffffffffffffffffffffffffffffffffffffffff1681526020019081526020015f20819055507f000000000000000000000000000000000000000000000000000000000000000073ffffffffffffffffffffffffffffffffffffffff1663a9059cbb33836040518363ffffffff1660e01b8152600401610cb392919061148c565b6020604051808303815f875af1158015610ccf573d5f803e3d5ffd5b505050506040513d601f19601f82011682018060405250810190610cf391906114e8565b505b5050565b60025481565b6009602052805f5260405f205f915090505481565b7f000000000000000000000000000000000000000000000000000000000000000081565b60035481565b60045481565b5f610d514260025461104f565b905090565b6006602052805f5260405f205f915090505481565b5f8054906101000a900473ffffffffffffffffffffffffffffffffffffffff1681565b33610d97610fbc565b600581905550610da5610d44565b6003819055505f73ffffffffffffffffffffffffffffffffffffffff168173ffffffffffffffffffffffffffffffffffffffff1614610e6d57610de7816103b1565b60075f8373ffffffffffffffffffffffffffffffffffffffff1673ffffffffffffffffffffffffffffffffffffffff1681526020019081526020015f208190555060055460065f8373ffffffffffffffffffffffffffffffffffffffff1673ffffffffffffffffffffffffffffffffffffffff1681526020019081526020015f20819055505b5f8211610eaf576040517f08c379a0000000000000000000000000000000000000000000000000000000008152600401610ea69061146e565b60405180910390fd5b7f000000000000000000000000000000000000000000000000000000000000000073ffffffffffffffffffffffffffffffffffffffff166323b872dd3330856040518463ffffffff1660e01b8152600401610f0c93929190611622565b6020604051808303815f875af1158015610f28573d5f803e3d5ffd5b505050506040513d601f19601f82011682018060405250810190610f4c91906114e8565b508160095f3373ffffffffffffffffffffffffffffffffffffffff1673ffffffffffffffffffffffffffffffffffffffff1681526020019081526020015f205f828254610f999190611311565b925050819055508160085f828254610fb19190611311565b925050819055505050565b5f8060085403610fd0576005549050611022565b600854670de0b6b3a7640000600354610fe7610d44565b610ff19190611240565b600454610ffe9190611273565b6110089190611273565b61101291906112e1565b60055461101f9190611311565b90505b90565b7f000000000000000000000000000000000000000000000000000000000000000081565b60055481565b5f8183111561105e5781611060565b825b905092915050565b5f80fd5b5f73ffffffffffffffffffffffffffffffffffffffff82169050919050565b5f6110958261106c565b9050919050565b6110a58161108b565b81146110af575f80fd5b50565b5f813590506110c08161109c565b92915050565b5f602082840312156110db576110da611068565b5b5f6110e8848285016110b2565b91505092915050565b5f819050919050565b611103816110f1565b82525050565b5f60208201905061111c5f8301846110fa565b92915050565b61112b816110f1565b8114611135575f80fd5b50565b5f8135905061114681611122565b92915050565b5f6020828403121561116157611160611068565b5b5f61116e84828501611138565b91505092915050565b5f819050919050565b5f61119a6111956111908461106c565b611177565b61106c565b9050919050565b5f6111ab82611180565b9050919050565b5f6111bc826111a1565b9050919050565b6111cc816111b2565b82525050565b5f6020820190506111e55f8301846111c3565b92915050565b6111f48161108b565b82525050565b5f60208201905061120d5f8301846111eb565b92915050565b7f4e487b71000000000000000000000000000000000000000000000000000000005f52601160045260245ffd5b5f61124a826110f1565b9150611255836110f1565b925082820390508181111561126d5761126c611213565b5b92915050565b5f61127d826110f1565b9150611288836110f1565b9250828202611296816110f1565b915082820484148315176112ad576112ac611213565b5b5092915050565b7f4e487b71000000000000000000000000000000000000000000000000000000005f52601260045260245ffd5b5f6112eb826110f1565b91506112f6836110f1565b925082611306576113056112b4565b5b828204905092915050565b5f61131b826110f1565b9150611326836110f1565b925082820190508082111561133e5761133d611213565b5b92915050565b5f82825260208201905092915050565b7f6e6f74206f776e657200000000000000000000000000000000000000000000005f82015250565b5f611388600983611344565b915061139382611354565b602082019050919050565b5f6020820190508181035f8301526113b58161137c565b9050919050565b7f726577617264206475726174696f6e206e6f742066696e6973686564000000005f82015250565b5f6113f0601c83611344565b91506113fb826113bc565b602082019050919050565b5f6020820190508181035f83015261141d816113e4565b9050919050565b7f616d6f756e74203d2030000000000000000000000000000000000000000000005f82015250565b5f611458600a83611344565b915061146382611424565b602082019050919050565b5f6020820190508181035f8301526114858161144c565b9050919050565b5f60408201905061149f5f8301856111eb565b6114ac60208301846110fa565b9392505050565b5f8115159050919050565b6114c7816114b3565b81146114d1575f80fd5b50565b5f815190506114e2816114be565b92915050565b5f602082840312156114fd576114fc611068565b5b5f61150a848285016114d4565b91505092915050565b7f7265776172642072617465203d203000000000000000000000000000000000005f82015250565b5f611547600f83611344565b915061155282611513565b602082019050919050565b5f6020820190508181035f8301526115748161153b565b9050919050565b5f8151905061158981611122565b92915050565b5f602082840312156115a4576115a3611068565b5b5f6115b18482850161157b565b91505092915050565b7f72657761726420616d6f756e74203e2062616c616e63650000000000000000005f82015250565b5f6115ee601783611344565b91506115f9826115ba565b602082019050919050565b5f6020820190508181035f83015261161b816115e2565b9050919050565b5f6060820190506116355f8301866111eb565b61164260208301856111eb565b61164f60408301846110fa565b94935050505056fea2646970667358221220dd859bcbdca2075b7ea5a6db0390ac1d24e4e23ebc29b0c71f2b9bf0d9f8fd8064736f6c63430008180033",
					"opcodes": "PUSH1 0xC0 PUSH1 0x40 MSTORE CALLVALUE DUP1 ISZERO PUSH3 0x10 JUMPI PUSH0 DUP1 REVERT JUMPDEST POP PUSH1 0x40 MLOAD PUSH3 0x185A CODESIZE SUB DUP1 PUSH3 0x185A DUP4 CODECOPY DUP2 DUP2 ADD PUSH1 0x40 MSTORE DUP2 ADD SWAP1 PUSH3 0x36 SWAP2 SWAP1 PUSH3 0x14A JUMP JUMPDEST CALLER PUSH0 DUP1 PUSH2 0x100 EXP DUP2 SLOAD DUP2 PUSH20 0xFFFFFFFFFFFFFFFFFFFFFFFFFFFFFFFFFFFFFFFF MUL NOT AND SWAP1 DUP4 PUSH20 0xFFFFFFFFFFFFFFFFFFFFFFFFFFFFFFFFFFFFFFFF AND MUL OR SWAP1 SSTORE POP DUP2 PUSH20 0xFFFFFFFFFFFFFFFFFFFFFFFFFFFFFFFFFFFFFFFF AND PUSH1 0x80 DUP2 PUSH20 0xFFFFFFFFFFFFFFFFFFFFFFFFFFFFFFFFFFFFFFFF AND DUP2 MSTORE POP POP DUP1 PUSH20 0xFFFFFFFFFFFFFFFFFFFFFFFFFFFFFFFFFFFFFFFF AND PUSH1 0xA0 DUP2 PUSH20 0xFFFFFFFFFFFFFFFFFFFFFFFFFFFFFFFFFFFFFFFF AND DUP2 MSTORE POP POP POP POP PUSH3 0x18F JUMP JUMPDEST PUSH0 DUP1 REVERT JUMPDEST PUSH0 PUSH20 0xFFFFFFFFFFFFFFFFFFFFFFFFFFFFFFFFFFFFFFFF DUP3 AND SWAP1 POP SWAP2 SWAP1 POP JUMP JUMPDEST PUSH0 PUSH3 0x114 DUP3 PUSH3 0xE9 JUMP JUMPDEST SWAP1 POP SWAP2 SWAP1 POP JUMP JUMPDEST PUSH3 0x126 DUP2 PUSH3 0x108 JUMP JUMPDEST DUP2 EQ PUSH3 0x131 JUMPI PUSH0 DUP1 REVERT JUMPDEST POP JUMP JUMPDEST PUSH0 DUP2 MLOAD SWAP1 POP PUSH3 0x144 DUP2 PUSH3 0x11B JUMP JUMPDEST SWAP3 SWAP2 POP POP JUMP JUMPDEST PUSH0 DUP1 PUSH1 0x40 DUP4 DUP6 SUB SLT ISZERO PUSH3 0x163 JUMPI PUSH3 0x162 PUSH3 0xE5 JUMP JUMPDEST JUMPDEST PUSH0 PUSH3 0x172 DUP6 DUP3 DUP7 ADD PUSH3 0x134 JUMP JUMPDEST SWAP3 POP POP PUSH1 0x20 PUSH3 0x185 DUP6 DUP3 DUP7 ADD PUSH3 0x134 JUMP JUMPDEST SWAP2 POP POP SWAP3 POP SWAP3 SWAP1 POP JUMP JUMPDEST PUSH1 0x80 MLOAD PUSH1 0xA0 MLOAD PUSH2 0x168D PUSH3 0x1CD PUSH0 CODECOPY PUSH0 DUP2 DUP2 PUSH2 0x9E8 ADD MSTORE DUP2 DUP2 PUSH2 0xC5A ADD MSTORE PUSH2 0x1027 ADD MSTORE PUSH0 DUP2 DUP2 PUSH2 0x736 ADD MSTORE DUP2 DUP2 PUSH2 0xD16 ADD MSTORE PUSH2 0xEB1 ADD MSTORE PUSH2 0x168D PUSH0 RETURN INVALID PUSH1 0x80 PUSH1 0x40 MSTORE CALLVALUE DUP1 ISZERO PUSH2 0xF JUMPI PUSH0 DUP1 REVERT JUMPDEST POP PUSH1 0x4 CALLDATASIZE LT PUSH2 0x129 JUMPI PUSH0 CALLDATALOAD PUSH1 0xE0 SHR DUP1 PUSH4 0x72F702F3 GT PUSH2 0xAB JUMPI DUP1 PUSH4 0x8DA5CB5B GT PUSH2 0x6F JUMPI DUP1 PUSH4 0x8DA5CB5B EQ PUSH2 0x31D JUMPI DUP1 PUSH4 0xA694FC3A EQ PUSH2 0x33B JUMPI DUP1 PUSH4 0xCD3DAF9D EQ PUSH2 0x357 JUMPI DUP1 PUSH4 0xD1AF0C7D EQ PUSH2 0x375 JUMPI DUP1 PUSH4 0xDF136D65 EQ PUSH2 0x393 JUMPI PUSH2 0x129 JUMP JUMPDEST DUP1 PUSH4 0x72F702F3 EQ PUSH2 0x275 JUMPI DUP1 PUSH4 0x7519AB50 EQ PUSH2 0x293 JUMPI DUP1 PUSH4 0x7B0A47EE EQ PUSH2 0x2B1 JUMPI DUP1 PUSH4 0x80FAA57D EQ PUSH2 0x2CF JUMPI DUP1 PUSH4 0x8B876347 EQ PUSH2 0x2ED JUMPI PUSH2 0x129 JUMP JUMPDEST DUP1 PUSH4 0x2E1A7D4D GT PUSH2 0xF2 JUMPI DUP1 PUSH4 0x2E1A7D4D EQ PUSH2 0x1E5 JUMPI DUP1 PUSH4 0x3C6B16AB EQ PUSH2 0x201 JUMPI DUP1 PUSH4 0x3D18B912 EQ PUSH2 0x21D JUMPI DUP1 PUSH4 0x67D3B488 EQ PUSH2 0x227 JUMPI DUP1 PUSH4 0x70A08231 EQ PUSH2 0x245 JUMPI PUSH2 0x129 JUMP JUMPDEST DUP1 PUSH3 0x8CC262 EQ PUSH2 0x12D JUMPI DUP1 PUSH4 0x700037D EQ PUSH2 0x15D JUMPI DUP1 PUSH4 0xFB5A6B4 EQ PUSH2 0x18D JUMPI DUP1 PUSH4 0x18160DDD EQ PUSH2 0x1AB JUMPI DUP1 PUSH4 0x208BAE25 EQ PUSH2 0x1C9 JUMPI JUMPDEST PUSH0 DUP1 REVERT JUMPDEST PUSH2 0x147 PUSH1 0x4 DUP1 CALLDATASIZE SUB DUP2 ADD SWAP1 PUSH2 0x142 SWAP2 SWAP1 PUSH2 0x10C6 JUMP JUMPDEST PUSH2 0x3B1 JUMP JUMPDEST PUSH1 0x40 MLOAD PUSH2 0x154 SWAP2 SWAP1 PUSH2 0x1109 JUMP JUMPDEST PUSH1 0x40 MLOAD DUP1 SWAP2 SUB SWAP1 RETURN JUMPDEST PUSH2 0x177 PUSH1 0x4 DUP1 CALLDATASIZE SUB DUP2 ADD SWAP1 PUSH2 0x172 SWAP2 SWAP1 PUSH2 0x10C6 JUMP JUMPDEST PUSH2 0x4AC JUMP JUMPDEST PUSH1 0x40 MLOAD PUSH2 0x184 SWAP2 SWAP1 PUSH2 0x1109 JUMP JUMPDEST PUSH1 0x40 MLOAD DUP1 SWAP2 SUB SWAP1 RETURN JUMPDEST PUSH2 0x195 PUSH2 0x4C1 JUMP JUMPDEST PUSH1 0x40 MLOAD PUSH2 0x1A2 SWAP2 SWAP1 PUSH2 0x1109 JUMP JUMPDEST PUSH1 0x40 MLOAD DUP1 SWAP2 SUB SWAP1 RETURN JUMPDEST PUSH2 0x1B3 PUSH2 0x4C7 JUMP JUMPDEST PUSH1 0x40 MLOAD PUSH2 0x1C0 SWAP2 SWAP1 PUSH2 0x1109 JUMP JUMPDEST PUSH1 0x40 MLOAD DUP1 SWAP2 SUB SWAP1 RETURN JUMPDEST PUSH2 0x1E3 PUSH1 0x4 DUP1 CALLDATASIZE SUB DUP2 ADD SWAP1 PUSH2 0x1DE SWAP2 SWAP1 PUSH2 0x114C JUMP JUMPDEST PUSH2 0x4CD JUMP JUMPDEST STOP JUMPDEST PUSH2 0x1FF PUSH1 0x4 DUP1 CALLDATASIZE SUB DUP2 ADD SWAP1 PUSH2 0x1FA SWAP2 SWAP1 PUSH2 0x114C JUMP JUMPDEST PUSH2 0x5A8 JUMP JUMPDEST STOP JUMPDEST PUSH2 0x21B PUSH1 0x4 DUP1 CALLDATASIZE SUB DUP2 ADD SWAP1 PUSH2 0x216 SWAP2 SWAP1 PUSH2 0x114C JUMP JUMPDEST PUSH2 0x7D4 JUMP JUMPDEST STOP JUMPDEST PUSH2 0x225 PUSH2 0xAEE JUMP JUMPDEST STOP JUMPDEST PUSH2 0x22F PUSH2 0xCF9 JUMP JUMPDEST PUSH1 0x40 MLOAD PUSH2 0x23C SWAP2 SWAP1 PUSH2 0x1109 JUMP JUMPDEST PUSH1 0x40 MLOAD DUP1 SWAP2 SUB SWAP1 RETURN JUMPDEST PUSH2 0x25F PUSH1 0x4 DUP1 CALLDATASIZE SUB DUP2 ADD SWAP1 PUSH2 0x25A SWAP2 SWAP1 PUSH2 0x10C6 JUMP JUMPDEST PUSH2 0xCFF JUMP JUMPDEST PUSH1 0x40 MLOAD PUSH2 0x26C SWAP2 SWAP1 PUSH2 0x1109 JUMP JUMPDEST PUSH1 0x40 MLOAD DUP1 SWAP2 SUB SWAP1 RETURN JUMPDEST PUSH2 0x27D PUSH2 0xD14 JUMP JUMPDEST PUSH1 0x40 MLOAD PUSH2 0x28A SWAP2 SWAP1 PUSH2 0x11D2 JUMP JUMPDEST PUSH1 0x40 MLOAD DUP1 SWAP2 SUB SWAP1 RETURN JUMPDEST PUSH2 0x29B PUSH2 0xD38 JUMP JUMPDEST PUSH1 0x40 MLOAD PUSH2 0x2A8 SWAP2 SWAP1 PUSH2 0x1109 JUMP JUMPDEST PUSH1 0x40 MLOAD DUP1 SWAP2 SUB SWAP1 RETURN JUMPDEST PUSH2 0x2B9 PUSH2 0xD3E JUMP JUMPDEST PUSH1 0x40 MLOAD PUSH2 0x2C6 SWAP2 SWAP1 PUSH2 0x1109 JUMP JUMPDEST PUSH1 0x40 MLOAD DUP1 SWAP2 SUB SWAP1 RETURN JUMPDEST PUSH2 0x2D7 PUSH2 0xD44 JUMP JUMPDEST PUSH1 0x40 MLOAD PUSH2 0x2E4 SWAP2 SWAP1 PUSH2 0x1109 JUMP JUMPDEST PUSH1 0x40 MLOAD DUP1 SWAP2 SUB SWAP1 RETURN JUMPDEST PUSH2 0x307 PUSH1 0x4 DUP1 CALLDATASIZE SUB DUP2 ADD SWAP1 PUSH2 0x302 SWAP2 SWAP1 PUSH2 0x10C6 JUMP JUMPDEST PUSH2 0xD56 JUMP JUMPDEST PUSH1 0x40 MLOAD PUSH2 0x314 SWAP2 SWAP1 PUSH2 0x1109 JUMP JUMPDEST PUSH1 0x40 MLOAD DUP1 SWAP2 SUB SWAP1 RETURN JUMPDEST PUSH2 0x325 PUSH2 0xD6B JUMP JUMPDEST PUSH1 0x40 MLOAD PUSH2 0x332 SWAP2 SWAP1 PUSH2 0x11FA JUMP JUMPDEST PUSH1 0x40 MLOAD DUP1 SWAP2 SUB SWAP1 RETURN JUMPDEST PUSH2 0x355 PUSH1 0x4 DUP1 CALLDATASIZE SUB DUP2 ADD SWAP1 PUSH2 0x350 SWAP2 SWAP1 PUSH2 0x114C JUMP JUMPDEST PUSH2 0xD8E JUMP JUMPDEST STOP JUMPDEST PUSH2 0x35F PUSH2 0xFBC JUMP JUMPDEST PUSH1 0x40 MLOAD PUSH2 0x36C SWAP2 SWAP1 PUSH2 0x1109 JUMP JUMPDEST PUSH1 0x40 MLOAD DUP1 SWAP2 SUB SWAP1 RETURN JUMPDEST PUSH2 0x37D PUSH2 0x1025 JUMP JUMPDEST PUSH1 0x40 MLOAD PUSH2 0x38A SWAP2 SWAP1 PUSH2 0x11D2 JUMP JUMPDEST PUSH1 0x40 MLOAD DUP1 SWAP2 SUB SWAP1 RETURN JUMPDEST PUSH2 0x39B PUSH2 0x1049 JUMP JUMPDEST PUSH1 0x40 MLOAD PUSH2 0x3A8 SWAP2 SWAP1 PUSH2 0x1109 JUMP JUMPDEST PUSH1 0x40 MLOAD DUP1 SWAP2 SUB SWAP1 RETURN JUMPDEST PUSH0 PUSH1 0x7 PUSH0 DUP4 PUSH20 0xFFFFFFFFFFFFFFFFFFFFFFFFFFFFFFFFFFFFFFFF AND PUSH20 0xFFFFFFFFFFFFFFFFFFFFFFFFFFFFFFFFFFFFFFFF AND DUP2 MSTORE PUSH1 0x20 ADD SWAP1 DUP2 MSTORE PUSH1 0x20 ADD PUSH0 KECCAK256 SLOAD PUSH8 0xDE0B6B3A7640000 PUSH1 0x6 PUSH0 DUP6 PUSH20 0xFFFFFFFFFFFFFFFFFFFFFFFFFFFFFFFFFFFFFFFF AND PUSH20 0xFFFFFFFFFFFFFFFFFFFFFFFFFFFFFFFFFFFFFFFF AND DUP2 MSTORE PUSH1 0x20 ADD SWAP1 DUP2 MSTORE PUSH1 0x20 ADD PUSH0 KECCAK256 SLOAD PUSH2 0x43F PUSH2 0xFBC JUMP JUMPDEST PUSH2 0x449 SWAP2 SWAP1 PUSH2 0x1240 JUMP JUMPDEST PUSH1 0x9 PUSH0 DUP7 PUSH20 0xFFFFFFFFFFFFFFFFFFFFFFFFFFFFFFFFFFFFFFFF AND PUSH20 0xFFFFFFFFFFFFFFFFFFFFFFFFFFFFFFFFFFFFFFFF AND DUP2 MSTORE PUSH1 0x20 ADD SWAP1 DUP2 MSTORE PUSH1 0x20 ADD PUSH0 KECCAK256 SLOAD PUSH2 0x491 SWAP2 SWAP1 PUSH2 0x1273 JUMP JUMPDEST PUSH2 0x49B SWAP2 SWAP1 PUSH2 0x12E1 JUMP JUMPDEST PUSH2 0x4A5 SWAP2 SWAP1 PUSH2 0x1311 JUMP JUMPDEST SWAP1 POP SWAP2 SWAP1 POP JUMP JUMPDEST PUSH1 0x7 PUSH1 0x20 MSTORE DUP1 PUSH0 MSTORE PUSH1 0x40 PUSH0 KECCAK256 PUSH0 SWAP2 POP SWAP1 POP SLOAD DUP2 JUMP JUMPDEST PUSH1 0x1 SLOAD DUP2 JUMP JUMPDEST PUSH1 0x8 SLOAD DUP2 JUMP JUMPDEST PUSH0 DUP1 SLOAD SWAP1 PUSH2 0x100 EXP SWAP1 DIV PUSH20 0xFFFFFFFFFFFFFFFFFFFFFFFFFFFFFFFFFFFFFFFF AND PUSH20 0xFFFFFFFFFFFFFFFFFFFFFFFFFFFFFFFFFFFFFFFF AND CALLER PUSH20 0xFFFFFFFFFFFFFFFFFFFFFFFFFFFFFFFFFFFFFFFF AND EQ PUSH2 0x55A JUMPI PUSH1 0x40 MLOAD PUSH32 0x8C379A000000000000000000000000000000000000000000000000000000000 DUP2 MSTORE PUSH1 0x4 ADD PUSH2 0x551 SWAP1 PUSH2 0x139E JUMP JUMPDEST PUSH1 0x40 MLOAD DUP1 SWAP2 SUB SWAP1 REVERT JUMPDEST TIMESTAMP PUSH1 0x2 SLOAD LT PUSH2 0x59E JUMPI PUSH1 0x40 MLOAD PUSH32 0x8C379A000000000000000000000000000000000000000000000000000000000 DUP2 MSTORE PUSH1 0x4 ADD PUSH2 0x595 SWAP1 PUSH2 0x1406 JUMP JUMPDEST PUSH1 0x40 MLOAD DUP1 SWAP2 SUB SWAP1 REVERT JUMPDEST DUP1 PUSH1 0x1 DUP2 SWAP1 SSTORE POP POP JUMP JUMPDEST CALLER PUSH2 0x5B1 PUSH2 0xFBC JUMP JUMPDEST PUSH1 0x5 DUP2 SWAP1 SSTORE POP PUSH2 0x5BF PUSH2 0xD44 JUMP JUMPDEST PUSH1 0x3 DUP2 SWAP1 SSTORE POP PUSH0 PUSH20 0xFFFFFFFFFFFFFFFFFFFFFFFFFFFFFFFFFFFFFFFF AND DUP2 PUSH20 0xFFFFFFFFFFFFFFFFFFFFFFFFFFFFFFFFFFFFFFFF AND EQ PUSH2 0x687 JUMPI PUSH2 0x601 DUP2 PUSH2 0x3B1 JUMP JUMPDEST PUSH1 0x7 PUSH0 DUP4 PUSH20 0xFFFFFFFFFFFFFFFFFFFFFFFFFFFFFFFFFFFFFFFF AND PUSH20 0xFFFFFFFFFFFFFFFFFFFFFFFFFFFFFFFFFFFFFFFF AND DUP2 MSTORE PUSH1 0x20 ADD SWAP1 DUP2 MSTORE PUSH1 0x20 ADD PUSH0 KECCAK256 DUP2 SWAP1 SSTORE POP PUSH1 0x5 SLOAD PUSH1 0x6 PUSH0 DUP4 PUSH20 0xFFFFFFFFFFFFFFFFFFFFFFFFFFFFFFFFFFFFFFFF AND PUSH20 0xFFFFFFFFFFFFFFFFFFFFFFFFFFFFFFFFFFFFFFFF AND DUP2 MSTORE PUSH1 0x20 ADD SWAP1 DUP2 MSTORE PUSH1 0x20 ADD PUSH0 KECCAK256 DUP2 SWAP1 SSTORE POP JUMPDEST PUSH0 DUP3 GT PUSH2 0x6C9 JUMPI PUSH1 0x40 MLOAD PUSH32 0x8C379A000000000000000000000000000000000000000000000000000000000 DUP2 MSTORE PUSH1 0x4 ADD PUSH2 0x6C0 SWAP1 PUSH2 0x146E JUMP JUMPDEST PUSH1 0x40 MLOAD DUP1 SWAP2 SUB SWAP1 REVERT JUMPDEST DUP2 PUSH1 0x9 PUSH0 CALLER PUSH20 0xFFFFFFFFFFFFFFFFFFFFFFFFFFFFFFFFFFFFFFFF AND PUSH20 0xFFFFFFFFFFFFFFFFFFFFFFFFFFFFFFFFFFFFFFFF AND DUP2 MSTORE PUSH1 0x20 ADD SWAP1 DUP2 MSTORE PUSH1 0x20 ADD PUSH0 KECCAK256 PUSH0 DUP3 DUP3 SLOAD PUSH2 0x715 SWAP2 SWAP1 PUSH2 0x1240 JUMP JUMPDEST SWAP3 POP POP DUP2 SWAP1 SSTORE POP DUP2 PUSH1 0x8 PUSH0 DUP3 DUP3 SLOAD PUSH2 0x72D SWAP2 SWAP1 PUSH2 0x1240 JUMP JUMPDEST SWAP3 POP POP DUP2 SWAP1 SSTORE POP PUSH32 0x0 PUSH20 0xFFFFFFFFFFFFFFFFFFFFFFFFFFFFFFFFFFFFFFFF AND PUSH4 0xA9059CBB CALLER DUP5 PUSH1 0x40 MLOAD DUP4 PUSH4 0xFFFFFFFF AND PUSH1 0xE0 SHL DUP2 MSTORE PUSH1 0x4 ADD PUSH2 0x78F SWAP3 SWAP2 SWAP1 PUSH2 0x148C JUMP JUMPDEST PUSH1 0x20 PUSH1 0x40 MLOAD DUP1 DUP4 SUB DUP2 PUSH0 DUP8 GAS CALL ISZERO DUP1 ISZERO PUSH2 0x7AB JUMPI RETURNDATASIZE PUSH0 DUP1 RETURNDATACOPY RETURNDATASIZE PUSH0 REVERT JUMPDEST POP POP POP POP PUSH1 0x40 MLOAD RETURNDATASIZE PUSH1 0x1F NOT PUSH1 0x1F DUP3 ADD AND DUP3 ADD DUP1 PUSH1 0x40 MSTORE POP DUP2 ADD SWAP1 PUSH2 0x7CF SWAP2 SWAP1 PUSH2 0x14E8 JUMP JUMPDEST POP POP POP JUMP JUMPDEST PUSH0 DUP1 SLOAD SWAP1 PUSH2 0x100 EXP SWAP1 DIV PUSH20 0xFFFFFFFFFFFFFFFFFFFFFFFFFFFFFFFFFFFFFFFF AND PUSH20 0xFFFFFFFFFFFFFFFFFFFFFFFFFFFFFFFFFFFFFFFF AND CALLER PUSH20 0xFFFFFFFFFFFFFFFFFFFFFFFFFFFFFFFFFFFFFFFF AND EQ PUSH2 0x861 JUMPI PUSH1 0x40 MLOAD PUSH32 0x8C379A000000000000000000000000000000000000000000000000000000000 DUP2 MSTORE PUSH1 0x4 ADD PUSH2 0x858 SWAP1 PUSH2 0x139E JUMP JUMPDEST PUSH1 0x40 MLOAD DUP1 SWAP2 SUB SWAP1 REVERT JUMPDEST PUSH0 PUSH2 0x86A PUSH2 0xFBC JUMP JUMPDEST PUSH1 0x5 DUP2 SWAP1 SSTORE POP PUSH2 0x878 PUSH2 0xD44 JUMP JUMPDEST PUSH1 0x3 DUP2 SWAP1 SSTORE POP PUSH0 PUSH20 0xFFFFFFFFFFFFFFFFFFFFFFFFFFFFFFFFFFFFFFFF AND DUP2 PUSH20 0xFFFFFFFFFFFFFFFFFFFFFFFFFFFFFFFFFFFFFFFF AND EQ PUSH2 0x940 JUMPI PUSH2 0x8BA DUP2 PUSH2 0x3B1 JUMP JUMPDEST PUSH1 0x7 PUSH0 DUP4 PUSH20 0xFFFFFFFFFFFFFFFFFFFFFFFFFFFFFFFFFFFFFFFF AND PUSH20 0xFFFFFFFFFFFFFFFFFFFFFFFFFFFFFFFFFFFFFFFF AND DUP2 MSTORE PUSH1 0x20 ADD SWAP1 DUP2 MSTORE PUSH1 0x20 ADD PUSH0 KECCAK256 DUP2 SWAP1 SSTORE POP PUSH1 0x5 SLOAD PUSH1 0x6 PUSH0 DUP4 PUSH20 0xFFFFFFFFFFFFFFFFFFFFFFFFFFFFFFFFFFFFFFFF AND PUSH20 0xFFFFFFFFFFFFFFFFFFFFFFFFFFFFFFFFFFFFFFFF AND DUP2 MSTORE PUSH1 0x20 ADD SWAP1 DUP2 MSTORE PUSH1 0x20 ADD PUSH0 KECCAK256 DUP2 SWAP1 SSTORE POP JUMPDEST PUSH1 0x2 SLOAD TIMESTAMP GT ISZERO PUSH2 0x963 JUMPI PUSH1 0x1 SLOAD DUP3 PUSH2 0x958 SWAP2 SWAP1 PUSH2 0x12E1 JUMP JUMPDEST PUSH1 0x4 DUP2 SWAP1 SSTORE POP PUSH2 0x9A2 JUMP JUMPDEST PUSH0 TIMESTAMP PUSH1 0x2 SLOAD PUSH2 0x972 SWAP2 SWAP1 PUSH2 0x1240 JUMP JUMPDEST PUSH1 0x4 SLOAD PUSH2 0x97F SWAP2 SWAP1 PUSH2 0x1273 JUMP JUMPDEST SWAP1 POP PUSH1 0x1 SLOAD DUP4 DUP3 PUSH2 0x990 SWAP2 SWAP1 PUSH2 0x1311 JUMP JUMPDEST PUSH2 0x99A SWAP2 SWAP1 PUSH2 0x12E1 JUMP JUMPDEST PUSH1 0x4 DUP2 SWAP1 SSTORE POP POP JUMPDEST PUSH0 PUSH1 0x4 SLOAD GT PUSH2 0x9E6 JUMPI PUSH1 0x40 MLOAD PUSH32 0x8C379A000000000000000000000000000000000000000000000000000000000 DUP2 MSTORE PUSH1 0x4 ADD PUSH2 0x9DD SWAP1 PUSH2 0x155D JUMP JUMPDEST PUSH1 0x40 MLOAD DUP1 SWAP2 SUB SWAP1 REVERT JUMPDEST PUSH32 0x0 PUSH20 0xFFFFFFFFFFFFFFFFFFFFFFFFFFFFFFFFFFFFFFFF AND PUSH4 0x70A08231 ADDRESS PUSH1 0x40 MLOAD DUP3 PUSH4 0xFFFFFFFF AND PUSH1 0xE0 SHL DUP2 MSTORE PUSH1 0x4 ADD PUSH2 0xA3F SWAP2 SWAP1 PUSH2 0x11FA JUMP JUMPDEST PUSH1 0x20 PUSH1 0x40 MLOAD DUP1 DUP4 SUB DUP2 DUP7 GAS STATICCALL ISZERO DUP1 ISZERO PUSH2 0xA5A JUMPI RETURNDATASIZE PUSH0 DUP1 RETURNDATACOPY RETURNDATASIZE PUSH0 REVERT JUMPDEST POP POP POP POP PUSH1 0x40 MLOAD RETURNDATASIZE PUSH1 0x1F NOT PUSH1 0x1F DUP3 ADD AND DUP3 ADD DUP1 PUSH1 0x40 MSTORE POP DUP2 ADD SWAP1 PUSH2 0xA7E SWAP2 SWAP1 PUSH2 0x158F JUMP JUMPDEST PUSH1 0x1 SLOAD PUSH1 0x4 SLOAD PUSH2 0xA8E SWAP2 SWAP1 PUSH2 0x1273 JUMP JUMPDEST GT ISZERO PUSH2 0xACF JUMPI PUSH1 0x40 MLOAD PUSH32 0x8C379A000000000000000000000000000000000000000000000000000000000 DUP2 MSTORE PUSH1 0x4 ADD PUSH2 0xAC6 SWAP1 PUSH2 0x1604 JUMP JUMPDEST PUSH1 0x40 MLOAD DUP1 SWAP2 SUB SWAP1 REVERT JUMPDEST PUSH1 0x1 SLOAD TIMESTAMP PUSH2 0xADD SWAP2 SWAP1 PUSH2 0x1311 JUMP JUMPDEST PUSH1 0x2 DUP2 SWAP1 SSTORE POP TIMESTAMP PUSH1 0x3 DUP2 SWAP1 SSTORE POP POP POP JUMP JUMPDEST CALLER PUSH2 0xAF7 PUSH2 0xFBC JUMP JUMPDEST PUSH1 0x5 DUP2 SWAP1 SSTORE POP PUSH2 0xB05 PUSH2 0xD44 JUMP JUMPDEST PUSH1 0x3 DUP2 SWAP1 SSTORE POP PUSH0 PUSH20 0xFFFFFFFFFFFFFFFFFFFFFFFFFFFFFFFFFFFFFFFF AND DUP2 PUSH20 0xFFFFFFFFFFFFFFFFFFFFFFFFFFFFFFFFFFFFFFFF AND EQ PUSH2 0xBCD JUMPI PUSH2 0xB47 DUP2 PUSH2 0x3B1 JUMP JUMPDEST PUSH1 0x7 PUSH0 DUP4 PUSH20 0xFFFFFFFFFFFFFFFFFFFFFFFFFFFFFFFFFFFFFFFF AND PUSH20 0xFFFFFFFFFFFFFFFFFFFFFFFFFFFFFFFFFFFFFFFF AND DUP2 MSTORE PUSH1 0x20 ADD SWAP1 DUP2 MSTORE PUSH1 0x20 ADD PUSH0 KECCAK256 DUP2 SWAP1 SSTORE POP PUSH1 0x5 SLOAD PUSH1 0x6 PUSH0 DUP4 PUSH20 0xFFFFFFFFFFFFFFFFFFFFFFFFFFFFFFFFFFFFFFFF AND PUSH20 0xFFFFFFFFFFFFFFFFFFFFFFFFFFFFFFFFFFFFFFFF AND DUP2 MSTORE PUSH1 0x20 ADD SWAP1 DUP2 MSTORE PUSH1 0x20 ADD PUSH0 KECCAK256 DUP2 SWAP1 SSTORE POP JUMPDEST PUSH0 PUSH1 0x7 PUSH0 CALLER PUSH20 0xFFFFFFFFFFFFFFFFFFFFFFFFFFFFFFFFFFFFFFFF AND PUSH20 0xFFFFFFFFFFFFFFFFFFFFFFFFFFFFFFFFFFFFFFFF AND DUP2 MSTORE PUSH1 0x20 ADD SWAP1 DUP2 MSTORE PUSH1 0x20 ADD PUSH0 KECCAK256 SLOAD SWAP1 POP PUSH0 DUP2 GT ISZERO PUSH2 0xCF5 JUMPI PUSH0 PUSH1 0x7 PUSH0 CALLER PUSH20 0xFFFFFFFFFFFFFFFFFFFFFFFFFFFFFFFFFFFFFFFF AND PUSH20 0xFFFFFFFFFFFFFFFFFFFFFFFFFFFFFFFFFFFFFFFF AND DUP2 MSTORE PUSH1 0x20 ADD SWAP1 DUP2 MSTORE PUSH1 0x20 ADD PUSH0 KECCAK256 DUP2 SWAP1 SSTORE POP PUSH32 0x0 PUSH20 0xFFFFFFFFFFFFFFFFFFFFFFFFFFFFFFFFFFFFFFFF AND PUSH4 0xA9059CBB CALLER DUP4 PUSH1 0x40 MLOAD DUP4 PUSH4 0xFFFFFFFF AND PUSH1 0xE0 SHL DUP2 MSTORE PUSH1 0x4 ADD PUSH2 0xCB3 SWAP3 SWAP2 SWAP1 PUSH2 0x148C JUMP JUMPDEST PUSH1 0x20 PUSH1 0x40 MLOAD DUP1 DUP4 SUB DUP2 PUSH0 DUP8 GAS CALL ISZERO DUP1 ISZERO PUSH2 0xCCF JUMPI RETURNDATASIZE PUSH0 DUP1 RETURNDATACOPY RETURNDATASIZE PUSH0 REVERT JUMPDEST POP POP POP POP PUSH1 0x40 MLOAD RETURNDATASIZE PUSH1 0x1F NOT PUSH1 0x1F DUP3 ADD AND DUP3 ADD DUP1 PUSH1 0x40 MSTORE POP DUP2 ADD SWAP1 PUSH2 0xCF3 SWAP2 SWAP1 PUSH2 0x14E8 JUMP JUMPDEST POP JUMPDEST POP POP JUMP JUMPDEST PUSH1 0x2 SLOAD DUP2 JUMP JUMPDEST PUSH1 0x9 PUSH1 0x20 MSTORE DUP1 PUSH0 MSTORE PUSH1 0x40 PUSH0 KECCAK256 PUSH0 SWAP2 POP SWAP1 POP SLOAD DUP2 JUMP JUMPDEST PUSH32 0x0 DUP2 JUMP JUMPDEST PUSH1 0x3 SLOAD DUP2 JUMP JUMPDEST PUSH1 0x4 SLOAD DUP2 JUMP JUMPDEST PUSH0 PUSH2 0xD51 TIMESTAMP PUSH1 0x2 SLOAD PUSH2 0x104F JUMP JUMPDEST SWAP1 POP SWAP1 JUMP JUMPDEST PUSH1 0x6 PUSH1 0x20 MSTORE DUP1 PUSH0 MSTORE PUSH1 0x40 PUSH0 KECCAK256 PUSH0 SWAP2 POP SWAP1 POP SLOAD DUP2 JUMP JUMPDEST PUSH0 DUP1 SLOAD SWAP1 PUSH2 0x100 EXP SWAP1 DIV PUSH20 0xFFFFFFFFFFFFFFFFFFFFFFFFFFFFFFFFFFFFFFFF AND DUP2 JUMP JUMPDEST CALLER PUSH2 0xD97 PUSH2 0xFBC JUMP JUMPDEST PUSH1 0x5 DUP2 SWAP1 SSTORE POP PUSH2 0xDA5 PUSH2 0xD44 JUMP JUMPDEST PUSH1 0x3 DUP2 SWAP1 SSTORE POP PUSH0 PUSH20 0xFFFFFFFFFFFFFFFFFFFFFFFFFFFFFFFFFFFFFFFF AND DUP2 PUSH20 0xFFFFFFFFFFFFFFFFFFFFFFFFFFFFFFFFFFFFFFFF AND EQ PUSH2 0xE6D JUMPI PUSH2 0xDE7 DUP2 PUSH2 0x3B1 JUMP JUMPDEST PUSH1 0x7 PUSH0 DUP4 PUSH20 0xFFFFFFFFFFFFFFFFFFFFFFFFFFFFFFFFFFFFFFFF AND PUSH20 0xFFFFFFFFFFFFFFFFFFFFFFFFFFFFFFFFFFFFFFFF AND DUP2 MSTORE PUSH1 0x20 ADD SWAP1 DUP2 MSTORE PUSH1 0x20 ADD PUSH0 KECCAK256 DUP2 SWAP1 SSTORE POP PUSH1 0x5 SLOAD PUSH1 0x6 PUSH0 DUP4 PUSH20 0xFFFFFFFFFFFFFFFFFFFFFFFFFFFFFFFFFFFFFFFF AND PUSH20 0xFFFFFFFFFFFFFFFFFFFFFFFFFFFFFFFFFFFFFFFF AND DUP2 MSTORE PUSH1 0x20 ADD SWAP1 DUP2 MSTORE PUSH1 0x20 ADD PUSH0 KECCAK256 DUP2 SWAP1 SSTORE POP JUMPDEST PUSH0 DUP3 GT PUSH2 0xEAF JUMPI PUSH1 0x40 MLOAD PUSH32 0x8C379A000000000000000000000000000000000000000000000000000000000 DUP2 MSTORE PUSH1 0x4 ADD PUSH2 0xEA6 SWAP1 PUSH2 0x146E JUMP JUMPDEST PUSH1 0x40 MLOAD DUP1 SWAP2 SUB SWAP1 REVERT JUMPDEST PUSH32 0x0 PUSH20 0xFFFFFFFFFFFFFFFFFFFFFFFFFFFFFFFFFFFFFFFF AND PUSH4 0x23B872DD CALLER ADDRESS DUP6 PUSH1 0x40 MLOAD DUP5 PUSH4 0xFFFFFFFF AND PUSH1 0xE0 SHL DUP2 MSTORE PUSH1 0x4 ADD PUSH2 0xF0C SWAP4 SWAP3 SWAP2 SWAP1 PUSH2 0x1622 JUMP JUMPDEST PUSH1 0x20 PUSH1 0x40 MLOAD DUP1 DUP4 SUB DUP2 PUSH0 DUP8 GAS CALL ISZERO DUP1 ISZERO PUSH2 0xF28 JUMPI RETURNDATASIZE PUSH0 DUP1 RETURNDATACOPY RETURNDATASIZE PUSH0 REVERT JUMPDEST POP POP POP POP PUSH1 0x40 MLOAD RETURNDATASIZE PUSH1 0x1F NOT PUSH1 0x1F DUP3 ADD AND DUP3 ADD DUP1 PUSH1 0x40 MSTORE POP DUP2 ADD SWAP1 PUSH2 0xF4C SWAP2 SWAP1 PUSH2 0x14E8 JUMP JUMPDEST POP DUP2 PUSH1 0x9 PUSH0 CALLER PUSH20 0xFFFFFFFFFFFFFFFFFFFFFFFFFFFFFFFFFFFFFFFF AND PUSH20 0xFFFFFFFFFFFFFFFFFFFFFFFFFFFFFFFFFFFFFFFF AND DUP2 MSTORE PUSH1 0x20 ADD SWAP1 DUP2 MSTORE PUSH1 0x20 ADD PUSH0 KECCAK256 PUSH0 DUP3 DUP3 SLOAD PUSH2 0xF99 SWAP2 SWAP1 PUSH2 0x1311 JUMP JUMPDEST SWAP3 POP POP DUP2 SWAP1 SSTORE POP DUP2 PUSH1 0x8 PUSH0 DUP3 DUP3 SLOAD PUSH2 0xFB1 SWAP2 SWAP1 PUSH2 0x1311 JUMP JUMPDEST SWAP3 POP POP DUP2 SWAP1 SSTORE POP POP POP JUMP JUMPDEST PUSH0 DUP1 PUSH1 0x8 SLOAD SUB PUSH2 0xFD0 JUMPI PUSH1 0x5 SLOAD SWAP1 POP PUSH2 0x1022 JUMP JUMPDEST PUSH1 0x8 SLOAD PUSH8 0xDE0B6B3A7640000 PUSH1 0x3 SLOAD PUSH2 0xFE7 PUSH2 0xD44 JUMP JUMPDEST PUSH2 0xFF1 SWAP2 SWAP1 PUSH2 0x1240 JUMP JUMPDEST PUSH1 0x4 SLOAD PUSH2 0xFFE SWAP2 SWAP1 PUSH2 0x1273 JUMP JUMPDEST PUSH2 0x1008 SWAP2 SWAP1 PUSH2 0x1273 JUMP JUMPDEST PUSH2 0x1012 SWAP2 SWAP1 PUSH2 0x12E1 JUMP JUMPDEST PUSH1 0x5 SLOAD PUSH2 0x101F SWAP2 SWAP1 PUSH2 0x1311 JUMP JUMPDEST SWAP1 POP JUMPDEST SWAP1 JUMP JUMPDEST PUSH32 0x0 DUP2 JUMP JUMPDEST PUSH1 0x5 SLOAD DUP2 JUMP JUMPDEST PUSH0 DUP2 DUP4 GT ISZERO PUSH2 0x105E JUMPI DUP2 PUSH2 0x1060 JUMP JUMPDEST DUP3 JUMPDEST SWAP1 POP SWAP3 SWAP2 POP POP JUMP JUMPDEST PUSH0 DUP1 REVERT JUMPDEST PUSH0 PUSH20 0xFFFFFFFFFFFFFFFFFFFFFFFFFFFFFFFFFFFFFFFF DUP3 AND SWAP1 POP SWAP2 SWAP1 POP JUMP JUMPDEST PUSH0 PUSH2 0x1095 DUP3 PUSH2 0x106C JUMP JUMPDEST SWAP1 POP SWAP2 SWAP1 POP JUMP JUMPDEST PUSH2 0x10A5 DUP2 PUSH2 0x108B JUMP JUMPDEST DUP2 EQ PUSH2 0x10AF JUMPI PUSH0 DUP1 REVERT JUMPDEST POP JUMP JUMPDEST PUSH0 DUP2 CALLDATALOAD SWAP1 POP PUSH2 0x10C0 DUP2 PUSH2 0x109C JUMP JUMPDEST SWAP3 SWAP2 POP POP JUMP JUMPDEST PUSH0 PUSH1 0x20 DUP3 DUP5 SUB SLT ISZERO PUSH2 0x10DB JUMPI PUSH2 0x10DA PUSH2 0x1068 JUMP JUMPDEST JUMPDEST PUSH0 PUSH2 0x10E8 DUP5 DUP3 DUP6 ADD PUSH2 0x10B2 JUMP JUMPDEST SWAP2 POP POP SWAP3 SWAP2 POP POP JUMP JUMPDEST PUSH0 DUP2 SWAP1 POP SWAP2 SWAP1 POP JUMP JUMPDEST PUSH2 0x1103 DUP2 PUSH2 0x10F1 JUMP JUMPDEST DUP3 MSTORE POP POP JUMP JUMPDEST PUSH0 PUSH1 0x20 DUP3 ADD SWAP1 POP PUSH2 0x111C PUSH0 DUP4 ADD DUP5 PUSH2 0x10FA JUMP JUMPDEST SWAP3 SWAP2 POP POP JUMP JUMPDEST PUSH2 0x112B DUP2 PUSH2 0x10F1 JUMP JUMPDEST DUP2 EQ PUSH2 0x1135 JUMPI PUSH0 DUP1 REVERT JUMPDEST POP JUMP JUMPDEST PUSH0 DUP2 CALLDATALOAD SWAP1 POP PUSH2 0x1146 DUP2 PUSH2 0x1122 JUMP JUMPDEST SWAP3 SWAP2 POP POP JUMP JUMPDEST PUSH0 PUSH1 0x20 DUP3 DUP5 SUB SLT ISZERO PUSH2 0x1161 JUMPI PUSH2 0x1160 PUSH2 0x1068 JUMP JUMPDEST JUMPDEST PUSH0 PUSH2 0x116E DUP5 DUP3 DUP6 ADD PUSH2 0x1138 JUMP JUMPDEST SWAP2 POP POP SWAP3 SWAP2 POP POP JUMP JUMPDEST PUSH0 DUP2 SWAP1 POP SWAP2 SWAP1 POP JUMP JUMPDEST PUSH0 PUSH2 0x119A PUSH2 0x1195 PUSH2 0x1190 DUP5 PUSH2 0x106C JUMP JUMPDEST PUSH2 0x1177 JUMP JUMPDEST PUSH2 0x106C JUMP JUMPDEST SWAP1 POP SWAP2 SWAP1 POP JUMP JUMPDEST PUSH0 PUSH2 0x11AB DUP3 PUSH2 0x1180 JUMP JUMPDEST SWAP1 POP SWAP2 SWAP1 POP JUMP JUMPDEST PUSH0 PUSH2 0x11BC DUP3 PUSH2 0x11A1 JUMP JUMPDEST SWAP1 POP SWAP2 SWAP1 POP JUMP JUMPDEST PUSH2 0x11CC DUP2 PUSH2 0x11B2 JUMP JUMPDEST DUP3 MSTORE POP POP JUMP JUMPDEST PUSH0 PUSH1 0x20 DUP3 ADD SWAP1 POP PUSH2 0x11E5 PUSH0 DUP4 ADD DUP5 PUSH2 0x11C3 JUMP JUMPDEST SWAP3 SWAP2 POP POP JUMP JUMPDEST PUSH2 0x11F4 DUP2 PUSH2 0x108B JUMP JUMPDEST DUP3 MSTORE POP POP JUMP JUMPDEST PUSH0 PUSH1 0x20 DUP3 ADD SWAP1 POP PUSH2 0x120D PUSH0 DUP4 ADD DUP5 PUSH2 0x11EB JUMP JUMPDEST SWAP3 SWAP2 POP POP JUMP JUMPDEST PUSH32 0x4E487B7100000000000000000000000000000000000000000000000000000000 PUSH0 MSTORE PUSH1 0x11 PUSH1 0x4 MSTORE PUSH1 0x24 PUSH0 REVERT JUMPDEST PUSH0 PUSH2 0x124A DUP3 PUSH2 0x10F1 JUMP JUMPDEST SWAP2 POP PUSH2 0x1255 DUP4 PUSH2 0x10F1 JUMP JUMPDEST SWAP3 POP DUP3 DUP3 SUB SWAP1 POP DUP2 DUP2 GT ISZERO PUSH2 0x126D JUMPI PUSH2 0x126C PUSH2 0x1213 JUMP JUMPDEST JUMPDEST SWAP3 SWAP2 POP POP JUMP JUMPDEST PUSH0 PUSH2 0x127D DUP3 PUSH2 0x10F1 JUMP JUMPDEST SWAP2 POP PUSH2 0x1288 DUP4 PUSH2 0x10F1 JUMP JUMPDEST SWAP3 POP DUP3 DUP3 MUL PUSH2 0x1296 DUP2 PUSH2 0x10F1 JUMP JUMPDEST SWAP2 POP DUP3 DUP3 DIV DUP5 EQ DUP4 ISZERO OR PUSH2 0x12AD JUMPI PUSH2 0x12AC PUSH2 0x1213 JUMP JUMPDEST JUMPDEST POP SWAP3 SWAP2 POP POP JUMP JUMPDEST PUSH32 0x4E487B7100000000000000000000000000000000000000000000000000000000 PUSH0 MSTORE PUSH1 0x12 PUSH1 0x4 MSTORE PUSH1 0x24 PUSH0 REVERT JUMPDEST PUSH0 PUSH2 0x12EB DUP3 PUSH2 0x10F1 JUMP JUMPDEST SWAP2 POP PUSH2 0x12F6 DUP4 PUSH2 0x10F1 JUMP JUMPDEST SWAP3 POP DUP3 PUSH2 0x1306 JUMPI PUSH2 0x1305 PUSH2 0x12B4 JUMP JUMPDEST JUMPDEST DUP3 DUP3 DIV SWAP1 POP SWAP3 SWAP2 POP POP JUMP JUMPDEST PUSH0 PUSH2 0x131B DUP3 PUSH2 0x10F1 JUMP JUMPDEST SWAP2 POP PUSH2 0x1326 DUP4 PUSH2 0x10F1 JUMP JUMPDEST SWAP3 POP DUP3 DUP3 ADD SWAP1 POP DUP1 DUP3 GT ISZERO PUSH2 0x133E JUMPI PUSH2 0x133D PUSH2 0x1213 JUMP JUMPDEST JUMPDEST SWAP3 SWAP2 POP POP JUMP JUMPDEST PUSH0 DUP3 DUP3 MSTORE PUSH1 0x20 DUP3 ADD SWAP1 POP SWAP3 SWAP2 POP POP JUMP JUMPDEST PUSH32 0x6E6F74206F776E65720000000000000000000000000000000000000000000000 PUSH0 DUP3 ADD MSTORE POP JUMP JUMPDEST PUSH0 PUSH2 0x1388 PUSH1 0x9 DUP4 PUSH2 0x1344 JUMP JUMPDEST SWAP2 POP PUSH2 0x1393 DUP3 PUSH2 0x1354 JUMP JUMPDEST PUSH1 0x20 DUP3 ADD SWAP1 POP SWAP2 SWAP1 POP JUMP JUMPDEST PUSH0 PUSH1 0x20 DUP3 ADD SWAP1 POP DUP2 DUP2 SUB PUSH0 DUP4 ADD MSTORE PUSH2 0x13B5 DUP2 PUSH2 0x137C JUMP JUMPDEST SWAP1 POP SWAP2 SWAP1 POP JUMP JUMPDEST PUSH32 0x726577617264206475726174696F6E206E6F742066696E697368656400000000 PUSH0 DUP3 ADD MSTORE POP JUMP JUMPDEST PUSH0 PUSH2 0x13F0 PUSH1 0x1C DUP4 PUSH2 0x1344 JUMP JUMPDEST SWAP2 POP PUSH2 0x13FB DUP3 PUSH2 0x13BC JUMP JUMPDEST PUSH1 0x20 DUP3 ADD SWAP1 POP SWAP2 SWAP1 POP JUMP JUMPDEST PUSH0 PUSH1 0x20 DUP3 ADD SWAP1 POP DUP2 DUP2 SUB PUSH0 DUP4 ADD MSTORE PUSH2 0x141D DUP2 PUSH2 0x13E4 JUMP JUMPDEST SWAP1 POP SWAP2 SWAP1 POP JUMP JUMPDEST PUSH32 0x616D6F756E74203D203000000000000000000000000000000000000000000000 PUSH0 DUP3 ADD MSTORE POP JUMP JUMPDEST PUSH0 PUSH2 0x1458 PUSH1 0xA DUP4 PUSH2 0x1344 JUMP JUMPDEST SWAP2 POP PUSH2 0x1463 DUP3 PUSH2 0x1424 JUMP JUMPDEST PUSH1 0x20 DUP3 ADD SWAP1 POP SWAP2 SWAP1 POP JUMP JUMPDEST PUSH0 PUSH1 0x20 DUP3 ADD SWAP1 POP DUP2 DUP2 SUB PUSH0 DUP4 ADD MSTORE PUSH2 0x1485 DUP2 PUSH2 0x144C JUMP JUMPDEST SWAP1 POP SWAP2 SWAP1 POP JUMP JUMPDEST PUSH0 PUSH1 0x40 DUP3 ADD SWAP1 POP PUSH2 0x149F PUSH0 DUP4 ADD DUP6 PUSH2 0x11EB JUMP JUMPDEST PUSH2 0x14AC PUSH1 0x20 DUP4 ADD DUP5 PUSH2 0x10FA JUMP JUMPDEST SWAP4 SWAP3 POP POP POP JUMP JUMPDEST PUSH0 DUP2 ISZERO ISZERO SWAP1 POP SWAP2 SWAP1 POP JUMP JUMPDEST PUSH2 0x14C7 DUP2 PUSH2 0x14B3 JUMP JUMPDEST DUP2 EQ PUSH2 0x14D1 JUMPI PUSH0 DUP1 REVERT JUMPDEST POP JUMP JUMPDEST PUSH0 DUP2 MLOAD SWAP1 POP PUSH2 0x14E2 DUP2 PUSH2 0x14BE JUMP JUMPDEST SWAP3 SWAP2 POP POP JUMP JUMPDEST PUSH0 PUSH1 0x20 DUP3 DUP5 SUB SLT ISZERO PUSH2 0x14FD JUMPI PUSH2 0x14FC PUSH2 0x1068 JUMP JUMPDEST JUMPDEST PUSH0 PUSH2 0x150A DUP5 DUP3 DUP6 ADD PUSH2 0x14D4 JUMP JUMPDEST SWAP2 POP POP SWAP3 SWAP2 POP POP JUMP JUMPDEST PUSH32 0x7265776172642072617465203D20300000000000000000000000000000000000 PUSH0 DUP3 ADD MSTORE POP JUMP JUMPDEST PUSH0 PUSH2 0x1547 PUSH1 0xF DUP4 PUSH2 0x1344 JUMP JUMPDEST SWAP2 POP PUSH2 0x1552 DUP3 PUSH2 0x1513 JUMP JUMPDEST PUSH1 0x20 DUP3 ADD SWAP1 POP SWAP2 SWAP1 POP JUMP JUMPDEST PUSH0 PUSH1 0x20 DUP3 ADD SWAP1 POP DUP2 DUP2 SUB PUSH0 DUP4 ADD MSTORE PUSH2 0x1574 DUP2 PUSH2 0x153B JUMP JUMPDEST SWAP1 POP SWAP2 SWAP1 POP JUMP JUMPDEST PUSH0 DUP2 MLOAD SWAP1 POP PUSH2 0x1589 DUP2 PUSH2 0x1122 JUMP JUMPDEST SWAP3 SWAP2 POP POP JUMP JUMPDEST PUSH0 PUSH1 0x20 DUP3 DUP5 SUB SLT ISZERO PUSH2 0x15A4 JUMPI PUSH2 0x15A3 PUSH2 0x1068 JUMP JUMPDEST JUMPDEST PUSH0 PUSH2 0x15B1 DUP5 DUP3 DUP6 ADD PUSH2 0x157B JUMP JUMPDEST SWAP2 POP POP SWAP3 SWAP2 POP POP JUMP JUMPDEST PUSH32 0x72657761726420616D6F756E74203E2062616C616E6365000000000000000000 PUSH0 DUP3 ADD MSTORE POP JUMP JUMPDEST PUSH0 PUSH2 0x15EE PUSH1 0x17 DUP4 PUSH2 0x1344 JUMP JUMPDEST SWAP2 POP PUSH2 0x15F9 DUP3 PUSH2 0x15BA JUMP JUMPDEST PUSH1 0x20 DUP3 ADD SWAP1 POP SWAP2 SWAP1 POP JUMP JUMPDEST PUSH0 PUSH1 0x20 DUP3 ADD SWAP1 POP DUP2 DUP2 SUB PUSH0 DUP4 ADD MSTORE PUSH2 0x161B DUP2 PUSH2 0x15E2 JUMP JUMPDEST SWAP1 POP SWAP2 SWAP1 POP JUMP JUMPDEST PUSH0 PUSH1 0x60 DUP3 ADD SWAP1 POP PUSH2 0x1635 PUSH0 DUP4 ADD DUP7 PUSH2 0x11EB JUMP JUMPDEST PUSH2 0x1642 PUSH1 0x20 DUP4 ADD DUP6 PUSH2 0x11EB JUMP JUMPDEST PUSH2 0x164F PUSH1 0x40 DUP4 ADD DUP5 PUSH2 0x10FA JUMP JUMPDEST SWAP5 SWAP4 POP POP POP POP JUMP INVALID LOG2 PUSH5 0x6970667358 0x22 SLT KECCAK256 0xDD DUP6 SWAP12 0xCB 0xDC LOG2 SMOD JUMPDEST PUSH31 0xA5A6DB0390AC1D24E4E23EBC29B0C71F2B9BF0D9F8FD8064736F6C63430008 XOR STOP CALLER "
				},
				"gasEstimates": {
					"creation": {
						"codeDepositCost": "1154600",
						"executionCost": "infinite",
						"totalCost": "infinite"
					},
					"external": {
						"balanceOf(address)": "2913",
						"duration()": "2493",
						"earned(address)": "infinite",
						"finishAt()": "2514",
						"getReward()": "infinite",
						"lastTimeRewardApplicable()": "2604",
						"notifyRewardAmount(uint256)": "infinite",
						"owner()": "2527",
						"rewardPerToken()": "infinite",
						"rewardPerTokenStored()": "2535",
						"rewardRate()": "2492",
						"rewards(address)": "2848",
						"rewardsToken()": "infinite",
						"setRewarsDuration(uint256)": "26915",
						"stake(uint256)": "infinite",
						"stakingToken()": "infinite",
						"totalSupply()": "2515",
						"updatedAt()": "2470",
						"userRewardPerTokenPaid(address)": "2913",
						"withdraw(uint256)": "infinite"
					},
					"internal": {
						"_min(uint256,uint256)": "66"
					}
				},
				"methodIdentifiers": {
					"balanceOf(address)": "70a08231",
					"duration()": "0fb5a6b4",
					"earned(address)": "008cc262",
					"finishAt()": "67d3b488",
					"getReward()": "3d18b912",
					"lastTimeRewardApplicable()": "80faa57d",
					"notifyRewardAmount(uint256)": "3c6b16ab",
					"owner()": "8da5cb5b",
					"rewardPerToken()": "cd3daf9d",
					"rewardPerTokenStored()": "df136d65",
					"rewardRate()": "7b0a47ee",
					"rewards(address)": "0700037d",
					"rewardsToken()": "d1af0c7d",
					"setRewarsDuration(uint256)": "208bae25",
					"stake(uint256)": "a694fc3a",
					"stakingToken()": "72f702f3",
					"totalSupply()": "18160ddd",
					"updatedAt()": "7519ab50",
					"userRewardPerTokenPaid(address)": "8b876347",
					"withdraw(uint256)": "2e1a7d4d"
				}
			},
			"storageLayout": {
				"storage": [
					{
						"astId": 92,
						"contract": "tests/StakingRewards.sol:StakingRewards",
						"label": "owner",
						"offset": 0,
						"slot": "0",
						"type": "t_address"
					},
					{
						"astId": 94,
						"contract": "tests/StakingRewards.sol:StakingRewards",
						"label": "duration",
						"offset": 0,
						"slot": "1",
						"type": "t_uint256"
					},
					{
						"astId": 96,
						"contract": "tests/StakingRewards.sol:StakingRewards",
						"label": "finishAt",
						"offset": 0,
						"slot": "2",
						"type": "t_uint256"
					},
					{
						"astId": 98,
						"contract": "tests/StakingRewards.sol:StakingRewards",
						"label": "updatedAt",
						"offset": 0,
						"slot": "3",
						"type": "t_uint256"
					},
					{
						"astId": 100,
						"contract": "tests/StakingRewards.sol:StakingRewards",
						"label": "rewardRate",
						"offset": 0,
						"slot": "4",
						"type": "t_uint256"
					},
					{
						"astId": 102,
						"contract": "tests/StakingRewards.sol:StakingRewards",
						"label": "rewardPerTokenStored",
						"offset": 0,
						"slot": "5",
						"type": "t_uint256"
					},
					{
						"astId": 106,
						"contract": "tests/StakingRewards.sol:StakingRewards",
						"label": "userRewardPerTokenPaid",
						"offset": 0,
						"slot": "6",
						"type": "t_mapping(t_address,t_uint256)"
					},
					{
						"astId": 110,
						"contract": "tests/StakingRewards.sol:StakingRewards",
						"label": "rewards",
						"offset": 0,
						"slot": "7",
						"type": "t_mapping(t_address,t_uint256)"
					},
					{
						"astId": 112,
						"contract": "tests/StakingRewards.sol:StakingRewards",
						"label": "totalSupply",
						"offset": 0,
						"slot": "8",
						"type": "t_uint256"
					},
					{
						"astId": 116,
						"contract": "tests/StakingRewards.sol:StakingRewards",
						"label": "balanceOf",
						"offset": 0,
						"slot": "9",
						"type": "t_mapping(t_address,t_uint256)"
					}
				],
				"types": {
					"t_address": {
						"encoding": "inplace",
						"label": "address",
						"numberOfBytes": "20"
					},
					"t_mapping(t_address,t_uint256)": {
						"encoding": "mapping",
						"key": "t_address",
						"label": "mapping(address => uint256)",
						"numberOfBytes": "32",
						"value": "t_uint256"
					},
					"t_uint256": {
						"encoding": "inplace",
						"label": "uint256",
						"numberOfBytes": "32"
					}
				}
			},
			"userdoc": {
				"kind": "user",
				"methods": {},
				"version": 1
			}
		}
	}
}