{
	"tests/MultiDelegatecall.sol": {
		"MultiDelegatecall": {
			"abi": [
				{
					"inputs": [],
					"name": "DelegatecallFailed",
					"type": "error"
				},
				{
					"inputs": [
						{
							"internalType": "bytes[]",
							"name": "data",
							"type": "bytes[]"
						}
					],
					"name": "multiDelegatecall",
					"outputs": [
						{
							"internalType": "bytes[]",
							"name": "results",
							"type": "bytes[]"
						}
					],
					"stateMutability": "payable",
					"type": "function"
				}
			],
			"devdoc": {
				"kind": "dev",
				"methods": {},
				"version": 1
			},
			"evm": {
				"assembly": "    /* \"tests/MultiDelegatecall.sol\":60:537  contract MultiDelegatecall {... */\n  mstore(0x40, 0x80)\n  callvalue\n  dup1\n  iszero\n  tag_1\n  jumpi\n  0x00\n  dup1\n  revert\ntag_1:\n  pop\n  dataSize(sub_0)\n  dup1\n  dataOffset(sub_0)\n  0x00\n  codecopy\n  0x00\n  return\nstop\n\nsub_0: assembly {\n        /* \"tests/MultiDelegatecall.sol\":60:537  contract MultiDelegatecall {... */\n      mstore(0x40, 0x80)\n      jumpi(tag_1, lt(calldatasize, 0x04))\n      shr(0xe0, calldataload(0x00))\n      dup1\n      0x10957d3c\n      eq\n      tag_2\n      jumpi\n    tag_1:\n      0x00\n      dup1\n      revert\n        /* \"tests/MultiDelegatecall.sol\":127:534  function multiDelegatecall(bytes[] calldata data) external payable returns(bytes[] memory results) {... */\n    tag_2:\n      tag_3\n      0x04\n      dup1\n      calldatasize\n      sub\n      dup2\n      add\n      swap1\n      tag_4\n      swap2\n      swap1\n      tag_5\n      jump\t// in\n    tag_4:\n      tag_6\n      jump\t// in\n    tag_3:\n      mload(0x40)\n      tag_7\n      swap2\n      swap1\n      tag_8\n      jump\t// in\n    tag_7:\n      mload(0x40)\n      dup1\n      swap2\n      sub\n      swap1\n      return\n    tag_6:\n        /* \"tests/MultiDelegatecall.sol\":202:224  bytes[] memory results */\n      0x60\n        /* \"tests/MultiDelegatecall.sol\":259:263  data */\n      dup3\n      dup3\n        /* \"tests/MultiDelegatecall.sol\":259:270  data.length */\n      swap1\n      pop\n        /* \"tests/MultiDelegatecall.sol\":247:271  new bytes[](data.length) */\n      0xffffffffffffffff\n      dup2\n      gt\n      iszero\n      tag_10\n      jumpi\n      tag_11\n      tag_12\n      jump\t// in\n    tag_11:\n    tag_10:\n      mload(0x40)\n      swap1\n      dup1\n      dup3\n      mstore\n      dup1\n      0x20\n      mul\n      0x20\n      add\n      dup3\n      add\n      0x40\n      mstore\n      dup1\n      iszero\n      tag_13\n      jumpi\n      dup2\n      0x20\n      add\n    tag_14:\n      0x60\n      dup2\n      mstore\n      0x20\n      add\n      swap1\n      0x01\n      swap1\n      sub\n      swap1\n      dup2\n      tag_14\n      jumpi\n      swap1\n      pop\n    tag_13:\n      pop\n        /* \"tests/MultiDelegatecall.sol\":237:271  results = new bytes[](data.length) */\n      swap1\n      pop\n        /* \"tests/MultiDelegatecall.sol\":289:295  uint i */\n      0x00\n        /* \"tests/MultiDelegatecall.sol\":284:527  for (uint i; i < data.length; i++) {... */\n    tag_15:\n        /* \"tests/MultiDelegatecall.sol\":301:305  data */\n      dup4\n      dup4\n        /* \"tests/MultiDelegatecall.sol\":301:312  data.length */\n      swap1\n      pop\n        /* \"tests/MultiDelegatecall.sol\":297:298  i */\n      dup2\n        /* \"tests/MultiDelegatecall.sol\":297:312  i < data.length */\n      lt\n        /* \"tests/MultiDelegatecall.sol\":284:527  for (uint i; i < data.length; i++) {... */\n      iszero\n      tag_16\n      jumpi\n        /* \"tests/MultiDelegatecall.sol\":335:342  bool ok */\n      0x00\n        /* \"tests/MultiDelegatecall.sol\":344:360  bytes memory res */\n      dup1\n        /* \"tests/MultiDelegatecall.sol\":372:376  this */\n      address\n        /* \"tests/MultiDelegatecall.sol\":364:390  address(this).delegatecall */\n      0xffffffffffffffffffffffffffffffffffffffff\n      and\n        /* \"tests/MultiDelegatecall.sol\":391:395  data */\n      dup7\n      dup7\n        /* \"tests/MultiDelegatecall.sol\":396:397  i */\n      dup6\n        /* \"tests/MultiDelegatecall.sol\":391:398  data[i] */\n      dup2\n      dup2\n      lt\n      tag_18\n      jumpi\n      tag_19\n      tag_20\n      jump\t// in\n    tag_19:\n    tag_18:\n      swap1\n      pop\n      0x20\n      mul\n      dup2\n      add\n      swap1\n      tag_21\n      swap2\n      swap1\n      tag_22\n      jump\t// in\n    tag_21:\n        /* \"tests/MultiDelegatecall.sol\":364:399  address(this).delegatecall(data[i]) */\n      mload(0x40)\n      tag_23\n      swap3\n      swap2\n      swap1\n      tag_24\n      jump\t// in\n    tag_23:\n      0x00\n      mload(0x40)\n      dup1\n      dup4\n      sub\n      dup2\n      dup6\n      gas\n      delegatecall\n      swap2\n      pop\n      pop\n      returndatasize\n      dup1\n      0x00\n      dup2\n      eq\n      tag_27\n      jumpi\n      mload(0x40)\n      swap2\n      pop\n      and(add(returndatasize, 0x3f), not(0x1f))\n      dup3\n      add\n      0x40\n      mstore\n      returndatasize\n      dup3\n      mstore\n      returndatasize\n      0x00\n      0x20\n      dup5\n      add\n      returndatacopy\n      jump(tag_26)\n    tag_27:\n      0x60\n      swap2\n      pop\n    tag_26:\n      pop\n        /* \"tests/MultiDelegatecall.sol\":334:399  (bool ok, bytes memory res) = address(this).delegatecall(data[i]) */\n      swap2\n      pop\n      swap2\n      pop\n        /* \"tests/MultiDelegatecall.sol\":419:421  ok */\n      dup2\n        /* \"tests/MultiDelegatecall.sol\":414:485  if (!ok) {... */\n      tag_28\n      jumpi\n        /* \"tests/MultiDelegatecall.sol\":449:469  DelegatecallFailed() */\n      mload(0x40)\n      0x835e98fe00000000000000000000000000000000000000000000000000000000\n      dup2\n      mstore\n      0x04\n      add\n      mload(0x40)\n      dup1\n      swap2\n      sub\n      swap1\n      revert\n        /* \"tests/MultiDelegatecall.sol\":414:485  if (!ok) {... */\n    tag_28:\n        /* \"tests/MultiDelegatecall.sol\":512:515  res */\n      dup1\n        /* \"tests/MultiDelegatecall.sol\":499:506  results */\n      dup5\n        /* \"tests/MultiDelegatecall.sol\":507:508  i */\n      dup5\n        /* \"tests/MultiDelegatecall.sol\":499:509  results[i] */\n      dup2\n      mload\n      dup2\n      lt\n      tag_29\n      jumpi\n      tag_30\n      tag_20\n      jump\t// in\n    tag_30:\n    tag_29:\n      0x20\n      mul\n      0x20\n      add\n      add\n        /* \"tests/MultiDelegatecall.sol\":499:515  results[i] = res */\n      dup2\n      swap1\n      mstore\n      pop\n        /* \"tests/MultiDelegatecall.sol\":319:527  {... */\n      pop\n      pop\n        /* \"tests/MultiDelegatecall.sol\":314:317  i++ */\n      dup1\n      dup1\n      0x01\n      add\n      swap2\n      pop\n      pop\n        /* \"tests/MultiDelegatecall.sol\":284:527  for (uint i; i < data.length; i++) {... */\n      jump(tag_15)\n    tag_16:\n      pop\n        /* \"tests/MultiDelegatecall.sol\":127:534  function multiDelegatecall(bytes[] calldata data) external payable returns(bytes[] memory results) {... */\n      swap3\n      swap2\n      pop\n      pop\n      jump\t// out\n        /* \"#utility.yul\":88:205   */\n    tag_32:\n        /* \"#utility.yul\":197:198   */\n      0x00\n        /* \"#utility.yul\":194:195   */\n      dup1\n        /* \"#utility.yul\":187:199   */\n      revert\n        /* \"#utility.yul\":211:328   */\n    tag_33:\n        /* \"#utility.yul\":320:321   */\n      0x00\n        /* \"#utility.yul\":317:318   */\n      dup1\n        /* \"#utility.yul\":310:322   */\n      revert\n        /* \"#utility.yul\":334:451   */\n    tag_34:\n        /* \"#utility.yul\":443:444   */\n      0x00\n        /* \"#utility.yul\":440:441   */\n      dup1\n        /* \"#utility.yul\":433:445   */\n      revert\n        /* \"#utility.yul\":457:574   */\n    tag_35:\n        /* \"#utility.yul\":566:567   */\n      0x00\n        /* \"#utility.yul\":563:564   */\n      dup1\n        /* \"#utility.yul\":556:568   */\n      revert\n        /* \"#utility.yul\":580:697   */\n    tag_36:\n        /* \"#utility.yul\":689:690   */\n      0x00\n        /* \"#utility.yul\":686:687   */\n      dup1\n        /* \"#utility.yul\":679:691   */\n      revert\n        /* \"#utility.yul\":718:1297   */\n    tag_37:\n        /* \"#utility.yul\":802:810   */\n      0x00\n        /* \"#utility.yul\":812:818   */\n      dup1\n        /* \"#utility.yul\":862:865   */\n      dup4\n        /* \"#utility.yul\":855:859   */\n      0x1f\n        /* \"#utility.yul\":847:853   */\n      dup5\n        /* \"#utility.yul\":843:860   */\n      add\n        /* \"#utility.yul\":839:866   */\n      slt\n        /* \"#utility.yul\":829:951   */\n      tag_63\n      jumpi\n        /* \"#utility.yul\":870:949   */\n      tag_64\n      tag_34\n      jump\t// in\n    tag_64:\n        /* \"#utility.yul\":829:951   */\n    tag_63:\n        /* \"#utility.yul\":983:989   */\n      dup3\n        /* \"#utility.yul\":970:990   */\n      calldataload\n        /* \"#utility.yul\":960:990   */\n      swap1\n      pop\n        /* \"#utility.yul\":1013:1031   */\n      0xffffffffffffffff\n        /* \"#utility.yul\":1005:1011   */\n      dup2\n        /* \"#utility.yul\":1002:1032   */\n      gt\n        /* \"#utility.yul\":999:1116   */\n      iszero\n      tag_65\n      jumpi\n        /* \"#utility.yul\":1035:1114   */\n      tag_66\n      tag_35\n      jump\t// in\n    tag_66:\n        /* \"#utility.yul\":999:1116   */\n    tag_65:\n        /* \"#utility.yul\":1149:1153   */\n      0x20\n        /* \"#utility.yul\":1141:1147   */\n      dup4\n        /* \"#utility.yul\":1137:1154   */\n      add\n        /* \"#utility.yul\":1125:1154   */\n      swap2\n      pop\n        /* \"#utility.yul\":1203:1206   */\n      dup4\n        /* \"#utility.yul\":1195:1199   */\n      0x20\n        /* \"#utility.yul\":1187:1193   */\n      dup3\n        /* \"#utility.yul\":1183:1200   */\n      mul\n        /* \"#utility.yul\":1173:1181   */\n      dup4\n        /* \"#utility.yul\":1169:1201   */\n      add\n        /* \"#utility.yul\":1166:1207   */\n      gt\n        /* \"#utility.yul\":1163:1291   */\n      iszero\n      tag_67\n      jumpi\n        /* \"#utility.yul\":1210:1289   */\n      tag_68\n      tag_36\n      jump\t// in\n    tag_68:\n        /* \"#utility.yul\":1163:1291   */\n    tag_67:\n        /* \"#utility.yul\":718:1297   */\n      swap3\n      pop\n      swap3\n      swap1\n      pop\n      jump\t// out\n        /* \"#utility.yul\":1303:1884   */\n    tag_5:\n        /* \"#utility.yul\":1400:1406   */\n      0x00\n        /* \"#utility.yul\":1408:1414   */\n      dup1\n        /* \"#utility.yul\":1457:1459   */\n      0x20\n        /* \"#utility.yul\":1445:1454   */\n      dup4\n        /* \"#utility.yul\":1436:1443   */\n      dup6\n        /* \"#utility.yul\":1432:1455   */\n      sub\n        /* \"#utility.yul\":1428:1460   */\n      slt\n        /* \"#utility.yul\":1425:1544   */\n      iszero\n      tag_70\n      jumpi\n        /* \"#utility.yul\":1463:1542   */\n      tag_71\n      tag_32\n      jump\t// in\n    tag_71:\n        /* \"#utility.yul\":1425:1544   */\n    tag_70:\n        /* \"#utility.yul\":1611:1612   */\n      0x00\n        /* \"#utility.yul\":1600:1609   */\n      dup4\n        /* \"#utility.yul\":1596:1613   */\n      add\n        /* \"#utility.yul\":1583:1614   */\n      calldataload\n        /* \"#utility.yul\":1641:1659   */\n      0xffffffffffffffff\n        /* \"#utility.yul\":1633:1639   */\n      dup2\n        /* \"#utility.yul\":1630:1660   */\n      gt\n        /* \"#utility.yul\":1627:1744   */\n      iszero\n      tag_72\n      jumpi\n        /* \"#utility.yul\":1663:1742   */\n      tag_73\n      tag_33\n      jump\t// in\n    tag_73:\n        /* \"#utility.yul\":1627:1744   */\n    tag_72:\n        /* \"#utility.yul\":1776:1867   */\n      tag_74\n        /* \"#utility.yul\":1859:1866   */\n      dup6\n        /* \"#utility.yul\":1850:1856   */\n      dup3\n        /* \"#utility.yul\":1839:1848   */\n      dup7\n        /* \"#utility.yul\":1835:1857   */\n      add\n        /* \"#utility.yul\":1776:1867   */\n      tag_37\n      jump\t// in\n    tag_74:\n        /* \"#utility.yul\":1758:1867   */\n      swap3\n      pop\n      swap3\n      pop\n        /* \"#utility.yul\":1554:1877   */\n      pop\n        /* \"#utility.yul\":1303:1884   */\n      swap3\n      pop\n      swap3\n      swap1\n      pop\n      jump\t// out\n        /* \"#utility.yul\":1890:2013   */\n    tag_38:\n        /* \"#utility.yul\":1966:1972   */\n      0x00\n        /* \"#utility.yul\":2000:2005   */\n      dup2\n        /* \"#utility.yul\":1994:2006   */\n      mload\n        /* \"#utility.yul\":1984:2006   */\n      swap1\n      pop\n        /* \"#utility.yul\":1890:2013   */\n      swap2\n      swap1\n      pop\n      jump\t// out\n        /* \"#utility.yul\":2019:2212   */\n    tag_39:\n        /* \"#utility.yul\":2127:2138   */\n      0x00\n        /* \"#utility.yul\":2161:2167   */\n      dup3\n        /* \"#utility.yul\":2156:2159   */\n      dup3\n        /* \"#utility.yul\":2149:2168   */\n      mstore\n        /* \"#utility.yul\":2201:2205   */\n      0x20\n        /* \"#utility.yul\":2196:2199   */\n      dup3\n        /* \"#utility.yul\":2192:2206   */\n      add\n        /* \"#utility.yul\":2177:2206   */\n      swap1\n      pop\n        /* \"#utility.yul\":2019:2212   */\n      swap3\n      swap2\n      pop\n      pop\n      jump\t// out\n        /* \"#utility.yul\":2218:2359   */\n    tag_40:\n        /* \"#utility.yul\":2294:2298   */\n      0x00\n        /* \"#utility.yul\":2317:2320   */\n      dup2\n        /* \"#utility.yul\":2309:2320   */\n      swap1\n      pop\n        /* \"#utility.yul\":2347:2351   */\n      0x20\n        /* \"#utility.yul\":2342:2345   */\n      dup3\n        /* \"#utility.yul\":2338:2352   */\n      add\n        /* \"#utility.yul\":2330:2352   */\n      swap1\n      pop\n        /* \"#utility.yul\":2218:2359   */\n      swap2\n      swap1\n      pop\n      jump\t// out\n        /* \"#utility.yul\":2365:2463   */\n    tag_41:\n        /* \"#utility.yul\":2416:2422   */\n      0x00\n        /* \"#utility.yul\":2450:2455   */\n      dup2\n        /* \"#utility.yul\":2444:2456   */\n      mload\n        /* \"#utility.yul\":2434:2456   */\n      swap1\n      pop\n        /* \"#utility.yul\":2365:2463   */\n      swap2\n      swap1\n      pop\n      jump\t// out\n        /* \"#utility.yul\":2469:2627   */\n    tag_42:\n        /* \"#utility.yul\":2542:2553   */\n      0x00\n        /* \"#utility.yul\":2576:2582   */\n      dup3\n        /* \"#utility.yul\":2571:2574   */\n      dup3\n        /* \"#utility.yul\":2564:2583   */\n      mstore\n        /* \"#utility.yul\":2616:2620   */\n      0x20\n        /* \"#utility.yul\":2611:2614   */\n      dup3\n        /* \"#utility.yul\":2607:2621   */\n      add\n        /* \"#utility.yul\":2592:2621   */\n      swap1\n      pop\n        /* \"#utility.yul\":2469:2627   */\n      swap3\n      swap2\n      pop\n      pop\n      jump\t// out\n        /* \"#utility.yul\":2633:2879   */\n    tag_43:\n        /* \"#utility.yul\":2714:2715   */\n      0x00\n        /* \"#utility.yul\":2724:2837   */\n    tag_81:\n        /* \"#utility.yul\":2738:2744   */\n      dup4\n        /* \"#utility.yul\":2735:2736   */\n      dup2\n        /* \"#utility.yul\":2732:2745   */\n      lt\n        /* \"#utility.yul\":2724:2837   */\n      iszero\n      tag_83\n      jumpi\n        /* \"#utility.yul\":2823:2824   */\n      dup1\n        /* \"#utility.yul\":2818:2821   */\n      dup3\n        /* \"#utility.yul\":2814:2825   */\n      add\n        /* \"#utility.yul\":2808:2826   */\n      mload\n        /* \"#utility.yul\":2804:2805   */\n      dup2\n        /* \"#utility.yul\":2799:2802   */\n      dup5\n        /* \"#utility.yul\":2795:2806   */\n      add\n        /* \"#utility.yul\":2788:2827   */\n      mstore\n        /* \"#utility.yul\":2760:2762   */\n      0x20\n        /* \"#utility.yul\":2757:2758   */\n      dup2\n        /* \"#utility.yul\":2753:2763   */\n      add\n        /* \"#utility.yul\":2748:2763   */\n      swap1\n      pop\n        /* \"#utility.yul\":2724:2837   */\n      jump(tag_81)\n    tag_83:\n        /* \"#utility.yul\":2871:2872   */\n      0x00\n        /* \"#utility.yul\":2862:2868   */\n      dup5\n        /* \"#utility.yul\":2857:2860   */\n      dup5\n        /* \"#utility.yul\":2853:2869   */\n      add\n        /* \"#utility.yul\":2846:2873   */\n      mstore\n        /* \"#utility.yul\":2695:2879   */\n      pop\n        /* \"#utility.yul\":2633:2879   */\n      pop\n      pop\n      pop\n      jump\t// out\n        /* \"#utility.yul\":2885:2987   */\n    tag_44:\n        /* \"#utility.yul\":2926:2932   */\n      0x00\n        /* \"#utility.yul\":2977:2979   */\n      0x1f\n        /* \"#utility.yul\":2973:2980   */\n      not\n        /* \"#utility.yul\":2968:2970   */\n      0x1f\n        /* \"#utility.yul\":2961:2966   */\n      dup4\n        /* \"#utility.yul\":2957:2971   */\n      add\n        /* \"#utility.yul\":2953:2981   */\n      and\n        /* \"#utility.yul\":2943:2981   */\n      swap1\n      pop\n        /* \"#utility.yul\":2885:2987   */\n      swap2\n      swap1\n      pop\n      jump\t// out\n        /* \"#utility.yul\":2993:3346   */\n    tag_45:\n        /* \"#utility.yul\":3069:3072   */\n      0x00\n        /* \"#utility.yul\":3097:3135   */\n      tag_86\n        /* \"#utility.yul\":3129:3134   */\n      dup3\n        /* \"#utility.yul\":3097:3135   */\n      tag_41\n      jump\t// in\n    tag_86:\n        /* \"#utility.yul\":3151:3211   */\n      tag_87\n        /* \"#utility.yul\":3204:3210   */\n      dup2\n        /* \"#utility.yul\":3199:3202   */\n      dup6\n        /* \"#utility.yul\":3151:3211   */\n      tag_42\n      jump\t// in\n    tag_87:\n        /* \"#utility.yul\":3144:3211   */\n      swap4\n      pop\n        /* \"#utility.yul\":3220:3285   */\n      tag_88\n        /* \"#utility.yul\":3278:3284   */\n      dup2\n        /* \"#utility.yul\":3273:3276   */\n      dup6\n        /* \"#utility.yul\":3266:3270   */\n      0x20\n        /* \"#utility.yul\":3259:3264   */\n      dup7\n        /* \"#utility.yul\":3255:3271   */\n      add\n        /* \"#utility.yul\":3220:3285   */\n      tag_43\n      jump\t// in\n    tag_88:\n        /* \"#utility.yul\":3310:3339   */\n      tag_89\n        /* \"#utility.yul\":3332:3338   */\n      dup2\n        /* \"#utility.yul\":3310:3339   */\n      tag_44\n      jump\t// in\n    tag_89:\n        /* \"#utility.yul\":3305:3308   */\n      dup5\n        /* \"#utility.yul\":3301:3340   */\n      add\n        /* \"#utility.yul\":3294:3340   */\n      swap2\n      pop\n        /* \"#utility.yul\":3073:3346   */\n      pop\n        /* \"#utility.yul\":2993:3346   */\n      swap3\n      swap2\n      pop\n      pop\n      jump\t// out\n        /* \"#utility.yul\":3352:3544   */\n    tag_46:\n        /* \"#utility.yul\":3439:3449   */\n      0x00\n        /* \"#utility.yul\":3474:3538   */\n      tag_91\n        /* \"#utility.yul\":3534:3537   */\n      dup4\n        /* \"#utility.yul\":3526:3532   */\n      dup4\n        /* \"#utility.yul\":3474:3538   */\n      tag_45\n      jump\t// in\n    tag_91:\n        /* \"#utility.yul\":3460:3538   */\n      swap1\n      pop\n        /* \"#utility.yul\":3352:3544   */\n      swap3\n      swap2\n      pop\n      pop\n      jump\t// out\n        /* \"#utility.yul\":3550:3672   */\n    tag_47:\n        /* \"#utility.yul\":3629:3633   */\n      0x00\n        /* \"#utility.yul\":3661:3665   */\n      0x20\n        /* \"#utility.yul\":3656:3659   */\n      dup3\n        /* \"#utility.yul\":3652:3666   */\n      add\n        /* \"#utility.yul\":3644:3666   */\n      swap1\n      pop\n        /* \"#utility.yul\":3550:3672   */\n      swap2\n      swap1\n      pop\n      jump\t// out\n        /* \"#utility.yul\":3704:4687   */\n    tag_48:\n        /* \"#utility.yul\":3841:3844   */\n      0x00\n        /* \"#utility.yul\":3870:3933   */\n      tag_94\n        /* \"#utility.yul\":3927:3932   */\n      dup3\n        /* \"#utility.yul\":3870:3933   */\n      tag_38\n      jump\t// in\n    tag_94:\n        /* \"#utility.yul\":3949:4044   */\n      tag_95\n        /* \"#utility.yul\":4037:4043   */\n      dup2\n        /* \"#utility.yul\":4032:4035   */\n      dup6\n        /* \"#utility.yul\":3949:4044   */\n      tag_39\n      jump\t// in\n    tag_95:\n        /* \"#utility.yul\":3942:4044   */\n      swap4\n      pop\n        /* \"#utility.yul\":4070:4073   */\n      dup4\n        /* \"#utility.yul\":4115:4119   */\n      0x20\n        /* \"#utility.yul\":4107:4113   */\n      dup3\n        /* \"#utility.yul\":4103:4120   */\n      mul\n        /* \"#utility.yul\":4098:4101   */\n      dup6\n        /* \"#utility.yul\":4094:4121   */\n      add\n        /* \"#utility.yul\":4145:4210   */\n      tag_96\n        /* \"#utility.yul\":4204:4209   */\n      dup6\n        /* \"#utility.yul\":4145:4210   */\n      tag_40\n      jump\t// in\n    tag_96:\n        /* \"#utility.yul\":4233:4240   */\n      dup1\n        /* \"#utility.yul\":4264:4265   */\n      0x00\n        /* \"#utility.yul\":4249:4642   */\n    tag_97:\n        /* \"#utility.yul\":4274:4280   */\n      dup6\n        /* \"#utility.yul\":4271:4272   */\n      dup2\n        /* \"#utility.yul\":4268:4281   */\n      lt\n        /* \"#utility.yul\":4249:4642   */\n      iszero\n      tag_99\n      jumpi\n        /* \"#utility.yul\":4345:4354   */\n      dup5\n        /* \"#utility.yul\":4339:4343   */\n      dup5\n        /* \"#utility.yul\":4335:4355   */\n      sub\n        /* \"#utility.yul\":4330:4333   */\n      dup10\n        /* \"#utility.yul\":4323:4356   */\n      mstore\n        /* \"#utility.yul\":4396:4402   */\n      dup2\n        /* \"#utility.yul\":4390:4403   */\n      mload\n        /* \"#utility.yul\":4424:4506   */\n      tag_100\n        /* \"#utility.yul\":4501:4505   */\n      dup6\n        /* \"#utility.yul\":4486:4499   */\n      dup3\n        /* \"#utility.yul\":4424:4506   */\n      tag_46\n      jump\t// in\n    tag_100:\n        /* \"#utility.yul\":4416:4506   */\n      swap5\n      pop\n        /* \"#utility.yul\":4529:4598   */\n      tag_101\n        /* \"#utility.yul\":4591:4597   */\n      dup4\n        /* \"#utility.yul\":4529:4598   */\n      tag_47\n      jump\t// in\n    tag_101:\n        /* \"#utility.yul\":4519:4598   */\n      swap3\n      pop\n        /* \"#utility.yul\":4627:4631   */\n      0x20\n        /* \"#utility.yul\":4622:4625   */\n      dup11\n        /* \"#utility.yul\":4618:4632   */\n      add\n        /* \"#utility.yul\":4611:4632   */\n      swap10\n      pop\n        /* \"#utility.yul\":4309:4642   */\n      pop\n        /* \"#utility.yul\":4296:4297   */\n      0x01\n        /* \"#utility.yul\":4293:4294   */\n      dup2\n        /* \"#utility.yul\":4289:4298   */\n      add\n        /* \"#utility.yul\":4284:4298   */\n      swap1\n      pop\n        /* \"#utility.yul\":4249:4642   */\n      jump(tag_97)\n    tag_99:\n        /* \"#utility.yul\":4253:4267   */\n      pop\n        /* \"#utility.yul\":4658:4662   */\n      dup3\n        /* \"#utility.yul\":4651:4662   */\n      swap8\n      pop\n        /* \"#utility.yul\":4678:4681   */\n      dup8\n        /* \"#utility.yul\":4671:4681   */\n      swap6\n      pop\n        /* \"#utility.yul\":3846:4687   */\n      pop\n      pop\n      pop\n      pop\n      pop\n        /* \"#utility.yul\":3704:4687   */\n      swap3\n      swap2\n      pop\n      pop\n      jump\t// out\n        /* \"#utility.yul\":4693:5102   */\n    tag_8:\n        /* \"#utility.yul\":4854:4858   */\n      0x00\n        /* \"#utility.yul\":4892:4894   */\n      0x20\n        /* \"#utility.yul\":4881:4890   */\n      dup3\n        /* \"#utility.yul\":4877:4895   */\n      add\n        /* \"#utility.yul\":4869:4895   */\n      swap1\n      pop\n        /* \"#utility.yul\":4941:4950   */\n      dup2\n        /* \"#utility.yul\":4935:4939   */\n      dup2\n        /* \"#utility.yul\":4931:4951   */\n      sub\n        /* \"#utility.yul\":4927:4928   */\n      0x00\n        /* \"#utility.yul\":4916:4925   */\n      dup4\n        /* \"#utility.yul\":4912:4929   */\n      add\n        /* \"#utility.yul\":4905:4952   */\n      mstore\n        /* \"#utility.yul\":4969:5095   */\n      tag_103\n        /* \"#utility.yul\":5090:5094   */\n      dup2\n        /* \"#utility.yul\":5081:5087   */\n      dup5\n        /* \"#utility.yul\":4969:5095   */\n      tag_48\n      jump\t// in\n    tag_103:\n        /* \"#utility.yul\":4961:5095   */\n      swap1\n      pop\n        /* \"#utility.yul\":4693:5102   */\n      swap3\n      swap2\n      pop\n      pop\n      jump\t// out\n        /* \"#utility.yul\":5108:5288   */\n    tag_12:\n        /* \"#utility.yul\":5156:5233   */\n      0x4e487b7100000000000000000000000000000000000000000000000000000000\n        /* \"#utility.yul\":5153:5154   */\n      0x00\n        /* \"#utility.yul\":5146:5234   */\n      mstore\n        /* \"#utility.yul\":5253:5257   */\n      0x41\n        /* \"#utility.yul\":5250:5251   */\n      0x04\n        /* \"#utility.yul\":5243:5258   */\n      mstore\n        /* \"#utility.yul\":5277:5281   */\n      0x24\n        /* \"#utility.yul\":5274:5275   */\n      0x00\n        /* \"#utility.yul\":5267:5282   */\n      revert\n        /* \"#utility.yul\":5294:5474   */\n    tag_20:\n        /* \"#utility.yul\":5342:5419   */\n      0x4e487b7100000000000000000000000000000000000000000000000000000000\n        /* \"#utility.yul\":5339:5340   */\n      0x00\n        /* \"#utility.yul\":5332:5420   */\n      mstore\n        /* \"#utility.yul\":5439:5443   */\n      0x32\n        /* \"#utility.yul\":5436:5437   */\n      0x04\n        /* \"#utility.yul\":5429:5444   */\n      mstore\n        /* \"#utility.yul\":5463:5467   */\n      0x24\n        /* \"#utility.yul\":5460:5461   */\n      0x00\n        /* \"#utility.yul\":5453:5468   */\n      revert\n        /* \"#utility.yul\":5480:5597   */\n    tag_49:\n        /* \"#utility.yul\":5589:5590   */\n      0x00\n        /* \"#utility.yul\":5586:5587   */\n      dup1\n        /* \"#utility.yul\":5579:5591   */\n      revert\n        /* \"#utility.yul\":5603:5720   */\n    tag_50:\n        /* \"#utility.yul\":5712:5713   */\n      0x00\n        /* \"#utility.yul\":5709:5710   */\n      dup1\n        /* \"#utility.yul\":5702:5714   */\n      revert\n        /* \"#utility.yul\":5726:5843   */\n    tag_51:\n        /* \"#utility.yul\":5835:5836   */\n      0x00\n        /* \"#utility.yul\":5832:5833   */\n      dup1\n        /* \"#utility.yul\":5825:5837   */\n      revert\n        /* \"#utility.yul\":5849:6573   */\n    tag_22:\n        /* \"#utility.yul\":5926:5930   */\n      0x00\n        /* \"#utility.yul\":5932:5938   */\n      dup1\n        /* \"#utility.yul\":5988:5999   */\n      dup4\n        /* \"#utility.yul\":5975:6000   */\n      calldataload\n        /* \"#utility.yul\":6088:6089   */\n      0x01\n        /* \"#utility.yul\":6082:6086   */\n      0x20\n        /* \"#utility.yul\":6078:6090   */\n      sub\n        /* \"#utility.yul\":6067:6075   */\n      dup5\n        /* \"#utility.yul\":6051:6065   */\n      calldatasize\n        /* \"#utility.yul\":6047:6076   */\n      sub\n        /* \"#utility.yul\":6043:6091   */\n      sub\n        /* \"#utility.yul\":6023:6041   */\n      dup2\n        /* \"#utility.yul\":6019:6092   */\n      slt\n        /* \"#utility.yul\":6009:6177   */\n      tag_110\n      jumpi\n        /* \"#utility.yul\":6096:6175   */\n      tag_111\n      tag_49\n      jump\t// in\n    tag_111:\n        /* \"#utility.yul\":6009:6177   */\n    tag_110:\n        /* \"#utility.yul\":6208:6226   */\n      dup1\n        /* \"#utility.yul\":6198:6206   */\n      dup5\n        /* \"#utility.yul\":6194:6227   */\n      add\n        /* \"#utility.yul\":6186:6227   */\n      swap3\n      pop\n        /* \"#utility.yul\":6260:6264   */\n      dup3\n        /* \"#utility.yul\":6247:6265   */\n      calldataload\n        /* \"#utility.yul\":6237:6265   */\n      swap2\n      pop\n        /* \"#utility.yul\":6288:6306   */\n      0xffffffffffffffff\n        /* \"#utility.yul\":6280:6286   */\n      dup3\n        /* \"#utility.yul\":6277:6307   */\n      gt\n        /* \"#utility.yul\":6274:6391   */\n      iszero\n      tag_112\n      jumpi\n        /* \"#utility.yul\":6310:6389   */\n      tag_113\n      tag_50\n      jump\t// in\n    tag_113:\n        /* \"#utility.yul\":6274:6391   */\n    tag_112:\n        /* \"#utility.yul\":6418:6420   */\n      0x20\n        /* \"#utility.yul\":6412:6416   */\n      dup4\n        /* \"#utility.yul\":6408:6421   */\n      add\n        /* \"#utility.yul\":6400:6421   */\n      swap3\n      pop\n        /* \"#utility.yul\":6475:6479   */\n      0x01\n        /* \"#utility.yul\":6467:6473   */\n      dup3\n        /* \"#utility.yul\":6463:6480   */\n      mul\n        /* \"#utility.yul\":6447:6461   */\n      calldatasize\n        /* \"#utility.yul\":6443:6481   */\n      sub\n        /* \"#utility.yul\":6437:6441   */\n      dup4\n        /* \"#utility.yul\":6433:6482   */\n      sgt\n        /* \"#utility.yul\":6430:6566   */\n      iszero\n      tag_114\n      jumpi\n        /* \"#utility.yul\":6485:6564   */\n      tag_115\n      tag_51\n      jump\t// in\n    tag_115:\n        /* \"#utility.yul\":6430:6566   */\n    tag_114:\n        /* \"#utility.yul\":5939:6573   */\n      pop\n        /* \"#utility.yul\":5849:6573   */\n      swap3\n      pop\n      swap3\n      swap1\n      pop\n      jump\t// out\n        /* \"#utility.yul\":6579:6726   */\n    tag_52:\n        /* \"#utility.yul\":6680:6691   */\n      0x00\n        /* \"#utility.yul\":6717:6720   */\n      dup2\n        /* \"#utility.yul\":6702:6720   */\n      swap1\n      pop\n        /* \"#utility.yul\":6579:6726   */\n      swap3\n      swap2\n      pop\n      pop\n      jump\t// out\n        /* \"#utility.yul\":6732:6878   */\n    tag_53:\n        /* \"#utility.yul\":6829:6835   */\n      dup3\n        /* \"#utility.yul\":6824:6827   */\n      dup2\n        /* \"#utility.yul\":6819:6822   */\n      dup4\n        /* \"#utility.yul\":6806:6836   */\n      calldatacopy\n        /* \"#utility.yul\":6870:6871   */\n      0x00\n        /* \"#utility.yul\":6861:6867   */\n      dup4\n        /* \"#utility.yul\":6856:6859   */\n      dup4\n        /* \"#utility.yul\":6852:6868   */\n      add\n        /* \"#utility.yul\":6845:6872   */\n      mstore\n        /* \"#utility.yul\":6732:6878   */\n      pop\n      pop\n      pop\n      jump\t// out\n        /* \"#utility.yul\":6906:7233   */\n    tag_54:\n        /* \"#utility.yul\":7020:7023   */\n      0x00\n        /* \"#utility.yul\":7041:7129   */\n      tag_119\n        /* \"#utility.yul\":7122:7128   */\n      dup4\n        /* \"#utility.yul\":7117:7120   */\n      dup6\n        /* \"#utility.yul\":7041:7129   */\n      tag_52\n      jump\t// in\n    tag_119:\n        /* \"#utility.yul\":7034:7129   */\n      swap4\n      pop\n        /* \"#utility.yul\":7139:7195   */\n      tag_120\n        /* \"#utility.yul\":7188:7194   */\n      dup4\n        /* \"#utility.yul\":7183:7186   */\n      dup6\n        /* \"#utility.yul\":7176:7181   */\n      dup5\n        /* \"#utility.yul\":7139:7195   */\n      tag_53\n      jump\t// in\n    tag_120:\n        /* \"#utility.yul\":7220:7226   */\n      dup3\n        /* \"#utility.yul\":7215:7218   */\n      dup5\n        /* \"#utility.yul\":7211:7227   */\n      add\n        /* \"#utility.yul\":7204:7227   */\n      swap1\n      pop\n        /* \"#utility.yul\":6906:7233   */\n      swap4\n      swap3\n      pop\n      pop\n      pop\n      jump\t// out\n        /* \"#utility.yul\":7239:7530   */\n    tag_24:\n        /* \"#utility.yul\":7379:7382   */\n      0x00\n        /* \"#utility.yul\":7401:7504   */\n      tag_122\n        /* \"#utility.yul\":7500:7503   */\n      dup3\n        /* \"#utility.yul\":7491:7497   */\n      dup5\n        /* \"#utility.yul\":7483:7489   */\n      dup7\n        /* \"#utility.yul\":7401:7504   */\n      tag_54\n      jump\t// in\n    tag_122:\n        /* \"#utility.yul\":7394:7504   */\n      swap2\n      pop\n        /* \"#utility.yul\":7521:7524   */\n      dup2\n        /* \"#utility.yul\":7514:7524   */\n      swap1\n      pop\n        /* \"#utility.yul\":7239:7530   */\n      swap4\n      swap3\n      pop\n      pop\n      pop\n      jump\t// out\n\n    auxdata: 0xa26469706673582212209f69be932c45ec2db8de9e75775d5f1448a6330cb1f1b39b322f7e576602d41e64736f6c63430008180033\n}\n",
				"bytecode": {
					"linkReferences": {},
					"object": "608060405234801561000f575f80fd5b506105188061001d5f395ff3fe60806040526004361061001d575f3560e01c806310957d3c14610021575b5f80fd5b61003b60048036038101906100369190610216565b610051565b60405161004891906103a6565b60405180910390f35b60608282905067ffffffffffffffff8111156100705761006f6103c6565b5b6040519080825280602002602001820160405280156100a357816020015b606081526020019060019003908161008e5790505b5090505f5b838390508110156101a6575f803073ffffffffffffffffffffffffffffffffffffffff168686858181106100df576100de6103f3565b5b90506020028101906100f1919061042c565b6040516100ff9291906104ca565b5f60405180830381855af49150503d805f8114610137576040519150601f19603f3d011682016040523d82523d5f602084013e61013c565b606091505b509150915081610178576040517f835e98fe00000000000000000000000000000000000000000000000000000000815260040160405180910390fd5b8084848151811061018c5761018b6103f3565b5b6020026020010181905250505080806001019150506100a8565b5092915050565b5f80fd5b5f80fd5b5f80fd5b5f80fd5b5f80fd5b5f8083601f8401126101d6576101d56101b5565b5b8235905067ffffffffffffffff8111156101f3576101f26101b9565b5b60208301915083602082028301111561020f5761020e6101bd565b5b9250929050565b5f806020838503121561022c5761022b6101ad565b5b5f83013567ffffffffffffffff811115610249576102486101b1565b5b610255858286016101c1565b92509250509250929050565b5f81519050919050565b5f82825260208201905092915050565b5f819050602082019050919050565b5f81519050919050565b5f82825260208201905092915050565b5f5b838110156102c15780820151818401526020810190506102a6565b5f8484015250505050565b5f601f19601f8301169050919050565b5f6102e68261028a565b6102f08185610294565b93506103008185602086016102a4565b610309816102cc565b840191505092915050565b5f61031f83836102dc565b905092915050565b5f602082019050919050565b5f61033d82610261565b610347818561026b565b9350836020820285016103598561027b565b805f5b8581101561039457848403895281516103758582610314565b945061038083610327565b925060208a0199505060018101905061035c565b50829750879550505050505092915050565b5f6020820190508181035f8301526103be8184610333565b905092915050565b7f4e487b71000000000000000000000000000000000000000000000000000000005f52604160045260245ffd5b7f4e487b71000000000000000000000000000000000000000000000000000000005f52603260045260245ffd5b5f80fd5b5f80fd5b5f80fd5b5f808335600160200384360303811261044857610447610420565b5b80840192508235915067ffffffffffffffff82111561046a57610469610424565b5b60208301925060018202360383131561048657610485610428565b5b509250929050565b5f81905092915050565b828183375f83830152505050565b5f6104b1838561048e565b93506104be838584610498565b82840190509392505050565b5f6104d68284866104a6565b9150819050939250505056fea26469706673582212209f69be932c45ec2db8de9e75775d5f1448a6330cb1f1b39b322f7e576602d41e64736f6c63430008180033",
					"opcodes": "PUSH1 0x80 PUSH1 0x40 MSTORE CALLVALUE DUP1 ISZERO PUSH2 0xF JUMPI PUSH0 DUP1 REVERT JUMPDEST POP PUSH2 0x518 DUP1 PUSH2 0x1D PUSH0 CODECOPY PUSH0 RETURN INVALID PUSH1 0x80 PUSH1 0x40 MSTORE PUSH1 0x4 CALLDATASIZE LT PUSH2 0x1D JUMPI PUSH0 CALLDATALOAD PUSH1 0xE0 SHR DUP1 PUSH4 0x10957D3C EQ PUSH2 0x21 JUMPI JUMPDEST PUSH0 DUP1 REVERT JUMPDEST PUSH2 0x3B PUSH1 0x4 DUP1 CALLDATASIZE SUB DUP2 ADD SWAP1 PUSH2 0x36 SWAP2 SWAP1 PUSH2 0x216 JUMP JUMPDEST PUSH2 0x51 JUMP JUMPDEST PUSH1 0x40 MLOAD PUSH2 0x48 SWAP2 SWAP1 PUSH2 0x3A6 JUMP JUMPDEST PUSH1 0x40 MLOAD DUP1 SWAP2 SUB SWAP1 RETURN JUMPDEST PUSH1 0x60 DUP3 DUP3 SWAP1 POP PUSH8 0xFFFFFFFFFFFFFFFF DUP2 GT ISZERO PUSH2 0x70 JUMPI PUSH2 0x6F PUSH2 0x3C6 JUMP JUMPDEST JUMPDEST PUSH1 0x40 MLOAD SWAP1 DUP1 DUP3 MSTORE DUP1 PUSH1 0x20 MUL PUSH1 0x20 ADD DUP3 ADD PUSH1 0x40 MSTORE DUP1 ISZERO PUSH2 0xA3 JUMPI DUP2 PUSH1 0x20 ADD JUMPDEST PUSH1 0x60 DUP2 MSTORE PUSH1 0x20 ADD SWAP1 PUSH1 0x1 SWAP1 SUB SWAP1 DUP2 PUSH2 0x8E JUMPI SWAP1 POP JUMPDEST POP SWAP1 POP PUSH0 JUMPDEST DUP4 DUP4 SWAP1 POP DUP2 LT ISZERO PUSH2 0x1A6 JUMPI PUSH0 DUP1 ADDRESS PUSH20 0xFFFFFFFFFFFFFFFFFFFFFFFFFFFFFFFFFFFFFFFF AND DUP7 DUP7 DUP6 DUP2 DUP2 LT PUSH2 0xDF JUMPI PUSH2 0xDE PUSH2 0x3F3 JUMP JUMPDEST JUMPDEST SWAP1 POP PUSH1 0x20 MUL DUP2 ADD SWAP1 PUSH2 0xF1 SWAP2 SWAP1 PUSH2 0x42C JUMP JUMPDEST PUSH1 0x40 MLOAD PUSH2 0xFF SWAP3 SWAP2 SWAP1 PUSH2 0x4CA JUMP JUMPDEST PUSH0 PUSH1 0x40 MLOAD DUP1 DUP4 SUB DUP2 DUP6 GAS DELEGATECALL SWAP2 POP POP RETURNDATASIZE DUP1 PUSH0 DUP2 EQ PUSH2 0x137 JUMPI PUSH1 0x40 MLOAD SWAP2 POP PUSH1 0x1F NOT PUSH1 0x3F RETURNDATASIZE ADD AND DUP3 ADD PUSH1 0x40 MSTORE RETURNDATASIZE DUP3 MSTORE RETURNDATASIZE PUSH0 PUSH1 0x20 DUP5 ADD RETURNDATACOPY PUSH2 0x13C JUMP JUMPDEST PUSH1 0x60 SWAP2 POP JUMPDEST POP SWAP2 POP SWAP2 POP DUP2 PUSH2 0x178 JUMPI PUSH1 0x40 MLOAD PUSH32 0x835E98FE00000000000000000000000000000000000000000000000000000000 DUP2 MSTORE PUSH1 0x4 ADD PUSH1 0x40 MLOAD DUP1 SWAP2 SUB SWAP1 REVERT JUMPDEST DUP1 DUP5 DUP5 DUP2 MLOAD DUP2 LT PUSH2 0x18C JUMPI PUSH2 0x18B PUSH2 0x3F3 JUMP JUMPDEST JUMPDEST PUSH1 0x20 MUL PUSH1 0x20 ADD ADD DUP2 SWAP1 MSTORE POP POP POP DUP1 DUP1 PUSH1 0x1 ADD SWAP2 POP POP PUSH2 0xA8 JUMP JUMPDEST POP SWAP3 SWAP2 POP POP JUMP JUMPDEST PUSH0 DUP1 REVERT JUMPDEST PUSH0 DUP1 REVERT JUMPDEST PUSH0 DUP1 REVERT JUMPDEST PUSH0 DUP1 REVERT JUMPDEST PUSH0 DUP1 REVERT JUMPDEST PUSH0 DUP1 DUP4 PUSH1 0x1F DUP5 ADD SLT PUSH2 0x1D6 JUMPI PUSH2 0x1D5 PUSH2 0x1B5 JUMP JUMPDEST JUMPDEST DUP3 CALLDATALOAD SWAP1 POP PUSH8 0xFFFFFFFFFFFFFFFF DUP2 GT ISZERO PUSH2 0x1F3 JUMPI PUSH2 0x1F2 PUSH2 0x1B9 JUMP JUMPDEST JUMPDEST PUSH1 0x20 DUP4 ADD SWAP2 POP DUP4 PUSH1 0x20 DUP3 MUL DUP4 ADD GT ISZERO PUSH2 0x20F JUMPI PUSH2 0x20E PUSH2 0x1BD JUMP JUMPDEST JUMPDEST SWAP3 POP SWAP3 SWAP1 POP JUMP JUMPDEST PUSH0 DUP1 PUSH1 0x20 DUP4 DUP6 SUB SLT ISZERO PUSH2 0x22C JUMPI PUSH2 0x22B PUSH2 0x1AD JUMP JUMPDEST JUMPDEST PUSH0 DUP4 ADD CALLDATALOAD PUSH8 0xFFFFFFFFFFFFFFFF DUP2 GT ISZERO PUSH2 0x249 JUMPI PUSH2 0x248 PUSH2 0x1B1 JUMP JUMPDEST JUMPDEST PUSH2 0x255 DUP6 DUP3 DUP7 ADD PUSH2 0x1C1 JUMP JUMPDEST SWAP3 POP SWAP3 POP POP SWAP3 POP SWAP3 SWAP1 POP JUMP JUMPDEST PUSH0 DUP2 MLOAD SWAP1 POP SWAP2 SWAP1 POP JUMP JUMPDEST PUSH0 DUP3 DUP3 MSTORE PUSH1 0x20 DUP3 ADD SWAP1 POP SWAP3 SWAP2 POP POP JUMP JUMPDEST PUSH0 DUP2 SWAP1 POP PUSH1 0x20 DUP3 ADD SWAP1 POP SWAP2 SWAP1 POP JUMP JUMPDEST PUSH0 DUP2 MLOAD SWAP1 POP SWAP2 SWAP1 POP JUMP JUMPDEST PUSH0 DUP3 DUP3 MSTORE PUSH1 0x20 DUP3 ADD SWAP1 POP SWAP3 SWAP2 POP POP JUMP JUMPDEST PUSH0 JUMPDEST DUP4 DUP2 LT ISZERO PUSH2 0x2C1 JUMPI DUP1 DUP3 ADD MLOAD DUP2 DUP5 ADD MSTORE PUSH1 0x20 DUP2 ADD SWAP1 POP PUSH2 0x2A6 JUMP JUMPDEST PUSH0 DUP5 DUP5 ADD MSTORE POP POP POP POP JUMP JUMPDEST PUSH0 PUSH1 0x1F NOT PUSH1 0x1F DUP4 ADD AND SWAP1 POP SWAP2 SWAP1 POP JUMP JUMPDEST PUSH0 PUSH2 0x2E6 DUP3 PUSH2 0x28A JUMP JUMPDEST PUSH2 0x2F0 DUP2 DUP6 PUSH2 0x294 JUMP JUMPDEST SWAP4 POP PUSH2 0x300 DUP2 DUP6 PUSH1 0x20 DUP7 ADD PUSH2 0x2A4 JUMP JUMPDEST PUSH2 0x309 DUP2 PUSH2 0x2CC JUMP JUMPDEST DUP5 ADD SWAP2 POP POP SWAP3 SWAP2 POP POP JUMP JUMPDEST PUSH0 PUSH2 0x31F DUP4 DUP4 PUSH2 0x2DC JUMP JUMPDEST SWAP1 POP SWAP3 SWAP2 POP POP JUMP JUMPDEST PUSH0 PUSH1 0x20 DUP3 ADD SWAP1 POP SWAP2 SWAP1 POP JUMP JUMPDEST PUSH0 PUSH2 0x33D DUP3 PUSH2 0x261 JUMP JUMPDEST PUSH2 0x347 DUP2 DUP6 PUSH2 0x26B JUMP JUMPDEST SWAP4 POP DUP4 PUSH1 0x20 DUP3 MUL DUP6 ADD PUSH2 0x359 DUP6 PUSH2 0x27B JUMP JUMPDEST DUP1 PUSH0 JUMPDEST DUP6 DUP2 LT ISZERO PUSH2 0x394 JUMPI DUP5 DUP5 SUB DUP10 MSTORE DUP2 MLOAD PUSH2 0x375 DUP6 DUP3 PUSH2 0x314 JUMP JUMPDEST SWAP5 POP PUSH2 0x380 DUP4 PUSH2 0x327 JUMP JUMPDEST SWAP3 POP PUSH1 0x20 DUP11 ADD SWAP10 POP POP PUSH1 0x1 DUP2 ADD SWAP1 POP PUSH2 0x35C JUMP JUMPDEST POP DUP3 SWAP8 POP DUP8 SWAP6 POP POP POP POP POP POP SWAP3 SWAP2 POP POP JUMP JUMPDEST PUSH0 PUSH1 0x20 DUP3 ADD SWAP1 POP DUP2 DUP2 SUB PUSH0 DUP4 ADD MSTORE PUSH2 0x3BE DUP2 DUP5 PUSH2 0x333 JUMP JUMPDEST SWAP1 POP SWAP3 SWAP2 POP POP JUMP JUMPDEST PUSH32 0x4E487B7100000000000000000000000000000000000000000000000000000000 PUSH0 MSTORE PUSH1 0x41 PUSH1 0x4 MSTORE PUSH1 0x24 PUSH0 REVERT JUMPDEST PUSH32 0x4E487B7100000000000000000000000000000000000000000000000000000000 PUSH0 MSTORE PUSH1 0x32 PUSH1 0x4 MSTORE PUSH1 0x24 PUSH0 REVERT JUMPDEST PUSH0 DUP1 REVERT JUMPDEST PUSH0 DUP1 REVERT JUMPDEST PUSH0 DUP1 REVERT JUMPDEST PUSH0 DUP1 DUP4 CALLDATALOAD PUSH1 0x1 PUSH1 0x20 SUB DUP5 CALLDATASIZE SUB SUB DUP2 SLT PUSH2 0x448 JUMPI PUSH2 0x447 PUSH2 0x420 JUMP JUMPDEST JUMPDEST DUP1 DUP5 ADD SWAP3 POP DUP3 CALLDATALOAD SWAP2 POP PUSH8 0xFFFFFFFFFFFFFFFF DUP3 GT ISZERO PUSH2 0x46A JUMPI PUSH2 0x469 PUSH2 0x424 JUMP JUMPDEST JUMPDEST PUSH1 0x20 DUP4 ADD SWAP3 POP PUSH1 0x1 DUP3 MUL CALLDATASIZE SUB DUP4 SGT ISZERO PUSH2 0x486 JUMPI PUSH2 0x485 PUSH2 0x428 JUMP JUMPDEST JUMPDEST POP SWAP3 POP SWAP3 SWAP1 POP JUMP JUMPDEST PUSH0 DUP2 SWAP1 POP SWAP3 SWAP2 POP POP JUMP JUMPDEST DUP3 DUP2 DUP4 CALLDATACOPY PUSH0 DUP4 DUP4 ADD MSTORE POP POP POP JUMP JUMPDEST PUSH0 PUSH2 0x4B1 DUP4 DUP6 PUSH2 0x48E JUMP JUMPDEST SWAP4 POP PUSH2 0x4BE DUP4 DUP6 DUP5 PUSH2 0x498 JUMP JUMPDEST DUP3 DUP5 ADD SWAP1 POP SWAP4 SWAP3 POP POP POP JUMP JUMPDEST PUSH0 PUSH2 0x4D6 DUP3 DUP5 DUP7 PUSH2 0x4A6 JUMP JUMPDEST SWAP2 POP DUP2 SWAP1 POP SWAP4 SWAP3 POP POP POP JUMP INVALID LOG2 PUSH5 0x6970667358 0x22 SLT KECCAK256 SWAP16 PUSH10 0xBE932C45EC2DB8DE9E75 PUSH24 0x5D5F1448A6330CB1F1B39B322F7E576602D41E64736F6C63 NUMBER STOP ADDMOD XOR STOP CALLER "
				},
				"gasEstimates": {
					"creation": {
						"codeDepositCost": "260800",
						"executionCost": "298",
						"totalCost": "261098"
					},
					"external": {
						"multiDelegatecall(bytes[])": "infinite"
					}
				},
				"methodIdentifiers": {
					"multiDelegatecall(bytes[])": "10957d3c"
				}
			},
			"storageLayout": {
				"storage": [],
				"types": null
			},
			"userdoc": {
				"kind": "user",
				"methods": {},
				"version": 1
			}
		}
	}
}